{"contracts/Docu3.sol":{"DocumentSign":{"abi":[{"anonymous":false,"inputs":[{"indexed":true,"internalType":"uint256","name":"docId","type":"uint256"},{"indexed":false,"internalType":"string","name":"newIpfsHash","type":"string"},{"indexed":true,"internalType":"address","name":"editor","type":"address"},{"indexed":false,"internalType":"uint256","name":"amendedAt","type":"uint256"}],"name":"DocumentAmended","type":"event"},{"anonymous":false,"inputs":[{"indexed":true,"internalType":"uint256","name":"docId","type":"uint256"},{"indexed":false,"internalType":"string","name":"ipfsHash","type":"string"},{"indexed":true,"internalType":"address","name":"creator","type":"address"},{"indexed":false,"internalType":"address[]","name":"signers","type":"address[]"},{"indexed":false,"internalType":"uint256","name":"createdAt","type":"uint256"}],"name":"DocumentCreated","type":"event"},{"anonymous":false,"inputs":[{"indexed":true,"internalType":"uint256","name":"docId","type":"uint256"},{"indexed":false,"internalType":"uint256","name":"expiredAt","type":"uint256"}],"name":"DocumentExpired","type":"event"},{"anonymous":false,"inputs":[{"indexed":true,"internalType":"uint256","name":"docId","type":"uint256"},{"indexed":true,"internalType":"address","name":"revoker","type":"address"},{"indexed":false,"internalType":"uint256","name":"revokedAt","type":"uint256"},{"indexed":false,"internalType":"string","name":"reason","type":"string"}],"name":"DocumentRevoked","type":"event"},{"anonymous":false,"inputs":[{"indexed":true,"internalType":"uint256","name":"docId","type":"uint256"},{"indexed":true,"internalType":"address","name":"signer","type":"address"},{"indexed":false,"internalType":"uint256","name":"signedAt","type":"uint256"},{"indexed":false,"internalType":"string","name":"signature","type":"string"}],"name":"DocumentSigned","type":"event"},{"anonymous":false,"inputs":[{"indexed":true,"internalType":"address","name":"user","type":"address"},{"indexed":false,"internalType":"string","name":"firstName","type":"string"},{"indexed":false,"internalType":"string","name":"familyName","type":"string"},{"indexed":false,"internalType":"string","name":"email","type":"string"},{"indexed":false,"internalType":"uint256","name":"dob","type":"uint256"},{"indexed":false,"internalType":"string","name":"publicKey","type":"string"}],"name":"UserRegistered","type":"event"},{"inputs":[{"internalType":"uint256","name":"_docId","type":"uint256"},{"internalType":"string","name":"_newIpfsHash","type":"string"},{"internalType":"uint256","name":"_newExpiry","type":"uint256"}],"name":"amendDocument","outputs":[],"stateMutability":"nonpayable","type":"function"},{"inputs":[{"internalType":"string","name":"_ipfsHash","type":"string"},{"internalType":"address[]","name":"_signers","type":"address[]"},{"internalType":"uint256","name":"_expiry","type":"uint256"}],"name":"createDocument","outputs":[{"internalType":"uint256","name":"","type":"uint256"}],"stateMutability":"nonpayable","type":"function"},{"inputs":[],"name":"documentCount","outputs":[{"internalType":"uint256","name":"","type":"uint256"}],"stateMutability":"view","type":"function"},{"inputs":[{"internalType":"string","name":"","type":"string"}],"name":"emailToAddress","outputs":[{"internalType":"address","name":"","type":"address"}],"stateMutability":"view","type":"function"},{"inputs":[],"name":"getAllRegisteredUsers","outputs":[{"internalType":"address[]","name":"","type":"address[]"}],"stateMutability":"view","type":"function"},{"inputs":[{"internalType":"uint256","name":"_docId","type":"uint256"}],"name":"getCurrentSigner","outputs":[{"internalType":"address","name":"","type":"address"}],"stateMutability":"view","type":"function"},{"inputs":[{"internalType":"uint256","name":"_docId","type":"uint256"}],"name":"getDocument","outputs":[{"internalType":"string","name":"ipfsHash","type":"string"},{"internalType":"address","name":"creator","type":"address"},{"internalType":"address[]","name":"signers","type":"address[]"},{"internalType":"uint256","name":"createdAt","type":"uint256"},{"internalType":"uint256","name":"signatureCount","type":"uint256"},{"internalType":"bool","name":"fullySigned","type":"bool"},{"internalType":"bool","name":"isRevoked","type":"bool"}],"stateMutability":"view","type":"function"},{"inputs":[{"internalType":"uint256","name":"_docId","type":"uint256"}],"name":"getDocumentExpiry","outputs":[{"internalType":"uint256","name":"","type":"uint256"}],"stateMutability":"view","type":"function"},{"inputs":[{"internalType":"uint256","name":"_docId","type":"uint256"}],"name":"getDocumentExpiryInfo","outputs":[{"internalType":"uint256","name":"expiry","type":"uint256"},{"internalType":"bool","name":"expired","type":"bool"},{"internalType":"uint256","name":"timeUntilExpiry","type":"uint256"},{"internalType":"bool","name":"hasExpiry","type":"bool"}],"stateMutability":"view","type":"function"},{"inputs":[{"internalType":"uint256","name":"_docId","type":"uint256"},{"internalType":"address","name":"_user","type":"address"}],"name":"getRole","outputs":[{"internalType":"enum DocumentSign.Role","name":"","type":"uint8"}],"stateMutability":"view","type":"function"},{"inputs":[{"internalType":"uint256","name":"_docId","type":"uint256"},{"internalType":"address","name":"_signer","type":"address"}],"name":"getSignTimestamp","outputs":[{"internalType":"uint256","name":"","type":"uint256"}],"stateMutability":"view","type":"function"},{"inputs":[{"internalType":"uint256","name":"_docId","type":"uint256"},{"internalType":"address","name":"_signer","type":"address"}],"name":"getSignature","outputs":[{"internalType":"string","name":"","type":"string"}],"stateMutability":"view","type":"function"},{"inputs":[{"internalType":"address","name":"user","type":"address"}],"name":"getUserProfile","outputs":[{"internalType":"string","name":"firstName","type":"string"},{"internalType":"string","name":"familyName","type":"string"},{"internalType":"string","name":"email","type":"string"},{"internalType":"uint256","name":"dob","type":"uint256"},{"internalType":"bool","name":"isRegistered","type":"bool"},{"internalType":"string","name":"publicKey","type":"string"}],"stateMutability":"view","type":"function"},{"inputs":[{"internalType":"uint256","name":"_docId","type":"uint256"},{"internalType":"address","name":"_signer","type":"address"}],"name":"hasSigned","outputs":[{"internalType":"bool","name":"","type":"bool"}],"stateMutability":"view","type":"function"},{"inputs":[{"internalType":"uint256","name":"_docId","type":"uint256"}],"name":"isExpired","outputs":[{"internalType":"bool","name":"","type":"bool"}],"stateMutability":"view","type":"function"},{"inputs":[{"internalType":"address","name":"_user","type":"address"},{"internalType":"uint256","name":"_docId","type":"uint256"}],"name":"isSigner","outputs":[{"internalType":"bool","name":"","type":"bool"}],"stateMutability":"view","type":"function"},{"inputs":[{"internalType":"uint256","name":"_docId","type":"uint256"}],"name":"isSingleUserDocument","outputs":[{"internalType":"bool","name":"","type":"bool"}],"stateMutability":"view","type":"function"},{"inputs":[{"internalType":"address","name":"","type":"address"}],"name":"profiles","outputs":[{"internalType":"string","name":"firstName","type":"string"},{"internalType":"string","name":"familyName","type":"string"},{"internalType":"string","name":"email","type":"string"},{"internalType":"uint256","name":"dob","type":"uint256"},{"internalType":"bool","name":"isRegistered","type":"bool"},{"internalType":"string","name":"publicKey","type":"string"}],"stateMutability":"view","type":"function"},{"inputs":[{"internalType":"string","name":"firstName","type":"string"},{"internalType":"string","name":"familyName","type":"string"},{"internalType":"string","name":"email","type":"string"},{"internalType":"uint256","name":"dob","type":"uint256"},{"internalType":"string","name":"publicKey","type":"string"}],"name":"registerUser","outputs":[],"stateMutability":"nonpayable","type":"function"},{"inputs":[{"internalType":"uint256","name":"","type":"uint256"}],"name":"registeredUsers","outputs":[{"internalType":"address","name":"","type":"address"}],"stateMutability":"view","type":"function"},{"inputs":[{"internalType":"uint256","name":"_docId","type":"uint256"},{"internalType":"string","name":"_reason","type":"string"}],"name":"revokeDocument","outputs":[],"stateMutability":"nonpayable","type":"function"},{"inputs":[{"internalType":"uint256","name":"_docId","type":"uint256"},{"internalType":"string","name":"_signature","type":"string"}],"name":"signDocument","outputs":[],"stateMutability":"nonpayable","type":"function"},{"inputs":[{"internalType":"uint256","name":"_docId","type":"uint256"}],"name":"signDocumentLegacy","outputs":[],"stateMutability":"nonpayable","type":"function"},{"inputs":[{"internalType":"uint256","name":"_docId","type":"uint256"},{"internalType":"address","name":"_signer","type":"address"},{"internalType":"bytes32","name":"_documentHash","type":"bytes32"},{"internalType":"bytes","name":"_signature","type":"bytes"}],"name":"verifySignature","outputs":[{"internalType":"bool","name":"","type":"bool"}],"stateMutability":"view","type":"function"}],"evm":{"bytecode":{"linkReferences":{},"object":"608060405234801561001057600080fd5b50614ae9806100206000396000f3fe608060405234801561001057600080fd5b50600436106101585760003560e01c806393552a3d116100c3578063c2a6ebfb1161007c578063c2a6ebfb14610470578063cb5618241461048c578063d0e2a019146104bc578063d9548e53146104d8578063e0cd77b014610508578063ea78dcbf1461053857610158565b806393552a3d1461036c578063987ee1561461039c578063a5b16b2e146103d1578063b0cace06146103ef578063b3bcd5cf1461040b578063bbe156271461043b57610158565b80634e46a1e8116101155780634e46a1e8146102745780635308cfa9146102a45780635f372d56146102c0578063709df8d9146102dc5780637259e0f81461030c57806378abeae11461033c57610158565b80631b1ab53d1461015d5780631bcb19ab1461018d5780631d639b2a146101c057806328d787d9146101f0578063397388af146102205780633f9b250a1461023e575b600080fd5b61017760048036038101906101729190613090565b610568565b60405161018491906130df565b60405180910390f35b6101a760048036038101906101a291906130fa565b6105c5565b6040516101b79493929190613142565b60405180910390f35b6101da60048036038101906101d591906130fa565b610693565b6040516101e79190613187565b60405180910390f35b61020a6004803603810190610205919061331e565b6107aa565b6040516102179190613187565b60405180910390f35b610228610a3a565b604051610235919061345f565b60405180910390f35b610258600480360381019061025391906130fa565b610ac8565b60405161026b979695949392919061350f565b60405180910390f35b61028e6004803603810190610289919061358c565b610d7c565b60405161029b9190613187565b60405180910390f35b6102be60048036038101906102b9919061366d565b610ec4565b005b6102da60048036038101906102d591906130fa565b6113af565b005b6102f660048036038101906102f19190613090565b611804565b6040516103039190613187565b60405180910390f35b610326600480360381019061032191906130fa565b61186e565b60405161033391906136c9565b60405180910390f35b610356600480360381019061035191906130fa565b6118ad565b60405161036391906130df565b60405180910390f35b61038660048036038101906103819190613090565b61192e565b604051610393919061375b565b60405180910390f35b6103b660048036038101906103b19190613776565b6119fa565b6040516103c8969594939291906137a3565b60405180910390f35b6103d9611d43565b6040516103e691906130df565b60405180910390f35b61040960048036038101906104049190613820565b611d49565b005b61042560048036038101906104209190613090565b612097565b604051610432919061390b565b60405180910390f35b61045560048036038101906104509190613776565b61217c565b604051610467969594939291906137a3565b60405180910390f35b61048a6004803603810190610485919061392d565b6123e5565b005b6104a660048036038101906104a19190613a64565b6127de565b6040516104b391906130df565b60405180910390f35b6104d660048036038101906104d1919061366d565b612c7d565b005b6104f260048036038101906104ed91906130fa565b612e95565b6040516104ff9190613187565b60405180910390f35b610522600480360381019061051d91906130fa565b612ecc565b60405161052f91906136c9565b60405180910390f35b610552600480360381019061054d9190613aef565b612f9f565b60405161055f91906136c9565b60405180910390f35b600080600084815260200190815260200160002060050160008373ffffffffffffffffffffffffffffffffffffffff1673ffffffffffffffffffffffffffffffffffffffff16815260200190815260200160002054905092915050565b600080600080600080600087815260200190815260200160002090508060090160019054906101000a900460ff16610632576040517f08c379a000000000000000000000000000000000000000000000000000000000815260040161062990613b84565b60405180910390fd5b6000429050600082600a01549050600080821415801561065157508183115b90506000808314158015610663575081155b156106775783836106749190613bd3565b90505b8282826000861415985098509850985050505050509193509193565b60008060008084815260200190815260200160002090508060090160019054906101000a900460ff166106fb576040517f08c379a00000000000000000000000000000000000000000000000000000000081526004016106f290613b84565b60405180910390fd5b600181600201805490501480156107a257508060010160009054906101000a900473ffffffffffffffffffffffffffffffffffffffff1673ffffffffffffffffffffffffffffffffffffffff168160020160008154811061075f5761075e613c07565b5b9060005260206000200160009054906101000a900473ffffffffffffffffffffffffffffffffffffffff1673ffffffffffffffffffffffffffffffffffffffff16145b915050919050565b600080600086815260200190815260200160002060090160019054906101000a900460ff1661080e576040517f08c379a000000000000000000000000000000000000000000000000000000000815260040161080590613b84565b60405180910390fd5b60008086815260200190815260200160002060040160008573ffffffffffffffffffffffffffffffffffffffff1673ffffffffffffffffffffffffffffffffffffffff16815260200190815260200160002060009054906101000a900460ff166108ad576040517f08c379a00000000000000000000000000000000000000000000000000000000081526004016108a490613ca8565b60405180910390fd5b60418251146108f1576040517f08c379a00000000000000000000000000000000000000000000000000000000081526004016108e890613d14565b60405180910390fd5b6000836040516020016109049190613dac565b60405160208183030381529060405280519060200120905060008060006020860151925060408601519150606086015160001a9050601b8160ff16101561095557601b816109529190613ddf565b90505b601b8160ff16148061096a5750601c8160ff16145b6109a9576040517f08c379a00000000000000000000000000000000000000000000000000000000081526004016109a090613e60565b60405180910390fd5b6000600185838686604051600081526020016040526040516109ce9493929190613e9e565b6020604051602081039080840390855afa1580156109f0573d6000803e3d6000fd5b5050506020604051035190508873ffffffffffffffffffffffffffffffffffffffff168173ffffffffffffffffffffffffffffffffffffffff161495505050505050949350505050565b60606003805480602002602001604051908101604052809291908181526020018280548015610abe57602002820191906000526020600020905b8160009054906101000a900473ffffffffffffffffffffffffffffffffffffffff1673ffffffffffffffffffffffffffffffffffffffff1681526020019060010190808311610a74575b5050505050905090565b60606000606060008060008060008060008a815260200190815260200160002090508060090160019054906101000a900460ff16610b3b576040517f08c379a0000000000000000000000000000000000000000000000000000000008152600401610b3290613b84565b60405180910390fd5b60006001905060005b8260020180549050811015610c0257826004016000846002018381548110610b6f57610b6e613c07565b5b9060005260206000200160009054906101000a900473ffffffffffffffffffffffffffffffffffffffff1673ffffffffffffffffffffffffffffffffffffffff1673ffffffffffffffffffffffffffffffffffffffff16815260200190815260200160002060009054906101000a900460ff16610bef5760009150610c02565b8080610bfa90613ee3565b915050610b44565b50816000018260010160009054906101000a900473ffffffffffffffffffffffffffffffffffffffff168360020184600701548560080154858760090160009054906101000a900460ff16868054610c5990613f5a565b80601f0160208091040260200160405190810160405280929190818152602001828054610c8590613f5a565b8015610cd25780601f10610ca757610100808354040283529160200191610cd2565b820191906000526020600020905b815481529060010190602001808311610cb557829003601f168201915b5050505050965084805480602002602001604051908101604052809291908181526020018280548015610d5a57602002820191906000526020600020905b8160009054906101000a900473ffffffffffffffffffffffffffffffffffffffff1673ffffffffffffffffffffffffffffffffffffffff1681526020019060010190808311610d10575b5050505050945098509850985098509850985098505050919395979092949650565b60008060008084815260200190815260200160002090508060090160019054906101000a900460ff16610db3576000915050610ebe565b8373ffffffffffffffffffffffffffffffffffffffff168160010160009054906101000a900473ffffffffffffffffffffffffffffffffffffffff1673ffffffffffffffffffffffffffffffffffffffff1603610e14576001915050610ebe565b60005b8160020180549050811015610eb7578473ffffffffffffffffffffffffffffffffffffffff16826002018281548110610e5357610e52613c07565b5b9060005260206000200160009054906101000a900473ffffffffffffffffffffffffffffffffffffffff1673ffffffffffffffffffffffffffffffffffffffff1603610ea457600192505050610ebe565b8080610eaf90613ee3565b915050610e17565b5060009150505b92915050565b8160008082815260200190815260200160002060090160019054906101000a900460ff16610f27576040517f08c379a0000000000000000000000000000000000000000000000000000000008152600401610f1e90613b84565b60405180910390fd5b600280811115610f3a57610f396136e4565b5b60008083815260200190815260200160002060030160003373ffffffffffffffffffffffffffffffffffffffff1673ffffffffffffffffffffffffffffffffffffffff16815260200190815260200160002060009054906101000a900460ff166002811115610fac57610fab6136e4565b5b14610fec576040517f08c379a0000000000000000000000000000000000000000000000000000000008152600401610fe390613fd7565b60405180910390fd5b8260008082815260200190815260200160002060090160009054906101000a900460ff1615611050576040517f08c379a000000000000000000000000000000000000000000000000000000000815260040161104790614043565b60405180910390fd5b6000806000868152602001908152602001600020905061106f85612e95565b156110af576040517f08c379a00000000000000000000000000000000000000000000000000000000081526004016110a6906140af565b60405180910390fd5b8060040160003373ffffffffffffffffffffffffffffffffffffffff1673ffffffffffffffffffffffffffffffffffffffff16815260200190815260200160002060009054906101000a900460ff161561113e576040517f08c379a00000000000000000000000000000000000000000000000000000000081526004016111359061411b565b60405180910390fd5b3373ffffffffffffffffffffffffffffffffffffffff168160020182600b01548154811061116f5761116e613c07565b5b9060005260206000200160009054906101000a900473ffffffffffffffffffffffffffffffffffffffff1673ffffffffffffffffffffffffffffffffffffffff16146111f0576040517f08c379a00000000000000000000000000000000000000000000000000000000081526004016111e790614187565b60405180910390fd5b6000845111611234576040517f08c379a000000000000000000000000000000000000000000000000000000000815260040161122b906141f3565b60405180910390fd5b60018160040160003373ffffffffffffffffffffffffffffffffffffffff1673ffffffffffffffffffffffffffffffffffffffff16815260200190815260200160002060006101000a81548160ff021916908315150217905550428160050160003373ffffffffffffffffffffffffffffffffffffffff1673ffffffffffffffffffffffffffffffffffffffff16815260200190815260200160002081905550838160060160003373ffffffffffffffffffffffffffffffffffffffff1673ffffffffffffffffffffffffffffffffffffffff168152602001908152602001600020908161132291906143bf565b5080600801600081548092919061133890613ee3565b919050555080600b01600081548092919061135290613ee3565b91905055503373ffffffffffffffffffffffffffffffffffffffff16857f8c14a9d5f9e05ea3d9142fd74ae9dc73e6214837cd22e0622926450648a81edb42876040516113a0929190614491565b60405180910390a35050505050565b8060008082815260200190815260200160002060090160019054906101000a900460ff16611412576040517f08c379a000000000000000000000000000000000000000000000000000000000815260040161140990613b84565b60405180910390fd5b600280811115611425576114246136e4565b5b60008083815260200190815260200160002060030160003373ffffffffffffffffffffffffffffffffffffffff1673ffffffffffffffffffffffffffffffffffffffff16815260200190815260200160002060009054906101000a900460ff166002811115611497576114966136e4565b5b146114d7576040517f08c379a00000000000000000000000000000000000000000000000000000000081526004016114ce90613fd7565b60405180910390fd5b8160008082815260200190815260200160002060090160009054906101000a900460ff161561153b576040517f08c379a000000000000000000000000000000000000000000000000000000000815260040161153290614043565b60405180910390fd5b6000806000858152602001908152602001600020905061155a84612e95565b1561159a576040517f08c379a0000000000000000000000000000000000000000000000000000000008152600401611591906140af565b60405180910390fd5b8060040160003373ffffffffffffffffffffffffffffffffffffffff1673ffffffffffffffffffffffffffffffffffffffff16815260200190815260200160002060009054906101000a900460ff1615611629576040517f08c379a00000000000000000000000000000000000000000000000000000000081526004016116209061411b565b60405180910390fd5b3373ffffffffffffffffffffffffffffffffffffffff168160020182600b01548154811061165a57611659613c07565b5b9060005260206000200160009054906101000a900473ffffffffffffffffffffffffffffffffffffffff1673ffffffffffffffffffffffffffffffffffffffff16146116db576040517f08c379a00000000000000000000000000000000000000000000000000000000081526004016116d290614187565b60405180910390fd5b60018160040160003373ffffffffffffffffffffffffffffffffffffffff1673ffffffffffffffffffffffffffffffffffffffff16815260200190815260200160002060006101000a81548160ff021916908315150217905550428160050160003373ffffffffffffffffffffffffffffffffffffffff1673ffffffffffffffffffffffffffffffffffffffff1681526020019081526020016000208190555080600801600081548092919061179090613ee3565b919050555080600b0160008154809291906117aa90613ee3565b91905055503373ffffffffffffffffffffffffffffffffffffffff16847f8c14a9d5f9e05ea3d9142fd74ae9dc73e6214837cd22e0622926450648a81edb426040516117f691906144e7565b60405180910390a350505050565b600080600084815260200190815260200160002060040160008373ffffffffffffffffffffffffffffffffffffffff1673ffffffffffffffffffffffffffffffffffffffff16815260200190815260200160002060009054906101000a900460ff16905092915050565b6003818154811061187e57600080fd5b906000526020600020016000915054906101000a900473ffffffffffffffffffffffffffffffffffffffff1681565b600080600083815260200190815260200160002060090160019054906101000a900460ff16611911576040517f08c379a000000000000000000000000000000000000000000000000000000000815260040161190890613b84565b60405180910390fd5b600080838152602001908152602001600020600a01549050919050565b600080600084815260200190815260200160002060090160019054906101000a900460ff16611992576040517f08c379a000000000000000000000000000000000000000000000000000000000815260040161198990613b84565b60405180910390fd5b60008084815260200190815260200160002060030160008373ffffffffffffffffffffffffffffffffffffffff1673ffffffffffffffffffffffffffffffffffffffff16815260200190815260200160002060009054906101000a900460ff16905092915050565b60608060606000806060600260008873ffffffffffffffffffffffffffffffffffffffff1673ffffffffffffffffffffffffffffffffffffffff16815260200190815260200160002060040160009054906101000a900460ff16611a93576040517f08c379a0000000000000000000000000000000000000000000000000000000008152600401611a8a90614561565b60405180910390fd5b6000600260008973ffffffffffffffffffffffffffffffffffffffff1673ffffffffffffffffffffffffffffffffffffffff168152602001908152602001600020905080600001816001018260020183600301548460040160009054906101000a900460ff1685600501858054611b0990613f5a565b80601f0160208091040260200160405190810160405280929190818152602001828054611b3590613f5a565b8015611b825780601f10611b5757610100808354040283529160200191611b82565b820191906000526020600020905b815481529060010190602001808311611b6557829003601f168201915b50505050509550848054611b9590613f5a565b80601f0160208091040260200160405190810160405280929190818152602001828054611bc190613f5a565b8015611c0e5780601f10611be357610100808354040283529160200191611c0e565b820191906000526020600020905b815481529060010190602001808311611bf157829003601f168201915b50505050509450838054611c2190613f5a565b80601f0160208091040260200160405190810160405280929190818152602001828054611c4d90613f5a565b8015611c9a5780601f10611c6f57610100808354040283529160200191611c9a565b820191906000526020600020905b815481529060010190602001808311611c7d57829003601f168201915b50505050509350808054611cad90613f5a565b80601f0160208091040260200160405190810160405280929190818152602001828054611cd990613f5a565b8015611d265780601f10611cfb57610100808354040283529160200191611d26565b820191906000526020600020905b815481529060010190602001808311611d0957829003601f168201915b505050505090509650965096509650965096505091939550919395565b60015481565b600260003373ffffffffffffffffffffffffffffffffffffffff1673ffffffffffffffffffffffffffffffffffffffff16815260200190815260200160002060040160009054906101000a900460ff1615611dd9576040517f08c379a0000000000000000000000000000000000000000000000000000000008152600401611dd0906145cd565b60405180910390fd5b600073ffffffffffffffffffffffffffffffffffffffff16600484604051611e01919061461e565b908152602001604051809103902060009054906101000a900473ffffffffffffffffffffffffffffffffffffffff1673ffffffffffffffffffffffffffffffffffffffff1614611e86576040517f08c379a0000000000000000000000000000000000000000000000000000000008152600401611e7d90614681565b60405180910390fd5b6040518060c0016040528086815260200185815260200184815260200183815260200160011515815260200182815250600260003373ffffffffffffffffffffffffffffffffffffffff1673ffffffffffffffffffffffffffffffffffffffff1681526020019081526020016000206000820151816000019081611f0a91906143bf565b506020820151816001019081611f2091906143bf565b506040820151816002019081611f3691906143bf565b506060820151816003015560808201518160040160006101000a81548160ff02191690831515021790555060a0820151816005019081611f7691906143bf565b509050506003339080600181540180825580915050600190039060005260206000200160009091909190916101000a81548173ffffffffffffffffffffffffffffffffffffffff021916908373ffffffffffffffffffffffffffffffffffffffff16021790555033600484604051611fee919061461e565b908152602001604051809103902060006101000a81548173ffffffffffffffffffffffffffffffffffffffff021916908373ffffffffffffffffffffffffffffffffffffffff1602179055503373ffffffffffffffffffffffffffffffffffffffff167f78088310123490d67595b7b0e336cb2e2fc0f7df27ddd8950b8656c84413fb1b86868686866040516120889594939291906146a1565b60405180910390a25050505050565b606060008084815260200190815260200160002060060160008373ffffffffffffffffffffffffffffffffffffffff1673ffffffffffffffffffffffffffffffffffffffff16815260200190815260200160002080546120f690613f5a565b80601f016020809104026020016040519081016040528092919081815260200182805461212290613f5a565b801561216f5780601f106121445761010080835404028352916020019161216f565b820191906000526020600020905b81548152906001019060200180831161215257829003601f168201915b5050505050905092915050565b600260205280600052604060002060009150905080600001805461219f90613f5a565b80601f01602080910402602001604051908101604052809291908181526020018280546121cb90613f5a565b80156122185780601f106121ed57610100808354040283529160200191612218565b820191906000526020600020905b8154815290600101906020018083116121fb57829003601f168201915b50505050509080600101805461222d90613f5a565b80601f016020809104026020016040519081016040528092919081815260200182805461225990613f5a565b80156122a65780601f1061227b576101008083540402835291602001916122a6565b820191906000526020600020905b81548152906001019060200180831161228957829003601f168201915b5050505050908060020180546122bb90613f5a565b80601f01602080910402602001604051908101604052809291908181526020018280546122e790613f5a565b80156123345780601f1061230957610100808354040283529160200191612334565b820191906000526020600020905b81548152906001019060200180831161231757829003601f168201915b5050505050908060030154908060040160009054906101000a900460ff169080600501805461236290613f5a565b80601f016020809104026020016040519081016040528092919081815260200182805461238e90613f5a565b80156123db5780601f106123b0576101008083540402835291602001916123db565b820191906000526020600020905b8154815290600101906020018083116123be57829003601f168201915b5050505050905086565b8260008082815260200190815260200160002060090160019054906101000a900460ff16612448576040517f08c379a000000000000000000000000000000000000000000000000000000000815260040161243f90613b84565b60405180910390fd5b6001600281111561245c5761245b6136e4565b5b60008083815260200190815260200160002060030160003373ffffffffffffffffffffffffffffffffffffffff1673ffffffffffffffffffffffffffffffffffffffff16815260200190815260200160002060009054906101000a900460ff1660028111156124ce576124cd6136e4565b5b1461250e576040517f08c379a00000000000000000000000000000000000000000000000000000000081526004016125059061475c565b60405180910390fd5b8360008082815260200190815260200160002060090160009054906101000a900460ff1615612572576040517f08c379a000000000000000000000000000000000000000000000000000000000815260040161256990614043565b60405180910390fd5b6000806000878152602001908152602001600020905061259186612e95565b156125d1576040517f08c379a00000000000000000000000000000000000000000000000000000000081526004016125c8906140af565b60405180910390fd5b60006001905060005b82600201805490508110156126985782600401600084600201838154811061260557612604613c07565b5b9060005260206000200160009054906101000a900473ffffffffffffffffffffffffffffffffffffffff1673ffffffffffffffffffffffffffffffffffffffff1673ffffffffffffffffffffffffffffffffffffffff16815260200190815260200160002060009054906101000a900460ff166126855760009150612698565b808061269090613ee3565b9150506125da565b5080156126da576040517f08c379a00000000000000000000000000000000000000000000000000000000081526004016126d1906147ee565b60405180910390fd5b600086511161271e576040517f08c379a00000000000000000000000000000000000000000000000000000000081526004016127159061485a565b60405180910390fd5b6000851461277257428511612768576040517f08c379a000000000000000000000000000000000000000000000000000000000815260040161275f906148c6565b60405180910390fd5b8482600a01819055505b8582600001908161278391906143bf565b503373ffffffffffffffffffffffffffffffffffffffff16877fd4af573228b33e73cdfacac0a74b920c7b511e2ff826fb63a2e0bb5790b54ebc88426040516127cd9291906148e6565b60405180910390a350505050505050565b600080845111612823576040517f08c379a000000000000000000000000000000000000000000000000000000000815260040161281a9061485a565b60405180910390fd5b600082148061283157504282115b612870576040517f08c379a0000000000000000000000000000000000000000000000000000000008152600401612867906148c6565b60405180910390fd5b6001600081548092919061288390613ee3565b9190505550600080600060015481526020019081526020016000209050848160000190816128b191906143bf565b50338160010160006101000a81548173ffffffffffffffffffffffffffffffffffffffff021916908373ffffffffffffffffffffffffffffffffffffffff16021790555042816007018190555060018160090160016101000a81548160ff0219169083151502179055508281600a018190555060018160030160003373ffffffffffffffffffffffffffffffffffffffff1673ffffffffffffffffffffffffffffffffffffffff16815260200190815260200160002060006101000a81548160ff02191690836002811115612989576129886136e4565b5b02179055506000845103612a6b5780600201339080600181540180825580915050600190039060005260206000200160009091909190916101000a81548173ffffffffffffffffffffffffffffffffffffffff021916908373ffffffffffffffffffffffffffffffffffffffff16021790555060028160030160003373ffffffffffffffffffffffffffffffffffffffff1673ffffffffffffffffffffffffffffffffffffffff16815260200190815260200160002060006101000a81548160ff02191690836002811115612a6157612a606136e4565b5b0217905550612c18565b60005b8451811015612c1657600073ffffffffffffffffffffffffffffffffffffffff16858281518110612aa257612aa1613c07565b5b602002602001015173ffffffffffffffffffffffffffffffffffffffff1603612b00576040517f08c379a0000000000000000000000000000000000000000000000000000000008152600401612af790614962565b60405180910390fd5b81600201858281518110612b1757612b16613c07565b5b60200260200101519080600181540180825580915050600190039060005260206000200160009091909190916101000a81548173ffffffffffffffffffffffffffffffffffffffff021916908373ffffffffffffffffffffffffffffffffffffffff1602179055506002826003016000878481518110612b9a57612b99613c07565b5b602002602001015173ffffffffffffffffffffffffffffffffffffffff1673ffffffffffffffffffffffffffffffffffffffff16815260200190815260200160002060006101000a81548160ff02191690836002811115612bfe57612bfd6136e4565b5b02179055508080612c0e90613ee3565b915050612a6e565b505b3373ffffffffffffffffffffffffffffffffffffffff166001547f0f34f336d6e1cc231d161403dd583f287c90d4e144120937a223d9531afe848c878460020142604051612c6893929190614a6e565b60405180910390a36001549150509392505050565b8160008082815260200190815260200160002060090160019054906101000a900460ff16612ce0576040517f08c379a0000000000000000000000000000000000000000000000000000000008152600401612cd790613b84565b60405180910390fd5b60016002811115612cf457612cf36136e4565b5b60008083815260200190815260200160002060030160003373ffffffffffffffffffffffffffffffffffffffff1673ffffffffffffffffffffffffffffffffffffffff16815260200190815260200160002060009054906101000a900460ff166002811115612d6657612d656136e4565b5b14612da6576040517f08c379a0000000000000000000000000000000000000000000000000000000008152600401612d9d9061475c565b60405180910390fd5b8260008082815260200190815260200160002060090160009054906101000a900460ff1615612e0a576040517f08c379a0000000000000000000000000000000000000000000000000000000008152600401612e0190614043565b60405180910390fd5b6000806000868152602001908152602001600020905060018160090160006101000a81548160ff0219169083151502179055503373ffffffffffffffffffffffffffffffffffffffff16857f7a58ff517c00037031f8886d9305cec9b4a44d1c1a04fc2ef4d7a5d7a09eede54287604051612e86929190614491565b60405180910390a35050505050565b6000806000808481526020019081526020016000209050600081600a015414158015612ec4575080600a015442115b915050919050565b60008060008084815260200190815260200160002090508060090160019054906101000a900460ff16612f34576040517f08c379a0000000000000000000000000000000000000000000000000000000008152600401612f2b90613b84565b60405180910390fd5b806002018054905081600b01541015612f94578060020181600b015481548110612f6157612f60613c07565b5b9060005260206000200160009054906101000a900473ffffffffffffffffffffffffffffffffffffffff16915050612f9a565b60009150505b919050565b6004818051602081018201805184825260208301602085012081835280955050505050506000915054906101000a900473ffffffffffffffffffffffffffffffffffffffff1681565b6000604051905090565b600080fd5b600080fd5b6000819050919050565b61300f81612ffc565b811461301a57600080fd5b50565b60008135905061302c81613006565b92915050565b600073ffffffffffffffffffffffffffffffffffffffff82169050919050565b600061305d82613032565b9050919050565b61306d81613052565b811461307857600080fd5b50565b60008135905061308a81613064565b92915050565b600080604083850312156130a7576130a6612ff2565b5b60006130b58582860161301d565b92505060206130c68582860161307b565b9150509250929050565b6130d981612ffc565b82525050565b60006020820190506130f460008301846130d0565b92915050565b6000602082840312156131105761310f612ff2565b5b600061311e8482850161301d565b91505092915050565b60008115159050919050565b61313c81613127565b82525050565b600060808201905061315760008301876130d0565b6131646020830186613133565b61317160408301856130d0565b61317e6060830184613133565b95945050505050565b600060208201905061319c6000830184613133565b92915050565b6000819050919050565b6131b5816131a2565b81146131c057600080fd5b50565b6000813590506131d2816131ac565b92915050565b600080fd5b600080fd5b6000601f19601f8301169050919050565b7f4e487b7100000000000000000000000000000000000000000000000000000000600052604160045260246000fd5b61322b826131e2565b810181811067ffffffffffffffff8211171561324a576132496131f3565b5b80604052505050565b600061325d612fe8565b90506132698282613222565b919050565b600067ffffffffffffffff821115613289576132886131f3565b5b613292826131e2565b9050602081019050919050565b82818337600083830152505050565b60006132c16132bc8461326e565b613253565b9050828152602081018484840111156132dd576132dc6131dd565b5b6132e884828561329f565b509392505050565b600082601f830112613305576133046131d8565b5b81356133158482602086016132ae565b91505092915050565b6000806000806080858703121561333857613337612ff2565b5b60006133468782880161301d565b94505060206133578782880161307b565b9350506040613368878288016131c3565b925050606085013567ffffffffffffffff81111561338957613388612ff7565b5b613395878288016132f0565b91505092959194509250565b600081519050919050565b600082825260208201905092915050565b6000819050602082019050919050565b6133d681613052565b82525050565b60006133e883836133cd565b60208301905092915050565b6000602082019050919050565b600061340c826133a1565b61341681856133ac565b9350613421836133bd565b8060005b8381101561345257815161343988826133dc565b9750613444836133f4565b925050600181019050613425565b5085935050505092915050565b600060208201905081810360008301526134798184613401565b905092915050565b600081519050919050565b600082825260208201905092915050565b60005b838110156134bb5780820151818401526020810190506134a0565b60008484015250505050565b60006134d282613481565b6134dc818561348c565b93506134ec81856020860161349d565b6134f5816131e2565b840191505092915050565b61350981613052565b82525050565b600060e0820190508181036000830152613529818a6134c7565b90506135386020830189613500565b818103604083015261354a8188613401565b905061355960608301876130d0565b61356660808301866130d0565b61357360a0830185613133565b61358060c0830184613133565b98975050505050505050565b600080604083850312156135a3576135a2612ff2565b5b60006135b18582860161307b565b92505060206135c28582860161301d565b9150509250929050565b600067ffffffffffffffff8211156135e7576135e66131f3565b5b6135f0826131e2565b9050602081019050919050565b600061361061360b846135cc565b613253565b90508281526020810184848401111561362c5761362b6131dd565b5b61363784828561329f565b509392505050565b600082601f830112613654576136536131d8565b5b81356136648482602086016135fd565b91505092915050565b6000806040838503121561368457613683612ff2565b5b60006136928582860161301d565b925050602083013567ffffffffffffffff8111156136b3576136b2612ff7565b5b6136bf8582860161363f565b9150509250929050565b60006020820190506136de6000830184613500565b92915050565b7f4e487b7100000000000000000000000000000000000000000000000000000000600052602160045260246000fd5b60038110613724576137236136e4565b5b50565b600081905061373582613713565b919050565b600061374582613727565b9050919050565b6137558161373a565b82525050565b6000602082019050613770600083018461374c565b92915050565b60006020828403121561378c5761378b612ff2565b5b600061379a8482850161307b565b91505092915050565b600060c08201905081810360008301526137bd81896134c7565b905081810360208301526137d181886134c7565b905081810360408301526137e581876134c7565b90506137f460608301866130d0565b6138016080830185613133565b81810360a083015261381381846134c7565b9050979650505050505050565b600080600080600060a0868803121561383c5761383b612ff2565b5b600086013567ffffffffffffffff81111561385a57613859612ff7565b5b6138668882890161363f565b955050602086013567ffffffffffffffff81111561388757613886612ff7565b5b6138938882890161363f565b945050604086013567ffffffffffffffff8111156138b4576138b3612ff7565b5b6138c08882890161363f565b93505060606138d18882890161301d565b925050608086013567ffffffffffffffff8111156138f2576138f1612ff7565b5b6138fe8882890161363f565b9150509295509295909350565b6000602082019050818103600083015261392581846134c7565b905092915050565b60008060006060848603121561394657613945612ff2565b5b60006139548682870161301d565b935050602084013567ffffffffffffffff81111561397557613974612ff7565b5b6139818682870161363f565b92505060406139928682870161301d565b9150509250925092565b600067ffffffffffffffff8211156139b7576139b66131f3565b5b602082029050602081019050919050565b600080fd5b60006139e06139db8461399c565b613253565b90508083825260208201905060208402830185811115613a0357613a026139c8565b5b835b81811015613a2c5780613a18888261307b565b845260208401935050602081019050613a05565b5050509392505050565b600082601f830112613a4b57613a4a6131d8565b5b8135613a5b8482602086016139cd565b91505092915050565b600080600060608486031215613a7d57613a7c612ff2565b5b600084013567ffffffffffffffff811115613a9b57613a9a612ff7565b5b613aa78682870161363f565b935050602084013567ffffffffffffffff811115613ac857613ac7612ff7565b5b613ad486828701613a36565b9250506040613ae58682870161301d565b9150509250925092565b600060208284031215613b0557613b04612ff2565b5b600082013567ffffffffffffffff811115613b2357613b22612ff7565b5b613b2f8482850161363f565b91505092915050565b7f446f63756d656e7420646f6573206e6f74206578697374000000000000000000600082015250565b6000613b6e60178361348c565b9150613b7982613b38565b602082019050919050565b60006020820190508181036000830152613b9d81613b61565b9050919050565b7f4e487b7100000000000000000000000000000000000000000000000000000000600052601160045260246000fd5b6000613bde82612ffc565b9150613be983612ffc565b9250828203905081811115613c0157613c00613ba4565b5b92915050565b7f4e487b7100000000000000000000000000000000000000000000000000000000600052603260045260246000fd5b7f5369676e657220686173206e6f74207369676e6564207468697320646f63756d60008201527f656e740000000000000000000000000000000000000000000000000000000000602082015250565b6000613c9260238361348c565b9150613c9d82613c36565b604082019050919050565b60006020820190508181036000830152613cc181613c85565b9050919050565b7f496e76616c6964207369676e6174757265206c656e6774680000000000000000600082015250565b6000613cfe60188361348c565b9150613d0982613cc8565b602082019050919050565b60006020820190508181036000830152613d2d81613cf1565b9050919050565b600081905092915050565b7f19457468657265756d205369676e6564204d6573736167653a0a333200000000600082015250565b6000613d75601c83613d34565b9150613d8082613d3f565b601c82019050919050565b6000819050919050565b613da6613da1826131a2565b613d8b565b82525050565b6000613db782613d68565b9150613dc38284613d95565b60208201915081905092915050565b600060ff82169050919050565b6000613dea82613dd2565b9150613df583613dd2565b9250828201905060ff811115613e0e57613e0d613ba4565b5b92915050565b7f496e76616c6964207369676e6174757265202776272076616c75650000000000600082015250565b6000613e4a601b8361348c565b9150613e5582613e14565b602082019050919050565b60006020820190508181036000830152613e7981613e3d565b9050919050565b613e89816131a2565b82525050565b613e9881613dd2565b82525050565b6000608082019050613eb36000830187613e80565b613ec06020830186613e8f565b613ecd6040830185613e80565b613eda6060830184613e80565b95945050505050565b6000613eee82612ffc565b91507fffffffffffffffffffffffffffffffffffffffffffffffffffffffffffffffff8203613f2057613f1f613ba4565b5b600182019050919050565b7f4e487b7100000000000000000000000000000000000000000000000000000000600052602260045260246000fd5b60006002820490506001821680613f7257607f821691505b602082108103613f8557613f84613f2b565b5b50919050565b7f4e6f7420617574686f72697a6564207369676e65720000000000000000000000600082015250565b6000613fc160158361348c565b9150613fcc82613f8b565b602082019050919050565b60006020820190508181036000830152613ff081613fb4565b9050919050565b7f446f63756d656e74206973207265766f6b656400000000000000000000000000600082015250565b600061402d60138361348c565b915061403882613ff7565b602082019050919050565b6000602082019050818103600083015261405c81614020565b9050919050565b7f446f63756d656e74206578706972656400000000000000000000000000000000600082015250565b600061409960108361348c565b91506140a482614063565b602082019050919050565b600060208201905081810360008301526140c88161408c565b9050919050565b7f416c7265616479207369676e6564000000000000000000000000000000000000600082015250565b6000614105600e8361348c565b9150614110826140cf565b602082019050919050565b60006020820190508181036000830152614134816140f8565b9050919050565b7f4e6f7420796f7572207475726e20746f207369676e0000000000000000000000600082015250565b600061417160158361348c565b915061417c8261413b565b602082019050919050565b600060208201905081810360008301526141a081614164565b9050919050565b7f5369676e61747572652072657175697265640000000000000000000000000000600082015250565b60006141dd60128361348c565b91506141e8826141a7565b602082019050919050565b6000602082019050818103600083015261420c816141d0565b9050919050565b60008190508160005260206000209050919050565b60006020601f8301049050919050565b600082821b905092915050565b6000600883026142757fffffffffffffffffffffffffffffffffffffffffffffffffffffffffffffffff82614238565b61427f8683614238565b95508019841693508086168417925050509392505050565b6000819050919050565b60006142bc6142b76142b284612ffc565b614297565b612ffc565b9050919050565b6000819050919050565b6142d6836142a1565b6142ea6142e2826142c3565b848454614245565b825550505050565b600090565b6142ff6142f2565b61430a8184846142cd565b505050565b5b8181101561432e576143236000826142f7565b600181019050614310565b5050565b601f8211156143735761434481614213565b61434d84614228565b8101602085101561435c578190505b61437061436885614228565b83018261430f565b50505b505050565b600082821c905092915050565b600061439660001984600802614378565b1980831691505092915050565b60006143af8383614385565b9150826002028217905092915050565b6143c882613481565b67ffffffffffffffff8111156143e1576143e06131f3565b5b6143eb8254613f5a565b6143f6828285614332565b600060209050601f8311600181146144295760008415614417578287015190505b61442185826143a3565b865550614489565b601f19841661443786614213565b60005b8281101561445f5784890151825560018201915060208501945060208101905061443a565b8683101561447c5784890151614478601f891682614385565b8355505b6001600288020188555050505b505050505050565b60006040820190506144a660008301856130d0565b81810360208301526144b881846134c7565b90509392505050565b50565b60006144d160008361348c565b91506144dc826144c1565b600082019050919050565b60006040820190506144fc60008301846130d0565b818103602083015261450d816144c4565b905092915050565b7f55736572206e6f74207265676973746572656400000000000000000000000000600082015250565b600061454b60138361348c565b915061455682614515565b602082019050919050565b6000602082019050818103600083015261457a8161453e565b9050919050565b7f416c726561647920726567697374657265640000000000000000000000000000600082015250565b60006145b760128361348c565b91506145c282614581565b602082019050919050565b600060208201905081810360008301526145e6816145aa565b9050919050565b60006145f882613481565b6146028185613d34565b935061461281856020860161349d565b80840191505092915050565b600061462a82846145ed565b915081905092915050565b7f456d61696c20616c726561647920726567697374657265640000000000000000600082015250565b600061466b60188361348c565b915061467682614635565b602082019050919050565b6000602082019050818103600083015261469a8161465e565b9050919050565b600060a08201905081810360008301526146bb81886134c7565b905081810360208301526146cf81876134c7565b905081810360408301526146e381866134c7565b90506146f260608301856130d0565b818103608083015261470481846134c7565b90509695505050505050565b7f4e6f7420646f63756d656e74206f776e65720000000000000000000000000000600082015250565b600061474660128361348c565b915061475182614710565b602082019050919050565b6000602082019050818103600083015261477581614739565b9050919050565b7f43616e6e6f7420616d656e642066756c6c79207369676e656420646f63756d6560008201527f6e74000000000000000000000000000000000000000000000000000000000000602082015250565b60006147d860228361348c565b91506147e38261477c565b604082019050919050565b60006020820190508181036000830152614807816147cb565b9050919050565b7f4950465320686173682072657175697265640000000000000000000000000000600082015250565b600061484460128361348c565b915061484f8261480e565b602082019050919050565b6000602082019050818103600083015261487381614837565b9050919050565b7f457870697279206d75737420626520696e207468652066757475726500000000600082015250565b60006148b0601c8361348c565b91506148bb8261487a565b602082019050919050565b600060208201905081810360008301526148df816148a3565b9050919050565b6000604082019050818103600083015261490081856134c7565b905061490f60208301846130d0565b9392505050565b7f496e76616c6964207369676e6572206164647265737300000000000000000000600082015250565b600061494c60168361348c565b915061495782614916565b602082019050919050565b6000602082019050818103600083015261497b8161493f565b9050919050565b600081549050919050565b60008190508160005260206000209050919050565b60008160001c9050919050565b600073ffffffffffffffffffffffffffffffffffffffff82169050919050565b60006149e26149dd836149a2565b6149af565b9050919050565b60006149f582546149cf565b9050919050565b6000600182019050919050565b6000614a1482614982565b614a1e81856133ac565b9350614a298361498d565b8060005b83811015614a6157614a3e826149e9565b614a4888826133dc565b9750614a53836149fc565b925050600181019050614a2d565b5085935050505092915050565b60006060820190508181036000830152614a8881866134c7565b90508181036020830152614a9c8185614a09565b9050614aab60408301846130d0565b94935050505056fea2646970667358221220f8850bee4ca564ba12a71f7b0e7e92a82cd5331e6c264cb7c1870cd1e77ea28f64736f6c63430008150033","opcodes":"PUSH1 0x80 PUSH1 0x40 MSTORE CALLVALUE DUP1 ISZERO PUSH2 0x10 JUMPI PUSH1 0x0 DUP1 REVERT JUMPDEST POP PUSH2 0x4AE9 DUP1 PUSH2 0x20 PUSH1 0x0 CODECOPY PUSH1 0x0 RETURN INVALID PUSH1 0x80 PUSH1 0x40 MSTORE CALLVALUE DUP1 ISZERO PUSH2 0x10 JUMPI PUSH1 0x0 DUP1 REVERT JUMPDEST POP PUSH1 0x4 CALLDATASIZE LT PUSH2 0x158 JUMPI PUSH1 0x0 CALLDATALOAD PUSH1 0xE0 SHR DUP1 PUSH4 0x93552A3D GT PUSH2 0xC3 JUMPI DUP1 PUSH4 0xC2A6EBFB GT PUSH2 0x7C JUMPI DUP1 PUSH4 0xC2A6EBFB EQ PUSH2 0x470 JUMPI DUP1 PUSH4 0xCB561824 EQ PUSH2 0x48C JUMPI DUP1 PUSH4 0xD0E2A019 EQ PUSH2 0x4BC JUMPI DUP1 PUSH4 0xD9548E53 EQ PUSH2 0x4D8 JUMPI DUP1 PUSH4 0xE0CD77B0 EQ PUSH2 0x508 JUMPI DUP1 PUSH4 0xEA78DCBF EQ PUSH2 0x538 JUMPI PUSH2 0x158 JUMP JUMPDEST DUP1 PUSH4 0x93552A3D EQ PUSH2 0x36C JUMPI DUP1 PUSH4 0x987EE156 EQ PUSH2 0x39C JUMPI DUP1 PUSH4 0xA5B16B2E EQ PUSH2 0x3D1 JUMPI DUP1 PUSH4 0xB0CACE06 EQ PUSH2 0x3EF JUMPI DUP1 PUSH4 0xB3BCD5CF EQ PUSH2 0x40B JUMPI DUP1 PUSH4 0xBBE15627 EQ PUSH2 0x43B JUMPI PUSH2 0x158 JUMP JUMPDEST DUP1 PUSH4 0x4E46A1E8 GT PUSH2 0x115 JUMPI DUP1 PUSH4 0x4E46A1E8 EQ PUSH2 0x274 JUMPI DUP1 PUSH4 0x5308CFA9 EQ PUSH2 0x2A4 JUMPI DUP1 PUSH4 0x5F372D56 EQ PUSH2 0x2C0 JUMPI DUP1 PUSH4 0x709DF8D9 EQ PUSH2 0x2DC JUMPI DUP1 PUSH4 0x7259E0F8 EQ PUSH2 0x30C JUMPI DUP1 PUSH4 0x78ABEAE1 EQ PUSH2 0x33C JUMPI PUSH2 0x158 JUMP JUMPDEST DUP1 PUSH4 0x1B1AB53D EQ PUSH2 0x15D JUMPI DUP1 PUSH4 0x1BCB19AB EQ PUSH2 0x18D JUMPI DUP1 PUSH4 0x1D639B2A EQ PUSH2 0x1C0 JUMPI DUP1 PUSH4 0x28D787D9 EQ PUSH2 0x1F0 JUMPI DUP1 PUSH4 0x397388AF EQ PUSH2 0x220 JUMPI DUP1 PUSH4 0x3F9B250A EQ PUSH2 0x23E JUMPI JUMPDEST PUSH1 0x0 DUP1 REVERT JUMPDEST PUSH2 0x177 PUSH1 0x4 DUP1 CALLDATASIZE SUB DUP2 ADD SWAP1 PUSH2 0x172 SWAP2 SWAP1 PUSH2 0x3090 JUMP JUMPDEST PUSH2 0x568 JUMP JUMPDEST PUSH1 0x40 MLOAD PUSH2 0x184 SWAP2 SWAP1 PUSH2 0x30DF JUMP JUMPDEST PUSH1 0x40 MLOAD DUP1 SWAP2 SUB SWAP1 RETURN JUMPDEST PUSH2 0x1A7 PUSH1 0x4 DUP1 CALLDATASIZE SUB DUP2 ADD SWAP1 PUSH2 0x1A2 SWAP2 SWAP1 PUSH2 0x30FA JUMP JUMPDEST PUSH2 0x5C5 JUMP JUMPDEST PUSH1 0x40 MLOAD PUSH2 0x1B7 SWAP5 SWAP4 SWAP3 SWAP2 SWAP1 PUSH2 0x3142 JUMP JUMPDEST PUSH1 0x40 MLOAD DUP1 SWAP2 SUB SWAP1 RETURN JUMPDEST PUSH2 0x1DA PUSH1 0x4 DUP1 CALLDATASIZE SUB DUP2 ADD SWAP1 PUSH2 0x1D5 SWAP2 SWAP1 PUSH2 0x30FA JUMP JUMPDEST PUSH2 0x693 JUMP JUMPDEST PUSH1 0x40 MLOAD PUSH2 0x1E7 SWAP2 SWAP1 PUSH2 0x3187 JUMP JUMPDEST PUSH1 0x40 MLOAD DUP1 SWAP2 SUB SWAP1 RETURN JUMPDEST PUSH2 0x20A PUSH1 0x4 DUP1 CALLDATASIZE SUB DUP2 ADD SWAP1 PUSH2 0x205 SWAP2 SWAP1 PUSH2 0x331E JUMP JUMPDEST PUSH2 0x7AA JUMP JUMPDEST PUSH1 0x40 MLOAD PUSH2 0x217 SWAP2 SWAP1 PUSH2 0x3187 JUMP JUMPDEST PUSH1 0x40 MLOAD DUP1 SWAP2 SUB SWAP1 RETURN JUMPDEST PUSH2 0x228 PUSH2 0xA3A JUMP JUMPDEST PUSH1 0x40 MLOAD PUSH2 0x235 SWAP2 SWAP1 PUSH2 0x345F JUMP JUMPDEST PUSH1 0x40 MLOAD DUP1 SWAP2 SUB SWAP1 RETURN JUMPDEST PUSH2 0x258 PUSH1 0x4 DUP1 CALLDATASIZE SUB DUP2 ADD SWAP1 PUSH2 0x253 SWAP2 SWAP1 PUSH2 0x30FA JUMP JUMPDEST PUSH2 0xAC8 JUMP JUMPDEST PUSH1 0x40 MLOAD PUSH2 0x26B SWAP8 SWAP7 SWAP6 SWAP5 SWAP4 SWAP3 SWAP2 SWAP1 PUSH2 0x350F JUMP JUMPDEST PUSH1 0x40 MLOAD DUP1 SWAP2 SUB SWAP1 RETURN JUMPDEST PUSH2 0x28E PUSH1 0x4 DUP1 CALLDATASIZE SUB DUP2 ADD SWAP1 PUSH2 0x289 SWAP2 SWAP1 PUSH2 0x358C JUMP JUMPDEST PUSH2 0xD7C JUMP JUMPDEST PUSH1 0x40 MLOAD PUSH2 0x29B SWAP2 SWAP1 PUSH2 0x3187 JUMP JUMPDEST PUSH1 0x40 MLOAD DUP1 SWAP2 SUB SWAP1 RETURN JUMPDEST PUSH2 0x2BE PUSH1 0x4 DUP1 CALLDATASIZE SUB DUP2 ADD SWAP1 PUSH2 0x2B9 SWAP2 SWAP1 PUSH2 0x366D JUMP JUMPDEST PUSH2 0xEC4 JUMP JUMPDEST STOP JUMPDEST PUSH2 0x2DA PUSH1 0x4 DUP1 CALLDATASIZE SUB DUP2 ADD SWAP1 PUSH2 0x2D5 SWAP2 SWAP1 PUSH2 0x30FA JUMP JUMPDEST PUSH2 0x13AF JUMP JUMPDEST STOP JUMPDEST PUSH2 0x2F6 PUSH1 0x4 DUP1 CALLDATASIZE SUB DUP2 ADD SWAP1 PUSH2 0x2F1 SWAP2 SWAP1 PUSH2 0x3090 JUMP JUMPDEST PUSH2 0x1804 JUMP JUMPDEST PUSH1 0x40 MLOAD PUSH2 0x303 SWAP2 SWAP1 PUSH2 0x3187 JUMP JUMPDEST PUSH1 0x40 MLOAD DUP1 SWAP2 SUB SWAP1 RETURN JUMPDEST PUSH2 0x326 PUSH1 0x4 DUP1 CALLDATASIZE SUB DUP2 ADD SWAP1 PUSH2 0x321 SWAP2 SWAP1 PUSH2 0x30FA JUMP JUMPDEST PUSH2 0x186E JUMP JUMPDEST PUSH1 0x40 MLOAD PUSH2 0x333 SWAP2 SWAP1 PUSH2 0x36C9 JUMP JUMPDEST PUSH1 0x40 MLOAD DUP1 SWAP2 SUB SWAP1 RETURN JUMPDEST PUSH2 0x356 PUSH1 0x4 DUP1 CALLDATASIZE SUB DUP2 ADD SWAP1 PUSH2 0x351 SWAP2 SWAP1 PUSH2 0x30FA JUMP JUMPDEST PUSH2 0x18AD JUMP JUMPDEST PUSH1 0x40 MLOAD PUSH2 0x363 SWAP2 SWAP1 PUSH2 0x30DF JUMP JUMPDEST PUSH1 0x40 MLOAD DUP1 SWAP2 SUB SWAP1 RETURN JUMPDEST PUSH2 0x386 PUSH1 0x4 DUP1 CALLDATASIZE SUB DUP2 ADD SWAP1 PUSH2 0x381 SWAP2 SWAP1 PUSH2 0x3090 JUMP JUMPDEST PUSH2 0x192E JUMP JUMPDEST PUSH1 0x40 MLOAD PUSH2 0x393 SWAP2 SWAP1 PUSH2 0x375B JUMP JUMPDEST PUSH1 0x40 MLOAD DUP1 SWAP2 SUB SWAP1 RETURN JUMPDEST PUSH2 0x3B6 PUSH1 0x4 DUP1 CALLDATASIZE SUB DUP2 ADD SWAP1 PUSH2 0x3B1 SWAP2 SWAP1 PUSH2 0x3776 JUMP JUMPDEST PUSH2 0x19FA JUMP JUMPDEST PUSH1 0x40 MLOAD PUSH2 0x3C8 SWAP7 SWAP6 SWAP5 SWAP4 SWAP3 SWAP2 SWAP1 PUSH2 0x37A3 JUMP JUMPDEST PUSH1 0x40 MLOAD DUP1 SWAP2 SUB SWAP1 RETURN JUMPDEST PUSH2 0x3D9 PUSH2 0x1D43 JUMP JUMPDEST PUSH1 0x40 MLOAD PUSH2 0x3E6 SWAP2 SWAP1 PUSH2 0x30DF JUMP JUMPDEST PUSH1 0x40 MLOAD DUP1 SWAP2 SUB SWAP1 RETURN JUMPDEST PUSH2 0x409 PUSH1 0x4 DUP1 CALLDATASIZE SUB DUP2 ADD SWAP1 PUSH2 0x404 SWAP2 SWAP1 PUSH2 0x3820 JUMP JUMPDEST PUSH2 0x1D49 JUMP JUMPDEST STOP JUMPDEST PUSH2 0x425 PUSH1 0x4 DUP1 CALLDATASIZE SUB DUP2 ADD SWAP1 PUSH2 0x420 SWAP2 SWAP1 PUSH2 0x3090 JUMP JUMPDEST PUSH2 0x2097 JUMP JUMPDEST PUSH1 0x40 MLOAD PUSH2 0x432 SWAP2 SWAP1 PUSH2 0x390B JUMP JUMPDEST PUSH1 0x40 MLOAD DUP1 SWAP2 SUB SWAP1 RETURN JUMPDEST PUSH2 0x455 PUSH1 0x4 DUP1 CALLDATASIZE SUB DUP2 ADD SWAP1 PUSH2 0x450 SWAP2 SWAP1 PUSH2 0x3776 JUMP JUMPDEST PUSH2 0x217C JUMP JUMPDEST PUSH1 0x40 MLOAD PUSH2 0x467 SWAP7 SWAP6 SWAP5 SWAP4 SWAP3 SWAP2 SWAP1 PUSH2 0x37A3 JUMP JUMPDEST PUSH1 0x40 MLOAD DUP1 SWAP2 SUB SWAP1 RETURN JUMPDEST PUSH2 0x48A PUSH1 0x4 DUP1 CALLDATASIZE SUB DUP2 ADD SWAP1 PUSH2 0x485 SWAP2 SWAP1 PUSH2 0x392D JUMP JUMPDEST PUSH2 0x23E5 JUMP JUMPDEST STOP JUMPDEST PUSH2 0x4A6 PUSH1 0x4 DUP1 CALLDATASIZE SUB DUP2 ADD SWAP1 PUSH2 0x4A1 SWAP2 SWAP1 PUSH2 0x3A64 JUMP JUMPDEST PUSH2 0x27DE JUMP JUMPDEST PUSH1 0x40 MLOAD PUSH2 0x4B3 SWAP2 SWAP1 PUSH2 0x30DF JUMP JUMPDEST PUSH1 0x40 MLOAD DUP1 SWAP2 SUB SWAP1 RETURN JUMPDEST PUSH2 0x4D6 PUSH1 0x4 DUP1 CALLDATASIZE SUB DUP2 ADD SWAP1 PUSH2 0x4D1 SWAP2 SWAP1 PUSH2 0x366D JUMP JUMPDEST PUSH2 0x2C7D JUMP JUMPDEST STOP JUMPDEST PUSH2 0x4F2 PUSH1 0x4 DUP1 CALLDATASIZE SUB DUP2 ADD SWAP1 PUSH2 0x4ED SWAP2 SWAP1 PUSH2 0x30FA JUMP JUMPDEST PUSH2 0x2E95 JUMP JUMPDEST PUSH1 0x40 MLOAD PUSH2 0x4FF SWAP2 SWAP1 PUSH2 0x3187 JUMP JUMPDEST PUSH1 0x40 MLOAD DUP1 SWAP2 SUB SWAP1 RETURN JUMPDEST PUSH2 0x522 PUSH1 0x4 DUP1 CALLDATASIZE SUB DUP2 ADD SWAP1 PUSH2 0x51D SWAP2 SWAP1 PUSH2 0x30FA JUMP JUMPDEST PUSH2 0x2ECC JUMP JUMPDEST PUSH1 0x40 MLOAD PUSH2 0x52F SWAP2 SWAP1 PUSH2 0x36C9 JUMP JUMPDEST PUSH1 0x40 MLOAD DUP1 SWAP2 SUB SWAP1 RETURN JUMPDEST PUSH2 0x552 PUSH1 0x4 DUP1 CALLDATASIZE SUB DUP2 ADD SWAP1 PUSH2 0x54D SWAP2 SWAP1 PUSH2 0x3AEF JUMP JUMPDEST PUSH2 0x2F9F JUMP JUMPDEST PUSH1 0x40 MLOAD PUSH2 0x55F SWAP2 SWAP1 PUSH2 0x36C9 JUMP JUMPDEST PUSH1 0x40 MLOAD DUP1 SWAP2 SUB SWAP1 RETURN JUMPDEST PUSH1 0x0 DUP1 PUSH1 0x0 DUP5 DUP2 MSTORE PUSH1 0x20 ADD SWAP1 DUP2 MSTORE PUSH1 0x20 ADD PUSH1 0x0 KECCAK256 PUSH1 0x5 ADD PUSH1 0x0 DUP4 PUSH20 0xFFFFFFFFFFFFFFFFFFFFFFFFFFFFFFFFFFFFFFFF AND PUSH20 0xFFFFFFFFFFFFFFFFFFFFFFFFFFFFFFFFFFFFFFFF AND DUP2 MSTORE PUSH1 0x20 ADD SWAP1 DUP2 MSTORE PUSH1 0x20 ADD PUSH1 0x0 KECCAK256 SLOAD SWAP1 POP SWAP3 SWAP2 POP POP JUMP JUMPDEST PUSH1 0x0 DUP1 PUSH1 0x0 DUP1 PUSH1 0x0 DUP1 PUSH1 0x0 DUP8 DUP2 MSTORE PUSH1 0x20 ADD SWAP1 DUP2 MSTORE PUSH1 0x20 ADD PUSH1 0x0 KECCAK256 SWAP1 POP DUP1 PUSH1 0x9 ADD PUSH1 0x1 SWAP1 SLOAD SWAP1 PUSH2 0x100 EXP SWAP1 DIV PUSH1 0xFF AND PUSH2 0x632 JUMPI PUSH1 0x40 MLOAD PUSH32 0x8C379A000000000000000000000000000000000000000000000000000000000 DUP2 MSTORE PUSH1 0x4 ADD PUSH2 0x629 SWAP1 PUSH2 0x3B84 JUMP JUMPDEST PUSH1 0x40 MLOAD DUP1 SWAP2 SUB SWAP1 REVERT JUMPDEST PUSH1 0x0 TIMESTAMP SWAP1 POP PUSH1 0x0 DUP3 PUSH1 0xA ADD SLOAD SWAP1 POP PUSH1 0x0 DUP1 DUP3 EQ ISZERO DUP1 ISZERO PUSH2 0x651 JUMPI POP DUP2 DUP4 GT JUMPDEST SWAP1 POP PUSH1 0x0 DUP1 DUP4 EQ ISZERO DUP1 ISZERO PUSH2 0x663 JUMPI POP DUP2 ISZERO JUMPDEST ISZERO PUSH2 0x677 JUMPI DUP4 DUP4 PUSH2 0x674 SWAP2 SWAP1 PUSH2 0x3BD3 JUMP JUMPDEST SWAP1 POP JUMPDEST DUP3 DUP3 DUP3 PUSH1 0x0 DUP7 EQ ISZERO SWAP9 POP SWAP9 POP SWAP9 POP SWAP9 POP POP POP POP POP POP SWAP2 SWAP4 POP SWAP2 SWAP4 JUMP JUMPDEST PUSH1 0x0 DUP1 PUSH1 0x0 DUP1 DUP5 DUP2 MSTORE PUSH1 0x20 ADD SWAP1 DUP2 MSTORE PUSH1 0x20 ADD PUSH1 0x0 KECCAK256 SWAP1 POP DUP1 PUSH1 0x9 ADD PUSH1 0x1 SWAP1 SLOAD SWAP1 PUSH2 0x100 EXP SWAP1 DIV PUSH1 0xFF AND PUSH2 0x6FB JUMPI PUSH1 0x40 MLOAD PUSH32 0x8C379A000000000000000000000000000000000000000000000000000000000 DUP2 MSTORE PUSH1 0x4 ADD PUSH2 0x6F2 SWAP1 PUSH2 0x3B84 JUMP JUMPDEST PUSH1 0x40 MLOAD DUP1 SWAP2 SUB SWAP1 REVERT JUMPDEST PUSH1 0x1 DUP2 PUSH1 0x2 ADD DUP1 SLOAD SWAP1 POP EQ DUP1 ISZERO PUSH2 0x7A2 JUMPI POP DUP1 PUSH1 0x1 ADD PUSH1 0x0 SWAP1 SLOAD SWAP1 PUSH2 0x100 EXP SWAP1 DIV PUSH20 0xFFFFFFFFFFFFFFFFFFFFFFFFFFFFFFFFFFFFFFFF AND PUSH20 0xFFFFFFFFFFFFFFFFFFFFFFFFFFFFFFFFFFFFFFFF AND DUP2 PUSH1 0x2 ADD PUSH1 0x0 DUP2 SLOAD DUP2 LT PUSH2 0x75F JUMPI PUSH2 0x75E PUSH2 0x3C07 JUMP JUMPDEST JUMPDEST SWAP1 PUSH1 0x0 MSTORE PUSH1 0x20 PUSH1 0x0 KECCAK256 ADD PUSH1 0x0 SWAP1 SLOAD SWAP1 PUSH2 0x100 EXP SWAP1 DIV PUSH20 0xFFFFFFFFFFFFFFFFFFFFFFFFFFFFFFFFFFFFFFFF AND PUSH20 0xFFFFFFFFFFFFFFFFFFFFFFFFFFFFFFFFFFFFFFFF AND EQ JUMPDEST SWAP2 POP POP SWAP2 SWAP1 POP JUMP JUMPDEST PUSH1 0x0 DUP1 PUSH1 0x0 DUP7 DUP2 MSTORE PUSH1 0x20 ADD SWAP1 DUP2 MSTORE PUSH1 0x20 ADD PUSH1 0x0 KECCAK256 PUSH1 0x9 ADD PUSH1 0x1 SWAP1 SLOAD SWAP1 PUSH2 0x100 EXP SWAP1 DIV PUSH1 0xFF AND PUSH2 0x80E JUMPI PUSH1 0x40 MLOAD PUSH32 0x8C379A000000000000000000000000000000000000000000000000000000000 DUP2 MSTORE PUSH1 0x4 ADD PUSH2 0x805 SWAP1 PUSH2 0x3B84 JUMP JUMPDEST PUSH1 0x40 MLOAD DUP1 SWAP2 SUB SWAP1 REVERT JUMPDEST PUSH1 0x0 DUP1 DUP7 DUP2 MSTORE PUSH1 0x20 ADD SWAP1 DUP2 MSTORE PUSH1 0x20 ADD PUSH1 0x0 KECCAK256 PUSH1 0x4 ADD PUSH1 0x0 DUP6 PUSH20 0xFFFFFFFFFFFFFFFFFFFFFFFFFFFFFFFFFFFFFFFF AND PUSH20 0xFFFFFFFFFFFFFFFFFFFFFFFFFFFFFFFFFFFFFFFF AND DUP2 MSTORE PUSH1 0x20 ADD SWAP1 DUP2 MSTORE PUSH1 0x20 ADD PUSH1 0x0 KECCAK256 PUSH1 0x0 SWAP1 SLOAD SWAP1 PUSH2 0x100 EXP SWAP1 DIV PUSH1 0xFF AND PUSH2 0x8AD JUMPI PUSH1 0x40 MLOAD PUSH32 0x8C379A000000000000000000000000000000000000000000000000000000000 DUP2 MSTORE PUSH1 0x4 ADD PUSH2 0x8A4 SWAP1 PUSH2 0x3CA8 JUMP JUMPDEST PUSH1 0x40 MLOAD DUP1 SWAP2 SUB SWAP1 REVERT JUMPDEST PUSH1 0x41 DUP3 MLOAD EQ PUSH2 0x8F1 JUMPI PUSH1 0x40 MLOAD PUSH32 0x8C379A000000000000000000000000000000000000000000000000000000000 DUP2 MSTORE PUSH1 0x4 ADD PUSH2 0x8E8 SWAP1 PUSH2 0x3D14 JUMP JUMPDEST PUSH1 0x40 MLOAD DUP1 SWAP2 SUB SWAP1 REVERT JUMPDEST PUSH1 0x0 DUP4 PUSH1 0x40 MLOAD PUSH1 0x20 ADD PUSH2 0x904 SWAP2 SWAP1 PUSH2 0x3DAC JUMP JUMPDEST PUSH1 0x40 MLOAD PUSH1 0x20 DUP2 DUP4 SUB SUB DUP2 MSTORE SWAP1 PUSH1 0x40 MSTORE DUP1 MLOAD SWAP1 PUSH1 0x20 ADD KECCAK256 SWAP1 POP PUSH1 0x0 DUP1 PUSH1 0x0 PUSH1 0x20 DUP7 ADD MLOAD SWAP3 POP PUSH1 0x40 DUP7 ADD MLOAD SWAP2 POP PUSH1 0x60 DUP7 ADD MLOAD PUSH1 0x0 BYTE SWAP1 POP PUSH1 0x1B DUP2 PUSH1 0xFF AND LT ISZERO PUSH2 0x955 JUMPI PUSH1 0x1B DUP2 PUSH2 0x952 SWAP2 SWAP1 PUSH2 0x3DDF JUMP JUMPDEST SWAP1 POP JUMPDEST PUSH1 0x1B DUP2 PUSH1 0xFF AND EQ DUP1 PUSH2 0x96A JUMPI POP PUSH1 0x1C DUP2 PUSH1 0xFF AND EQ JUMPDEST PUSH2 0x9A9 JUMPI PUSH1 0x40 MLOAD PUSH32 0x8C379A000000000000000000000000000000000000000000000000000000000 DUP2 MSTORE PUSH1 0x4 ADD PUSH2 0x9A0 SWAP1 PUSH2 0x3E60 JUMP JUMPDEST PUSH1 0x40 MLOAD DUP1 SWAP2 SUB SWAP1 REVERT JUMPDEST PUSH1 0x0 PUSH1 0x1 DUP6 DUP4 DUP7 DUP7 PUSH1 0x40 MLOAD PUSH1 0x0 DUP2 MSTORE PUSH1 0x20 ADD PUSH1 0x40 MSTORE PUSH1 0x40 MLOAD PUSH2 0x9CE SWAP5 SWAP4 SWAP3 SWAP2 SWAP1 PUSH2 0x3E9E JUMP JUMPDEST PUSH1 0x20 PUSH1 0x40 MLOAD PUSH1 0x20 DUP2 SUB SWAP1 DUP1 DUP5 SUB SWAP1 DUP6 GAS STATICCALL ISZERO DUP1 ISZERO PUSH2 0x9F0 JUMPI RETURNDATASIZE PUSH1 0x0 DUP1 RETURNDATACOPY RETURNDATASIZE PUSH1 0x0 REVERT JUMPDEST POP POP POP PUSH1 0x20 PUSH1 0x40 MLOAD SUB MLOAD SWAP1 POP DUP9 PUSH20 0xFFFFFFFFFFFFFFFFFFFFFFFFFFFFFFFFFFFFFFFF AND DUP2 PUSH20 0xFFFFFFFFFFFFFFFFFFFFFFFFFFFFFFFFFFFFFFFF AND EQ SWAP6 POP POP POP POP POP POP SWAP5 SWAP4 POP POP POP POP JUMP JUMPDEST PUSH1 0x60 PUSH1 0x3 DUP1 SLOAD DUP1 PUSH1 0x20 MUL PUSH1 0x20 ADD PUSH1 0x40 MLOAD SWAP1 DUP2 ADD PUSH1 0x40 MSTORE DUP1 SWAP3 SWAP2 SWAP1 DUP2 DUP2 MSTORE PUSH1 0x20 ADD DUP3 DUP1 SLOAD DUP1 ISZERO PUSH2 0xABE JUMPI PUSH1 0x20 MUL DUP3 ADD SWAP2 SWAP1 PUSH1 0x0 MSTORE PUSH1 0x20 PUSH1 0x0 KECCAK256 SWAP1 JUMPDEST DUP2 PUSH1 0x0 SWAP1 SLOAD SWAP1 PUSH2 0x100 EXP SWAP1 DIV PUSH20 0xFFFFFFFFFFFFFFFFFFFFFFFFFFFFFFFFFFFFFFFF AND PUSH20 0xFFFFFFFFFFFFFFFFFFFFFFFFFFFFFFFFFFFFFFFF AND DUP2 MSTORE PUSH1 0x20 ADD SWAP1 PUSH1 0x1 ADD SWAP1 DUP1 DUP4 GT PUSH2 0xA74 JUMPI JUMPDEST POP POP POP POP POP SWAP1 POP SWAP1 JUMP JUMPDEST PUSH1 0x60 PUSH1 0x0 PUSH1 0x60 PUSH1 0x0 DUP1 PUSH1 0x0 DUP1 PUSH1 0x0 DUP1 PUSH1 0x0 DUP11 DUP2 MSTORE PUSH1 0x20 ADD SWAP1 DUP2 MSTORE PUSH1 0x20 ADD PUSH1 0x0 KECCAK256 SWAP1 POP DUP1 PUSH1 0x9 ADD PUSH1 0x1 SWAP1 SLOAD SWAP1 PUSH2 0x100 EXP SWAP1 DIV PUSH1 0xFF AND PUSH2 0xB3B JUMPI PUSH1 0x40 MLOAD PUSH32 0x8C379A000000000000000000000000000000000000000000000000000000000 DUP2 MSTORE PUSH1 0x4 ADD PUSH2 0xB32 SWAP1 PUSH2 0x3B84 JUMP JUMPDEST PUSH1 0x40 MLOAD DUP1 SWAP2 SUB SWAP1 REVERT JUMPDEST PUSH1 0x0 PUSH1 0x1 SWAP1 POP PUSH1 0x0 JUMPDEST DUP3 PUSH1 0x2 ADD DUP1 SLOAD SWAP1 POP DUP2 LT ISZERO PUSH2 0xC02 JUMPI DUP3 PUSH1 0x4 ADD PUSH1 0x0 DUP5 PUSH1 0x2 ADD DUP4 DUP2 SLOAD DUP2 LT PUSH2 0xB6F JUMPI PUSH2 0xB6E PUSH2 0x3C07 JUMP JUMPDEST JUMPDEST SWAP1 PUSH1 0x0 MSTORE PUSH1 0x20 PUSH1 0x0 KECCAK256 ADD PUSH1 0x0 SWAP1 SLOAD SWAP1 PUSH2 0x100 EXP SWAP1 DIV PUSH20 0xFFFFFFFFFFFFFFFFFFFFFFFFFFFFFFFFFFFFFFFF AND PUSH20 0xFFFFFFFFFFFFFFFFFFFFFFFFFFFFFFFFFFFFFFFF AND PUSH20 0xFFFFFFFFFFFFFFFFFFFFFFFFFFFFFFFFFFFFFFFF AND DUP2 MSTORE PUSH1 0x20 ADD SWAP1 DUP2 MSTORE PUSH1 0x20 ADD PUSH1 0x0 KECCAK256 PUSH1 0x0 SWAP1 SLOAD SWAP1 PUSH2 0x100 EXP SWAP1 DIV PUSH1 0xFF AND PUSH2 0xBEF JUMPI PUSH1 0x0 SWAP2 POP PUSH2 0xC02 JUMP JUMPDEST DUP1 DUP1 PUSH2 0xBFA SWAP1 PUSH2 0x3EE3 JUMP JUMPDEST SWAP2 POP POP PUSH2 0xB44 JUMP JUMPDEST POP DUP2 PUSH1 0x0 ADD DUP3 PUSH1 0x1 ADD PUSH1 0x0 SWAP1 SLOAD SWAP1 PUSH2 0x100 EXP SWAP1 DIV PUSH20 0xFFFFFFFFFFFFFFFFFFFFFFFFFFFFFFFFFFFFFFFF AND DUP4 PUSH1 0x2 ADD DUP5 PUSH1 0x7 ADD SLOAD DUP6 PUSH1 0x8 ADD SLOAD DUP6 DUP8 PUSH1 0x9 ADD PUSH1 0x0 SWAP1 SLOAD SWAP1 PUSH2 0x100 EXP SWAP1 DIV PUSH1 0xFF AND DUP7 DUP1 SLOAD PUSH2 0xC59 SWAP1 PUSH2 0x3F5A JUMP JUMPDEST DUP1 PUSH1 0x1F ADD PUSH1 0x20 DUP1 SWAP2 DIV MUL PUSH1 0x20 ADD PUSH1 0x40 MLOAD SWAP1 DUP2 ADD PUSH1 0x40 MSTORE DUP1 SWAP3 SWAP2 SWAP1 DUP2 DUP2 MSTORE PUSH1 0x20 ADD DUP3 DUP1 SLOAD PUSH2 0xC85 SWAP1 PUSH2 0x3F5A JUMP JUMPDEST DUP1 ISZERO PUSH2 0xCD2 JUMPI DUP1 PUSH1 0x1F LT PUSH2 0xCA7 JUMPI PUSH2 0x100 DUP1 DUP4 SLOAD DIV MUL DUP4 MSTORE SWAP2 PUSH1 0x20 ADD SWAP2 PUSH2 0xCD2 JUMP JUMPDEST DUP3 ADD SWAP2 SWAP1 PUSH1 0x0 MSTORE PUSH1 0x20 PUSH1 0x0 KECCAK256 SWAP1 JUMPDEST DUP2 SLOAD DUP2 MSTORE SWAP1 PUSH1 0x1 ADD SWAP1 PUSH1 0x20 ADD DUP1 DUP4 GT PUSH2 0xCB5 JUMPI DUP3 SWAP1 SUB PUSH1 0x1F AND DUP3 ADD SWAP2 JUMPDEST POP POP POP POP POP SWAP7 POP DUP5 DUP1 SLOAD DUP1 PUSH1 0x20 MUL PUSH1 0x20 ADD PUSH1 0x40 MLOAD SWAP1 DUP2 ADD PUSH1 0x40 MSTORE DUP1 SWAP3 SWAP2 SWAP1 DUP2 DUP2 MSTORE PUSH1 0x20 ADD DUP3 DUP1 SLOAD DUP1 ISZERO PUSH2 0xD5A JUMPI PUSH1 0x20 MUL DUP3 ADD SWAP2 SWAP1 PUSH1 0x0 MSTORE PUSH1 0x20 PUSH1 0x0 KECCAK256 SWAP1 JUMPDEST DUP2 PUSH1 0x0 SWAP1 SLOAD SWAP1 PUSH2 0x100 EXP SWAP1 DIV PUSH20 0xFFFFFFFFFFFFFFFFFFFFFFFFFFFFFFFFFFFFFFFF AND PUSH20 0xFFFFFFFFFFFFFFFFFFFFFFFFFFFFFFFFFFFFFFFF AND DUP2 MSTORE PUSH1 0x20 ADD SWAP1 PUSH1 0x1 ADD SWAP1 DUP1 DUP4 GT PUSH2 0xD10 JUMPI JUMPDEST POP POP POP POP POP SWAP5 POP SWAP9 POP SWAP9 POP SWAP9 POP SWAP9 POP SWAP9 POP SWAP9 POP SWAP9 POP POP POP SWAP2 SWAP4 SWAP6 SWAP8 SWAP1 SWAP3 SWAP5 SWAP7 POP JUMP JUMPDEST PUSH1 0x0 DUP1 PUSH1 0x0 DUP1 DUP5 DUP2 MSTORE PUSH1 0x20 ADD SWAP1 DUP2 MSTORE PUSH1 0x20 ADD PUSH1 0x0 KECCAK256 SWAP1 POP DUP1 PUSH1 0x9 ADD PUSH1 0x1 SWAP1 SLOAD SWAP1 PUSH2 0x100 EXP SWAP1 DIV PUSH1 0xFF AND PUSH2 0xDB3 JUMPI PUSH1 0x0 SWAP2 POP POP PUSH2 0xEBE JUMP JUMPDEST DUP4 PUSH20 0xFFFFFFFFFFFFFFFFFFFFFFFFFFFFFFFFFFFFFFFF AND DUP2 PUSH1 0x1 ADD PUSH1 0x0 SWAP1 SLOAD SWAP1 PUSH2 0x100 EXP SWAP1 DIV PUSH20 0xFFFFFFFFFFFFFFFFFFFFFFFFFFFFFFFFFFFFFFFF AND PUSH20 0xFFFFFFFFFFFFFFFFFFFFFFFFFFFFFFFFFFFFFFFF AND SUB PUSH2 0xE14 JUMPI PUSH1 0x1 SWAP2 POP POP PUSH2 0xEBE JUMP JUMPDEST PUSH1 0x0 JUMPDEST DUP2 PUSH1 0x2 ADD DUP1 SLOAD SWAP1 POP DUP2 LT ISZERO PUSH2 0xEB7 JUMPI DUP5 PUSH20 0xFFFFFFFFFFFFFFFFFFFFFFFFFFFFFFFFFFFFFFFF AND DUP3 PUSH1 0x2 ADD DUP3 DUP2 SLOAD DUP2 LT PUSH2 0xE53 JUMPI PUSH2 0xE52 PUSH2 0x3C07 JUMP JUMPDEST JUMPDEST SWAP1 PUSH1 0x0 MSTORE PUSH1 0x20 PUSH1 0x0 KECCAK256 ADD PUSH1 0x0 SWAP1 SLOAD SWAP1 PUSH2 0x100 EXP SWAP1 DIV PUSH20 0xFFFFFFFFFFFFFFFFFFFFFFFFFFFFFFFFFFFFFFFF AND PUSH20 0xFFFFFFFFFFFFFFFFFFFFFFFFFFFFFFFFFFFFFFFF AND SUB PUSH2 0xEA4 JUMPI PUSH1 0x1 SWAP3 POP POP POP PUSH2 0xEBE JUMP JUMPDEST DUP1 DUP1 PUSH2 0xEAF SWAP1 PUSH2 0x3EE3 JUMP JUMPDEST SWAP2 POP POP PUSH2 0xE17 JUMP JUMPDEST POP PUSH1 0x0 SWAP2 POP POP JUMPDEST SWAP3 SWAP2 POP POP JUMP JUMPDEST DUP2 PUSH1 0x0 DUP1 DUP3 DUP2 MSTORE PUSH1 0x20 ADD SWAP1 DUP2 MSTORE PUSH1 0x20 ADD PUSH1 0x0 KECCAK256 PUSH1 0x9 ADD PUSH1 0x1 SWAP1 SLOAD SWAP1 PUSH2 0x100 EXP SWAP1 DIV PUSH1 0xFF AND PUSH2 0xF27 JUMPI PUSH1 0x40 MLOAD PUSH32 0x8C379A000000000000000000000000000000000000000000000000000000000 DUP2 MSTORE PUSH1 0x4 ADD PUSH2 0xF1E SWAP1 PUSH2 0x3B84 JUMP JUMPDEST PUSH1 0x40 MLOAD DUP1 SWAP2 SUB SWAP1 REVERT JUMPDEST PUSH1 0x2 DUP1 DUP2 GT ISZERO PUSH2 0xF3A JUMPI PUSH2 0xF39 PUSH2 0x36E4 JUMP JUMPDEST JUMPDEST PUSH1 0x0 DUP1 DUP4 DUP2 MSTORE PUSH1 0x20 ADD SWAP1 DUP2 MSTORE PUSH1 0x20 ADD PUSH1 0x0 KECCAK256 PUSH1 0x3 ADD PUSH1 0x0 CALLER PUSH20 0xFFFFFFFFFFFFFFFFFFFFFFFFFFFFFFFFFFFFFFFF AND PUSH20 0xFFFFFFFFFFFFFFFFFFFFFFFFFFFFFFFFFFFFFFFF AND DUP2 MSTORE PUSH1 0x20 ADD SWAP1 DUP2 MSTORE PUSH1 0x20 ADD PUSH1 0x0 KECCAK256 PUSH1 0x0 SWAP1 SLOAD SWAP1 PUSH2 0x100 EXP SWAP1 DIV PUSH1 0xFF AND PUSH1 0x2 DUP2 GT ISZERO PUSH2 0xFAC JUMPI PUSH2 0xFAB PUSH2 0x36E4 JUMP JUMPDEST JUMPDEST EQ PUSH2 0xFEC JUMPI PUSH1 0x40 MLOAD PUSH32 0x8C379A000000000000000000000000000000000000000000000000000000000 DUP2 MSTORE PUSH1 0x4 ADD PUSH2 0xFE3 SWAP1 PUSH2 0x3FD7 JUMP JUMPDEST PUSH1 0x40 MLOAD DUP1 SWAP2 SUB SWAP1 REVERT JUMPDEST DUP3 PUSH1 0x0 DUP1 DUP3 DUP2 MSTORE PUSH1 0x20 ADD SWAP1 DUP2 MSTORE PUSH1 0x20 ADD PUSH1 0x0 KECCAK256 PUSH1 0x9 ADD PUSH1 0x0 SWAP1 SLOAD SWAP1 PUSH2 0x100 EXP SWAP1 DIV PUSH1 0xFF AND ISZERO PUSH2 0x1050 JUMPI PUSH1 0x40 MLOAD PUSH32 0x8C379A000000000000000000000000000000000000000000000000000000000 DUP2 MSTORE PUSH1 0x4 ADD PUSH2 0x1047 SWAP1 PUSH2 0x4043 JUMP JUMPDEST PUSH1 0x40 MLOAD DUP1 SWAP2 SUB SWAP1 REVERT JUMPDEST PUSH1 0x0 DUP1 PUSH1 0x0 DUP7 DUP2 MSTORE PUSH1 0x20 ADD SWAP1 DUP2 MSTORE PUSH1 0x20 ADD PUSH1 0x0 KECCAK256 SWAP1 POP PUSH2 0x106F DUP6 PUSH2 0x2E95 JUMP JUMPDEST ISZERO PUSH2 0x10AF JUMPI PUSH1 0x40 MLOAD PUSH32 0x8C379A000000000000000000000000000000000000000000000000000000000 DUP2 MSTORE PUSH1 0x4 ADD PUSH2 0x10A6 SWAP1 PUSH2 0x40AF JUMP JUMPDEST PUSH1 0x40 MLOAD DUP1 SWAP2 SUB SWAP1 REVERT JUMPDEST DUP1 PUSH1 0x4 ADD PUSH1 0x0 CALLER PUSH20 0xFFFFFFFFFFFFFFFFFFFFFFFFFFFFFFFFFFFFFFFF AND PUSH20 0xFFFFFFFFFFFFFFFFFFFFFFFFFFFFFFFFFFFFFFFF AND DUP2 MSTORE PUSH1 0x20 ADD SWAP1 DUP2 MSTORE PUSH1 0x20 ADD PUSH1 0x0 KECCAK256 PUSH1 0x0 SWAP1 SLOAD SWAP1 PUSH2 0x100 EXP SWAP1 DIV PUSH1 0xFF AND ISZERO PUSH2 0x113E JUMPI PUSH1 0x40 MLOAD PUSH32 0x8C379A000000000000000000000000000000000000000000000000000000000 DUP2 MSTORE PUSH1 0x4 ADD PUSH2 0x1135 SWAP1 PUSH2 0x411B JUMP JUMPDEST PUSH1 0x40 MLOAD DUP1 SWAP2 SUB SWAP1 REVERT JUMPDEST CALLER PUSH20 0xFFFFFFFFFFFFFFFFFFFFFFFFFFFFFFFFFFFFFFFF AND DUP2 PUSH1 0x2 ADD DUP3 PUSH1 0xB ADD SLOAD DUP2 SLOAD DUP2 LT PUSH2 0x116F JUMPI PUSH2 0x116E PUSH2 0x3C07 JUMP JUMPDEST JUMPDEST SWAP1 PUSH1 0x0 MSTORE PUSH1 0x20 PUSH1 0x0 KECCAK256 ADD PUSH1 0x0 SWAP1 SLOAD SWAP1 PUSH2 0x100 EXP SWAP1 DIV PUSH20 0xFFFFFFFFFFFFFFFFFFFFFFFFFFFFFFFFFFFFFFFF AND PUSH20 0xFFFFFFFFFFFFFFFFFFFFFFFFFFFFFFFFFFFFFFFF AND EQ PUSH2 0x11F0 JUMPI PUSH1 0x40 MLOAD PUSH32 0x8C379A000000000000000000000000000000000000000000000000000000000 DUP2 MSTORE PUSH1 0x4 ADD PUSH2 0x11E7 SWAP1 PUSH2 0x4187 JUMP JUMPDEST PUSH1 0x40 MLOAD DUP1 SWAP2 SUB SWAP1 REVERT JUMPDEST PUSH1 0x0 DUP5 MLOAD GT PUSH2 0x1234 JUMPI PUSH1 0x40 MLOAD PUSH32 0x8C379A000000000000000000000000000000000000000000000000000000000 DUP2 MSTORE PUSH1 0x4 ADD PUSH2 0x122B SWAP1 PUSH2 0x41F3 JUMP JUMPDEST PUSH1 0x40 MLOAD DUP1 SWAP2 SUB SWAP1 REVERT JUMPDEST PUSH1 0x1 DUP2 PUSH1 0x4 ADD PUSH1 0x0 CALLER PUSH20 0xFFFFFFFFFFFFFFFFFFFFFFFFFFFFFFFFFFFFFFFF AND PUSH20 0xFFFFFFFFFFFFFFFFFFFFFFFFFFFFFFFFFFFFFFFF AND DUP2 MSTORE PUSH1 0x20 ADD SWAP1 DUP2 MSTORE PUSH1 0x20 ADD PUSH1 0x0 KECCAK256 PUSH1 0x0 PUSH2 0x100 EXP DUP2 SLOAD DUP2 PUSH1 0xFF MUL NOT AND SWAP1 DUP4 ISZERO ISZERO MUL OR SWAP1 SSTORE POP TIMESTAMP DUP2 PUSH1 0x5 ADD PUSH1 0x0 CALLER PUSH20 0xFFFFFFFFFFFFFFFFFFFFFFFFFFFFFFFFFFFFFFFF AND PUSH20 0xFFFFFFFFFFFFFFFFFFFFFFFFFFFFFFFFFFFFFFFF AND DUP2 MSTORE PUSH1 0x20 ADD SWAP1 DUP2 MSTORE PUSH1 0x20 ADD PUSH1 0x0 KECCAK256 DUP2 SWAP1 SSTORE POP DUP4 DUP2 PUSH1 0x6 ADD PUSH1 0x0 CALLER PUSH20 0xFFFFFFFFFFFFFFFFFFFFFFFFFFFFFFFFFFFFFFFF AND PUSH20 0xFFFFFFFFFFFFFFFFFFFFFFFFFFFFFFFFFFFFFFFF AND DUP2 MSTORE PUSH1 0x20 ADD SWAP1 DUP2 MSTORE PUSH1 0x20 ADD PUSH1 0x0 KECCAK256 SWAP1 DUP2 PUSH2 0x1322 SWAP2 SWAP1 PUSH2 0x43BF JUMP JUMPDEST POP DUP1 PUSH1 0x8 ADD PUSH1 0x0 DUP2 SLOAD DUP1 SWAP3 SWAP2 SWAP1 PUSH2 0x1338 SWAP1 PUSH2 0x3EE3 JUMP JUMPDEST SWAP2 SWAP1 POP SSTORE POP DUP1 PUSH1 0xB ADD PUSH1 0x0 DUP2 SLOAD DUP1 SWAP3 SWAP2 SWAP1 PUSH2 0x1352 SWAP1 PUSH2 0x3EE3 JUMP JUMPDEST SWAP2 SWAP1 POP SSTORE POP CALLER PUSH20 0xFFFFFFFFFFFFFFFFFFFFFFFFFFFFFFFFFFFFFFFF AND DUP6 PUSH32 0x8C14A9D5F9E05EA3D9142FD74AE9DC73E6214837CD22E0622926450648A81EDB TIMESTAMP DUP8 PUSH1 0x40 MLOAD PUSH2 0x13A0 SWAP3 SWAP2 SWAP1 PUSH2 0x4491 JUMP JUMPDEST PUSH1 0x40 MLOAD DUP1 SWAP2 SUB SWAP1 LOG3 POP POP POP POP POP JUMP JUMPDEST DUP1 PUSH1 0x0 DUP1 DUP3 DUP2 MSTORE PUSH1 0x20 ADD SWAP1 DUP2 MSTORE PUSH1 0x20 ADD PUSH1 0x0 KECCAK256 PUSH1 0x9 ADD PUSH1 0x1 SWAP1 SLOAD SWAP1 PUSH2 0x100 EXP SWAP1 DIV PUSH1 0xFF AND PUSH2 0x1412 JUMPI PUSH1 0x40 MLOAD PUSH32 0x8C379A000000000000000000000000000000000000000000000000000000000 DUP2 MSTORE PUSH1 0x4 ADD PUSH2 0x1409 SWAP1 PUSH2 0x3B84 JUMP JUMPDEST PUSH1 0x40 MLOAD DUP1 SWAP2 SUB SWAP1 REVERT JUMPDEST PUSH1 0x2 DUP1 DUP2 GT ISZERO PUSH2 0x1425 JUMPI PUSH2 0x1424 PUSH2 0x36E4 JUMP JUMPDEST JUMPDEST PUSH1 0x0 DUP1 DUP4 DUP2 MSTORE PUSH1 0x20 ADD SWAP1 DUP2 MSTORE PUSH1 0x20 ADD PUSH1 0x0 KECCAK256 PUSH1 0x3 ADD PUSH1 0x0 CALLER PUSH20 0xFFFFFFFFFFFFFFFFFFFFFFFFFFFFFFFFFFFFFFFF AND PUSH20 0xFFFFFFFFFFFFFFFFFFFFFFFFFFFFFFFFFFFFFFFF AND DUP2 MSTORE PUSH1 0x20 ADD SWAP1 DUP2 MSTORE PUSH1 0x20 ADD PUSH1 0x0 KECCAK256 PUSH1 0x0 SWAP1 SLOAD SWAP1 PUSH2 0x100 EXP SWAP1 DIV PUSH1 0xFF AND PUSH1 0x2 DUP2 GT ISZERO PUSH2 0x1497 JUMPI PUSH2 0x1496 PUSH2 0x36E4 JUMP JUMPDEST JUMPDEST EQ PUSH2 0x14D7 JUMPI PUSH1 0x40 MLOAD PUSH32 0x8C379A000000000000000000000000000000000000000000000000000000000 DUP2 MSTORE PUSH1 0x4 ADD PUSH2 0x14CE SWAP1 PUSH2 0x3FD7 JUMP JUMPDEST PUSH1 0x40 MLOAD DUP1 SWAP2 SUB SWAP1 REVERT JUMPDEST DUP2 PUSH1 0x0 DUP1 DUP3 DUP2 MSTORE PUSH1 0x20 ADD SWAP1 DUP2 MSTORE PUSH1 0x20 ADD PUSH1 0x0 KECCAK256 PUSH1 0x9 ADD PUSH1 0x0 SWAP1 SLOAD SWAP1 PUSH2 0x100 EXP SWAP1 DIV PUSH1 0xFF AND ISZERO PUSH2 0x153B JUMPI PUSH1 0x40 MLOAD PUSH32 0x8C379A000000000000000000000000000000000000000000000000000000000 DUP2 MSTORE PUSH1 0x4 ADD PUSH2 0x1532 SWAP1 PUSH2 0x4043 JUMP JUMPDEST PUSH1 0x40 MLOAD DUP1 SWAP2 SUB SWAP1 REVERT JUMPDEST PUSH1 0x0 DUP1 PUSH1 0x0 DUP6 DUP2 MSTORE PUSH1 0x20 ADD SWAP1 DUP2 MSTORE PUSH1 0x20 ADD PUSH1 0x0 KECCAK256 SWAP1 POP PUSH2 0x155A DUP5 PUSH2 0x2E95 JUMP JUMPDEST ISZERO PUSH2 0x159A JUMPI PUSH1 0x40 MLOAD PUSH32 0x8C379A000000000000000000000000000000000000000000000000000000000 DUP2 MSTORE PUSH1 0x4 ADD PUSH2 0x1591 SWAP1 PUSH2 0x40AF JUMP JUMPDEST PUSH1 0x40 MLOAD DUP1 SWAP2 SUB SWAP1 REVERT JUMPDEST DUP1 PUSH1 0x4 ADD PUSH1 0x0 CALLER PUSH20 0xFFFFFFFFFFFFFFFFFFFFFFFFFFFFFFFFFFFFFFFF AND PUSH20 0xFFFFFFFFFFFFFFFFFFFFFFFFFFFFFFFFFFFFFFFF AND DUP2 MSTORE PUSH1 0x20 ADD SWAP1 DUP2 MSTORE PUSH1 0x20 ADD PUSH1 0x0 KECCAK256 PUSH1 0x0 SWAP1 SLOAD SWAP1 PUSH2 0x100 EXP SWAP1 DIV PUSH1 0xFF AND ISZERO PUSH2 0x1629 JUMPI PUSH1 0x40 MLOAD PUSH32 0x8C379A000000000000000000000000000000000000000000000000000000000 DUP2 MSTORE PUSH1 0x4 ADD PUSH2 0x1620 SWAP1 PUSH2 0x411B JUMP JUMPDEST PUSH1 0x40 MLOAD DUP1 SWAP2 SUB SWAP1 REVERT JUMPDEST CALLER PUSH20 0xFFFFFFFFFFFFFFFFFFFFFFFFFFFFFFFFFFFFFFFF AND DUP2 PUSH1 0x2 ADD DUP3 PUSH1 0xB ADD SLOAD DUP2 SLOAD DUP2 LT PUSH2 0x165A JUMPI PUSH2 0x1659 PUSH2 0x3C07 JUMP JUMPDEST JUMPDEST SWAP1 PUSH1 0x0 MSTORE PUSH1 0x20 PUSH1 0x0 KECCAK256 ADD PUSH1 0x0 SWAP1 SLOAD SWAP1 PUSH2 0x100 EXP SWAP1 DIV PUSH20 0xFFFFFFFFFFFFFFFFFFFFFFFFFFFFFFFFFFFFFFFF AND PUSH20 0xFFFFFFFFFFFFFFFFFFFFFFFFFFFFFFFFFFFFFFFF AND EQ PUSH2 0x16DB JUMPI PUSH1 0x40 MLOAD PUSH32 0x8C379A000000000000000000000000000000000000000000000000000000000 DUP2 MSTORE PUSH1 0x4 ADD PUSH2 0x16D2 SWAP1 PUSH2 0x4187 JUMP JUMPDEST PUSH1 0x40 MLOAD DUP1 SWAP2 SUB SWAP1 REVERT JUMPDEST PUSH1 0x1 DUP2 PUSH1 0x4 ADD PUSH1 0x0 CALLER PUSH20 0xFFFFFFFFFFFFFFFFFFFFFFFFFFFFFFFFFFFFFFFF AND PUSH20 0xFFFFFFFFFFFFFFFFFFFFFFFFFFFFFFFFFFFFFFFF AND DUP2 MSTORE PUSH1 0x20 ADD SWAP1 DUP2 MSTORE PUSH1 0x20 ADD PUSH1 0x0 KECCAK256 PUSH1 0x0 PUSH2 0x100 EXP DUP2 SLOAD DUP2 PUSH1 0xFF MUL NOT AND SWAP1 DUP4 ISZERO ISZERO MUL OR SWAP1 SSTORE POP TIMESTAMP DUP2 PUSH1 0x5 ADD PUSH1 0x0 CALLER PUSH20 0xFFFFFFFFFFFFFFFFFFFFFFFFFFFFFFFFFFFFFFFF AND PUSH20 0xFFFFFFFFFFFFFFFFFFFFFFFFFFFFFFFFFFFFFFFF AND DUP2 MSTORE PUSH1 0x20 ADD SWAP1 DUP2 MSTORE PUSH1 0x20 ADD PUSH1 0x0 KECCAK256 DUP2 SWAP1 SSTORE POP DUP1 PUSH1 0x8 ADD PUSH1 0x0 DUP2 SLOAD DUP1 SWAP3 SWAP2 SWAP1 PUSH2 0x1790 SWAP1 PUSH2 0x3EE3 JUMP JUMPDEST SWAP2 SWAP1 POP SSTORE POP DUP1 PUSH1 0xB ADD PUSH1 0x0 DUP2 SLOAD DUP1 SWAP3 SWAP2 SWAP1 PUSH2 0x17AA SWAP1 PUSH2 0x3EE3 JUMP JUMPDEST SWAP2 SWAP1 POP SSTORE POP CALLER PUSH20 0xFFFFFFFFFFFFFFFFFFFFFFFFFFFFFFFFFFFFFFFF AND DUP5 PUSH32 0x8C14A9D5F9E05EA3D9142FD74AE9DC73E6214837CD22E0622926450648A81EDB TIMESTAMP PUSH1 0x40 MLOAD PUSH2 0x17F6 SWAP2 SWAP1 PUSH2 0x44E7 JUMP JUMPDEST PUSH1 0x40 MLOAD DUP1 SWAP2 SUB SWAP1 LOG3 POP POP POP POP JUMP JUMPDEST PUSH1 0x0 DUP1 PUSH1 0x0 DUP5 DUP2 MSTORE PUSH1 0x20 ADD SWAP1 DUP2 MSTORE PUSH1 0x20 ADD PUSH1 0x0 KECCAK256 PUSH1 0x4 ADD PUSH1 0x0 DUP4 PUSH20 0xFFFFFFFFFFFFFFFFFFFFFFFFFFFFFFFFFFFFFFFF AND PUSH20 0xFFFFFFFFFFFFFFFFFFFFFFFFFFFFFFFFFFFFFFFF AND DUP2 MSTORE PUSH1 0x20 ADD SWAP1 DUP2 MSTORE PUSH1 0x20 ADD PUSH1 0x0 KECCAK256 PUSH1 0x0 SWAP1 SLOAD SWAP1 PUSH2 0x100 EXP SWAP1 DIV PUSH1 0xFF AND SWAP1 POP SWAP3 SWAP2 POP POP JUMP JUMPDEST PUSH1 0x3 DUP2 DUP2 SLOAD DUP2 LT PUSH2 0x187E JUMPI PUSH1 0x0 DUP1 REVERT JUMPDEST SWAP1 PUSH1 0x0 MSTORE PUSH1 0x20 PUSH1 0x0 KECCAK256 ADD PUSH1 0x0 SWAP2 POP SLOAD SWAP1 PUSH2 0x100 EXP SWAP1 DIV PUSH20 0xFFFFFFFFFFFFFFFFFFFFFFFFFFFFFFFFFFFFFFFF AND DUP2 JUMP JUMPDEST PUSH1 0x0 DUP1 PUSH1 0x0 DUP4 DUP2 MSTORE PUSH1 0x20 ADD SWAP1 DUP2 MSTORE PUSH1 0x20 ADD PUSH1 0x0 KECCAK256 PUSH1 0x9 ADD PUSH1 0x1 SWAP1 SLOAD SWAP1 PUSH2 0x100 EXP SWAP1 DIV PUSH1 0xFF AND PUSH2 0x1911 JUMPI PUSH1 0x40 MLOAD PUSH32 0x8C379A000000000000000000000000000000000000000000000000000000000 DUP2 MSTORE PUSH1 0x4 ADD PUSH2 0x1908 SWAP1 PUSH2 0x3B84 JUMP JUMPDEST PUSH1 0x40 MLOAD DUP1 SWAP2 SUB SWAP1 REVERT JUMPDEST PUSH1 0x0 DUP1 DUP4 DUP2 MSTORE PUSH1 0x20 ADD SWAP1 DUP2 MSTORE PUSH1 0x20 ADD PUSH1 0x0 KECCAK256 PUSH1 0xA ADD SLOAD SWAP1 POP SWAP2 SWAP1 POP JUMP JUMPDEST PUSH1 0x0 DUP1 PUSH1 0x0 DUP5 DUP2 MSTORE PUSH1 0x20 ADD SWAP1 DUP2 MSTORE PUSH1 0x20 ADD PUSH1 0x0 KECCAK256 PUSH1 0x9 ADD PUSH1 0x1 SWAP1 SLOAD SWAP1 PUSH2 0x100 EXP SWAP1 DIV PUSH1 0xFF AND PUSH2 0x1992 JUMPI PUSH1 0x40 MLOAD PUSH32 0x8C379A000000000000000000000000000000000000000000000000000000000 DUP2 MSTORE PUSH1 0x4 ADD PUSH2 0x1989 SWAP1 PUSH2 0x3B84 JUMP JUMPDEST PUSH1 0x40 MLOAD DUP1 SWAP2 SUB SWAP1 REVERT JUMPDEST PUSH1 0x0 DUP1 DUP5 DUP2 MSTORE PUSH1 0x20 ADD SWAP1 DUP2 MSTORE PUSH1 0x20 ADD PUSH1 0x0 KECCAK256 PUSH1 0x3 ADD PUSH1 0x0 DUP4 PUSH20 0xFFFFFFFFFFFFFFFFFFFFFFFFFFFFFFFFFFFFFFFF AND PUSH20 0xFFFFFFFFFFFFFFFFFFFFFFFFFFFFFFFFFFFFFFFF AND DUP2 MSTORE PUSH1 0x20 ADD SWAP1 DUP2 MSTORE PUSH1 0x20 ADD PUSH1 0x0 KECCAK256 PUSH1 0x0 SWAP1 SLOAD SWAP1 PUSH2 0x100 EXP SWAP1 DIV PUSH1 0xFF AND SWAP1 POP SWAP3 SWAP2 POP POP JUMP JUMPDEST PUSH1 0x60 DUP1 PUSH1 0x60 PUSH1 0x0 DUP1 PUSH1 0x60 PUSH1 0x2 PUSH1 0x0 DUP9 PUSH20 0xFFFFFFFFFFFFFFFFFFFFFFFFFFFFFFFFFFFFFFFF AND PUSH20 0xFFFFFFFFFFFFFFFFFFFFFFFFFFFFFFFFFFFFFFFF AND DUP2 MSTORE PUSH1 0x20 ADD SWAP1 DUP2 MSTORE PUSH1 0x20 ADD PUSH1 0x0 KECCAK256 PUSH1 0x4 ADD PUSH1 0x0 SWAP1 SLOAD SWAP1 PUSH2 0x100 EXP SWAP1 DIV PUSH1 0xFF AND PUSH2 0x1A93 JUMPI PUSH1 0x40 MLOAD PUSH32 0x8C379A000000000000000000000000000000000000000000000000000000000 DUP2 MSTORE PUSH1 0x4 ADD PUSH2 0x1A8A SWAP1 PUSH2 0x4561 JUMP JUMPDEST PUSH1 0x40 MLOAD DUP1 SWAP2 SUB SWAP1 REVERT JUMPDEST PUSH1 0x0 PUSH1 0x2 PUSH1 0x0 DUP10 PUSH20 0xFFFFFFFFFFFFFFFFFFFFFFFFFFFFFFFFFFFFFFFF AND PUSH20 0xFFFFFFFFFFFFFFFFFFFFFFFFFFFFFFFFFFFFFFFF AND DUP2 MSTORE PUSH1 0x20 ADD SWAP1 DUP2 MSTORE PUSH1 0x20 ADD PUSH1 0x0 KECCAK256 SWAP1 POP DUP1 PUSH1 0x0 ADD DUP2 PUSH1 0x1 ADD DUP3 PUSH1 0x2 ADD DUP4 PUSH1 0x3 ADD SLOAD DUP5 PUSH1 0x4 ADD PUSH1 0x0 SWAP1 SLOAD SWAP1 PUSH2 0x100 EXP SWAP1 DIV PUSH1 0xFF AND DUP6 PUSH1 0x5 ADD DUP6 DUP1 SLOAD PUSH2 0x1B09 SWAP1 PUSH2 0x3F5A JUMP JUMPDEST DUP1 PUSH1 0x1F ADD PUSH1 0x20 DUP1 SWAP2 DIV MUL PUSH1 0x20 ADD PUSH1 0x40 MLOAD SWAP1 DUP2 ADD PUSH1 0x40 MSTORE DUP1 SWAP3 SWAP2 SWAP1 DUP2 DUP2 MSTORE PUSH1 0x20 ADD DUP3 DUP1 SLOAD PUSH2 0x1B35 SWAP1 PUSH2 0x3F5A JUMP JUMPDEST DUP1 ISZERO PUSH2 0x1B82 JUMPI DUP1 PUSH1 0x1F LT PUSH2 0x1B57 JUMPI PUSH2 0x100 DUP1 DUP4 SLOAD DIV MUL DUP4 MSTORE SWAP2 PUSH1 0x20 ADD SWAP2 PUSH2 0x1B82 JUMP JUMPDEST DUP3 ADD SWAP2 SWAP1 PUSH1 0x0 MSTORE PUSH1 0x20 PUSH1 0x0 KECCAK256 SWAP1 JUMPDEST DUP2 SLOAD DUP2 MSTORE SWAP1 PUSH1 0x1 ADD SWAP1 PUSH1 0x20 ADD DUP1 DUP4 GT PUSH2 0x1B65 JUMPI DUP3 SWAP1 SUB PUSH1 0x1F AND DUP3 ADD SWAP2 JUMPDEST POP POP POP POP POP SWAP6 POP DUP5 DUP1 SLOAD PUSH2 0x1B95 SWAP1 PUSH2 0x3F5A JUMP JUMPDEST DUP1 PUSH1 0x1F ADD PUSH1 0x20 DUP1 SWAP2 DIV MUL PUSH1 0x20 ADD PUSH1 0x40 MLOAD SWAP1 DUP2 ADD PUSH1 0x40 MSTORE DUP1 SWAP3 SWAP2 SWAP1 DUP2 DUP2 MSTORE PUSH1 0x20 ADD DUP3 DUP1 SLOAD PUSH2 0x1BC1 SWAP1 PUSH2 0x3F5A JUMP JUMPDEST DUP1 ISZERO PUSH2 0x1C0E JUMPI DUP1 PUSH1 0x1F LT PUSH2 0x1BE3 JUMPI PUSH2 0x100 DUP1 DUP4 SLOAD DIV MUL DUP4 MSTORE SWAP2 PUSH1 0x20 ADD SWAP2 PUSH2 0x1C0E JUMP JUMPDEST DUP3 ADD SWAP2 SWAP1 PUSH1 0x0 MSTORE PUSH1 0x20 PUSH1 0x0 KECCAK256 SWAP1 JUMPDEST DUP2 SLOAD DUP2 MSTORE SWAP1 PUSH1 0x1 ADD SWAP1 PUSH1 0x20 ADD DUP1 DUP4 GT PUSH2 0x1BF1 JUMPI DUP3 SWAP1 SUB PUSH1 0x1F AND DUP3 ADD SWAP2 JUMPDEST POP POP POP POP POP SWAP5 POP DUP4 DUP1 SLOAD PUSH2 0x1C21 SWAP1 PUSH2 0x3F5A JUMP JUMPDEST DUP1 PUSH1 0x1F ADD PUSH1 0x20 DUP1 SWAP2 DIV MUL PUSH1 0x20 ADD PUSH1 0x40 MLOAD SWAP1 DUP2 ADD PUSH1 0x40 MSTORE DUP1 SWAP3 SWAP2 SWAP1 DUP2 DUP2 MSTORE PUSH1 0x20 ADD DUP3 DUP1 SLOAD PUSH2 0x1C4D SWAP1 PUSH2 0x3F5A JUMP JUMPDEST DUP1 ISZERO PUSH2 0x1C9A JUMPI DUP1 PUSH1 0x1F LT PUSH2 0x1C6F JUMPI PUSH2 0x100 DUP1 DUP4 SLOAD DIV MUL DUP4 MSTORE SWAP2 PUSH1 0x20 ADD SWAP2 PUSH2 0x1C9A JUMP JUMPDEST DUP3 ADD SWAP2 SWAP1 PUSH1 0x0 MSTORE PUSH1 0x20 PUSH1 0x0 KECCAK256 SWAP1 JUMPDEST DUP2 SLOAD DUP2 MSTORE SWAP1 PUSH1 0x1 ADD SWAP1 PUSH1 0x20 ADD DUP1 DUP4 GT PUSH2 0x1C7D JUMPI DUP3 SWAP1 SUB PUSH1 0x1F AND DUP3 ADD SWAP2 JUMPDEST POP POP POP POP POP SWAP4 POP DUP1 DUP1 SLOAD PUSH2 0x1CAD SWAP1 PUSH2 0x3F5A JUMP JUMPDEST DUP1 PUSH1 0x1F ADD PUSH1 0x20 DUP1 SWAP2 DIV MUL PUSH1 0x20 ADD PUSH1 0x40 MLOAD SWAP1 DUP2 ADD PUSH1 0x40 MSTORE DUP1 SWAP3 SWAP2 SWAP1 DUP2 DUP2 MSTORE PUSH1 0x20 ADD DUP3 DUP1 SLOAD PUSH2 0x1CD9 SWAP1 PUSH2 0x3F5A JUMP JUMPDEST DUP1 ISZERO PUSH2 0x1D26 JUMPI DUP1 PUSH1 0x1F LT PUSH2 0x1CFB JUMPI PUSH2 0x100 DUP1 DUP4 SLOAD DIV MUL DUP4 MSTORE SWAP2 PUSH1 0x20 ADD SWAP2 PUSH2 0x1D26 JUMP JUMPDEST DUP3 ADD SWAP2 SWAP1 PUSH1 0x0 MSTORE PUSH1 0x20 PUSH1 0x0 KECCAK256 SWAP1 JUMPDEST DUP2 SLOAD DUP2 MSTORE SWAP1 PUSH1 0x1 ADD SWAP1 PUSH1 0x20 ADD DUP1 DUP4 GT PUSH2 0x1D09 JUMPI DUP3 SWAP1 SUB PUSH1 0x1F AND DUP3 ADD SWAP2 JUMPDEST POP POP POP POP POP SWAP1 POP SWAP7 POP SWAP7 POP SWAP7 POP SWAP7 POP SWAP7 POP SWAP7 POP POP SWAP2 SWAP4 SWAP6 POP SWAP2 SWAP4 SWAP6 JUMP JUMPDEST PUSH1 0x1 SLOAD DUP2 JUMP JUMPDEST PUSH1 0x2 PUSH1 0x0 CALLER PUSH20 0xFFFFFFFFFFFFFFFFFFFFFFFFFFFFFFFFFFFFFFFF AND PUSH20 0xFFFFFFFFFFFFFFFFFFFFFFFFFFFFFFFFFFFFFFFF AND DUP2 MSTORE PUSH1 0x20 ADD SWAP1 DUP2 MSTORE PUSH1 0x20 ADD PUSH1 0x0 KECCAK256 PUSH1 0x4 ADD PUSH1 0x0 SWAP1 SLOAD SWAP1 PUSH2 0x100 EXP SWAP1 DIV PUSH1 0xFF AND ISZERO PUSH2 0x1DD9 JUMPI PUSH1 0x40 MLOAD PUSH32 0x8C379A000000000000000000000000000000000000000000000000000000000 DUP2 MSTORE PUSH1 0x4 ADD PUSH2 0x1DD0 SWAP1 PUSH2 0x45CD JUMP JUMPDEST PUSH1 0x40 MLOAD DUP1 SWAP2 SUB SWAP1 REVERT JUMPDEST PUSH1 0x0 PUSH20 0xFFFFFFFFFFFFFFFFFFFFFFFFFFFFFFFFFFFFFFFF AND PUSH1 0x4 DUP5 PUSH1 0x40 MLOAD PUSH2 0x1E01 SWAP2 SWAP1 PUSH2 0x461E JUMP JUMPDEST SWAP1 DUP2 MSTORE PUSH1 0x20 ADD PUSH1 0x40 MLOAD DUP1 SWAP2 SUB SWAP1 KECCAK256 PUSH1 0x0 SWAP1 SLOAD SWAP1 PUSH2 0x100 EXP SWAP1 DIV PUSH20 0xFFFFFFFFFFFFFFFFFFFFFFFFFFFFFFFFFFFFFFFF AND PUSH20 0xFFFFFFFFFFFFFFFFFFFFFFFFFFFFFFFFFFFFFFFF AND EQ PUSH2 0x1E86 JUMPI PUSH1 0x40 MLOAD PUSH32 0x8C379A000000000000000000000000000000000000000000000000000000000 DUP2 MSTORE PUSH1 0x4 ADD PUSH2 0x1E7D SWAP1 PUSH2 0x4681 JUMP JUMPDEST PUSH1 0x40 MLOAD DUP1 SWAP2 SUB SWAP1 REVERT JUMPDEST PUSH1 0x40 MLOAD DUP1 PUSH1 0xC0 ADD PUSH1 0x40 MSTORE DUP1 DUP7 DUP2 MSTORE PUSH1 0x20 ADD DUP6 DUP2 MSTORE PUSH1 0x20 ADD DUP5 DUP2 MSTORE PUSH1 0x20 ADD DUP4 DUP2 MSTORE PUSH1 0x20 ADD PUSH1 0x1 ISZERO ISZERO DUP2 MSTORE PUSH1 0x20 ADD DUP3 DUP2 MSTORE POP PUSH1 0x2 PUSH1 0x0 CALLER PUSH20 0xFFFFFFFFFFFFFFFFFFFFFFFFFFFFFFFFFFFFFFFF AND PUSH20 0xFFFFFFFFFFFFFFFFFFFFFFFFFFFFFFFFFFFFFFFF AND DUP2 MSTORE PUSH1 0x20 ADD SWAP1 DUP2 MSTORE PUSH1 0x20 ADD PUSH1 0x0 KECCAK256 PUSH1 0x0 DUP3 ADD MLOAD DUP2 PUSH1 0x0 ADD SWAP1 DUP2 PUSH2 0x1F0A SWAP2 SWAP1 PUSH2 0x43BF JUMP JUMPDEST POP PUSH1 0x20 DUP3 ADD MLOAD DUP2 PUSH1 0x1 ADD SWAP1 DUP2 PUSH2 0x1F20 SWAP2 SWAP1 PUSH2 0x43BF JUMP JUMPDEST POP PUSH1 0x40 DUP3 ADD MLOAD DUP2 PUSH1 0x2 ADD SWAP1 DUP2 PUSH2 0x1F36 SWAP2 SWAP1 PUSH2 0x43BF JUMP JUMPDEST POP PUSH1 0x60 DUP3 ADD MLOAD DUP2 PUSH1 0x3 ADD SSTORE PUSH1 0x80 DUP3 ADD MLOAD DUP2 PUSH1 0x4 ADD PUSH1 0x0 PUSH2 0x100 EXP DUP2 SLOAD DUP2 PUSH1 0xFF MUL NOT AND SWAP1 DUP4 ISZERO ISZERO MUL OR SWAP1 SSTORE POP PUSH1 0xA0 DUP3 ADD MLOAD DUP2 PUSH1 0x5 ADD SWAP1 DUP2 PUSH2 0x1F76 SWAP2 SWAP1 PUSH2 0x43BF JUMP JUMPDEST POP SWAP1 POP POP PUSH1 0x3 CALLER SWAP1 DUP1 PUSH1 0x1 DUP2 SLOAD ADD DUP1 DUP3 SSTORE DUP1 SWAP2 POP POP PUSH1 0x1 SWAP1 SUB SWAP1 PUSH1 0x0 MSTORE PUSH1 0x20 PUSH1 0x0 KECCAK256 ADD PUSH1 0x0 SWAP1 SWAP2 SWAP1 SWAP2 SWAP1 SWAP2 PUSH2 0x100 EXP DUP2 SLOAD DUP2 PUSH20 0xFFFFFFFFFFFFFFFFFFFFFFFFFFFFFFFFFFFFFFFF MUL NOT AND SWAP1 DUP4 PUSH20 0xFFFFFFFFFFFFFFFFFFFFFFFFFFFFFFFFFFFFFFFF AND MUL OR SWAP1 SSTORE POP CALLER PUSH1 0x4 DUP5 PUSH1 0x40 MLOAD PUSH2 0x1FEE SWAP2 SWAP1 PUSH2 0x461E JUMP JUMPDEST SWAP1 DUP2 MSTORE PUSH1 0x20 ADD PUSH1 0x40 MLOAD DUP1 SWAP2 SUB SWAP1 KECCAK256 PUSH1 0x0 PUSH2 0x100 EXP DUP2 SLOAD DUP2 PUSH20 0xFFFFFFFFFFFFFFFFFFFFFFFFFFFFFFFFFFFFFFFF MUL NOT AND SWAP1 DUP4 PUSH20 0xFFFFFFFFFFFFFFFFFFFFFFFFFFFFFFFFFFFFFFFF AND MUL OR SWAP1 SSTORE POP CALLER PUSH20 0xFFFFFFFFFFFFFFFFFFFFFFFFFFFFFFFFFFFFFFFF AND PUSH32 0x78088310123490D67595B7B0E336CB2E2FC0F7DF27DDD8950B8656C84413FB1B DUP7 DUP7 DUP7 DUP7 DUP7 PUSH1 0x40 MLOAD PUSH2 0x2088 SWAP6 SWAP5 SWAP4 SWAP3 SWAP2 SWAP1 PUSH2 0x46A1 JUMP JUMPDEST PUSH1 0x40 MLOAD DUP1 SWAP2 SUB SWAP1 LOG2 POP POP POP POP POP JUMP JUMPDEST PUSH1 0x60 PUSH1 0x0 DUP1 DUP5 DUP2 MSTORE PUSH1 0x20 ADD SWAP1 DUP2 MSTORE PUSH1 0x20 ADD PUSH1 0x0 KECCAK256 PUSH1 0x6 ADD PUSH1 0x0 DUP4 PUSH20 0xFFFFFFFFFFFFFFFFFFFFFFFFFFFFFFFFFFFFFFFF AND PUSH20 0xFFFFFFFFFFFFFFFFFFFFFFFFFFFFFFFFFFFFFFFF AND DUP2 MSTORE PUSH1 0x20 ADD SWAP1 DUP2 MSTORE PUSH1 0x20 ADD PUSH1 0x0 KECCAK256 DUP1 SLOAD PUSH2 0x20F6 SWAP1 PUSH2 0x3F5A JUMP JUMPDEST DUP1 PUSH1 0x1F ADD PUSH1 0x20 DUP1 SWAP2 DIV MUL PUSH1 0x20 ADD PUSH1 0x40 MLOAD SWAP1 DUP2 ADD PUSH1 0x40 MSTORE DUP1 SWAP3 SWAP2 SWAP1 DUP2 DUP2 MSTORE PUSH1 0x20 ADD DUP3 DUP1 SLOAD PUSH2 0x2122 SWAP1 PUSH2 0x3F5A JUMP JUMPDEST DUP1 ISZERO PUSH2 0x216F JUMPI DUP1 PUSH1 0x1F LT PUSH2 0x2144 JUMPI PUSH2 0x100 DUP1 DUP4 SLOAD DIV MUL DUP4 MSTORE SWAP2 PUSH1 0x20 ADD SWAP2 PUSH2 0x216F JUMP JUMPDEST DUP3 ADD SWAP2 SWAP1 PUSH1 0x0 MSTORE PUSH1 0x20 PUSH1 0x0 KECCAK256 SWAP1 JUMPDEST DUP2 SLOAD DUP2 MSTORE SWAP1 PUSH1 0x1 ADD SWAP1 PUSH1 0x20 ADD DUP1 DUP4 GT PUSH2 0x2152 JUMPI DUP3 SWAP1 SUB PUSH1 0x1F AND DUP3 ADD SWAP2 JUMPDEST POP POP POP POP POP SWAP1 POP SWAP3 SWAP2 POP POP JUMP JUMPDEST PUSH1 0x2 PUSH1 0x20 MSTORE DUP1 PUSH1 0x0 MSTORE PUSH1 0x40 PUSH1 0x0 KECCAK256 PUSH1 0x0 SWAP2 POP SWAP1 POP DUP1 PUSH1 0x0 ADD DUP1 SLOAD PUSH2 0x219F SWAP1 PUSH2 0x3F5A JUMP JUMPDEST DUP1 PUSH1 0x1F ADD PUSH1 0x20 DUP1 SWAP2 DIV MUL PUSH1 0x20 ADD PUSH1 0x40 MLOAD SWAP1 DUP2 ADD PUSH1 0x40 MSTORE DUP1 SWAP3 SWAP2 SWAP1 DUP2 DUP2 MSTORE PUSH1 0x20 ADD DUP3 DUP1 SLOAD PUSH2 0x21CB SWAP1 PUSH2 0x3F5A JUMP JUMPDEST DUP1 ISZERO PUSH2 0x2218 JUMPI DUP1 PUSH1 0x1F LT PUSH2 0x21ED JUMPI PUSH2 0x100 DUP1 DUP4 SLOAD DIV MUL DUP4 MSTORE SWAP2 PUSH1 0x20 ADD SWAP2 PUSH2 0x2218 JUMP JUMPDEST DUP3 ADD SWAP2 SWAP1 PUSH1 0x0 MSTORE PUSH1 0x20 PUSH1 0x0 KECCAK256 SWAP1 JUMPDEST DUP2 SLOAD DUP2 MSTORE SWAP1 PUSH1 0x1 ADD SWAP1 PUSH1 0x20 ADD DUP1 DUP4 GT PUSH2 0x21FB JUMPI DUP3 SWAP1 SUB PUSH1 0x1F AND DUP3 ADD SWAP2 JUMPDEST POP POP POP POP POP SWAP1 DUP1 PUSH1 0x1 ADD DUP1 SLOAD PUSH2 0x222D SWAP1 PUSH2 0x3F5A JUMP JUMPDEST DUP1 PUSH1 0x1F ADD PUSH1 0x20 DUP1 SWAP2 DIV MUL PUSH1 0x20 ADD PUSH1 0x40 MLOAD SWAP1 DUP2 ADD PUSH1 0x40 MSTORE DUP1 SWAP3 SWAP2 SWAP1 DUP2 DUP2 MSTORE PUSH1 0x20 ADD DUP3 DUP1 SLOAD PUSH2 0x2259 SWAP1 PUSH2 0x3F5A JUMP JUMPDEST DUP1 ISZERO PUSH2 0x22A6 JUMPI DUP1 PUSH1 0x1F LT PUSH2 0x227B JUMPI PUSH2 0x100 DUP1 DUP4 SLOAD DIV MUL DUP4 MSTORE SWAP2 PUSH1 0x20 ADD SWAP2 PUSH2 0x22A6 JUMP JUMPDEST DUP3 ADD SWAP2 SWAP1 PUSH1 0x0 MSTORE PUSH1 0x20 PUSH1 0x0 KECCAK256 SWAP1 JUMPDEST DUP2 SLOAD DUP2 MSTORE SWAP1 PUSH1 0x1 ADD SWAP1 PUSH1 0x20 ADD DUP1 DUP4 GT PUSH2 0x2289 JUMPI DUP3 SWAP1 SUB PUSH1 0x1F AND DUP3 ADD SWAP2 JUMPDEST POP POP POP POP POP SWAP1 DUP1 PUSH1 0x2 ADD DUP1 SLOAD PUSH2 0x22BB SWAP1 PUSH2 0x3F5A JUMP JUMPDEST DUP1 PUSH1 0x1F ADD PUSH1 0x20 DUP1 SWAP2 DIV MUL PUSH1 0x20 ADD PUSH1 0x40 MLOAD SWAP1 DUP2 ADD PUSH1 0x40 MSTORE DUP1 SWAP3 SWAP2 SWAP1 DUP2 DUP2 MSTORE PUSH1 0x20 ADD DUP3 DUP1 SLOAD PUSH2 0x22E7 SWAP1 PUSH2 0x3F5A JUMP JUMPDEST DUP1 ISZERO PUSH2 0x2334 JUMPI DUP1 PUSH1 0x1F LT PUSH2 0x2309 JUMPI PUSH2 0x100 DUP1 DUP4 SLOAD DIV MUL DUP4 MSTORE SWAP2 PUSH1 0x20 ADD SWAP2 PUSH2 0x2334 JUMP JUMPDEST DUP3 ADD SWAP2 SWAP1 PUSH1 0x0 MSTORE PUSH1 0x20 PUSH1 0x0 KECCAK256 SWAP1 JUMPDEST DUP2 SLOAD DUP2 MSTORE SWAP1 PUSH1 0x1 ADD SWAP1 PUSH1 0x20 ADD DUP1 DUP4 GT PUSH2 0x2317 JUMPI DUP3 SWAP1 SUB PUSH1 0x1F AND DUP3 ADD SWAP2 JUMPDEST POP POP POP POP POP SWAP1 DUP1 PUSH1 0x3 ADD SLOAD SWAP1 DUP1 PUSH1 0x4 ADD PUSH1 0x0 SWAP1 SLOAD SWAP1 PUSH2 0x100 EXP SWAP1 DIV PUSH1 0xFF AND SWAP1 DUP1 PUSH1 0x5 ADD DUP1 SLOAD PUSH2 0x2362 SWAP1 PUSH2 0x3F5A JUMP JUMPDEST DUP1 PUSH1 0x1F ADD PUSH1 0x20 DUP1 SWAP2 DIV MUL PUSH1 0x20 ADD PUSH1 0x40 MLOAD SWAP1 DUP2 ADD PUSH1 0x40 MSTORE DUP1 SWAP3 SWAP2 SWAP1 DUP2 DUP2 MSTORE PUSH1 0x20 ADD DUP3 DUP1 SLOAD PUSH2 0x238E SWAP1 PUSH2 0x3F5A JUMP JUMPDEST DUP1 ISZERO PUSH2 0x23DB JUMPI DUP1 PUSH1 0x1F LT PUSH2 0x23B0 JUMPI PUSH2 0x100 DUP1 DUP4 SLOAD DIV MUL DUP4 MSTORE SWAP2 PUSH1 0x20 ADD SWAP2 PUSH2 0x23DB JUMP JUMPDEST DUP3 ADD SWAP2 SWAP1 PUSH1 0x0 MSTORE PUSH1 0x20 PUSH1 0x0 KECCAK256 SWAP1 JUMPDEST DUP2 SLOAD DUP2 MSTORE SWAP1 PUSH1 0x1 ADD SWAP1 PUSH1 0x20 ADD DUP1 DUP4 GT PUSH2 0x23BE JUMPI DUP3 SWAP1 SUB PUSH1 0x1F AND DUP3 ADD SWAP2 JUMPDEST POP POP POP POP POP SWAP1 POP DUP7 JUMP JUMPDEST DUP3 PUSH1 0x0 DUP1 DUP3 DUP2 MSTORE PUSH1 0x20 ADD SWAP1 DUP2 MSTORE PUSH1 0x20 ADD PUSH1 0x0 KECCAK256 PUSH1 0x9 ADD PUSH1 0x1 SWAP1 SLOAD SWAP1 PUSH2 0x100 EXP SWAP1 DIV PUSH1 0xFF AND PUSH2 0x2448 JUMPI PUSH1 0x40 MLOAD PUSH32 0x8C379A000000000000000000000000000000000000000000000000000000000 DUP2 MSTORE PUSH1 0x4 ADD PUSH2 0x243F SWAP1 PUSH2 0x3B84 JUMP JUMPDEST PUSH1 0x40 MLOAD DUP1 SWAP2 SUB SWAP1 REVERT JUMPDEST PUSH1 0x1 PUSH1 0x2 DUP2 GT ISZERO PUSH2 0x245C JUMPI PUSH2 0x245B PUSH2 0x36E4 JUMP JUMPDEST JUMPDEST PUSH1 0x0 DUP1 DUP4 DUP2 MSTORE PUSH1 0x20 ADD SWAP1 DUP2 MSTORE PUSH1 0x20 ADD PUSH1 0x0 KECCAK256 PUSH1 0x3 ADD PUSH1 0x0 CALLER PUSH20 0xFFFFFFFFFFFFFFFFFFFFFFFFFFFFFFFFFFFFFFFF AND PUSH20 0xFFFFFFFFFFFFFFFFFFFFFFFFFFFFFFFFFFFFFFFF AND DUP2 MSTORE PUSH1 0x20 ADD SWAP1 DUP2 MSTORE PUSH1 0x20 ADD PUSH1 0x0 KECCAK256 PUSH1 0x0 SWAP1 SLOAD SWAP1 PUSH2 0x100 EXP SWAP1 DIV PUSH1 0xFF AND PUSH1 0x2 DUP2 GT ISZERO PUSH2 0x24CE JUMPI PUSH2 0x24CD PUSH2 0x36E4 JUMP JUMPDEST JUMPDEST EQ PUSH2 0x250E JUMPI PUSH1 0x40 MLOAD PUSH32 0x8C379A000000000000000000000000000000000000000000000000000000000 DUP2 MSTORE PUSH1 0x4 ADD PUSH2 0x2505 SWAP1 PUSH2 0x475C JUMP JUMPDEST PUSH1 0x40 MLOAD DUP1 SWAP2 SUB SWAP1 REVERT JUMPDEST DUP4 PUSH1 0x0 DUP1 DUP3 DUP2 MSTORE PUSH1 0x20 ADD SWAP1 DUP2 MSTORE PUSH1 0x20 ADD PUSH1 0x0 KECCAK256 PUSH1 0x9 ADD PUSH1 0x0 SWAP1 SLOAD SWAP1 PUSH2 0x100 EXP SWAP1 DIV PUSH1 0xFF AND ISZERO PUSH2 0x2572 JUMPI PUSH1 0x40 MLOAD PUSH32 0x8C379A000000000000000000000000000000000000000000000000000000000 DUP2 MSTORE PUSH1 0x4 ADD PUSH2 0x2569 SWAP1 PUSH2 0x4043 JUMP JUMPDEST PUSH1 0x40 MLOAD DUP1 SWAP2 SUB SWAP1 REVERT JUMPDEST PUSH1 0x0 DUP1 PUSH1 0x0 DUP8 DUP2 MSTORE PUSH1 0x20 ADD SWAP1 DUP2 MSTORE PUSH1 0x20 ADD PUSH1 0x0 KECCAK256 SWAP1 POP PUSH2 0x2591 DUP7 PUSH2 0x2E95 JUMP JUMPDEST ISZERO PUSH2 0x25D1 JUMPI PUSH1 0x40 MLOAD PUSH32 0x8C379A000000000000000000000000000000000000000000000000000000000 DUP2 MSTORE PUSH1 0x4 ADD PUSH2 0x25C8 SWAP1 PUSH2 0x40AF JUMP JUMPDEST PUSH1 0x40 MLOAD DUP1 SWAP2 SUB SWAP1 REVERT JUMPDEST PUSH1 0x0 PUSH1 0x1 SWAP1 POP PUSH1 0x0 JUMPDEST DUP3 PUSH1 0x2 ADD DUP1 SLOAD SWAP1 POP DUP2 LT ISZERO PUSH2 0x2698 JUMPI DUP3 PUSH1 0x4 ADD PUSH1 0x0 DUP5 PUSH1 0x2 ADD DUP4 DUP2 SLOAD DUP2 LT PUSH2 0x2605 JUMPI PUSH2 0x2604 PUSH2 0x3C07 JUMP JUMPDEST JUMPDEST SWAP1 PUSH1 0x0 MSTORE PUSH1 0x20 PUSH1 0x0 KECCAK256 ADD PUSH1 0x0 SWAP1 SLOAD SWAP1 PUSH2 0x100 EXP SWAP1 DIV PUSH20 0xFFFFFFFFFFFFFFFFFFFFFFFFFFFFFFFFFFFFFFFF AND PUSH20 0xFFFFFFFFFFFFFFFFFFFFFFFFFFFFFFFFFFFFFFFF AND PUSH20 0xFFFFFFFFFFFFFFFFFFFFFFFFFFFFFFFFFFFFFFFF AND DUP2 MSTORE PUSH1 0x20 ADD SWAP1 DUP2 MSTORE PUSH1 0x20 ADD PUSH1 0x0 KECCAK256 PUSH1 0x0 SWAP1 SLOAD SWAP1 PUSH2 0x100 EXP SWAP1 DIV PUSH1 0xFF AND PUSH2 0x2685 JUMPI PUSH1 0x0 SWAP2 POP PUSH2 0x2698 JUMP JUMPDEST DUP1 DUP1 PUSH2 0x2690 SWAP1 PUSH2 0x3EE3 JUMP JUMPDEST SWAP2 POP POP PUSH2 0x25DA JUMP JUMPDEST POP DUP1 ISZERO PUSH2 0x26DA JUMPI PUSH1 0x40 MLOAD PUSH32 0x8C379A000000000000000000000000000000000000000000000000000000000 DUP2 MSTORE PUSH1 0x4 ADD PUSH2 0x26D1 SWAP1 PUSH2 0x47EE JUMP JUMPDEST PUSH1 0x40 MLOAD DUP1 SWAP2 SUB SWAP1 REVERT JUMPDEST PUSH1 0x0 DUP7 MLOAD GT PUSH2 0x271E JUMPI PUSH1 0x40 MLOAD PUSH32 0x8C379A000000000000000000000000000000000000000000000000000000000 DUP2 MSTORE PUSH1 0x4 ADD PUSH2 0x2715 SWAP1 PUSH2 0x485A JUMP JUMPDEST PUSH1 0x40 MLOAD DUP1 SWAP2 SUB SWAP1 REVERT JUMPDEST PUSH1 0x0 DUP6 EQ PUSH2 0x2772 JUMPI TIMESTAMP DUP6 GT PUSH2 0x2768 JUMPI PUSH1 0x40 MLOAD PUSH32 0x8C379A000000000000000000000000000000000000000000000000000000000 DUP2 MSTORE PUSH1 0x4 ADD PUSH2 0x275F SWAP1 PUSH2 0x48C6 JUMP JUMPDEST PUSH1 0x40 MLOAD DUP1 SWAP2 SUB SWAP1 REVERT JUMPDEST DUP5 DUP3 PUSH1 0xA ADD DUP2 SWAP1 SSTORE POP JUMPDEST DUP6 DUP3 PUSH1 0x0 ADD SWAP1 DUP2 PUSH2 0x2783 SWAP2 SWAP1 PUSH2 0x43BF JUMP JUMPDEST POP CALLER PUSH20 0xFFFFFFFFFFFFFFFFFFFFFFFFFFFFFFFFFFFFFFFF AND DUP8 PUSH32 0xD4AF573228B33E73CDFACAC0A74B920C7B511E2FF826FB63A2E0BB5790B54EBC DUP9 TIMESTAMP PUSH1 0x40 MLOAD PUSH2 0x27CD SWAP3 SWAP2 SWAP1 PUSH2 0x48E6 JUMP JUMPDEST PUSH1 0x40 MLOAD DUP1 SWAP2 SUB SWAP1 LOG3 POP POP POP POP POP POP POP JUMP JUMPDEST PUSH1 0x0 DUP1 DUP5 MLOAD GT PUSH2 0x2823 JUMPI PUSH1 0x40 MLOAD PUSH32 0x8C379A000000000000000000000000000000000000000000000000000000000 DUP2 MSTORE PUSH1 0x4 ADD PUSH2 0x281A SWAP1 PUSH2 0x485A JUMP JUMPDEST PUSH1 0x40 MLOAD DUP1 SWAP2 SUB SWAP1 REVERT JUMPDEST PUSH1 0x0 DUP3 EQ DUP1 PUSH2 0x2831 JUMPI POP TIMESTAMP DUP3 GT JUMPDEST PUSH2 0x2870 JUMPI PUSH1 0x40 MLOAD PUSH32 0x8C379A000000000000000000000000000000000000000000000000000000000 DUP2 MSTORE PUSH1 0x4 ADD PUSH2 0x2867 SWAP1 PUSH2 0x48C6 JUMP JUMPDEST PUSH1 0x40 MLOAD DUP1 SWAP2 SUB SWAP1 REVERT JUMPDEST PUSH1 0x1 PUSH1 0x0 DUP2 SLOAD DUP1 SWAP3 SWAP2 SWAP1 PUSH2 0x2883 SWAP1 PUSH2 0x3EE3 JUMP JUMPDEST SWAP2 SWAP1 POP SSTORE POP PUSH1 0x0 DUP1 PUSH1 0x0 PUSH1 0x1 SLOAD DUP2 MSTORE PUSH1 0x20 ADD SWAP1 DUP2 MSTORE PUSH1 0x20 ADD PUSH1 0x0 KECCAK256 SWAP1 POP DUP5 DUP2 PUSH1 0x0 ADD SWAP1 DUP2 PUSH2 0x28B1 SWAP2 SWAP1 PUSH2 0x43BF JUMP JUMPDEST POP CALLER DUP2 PUSH1 0x1 ADD PUSH1 0x0 PUSH2 0x100 EXP DUP2 SLOAD DUP2 PUSH20 0xFFFFFFFFFFFFFFFFFFFFFFFFFFFFFFFFFFFFFFFF MUL NOT AND SWAP1 DUP4 PUSH20 0xFFFFFFFFFFFFFFFFFFFFFFFFFFFFFFFFFFFFFFFF AND MUL OR SWAP1 SSTORE POP TIMESTAMP DUP2 PUSH1 0x7 ADD DUP2 SWAP1 SSTORE POP PUSH1 0x1 DUP2 PUSH1 0x9 ADD PUSH1 0x1 PUSH2 0x100 EXP DUP2 SLOAD DUP2 PUSH1 0xFF MUL NOT AND SWAP1 DUP4 ISZERO ISZERO MUL OR SWAP1 SSTORE POP DUP3 DUP2 PUSH1 0xA ADD DUP2 SWAP1 SSTORE POP PUSH1 0x1 DUP2 PUSH1 0x3 ADD PUSH1 0x0 CALLER PUSH20 0xFFFFFFFFFFFFFFFFFFFFFFFFFFFFFFFFFFFFFFFF AND PUSH20 0xFFFFFFFFFFFFFFFFFFFFFFFFFFFFFFFFFFFFFFFF AND DUP2 MSTORE PUSH1 0x20 ADD SWAP1 DUP2 MSTORE PUSH1 0x20 ADD PUSH1 0x0 KECCAK256 PUSH1 0x0 PUSH2 0x100 EXP DUP2 SLOAD DUP2 PUSH1 0xFF MUL NOT AND SWAP1 DUP4 PUSH1 0x2 DUP2 GT ISZERO PUSH2 0x2989 JUMPI PUSH2 0x2988 PUSH2 0x36E4 JUMP JUMPDEST JUMPDEST MUL OR SWAP1 SSTORE POP PUSH1 0x0 DUP5 MLOAD SUB PUSH2 0x2A6B JUMPI DUP1 PUSH1 0x2 ADD CALLER SWAP1 DUP1 PUSH1 0x1 DUP2 SLOAD ADD DUP1 DUP3 SSTORE DUP1 SWAP2 POP POP PUSH1 0x1 SWAP1 SUB SWAP1 PUSH1 0x0 MSTORE PUSH1 0x20 PUSH1 0x0 KECCAK256 ADD PUSH1 0x0 SWAP1 SWAP2 SWAP1 SWAP2 SWAP1 SWAP2 PUSH2 0x100 EXP DUP2 SLOAD DUP2 PUSH20 0xFFFFFFFFFFFFFFFFFFFFFFFFFFFFFFFFFFFFFFFF MUL NOT AND SWAP1 DUP4 PUSH20 0xFFFFFFFFFFFFFFFFFFFFFFFFFFFFFFFFFFFFFFFF AND MUL OR SWAP1 SSTORE POP PUSH1 0x2 DUP2 PUSH1 0x3 ADD PUSH1 0x0 CALLER PUSH20 0xFFFFFFFFFFFFFFFFFFFFFFFFFFFFFFFFFFFFFFFF AND PUSH20 0xFFFFFFFFFFFFFFFFFFFFFFFFFFFFFFFFFFFFFFFF AND DUP2 MSTORE PUSH1 0x20 ADD SWAP1 DUP2 MSTORE PUSH1 0x20 ADD PUSH1 0x0 KECCAK256 PUSH1 0x0 PUSH2 0x100 EXP DUP2 SLOAD DUP2 PUSH1 0xFF MUL NOT AND SWAP1 DUP4 PUSH1 0x2 DUP2 GT ISZERO PUSH2 0x2A61 JUMPI PUSH2 0x2A60 PUSH2 0x36E4 JUMP JUMPDEST JUMPDEST MUL OR SWAP1 SSTORE POP PUSH2 0x2C18 JUMP JUMPDEST PUSH1 0x0 JUMPDEST DUP5 MLOAD DUP2 LT ISZERO PUSH2 0x2C16 JUMPI PUSH1 0x0 PUSH20 0xFFFFFFFFFFFFFFFFFFFFFFFFFFFFFFFFFFFFFFFF AND DUP6 DUP3 DUP2 MLOAD DUP2 LT PUSH2 0x2AA2 JUMPI PUSH2 0x2AA1 PUSH2 0x3C07 JUMP JUMPDEST JUMPDEST PUSH1 0x20 MUL PUSH1 0x20 ADD ADD MLOAD PUSH20 0xFFFFFFFFFFFFFFFFFFFFFFFFFFFFFFFFFFFFFFFF AND SUB PUSH2 0x2B00 JUMPI PUSH1 0x40 MLOAD PUSH32 0x8C379A000000000000000000000000000000000000000000000000000000000 DUP2 MSTORE PUSH1 0x4 ADD PUSH2 0x2AF7 SWAP1 PUSH2 0x4962 JUMP JUMPDEST PUSH1 0x40 MLOAD DUP1 SWAP2 SUB SWAP1 REVERT JUMPDEST DUP2 PUSH1 0x2 ADD DUP6 DUP3 DUP2 MLOAD DUP2 LT PUSH2 0x2B17 JUMPI PUSH2 0x2B16 PUSH2 0x3C07 JUMP JUMPDEST JUMPDEST PUSH1 0x20 MUL PUSH1 0x20 ADD ADD MLOAD SWAP1 DUP1 PUSH1 0x1 DUP2 SLOAD ADD DUP1 DUP3 SSTORE DUP1 SWAP2 POP POP PUSH1 0x1 SWAP1 SUB SWAP1 PUSH1 0x0 MSTORE PUSH1 0x20 PUSH1 0x0 KECCAK256 ADD PUSH1 0x0 SWAP1 SWAP2 SWAP1 SWAP2 SWAP1 SWAP2 PUSH2 0x100 EXP DUP2 SLOAD DUP2 PUSH20 0xFFFFFFFFFFFFFFFFFFFFFFFFFFFFFFFFFFFFFFFF MUL NOT AND SWAP1 DUP4 PUSH20 0xFFFFFFFFFFFFFFFFFFFFFFFFFFFFFFFFFFFFFFFF AND MUL OR SWAP1 SSTORE POP PUSH1 0x2 DUP3 PUSH1 0x3 ADD PUSH1 0x0 DUP8 DUP5 DUP2 MLOAD DUP2 LT PUSH2 0x2B9A JUMPI PUSH2 0x2B99 PUSH2 0x3C07 JUMP JUMPDEST JUMPDEST PUSH1 0x20 MUL PUSH1 0x20 ADD ADD MLOAD PUSH20 0xFFFFFFFFFFFFFFFFFFFFFFFFFFFFFFFFFFFFFFFF AND PUSH20 0xFFFFFFFFFFFFFFFFFFFFFFFFFFFFFFFFFFFFFFFF AND DUP2 MSTORE PUSH1 0x20 ADD SWAP1 DUP2 MSTORE PUSH1 0x20 ADD PUSH1 0x0 KECCAK256 PUSH1 0x0 PUSH2 0x100 EXP DUP2 SLOAD DUP2 PUSH1 0xFF MUL NOT AND SWAP1 DUP4 PUSH1 0x2 DUP2 GT ISZERO PUSH2 0x2BFE JUMPI PUSH2 0x2BFD PUSH2 0x36E4 JUMP JUMPDEST JUMPDEST MUL OR SWAP1 SSTORE POP DUP1 DUP1 PUSH2 0x2C0E SWAP1 PUSH2 0x3EE3 JUMP JUMPDEST SWAP2 POP POP PUSH2 0x2A6E JUMP JUMPDEST POP JUMPDEST CALLER PUSH20 0xFFFFFFFFFFFFFFFFFFFFFFFFFFFFFFFFFFFFFFFF AND PUSH1 0x1 SLOAD PUSH32 0xF34F336D6E1CC231D161403DD583F287C90D4E144120937A223D9531AFE848C DUP8 DUP5 PUSH1 0x2 ADD TIMESTAMP PUSH1 0x40 MLOAD PUSH2 0x2C68 SWAP4 SWAP3 SWAP2 SWAP1 PUSH2 0x4A6E JUMP JUMPDEST PUSH1 0x40 MLOAD DUP1 SWAP2 SUB SWAP1 LOG3 PUSH1 0x1 SLOAD SWAP2 POP POP SWAP4 SWAP3 POP POP POP JUMP JUMPDEST DUP2 PUSH1 0x0 DUP1 DUP3 DUP2 MSTORE PUSH1 0x20 ADD SWAP1 DUP2 MSTORE PUSH1 0x20 ADD PUSH1 0x0 KECCAK256 PUSH1 0x9 ADD PUSH1 0x1 SWAP1 SLOAD SWAP1 PUSH2 0x100 EXP SWAP1 DIV PUSH1 0xFF AND PUSH2 0x2CE0 JUMPI PUSH1 0x40 MLOAD PUSH32 0x8C379A000000000000000000000000000000000000000000000000000000000 DUP2 MSTORE PUSH1 0x4 ADD PUSH2 0x2CD7 SWAP1 PUSH2 0x3B84 JUMP JUMPDEST PUSH1 0x40 MLOAD DUP1 SWAP2 SUB SWAP1 REVERT JUMPDEST PUSH1 0x1 PUSH1 0x2 DUP2 GT ISZERO PUSH2 0x2CF4 JUMPI PUSH2 0x2CF3 PUSH2 0x36E4 JUMP JUMPDEST JUMPDEST PUSH1 0x0 DUP1 DUP4 DUP2 MSTORE PUSH1 0x20 ADD SWAP1 DUP2 MSTORE PUSH1 0x20 ADD PUSH1 0x0 KECCAK256 PUSH1 0x3 ADD PUSH1 0x0 CALLER PUSH20 0xFFFFFFFFFFFFFFFFFFFFFFFFFFFFFFFFFFFFFFFF AND PUSH20 0xFFFFFFFFFFFFFFFFFFFFFFFFFFFFFFFFFFFFFFFF AND DUP2 MSTORE PUSH1 0x20 ADD SWAP1 DUP2 MSTORE PUSH1 0x20 ADD PUSH1 0x0 KECCAK256 PUSH1 0x0 SWAP1 SLOAD SWAP1 PUSH2 0x100 EXP SWAP1 DIV PUSH1 0xFF AND PUSH1 0x2 DUP2 GT ISZERO PUSH2 0x2D66 JUMPI PUSH2 0x2D65 PUSH2 0x36E4 JUMP JUMPDEST JUMPDEST EQ PUSH2 0x2DA6 JUMPI PUSH1 0x40 MLOAD PUSH32 0x8C379A000000000000000000000000000000000000000000000000000000000 DUP2 MSTORE PUSH1 0x4 ADD PUSH2 0x2D9D SWAP1 PUSH2 0x475C JUMP JUMPDEST PUSH1 0x40 MLOAD DUP1 SWAP2 SUB SWAP1 REVERT JUMPDEST DUP3 PUSH1 0x0 DUP1 DUP3 DUP2 MSTORE PUSH1 0x20 ADD SWAP1 DUP2 MSTORE PUSH1 0x20 ADD PUSH1 0x0 KECCAK256 PUSH1 0x9 ADD PUSH1 0x0 SWAP1 SLOAD SWAP1 PUSH2 0x100 EXP SWAP1 DIV PUSH1 0xFF AND ISZERO PUSH2 0x2E0A JUMPI PUSH1 0x40 MLOAD PUSH32 0x8C379A000000000000000000000000000000000000000000000000000000000 DUP2 MSTORE PUSH1 0x4 ADD PUSH2 0x2E01 SWAP1 PUSH2 0x4043 JUMP JUMPDEST PUSH1 0x40 MLOAD DUP1 SWAP2 SUB SWAP1 REVERT JUMPDEST PUSH1 0x0 DUP1 PUSH1 0x0 DUP7 DUP2 MSTORE PUSH1 0x20 ADD SWAP1 DUP2 MSTORE PUSH1 0x20 ADD PUSH1 0x0 KECCAK256 SWAP1 POP PUSH1 0x1 DUP2 PUSH1 0x9 ADD PUSH1 0x0 PUSH2 0x100 EXP DUP2 SLOAD DUP2 PUSH1 0xFF MUL NOT AND SWAP1 DUP4 ISZERO ISZERO MUL OR SWAP1 SSTORE POP CALLER PUSH20 0xFFFFFFFFFFFFFFFFFFFFFFFFFFFFFFFFFFFFFFFF AND DUP6 PUSH32 0x7A58FF517C00037031F8886D9305CEC9B4A44D1C1A04FC2EF4D7A5D7A09EEDE5 TIMESTAMP DUP8 PUSH1 0x40 MLOAD PUSH2 0x2E86 SWAP3 SWAP2 SWAP1 PUSH2 0x4491 JUMP JUMPDEST PUSH1 0x40 MLOAD DUP1 SWAP2 SUB SWAP1 LOG3 POP POP POP POP POP JUMP JUMPDEST PUSH1 0x0 DUP1 PUSH1 0x0 DUP1 DUP5 DUP2 MSTORE PUSH1 0x20 ADD SWAP1 DUP2 MSTORE PUSH1 0x20 ADD PUSH1 0x0 KECCAK256 SWAP1 POP PUSH1 0x0 DUP2 PUSH1 0xA ADD SLOAD EQ ISZERO DUP1 ISZERO PUSH2 0x2EC4 JUMPI POP DUP1 PUSH1 0xA ADD SLOAD TIMESTAMP GT JUMPDEST SWAP2 POP POP SWAP2 SWAP1 POP JUMP JUMPDEST PUSH1 0x0 DUP1 PUSH1 0x0 DUP1 DUP5 DUP2 MSTORE PUSH1 0x20 ADD SWAP1 DUP2 MSTORE PUSH1 0x20 ADD PUSH1 0x0 KECCAK256 SWAP1 POP DUP1 PUSH1 0x9 ADD PUSH1 0x1 SWAP1 SLOAD SWAP1 PUSH2 0x100 EXP SWAP1 DIV PUSH1 0xFF AND PUSH2 0x2F34 JUMPI PUSH1 0x40 MLOAD PUSH32 0x8C379A000000000000000000000000000000000000000000000000000000000 DUP2 MSTORE PUSH1 0x4 ADD PUSH2 0x2F2B SWAP1 PUSH2 0x3B84 JUMP JUMPDEST PUSH1 0x40 MLOAD DUP1 SWAP2 SUB SWAP1 REVERT JUMPDEST DUP1 PUSH1 0x2 ADD DUP1 SLOAD SWAP1 POP DUP2 PUSH1 0xB ADD SLOAD LT ISZERO PUSH2 0x2F94 JUMPI DUP1 PUSH1 0x2 ADD DUP2 PUSH1 0xB ADD SLOAD DUP2 SLOAD DUP2 LT PUSH2 0x2F61 JUMPI PUSH2 0x2F60 PUSH2 0x3C07 JUMP JUMPDEST JUMPDEST SWAP1 PUSH1 0x0 MSTORE PUSH1 0x20 PUSH1 0x0 KECCAK256 ADD PUSH1 0x0 SWAP1 SLOAD SWAP1 PUSH2 0x100 EXP SWAP1 DIV PUSH20 0xFFFFFFFFFFFFFFFFFFFFFFFFFFFFFFFFFFFFFFFF AND SWAP2 POP POP PUSH2 0x2F9A JUMP JUMPDEST PUSH1 0x0 SWAP2 POP POP JUMPDEST SWAP2 SWAP1 POP JUMP JUMPDEST PUSH1 0x4 DUP2 DUP1 MLOAD PUSH1 0x20 DUP2 ADD DUP3 ADD DUP1 MLOAD DUP5 DUP3 MSTORE PUSH1 0x20 DUP4 ADD PUSH1 0x20 DUP6 ADD KECCAK256 DUP2 DUP4 MSTORE DUP1 SWAP6 POP POP POP POP POP POP PUSH1 0x0 SWAP2 POP SLOAD SWAP1 PUSH2 0x100 EXP SWAP1 DIV PUSH20 0xFFFFFFFFFFFFFFFFFFFFFFFFFFFFFFFFFFFFFFFF AND DUP2 JUMP JUMPDEST PUSH1 0x0 PUSH1 0x40 MLOAD SWAP1 POP SWAP1 JUMP JUMPDEST PUSH1 0x0 DUP1 REVERT JUMPDEST PUSH1 0x0 DUP1 REVERT JUMPDEST PUSH1 0x0 DUP2 SWAP1 POP SWAP2 SWAP1 POP JUMP JUMPDEST PUSH2 0x300F DUP2 PUSH2 0x2FFC JUMP JUMPDEST DUP2 EQ PUSH2 0x301A JUMPI PUSH1 0x0 DUP1 REVERT JUMPDEST POP JUMP JUMPDEST PUSH1 0x0 DUP2 CALLDATALOAD SWAP1 POP PUSH2 0x302C DUP2 PUSH2 0x3006 JUMP JUMPDEST SWAP3 SWAP2 POP POP JUMP JUMPDEST PUSH1 0x0 PUSH20 0xFFFFFFFFFFFFFFFFFFFFFFFFFFFFFFFFFFFFFFFF DUP3 AND SWAP1 POP SWAP2 SWAP1 POP JUMP JUMPDEST PUSH1 0x0 PUSH2 0x305D DUP3 PUSH2 0x3032 JUMP JUMPDEST SWAP1 POP SWAP2 SWAP1 POP JUMP JUMPDEST PUSH2 0x306D DUP2 PUSH2 0x3052 JUMP JUMPDEST DUP2 EQ PUSH2 0x3078 JUMPI PUSH1 0x0 DUP1 REVERT JUMPDEST POP JUMP JUMPDEST PUSH1 0x0 DUP2 CALLDATALOAD SWAP1 POP PUSH2 0x308A DUP2 PUSH2 0x3064 JUMP JUMPDEST SWAP3 SWAP2 POP POP JUMP JUMPDEST PUSH1 0x0 DUP1 PUSH1 0x40 DUP4 DUP6 SUB SLT ISZERO PUSH2 0x30A7 JUMPI PUSH2 0x30A6 PUSH2 0x2FF2 JUMP JUMPDEST JUMPDEST PUSH1 0x0 PUSH2 0x30B5 DUP6 DUP3 DUP7 ADD PUSH2 0x301D JUMP JUMPDEST SWAP3 POP POP PUSH1 0x20 PUSH2 0x30C6 DUP6 DUP3 DUP7 ADD PUSH2 0x307B JUMP JUMPDEST SWAP2 POP POP SWAP3 POP SWAP3 SWAP1 POP JUMP JUMPDEST PUSH2 0x30D9 DUP2 PUSH2 0x2FFC JUMP JUMPDEST DUP3 MSTORE POP POP JUMP JUMPDEST PUSH1 0x0 PUSH1 0x20 DUP3 ADD SWAP1 POP PUSH2 0x30F4 PUSH1 0x0 DUP4 ADD DUP5 PUSH2 0x30D0 JUMP JUMPDEST SWAP3 SWAP2 POP POP JUMP JUMPDEST PUSH1 0x0 PUSH1 0x20 DUP3 DUP5 SUB SLT ISZERO PUSH2 0x3110 JUMPI PUSH2 0x310F PUSH2 0x2FF2 JUMP JUMPDEST JUMPDEST PUSH1 0x0 PUSH2 0x311E DUP5 DUP3 DUP6 ADD PUSH2 0x301D JUMP JUMPDEST SWAP2 POP POP SWAP3 SWAP2 POP POP JUMP JUMPDEST PUSH1 0x0 DUP2 ISZERO ISZERO SWAP1 POP SWAP2 SWAP1 POP JUMP JUMPDEST PUSH2 0x313C DUP2 PUSH2 0x3127 JUMP JUMPDEST DUP3 MSTORE POP POP JUMP JUMPDEST PUSH1 0x0 PUSH1 0x80 DUP3 ADD SWAP1 POP PUSH2 0x3157 PUSH1 0x0 DUP4 ADD DUP8 PUSH2 0x30D0 JUMP JUMPDEST PUSH2 0x3164 PUSH1 0x20 DUP4 ADD DUP7 PUSH2 0x3133 JUMP JUMPDEST PUSH2 0x3171 PUSH1 0x40 DUP4 ADD DUP6 PUSH2 0x30D0 JUMP JUMPDEST PUSH2 0x317E PUSH1 0x60 DUP4 ADD DUP5 PUSH2 0x3133 JUMP JUMPDEST SWAP6 SWAP5 POP POP POP POP POP JUMP JUMPDEST PUSH1 0x0 PUSH1 0x20 DUP3 ADD SWAP1 POP PUSH2 0x319C PUSH1 0x0 DUP4 ADD DUP5 PUSH2 0x3133 JUMP JUMPDEST SWAP3 SWAP2 POP POP JUMP JUMPDEST PUSH1 0x0 DUP2 SWAP1 POP SWAP2 SWAP1 POP JUMP JUMPDEST PUSH2 0x31B5 DUP2 PUSH2 0x31A2 JUMP JUMPDEST DUP2 EQ PUSH2 0x31C0 JUMPI PUSH1 0x0 DUP1 REVERT JUMPDEST POP JUMP JUMPDEST PUSH1 0x0 DUP2 CALLDATALOAD SWAP1 POP PUSH2 0x31D2 DUP2 PUSH2 0x31AC JUMP JUMPDEST SWAP3 SWAP2 POP POP JUMP JUMPDEST PUSH1 0x0 DUP1 REVERT JUMPDEST PUSH1 0x0 DUP1 REVERT JUMPDEST PUSH1 0x0 PUSH1 0x1F NOT PUSH1 0x1F DUP4 ADD AND SWAP1 POP SWAP2 SWAP1 POP JUMP JUMPDEST PUSH32 0x4E487B7100000000000000000000000000000000000000000000000000000000 PUSH1 0x0 MSTORE PUSH1 0x41 PUSH1 0x4 MSTORE PUSH1 0x24 PUSH1 0x0 REVERT JUMPDEST PUSH2 0x322B DUP3 PUSH2 0x31E2 JUMP JUMPDEST DUP2 ADD DUP2 DUP2 LT PUSH8 0xFFFFFFFFFFFFFFFF DUP3 GT OR ISZERO PUSH2 0x324A JUMPI PUSH2 0x3249 PUSH2 0x31F3 JUMP JUMPDEST JUMPDEST DUP1 PUSH1 0x40 MSTORE POP POP POP JUMP JUMPDEST PUSH1 0x0 PUSH2 0x325D PUSH2 0x2FE8 JUMP JUMPDEST SWAP1 POP PUSH2 0x3269 DUP3 DUP3 PUSH2 0x3222 JUMP JUMPDEST SWAP2 SWAP1 POP JUMP JUMPDEST PUSH1 0x0 PUSH8 0xFFFFFFFFFFFFFFFF DUP3 GT ISZERO PUSH2 0x3289 JUMPI PUSH2 0x3288 PUSH2 0x31F3 JUMP JUMPDEST JUMPDEST PUSH2 0x3292 DUP3 PUSH2 0x31E2 JUMP JUMPDEST SWAP1 POP PUSH1 0x20 DUP2 ADD SWAP1 POP SWAP2 SWAP1 POP JUMP JUMPDEST DUP3 DUP2 DUP4 CALLDATACOPY PUSH1 0x0 DUP4 DUP4 ADD MSTORE POP POP POP JUMP JUMPDEST PUSH1 0x0 PUSH2 0x32C1 PUSH2 0x32BC DUP5 PUSH2 0x326E JUMP JUMPDEST PUSH2 0x3253 JUMP JUMPDEST SWAP1 POP DUP3 DUP2 MSTORE PUSH1 0x20 DUP2 ADD DUP5 DUP5 DUP5 ADD GT ISZERO PUSH2 0x32DD JUMPI PUSH2 0x32DC PUSH2 0x31DD JUMP JUMPDEST JUMPDEST PUSH2 0x32E8 DUP5 DUP3 DUP6 PUSH2 0x329F JUMP JUMPDEST POP SWAP4 SWAP3 POP POP POP JUMP JUMPDEST PUSH1 0x0 DUP3 PUSH1 0x1F DUP4 ADD SLT PUSH2 0x3305 JUMPI PUSH2 0x3304 PUSH2 0x31D8 JUMP JUMPDEST JUMPDEST DUP2 CALLDATALOAD PUSH2 0x3315 DUP5 DUP3 PUSH1 0x20 DUP7 ADD PUSH2 0x32AE JUMP JUMPDEST SWAP2 POP POP SWAP3 SWAP2 POP POP JUMP JUMPDEST PUSH1 0x0 DUP1 PUSH1 0x0 DUP1 PUSH1 0x80 DUP6 DUP8 SUB SLT ISZERO PUSH2 0x3338 JUMPI PUSH2 0x3337 PUSH2 0x2FF2 JUMP JUMPDEST JUMPDEST PUSH1 0x0 PUSH2 0x3346 DUP8 DUP3 DUP9 ADD PUSH2 0x301D JUMP JUMPDEST SWAP5 POP POP PUSH1 0x20 PUSH2 0x3357 DUP8 DUP3 DUP9 ADD PUSH2 0x307B JUMP JUMPDEST SWAP4 POP POP PUSH1 0x40 PUSH2 0x3368 DUP8 DUP3 DUP9 ADD PUSH2 0x31C3 JUMP JUMPDEST SWAP3 POP POP PUSH1 0x60 DUP6 ADD CALLDATALOAD PUSH8 0xFFFFFFFFFFFFFFFF DUP2 GT ISZERO PUSH2 0x3389 JUMPI PUSH2 0x3388 PUSH2 0x2FF7 JUMP JUMPDEST JUMPDEST PUSH2 0x3395 DUP8 DUP3 DUP9 ADD PUSH2 0x32F0 JUMP JUMPDEST SWAP2 POP POP SWAP3 SWAP6 SWAP2 SWAP5 POP SWAP3 POP JUMP JUMPDEST PUSH1 0x0 DUP2 MLOAD SWAP1 POP SWAP2 SWAP1 POP JUMP JUMPDEST PUSH1 0x0 DUP3 DUP3 MSTORE PUSH1 0x20 DUP3 ADD SWAP1 POP SWAP3 SWAP2 POP POP JUMP JUMPDEST PUSH1 0x0 DUP2 SWAP1 POP PUSH1 0x20 DUP3 ADD SWAP1 POP SWAP2 SWAP1 POP JUMP JUMPDEST PUSH2 0x33D6 DUP2 PUSH2 0x3052 JUMP JUMPDEST DUP3 MSTORE POP POP JUMP JUMPDEST PUSH1 0x0 PUSH2 0x33E8 DUP4 DUP4 PUSH2 0x33CD JUMP JUMPDEST PUSH1 0x20 DUP4 ADD SWAP1 POP SWAP3 SWAP2 POP POP JUMP JUMPDEST PUSH1 0x0 PUSH1 0x20 DUP3 ADD SWAP1 POP SWAP2 SWAP1 POP JUMP JUMPDEST PUSH1 0x0 PUSH2 0x340C DUP3 PUSH2 0x33A1 JUMP JUMPDEST PUSH2 0x3416 DUP2 DUP6 PUSH2 0x33AC JUMP JUMPDEST SWAP4 POP PUSH2 0x3421 DUP4 PUSH2 0x33BD JUMP JUMPDEST DUP1 PUSH1 0x0 JUMPDEST DUP4 DUP2 LT ISZERO PUSH2 0x3452 JUMPI DUP2 MLOAD PUSH2 0x3439 DUP9 DUP3 PUSH2 0x33DC JUMP JUMPDEST SWAP8 POP PUSH2 0x3444 DUP4 PUSH2 0x33F4 JUMP JUMPDEST SWAP3 POP POP PUSH1 0x1 DUP2 ADD SWAP1 POP PUSH2 0x3425 JUMP JUMPDEST POP DUP6 SWAP4 POP POP POP POP SWAP3 SWAP2 POP POP JUMP JUMPDEST PUSH1 0x0 PUSH1 0x20 DUP3 ADD SWAP1 POP DUP2 DUP2 SUB PUSH1 0x0 DUP4 ADD MSTORE PUSH2 0x3479 DUP2 DUP5 PUSH2 0x3401 JUMP JUMPDEST SWAP1 POP SWAP3 SWAP2 POP POP JUMP JUMPDEST PUSH1 0x0 DUP2 MLOAD SWAP1 POP SWAP2 SWAP1 POP JUMP JUMPDEST PUSH1 0x0 DUP3 DUP3 MSTORE PUSH1 0x20 DUP3 ADD SWAP1 POP SWAP3 SWAP2 POP POP JUMP JUMPDEST PUSH1 0x0 JUMPDEST DUP4 DUP2 LT ISZERO PUSH2 0x34BB JUMPI DUP1 DUP3 ADD MLOAD DUP2 DUP5 ADD MSTORE PUSH1 0x20 DUP2 ADD SWAP1 POP PUSH2 0x34A0 JUMP JUMPDEST PUSH1 0x0 DUP5 DUP5 ADD MSTORE POP POP POP POP JUMP JUMPDEST PUSH1 0x0 PUSH2 0x34D2 DUP3 PUSH2 0x3481 JUMP JUMPDEST PUSH2 0x34DC DUP2 DUP6 PUSH2 0x348C JUMP JUMPDEST SWAP4 POP PUSH2 0x34EC DUP2 DUP6 PUSH1 0x20 DUP7 ADD PUSH2 0x349D JUMP JUMPDEST PUSH2 0x34F5 DUP2 PUSH2 0x31E2 JUMP JUMPDEST DUP5 ADD SWAP2 POP POP SWAP3 SWAP2 POP POP JUMP JUMPDEST PUSH2 0x3509 DUP2 PUSH2 0x3052 JUMP JUMPDEST DUP3 MSTORE POP POP JUMP JUMPDEST PUSH1 0x0 PUSH1 0xE0 DUP3 ADD SWAP1 POP DUP2 DUP2 SUB PUSH1 0x0 DUP4 ADD MSTORE PUSH2 0x3529 DUP2 DUP11 PUSH2 0x34C7 JUMP JUMPDEST SWAP1 POP PUSH2 0x3538 PUSH1 0x20 DUP4 ADD DUP10 PUSH2 0x3500 JUMP JUMPDEST DUP2 DUP2 SUB PUSH1 0x40 DUP4 ADD MSTORE PUSH2 0x354A DUP2 DUP9 PUSH2 0x3401 JUMP JUMPDEST SWAP1 POP PUSH2 0x3559 PUSH1 0x60 DUP4 ADD DUP8 PUSH2 0x30D0 JUMP JUMPDEST PUSH2 0x3566 PUSH1 0x80 DUP4 ADD DUP7 PUSH2 0x30D0 JUMP JUMPDEST PUSH2 0x3573 PUSH1 0xA0 DUP4 ADD DUP6 PUSH2 0x3133 JUMP JUMPDEST PUSH2 0x3580 PUSH1 0xC0 DUP4 ADD DUP5 PUSH2 0x3133 JUMP JUMPDEST SWAP9 SWAP8 POP POP POP POP POP POP POP POP JUMP JUMPDEST PUSH1 0x0 DUP1 PUSH1 0x40 DUP4 DUP6 SUB SLT ISZERO PUSH2 0x35A3 JUMPI PUSH2 0x35A2 PUSH2 0x2FF2 JUMP JUMPDEST JUMPDEST PUSH1 0x0 PUSH2 0x35B1 DUP6 DUP3 DUP7 ADD PUSH2 0x307B JUMP JUMPDEST SWAP3 POP POP PUSH1 0x20 PUSH2 0x35C2 DUP6 DUP3 DUP7 ADD PUSH2 0x301D JUMP JUMPDEST SWAP2 POP POP SWAP3 POP SWAP3 SWAP1 POP JUMP JUMPDEST PUSH1 0x0 PUSH8 0xFFFFFFFFFFFFFFFF DUP3 GT ISZERO PUSH2 0x35E7 JUMPI PUSH2 0x35E6 PUSH2 0x31F3 JUMP JUMPDEST JUMPDEST PUSH2 0x35F0 DUP3 PUSH2 0x31E2 JUMP JUMPDEST SWAP1 POP PUSH1 0x20 DUP2 ADD SWAP1 POP SWAP2 SWAP1 POP JUMP JUMPDEST PUSH1 0x0 PUSH2 0x3610 PUSH2 0x360B DUP5 PUSH2 0x35CC JUMP JUMPDEST PUSH2 0x3253 JUMP JUMPDEST SWAP1 POP DUP3 DUP2 MSTORE PUSH1 0x20 DUP2 ADD DUP5 DUP5 DUP5 ADD GT ISZERO PUSH2 0x362C JUMPI PUSH2 0x362B PUSH2 0x31DD JUMP JUMPDEST JUMPDEST PUSH2 0x3637 DUP5 DUP3 DUP6 PUSH2 0x329F JUMP JUMPDEST POP SWAP4 SWAP3 POP POP POP JUMP JUMPDEST PUSH1 0x0 DUP3 PUSH1 0x1F DUP4 ADD SLT PUSH2 0x3654 JUMPI PUSH2 0x3653 PUSH2 0x31D8 JUMP JUMPDEST JUMPDEST DUP2 CALLDATALOAD PUSH2 0x3664 DUP5 DUP3 PUSH1 0x20 DUP7 ADD PUSH2 0x35FD JUMP JUMPDEST SWAP2 POP POP SWAP3 SWAP2 POP POP JUMP JUMPDEST PUSH1 0x0 DUP1 PUSH1 0x40 DUP4 DUP6 SUB SLT ISZERO PUSH2 0x3684 JUMPI PUSH2 0x3683 PUSH2 0x2FF2 JUMP JUMPDEST JUMPDEST PUSH1 0x0 PUSH2 0x3692 DUP6 DUP3 DUP7 ADD PUSH2 0x301D JUMP JUMPDEST SWAP3 POP POP PUSH1 0x20 DUP4 ADD CALLDATALOAD PUSH8 0xFFFFFFFFFFFFFFFF DUP2 GT ISZERO PUSH2 0x36B3 JUMPI PUSH2 0x36B2 PUSH2 0x2FF7 JUMP JUMPDEST JUMPDEST PUSH2 0x36BF DUP6 DUP3 DUP7 ADD PUSH2 0x363F JUMP JUMPDEST SWAP2 POP POP SWAP3 POP SWAP3 SWAP1 POP JUMP JUMPDEST PUSH1 0x0 PUSH1 0x20 DUP3 ADD SWAP1 POP PUSH2 0x36DE PUSH1 0x0 DUP4 ADD DUP5 PUSH2 0x3500 JUMP JUMPDEST SWAP3 SWAP2 POP POP JUMP JUMPDEST PUSH32 0x4E487B7100000000000000000000000000000000000000000000000000000000 PUSH1 0x0 MSTORE PUSH1 0x21 PUSH1 0x4 MSTORE PUSH1 0x24 PUSH1 0x0 REVERT JUMPDEST PUSH1 0x3 DUP2 LT PUSH2 0x3724 JUMPI PUSH2 0x3723 PUSH2 0x36E4 JUMP JUMPDEST JUMPDEST POP JUMP JUMPDEST PUSH1 0x0 DUP2 SWAP1 POP PUSH2 0x3735 DUP3 PUSH2 0x3713 JUMP JUMPDEST SWAP2 SWAP1 POP JUMP JUMPDEST PUSH1 0x0 PUSH2 0x3745 DUP3 PUSH2 0x3727 JUMP JUMPDEST SWAP1 POP SWAP2 SWAP1 POP JUMP JUMPDEST PUSH2 0x3755 DUP2 PUSH2 0x373A JUMP JUMPDEST DUP3 MSTORE POP POP JUMP JUMPDEST PUSH1 0x0 PUSH1 0x20 DUP3 ADD SWAP1 POP PUSH2 0x3770 PUSH1 0x0 DUP4 ADD DUP5 PUSH2 0x374C JUMP JUMPDEST SWAP3 SWAP2 POP POP JUMP JUMPDEST PUSH1 0x0 PUSH1 0x20 DUP3 DUP5 SUB SLT ISZERO PUSH2 0x378C JUMPI PUSH2 0x378B PUSH2 0x2FF2 JUMP JUMPDEST JUMPDEST PUSH1 0x0 PUSH2 0x379A DUP5 DUP3 DUP6 ADD PUSH2 0x307B JUMP JUMPDEST SWAP2 POP POP SWAP3 SWAP2 POP POP JUMP JUMPDEST PUSH1 0x0 PUSH1 0xC0 DUP3 ADD SWAP1 POP DUP2 DUP2 SUB PUSH1 0x0 DUP4 ADD MSTORE PUSH2 0x37BD DUP2 DUP10 PUSH2 0x34C7 JUMP JUMPDEST SWAP1 POP DUP2 DUP2 SUB PUSH1 0x20 DUP4 ADD MSTORE PUSH2 0x37D1 DUP2 DUP9 PUSH2 0x34C7 JUMP JUMPDEST SWAP1 POP DUP2 DUP2 SUB PUSH1 0x40 DUP4 ADD MSTORE PUSH2 0x37E5 DUP2 DUP8 PUSH2 0x34C7 JUMP JUMPDEST SWAP1 POP PUSH2 0x37F4 PUSH1 0x60 DUP4 ADD DUP7 PUSH2 0x30D0 JUMP JUMPDEST PUSH2 0x3801 PUSH1 0x80 DUP4 ADD DUP6 PUSH2 0x3133 JUMP JUMPDEST DUP2 DUP2 SUB PUSH1 0xA0 DUP4 ADD MSTORE PUSH2 0x3813 DUP2 DUP5 PUSH2 0x34C7 JUMP JUMPDEST SWAP1 POP SWAP8 SWAP7 POP POP POP POP POP POP POP JUMP JUMPDEST PUSH1 0x0 DUP1 PUSH1 0x0 DUP1 PUSH1 0x0 PUSH1 0xA0 DUP7 DUP9 SUB SLT ISZERO PUSH2 0x383C JUMPI PUSH2 0x383B PUSH2 0x2FF2 JUMP JUMPDEST JUMPDEST PUSH1 0x0 DUP7 ADD CALLDATALOAD PUSH8 0xFFFFFFFFFFFFFFFF DUP2 GT ISZERO PUSH2 0x385A JUMPI PUSH2 0x3859 PUSH2 0x2FF7 JUMP JUMPDEST JUMPDEST PUSH2 0x3866 DUP9 DUP3 DUP10 ADD PUSH2 0x363F JUMP JUMPDEST SWAP6 POP POP PUSH1 0x20 DUP7 ADD CALLDATALOAD PUSH8 0xFFFFFFFFFFFFFFFF DUP2 GT ISZERO PUSH2 0x3887 JUMPI PUSH2 0x3886 PUSH2 0x2FF7 JUMP JUMPDEST JUMPDEST PUSH2 0x3893 DUP9 DUP3 DUP10 ADD PUSH2 0x363F JUMP JUMPDEST SWAP5 POP POP PUSH1 0x40 DUP7 ADD CALLDATALOAD PUSH8 0xFFFFFFFFFFFFFFFF DUP2 GT ISZERO PUSH2 0x38B4 JUMPI PUSH2 0x38B3 PUSH2 0x2FF7 JUMP JUMPDEST JUMPDEST PUSH2 0x38C0 DUP9 DUP3 DUP10 ADD PUSH2 0x363F JUMP JUMPDEST SWAP4 POP POP PUSH1 0x60 PUSH2 0x38D1 DUP9 DUP3 DUP10 ADD PUSH2 0x301D JUMP JUMPDEST SWAP3 POP POP PUSH1 0x80 DUP7 ADD CALLDATALOAD PUSH8 0xFFFFFFFFFFFFFFFF DUP2 GT ISZERO PUSH2 0x38F2 JUMPI PUSH2 0x38F1 PUSH2 0x2FF7 JUMP JUMPDEST JUMPDEST PUSH2 0x38FE DUP9 DUP3 DUP10 ADD PUSH2 0x363F JUMP JUMPDEST SWAP2 POP POP SWAP3 SWAP6 POP SWAP3 SWAP6 SWAP1 SWAP4 POP JUMP JUMPDEST PUSH1 0x0 PUSH1 0x20 DUP3 ADD SWAP1 POP DUP2 DUP2 SUB PUSH1 0x0 DUP4 ADD MSTORE PUSH2 0x3925 DUP2 DUP5 PUSH2 0x34C7 JUMP JUMPDEST SWAP1 POP SWAP3 SWAP2 POP POP JUMP JUMPDEST PUSH1 0x0 DUP1 PUSH1 0x0 PUSH1 0x60 DUP5 DUP7 SUB SLT ISZERO PUSH2 0x3946 JUMPI PUSH2 0x3945 PUSH2 0x2FF2 JUMP JUMPDEST JUMPDEST PUSH1 0x0 PUSH2 0x3954 DUP7 DUP3 DUP8 ADD PUSH2 0x301D JUMP JUMPDEST SWAP4 POP POP PUSH1 0x20 DUP5 ADD CALLDATALOAD PUSH8 0xFFFFFFFFFFFFFFFF DUP2 GT ISZERO PUSH2 0x3975 JUMPI PUSH2 0x3974 PUSH2 0x2FF7 JUMP JUMPDEST JUMPDEST PUSH2 0x3981 DUP7 DUP3 DUP8 ADD PUSH2 0x363F JUMP JUMPDEST SWAP3 POP POP PUSH1 0x40 PUSH2 0x3992 DUP7 DUP3 DUP8 ADD PUSH2 0x301D JUMP JUMPDEST SWAP2 POP POP SWAP3 POP SWAP3 POP SWAP3 JUMP JUMPDEST PUSH1 0x0 PUSH8 0xFFFFFFFFFFFFFFFF DUP3 GT ISZERO PUSH2 0x39B7 JUMPI PUSH2 0x39B6 PUSH2 0x31F3 JUMP JUMPDEST JUMPDEST PUSH1 0x20 DUP3 MUL SWAP1 POP PUSH1 0x20 DUP2 ADD SWAP1 POP SWAP2 SWAP1 POP JUMP JUMPDEST PUSH1 0x0 DUP1 REVERT JUMPDEST PUSH1 0x0 PUSH2 0x39E0 PUSH2 0x39DB DUP5 PUSH2 0x399C JUMP JUMPDEST PUSH2 0x3253 JUMP JUMPDEST SWAP1 POP DUP1 DUP4 DUP3 MSTORE PUSH1 0x20 DUP3 ADD SWAP1 POP PUSH1 0x20 DUP5 MUL DUP4 ADD DUP6 DUP2 GT ISZERO PUSH2 0x3A03 JUMPI PUSH2 0x3A02 PUSH2 0x39C8 JUMP JUMPDEST JUMPDEST DUP4 JUMPDEST DUP2 DUP2 LT ISZERO PUSH2 0x3A2C JUMPI DUP1 PUSH2 0x3A18 DUP9 DUP3 PUSH2 0x307B JUMP JUMPDEST DUP5 MSTORE PUSH1 0x20 DUP5 ADD SWAP4 POP POP PUSH1 0x20 DUP2 ADD SWAP1 POP PUSH2 0x3A05 JUMP JUMPDEST POP POP POP SWAP4 SWAP3 POP POP POP JUMP JUMPDEST PUSH1 0x0 DUP3 PUSH1 0x1F DUP4 ADD SLT PUSH2 0x3A4B JUMPI PUSH2 0x3A4A PUSH2 0x31D8 JUMP JUMPDEST JUMPDEST DUP2 CALLDATALOAD PUSH2 0x3A5B DUP5 DUP3 PUSH1 0x20 DUP7 ADD PUSH2 0x39CD JUMP JUMPDEST SWAP2 POP POP SWAP3 SWAP2 POP POP JUMP JUMPDEST PUSH1 0x0 DUP1 PUSH1 0x0 PUSH1 0x60 DUP5 DUP7 SUB SLT ISZERO PUSH2 0x3A7D JUMPI PUSH2 0x3A7C PUSH2 0x2FF2 JUMP JUMPDEST JUMPDEST PUSH1 0x0 DUP5 ADD CALLDATALOAD PUSH8 0xFFFFFFFFFFFFFFFF DUP2 GT ISZERO PUSH2 0x3A9B JUMPI PUSH2 0x3A9A PUSH2 0x2FF7 JUMP JUMPDEST JUMPDEST PUSH2 0x3AA7 DUP7 DUP3 DUP8 ADD PUSH2 0x363F JUMP JUMPDEST SWAP4 POP POP PUSH1 0x20 DUP5 ADD CALLDATALOAD PUSH8 0xFFFFFFFFFFFFFFFF DUP2 GT ISZERO PUSH2 0x3AC8 JUMPI PUSH2 0x3AC7 PUSH2 0x2FF7 JUMP JUMPDEST JUMPDEST PUSH2 0x3AD4 DUP7 DUP3 DUP8 ADD PUSH2 0x3A36 JUMP JUMPDEST SWAP3 POP POP PUSH1 0x40 PUSH2 0x3AE5 DUP7 DUP3 DUP8 ADD PUSH2 0x301D JUMP JUMPDEST SWAP2 POP POP SWAP3 POP SWAP3 POP SWAP3 JUMP JUMPDEST PUSH1 0x0 PUSH1 0x20 DUP3 DUP5 SUB SLT ISZERO PUSH2 0x3B05 JUMPI PUSH2 0x3B04 PUSH2 0x2FF2 JUMP JUMPDEST JUMPDEST PUSH1 0x0 DUP3 ADD CALLDATALOAD PUSH8 0xFFFFFFFFFFFFFFFF DUP2 GT ISZERO PUSH2 0x3B23 JUMPI PUSH2 0x3B22 PUSH2 0x2FF7 JUMP JUMPDEST JUMPDEST PUSH2 0x3B2F DUP5 DUP3 DUP6 ADD PUSH2 0x363F JUMP JUMPDEST SWAP2 POP POP SWAP3 SWAP2 POP POP JUMP JUMPDEST PUSH32 0x446F63756D656E7420646F6573206E6F74206578697374000000000000000000 PUSH1 0x0 DUP3 ADD MSTORE POP JUMP JUMPDEST PUSH1 0x0 PUSH2 0x3B6E PUSH1 0x17 DUP4 PUSH2 0x348C JUMP JUMPDEST SWAP2 POP PUSH2 0x3B79 DUP3 PUSH2 0x3B38 JUMP JUMPDEST PUSH1 0x20 DUP3 ADD SWAP1 POP SWAP2 SWAP1 POP JUMP JUMPDEST PUSH1 0x0 PUSH1 0x20 DUP3 ADD SWAP1 POP DUP2 DUP2 SUB PUSH1 0x0 DUP4 ADD MSTORE PUSH2 0x3B9D DUP2 PUSH2 0x3B61 JUMP JUMPDEST SWAP1 POP SWAP2 SWAP1 POP JUMP JUMPDEST PUSH32 0x4E487B7100000000000000000000000000000000000000000000000000000000 PUSH1 0x0 MSTORE PUSH1 0x11 PUSH1 0x4 MSTORE PUSH1 0x24 PUSH1 0x0 REVERT JUMPDEST PUSH1 0x0 PUSH2 0x3BDE DUP3 PUSH2 0x2FFC JUMP JUMPDEST SWAP2 POP PUSH2 0x3BE9 DUP4 PUSH2 0x2FFC JUMP JUMPDEST SWAP3 POP DUP3 DUP3 SUB SWAP1 POP DUP2 DUP2 GT ISZERO PUSH2 0x3C01 JUMPI PUSH2 0x3C00 PUSH2 0x3BA4 JUMP JUMPDEST JUMPDEST SWAP3 SWAP2 POP POP JUMP JUMPDEST PUSH32 0x4E487B7100000000000000000000000000000000000000000000000000000000 PUSH1 0x0 MSTORE PUSH1 0x32 PUSH1 0x4 MSTORE PUSH1 0x24 PUSH1 0x0 REVERT JUMPDEST PUSH32 0x5369676E657220686173206E6F74207369676E6564207468697320646F63756D PUSH1 0x0 DUP3 ADD MSTORE PUSH32 0x656E740000000000000000000000000000000000000000000000000000000000 PUSH1 0x20 DUP3 ADD MSTORE POP JUMP JUMPDEST PUSH1 0x0 PUSH2 0x3C92 PUSH1 0x23 DUP4 PUSH2 0x348C JUMP JUMPDEST SWAP2 POP PUSH2 0x3C9D DUP3 PUSH2 0x3C36 JUMP JUMPDEST PUSH1 0x40 DUP3 ADD SWAP1 POP SWAP2 SWAP1 POP JUMP JUMPDEST PUSH1 0x0 PUSH1 0x20 DUP3 ADD SWAP1 POP DUP2 DUP2 SUB PUSH1 0x0 DUP4 ADD MSTORE PUSH2 0x3CC1 DUP2 PUSH2 0x3C85 JUMP JUMPDEST SWAP1 POP SWAP2 SWAP1 POP JUMP JUMPDEST PUSH32 0x496E76616C6964207369676E6174757265206C656E6774680000000000000000 PUSH1 0x0 DUP3 ADD MSTORE POP JUMP JUMPDEST PUSH1 0x0 PUSH2 0x3CFE PUSH1 0x18 DUP4 PUSH2 0x348C JUMP JUMPDEST SWAP2 POP PUSH2 0x3D09 DUP3 PUSH2 0x3CC8 JUMP JUMPDEST PUSH1 0x20 DUP3 ADD SWAP1 POP SWAP2 SWAP1 POP JUMP JUMPDEST PUSH1 0x0 PUSH1 0x20 DUP3 ADD SWAP1 POP DUP2 DUP2 SUB PUSH1 0x0 DUP4 ADD MSTORE PUSH2 0x3D2D DUP2 PUSH2 0x3CF1 JUMP JUMPDEST SWAP1 POP SWAP2 SWAP1 POP JUMP JUMPDEST PUSH1 0x0 DUP2 SWAP1 POP SWAP3 SWAP2 POP POP JUMP JUMPDEST PUSH32 0x19457468657265756D205369676E6564204D6573736167653A0A333200000000 PUSH1 0x0 DUP3 ADD MSTORE POP JUMP JUMPDEST PUSH1 0x0 PUSH2 0x3D75 PUSH1 0x1C DUP4 PUSH2 0x3D34 JUMP JUMPDEST SWAP2 POP PUSH2 0x3D80 DUP3 PUSH2 0x3D3F JUMP JUMPDEST PUSH1 0x1C DUP3 ADD SWAP1 POP SWAP2 SWAP1 POP JUMP JUMPDEST PUSH1 0x0 DUP2 SWAP1 POP SWAP2 SWAP1 POP JUMP JUMPDEST PUSH2 0x3DA6 PUSH2 0x3DA1 DUP3 PUSH2 0x31A2 JUMP JUMPDEST PUSH2 0x3D8B JUMP JUMPDEST DUP3 MSTORE POP POP JUMP JUMPDEST PUSH1 0x0 PUSH2 0x3DB7 DUP3 PUSH2 0x3D68 JUMP JUMPDEST SWAP2 POP PUSH2 0x3DC3 DUP3 DUP5 PUSH2 0x3D95 JUMP JUMPDEST PUSH1 0x20 DUP3 ADD SWAP2 POP DUP2 SWAP1 POP SWAP3 SWAP2 POP POP JUMP JUMPDEST PUSH1 0x0 PUSH1 0xFF DUP3 AND SWAP1 POP SWAP2 SWAP1 POP JUMP JUMPDEST PUSH1 0x0 PUSH2 0x3DEA DUP3 PUSH2 0x3DD2 JUMP JUMPDEST SWAP2 POP PUSH2 0x3DF5 DUP4 PUSH2 0x3DD2 JUMP JUMPDEST SWAP3 POP DUP3 DUP3 ADD SWAP1 POP PUSH1 0xFF DUP2 GT ISZERO PUSH2 0x3E0E JUMPI PUSH2 0x3E0D PUSH2 0x3BA4 JUMP JUMPDEST JUMPDEST SWAP3 SWAP2 POP POP JUMP JUMPDEST PUSH32 0x496E76616C6964207369676E6174757265202776272076616C75650000000000 PUSH1 0x0 DUP3 ADD MSTORE POP JUMP JUMPDEST PUSH1 0x0 PUSH2 0x3E4A PUSH1 0x1B DUP4 PUSH2 0x348C JUMP JUMPDEST SWAP2 POP PUSH2 0x3E55 DUP3 PUSH2 0x3E14 JUMP JUMPDEST PUSH1 0x20 DUP3 ADD SWAP1 POP SWAP2 SWAP1 POP JUMP JUMPDEST PUSH1 0x0 PUSH1 0x20 DUP3 ADD SWAP1 POP DUP2 DUP2 SUB PUSH1 0x0 DUP4 ADD MSTORE PUSH2 0x3E79 DUP2 PUSH2 0x3E3D JUMP JUMPDEST SWAP1 POP SWAP2 SWAP1 POP JUMP JUMPDEST PUSH2 0x3E89 DUP2 PUSH2 0x31A2 JUMP JUMPDEST DUP3 MSTORE POP POP JUMP JUMPDEST PUSH2 0x3E98 DUP2 PUSH2 0x3DD2 JUMP JUMPDEST DUP3 MSTORE POP POP JUMP JUMPDEST PUSH1 0x0 PUSH1 0x80 DUP3 ADD SWAP1 POP PUSH2 0x3EB3 PUSH1 0x0 DUP4 ADD DUP8 PUSH2 0x3E80 JUMP JUMPDEST PUSH2 0x3EC0 PUSH1 0x20 DUP4 ADD DUP7 PUSH2 0x3E8F JUMP JUMPDEST PUSH2 0x3ECD PUSH1 0x40 DUP4 ADD DUP6 PUSH2 0x3E80 JUMP JUMPDEST PUSH2 0x3EDA PUSH1 0x60 DUP4 ADD DUP5 PUSH2 0x3E80 JUMP JUMPDEST SWAP6 SWAP5 POP POP POP POP POP JUMP JUMPDEST PUSH1 0x0 PUSH2 0x3EEE DUP3 PUSH2 0x2FFC JUMP JUMPDEST SWAP2 POP PUSH32 0xFFFFFFFFFFFFFFFFFFFFFFFFFFFFFFFFFFFFFFFFFFFFFFFFFFFFFFFFFFFFFFFF DUP3 SUB PUSH2 0x3F20 JUMPI PUSH2 0x3F1F PUSH2 0x3BA4 JUMP JUMPDEST JUMPDEST PUSH1 0x1 DUP3 ADD SWAP1 POP SWAP2 SWAP1 POP JUMP JUMPDEST PUSH32 0x4E487B7100000000000000000000000000000000000000000000000000000000 PUSH1 0x0 MSTORE PUSH1 0x22 PUSH1 0x4 MSTORE PUSH1 0x24 PUSH1 0x0 REVERT JUMPDEST PUSH1 0x0 PUSH1 0x2 DUP3 DIV SWAP1 POP PUSH1 0x1 DUP3 AND DUP1 PUSH2 0x3F72 JUMPI PUSH1 0x7F DUP3 AND SWAP2 POP JUMPDEST PUSH1 0x20 DUP3 LT DUP2 SUB PUSH2 0x3F85 JUMPI PUSH2 0x3F84 PUSH2 0x3F2B JUMP JUMPDEST JUMPDEST POP SWAP2 SWAP1 POP JUMP JUMPDEST PUSH32 0x4E6F7420617574686F72697A6564207369676E65720000000000000000000000 PUSH1 0x0 DUP3 ADD MSTORE POP JUMP JUMPDEST PUSH1 0x0 PUSH2 0x3FC1 PUSH1 0x15 DUP4 PUSH2 0x348C JUMP JUMPDEST SWAP2 POP PUSH2 0x3FCC DUP3 PUSH2 0x3F8B JUMP JUMPDEST PUSH1 0x20 DUP3 ADD SWAP1 POP SWAP2 SWAP1 POP JUMP JUMPDEST PUSH1 0x0 PUSH1 0x20 DUP3 ADD SWAP1 POP DUP2 DUP2 SUB PUSH1 0x0 DUP4 ADD MSTORE PUSH2 0x3FF0 DUP2 PUSH2 0x3FB4 JUMP JUMPDEST SWAP1 POP SWAP2 SWAP1 POP JUMP JUMPDEST PUSH32 0x446F63756D656E74206973207265766F6B656400000000000000000000000000 PUSH1 0x0 DUP3 ADD MSTORE POP JUMP JUMPDEST PUSH1 0x0 PUSH2 0x402D PUSH1 0x13 DUP4 PUSH2 0x348C JUMP JUMPDEST SWAP2 POP PUSH2 0x4038 DUP3 PUSH2 0x3FF7 JUMP JUMPDEST PUSH1 0x20 DUP3 ADD SWAP1 POP SWAP2 SWAP1 POP JUMP JUMPDEST PUSH1 0x0 PUSH1 0x20 DUP3 ADD SWAP1 POP DUP2 DUP2 SUB PUSH1 0x0 DUP4 ADD MSTORE PUSH2 0x405C DUP2 PUSH2 0x4020 JUMP JUMPDEST SWAP1 POP SWAP2 SWAP1 POP JUMP JUMPDEST PUSH32 0x446F63756D656E74206578706972656400000000000000000000000000000000 PUSH1 0x0 DUP3 ADD MSTORE POP JUMP JUMPDEST PUSH1 0x0 PUSH2 0x4099 PUSH1 0x10 DUP4 PUSH2 0x348C JUMP JUMPDEST SWAP2 POP PUSH2 0x40A4 DUP3 PUSH2 0x4063 JUMP JUMPDEST PUSH1 0x20 DUP3 ADD SWAP1 POP SWAP2 SWAP1 POP JUMP JUMPDEST PUSH1 0x0 PUSH1 0x20 DUP3 ADD SWAP1 POP DUP2 DUP2 SUB PUSH1 0x0 DUP4 ADD MSTORE PUSH2 0x40C8 DUP2 PUSH2 0x408C JUMP JUMPDEST SWAP1 POP SWAP2 SWAP1 POP JUMP JUMPDEST PUSH32 0x416C7265616479207369676E6564000000000000000000000000000000000000 PUSH1 0x0 DUP3 ADD MSTORE POP JUMP JUMPDEST PUSH1 0x0 PUSH2 0x4105 PUSH1 0xE DUP4 PUSH2 0x348C JUMP JUMPDEST SWAP2 POP PUSH2 0x4110 DUP3 PUSH2 0x40CF JUMP JUMPDEST PUSH1 0x20 DUP3 ADD SWAP1 POP SWAP2 SWAP1 POP JUMP JUMPDEST PUSH1 0x0 PUSH1 0x20 DUP3 ADD SWAP1 POP DUP2 DUP2 SUB PUSH1 0x0 DUP4 ADD MSTORE PUSH2 0x4134 DUP2 PUSH2 0x40F8 JUMP JUMPDEST SWAP1 POP SWAP2 SWAP1 POP JUMP JUMPDEST PUSH32 0x4E6F7420796F7572207475726E20746F207369676E0000000000000000000000 PUSH1 0x0 DUP3 ADD MSTORE POP JUMP JUMPDEST PUSH1 0x0 PUSH2 0x4171 PUSH1 0x15 DUP4 PUSH2 0x348C JUMP JUMPDEST SWAP2 POP PUSH2 0x417C DUP3 PUSH2 0x413B JUMP JUMPDEST PUSH1 0x20 DUP3 ADD SWAP1 POP SWAP2 SWAP1 POP JUMP JUMPDEST PUSH1 0x0 PUSH1 0x20 DUP3 ADD SWAP1 POP DUP2 DUP2 SUB PUSH1 0x0 DUP4 ADD MSTORE PUSH2 0x41A0 DUP2 PUSH2 0x4164 JUMP JUMPDEST SWAP1 POP SWAP2 SWAP1 POP JUMP JUMPDEST PUSH32 0x5369676E61747572652072657175697265640000000000000000000000000000 PUSH1 0x0 DUP3 ADD MSTORE POP JUMP JUMPDEST PUSH1 0x0 PUSH2 0x41DD PUSH1 0x12 DUP4 PUSH2 0x348C JUMP JUMPDEST SWAP2 POP PUSH2 0x41E8 DUP3 PUSH2 0x41A7 JUMP JUMPDEST PUSH1 0x20 DUP3 ADD SWAP1 POP SWAP2 SWAP1 POP JUMP JUMPDEST PUSH1 0x0 PUSH1 0x20 DUP3 ADD SWAP1 POP DUP2 DUP2 SUB PUSH1 0x0 DUP4 ADD MSTORE PUSH2 0x420C DUP2 PUSH2 0x41D0 JUMP JUMPDEST SWAP1 POP SWAP2 SWAP1 POP JUMP JUMPDEST PUSH1 0x0 DUP2 SWAP1 POP DUP2 PUSH1 0x0 MSTORE PUSH1 0x20 PUSH1 0x0 KECCAK256 SWAP1 POP SWAP2 SWAP1 POP JUMP JUMPDEST PUSH1 0x0 PUSH1 0x20 PUSH1 0x1F DUP4 ADD DIV SWAP1 POP SWAP2 SWAP1 POP JUMP JUMPDEST PUSH1 0x0 DUP3 DUP3 SHL SWAP1 POP SWAP3 SWAP2 POP POP JUMP JUMPDEST PUSH1 0x0 PUSH1 0x8 DUP4 MUL PUSH2 0x4275 PUSH32 0xFFFFFFFFFFFFFFFFFFFFFFFFFFFFFFFFFFFFFFFFFFFFFFFFFFFFFFFFFFFFFFFF DUP3 PUSH2 0x4238 JUMP JUMPDEST PUSH2 0x427F DUP7 DUP4 PUSH2 0x4238 JUMP JUMPDEST SWAP6 POP DUP1 NOT DUP5 AND SWAP4 POP DUP1 DUP7 AND DUP5 OR SWAP3 POP POP POP SWAP4 SWAP3 POP POP POP JUMP JUMPDEST PUSH1 0x0 DUP2 SWAP1 POP SWAP2 SWAP1 POP JUMP JUMPDEST PUSH1 0x0 PUSH2 0x42BC PUSH2 0x42B7 PUSH2 0x42B2 DUP5 PUSH2 0x2FFC JUMP JUMPDEST PUSH2 0x4297 JUMP JUMPDEST PUSH2 0x2FFC JUMP JUMPDEST SWAP1 POP SWAP2 SWAP1 POP JUMP JUMPDEST PUSH1 0x0 DUP2 SWAP1 POP SWAP2 SWAP1 POP JUMP JUMPDEST PUSH2 0x42D6 DUP4 PUSH2 0x42A1 JUMP JUMPDEST PUSH2 0x42EA PUSH2 0x42E2 DUP3 PUSH2 0x42C3 JUMP JUMPDEST DUP5 DUP5 SLOAD PUSH2 0x4245 JUMP JUMPDEST DUP3 SSTORE POP POP POP POP JUMP JUMPDEST PUSH1 0x0 SWAP1 JUMP JUMPDEST PUSH2 0x42FF PUSH2 0x42F2 JUMP JUMPDEST PUSH2 0x430A DUP2 DUP5 DUP5 PUSH2 0x42CD JUMP JUMPDEST POP POP POP JUMP JUMPDEST JUMPDEST DUP2 DUP2 LT ISZERO PUSH2 0x432E JUMPI PUSH2 0x4323 PUSH1 0x0 DUP3 PUSH2 0x42F7 JUMP JUMPDEST PUSH1 0x1 DUP2 ADD SWAP1 POP PUSH2 0x4310 JUMP JUMPDEST POP POP JUMP JUMPDEST PUSH1 0x1F DUP3 GT ISZERO PUSH2 0x4373 JUMPI PUSH2 0x4344 DUP2 PUSH2 0x4213 JUMP JUMPDEST PUSH2 0x434D DUP5 PUSH2 0x4228 JUMP JUMPDEST DUP2 ADD PUSH1 0x20 DUP6 LT ISZERO PUSH2 0x435C JUMPI DUP2 SWAP1 POP JUMPDEST PUSH2 0x4370 PUSH2 0x4368 DUP6 PUSH2 0x4228 JUMP JUMPDEST DUP4 ADD DUP3 PUSH2 0x430F JUMP JUMPDEST POP POP JUMPDEST POP POP POP JUMP JUMPDEST PUSH1 0x0 DUP3 DUP3 SHR SWAP1 POP SWAP3 SWAP2 POP POP JUMP JUMPDEST PUSH1 0x0 PUSH2 0x4396 PUSH1 0x0 NOT DUP5 PUSH1 0x8 MUL PUSH2 0x4378 JUMP JUMPDEST NOT DUP1 DUP4 AND SWAP2 POP POP SWAP3 SWAP2 POP POP JUMP JUMPDEST PUSH1 0x0 PUSH2 0x43AF DUP4 DUP4 PUSH2 0x4385 JUMP JUMPDEST SWAP2 POP DUP3 PUSH1 0x2 MUL DUP3 OR SWAP1 POP SWAP3 SWAP2 POP POP JUMP JUMPDEST PUSH2 0x43C8 DUP3 PUSH2 0x3481 JUMP JUMPDEST PUSH8 0xFFFFFFFFFFFFFFFF DUP2 GT ISZERO PUSH2 0x43E1 JUMPI PUSH2 0x43E0 PUSH2 0x31F3 JUMP JUMPDEST JUMPDEST PUSH2 0x43EB DUP3 SLOAD PUSH2 0x3F5A JUMP JUMPDEST PUSH2 0x43F6 DUP3 DUP3 DUP6 PUSH2 0x4332 JUMP JUMPDEST PUSH1 0x0 PUSH1 0x20 SWAP1 POP PUSH1 0x1F DUP4 GT PUSH1 0x1 DUP2 EQ PUSH2 0x4429 JUMPI PUSH1 0x0 DUP5 ISZERO PUSH2 0x4417 JUMPI DUP3 DUP8 ADD MLOAD SWAP1 POP JUMPDEST PUSH2 0x4421 DUP6 DUP3 PUSH2 0x43A3 JUMP JUMPDEST DUP7 SSTORE POP PUSH2 0x4489 JUMP JUMPDEST PUSH1 0x1F NOT DUP5 AND PUSH2 0x4437 DUP7 PUSH2 0x4213 JUMP JUMPDEST PUSH1 0x0 JUMPDEST DUP3 DUP2 LT ISZERO PUSH2 0x445F JUMPI DUP5 DUP10 ADD MLOAD DUP3 SSTORE PUSH1 0x1 DUP3 ADD SWAP2 POP PUSH1 0x20 DUP6 ADD SWAP5 POP PUSH1 0x20 DUP2 ADD SWAP1 POP PUSH2 0x443A JUMP JUMPDEST DUP7 DUP4 LT ISZERO PUSH2 0x447C JUMPI DUP5 DUP10 ADD MLOAD PUSH2 0x4478 PUSH1 0x1F DUP10 AND DUP3 PUSH2 0x4385 JUMP JUMPDEST DUP4 SSTORE POP JUMPDEST PUSH1 0x1 PUSH1 0x2 DUP9 MUL ADD DUP9 SSTORE POP POP POP JUMPDEST POP POP POP POP POP POP JUMP JUMPDEST PUSH1 0x0 PUSH1 0x40 DUP3 ADD SWAP1 POP PUSH2 0x44A6 PUSH1 0x0 DUP4 ADD DUP6 PUSH2 0x30D0 JUMP JUMPDEST DUP2 DUP2 SUB PUSH1 0x20 DUP4 ADD MSTORE PUSH2 0x44B8 DUP2 DUP5 PUSH2 0x34C7 JUMP JUMPDEST SWAP1 POP SWAP4 SWAP3 POP POP POP JUMP JUMPDEST POP JUMP JUMPDEST PUSH1 0x0 PUSH2 0x44D1 PUSH1 0x0 DUP4 PUSH2 0x348C JUMP JUMPDEST SWAP2 POP PUSH2 0x44DC DUP3 PUSH2 0x44C1 JUMP JUMPDEST PUSH1 0x0 DUP3 ADD SWAP1 POP SWAP2 SWAP1 POP JUMP JUMPDEST PUSH1 0x0 PUSH1 0x40 DUP3 ADD SWAP1 POP PUSH2 0x44FC PUSH1 0x0 DUP4 ADD DUP5 PUSH2 0x30D0 JUMP JUMPDEST DUP2 DUP2 SUB PUSH1 0x20 DUP4 ADD MSTORE PUSH2 0x450D DUP2 PUSH2 0x44C4 JUMP JUMPDEST SWAP1 POP SWAP3 SWAP2 POP POP JUMP JUMPDEST PUSH32 0x55736572206E6F74207265676973746572656400000000000000000000000000 PUSH1 0x0 DUP3 ADD MSTORE POP JUMP JUMPDEST PUSH1 0x0 PUSH2 0x454B PUSH1 0x13 DUP4 PUSH2 0x348C JUMP JUMPDEST SWAP2 POP PUSH2 0x4556 DUP3 PUSH2 0x4515 JUMP JUMPDEST PUSH1 0x20 DUP3 ADD SWAP1 POP SWAP2 SWAP1 POP JUMP JUMPDEST PUSH1 0x0 PUSH1 0x20 DUP3 ADD SWAP1 POP DUP2 DUP2 SUB PUSH1 0x0 DUP4 ADD MSTORE PUSH2 0x457A DUP2 PUSH2 0x453E JUMP JUMPDEST SWAP1 POP SWAP2 SWAP1 POP JUMP JUMPDEST PUSH32 0x416C726561647920726567697374657265640000000000000000000000000000 PUSH1 0x0 DUP3 ADD MSTORE POP JUMP JUMPDEST PUSH1 0x0 PUSH2 0x45B7 PUSH1 0x12 DUP4 PUSH2 0x348C JUMP JUMPDEST SWAP2 POP PUSH2 0x45C2 DUP3 PUSH2 0x4581 JUMP JUMPDEST PUSH1 0x20 DUP3 ADD SWAP1 POP SWAP2 SWAP1 POP JUMP JUMPDEST PUSH1 0x0 PUSH1 0x20 DUP3 ADD SWAP1 POP DUP2 DUP2 SUB PUSH1 0x0 DUP4 ADD MSTORE PUSH2 0x45E6 DUP2 PUSH2 0x45AA JUMP JUMPDEST SWAP1 POP SWAP2 SWAP1 POP JUMP JUMPDEST PUSH1 0x0 PUSH2 0x45F8 DUP3 PUSH2 0x3481 JUMP JUMPDEST PUSH2 0x4602 DUP2 DUP6 PUSH2 0x3D34 JUMP JUMPDEST SWAP4 POP PUSH2 0x4612 DUP2 DUP6 PUSH1 0x20 DUP7 ADD PUSH2 0x349D JUMP JUMPDEST DUP1 DUP5 ADD SWAP2 POP POP SWAP3 SWAP2 POP POP JUMP JUMPDEST PUSH1 0x0 PUSH2 0x462A DUP3 DUP5 PUSH2 0x45ED JUMP JUMPDEST SWAP2 POP DUP2 SWAP1 POP SWAP3 SWAP2 POP POP JUMP JUMPDEST PUSH32 0x456D61696C20616C726561647920726567697374657265640000000000000000 PUSH1 0x0 DUP3 ADD MSTORE POP JUMP JUMPDEST PUSH1 0x0 PUSH2 0x466B PUSH1 0x18 DUP4 PUSH2 0x348C JUMP JUMPDEST SWAP2 POP PUSH2 0x4676 DUP3 PUSH2 0x4635 JUMP JUMPDEST PUSH1 0x20 DUP3 ADD SWAP1 POP SWAP2 SWAP1 POP JUMP JUMPDEST PUSH1 0x0 PUSH1 0x20 DUP3 ADD SWAP1 POP DUP2 DUP2 SUB PUSH1 0x0 DUP4 ADD MSTORE PUSH2 0x469A DUP2 PUSH2 0x465E JUMP JUMPDEST SWAP1 POP SWAP2 SWAP1 POP JUMP JUMPDEST PUSH1 0x0 PUSH1 0xA0 DUP3 ADD SWAP1 POP DUP2 DUP2 SUB PUSH1 0x0 DUP4 ADD MSTORE PUSH2 0x46BB DUP2 DUP9 PUSH2 0x34C7 JUMP JUMPDEST SWAP1 POP DUP2 DUP2 SUB PUSH1 0x20 DUP4 ADD MSTORE PUSH2 0x46CF DUP2 DUP8 PUSH2 0x34C7 JUMP JUMPDEST SWAP1 POP DUP2 DUP2 SUB PUSH1 0x40 DUP4 ADD MSTORE PUSH2 0x46E3 DUP2 DUP7 PUSH2 0x34C7 JUMP JUMPDEST SWAP1 POP PUSH2 0x46F2 PUSH1 0x60 DUP4 ADD DUP6 PUSH2 0x30D0 JUMP JUMPDEST DUP2 DUP2 SUB PUSH1 0x80 DUP4 ADD MSTORE PUSH2 0x4704 DUP2 DUP5 PUSH2 0x34C7 JUMP JUMPDEST SWAP1 POP SWAP7 SWAP6 POP POP POP POP POP POP JUMP JUMPDEST PUSH32 0x4E6F7420646F63756D656E74206F776E65720000000000000000000000000000 PUSH1 0x0 DUP3 ADD MSTORE POP JUMP JUMPDEST PUSH1 0x0 PUSH2 0x4746 PUSH1 0x12 DUP4 PUSH2 0x348C JUMP JUMPDEST SWAP2 POP PUSH2 0x4751 DUP3 PUSH2 0x4710 JUMP JUMPDEST PUSH1 0x20 DUP3 ADD SWAP1 POP SWAP2 SWAP1 POP JUMP JUMPDEST PUSH1 0x0 PUSH1 0x20 DUP3 ADD SWAP1 POP DUP2 DUP2 SUB PUSH1 0x0 DUP4 ADD MSTORE PUSH2 0x4775 DUP2 PUSH2 0x4739 JUMP JUMPDEST SWAP1 POP SWAP2 SWAP1 POP JUMP JUMPDEST PUSH32 0x43616E6E6F7420616D656E642066756C6C79207369676E656420646F63756D65 PUSH1 0x0 DUP3 ADD MSTORE PUSH32 0x6E74000000000000000000000000000000000000000000000000000000000000 PUSH1 0x20 DUP3 ADD MSTORE POP JUMP JUMPDEST PUSH1 0x0 PUSH2 0x47D8 PUSH1 0x22 DUP4 PUSH2 0x348C JUMP JUMPDEST SWAP2 POP PUSH2 0x47E3 DUP3 PUSH2 0x477C JUMP JUMPDEST PUSH1 0x40 DUP3 ADD SWAP1 POP SWAP2 SWAP1 POP JUMP JUMPDEST PUSH1 0x0 PUSH1 0x20 DUP3 ADD SWAP1 POP DUP2 DUP2 SUB PUSH1 0x0 DUP4 ADD MSTORE PUSH2 0x4807 DUP2 PUSH2 0x47CB JUMP JUMPDEST SWAP1 POP SWAP2 SWAP1 POP JUMP JUMPDEST PUSH32 0x4950465320686173682072657175697265640000000000000000000000000000 PUSH1 0x0 DUP3 ADD MSTORE POP JUMP JUMPDEST PUSH1 0x0 PUSH2 0x4844 PUSH1 0x12 DUP4 PUSH2 0x348C JUMP JUMPDEST SWAP2 POP PUSH2 0x484F DUP3 PUSH2 0x480E JUMP JUMPDEST PUSH1 0x20 DUP3 ADD SWAP1 POP SWAP2 SWAP1 POP JUMP JUMPDEST PUSH1 0x0 PUSH1 0x20 DUP3 ADD SWAP1 POP DUP2 DUP2 SUB PUSH1 0x0 DUP4 ADD MSTORE PUSH2 0x4873 DUP2 PUSH2 0x4837 JUMP JUMPDEST SWAP1 POP SWAP2 SWAP1 POP JUMP JUMPDEST PUSH32 0x457870697279206D75737420626520696E207468652066757475726500000000 PUSH1 0x0 DUP3 ADD MSTORE POP JUMP JUMPDEST PUSH1 0x0 PUSH2 0x48B0 PUSH1 0x1C DUP4 PUSH2 0x348C JUMP JUMPDEST SWAP2 POP PUSH2 0x48BB DUP3 PUSH2 0x487A JUMP JUMPDEST PUSH1 0x20 DUP3 ADD SWAP1 POP SWAP2 SWAP1 POP JUMP JUMPDEST PUSH1 0x0 PUSH1 0x20 DUP3 ADD SWAP1 POP DUP2 DUP2 SUB PUSH1 0x0 DUP4 ADD MSTORE PUSH2 0x48DF DUP2 PUSH2 0x48A3 JUMP JUMPDEST SWAP1 POP SWAP2 SWAP1 POP JUMP JUMPDEST PUSH1 0x0 PUSH1 0x40 DUP3 ADD SWAP1 POP DUP2 DUP2 SUB PUSH1 0x0 DUP4 ADD MSTORE PUSH2 0x4900 DUP2 DUP6 PUSH2 0x34C7 JUMP JUMPDEST SWAP1 POP PUSH2 0x490F PUSH1 0x20 DUP4 ADD DUP5 PUSH2 0x30D0 JUMP JUMPDEST SWAP4 SWAP3 POP POP POP JUMP JUMPDEST PUSH32 0x496E76616C6964207369676E6572206164647265737300000000000000000000 PUSH1 0x0 DUP3 ADD MSTORE POP JUMP JUMPDEST PUSH1 0x0 PUSH2 0x494C PUSH1 0x16 DUP4 PUSH2 0x348C JUMP JUMPDEST SWAP2 POP PUSH2 0x4957 DUP3 PUSH2 0x4916 JUMP JUMPDEST PUSH1 0x20 DUP3 ADD SWAP1 POP SWAP2 SWAP1 POP JUMP JUMPDEST PUSH1 0x0 PUSH1 0x20 DUP3 ADD SWAP1 POP DUP2 DUP2 SUB PUSH1 0x0 DUP4 ADD MSTORE PUSH2 0x497B DUP2 PUSH2 0x493F JUMP JUMPDEST SWAP1 POP SWAP2 SWAP1 POP JUMP JUMPDEST PUSH1 0x0 DUP2 SLOAD SWAP1 POP SWAP2 SWAP1 POP JUMP JUMPDEST PUSH1 0x0 DUP2 SWAP1 POP DUP2 PUSH1 0x0 MSTORE PUSH1 0x20 PUSH1 0x0 KECCAK256 SWAP1 POP SWAP2 SWAP1 POP JUMP JUMPDEST PUSH1 0x0 DUP2 PUSH1 0x0 SHR SWAP1 POP SWAP2 SWAP1 POP JUMP JUMPDEST PUSH1 0x0 PUSH20 0xFFFFFFFFFFFFFFFFFFFFFFFFFFFFFFFFFFFFFFFF DUP3 AND SWAP1 POP SWAP2 SWAP1 POP JUMP JUMPDEST PUSH1 0x0 PUSH2 0x49E2 PUSH2 0x49DD DUP4 PUSH2 0x49A2 JUMP JUMPDEST PUSH2 0x49AF JUMP JUMPDEST SWAP1 POP SWAP2 SWAP1 POP JUMP JUMPDEST PUSH1 0x0 PUSH2 0x49F5 DUP3 SLOAD PUSH2 0x49CF JUMP JUMPDEST SWAP1 POP SWAP2 SWAP1 POP JUMP JUMPDEST PUSH1 0x0 PUSH1 0x1 DUP3 ADD SWAP1 POP SWAP2 SWAP1 POP JUMP JUMPDEST PUSH1 0x0 PUSH2 0x4A14 DUP3 PUSH2 0x4982 JUMP JUMPDEST PUSH2 0x4A1E DUP2 DUP6 PUSH2 0x33AC JUMP JUMPDEST SWAP4 POP PUSH2 0x4A29 DUP4 PUSH2 0x498D JUMP JUMPDEST DUP1 PUSH1 0x0 JUMPDEST DUP4 DUP2 LT ISZERO PUSH2 0x4A61 JUMPI PUSH2 0x4A3E DUP3 PUSH2 0x49E9 JUMP JUMPDEST PUSH2 0x4A48 DUP9 DUP3 PUSH2 0x33DC JUMP JUMPDEST SWAP8 POP PUSH2 0x4A53 DUP4 PUSH2 0x49FC JUMP JUMPDEST SWAP3 POP POP PUSH1 0x1 DUP2 ADD SWAP1 POP PUSH2 0x4A2D JUMP JUMPDEST POP DUP6 SWAP4 POP POP POP POP SWAP3 SWAP2 POP POP JUMP JUMPDEST PUSH1 0x0 PUSH1 0x60 DUP3 ADD SWAP1 POP DUP2 DUP2 SUB PUSH1 0x0 DUP4 ADD MSTORE PUSH2 0x4A88 DUP2 DUP7 PUSH2 0x34C7 JUMP JUMPDEST SWAP1 POP DUP2 DUP2 SUB PUSH1 0x20 DUP4 ADD MSTORE PUSH2 0x4A9C DUP2 DUP6 PUSH2 0x4A09 JUMP JUMPDEST SWAP1 POP PUSH2 0x4AAB PUSH1 0x40 DUP4 ADD DUP5 PUSH2 0x30D0 JUMP JUMPDEST SWAP5 SWAP4 POP POP POP POP JUMP INVALID LOG2 PUSH5 0x6970667358 0x22 SLT KECCAK256 0xF8 DUP6 SIGNEXTEND 0xEE 0x4C 0xA5 PUSH5 0xBA12A71F7B 0xE PUSH31 0x92A82CD5331E6C264CB7C1870CD1E77EA28F64736F6C634300081500330000 "},"methodIdentifiers":{"amendDocument(uint256,string,uint256)":"c2a6ebfb","createDocument(string,address[],uint256)":"cb561824","documentCount()":"a5b16b2e","emailToAddress(string)":"ea78dcbf","getAllRegisteredUsers()":"397388af","getCurrentSigner(uint256)":"e0cd77b0","getDocument(uint256)":"3f9b250a","getDocumentExpiry(uint256)":"78abeae1","getDocumentExpiryInfo(uint256)":"1bcb19ab","getRole(uint256,address)":"93552a3d","getSignTimestamp(uint256,address)":"1b1ab53d","getSignature(uint256,address)":"b3bcd5cf","getUserProfile(address)":"987ee156","hasSigned(uint256,address)":"709df8d9","isExpired(uint256)":"d9548e53","isSigner(address,uint256)":"4e46a1e8","isSingleUserDocument(uint256)":"1d639b2a","profiles(address)":"bbe15627","registerUser(string,string,string,uint256,string)":"b0cace06","registeredUsers(uint256)":"7259e0f8","revokeDocument(uint256,string)":"d0e2a019","signDocument(uint256,string)":"5308cfa9","signDocumentLegacy(uint256)":"5f372d56","verifySignature(uint256,address,bytes32,bytes)":"28d787d9"}}}}}