{"contracts/Docu3.sol":{"DocumentSign":{"abi":[{"anonymous":false,"inputs":[{"indexed":true,"internalType":"uint256","name":"docId","type":"uint256"},{"indexed":false,"internalType":"string","name":"newIpfsHash","type":"string"},{"indexed":true,"internalType":"address","name":"editor","type":"address"},{"indexed":false,"internalType":"uint256","name":"amendedAt","type":"uint256"}],"name":"DocumentAmended","type":"event"},{"anonymous":false,"inputs":[{"indexed":true,"internalType":"uint256","name":"docId","type":"uint256"},{"indexed":false,"internalType":"string","name":"ipfsHash","type":"string"},{"indexed":true,"internalType":"address","name":"creator","type":"address"},{"indexed":false,"internalType":"address[]","name":"signers","type":"address[]"},{"indexed":false,"internalType":"uint256","name":"createdAt","type":"uint256"}],"name":"DocumentCreated","type":"event"},{"anonymous":false,"inputs":[{"indexed":true,"internalType":"uint256","name":"docId","type":"uint256"},{"indexed":false,"internalType":"uint256","name":"expiredAt","type":"uint256"}],"name":"DocumentExpired","type":"event"},{"anonymous":false,"inputs":[{"indexed":true,"internalType":"uint256","name":"docId","type":"uint256"},{"indexed":true,"internalType":"address","name":"revoker","type":"address"},{"indexed":false,"internalType":"uint256","name":"revokedAt","type":"uint256"},{"indexed":false,"internalType":"string","name":"reason","type":"string"}],"name":"DocumentRevoked","type":"event"},{"anonymous":false,"inputs":[{"indexed":true,"internalType":"uint256","name":"docId","type":"uint256"},{"indexed":true,"internalType":"address","name":"signer","type":"address"},{"indexed":false,"internalType":"uint256","name":"signedAt","type":"uint256"}],"name":"DocumentSigned","type":"event"},{"anonymous":false,"inputs":[{"indexed":true,"internalType":"address","name":"user","type":"address"},{"indexed":false,"internalType":"string","name":"firstName","type":"string"},{"indexed":false,"internalType":"string","name":"familyName","type":"string"},{"indexed":false,"internalType":"string","name":"email","type":"string"},{"indexed":false,"internalType":"uint256","name":"dob","type":"uint256"},{"indexed":false,"internalType":"string","name":"publicKey","type":"string"}],"name":"UserRegistered","type":"event"},{"inputs":[{"internalType":"uint256","name":"_docId","type":"uint256"},{"internalType":"string","name":"_newIpfsHash","type":"string"},{"internalType":"uint256","name":"_newExpiry","type":"uint256"}],"name":"amendDocument","outputs":[],"stateMutability":"nonpayable","type":"function"},{"inputs":[{"internalType":"string","name":"_ipfsHash","type":"string"},{"internalType":"address[]","name":"_signers","type":"address[]"},{"internalType":"uint256","name":"_expiry","type":"uint256"}],"name":"createDocument","outputs":[{"internalType":"uint256","name":"","type":"uint256"}],"stateMutability":"nonpayable","type":"function"},{"inputs":[],"name":"documentCount","outputs":[{"internalType":"uint256","name":"","type":"uint256"}],"stateMutability":"view","type":"function"},{"inputs":[],"name":"getAllRegisteredUsers","outputs":[{"internalType":"address[]","name":"","type":"address[]"}],"stateMutability":"view","type":"function"},{"inputs":[{"internalType":"uint256","name":"_docId","type":"uint256"}],"name":"getCurrentSigner","outputs":[{"internalType":"address","name":"","type":"address"}],"stateMutability":"view","type":"function"},{"inputs":[{"internalType":"uint256","name":"_docId","type":"uint256"}],"name":"getDocument","outputs":[{"internalType":"string","name":"ipfsHash","type":"string"},{"internalType":"address","name":"creator","type":"address"},{"internalType":"address[]","name":"signers","type":"address[]"},{"internalType":"uint256","name":"createdAt","type":"uint256"},{"internalType":"uint256","name":"signatures","type":"uint256"},{"internalType":"bool","name":"fullySigned","type":"bool"},{"internalType":"bool","name":"isRevoked","type":"bool"}],"stateMutability":"view","type":"function"},{"inputs":[{"internalType":"uint256","name":"_docId","type":"uint256"},{"internalType":"address","name":"_user","type":"address"}],"name":"getRole","outputs":[{"internalType":"enum DocumentSign.Role","name":"","type":"uint8"}],"stateMutability":"view","type":"function"},{"inputs":[{"internalType":"uint256","name":"_docId","type":"uint256"},{"internalType":"address","name":"_signer","type":"address"}],"name":"getSignTimestamp","outputs":[{"internalType":"uint256","name":"","type":"uint256"}],"stateMutability":"view","type":"function"},{"inputs":[{"internalType":"address","name":"user","type":"address"}],"name":"getUserProfile","outputs":[{"internalType":"string","name":"firstName","type":"string"},{"internalType":"string","name":"familyName","type":"string"},{"internalType":"string","name":"email","type":"string"},{"internalType":"uint256","name":"dob","type":"uint256"},{"internalType":"bool","name":"isRegistered","type":"bool"},{"internalType":"string","name":"publicKey","type":"string"}],"stateMutability":"view","type":"function"},{"inputs":[{"internalType":"uint256","name":"_docId","type":"uint256"},{"internalType":"address","name":"_signer","type":"address"}],"name":"hasSigned","outputs":[{"internalType":"bool","name":"","type":"bool"}],"stateMutability":"view","type":"function"},{"inputs":[{"internalType":"uint256","name":"_docId","type":"uint256"}],"name":"isExpired","outputs":[{"internalType":"bool","name":"","type":"bool"}],"stateMutability":"view","type":"function"},{"inputs":[{"internalType":"address","name":"","type":"address"}],"name":"profiles","outputs":[{"internalType":"string","name":"firstName","type":"string"},{"internalType":"string","name":"familyName","type":"string"},{"internalType":"string","name":"email","type":"string"},{"internalType":"uint256","name":"dob","type":"uint256"},{"internalType":"bool","name":"isRegistered","type":"bool"},{"internalType":"string","name":"publicKey","type":"string"}],"stateMutability":"view","type":"function"},{"inputs":[{"internalType":"string","name":"firstName","type":"string"},{"internalType":"string","name":"familyName","type":"string"},{"internalType":"string","name":"email","type":"string"},{"internalType":"uint256","name":"dob","type":"uint256"},{"internalType":"string","name":"publicKey","type":"string"}],"name":"registerUser","outputs":[],"stateMutability":"nonpayable","type":"function"},{"inputs":[{"internalType":"uint256","name":"","type":"uint256"}],"name":"registeredUsers","outputs":[{"internalType":"address","name":"","type":"address"}],"stateMutability":"view","type":"function"},{"inputs":[{"internalType":"uint256","name":"_docId","type":"uint256"},{"internalType":"string","name":"_reason","type":"string"}],"name":"revokeDocument","outputs":[],"stateMutability":"nonpayable","type":"function"},{"inputs":[{"internalType":"uint256","name":"_docId","type":"uint256"}],"name":"signDocument","outputs":[],"stateMutability":"nonpayable","type":"function"}],"evm":{"bytecode":{"linkReferences":{},"object":"608060405234801561001057600080fd5b506134f9806100206000396000f3fe608060405234801561001057600080fd5b50600436106101005760003560e01c8063a5b16b2e11610097578063cb56182411610066578063cb561824146102f5578063d0e2a01914610325578063d9548e5314610341578063e0cd77b01461037157610100565b8063a5b16b2e1461026a578063b0cace0614610288578063bbe15627146102a4578063c2a6ebfb146102d957610100565b8063709df8d9116100d3578063709df8d9146101a55780637259e0f8146101d557806393552a3d14610205578063987ee1561461023557610100565b80631b1ab53d14610105578063397388af146101355780633f9b250a1461015357806363a50d5014610189575b600080fd5b61011f600480360381019061011a9190612153565b6103a1565b60405161012c91906121a2565b60405180910390f35b61013d6103fe565b60405161014a919061227b565b60405180910390f35b61016d6004803603810190610168919061229d565b61048c565b6040516101809796959493929190612384565b60405180910390f35b6101a3600480360381019061019e919061229d565b610740565b005b6101bf60048036038101906101ba9190612153565b610b95565b6040516101cc9190612401565b60405180910390f35b6101ef60048036038101906101ea919061229d565b610bff565b6040516101fc919061241c565b60405180910390f35b61021f600480360381019061021a9190612153565b610c3e565b60405161022c91906124ae565b60405180910390f35b61024f600480360381019061024a91906124c9565b610d0a565b604051610261969594939291906124f6565b60405180910390f35b610272611053565b60405161027f91906121a2565b60405180910390f35b6102a2600480360381019061029d91906126a8565b611059565b005b6102be60048036038101906102b991906124c9565b61129d565b6040516102d0969594939291906124f6565b60405180910390f35b6102f360048036038101906102ee9190612793565b611506565b005b61030f600480360381019061030a91906128ca565b6118ff565b60405161031c91906121a2565b60405180910390f35b61033f600480360381019061033a9190612955565b611d89565b005b61035b6004803603810190610356919061229d565b611fa1565b6040516103689190612401565b60405180910390f35b61038b6004803603810190610386919061229d565b611fd8565b604051610398919061241c565b60405180910390f35b600080600084815260200190815260200160002060050160008373ffffffffffffffffffffffffffffffffffffffff1673ffffffffffffffffffffffffffffffffffffffff16815260200190815260200160002054905092915050565b6060600380548060200260200160405190810160405280929190818152602001828054801561048257602002820191906000526020600020905b8160009054906101000a900473ffffffffffffffffffffffffffffffffffffffff1673ffffffffffffffffffffffffffffffffffffffff1681526020019060010190808311610438575b5050505050905090565b60606000606060008060008060008060008a815260200190815260200160002090508060080160019054906101000a900460ff166104ff576040517f08c379a00000000000000000000000000000000000000000000000000000000081526004016104f6906129fd565b60405180910390fd5b60006001905060005b82600201805490508110156105c65782600401600084600201838154811061053357610532612a1d565b5b9060005260206000200160009054906101000a900473ffffffffffffffffffffffffffffffffffffffff1673ffffffffffffffffffffffffffffffffffffffff1673ffffffffffffffffffffffffffffffffffffffff16815260200190815260200160002060009054906101000a900460ff166105b357600091506105c6565b80806105be90612a7b565b915050610508565b50816000018260010160009054906101000a900473ffffffffffffffffffffffffffffffffffffffff168360020184600601548560070154858760080160009054906101000a900460ff1686805461061d90612af2565b80601f016020809104026020016040519081016040528092919081815260200182805461064990612af2565b80156106965780601f1061066b57610100808354040283529160200191610696565b820191906000526020600020905b81548152906001019060200180831161067957829003601f168201915b505050505096508480548060200260200160405190810160405280929190818152602001828054801561071e57602002820191906000526020600020905b8160009054906101000a900473ffffffffffffffffffffffffffffffffffffffff1673ffffffffffffffffffffffffffffffffffffffff16815260200190600101908083116106d4575b5050505050945098509850985098509850985098505050919395979092949650565b8060008082815260200190815260200160002060080160019054906101000a900460ff166107a3576040517f08c379a000000000000000000000000000000000000000000000000000000000815260040161079a906129fd565b60405180910390fd5b6002808111156107b6576107b5612437565b5b60008083815260200190815260200160002060030160003373ffffffffffffffffffffffffffffffffffffffff1673ffffffffffffffffffffffffffffffffffffffff16815260200190815260200160002060009054906101000a900460ff16600281111561082857610827612437565b5b14610868576040517f08c379a000000000000000000000000000000000000000000000000000000000815260040161085f90612b6f565b60405180910390fd5b8160008082815260200190815260200160002060080160009054906101000a900460ff16156108cc576040517f08c379a00000000000000000000000000000000000000000000000000000000081526004016108c390612bdb565b60405180910390fd5b600080600085815260200190815260200160002090506108eb84611fa1565b1561092b576040517f08c379a000000000000000000000000000000000000000000000000000000000815260040161092290612c47565b60405180910390fd5b8060040160003373ffffffffffffffffffffffffffffffffffffffff1673ffffffffffffffffffffffffffffffffffffffff16815260200190815260200160002060009054906101000a900460ff16156109ba576040517f08c379a00000000000000000000000000000000000000000000000000000000081526004016109b190612cb3565b60405180910390fd5b3373ffffffffffffffffffffffffffffffffffffffff168160020182600a0154815481106109eb576109ea612a1d565b5b9060005260206000200160009054906101000a900473ffffffffffffffffffffffffffffffffffffffff1673ffffffffffffffffffffffffffffffffffffffff1614610a6c576040517f08c379a0000000000000000000000000000000000000000000000000000000008152600401610a6390612d1f565b60405180910390fd5b60018160040160003373ffffffffffffffffffffffffffffffffffffffff1673ffffffffffffffffffffffffffffffffffffffff16815260200190815260200160002060006101000a81548160ff021916908315150217905550428160050160003373ffffffffffffffffffffffffffffffffffffffff1673ffffffffffffffffffffffffffffffffffffffff16815260200190815260200160002081905550806007016000815480929190610b2190612a7b565b919050555080600a016000815480929190610b3b90612a7b565b91905055503373ffffffffffffffffffffffffffffffffffffffff16847fe7324c4138a9f505bfe9d1de2fbfe2aef2ef2fee70ea9d93b5b2d348a1bbdd2a42604051610b8791906121a2565b60405180910390a350505050565b600080600084815260200190815260200160002060040160008373ffffffffffffffffffffffffffffffffffffffff1673ffffffffffffffffffffffffffffffffffffffff16815260200190815260200160002060009054906101000a900460ff16905092915050565b60038181548110610c0f57600080fd5b906000526020600020016000915054906101000a900473ffffffffffffffffffffffffffffffffffffffff1681565b600080600084815260200190815260200160002060080160019054906101000a900460ff16610ca2576040517f08c379a0000000000000000000000000000000000000000000000000000000008152600401610c99906129fd565b60405180910390fd5b60008084815260200190815260200160002060030160008373ffffffffffffffffffffffffffffffffffffffff1673ffffffffffffffffffffffffffffffffffffffff16815260200190815260200160002060009054906101000a900460ff16905092915050565b60608060606000806060600260008873ffffffffffffffffffffffffffffffffffffffff1673ffffffffffffffffffffffffffffffffffffffff16815260200190815260200160002060040160009054906101000a900460ff16610da3576040517f08c379a0000000000000000000000000000000000000000000000000000000008152600401610d9a90612d8b565b60405180910390fd5b6000600260008973ffffffffffffffffffffffffffffffffffffffff1673ffffffffffffffffffffffffffffffffffffffff168152602001908152602001600020905080600001816001018260020183600301548460040160009054906101000a900460ff1685600501858054610e1990612af2565b80601f0160208091040260200160405190810160405280929190818152602001828054610e4590612af2565b8015610e925780601f10610e6757610100808354040283529160200191610e92565b820191906000526020600020905b815481529060010190602001808311610e7557829003601f168201915b50505050509550848054610ea590612af2565b80601f0160208091040260200160405190810160405280929190818152602001828054610ed190612af2565b8015610f1e5780601f10610ef357610100808354040283529160200191610f1e565b820191906000526020600020905b815481529060010190602001808311610f0157829003601f168201915b50505050509450838054610f3190612af2565b80601f0160208091040260200160405190810160405280929190818152602001828054610f5d90612af2565b8015610faa5780601f10610f7f57610100808354040283529160200191610faa565b820191906000526020600020905b815481529060010190602001808311610f8d57829003601f168201915b50505050509350808054610fbd90612af2565b80601f0160208091040260200160405190810160405280929190818152602001828054610fe990612af2565b80156110365780601f1061100b57610100808354040283529160200191611036565b820191906000526020600020905b81548152906001019060200180831161101957829003601f168201915b505050505090509650965096509650965096505091939550919395565b60015481565b600260003373ffffffffffffffffffffffffffffffffffffffff1673ffffffffffffffffffffffffffffffffffffffff16815260200190815260200160002060040160009054906101000a900460ff16156110e9576040517f08c379a00000000000000000000000000000000000000000000000000000000081526004016110e090612df7565b60405180910390fd5b6040518060c0016040528086815260200185815260200184815260200183815260200160011515815260200182815250600260003373ffffffffffffffffffffffffffffffffffffffff1673ffffffffffffffffffffffffffffffffffffffff168152602001908152602001600020600082015181600001908161116d9190612fc3565b5060208201518160010190816111839190612fc3565b5060408201518160020190816111999190612fc3565b506060820151816003015560808201518160040160006101000a81548160ff02191690831515021790555060a08201518160050190816111d99190612fc3565b509050506003339080600181540180825580915050600190039060005260206000200160009091909190916101000a81548173ffffffffffffffffffffffffffffffffffffffff021916908373ffffffffffffffffffffffffffffffffffffffff1602179055503373ffffffffffffffffffffffffffffffffffffffff167f78088310123490d67595b7b0e336cb2e2fc0f7df27ddd8950b8656c84413fb1b868686868660405161128e959493929190613095565b60405180910390a25050505050565b60026020528060005260406000206000915090508060000180546112c090612af2565b80601f01602080910402602001604051908101604052809291908181526020018280546112ec90612af2565b80156113395780601f1061130e57610100808354040283529160200191611339565b820191906000526020600020905b81548152906001019060200180831161131c57829003601f168201915b50505050509080600101805461134e90612af2565b80601f016020809104026020016040519081016040528092919081815260200182805461137a90612af2565b80156113c75780601f1061139c576101008083540402835291602001916113c7565b820191906000526020600020905b8154815290600101906020018083116113aa57829003601f168201915b5050505050908060020180546113dc90612af2565b80601f016020809104026020016040519081016040528092919081815260200182805461140890612af2565b80156114555780601f1061142a57610100808354040283529160200191611455565b820191906000526020600020905b81548152906001019060200180831161143857829003601f168201915b5050505050908060030154908060040160009054906101000a900460ff169080600501805461148390612af2565b80601f01602080910402602001604051908101604052809291908181526020018280546114af90612af2565b80156114fc5780601f106114d1576101008083540402835291602001916114fc565b820191906000526020600020905b8154815290600101906020018083116114df57829003601f168201915b5050505050905086565b8260008082815260200190815260200160002060080160019054906101000a900460ff16611569576040517f08c379a0000000000000000000000000000000000000000000000000000000008152600401611560906129fd565b60405180910390fd5b6001600281111561157d5761157c612437565b5b60008083815260200190815260200160002060030160003373ffffffffffffffffffffffffffffffffffffffff1673ffffffffffffffffffffffffffffffffffffffff16815260200190815260200160002060009054906101000a900460ff1660028111156115ef576115ee612437565b5b1461162f576040517f08c379a000000000000000000000000000000000000000000000000000000000815260040161162690613150565b60405180910390fd5b8360008082815260200190815260200160002060080160009054906101000a900460ff1615611693576040517f08c379a000000000000000000000000000000000000000000000000000000000815260040161168a90612bdb565b60405180910390fd5b600080600087815260200190815260200160002090506116b286611fa1565b156116f2576040517f08c379a00000000000000000000000000000000000000000000000000000000081526004016116e990612c47565b60405180910390fd5b60006001905060005b82600201805490508110156117b95782600401600084600201838154811061172657611725612a1d565b5b9060005260206000200160009054906101000a900473ffffffffffffffffffffffffffffffffffffffff1673ffffffffffffffffffffffffffffffffffffffff1673ffffffffffffffffffffffffffffffffffffffff16815260200190815260200160002060009054906101000a900460ff166117a657600091506117b9565b80806117b190612a7b565b9150506116fb565b5080156117fb576040517f08c379a00000000000000000000000000000000000000000000000000000000081526004016117f2906131e2565b60405180910390fd5b600086511161183f576040517f08c379a00000000000000000000000000000000000000000000000000000000081526004016118369061324e565b60405180910390fd5b6000851461189357428511611889576040517f08c379a0000000000000000000000000000000000000000000000000000000008152600401611880906132ba565b60405180910390fd5b8482600901819055505b858260000190816118a49190612fc3565b503373ffffffffffffffffffffffffffffffffffffffff16877fd4af573228b33e73cdfacac0a74b920c7b511e2ff826fb63a2e0bb5790b54ebc88426040516118ee9291906132da565b60405180910390a350505050505050565b600080845111611944576040517f08c379a000000000000000000000000000000000000000000000000000000000815260040161193b9061324e565b60405180910390fd5b6000835111611988576040517f08c379a000000000000000000000000000000000000000000000000000000000815260040161197f90613356565b60405180910390fd5b600082148061199657504282115b6119d5576040517f08c379a00000000000000000000000000000000000000000000000000000000081526004016119cc906132ba565b60405180910390fd5b600160008154809291906119e890612a7b565b919050555060008060006001548152602001908152602001600020905084816000019081611a169190612fc3565b50338160010160006101000a81548173ffffffffffffffffffffffffffffffffffffffff021916908373ffffffffffffffffffffffffffffffffffffffff16021790555042816006018190555060018160080160016101000a81548160ff02191690831515021790555082816009018190555060018160030160003373ffffffffffffffffffffffffffffffffffffffff1673ffffffffffffffffffffffffffffffffffffffff16815260200190815260200160002060006101000a81548160ff02191690836002811115611aee57611aed612437565b5b021790555060005b8451811015611d2657600073ffffffffffffffffffffffffffffffffffffffff16858281518110611b2a57611b29612a1d565b5b602002602001015173ffffffffffffffffffffffffffffffffffffffff1603611b88576040517f08c379a0000000000000000000000000000000000000000000000000000000008152600401611b7f906133c2565b60405180910390fd5b3373ffffffffffffffffffffffffffffffffffffffff16858281518110611bb257611bb1612a1d565b5b602002602001015173ffffffffffffffffffffffffffffffffffffffff1603611c10576040517f08c379a0000000000000000000000000000000000000000000000000000000008152600401611c079061342e565b60405180910390fd5b81600201858281518110611c2757611c26612a1d565b5b60200260200101519080600181540180825580915050600190039060005260206000200160009091909190916101000a81548173ffffffffffffffffffffffffffffffffffffffff021916908373ffffffffffffffffffffffffffffffffffffffff1602179055506002826003016000878481518110611caa57611ca9612a1d565b5b602002602001015173ffffffffffffffffffffffffffffffffffffffff1673ffffffffffffffffffffffffffffffffffffffff16815260200190815260200160002060006101000a81548160ff02191690836002811115611d0e57611d0d612437565b5b02179055508080611d1e90612a7b565b915050611af6565b503373ffffffffffffffffffffffffffffffffffffffff166001547f0f34f336d6e1cc231d161403dd583f287c90d4e144120937a223d9531afe848c878742604051611d749392919061344e565b60405180910390a36001549150509392505050565b8160008082815260200190815260200160002060080160019054906101000a900460ff16611dec576040517f08c379a0000000000000000000000000000000000000000000000000000000008152600401611de3906129fd565b60405180910390fd5b60016002811115611e0057611dff612437565b5b60008083815260200190815260200160002060030160003373ffffffffffffffffffffffffffffffffffffffff1673ffffffffffffffffffffffffffffffffffffffff16815260200190815260200160002060009054906101000a900460ff166002811115611e7257611e71612437565b5b14611eb2576040517f08c379a0000000000000000000000000000000000000000000000000000000008152600401611ea990613150565b60405180910390fd5b8260008082815260200190815260200160002060080160009054906101000a900460ff1615611f16576040517f08c379a0000000000000000000000000000000000000000000000000000000008152600401611f0d90612bdb565b60405180910390fd5b6000806000868152602001908152602001600020905060018160080160006101000a81548160ff0219169083151502179055503373ffffffffffffffffffffffffffffffffffffffff16857f7a58ff517c00037031f8886d9305cec9b4a44d1c1a04fc2ef4d7a5d7a09eede54287604051611f92929190613493565b60405180910390a35050505050565b60008060008084815260200190815260200160002090506000816009015414158015611fd05750806009015442115b915050919050565b60008060008084815260200190815260200160002090508060080160019054906101000a900460ff16612040576040517f08c379a0000000000000000000000000000000000000000000000000000000008152600401612037906129fd565b60405180910390fd5b806002018054905081600a015410156120a0578060020181600a01548154811061206d5761206c612a1d565b5b9060005260206000200160009054906101000a900473ffffffffffffffffffffffffffffffffffffffff169150506120a6565b60009150505b919050565b6000604051905090565b600080fd5b600080fd5b6000819050919050565b6120d2816120bf565b81146120dd57600080fd5b50565b6000813590506120ef816120c9565b92915050565b600073ffffffffffffffffffffffffffffffffffffffff82169050919050565b6000612120826120f5565b9050919050565b61213081612115565b811461213b57600080fd5b50565b60008135905061214d81612127565b92915050565b6000806040838503121561216a576121696120b5565b5b6000612178858286016120e0565b92505060206121898582860161213e565b9150509250929050565b61219c816120bf565b82525050565b60006020820190506121b76000830184612193565b92915050565b600081519050919050565b600082825260208201905092915050565b6000819050602082019050919050565b6121f281612115565b82525050565b600061220483836121e9565b60208301905092915050565b6000602082019050919050565b6000612228826121bd565b61223281856121c8565b935061223d836121d9565b8060005b8381101561226e57815161225588826121f8565b975061226083612210565b925050600181019050612241565b5085935050505092915050565b60006020820190508181036000830152612295818461221d565b905092915050565b6000602082840312156122b3576122b26120b5565b5b60006122c1848285016120e0565b91505092915050565b600081519050919050565b600082825260208201905092915050565b60005b838110156123045780820151818401526020810190506122e9565b60008484015250505050565b6000601f19601f8301169050919050565b600061232c826122ca565b61233681856122d5565b93506123468185602086016122e6565b61234f81612310565b840191505092915050565b61236381612115565b82525050565b60008115159050919050565b61237e81612369565b82525050565b600060e082019050818103600083015261239e818a612321565b90506123ad602083018961235a565b81810360408301526123bf818861221d565b90506123ce6060830187612193565b6123db6080830186612193565b6123e860a0830185612375565b6123f560c0830184612375565b98975050505050505050565b60006020820190506124166000830184612375565b92915050565b6000602082019050612431600083018461235a565b92915050565b7f4e487b7100000000000000000000000000000000000000000000000000000000600052602160045260246000fd5b6003811061247757612476612437565b5b50565b600081905061248882612466565b919050565b60006124988261247a565b9050919050565b6124a88161248d565b82525050565b60006020820190506124c3600083018461249f565b92915050565b6000602082840312156124df576124de6120b5565b5b60006124ed8482850161213e565b91505092915050565b600060c08201905081810360008301526125108189612321565b905081810360208301526125248188612321565b905081810360408301526125388187612321565b90506125476060830186612193565b6125546080830185612375565b81810360a08301526125668184612321565b9050979650505050505050565b600080fd5b600080fd5b7f4e487b7100000000000000000000000000000000000000000000000000000000600052604160045260246000fd5b6125b582612310565b810181811067ffffffffffffffff821117156125d4576125d361257d565b5b80604052505050565b60006125e76120ab565b90506125f382826125ac565b919050565b600067ffffffffffffffff8211156126135761261261257d565b5b61261c82612310565b9050602081019050919050565b82818337600083830152505050565b600061264b612646846125f8565b6125dd565b90508281526020810184848401111561266757612666612578565b5b612672848285612629565b509392505050565b600082601f83011261268f5761268e612573565b5b813561269f848260208601612638565b91505092915050565b600080600080600060a086880312156126c4576126c36120b5565b5b600086013567ffffffffffffffff8111156126e2576126e16120ba565b5b6126ee8882890161267a565b955050602086013567ffffffffffffffff81111561270f5761270e6120ba565b5b61271b8882890161267a565b945050604086013567ffffffffffffffff81111561273c5761273b6120ba565b5b6127488882890161267a565b9350506060612759888289016120e0565b925050608086013567ffffffffffffffff81111561277a576127796120ba565b5b6127868882890161267a565b9150509295509295909350565b6000806000606084860312156127ac576127ab6120b5565b5b60006127ba868287016120e0565b935050602084013567ffffffffffffffff8111156127db576127da6120ba565b5b6127e78682870161267a565b92505060406127f8868287016120e0565b9150509250925092565b600067ffffffffffffffff82111561281d5761281c61257d565b5b602082029050602081019050919050565b600080fd5b600061284661284184612802565b6125dd565b905080838252602082019050602084028301858111156128695761286861282e565b5b835b81811015612892578061287e888261213e565b84526020840193505060208101905061286b565b5050509392505050565b600082601f8301126128b1576128b0612573565b5b81356128c1848260208601612833565b91505092915050565b6000806000606084860312156128e3576128e26120b5565b5b600084013567ffffffffffffffff811115612901576129006120ba565b5b61290d8682870161267a565b935050602084013567ffffffffffffffff81111561292e5761292d6120ba565b5b61293a8682870161289c565b925050604061294b868287016120e0565b9150509250925092565b6000806040838503121561296c5761296b6120b5565b5b600061297a858286016120e0565b925050602083013567ffffffffffffffff81111561299b5761299a6120ba565b5b6129a78582860161267a565b9150509250929050565b7f446f63756d656e7420646f6573206e6f74206578697374000000000000000000600082015250565b60006129e76017836122d5565b91506129f2826129b1565b602082019050919050565b60006020820190508181036000830152612a16816129da565b9050919050565b7f4e487b7100000000000000000000000000000000000000000000000000000000600052603260045260246000fd5b7f4e487b7100000000000000000000000000000000000000000000000000000000600052601160045260246000fd5b6000612a86826120bf565b91507fffffffffffffffffffffffffffffffffffffffffffffffffffffffffffffffff8203612ab857612ab7612a4c565b5b600182019050919050565b7f4e487b7100000000000000000000000000000000000000000000000000000000600052602260045260246000fd5b60006002820490506001821680612b0a57607f821691505b602082108103612b1d57612b1c612ac3565b5b50919050565b7f4e6f7420617574686f72697a6564207369676e65720000000000000000000000600082015250565b6000612b596015836122d5565b9150612b6482612b23565b602082019050919050565b60006020820190508181036000830152612b8881612b4c565b9050919050565b7f446f63756d656e74206973207265766f6b656400000000000000000000000000600082015250565b6000612bc56013836122d5565b9150612bd082612b8f565b602082019050919050565b60006020820190508181036000830152612bf481612bb8565b9050919050565b7f446f63756d656e74206578706972656400000000000000000000000000000000600082015250565b6000612c316010836122d5565b9150612c3c82612bfb565b602082019050919050565b60006020820190508181036000830152612c6081612c24565b9050919050565b7f416c7265616479207369676e6564000000000000000000000000000000000000600082015250565b6000612c9d600e836122d5565b9150612ca882612c67565b602082019050919050565b60006020820190508181036000830152612ccc81612c90565b9050919050565b7f4e6f7420796f7572207475726e20746f207369676e0000000000000000000000600082015250565b6000612d096015836122d5565b9150612d1482612cd3565b602082019050919050565b60006020820190508181036000830152612d3881612cfc565b9050919050565b7f55736572206e6f74207265676973746572656400000000000000000000000000600082015250565b6000612d756013836122d5565b9150612d8082612d3f565b602082019050919050565b60006020820190508181036000830152612da481612d68565b9050919050565b7f416c726561647920726567697374657265640000000000000000000000000000600082015250565b6000612de16012836122d5565b9150612dec82612dab565b602082019050919050565b60006020820190508181036000830152612e1081612dd4565b9050919050565b60008190508160005260206000209050919050565b60006020601f8301049050919050565b600082821b905092915050565b600060088302612e797fffffffffffffffffffffffffffffffffffffffffffffffffffffffffffffffff82612e3c565b612e838683612e3c565b95508019841693508086168417925050509392505050565b6000819050919050565b6000612ec0612ebb612eb6846120bf565b612e9b565b6120bf565b9050919050565b6000819050919050565b612eda83612ea5565b612eee612ee682612ec7565b848454612e49565b825550505050565b600090565b612f03612ef6565b612f0e818484612ed1565b505050565b5b81811015612f3257612f27600082612efb565b600181019050612f14565b5050565b601f821115612f7757612f4881612e17565b612f5184612e2c565b81016020851015612f60578190505b612f74612f6c85612e2c565b830182612f13565b50505b505050565b600082821c905092915050565b6000612f9a60001984600802612f7c565b1980831691505092915050565b6000612fb38383612f89565b9150826002028217905092915050565b612fcc826122ca565b67ffffffffffffffff811115612fe557612fe461257d565b5b612fef8254612af2565b612ffa828285612f36565b600060209050601f83116001811461302d576000841561301b578287015190505b6130258582612fa7565b86555061308d565b601f19841661303b86612e17565b60005b828110156130635784890151825560018201915060208501945060208101905061303e565b86831015613080578489015161307c601f891682612f89565b8355505b6001600288020188555050505b505050505050565b600060a08201905081810360008301526130af8188612321565b905081810360208301526130c38187612321565b905081810360408301526130d78186612321565b90506130e66060830185612193565b81810360808301526130f88184612321565b90509695505050505050565b7f4e6f7420646f63756d656e74206f776e65720000000000000000000000000000600082015250565b600061313a6012836122d5565b915061314582613104565b602082019050919050565b600060208201905081810360008301526131698161312d565b9050919050565b7f43616e6e6f7420616d656e642066756c6c79207369676e656420646f63756d6560008201527f6e74000000000000000000000000000000000000000000000000000000000000602082015250565b60006131cc6022836122d5565b91506131d782613170565b604082019050919050565b600060208201905081810360008301526131fb816131bf565b9050919050565b7f4950465320686173682072657175697265640000000000000000000000000000600082015250565b60006132386012836122d5565b915061324382613202565b602082019050919050565b600060208201905081810360008301526132678161322b565b9050919050565b7f457870697279206d75737420626520696e207468652066757475726500000000600082015250565b60006132a4601c836122d5565b91506132af8261326e565b602082019050919050565b600060208201905081810360008301526132d381613297565b9050919050565b600060408201905081810360008301526132f48185612321565b90506133036020830184612193565b9392505050565b7f4174206c65617374206f6e65207369676e657220726571756972656400000000600082015250565b6000613340601c836122d5565b915061334b8261330a565b602082019050919050565b6000602082019050818103600083015261336f81613333565b9050919050565b7f496e76616c6964207369676e6572206164647265737300000000000000000000600082015250565b60006133ac6016836122d5565b91506133b782613376565b602082019050919050565b600060208201905081810360008301526133db8161339f565b9050919050565b7f4f776e65722063616e6e6f74206265207369676e657200000000000000000000600082015250565b60006134186016836122d5565b9150613423826133e2565b602082019050919050565b600060208201905081810360008301526134478161340b565b9050919050565b600060608201905081810360008301526134688186612321565b9050818103602083015261347c818561221d565b905061348b6040830184612193565b949350505050565b60006040820190506134a86000830185612193565b81810360208301526134ba8184612321565b9050939250505056fea2646970667358221220e245c14a63d6ea553ae97239b2c50f79036aa50845a21bd3ddd33edb12e4cea564736f6c63430008150033","opcodes":"PUSH1 0x80 PUSH1 0x40 MSTORE CALLVALUE DUP1 ISZERO PUSH2 0x10 JUMPI PUSH1 0x0 DUP1 REVERT JUMPDEST POP PUSH2 0x34F9 DUP1 PUSH2 0x20 PUSH1 0x0 CODECOPY PUSH1 0x0 RETURN INVALID PUSH1 0x80 PUSH1 0x40 MSTORE CALLVALUE DUP1 ISZERO PUSH2 0x10 JUMPI PUSH1 0x0 DUP1 REVERT JUMPDEST POP PUSH1 0x4 CALLDATASIZE LT PUSH2 0x100 JUMPI PUSH1 0x0 CALLDATALOAD PUSH1 0xE0 SHR DUP1 PUSH4 0xA5B16B2E GT PUSH2 0x97 JUMPI DUP1 PUSH4 0xCB561824 GT PUSH2 0x66 JUMPI DUP1 PUSH4 0xCB561824 EQ PUSH2 0x2F5 JUMPI DUP1 PUSH4 0xD0E2A019 EQ PUSH2 0x325 JUMPI DUP1 PUSH4 0xD9548E53 EQ PUSH2 0x341 JUMPI DUP1 PUSH4 0xE0CD77B0 EQ PUSH2 0x371 JUMPI PUSH2 0x100 JUMP JUMPDEST DUP1 PUSH4 0xA5B16B2E EQ PUSH2 0x26A JUMPI DUP1 PUSH4 0xB0CACE06 EQ PUSH2 0x288 JUMPI DUP1 PUSH4 0xBBE15627 EQ PUSH2 0x2A4 JUMPI DUP1 PUSH4 0xC2A6EBFB EQ PUSH2 0x2D9 JUMPI PUSH2 0x100 JUMP JUMPDEST DUP1 PUSH4 0x709DF8D9 GT PUSH2 0xD3 JUMPI DUP1 PUSH4 0x709DF8D9 EQ PUSH2 0x1A5 JUMPI DUP1 PUSH4 0x7259E0F8 EQ PUSH2 0x1D5 JUMPI DUP1 PUSH4 0x93552A3D EQ PUSH2 0x205 JUMPI DUP1 PUSH4 0x987EE156 EQ PUSH2 0x235 JUMPI PUSH2 0x100 JUMP JUMPDEST DUP1 PUSH4 0x1B1AB53D EQ PUSH2 0x105 JUMPI DUP1 PUSH4 0x397388AF EQ PUSH2 0x135 JUMPI DUP1 PUSH4 0x3F9B250A EQ PUSH2 0x153 JUMPI DUP1 PUSH4 0x63A50D50 EQ PUSH2 0x189 JUMPI JUMPDEST PUSH1 0x0 DUP1 REVERT JUMPDEST PUSH2 0x11F PUSH1 0x4 DUP1 CALLDATASIZE SUB DUP2 ADD SWAP1 PUSH2 0x11A SWAP2 SWAP1 PUSH2 0x2153 JUMP JUMPDEST PUSH2 0x3A1 JUMP JUMPDEST PUSH1 0x40 MLOAD PUSH2 0x12C SWAP2 SWAP1 PUSH2 0x21A2 JUMP JUMPDEST PUSH1 0x40 MLOAD DUP1 SWAP2 SUB SWAP1 RETURN JUMPDEST PUSH2 0x13D PUSH2 0x3FE JUMP JUMPDEST PUSH1 0x40 MLOAD PUSH2 0x14A SWAP2 SWAP1 PUSH2 0x227B JUMP JUMPDEST PUSH1 0x40 MLOAD DUP1 SWAP2 SUB SWAP1 RETURN JUMPDEST PUSH2 0x16D PUSH1 0x4 DUP1 CALLDATASIZE SUB DUP2 ADD SWAP1 PUSH2 0x168 SWAP2 SWAP1 PUSH2 0x229D JUMP JUMPDEST PUSH2 0x48C JUMP JUMPDEST PUSH1 0x40 MLOAD PUSH2 0x180 SWAP8 SWAP7 SWAP6 SWAP5 SWAP4 SWAP3 SWAP2 SWAP1 PUSH2 0x2384 JUMP JUMPDEST PUSH1 0x40 MLOAD DUP1 SWAP2 SUB SWAP1 RETURN JUMPDEST PUSH2 0x1A3 PUSH1 0x4 DUP1 CALLDATASIZE SUB DUP2 ADD SWAP1 PUSH2 0x19E SWAP2 SWAP1 PUSH2 0x229D JUMP JUMPDEST PUSH2 0x740 JUMP JUMPDEST STOP JUMPDEST PUSH2 0x1BF PUSH1 0x4 DUP1 CALLDATASIZE SUB DUP2 ADD SWAP1 PUSH2 0x1BA SWAP2 SWAP1 PUSH2 0x2153 JUMP JUMPDEST PUSH2 0xB95 JUMP JUMPDEST PUSH1 0x40 MLOAD PUSH2 0x1CC SWAP2 SWAP1 PUSH2 0x2401 JUMP JUMPDEST PUSH1 0x40 MLOAD DUP1 SWAP2 SUB SWAP1 RETURN JUMPDEST PUSH2 0x1EF PUSH1 0x4 DUP1 CALLDATASIZE SUB DUP2 ADD SWAP1 PUSH2 0x1EA SWAP2 SWAP1 PUSH2 0x229D JUMP JUMPDEST PUSH2 0xBFF JUMP JUMPDEST PUSH1 0x40 MLOAD PUSH2 0x1FC SWAP2 SWAP1 PUSH2 0x241C JUMP JUMPDEST PUSH1 0x40 MLOAD DUP1 SWAP2 SUB SWAP1 RETURN JUMPDEST PUSH2 0x21F PUSH1 0x4 DUP1 CALLDATASIZE SUB DUP2 ADD SWAP1 PUSH2 0x21A SWAP2 SWAP1 PUSH2 0x2153 JUMP JUMPDEST PUSH2 0xC3E JUMP JUMPDEST PUSH1 0x40 MLOAD PUSH2 0x22C SWAP2 SWAP1 PUSH2 0x24AE JUMP JUMPDEST PUSH1 0x40 MLOAD DUP1 SWAP2 SUB SWAP1 RETURN JUMPDEST PUSH2 0x24F PUSH1 0x4 DUP1 CALLDATASIZE SUB DUP2 ADD SWAP1 PUSH2 0x24A SWAP2 SWAP1 PUSH2 0x24C9 JUMP JUMPDEST PUSH2 0xD0A JUMP JUMPDEST PUSH1 0x40 MLOAD PUSH2 0x261 SWAP7 SWAP6 SWAP5 SWAP4 SWAP3 SWAP2 SWAP1 PUSH2 0x24F6 JUMP JUMPDEST PUSH1 0x40 MLOAD DUP1 SWAP2 SUB SWAP1 RETURN JUMPDEST PUSH2 0x272 PUSH2 0x1053 JUMP JUMPDEST PUSH1 0x40 MLOAD PUSH2 0x27F SWAP2 SWAP1 PUSH2 0x21A2 JUMP JUMPDEST PUSH1 0x40 MLOAD DUP1 SWAP2 SUB SWAP1 RETURN JUMPDEST PUSH2 0x2A2 PUSH1 0x4 DUP1 CALLDATASIZE SUB DUP2 ADD SWAP1 PUSH2 0x29D SWAP2 SWAP1 PUSH2 0x26A8 JUMP JUMPDEST PUSH2 0x1059 JUMP JUMPDEST STOP JUMPDEST PUSH2 0x2BE PUSH1 0x4 DUP1 CALLDATASIZE SUB DUP2 ADD SWAP1 PUSH2 0x2B9 SWAP2 SWAP1 PUSH2 0x24C9 JUMP JUMPDEST PUSH2 0x129D JUMP JUMPDEST PUSH1 0x40 MLOAD PUSH2 0x2D0 SWAP7 SWAP6 SWAP5 SWAP4 SWAP3 SWAP2 SWAP1 PUSH2 0x24F6 JUMP JUMPDEST PUSH1 0x40 MLOAD DUP1 SWAP2 SUB SWAP1 RETURN JUMPDEST PUSH2 0x2F3 PUSH1 0x4 DUP1 CALLDATASIZE SUB DUP2 ADD SWAP1 PUSH2 0x2EE SWAP2 SWAP1 PUSH2 0x2793 JUMP JUMPDEST PUSH2 0x1506 JUMP JUMPDEST STOP JUMPDEST PUSH2 0x30F PUSH1 0x4 DUP1 CALLDATASIZE SUB DUP2 ADD SWAP1 PUSH2 0x30A SWAP2 SWAP1 PUSH2 0x28CA JUMP JUMPDEST PUSH2 0x18FF JUMP JUMPDEST PUSH1 0x40 MLOAD PUSH2 0x31C SWAP2 SWAP1 PUSH2 0x21A2 JUMP JUMPDEST PUSH1 0x40 MLOAD DUP1 SWAP2 SUB SWAP1 RETURN JUMPDEST PUSH2 0x33F PUSH1 0x4 DUP1 CALLDATASIZE SUB DUP2 ADD SWAP1 PUSH2 0x33A SWAP2 SWAP1 PUSH2 0x2955 JUMP JUMPDEST PUSH2 0x1D89 JUMP JUMPDEST STOP JUMPDEST PUSH2 0x35B PUSH1 0x4 DUP1 CALLDATASIZE SUB DUP2 ADD SWAP1 PUSH2 0x356 SWAP2 SWAP1 PUSH2 0x229D JUMP JUMPDEST PUSH2 0x1FA1 JUMP JUMPDEST PUSH1 0x40 MLOAD PUSH2 0x368 SWAP2 SWAP1 PUSH2 0x2401 JUMP JUMPDEST PUSH1 0x40 MLOAD DUP1 SWAP2 SUB SWAP1 RETURN JUMPDEST PUSH2 0x38B PUSH1 0x4 DUP1 CALLDATASIZE SUB DUP2 ADD SWAP1 PUSH2 0x386 SWAP2 SWAP1 PUSH2 0x229D JUMP JUMPDEST PUSH2 0x1FD8 JUMP JUMPDEST PUSH1 0x40 MLOAD PUSH2 0x398 SWAP2 SWAP1 PUSH2 0x241C JUMP JUMPDEST PUSH1 0x40 MLOAD DUP1 SWAP2 SUB SWAP1 RETURN JUMPDEST PUSH1 0x0 DUP1 PUSH1 0x0 DUP5 DUP2 MSTORE PUSH1 0x20 ADD SWAP1 DUP2 MSTORE PUSH1 0x20 ADD PUSH1 0x0 KECCAK256 PUSH1 0x5 ADD PUSH1 0x0 DUP4 PUSH20 0xFFFFFFFFFFFFFFFFFFFFFFFFFFFFFFFFFFFFFFFF AND PUSH20 0xFFFFFFFFFFFFFFFFFFFFFFFFFFFFFFFFFFFFFFFF AND DUP2 MSTORE PUSH1 0x20 ADD SWAP1 DUP2 MSTORE PUSH1 0x20 ADD PUSH1 0x0 KECCAK256 SLOAD SWAP1 POP SWAP3 SWAP2 POP POP JUMP JUMPDEST PUSH1 0x60 PUSH1 0x3 DUP1 SLOAD DUP1 PUSH1 0x20 MUL PUSH1 0x20 ADD PUSH1 0x40 MLOAD SWAP1 DUP2 ADD PUSH1 0x40 MSTORE DUP1 SWAP3 SWAP2 SWAP1 DUP2 DUP2 MSTORE PUSH1 0x20 ADD DUP3 DUP1 SLOAD DUP1 ISZERO PUSH2 0x482 JUMPI PUSH1 0x20 MUL DUP3 ADD SWAP2 SWAP1 PUSH1 0x0 MSTORE PUSH1 0x20 PUSH1 0x0 KECCAK256 SWAP1 JUMPDEST DUP2 PUSH1 0x0 SWAP1 SLOAD SWAP1 PUSH2 0x100 EXP SWAP1 DIV PUSH20 0xFFFFFFFFFFFFFFFFFFFFFFFFFFFFFFFFFFFFFFFF AND PUSH20 0xFFFFFFFFFFFFFFFFFFFFFFFFFFFFFFFFFFFFFFFF AND DUP2 MSTORE PUSH1 0x20 ADD SWAP1 PUSH1 0x1 ADD SWAP1 DUP1 DUP4 GT PUSH2 0x438 JUMPI JUMPDEST POP POP POP POP POP SWAP1 POP SWAP1 JUMP JUMPDEST PUSH1 0x60 PUSH1 0x0 PUSH1 0x60 PUSH1 0x0 DUP1 PUSH1 0x0 DUP1 PUSH1 0x0 DUP1 PUSH1 0x0 DUP11 DUP2 MSTORE PUSH1 0x20 ADD SWAP1 DUP2 MSTORE PUSH1 0x20 ADD PUSH1 0x0 KECCAK256 SWAP1 POP DUP1 PUSH1 0x8 ADD PUSH1 0x1 SWAP1 SLOAD SWAP1 PUSH2 0x100 EXP SWAP1 DIV PUSH1 0xFF AND PUSH2 0x4FF JUMPI PUSH1 0x40 MLOAD PUSH32 0x8C379A000000000000000000000000000000000000000000000000000000000 DUP2 MSTORE PUSH1 0x4 ADD PUSH2 0x4F6 SWAP1 PUSH2 0x29FD JUMP JUMPDEST PUSH1 0x40 MLOAD DUP1 SWAP2 SUB SWAP1 REVERT JUMPDEST PUSH1 0x0 PUSH1 0x1 SWAP1 POP PUSH1 0x0 JUMPDEST DUP3 PUSH1 0x2 ADD DUP1 SLOAD SWAP1 POP DUP2 LT ISZERO PUSH2 0x5C6 JUMPI DUP3 PUSH1 0x4 ADD PUSH1 0x0 DUP5 PUSH1 0x2 ADD DUP4 DUP2 SLOAD DUP2 LT PUSH2 0x533 JUMPI PUSH2 0x532 PUSH2 0x2A1D JUMP JUMPDEST JUMPDEST SWAP1 PUSH1 0x0 MSTORE PUSH1 0x20 PUSH1 0x0 KECCAK256 ADD PUSH1 0x0 SWAP1 SLOAD SWAP1 PUSH2 0x100 EXP SWAP1 DIV PUSH20 0xFFFFFFFFFFFFFFFFFFFFFFFFFFFFFFFFFFFFFFFF AND PUSH20 0xFFFFFFFFFFFFFFFFFFFFFFFFFFFFFFFFFFFFFFFF AND PUSH20 0xFFFFFFFFFFFFFFFFFFFFFFFFFFFFFFFFFFFFFFFF AND DUP2 MSTORE PUSH1 0x20 ADD SWAP1 DUP2 MSTORE PUSH1 0x20 ADD PUSH1 0x0 KECCAK256 PUSH1 0x0 SWAP1 SLOAD SWAP1 PUSH2 0x100 EXP SWAP1 DIV PUSH1 0xFF AND PUSH2 0x5B3 JUMPI PUSH1 0x0 SWAP2 POP PUSH2 0x5C6 JUMP JUMPDEST DUP1 DUP1 PUSH2 0x5BE SWAP1 PUSH2 0x2A7B JUMP JUMPDEST SWAP2 POP POP PUSH2 0x508 JUMP JUMPDEST POP DUP2 PUSH1 0x0 ADD DUP3 PUSH1 0x1 ADD PUSH1 0x0 SWAP1 SLOAD SWAP1 PUSH2 0x100 EXP SWAP1 DIV PUSH20 0xFFFFFFFFFFFFFFFFFFFFFFFFFFFFFFFFFFFFFFFF AND DUP4 PUSH1 0x2 ADD DUP5 PUSH1 0x6 ADD SLOAD DUP6 PUSH1 0x7 ADD SLOAD DUP6 DUP8 PUSH1 0x8 ADD PUSH1 0x0 SWAP1 SLOAD SWAP1 PUSH2 0x100 EXP SWAP1 DIV PUSH1 0xFF AND DUP7 DUP1 SLOAD PUSH2 0x61D SWAP1 PUSH2 0x2AF2 JUMP JUMPDEST DUP1 PUSH1 0x1F ADD PUSH1 0x20 DUP1 SWAP2 DIV MUL PUSH1 0x20 ADD PUSH1 0x40 MLOAD SWAP1 DUP2 ADD PUSH1 0x40 MSTORE DUP1 SWAP3 SWAP2 SWAP1 DUP2 DUP2 MSTORE PUSH1 0x20 ADD DUP3 DUP1 SLOAD PUSH2 0x649 SWAP1 PUSH2 0x2AF2 JUMP JUMPDEST DUP1 ISZERO PUSH2 0x696 JUMPI DUP1 PUSH1 0x1F LT PUSH2 0x66B JUMPI PUSH2 0x100 DUP1 DUP4 SLOAD DIV MUL DUP4 MSTORE SWAP2 PUSH1 0x20 ADD SWAP2 PUSH2 0x696 JUMP JUMPDEST DUP3 ADD SWAP2 SWAP1 PUSH1 0x0 MSTORE PUSH1 0x20 PUSH1 0x0 KECCAK256 SWAP1 JUMPDEST DUP2 SLOAD DUP2 MSTORE SWAP1 PUSH1 0x1 ADD SWAP1 PUSH1 0x20 ADD DUP1 DUP4 GT PUSH2 0x679 JUMPI DUP3 SWAP1 SUB PUSH1 0x1F AND DUP3 ADD SWAP2 JUMPDEST POP POP POP POP POP SWAP7 POP DUP5 DUP1 SLOAD DUP1 PUSH1 0x20 MUL PUSH1 0x20 ADD PUSH1 0x40 MLOAD SWAP1 DUP2 ADD PUSH1 0x40 MSTORE DUP1 SWAP3 SWAP2 SWAP1 DUP2 DUP2 MSTORE PUSH1 0x20 ADD DUP3 DUP1 SLOAD DUP1 ISZERO PUSH2 0x71E JUMPI PUSH1 0x20 MUL DUP3 ADD SWAP2 SWAP1 PUSH1 0x0 MSTORE PUSH1 0x20 PUSH1 0x0 KECCAK256 SWAP1 JUMPDEST DUP2 PUSH1 0x0 SWAP1 SLOAD SWAP1 PUSH2 0x100 EXP SWAP1 DIV PUSH20 0xFFFFFFFFFFFFFFFFFFFFFFFFFFFFFFFFFFFFFFFF AND PUSH20 0xFFFFFFFFFFFFFFFFFFFFFFFFFFFFFFFFFFFFFFFF AND DUP2 MSTORE PUSH1 0x20 ADD SWAP1 PUSH1 0x1 ADD SWAP1 DUP1 DUP4 GT PUSH2 0x6D4 JUMPI JUMPDEST POP POP POP POP POP SWAP5 POP SWAP9 POP SWAP9 POP SWAP9 POP SWAP9 POP SWAP9 POP SWAP9 POP SWAP9 POP POP POP SWAP2 SWAP4 SWAP6 SWAP8 SWAP1 SWAP3 SWAP5 SWAP7 POP JUMP JUMPDEST DUP1 PUSH1 0x0 DUP1 DUP3 DUP2 MSTORE PUSH1 0x20 ADD SWAP1 DUP2 MSTORE PUSH1 0x20 ADD PUSH1 0x0 KECCAK256 PUSH1 0x8 ADD PUSH1 0x1 SWAP1 SLOAD SWAP1 PUSH2 0x100 EXP SWAP1 DIV PUSH1 0xFF AND PUSH2 0x7A3 JUMPI PUSH1 0x40 MLOAD PUSH32 0x8C379A000000000000000000000000000000000000000000000000000000000 DUP2 MSTORE PUSH1 0x4 ADD PUSH2 0x79A SWAP1 PUSH2 0x29FD JUMP JUMPDEST PUSH1 0x40 MLOAD DUP1 SWAP2 SUB SWAP1 REVERT JUMPDEST PUSH1 0x2 DUP1 DUP2 GT ISZERO PUSH2 0x7B6 JUMPI PUSH2 0x7B5 PUSH2 0x2437 JUMP JUMPDEST JUMPDEST PUSH1 0x0 DUP1 DUP4 DUP2 MSTORE PUSH1 0x20 ADD SWAP1 DUP2 MSTORE PUSH1 0x20 ADD PUSH1 0x0 KECCAK256 PUSH1 0x3 ADD PUSH1 0x0 CALLER PUSH20 0xFFFFFFFFFFFFFFFFFFFFFFFFFFFFFFFFFFFFFFFF AND PUSH20 0xFFFFFFFFFFFFFFFFFFFFFFFFFFFFFFFFFFFFFFFF AND DUP2 MSTORE PUSH1 0x20 ADD SWAP1 DUP2 MSTORE PUSH1 0x20 ADD PUSH1 0x0 KECCAK256 PUSH1 0x0 SWAP1 SLOAD SWAP1 PUSH2 0x100 EXP SWAP1 DIV PUSH1 0xFF AND PUSH1 0x2 DUP2 GT ISZERO PUSH2 0x828 JUMPI PUSH2 0x827 PUSH2 0x2437 JUMP JUMPDEST JUMPDEST EQ PUSH2 0x868 JUMPI PUSH1 0x40 MLOAD PUSH32 0x8C379A000000000000000000000000000000000000000000000000000000000 DUP2 MSTORE PUSH1 0x4 ADD PUSH2 0x85F SWAP1 PUSH2 0x2B6F JUMP JUMPDEST PUSH1 0x40 MLOAD DUP1 SWAP2 SUB SWAP1 REVERT JUMPDEST DUP2 PUSH1 0x0 DUP1 DUP3 DUP2 MSTORE PUSH1 0x20 ADD SWAP1 DUP2 MSTORE PUSH1 0x20 ADD PUSH1 0x0 KECCAK256 PUSH1 0x8 ADD PUSH1 0x0 SWAP1 SLOAD SWAP1 PUSH2 0x100 EXP SWAP1 DIV PUSH1 0xFF AND ISZERO PUSH2 0x8CC JUMPI PUSH1 0x40 MLOAD PUSH32 0x8C379A000000000000000000000000000000000000000000000000000000000 DUP2 MSTORE PUSH1 0x4 ADD PUSH2 0x8C3 SWAP1 PUSH2 0x2BDB JUMP JUMPDEST PUSH1 0x40 MLOAD DUP1 SWAP2 SUB SWAP1 REVERT JUMPDEST PUSH1 0x0 DUP1 PUSH1 0x0 DUP6 DUP2 MSTORE PUSH1 0x20 ADD SWAP1 DUP2 MSTORE PUSH1 0x20 ADD PUSH1 0x0 KECCAK256 SWAP1 POP PUSH2 0x8EB DUP5 PUSH2 0x1FA1 JUMP JUMPDEST ISZERO PUSH2 0x92B JUMPI PUSH1 0x40 MLOAD PUSH32 0x8C379A000000000000000000000000000000000000000000000000000000000 DUP2 MSTORE PUSH1 0x4 ADD PUSH2 0x922 SWAP1 PUSH2 0x2C47 JUMP JUMPDEST PUSH1 0x40 MLOAD DUP1 SWAP2 SUB SWAP1 REVERT JUMPDEST DUP1 PUSH1 0x4 ADD PUSH1 0x0 CALLER PUSH20 0xFFFFFFFFFFFFFFFFFFFFFFFFFFFFFFFFFFFFFFFF AND PUSH20 0xFFFFFFFFFFFFFFFFFFFFFFFFFFFFFFFFFFFFFFFF AND DUP2 MSTORE PUSH1 0x20 ADD SWAP1 DUP2 MSTORE PUSH1 0x20 ADD PUSH1 0x0 KECCAK256 PUSH1 0x0 SWAP1 SLOAD SWAP1 PUSH2 0x100 EXP SWAP1 DIV PUSH1 0xFF AND ISZERO PUSH2 0x9BA JUMPI PUSH1 0x40 MLOAD PUSH32 0x8C379A000000000000000000000000000000000000000000000000000000000 DUP2 MSTORE PUSH1 0x4 ADD PUSH2 0x9B1 SWAP1 PUSH2 0x2CB3 JUMP JUMPDEST PUSH1 0x40 MLOAD DUP1 SWAP2 SUB SWAP1 REVERT JUMPDEST CALLER PUSH20 0xFFFFFFFFFFFFFFFFFFFFFFFFFFFFFFFFFFFFFFFF AND DUP2 PUSH1 0x2 ADD DUP3 PUSH1 0xA ADD SLOAD DUP2 SLOAD DUP2 LT PUSH2 0x9EB JUMPI PUSH2 0x9EA PUSH2 0x2A1D JUMP JUMPDEST JUMPDEST SWAP1 PUSH1 0x0 MSTORE PUSH1 0x20 PUSH1 0x0 KECCAK256 ADD PUSH1 0x0 SWAP1 SLOAD SWAP1 PUSH2 0x100 EXP SWAP1 DIV PUSH20 0xFFFFFFFFFFFFFFFFFFFFFFFFFFFFFFFFFFFFFFFF AND PUSH20 0xFFFFFFFFFFFFFFFFFFFFFFFFFFFFFFFFFFFFFFFF AND EQ PUSH2 0xA6C JUMPI PUSH1 0x40 MLOAD PUSH32 0x8C379A000000000000000000000000000000000000000000000000000000000 DUP2 MSTORE PUSH1 0x4 ADD PUSH2 0xA63 SWAP1 PUSH2 0x2D1F JUMP JUMPDEST PUSH1 0x40 MLOAD DUP1 SWAP2 SUB SWAP1 REVERT JUMPDEST PUSH1 0x1 DUP2 PUSH1 0x4 ADD PUSH1 0x0 CALLER PUSH20 0xFFFFFFFFFFFFFFFFFFFFFFFFFFFFFFFFFFFFFFFF AND PUSH20 0xFFFFFFFFFFFFFFFFFFFFFFFFFFFFFFFFFFFFFFFF AND DUP2 MSTORE PUSH1 0x20 ADD SWAP1 DUP2 MSTORE PUSH1 0x20 ADD PUSH1 0x0 KECCAK256 PUSH1 0x0 PUSH2 0x100 EXP DUP2 SLOAD DUP2 PUSH1 0xFF MUL NOT AND SWAP1 DUP4 ISZERO ISZERO MUL OR SWAP1 SSTORE POP TIMESTAMP DUP2 PUSH1 0x5 ADD PUSH1 0x0 CALLER PUSH20 0xFFFFFFFFFFFFFFFFFFFFFFFFFFFFFFFFFFFFFFFF AND PUSH20 0xFFFFFFFFFFFFFFFFFFFFFFFFFFFFFFFFFFFFFFFF AND DUP2 MSTORE PUSH1 0x20 ADD SWAP1 DUP2 MSTORE PUSH1 0x20 ADD PUSH1 0x0 KECCAK256 DUP2 SWAP1 SSTORE POP DUP1 PUSH1 0x7 ADD PUSH1 0x0 DUP2 SLOAD DUP1 SWAP3 SWAP2 SWAP1 PUSH2 0xB21 SWAP1 PUSH2 0x2A7B JUMP JUMPDEST SWAP2 SWAP1 POP SSTORE POP DUP1 PUSH1 0xA ADD PUSH1 0x0 DUP2 SLOAD DUP1 SWAP3 SWAP2 SWAP1 PUSH2 0xB3B SWAP1 PUSH2 0x2A7B JUMP JUMPDEST SWAP2 SWAP1 POP SSTORE POP CALLER PUSH20 0xFFFFFFFFFFFFFFFFFFFFFFFFFFFFFFFFFFFFFFFF AND DUP5 PUSH32 0xE7324C4138A9F505BFE9D1DE2FBFE2AEF2EF2FEE70EA9D93B5B2D348A1BBDD2A TIMESTAMP PUSH1 0x40 MLOAD PUSH2 0xB87 SWAP2 SWAP1 PUSH2 0x21A2 JUMP JUMPDEST PUSH1 0x40 MLOAD DUP1 SWAP2 SUB SWAP1 LOG3 POP POP POP POP JUMP JUMPDEST PUSH1 0x0 DUP1 PUSH1 0x0 DUP5 DUP2 MSTORE PUSH1 0x20 ADD SWAP1 DUP2 MSTORE PUSH1 0x20 ADD PUSH1 0x0 KECCAK256 PUSH1 0x4 ADD PUSH1 0x0 DUP4 PUSH20 0xFFFFFFFFFFFFFFFFFFFFFFFFFFFFFFFFFFFFFFFF AND PUSH20 0xFFFFFFFFFFFFFFFFFFFFFFFFFFFFFFFFFFFFFFFF AND DUP2 MSTORE PUSH1 0x20 ADD SWAP1 DUP2 MSTORE PUSH1 0x20 ADD PUSH1 0x0 KECCAK256 PUSH1 0x0 SWAP1 SLOAD SWAP1 PUSH2 0x100 EXP SWAP1 DIV PUSH1 0xFF AND SWAP1 POP SWAP3 SWAP2 POP POP JUMP JUMPDEST PUSH1 0x3 DUP2 DUP2 SLOAD DUP2 LT PUSH2 0xC0F JUMPI PUSH1 0x0 DUP1 REVERT JUMPDEST SWAP1 PUSH1 0x0 MSTORE PUSH1 0x20 PUSH1 0x0 KECCAK256 ADD PUSH1 0x0 SWAP2 POP SLOAD SWAP1 PUSH2 0x100 EXP SWAP1 DIV PUSH20 0xFFFFFFFFFFFFFFFFFFFFFFFFFFFFFFFFFFFFFFFF AND DUP2 JUMP JUMPDEST PUSH1 0x0 DUP1 PUSH1 0x0 DUP5 DUP2 MSTORE PUSH1 0x20 ADD SWAP1 DUP2 MSTORE PUSH1 0x20 ADD PUSH1 0x0 KECCAK256 PUSH1 0x8 ADD PUSH1 0x1 SWAP1 SLOAD SWAP1 PUSH2 0x100 EXP SWAP1 DIV PUSH1 0xFF AND PUSH2 0xCA2 JUMPI PUSH1 0x40 MLOAD PUSH32 0x8C379A000000000000000000000000000000000000000000000000000000000 DUP2 MSTORE PUSH1 0x4 ADD PUSH2 0xC99 SWAP1 PUSH2 0x29FD JUMP JUMPDEST PUSH1 0x40 MLOAD DUP1 SWAP2 SUB SWAP1 REVERT JUMPDEST PUSH1 0x0 DUP1 DUP5 DUP2 MSTORE PUSH1 0x20 ADD SWAP1 DUP2 MSTORE PUSH1 0x20 ADD PUSH1 0x0 KECCAK256 PUSH1 0x3 ADD PUSH1 0x0 DUP4 PUSH20 0xFFFFFFFFFFFFFFFFFFFFFFFFFFFFFFFFFFFFFFFF AND PUSH20 0xFFFFFFFFFFFFFFFFFFFFFFFFFFFFFFFFFFFFFFFF AND DUP2 MSTORE PUSH1 0x20 ADD SWAP1 DUP2 MSTORE PUSH1 0x20 ADD PUSH1 0x0 KECCAK256 PUSH1 0x0 SWAP1 SLOAD SWAP1 PUSH2 0x100 EXP SWAP1 DIV PUSH1 0xFF AND SWAP1 POP SWAP3 SWAP2 POP POP JUMP JUMPDEST PUSH1 0x60 DUP1 PUSH1 0x60 PUSH1 0x0 DUP1 PUSH1 0x60 PUSH1 0x2 PUSH1 0x0 DUP9 PUSH20 0xFFFFFFFFFFFFFFFFFFFFFFFFFFFFFFFFFFFFFFFF AND PUSH20 0xFFFFFFFFFFFFFFFFFFFFFFFFFFFFFFFFFFFFFFFF AND DUP2 MSTORE PUSH1 0x20 ADD SWAP1 DUP2 MSTORE PUSH1 0x20 ADD PUSH1 0x0 KECCAK256 PUSH1 0x4 ADD PUSH1 0x0 SWAP1 SLOAD SWAP1 PUSH2 0x100 EXP SWAP1 DIV PUSH1 0xFF AND PUSH2 0xDA3 JUMPI PUSH1 0x40 MLOAD PUSH32 0x8C379A000000000000000000000000000000000000000000000000000000000 DUP2 MSTORE PUSH1 0x4 ADD PUSH2 0xD9A SWAP1 PUSH2 0x2D8B JUMP JUMPDEST PUSH1 0x40 MLOAD DUP1 SWAP2 SUB SWAP1 REVERT JUMPDEST PUSH1 0x0 PUSH1 0x2 PUSH1 0x0 DUP10 PUSH20 0xFFFFFFFFFFFFFFFFFFFFFFFFFFFFFFFFFFFFFFFF AND PUSH20 0xFFFFFFFFFFFFFFFFFFFFFFFFFFFFFFFFFFFFFFFF AND DUP2 MSTORE PUSH1 0x20 ADD SWAP1 DUP2 MSTORE PUSH1 0x20 ADD PUSH1 0x0 KECCAK256 SWAP1 POP DUP1 PUSH1 0x0 ADD DUP2 PUSH1 0x1 ADD DUP3 PUSH1 0x2 ADD DUP4 PUSH1 0x3 ADD SLOAD DUP5 PUSH1 0x4 ADD PUSH1 0x0 SWAP1 SLOAD SWAP1 PUSH2 0x100 EXP SWAP1 DIV PUSH1 0xFF AND DUP6 PUSH1 0x5 ADD DUP6 DUP1 SLOAD PUSH2 0xE19 SWAP1 PUSH2 0x2AF2 JUMP JUMPDEST DUP1 PUSH1 0x1F ADD PUSH1 0x20 DUP1 SWAP2 DIV MUL PUSH1 0x20 ADD PUSH1 0x40 MLOAD SWAP1 DUP2 ADD PUSH1 0x40 MSTORE DUP1 SWAP3 SWAP2 SWAP1 DUP2 DUP2 MSTORE PUSH1 0x20 ADD DUP3 DUP1 SLOAD PUSH2 0xE45 SWAP1 PUSH2 0x2AF2 JUMP JUMPDEST DUP1 ISZERO PUSH2 0xE92 JUMPI DUP1 PUSH1 0x1F LT PUSH2 0xE67 JUMPI PUSH2 0x100 DUP1 DUP4 SLOAD DIV MUL DUP4 MSTORE SWAP2 PUSH1 0x20 ADD SWAP2 PUSH2 0xE92 JUMP JUMPDEST DUP3 ADD SWAP2 SWAP1 PUSH1 0x0 MSTORE PUSH1 0x20 PUSH1 0x0 KECCAK256 SWAP1 JUMPDEST DUP2 SLOAD DUP2 MSTORE SWAP1 PUSH1 0x1 ADD SWAP1 PUSH1 0x20 ADD DUP1 DUP4 GT PUSH2 0xE75 JUMPI DUP3 SWAP1 SUB PUSH1 0x1F AND DUP3 ADD SWAP2 JUMPDEST POP POP POP POP POP SWAP6 POP DUP5 DUP1 SLOAD PUSH2 0xEA5 SWAP1 PUSH2 0x2AF2 JUMP JUMPDEST DUP1 PUSH1 0x1F ADD PUSH1 0x20 DUP1 SWAP2 DIV MUL PUSH1 0x20 ADD PUSH1 0x40 MLOAD SWAP1 DUP2 ADD PUSH1 0x40 MSTORE DUP1 SWAP3 SWAP2 SWAP1 DUP2 DUP2 MSTORE PUSH1 0x20 ADD DUP3 DUP1 SLOAD PUSH2 0xED1 SWAP1 PUSH2 0x2AF2 JUMP JUMPDEST DUP1 ISZERO PUSH2 0xF1E JUMPI DUP1 PUSH1 0x1F LT PUSH2 0xEF3 JUMPI PUSH2 0x100 DUP1 DUP4 SLOAD DIV MUL DUP4 MSTORE SWAP2 PUSH1 0x20 ADD SWAP2 PUSH2 0xF1E JUMP JUMPDEST DUP3 ADD SWAP2 SWAP1 PUSH1 0x0 MSTORE PUSH1 0x20 PUSH1 0x0 KECCAK256 SWAP1 JUMPDEST DUP2 SLOAD DUP2 MSTORE SWAP1 PUSH1 0x1 ADD SWAP1 PUSH1 0x20 ADD DUP1 DUP4 GT PUSH2 0xF01 JUMPI DUP3 SWAP1 SUB PUSH1 0x1F AND DUP3 ADD SWAP2 JUMPDEST POP POP POP POP POP SWAP5 POP DUP4 DUP1 SLOAD PUSH2 0xF31 SWAP1 PUSH2 0x2AF2 JUMP JUMPDEST DUP1 PUSH1 0x1F ADD PUSH1 0x20 DUP1 SWAP2 DIV MUL PUSH1 0x20 ADD PUSH1 0x40 MLOAD SWAP1 DUP2 ADD PUSH1 0x40 MSTORE DUP1 SWAP3 SWAP2 SWAP1 DUP2 DUP2 MSTORE PUSH1 0x20 ADD DUP3 DUP1 SLOAD PUSH2 0xF5D SWAP1 PUSH2 0x2AF2 JUMP JUMPDEST DUP1 ISZERO PUSH2 0xFAA JUMPI DUP1 PUSH1 0x1F LT PUSH2 0xF7F JUMPI PUSH2 0x100 DUP1 DUP4 SLOAD DIV MUL DUP4 MSTORE SWAP2 PUSH1 0x20 ADD SWAP2 PUSH2 0xFAA JUMP JUMPDEST DUP3 ADD SWAP2 SWAP1 PUSH1 0x0 MSTORE PUSH1 0x20 PUSH1 0x0 KECCAK256 SWAP1 JUMPDEST DUP2 SLOAD DUP2 MSTORE SWAP1 PUSH1 0x1 ADD SWAP1 PUSH1 0x20 ADD DUP1 DUP4 GT PUSH2 0xF8D JUMPI DUP3 SWAP1 SUB PUSH1 0x1F AND DUP3 ADD SWAP2 JUMPDEST POP POP POP POP POP SWAP4 POP DUP1 DUP1 SLOAD PUSH2 0xFBD SWAP1 PUSH2 0x2AF2 JUMP JUMPDEST DUP1 PUSH1 0x1F ADD PUSH1 0x20 DUP1 SWAP2 DIV MUL PUSH1 0x20 ADD PUSH1 0x40 MLOAD SWAP1 DUP2 ADD PUSH1 0x40 MSTORE DUP1 SWAP3 SWAP2 SWAP1 DUP2 DUP2 MSTORE PUSH1 0x20 ADD DUP3 DUP1 SLOAD PUSH2 0xFE9 SWAP1 PUSH2 0x2AF2 JUMP JUMPDEST DUP1 ISZERO PUSH2 0x1036 JUMPI DUP1 PUSH1 0x1F LT PUSH2 0x100B JUMPI PUSH2 0x100 DUP1 DUP4 SLOAD DIV MUL DUP4 MSTORE SWAP2 PUSH1 0x20 ADD SWAP2 PUSH2 0x1036 JUMP JUMPDEST DUP3 ADD SWAP2 SWAP1 PUSH1 0x0 MSTORE PUSH1 0x20 PUSH1 0x0 KECCAK256 SWAP1 JUMPDEST DUP2 SLOAD DUP2 MSTORE SWAP1 PUSH1 0x1 ADD SWAP1 PUSH1 0x20 ADD DUP1 DUP4 GT PUSH2 0x1019 JUMPI DUP3 SWAP1 SUB PUSH1 0x1F AND DUP3 ADD SWAP2 JUMPDEST POP POP POP POP POP SWAP1 POP SWAP7 POP SWAP7 POP SWAP7 POP SWAP7 POP SWAP7 POP SWAP7 POP POP SWAP2 SWAP4 SWAP6 POP SWAP2 SWAP4 SWAP6 JUMP JUMPDEST PUSH1 0x1 SLOAD DUP2 JUMP JUMPDEST PUSH1 0x2 PUSH1 0x0 CALLER PUSH20 0xFFFFFFFFFFFFFFFFFFFFFFFFFFFFFFFFFFFFFFFF AND PUSH20 0xFFFFFFFFFFFFFFFFFFFFFFFFFFFFFFFFFFFFFFFF AND DUP2 MSTORE PUSH1 0x20 ADD SWAP1 DUP2 MSTORE PUSH1 0x20 ADD PUSH1 0x0 KECCAK256 PUSH1 0x4 ADD PUSH1 0x0 SWAP1 SLOAD SWAP1 PUSH2 0x100 EXP SWAP1 DIV PUSH1 0xFF AND ISZERO PUSH2 0x10E9 JUMPI PUSH1 0x40 MLOAD PUSH32 0x8C379A000000000000000000000000000000000000000000000000000000000 DUP2 MSTORE PUSH1 0x4 ADD PUSH2 0x10E0 SWAP1 PUSH2 0x2DF7 JUMP JUMPDEST PUSH1 0x40 MLOAD DUP1 SWAP2 SUB SWAP1 REVERT JUMPDEST PUSH1 0x40 MLOAD DUP1 PUSH1 0xC0 ADD PUSH1 0x40 MSTORE DUP1 DUP7 DUP2 MSTORE PUSH1 0x20 ADD DUP6 DUP2 MSTORE PUSH1 0x20 ADD DUP5 DUP2 MSTORE PUSH1 0x20 ADD DUP4 DUP2 MSTORE PUSH1 0x20 ADD PUSH1 0x1 ISZERO ISZERO DUP2 MSTORE PUSH1 0x20 ADD DUP3 DUP2 MSTORE POP PUSH1 0x2 PUSH1 0x0 CALLER PUSH20 0xFFFFFFFFFFFFFFFFFFFFFFFFFFFFFFFFFFFFFFFF AND PUSH20 0xFFFFFFFFFFFFFFFFFFFFFFFFFFFFFFFFFFFFFFFF AND DUP2 MSTORE PUSH1 0x20 ADD SWAP1 DUP2 MSTORE PUSH1 0x20 ADD PUSH1 0x0 KECCAK256 PUSH1 0x0 DUP3 ADD MLOAD DUP2 PUSH1 0x0 ADD SWAP1 DUP2 PUSH2 0x116D SWAP2 SWAP1 PUSH2 0x2FC3 JUMP JUMPDEST POP PUSH1 0x20 DUP3 ADD MLOAD DUP2 PUSH1 0x1 ADD SWAP1 DUP2 PUSH2 0x1183 SWAP2 SWAP1 PUSH2 0x2FC3 JUMP JUMPDEST POP PUSH1 0x40 DUP3 ADD MLOAD DUP2 PUSH1 0x2 ADD SWAP1 DUP2 PUSH2 0x1199 SWAP2 SWAP1 PUSH2 0x2FC3 JUMP JUMPDEST POP PUSH1 0x60 DUP3 ADD MLOAD DUP2 PUSH1 0x3 ADD SSTORE PUSH1 0x80 DUP3 ADD MLOAD DUP2 PUSH1 0x4 ADD PUSH1 0x0 PUSH2 0x100 EXP DUP2 SLOAD DUP2 PUSH1 0xFF MUL NOT AND SWAP1 DUP4 ISZERO ISZERO MUL OR SWAP1 SSTORE POP PUSH1 0xA0 DUP3 ADD MLOAD DUP2 PUSH1 0x5 ADD SWAP1 DUP2 PUSH2 0x11D9 SWAP2 SWAP1 PUSH2 0x2FC3 JUMP JUMPDEST POP SWAP1 POP POP PUSH1 0x3 CALLER SWAP1 DUP1 PUSH1 0x1 DUP2 SLOAD ADD DUP1 DUP3 SSTORE DUP1 SWAP2 POP POP PUSH1 0x1 SWAP1 SUB SWAP1 PUSH1 0x0 MSTORE PUSH1 0x20 PUSH1 0x0 KECCAK256 ADD PUSH1 0x0 SWAP1 SWAP2 SWAP1 SWAP2 SWAP1 SWAP2 PUSH2 0x100 EXP DUP2 SLOAD DUP2 PUSH20 0xFFFFFFFFFFFFFFFFFFFFFFFFFFFFFFFFFFFFFFFF MUL NOT AND SWAP1 DUP4 PUSH20 0xFFFFFFFFFFFFFFFFFFFFFFFFFFFFFFFFFFFFFFFF AND MUL OR SWAP1 SSTORE POP CALLER PUSH20 0xFFFFFFFFFFFFFFFFFFFFFFFFFFFFFFFFFFFFFFFF AND PUSH32 0x78088310123490D67595B7B0E336CB2E2FC0F7DF27DDD8950B8656C84413FB1B DUP7 DUP7 DUP7 DUP7 DUP7 PUSH1 0x40 MLOAD PUSH2 0x128E SWAP6 SWAP5 SWAP4 SWAP3 SWAP2 SWAP1 PUSH2 0x3095 JUMP JUMPDEST PUSH1 0x40 MLOAD DUP1 SWAP2 SUB SWAP1 LOG2 POP POP POP POP POP JUMP JUMPDEST PUSH1 0x2 PUSH1 0x20 MSTORE DUP1 PUSH1 0x0 MSTORE PUSH1 0x40 PUSH1 0x0 KECCAK256 PUSH1 0x0 SWAP2 POP SWAP1 POP DUP1 PUSH1 0x0 ADD DUP1 SLOAD PUSH2 0x12C0 SWAP1 PUSH2 0x2AF2 JUMP JUMPDEST DUP1 PUSH1 0x1F ADD PUSH1 0x20 DUP1 SWAP2 DIV MUL PUSH1 0x20 ADD PUSH1 0x40 MLOAD SWAP1 DUP2 ADD PUSH1 0x40 MSTORE DUP1 SWAP3 SWAP2 SWAP1 DUP2 DUP2 MSTORE PUSH1 0x20 ADD DUP3 DUP1 SLOAD PUSH2 0x12EC SWAP1 PUSH2 0x2AF2 JUMP JUMPDEST DUP1 ISZERO PUSH2 0x1339 JUMPI DUP1 PUSH1 0x1F LT PUSH2 0x130E JUMPI PUSH2 0x100 DUP1 DUP4 SLOAD DIV MUL DUP4 MSTORE SWAP2 PUSH1 0x20 ADD SWAP2 PUSH2 0x1339 JUMP JUMPDEST DUP3 ADD SWAP2 SWAP1 PUSH1 0x0 MSTORE PUSH1 0x20 PUSH1 0x0 KECCAK256 SWAP1 JUMPDEST DUP2 SLOAD DUP2 MSTORE SWAP1 PUSH1 0x1 ADD SWAP1 PUSH1 0x20 ADD DUP1 DUP4 GT PUSH2 0x131C JUMPI DUP3 SWAP1 SUB PUSH1 0x1F AND DUP3 ADD SWAP2 JUMPDEST POP POP POP POP POP SWAP1 DUP1 PUSH1 0x1 ADD DUP1 SLOAD PUSH2 0x134E SWAP1 PUSH2 0x2AF2 JUMP JUMPDEST DUP1 PUSH1 0x1F ADD PUSH1 0x20 DUP1 SWAP2 DIV MUL PUSH1 0x20 ADD PUSH1 0x40 MLOAD SWAP1 DUP2 ADD PUSH1 0x40 MSTORE DUP1 SWAP3 SWAP2 SWAP1 DUP2 DUP2 MSTORE PUSH1 0x20 ADD DUP3 DUP1 SLOAD PUSH2 0x137A SWAP1 PUSH2 0x2AF2 JUMP JUMPDEST DUP1 ISZERO PUSH2 0x13C7 JUMPI DUP1 PUSH1 0x1F LT PUSH2 0x139C JUMPI PUSH2 0x100 DUP1 DUP4 SLOAD DIV MUL DUP4 MSTORE SWAP2 PUSH1 0x20 ADD SWAP2 PUSH2 0x13C7 JUMP JUMPDEST DUP3 ADD SWAP2 SWAP1 PUSH1 0x0 MSTORE PUSH1 0x20 PUSH1 0x0 KECCAK256 SWAP1 JUMPDEST DUP2 SLOAD DUP2 MSTORE SWAP1 PUSH1 0x1 ADD SWAP1 PUSH1 0x20 ADD DUP1 DUP4 GT PUSH2 0x13AA JUMPI DUP3 SWAP1 SUB PUSH1 0x1F AND DUP3 ADD SWAP2 JUMPDEST POP POP POP POP POP SWAP1 DUP1 PUSH1 0x2 ADD DUP1 SLOAD PUSH2 0x13DC SWAP1 PUSH2 0x2AF2 JUMP JUMPDEST DUP1 PUSH1 0x1F ADD PUSH1 0x20 DUP1 SWAP2 DIV MUL PUSH1 0x20 ADD PUSH1 0x40 MLOAD SWAP1 DUP2 ADD PUSH1 0x40 MSTORE DUP1 SWAP3 SWAP2 SWAP1 DUP2 DUP2 MSTORE PUSH1 0x20 ADD DUP3 DUP1 SLOAD PUSH2 0x1408 SWAP1 PUSH2 0x2AF2 JUMP JUMPDEST DUP1 ISZERO PUSH2 0x1455 JUMPI DUP1 PUSH1 0x1F LT PUSH2 0x142A JUMPI PUSH2 0x100 DUP1 DUP4 SLOAD DIV MUL DUP4 MSTORE SWAP2 PUSH1 0x20 ADD SWAP2 PUSH2 0x1455 JUMP JUMPDEST DUP3 ADD SWAP2 SWAP1 PUSH1 0x0 MSTORE PUSH1 0x20 PUSH1 0x0 KECCAK256 SWAP1 JUMPDEST DUP2 SLOAD DUP2 MSTORE SWAP1 PUSH1 0x1 ADD SWAP1 PUSH1 0x20 ADD DUP1 DUP4 GT PUSH2 0x1438 JUMPI DUP3 SWAP1 SUB PUSH1 0x1F AND DUP3 ADD SWAP2 JUMPDEST POP POP POP POP POP SWAP1 DUP1 PUSH1 0x3 ADD SLOAD SWAP1 DUP1 PUSH1 0x4 ADD PUSH1 0x0 SWAP1 SLOAD SWAP1 PUSH2 0x100 EXP SWAP1 DIV PUSH1 0xFF AND SWAP1 DUP1 PUSH1 0x5 ADD DUP1 SLOAD PUSH2 0x1483 SWAP1 PUSH2 0x2AF2 JUMP JUMPDEST DUP1 PUSH1 0x1F ADD PUSH1 0x20 DUP1 SWAP2 DIV MUL PUSH1 0x20 ADD PUSH1 0x40 MLOAD SWAP1 DUP2 ADD PUSH1 0x40 MSTORE DUP1 SWAP3 SWAP2 SWAP1 DUP2 DUP2 MSTORE PUSH1 0x20 ADD DUP3 DUP1 SLOAD PUSH2 0x14AF SWAP1 PUSH2 0x2AF2 JUMP JUMPDEST DUP1 ISZERO PUSH2 0x14FC JUMPI DUP1 PUSH1 0x1F LT PUSH2 0x14D1 JUMPI PUSH2 0x100 DUP1 DUP4 SLOAD DIV MUL DUP4 MSTORE SWAP2 PUSH1 0x20 ADD SWAP2 PUSH2 0x14FC JUMP JUMPDEST DUP3 ADD SWAP2 SWAP1 PUSH1 0x0 MSTORE PUSH1 0x20 PUSH1 0x0 KECCAK256 SWAP1 JUMPDEST DUP2 SLOAD DUP2 MSTORE SWAP1 PUSH1 0x1 ADD SWAP1 PUSH1 0x20 ADD DUP1 DUP4 GT PUSH2 0x14DF JUMPI DUP3 SWAP1 SUB PUSH1 0x1F AND DUP3 ADD SWAP2 JUMPDEST POP POP POP POP POP SWAP1 POP DUP7 JUMP JUMPDEST DUP3 PUSH1 0x0 DUP1 DUP3 DUP2 MSTORE PUSH1 0x20 ADD SWAP1 DUP2 MSTORE PUSH1 0x20 ADD PUSH1 0x0 KECCAK256 PUSH1 0x8 ADD PUSH1 0x1 SWAP1 SLOAD SWAP1 PUSH2 0x100 EXP SWAP1 DIV PUSH1 0xFF AND PUSH2 0x1569 JUMPI PUSH1 0x40 MLOAD PUSH32 0x8C379A000000000000000000000000000000000000000000000000000000000 DUP2 MSTORE PUSH1 0x4 ADD PUSH2 0x1560 SWAP1 PUSH2 0x29FD JUMP JUMPDEST PUSH1 0x40 MLOAD DUP1 SWAP2 SUB SWAP1 REVERT JUMPDEST PUSH1 0x1 PUSH1 0x2 DUP2 GT ISZERO PUSH2 0x157D JUMPI PUSH2 0x157C PUSH2 0x2437 JUMP JUMPDEST JUMPDEST PUSH1 0x0 DUP1 DUP4 DUP2 MSTORE PUSH1 0x20 ADD SWAP1 DUP2 MSTORE PUSH1 0x20 ADD PUSH1 0x0 KECCAK256 PUSH1 0x3 ADD PUSH1 0x0 CALLER PUSH20 0xFFFFFFFFFFFFFFFFFFFFFFFFFFFFFFFFFFFFFFFF AND PUSH20 0xFFFFFFFFFFFFFFFFFFFFFFFFFFFFFFFFFFFFFFFF AND DUP2 MSTORE PUSH1 0x20 ADD SWAP1 DUP2 MSTORE PUSH1 0x20 ADD PUSH1 0x0 KECCAK256 PUSH1 0x0 SWAP1 SLOAD SWAP1 PUSH2 0x100 EXP SWAP1 DIV PUSH1 0xFF AND PUSH1 0x2 DUP2 GT ISZERO PUSH2 0x15EF JUMPI PUSH2 0x15EE PUSH2 0x2437 JUMP JUMPDEST JUMPDEST EQ PUSH2 0x162F JUMPI PUSH1 0x40 MLOAD PUSH32 0x8C379A000000000000000000000000000000000000000000000000000000000 DUP2 MSTORE PUSH1 0x4 ADD PUSH2 0x1626 SWAP1 PUSH2 0x3150 JUMP JUMPDEST PUSH1 0x40 MLOAD DUP1 SWAP2 SUB SWAP1 REVERT JUMPDEST DUP4 PUSH1 0x0 DUP1 DUP3 DUP2 MSTORE PUSH1 0x20 ADD SWAP1 DUP2 MSTORE PUSH1 0x20 ADD PUSH1 0x0 KECCAK256 PUSH1 0x8 ADD PUSH1 0x0 SWAP1 SLOAD SWAP1 PUSH2 0x100 EXP SWAP1 DIV PUSH1 0xFF AND ISZERO PUSH2 0x1693 JUMPI PUSH1 0x40 MLOAD PUSH32 0x8C379A000000000000000000000000000000000000000000000000000000000 DUP2 MSTORE PUSH1 0x4 ADD PUSH2 0x168A SWAP1 PUSH2 0x2BDB JUMP JUMPDEST PUSH1 0x40 MLOAD DUP1 SWAP2 SUB SWAP1 REVERT JUMPDEST PUSH1 0x0 DUP1 PUSH1 0x0 DUP8 DUP2 MSTORE PUSH1 0x20 ADD SWAP1 DUP2 MSTORE PUSH1 0x20 ADD PUSH1 0x0 KECCAK256 SWAP1 POP PUSH2 0x16B2 DUP7 PUSH2 0x1FA1 JUMP JUMPDEST ISZERO PUSH2 0x16F2 JUMPI PUSH1 0x40 MLOAD PUSH32 0x8C379A000000000000000000000000000000000000000000000000000000000 DUP2 MSTORE PUSH1 0x4 ADD PUSH2 0x16E9 SWAP1 PUSH2 0x2C47 JUMP JUMPDEST PUSH1 0x40 MLOAD DUP1 SWAP2 SUB SWAP1 REVERT JUMPDEST PUSH1 0x0 PUSH1 0x1 SWAP1 POP PUSH1 0x0 JUMPDEST DUP3 PUSH1 0x2 ADD DUP1 SLOAD SWAP1 POP DUP2 LT ISZERO PUSH2 0x17B9 JUMPI DUP3 PUSH1 0x4 ADD PUSH1 0x0 DUP5 PUSH1 0x2 ADD DUP4 DUP2 SLOAD DUP2 LT PUSH2 0x1726 JUMPI PUSH2 0x1725 PUSH2 0x2A1D JUMP JUMPDEST JUMPDEST SWAP1 PUSH1 0x0 MSTORE PUSH1 0x20 PUSH1 0x0 KECCAK256 ADD PUSH1 0x0 SWAP1 SLOAD SWAP1 PUSH2 0x100 EXP SWAP1 DIV PUSH20 0xFFFFFFFFFFFFFFFFFFFFFFFFFFFFFFFFFFFFFFFF AND PUSH20 0xFFFFFFFFFFFFFFFFFFFFFFFFFFFFFFFFFFFFFFFF AND PUSH20 0xFFFFFFFFFFFFFFFFFFFFFFFFFFFFFFFFFFFFFFFF AND DUP2 MSTORE PUSH1 0x20 ADD SWAP1 DUP2 MSTORE PUSH1 0x20 ADD PUSH1 0x0 KECCAK256 PUSH1 0x0 SWAP1 SLOAD SWAP1 PUSH2 0x100 EXP SWAP1 DIV PUSH1 0xFF AND PUSH2 0x17A6 JUMPI PUSH1 0x0 SWAP2 POP PUSH2 0x17B9 JUMP JUMPDEST DUP1 DUP1 PUSH2 0x17B1 SWAP1 PUSH2 0x2A7B JUMP JUMPDEST SWAP2 POP POP PUSH2 0x16FB JUMP JUMPDEST POP DUP1 ISZERO PUSH2 0x17FB JUMPI PUSH1 0x40 MLOAD PUSH32 0x8C379A000000000000000000000000000000000000000000000000000000000 DUP2 MSTORE PUSH1 0x4 ADD PUSH2 0x17F2 SWAP1 PUSH2 0x31E2 JUMP JUMPDEST PUSH1 0x40 MLOAD DUP1 SWAP2 SUB SWAP1 REVERT JUMPDEST PUSH1 0x0 DUP7 MLOAD GT PUSH2 0x183F JUMPI PUSH1 0x40 MLOAD PUSH32 0x8C379A000000000000000000000000000000000000000000000000000000000 DUP2 MSTORE PUSH1 0x4 ADD PUSH2 0x1836 SWAP1 PUSH2 0x324E JUMP JUMPDEST PUSH1 0x40 MLOAD DUP1 SWAP2 SUB SWAP1 REVERT JUMPDEST PUSH1 0x0 DUP6 EQ PUSH2 0x1893 JUMPI TIMESTAMP DUP6 GT PUSH2 0x1889 JUMPI PUSH1 0x40 MLOAD PUSH32 0x8C379A000000000000000000000000000000000000000000000000000000000 DUP2 MSTORE PUSH1 0x4 ADD PUSH2 0x1880 SWAP1 PUSH2 0x32BA JUMP JUMPDEST PUSH1 0x40 MLOAD DUP1 SWAP2 SUB SWAP1 REVERT JUMPDEST DUP5 DUP3 PUSH1 0x9 ADD DUP2 SWAP1 SSTORE POP JUMPDEST DUP6 DUP3 PUSH1 0x0 ADD SWAP1 DUP2 PUSH2 0x18A4 SWAP2 SWAP1 PUSH2 0x2FC3 JUMP JUMPDEST POP CALLER PUSH20 0xFFFFFFFFFFFFFFFFFFFFFFFFFFFFFFFFFFFFFFFF AND DUP8 PUSH32 0xD4AF573228B33E73CDFACAC0A74B920C7B511E2FF826FB63A2E0BB5790B54EBC DUP9 TIMESTAMP PUSH1 0x40 MLOAD PUSH2 0x18EE SWAP3 SWAP2 SWAP1 PUSH2 0x32DA JUMP JUMPDEST PUSH1 0x40 MLOAD DUP1 SWAP2 SUB SWAP1 LOG3 POP POP POP POP POP POP POP JUMP JUMPDEST PUSH1 0x0 DUP1 DUP5 MLOAD GT PUSH2 0x1944 JUMPI PUSH1 0x40 MLOAD PUSH32 0x8C379A000000000000000000000000000000000000000000000000000000000 DUP2 MSTORE PUSH1 0x4 ADD PUSH2 0x193B SWAP1 PUSH2 0x324E JUMP JUMPDEST PUSH1 0x40 MLOAD DUP1 SWAP2 SUB SWAP1 REVERT JUMPDEST PUSH1 0x0 DUP4 MLOAD GT PUSH2 0x1988 JUMPI PUSH1 0x40 MLOAD PUSH32 0x8C379A000000000000000000000000000000000000000000000000000000000 DUP2 MSTORE PUSH1 0x4 ADD PUSH2 0x197F SWAP1 PUSH2 0x3356 JUMP JUMPDEST PUSH1 0x40 MLOAD DUP1 SWAP2 SUB SWAP1 REVERT JUMPDEST PUSH1 0x0 DUP3 EQ DUP1 PUSH2 0x1996 JUMPI POP TIMESTAMP DUP3 GT JUMPDEST PUSH2 0x19D5 JUMPI PUSH1 0x40 MLOAD PUSH32 0x8C379A000000000000000000000000000000000000000000000000000000000 DUP2 MSTORE PUSH1 0x4 ADD PUSH2 0x19CC SWAP1 PUSH2 0x32BA JUMP JUMPDEST PUSH1 0x40 MLOAD DUP1 SWAP2 SUB SWAP1 REVERT JUMPDEST PUSH1 0x1 PUSH1 0x0 DUP2 SLOAD DUP1 SWAP3 SWAP2 SWAP1 PUSH2 0x19E8 SWAP1 PUSH2 0x2A7B JUMP JUMPDEST SWAP2 SWAP1 POP SSTORE POP PUSH1 0x0 DUP1 PUSH1 0x0 PUSH1 0x1 SLOAD DUP2 MSTORE PUSH1 0x20 ADD SWAP1 DUP2 MSTORE PUSH1 0x20 ADD PUSH1 0x0 KECCAK256 SWAP1 POP DUP5 DUP2 PUSH1 0x0 ADD SWAP1 DUP2 PUSH2 0x1A16 SWAP2 SWAP1 PUSH2 0x2FC3 JUMP JUMPDEST POP CALLER DUP2 PUSH1 0x1 ADD PUSH1 0x0 PUSH2 0x100 EXP DUP2 SLOAD DUP2 PUSH20 0xFFFFFFFFFFFFFFFFFFFFFFFFFFFFFFFFFFFFFFFF MUL NOT AND SWAP1 DUP4 PUSH20 0xFFFFFFFFFFFFFFFFFFFFFFFFFFFFFFFFFFFFFFFF AND MUL OR SWAP1 SSTORE POP TIMESTAMP DUP2 PUSH1 0x6 ADD DUP2 SWAP1 SSTORE POP PUSH1 0x1 DUP2 PUSH1 0x8 ADD PUSH1 0x1 PUSH2 0x100 EXP DUP2 SLOAD DUP2 PUSH1 0xFF MUL NOT AND SWAP1 DUP4 ISZERO ISZERO MUL OR SWAP1 SSTORE POP DUP3 DUP2 PUSH1 0x9 ADD DUP2 SWAP1 SSTORE POP PUSH1 0x1 DUP2 PUSH1 0x3 ADD PUSH1 0x0 CALLER PUSH20 0xFFFFFFFFFFFFFFFFFFFFFFFFFFFFFFFFFFFFFFFF AND PUSH20 0xFFFFFFFFFFFFFFFFFFFFFFFFFFFFFFFFFFFFFFFF AND DUP2 MSTORE PUSH1 0x20 ADD SWAP1 DUP2 MSTORE PUSH1 0x20 ADD PUSH1 0x0 KECCAK256 PUSH1 0x0 PUSH2 0x100 EXP DUP2 SLOAD DUP2 PUSH1 0xFF MUL NOT AND SWAP1 DUP4 PUSH1 0x2 DUP2 GT ISZERO PUSH2 0x1AEE JUMPI PUSH2 0x1AED PUSH2 0x2437 JUMP JUMPDEST JUMPDEST MUL OR SWAP1 SSTORE POP PUSH1 0x0 JUMPDEST DUP5 MLOAD DUP2 LT ISZERO PUSH2 0x1D26 JUMPI PUSH1 0x0 PUSH20 0xFFFFFFFFFFFFFFFFFFFFFFFFFFFFFFFFFFFFFFFF AND DUP6 DUP3 DUP2 MLOAD DUP2 LT PUSH2 0x1B2A JUMPI PUSH2 0x1B29 PUSH2 0x2A1D JUMP JUMPDEST JUMPDEST PUSH1 0x20 MUL PUSH1 0x20 ADD ADD MLOAD PUSH20 0xFFFFFFFFFFFFFFFFFFFFFFFFFFFFFFFFFFFFFFFF AND SUB PUSH2 0x1B88 JUMPI PUSH1 0x40 MLOAD PUSH32 0x8C379A000000000000000000000000000000000000000000000000000000000 DUP2 MSTORE PUSH1 0x4 ADD PUSH2 0x1B7F SWAP1 PUSH2 0x33C2 JUMP JUMPDEST PUSH1 0x40 MLOAD DUP1 SWAP2 SUB SWAP1 REVERT JUMPDEST CALLER PUSH20 0xFFFFFFFFFFFFFFFFFFFFFFFFFFFFFFFFFFFFFFFF AND DUP6 DUP3 DUP2 MLOAD DUP2 LT PUSH2 0x1BB2 JUMPI PUSH2 0x1BB1 PUSH2 0x2A1D JUMP JUMPDEST JUMPDEST PUSH1 0x20 MUL PUSH1 0x20 ADD ADD MLOAD PUSH20 0xFFFFFFFFFFFFFFFFFFFFFFFFFFFFFFFFFFFFFFFF AND SUB PUSH2 0x1C10 JUMPI PUSH1 0x40 MLOAD PUSH32 0x8C379A000000000000000000000000000000000000000000000000000000000 DUP2 MSTORE PUSH1 0x4 ADD PUSH2 0x1C07 SWAP1 PUSH2 0x342E JUMP JUMPDEST PUSH1 0x40 MLOAD DUP1 SWAP2 SUB SWAP1 REVERT JUMPDEST DUP2 PUSH1 0x2 ADD DUP6 DUP3 DUP2 MLOAD DUP2 LT PUSH2 0x1C27 JUMPI PUSH2 0x1C26 PUSH2 0x2A1D JUMP JUMPDEST JUMPDEST PUSH1 0x20 MUL PUSH1 0x20 ADD ADD MLOAD SWAP1 DUP1 PUSH1 0x1 DUP2 SLOAD ADD DUP1 DUP3 SSTORE DUP1 SWAP2 POP POP PUSH1 0x1 SWAP1 SUB SWAP1 PUSH1 0x0 MSTORE PUSH1 0x20 PUSH1 0x0 KECCAK256 ADD PUSH1 0x0 SWAP1 SWAP2 SWAP1 SWAP2 SWAP1 SWAP2 PUSH2 0x100 EXP DUP2 SLOAD DUP2 PUSH20 0xFFFFFFFFFFFFFFFFFFFFFFFFFFFFFFFFFFFFFFFF MUL NOT AND SWAP1 DUP4 PUSH20 0xFFFFFFFFFFFFFFFFFFFFFFFFFFFFFFFFFFFFFFFF AND MUL OR SWAP1 SSTORE POP PUSH1 0x2 DUP3 PUSH1 0x3 ADD PUSH1 0x0 DUP8 DUP5 DUP2 MLOAD DUP2 LT PUSH2 0x1CAA JUMPI PUSH2 0x1CA9 PUSH2 0x2A1D JUMP JUMPDEST JUMPDEST PUSH1 0x20 MUL PUSH1 0x20 ADD ADD MLOAD PUSH20 0xFFFFFFFFFFFFFFFFFFFFFFFFFFFFFFFFFFFFFFFF AND PUSH20 0xFFFFFFFFFFFFFFFFFFFFFFFFFFFFFFFFFFFFFFFF AND DUP2 MSTORE PUSH1 0x20 ADD SWAP1 DUP2 MSTORE PUSH1 0x20 ADD PUSH1 0x0 KECCAK256 PUSH1 0x0 PUSH2 0x100 EXP DUP2 SLOAD DUP2 PUSH1 0xFF MUL NOT AND SWAP1 DUP4 PUSH1 0x2 DUP2 GT ISZERO PUSH2 0x1D0E JUMPI PUSH2 0x1D0D PUSH2 0x2437 JUMP JUMPDEST JUMPDEST MUL OR SWAP1 SSTORE POP DUP1 DUP1 PUSH2 0x1D1E SWAP1 PUSH2 0x2A7B JUMP JUMPDEST SWAP2 POP POP PUSH2 0x1AF6 JUMP JUMPDEST POP CALLER PUSH20 0xFFFFFFFFFFFFFFFFFFFFFFFFFFFFFFFFFFFFFFFF AND PUSH1 0x1 SLOAD PUSH32 0xF34F336D6E1CC231D161403DD583F287C90D4E144120937A223D9531AFE848C DUP8 DUP8 TIMESTAMP PUSH1 0x40 MLOAD PUSH2 0x1D74 SWAP4 SWAP3 SWAP2 SWAP1 PUSH2 0x344E JUMP JUMPDEST PUSH1 0x40 MLOAD DUP1 SWAP2 SUB SWAP1 LOG3 PUSH1 0x1 SLOAD SWAP2 POP POP SWAP4 SWAP3 POP POP POP JUMP JUMPDEST DUP2 PUSH1 0x0 DUP1 DUP3 DUP2 MSTORE PUSH1 0x20 ADD SWAP1 DUP2 MSTORE PUSH1 0x20 ADD PUSH1 0x0 KECCAK256 PUSH1 0x8 ADD PUSH1 0x1 SWAP1 SLOAD SWAP1 PUSH2 0x100 EXP SWAP1 DIV PUSH1 0xFF AND PUSH2 0x1DEC JUMPI PUSH1 0x40 MLOAD PUSH32 0x8C379A000000000000000000000000000000000000000000000000000000000 DUP2 MSTORE PUSH1 0x4 ADD PUSH2 0x1DE3 SWAP1 PUSH2 0x29FD JUMP JUMPDEST PUSH1 0x40 MLOAD DUP1 SWAP2 SUB SWAP1 REVERT JUMPDEST PUSH1 0x1 PUSH1 0x2 DUP2 GT ISZERO PUSH2 0x1E00 JUMPI PUSH2 0x1DFF PUSH2 0x2437 JUMP JUMPDEST JUMPDEST PUSH1 0x0 DUP1 DUP4 DUP2 MSTORE PUSH1 0x20 ADD SWAP1 DUP2 MSTORE PUSH1 0x20 ADD PUSH1 0x0 KECCAK256 PUSH1 0x3 ADD PUSH1 0x0 CALLER PUSH20 0xFFFFFFFFFFFFFFFFFFFFFFFFFFFFFFFFFFFFFFFF AND PUSH20 0xFFFFFFFFFFFFFFFFFFFFFFFFFFFFFFFFFFFFFFFF AND DUP2 MSTORE PUSH1 0x20 ADD SWAP1 DUP2 MSTORE PUSH1 0x20 ADD PUSH1 0x0 KECCAK256 PUSH1 0x0 SWAP1 SLOAD SWAP1 PUSH2 0x100 EXP SWAP1 DIV PUSH1 0xFF AND PUSH1 0x2 DUP2 GT ISZERO PUSH2 0x1E72 JUMPI PUSH2 0x1E71 PUSH2 0x2437 JUMP JUMPDEST JUMPDEST EQ PUSH2 0x1EB2 JUMPI PUSH1 0x40 MLOAD PUSH32 0x8C379A000000000000000000000000000000000000000000000000000000000 DUP2 MSTORE PUSH1 0x4 ADD PUSH2 0x1EA9 SWAP1 PUSH2 0x3150 JUMP JUMPDEST PUSH1 0x40 MLOAD DUP1 SWAP2 SUB SWAP1 REVERT JUMPDEST DUP3 PUSH1 0x0 DUP1 DUP3 DUP2 MSTORE PUSH1 0x20 ADD SWAP1 DUP2 MSTORE PUSH1 0x20 ADD PUSH1 0x0 KECCAK256 PUSH1 0x8 ADD PUSH1 0x0 SWAP1 SLOAD SWAP1 PUSH2 0x100 EXP SWAP1 DIV PUSH1 0xFF AND ISZERO PUSH2 0x1F16 JUMPI PUSH1 0x40 MLOAD PUSH32 0x8C379A000000000000000000000000000000000000000000000000000000000 DUP2 MSTORE PUSH1 0x4 ADD PUSH2 0x1F0D SWAP1 PUSH2 0x2BDB JUMP JUMPDEST PUSH1 0x40 MLOAD DUP1 SWAP2 SUB SWAP1 REVERT JUMPDEST PUSH1 0x0 DUP1 PUSH1 0x0 DUP7 DUP2 MSTORE PUSH1 0x20 ADD SWAP1 DUP2 MSTORE PUSH1 0x20 ADD PUSH1 0x0 KECCAK256 SWAP1 POP PUSH1 0x1 DUP2 PUSH1 0x8 ADD PUSH1 0x0 PUSH2 0x100 EXP DUP2 SLOAD DUP2 PUSH1 0xFF MUL NOT AND SWAP1 DUP4 ISZERO ISZERO MUL OR SWAP1 SSTORE POP CALLER PUSH20 0xFFFFFFFFFFFFFFFFFFFFFFFFFFFFFFFFFFFFFFFF AND DUP6 PUSH32 0x7A58FF517C00037031F8886D9305CEC9B4A44D1C1A04FC2EF4D7A5D7A09EEDE5 TIMESTAMP DUP8 PUSH1 0x40 MLOAD PUSH2 0x1F92 SWAP3 SWAP2 SWAP1 PUSH2 0x3493 JUMP JUMPDEST PUSH1 0x40 MLOAD DUP1 SWAP2 SUB SWAP1 LOG3 POP POP POP POP POP JUMP JUMPDEST PUSH1 0x0 DUP1 PUSH1 0x0 DUP1 DUP5 DUP2 MSTORE PUSH1 0x20 ADD SWAP1 DUP2 MSTORE PUSH1 0x20 ADD PUSH1 0x0 KECCAK256 SWAP1 POP PUSH1 0x0 DUP2 PUSH1 0x9 ADD SLOAD EQ ISZERO DUP1 ISZERO PUSH2 0x1FD0 JUMPI POP DUP1 PUSH1 0x9 ADD SLOAD TIMESTAMP GT JUMPDEST SWAP2 POP POP SWAP2 SWAP1 POP JUMP JUMPDEST PUSH1 0x0 DUP1 PUSH1 0x0 DUP1 DUP5 DUP2 MSTORE PUSH1 0x20 ADD SWAP1 DUP2 MSTORE PUSH1 0x20 ADD PUSH1 0x0 KECCAK256 SWAP1 POP DUP1 PUSH1 0x8 ADD PUSH1 0x1 SWAP1 SLOAD SWAP1 PUSH2 0x100 EXP SWAP1 DIV PUSH1 0xFF AND PUSH2 0x2040 JUMPI PUSH1 0x40 MLOAD PUSH32 0x8C379A000000000000000000000000000000000000000000000000000000000 DUP2 MSTORE PUSH1 0x4 ADD PUSH2 0x2037 SWAP1 PUSH2 0x29FD JUMP JUMPDEST PUSH1 0x40 MLOAD DUP1 SWAP2 SUB SWAP1 REVERT JUMPDEST DUP1 PUSH1 0x2 ADD DUP1 SLOAD SWAP1 POP DUP2 PUSH1 0xA ADD SLOAD LT ISZERO PUSH2 0x20A0 JUMPI DUP1 PUSH1 0x2 ADD DUP2 PUSH1 0xA ADD SLOAD DUP2 SLOAD DUP2 LT PUSH2 0x206D JUMPI PUSH2 0x206C PUSH2 0x2A1D JUMP JUMPDEST JUMPDEST SWAP1 PUSH1 0x0 MSTORE PUSH1 0x20 PUSH1 0x0 KECCAK256 ADD PUSH1 0x0 SWAP1 SLOAD SWAP1 PUSH2 0x100 EXP SWAP1 DIV PUSH20 0xFFFFFFFFFFFFFFFFFFFFFFFFFFFFFFFFFFFFFFFF AND SWAP2 POP POP PUSH2 0x20A6 JUMP JUMPDEST PUSH1 0x0 SWAP2 POP POP JUMPDEST SWAP2 SWAP1 POP JUMP JUMPDEST PUSH1 0x0 PUSH1 0x40 MLOAD SWAP1 POP SWAP1 JUMP JUMPDEST PUSH1 0x0 DUP1 REVERT JUMPDEST PUSH1 0x0 DUP1 REVERT JUMPDEST PUSH1 0x0 DUP2 SWAP1 POP SWAP2 SWAP1 POP JUMP JUMPDEST PUSH2 0x20D2 DUP2 PUSH2 0x20BF JUMP JUMPDEST DUP2 EQ PUSH2 0x20DD JUMPI PUSH1 0x0 DUP1 REVERT JUMPDEST POP JUMP JUMPDEST PUSH1 0x0 DUP2 CALLDATALOAD SWAP1 POP PUSH2 0x20EF DUP2 PUSH2 0x20C9 JUMP JUMPDEST SWAP3 SWAP2 POP POP JUMP JUMPDEST PUSH1 0x0 PUSH20 0xFFFFFFFFFFFFFFFFFFFFFFFFFFFFFFFFFFFFFFFF DUP3 AND SWAP1 POP SWAP2 SWAP1 POP JUMP JUMPDEST PUSH1 0x0 PUSH2 0x2120 DUP3 PUSH2 0x20F5 JUMP JUMPDEST SWAP1 POP SWAP2 SWAP1 POP JUMP JUMPDEST PUSH2 0x2130 DUP2 PUSH2 0x2115 JUMP JUMPDEST DUP2 EQ PUSH2 0x213B JUMPI PUSH1 0x0 DUP1 REVERT JUMPDEST POP JUMP JUMPDEST PUSH1 0x0 DUP2 CALLDATALOAD SWAP1 POP PUSH2 0x214D DUP2 PUSH2 0x2127 JUMP JUMPDEST SWAP3 SWAP2 POP POP JUMP JUMPDEST PUSH1 0x0 DUP1 PUSH1 0x40 DUP4 DUP6 SUB SLT ISZERO PUSH2 0x216A JUMPI PUSH2 0x2169 PUSH2 0x20B5 JUMP JUMPDEST JUMPDEST PUSH1 0x0 PUSH2 0x2178 DUP6 DUP3 DUP7 ADD PUSH2 0x20E0 JUMP JUMPDEST SWAP3 POP POP PUSH1 0x20 PUSH2 0x2189 DUP6 DUP3 DUP7 ADD PUSH2 0x213E JUMP JUMPDEST SWAP2 POP POP SWAP3 POP SWAP3 SWAP1 POP JUMP JUMPDEST PUSH2 0x219C DUP2 PUSH2 0x20BF JUMP JUMPDEST DUP3 MSTORE POP POP JUMP JUMPDEST PUSH1 0x0 PUSH1 0x20 DUP3 ADD SWAP1 POP PUSH2 0x21B7 PUSH1 0x0 DUP4 ADD DUP5 PUSH2 0x2193 JUMP JUMPDEST SWAP3 SWAP2 POP POP JUMP JUMPDEST PUSH1 0x0 DUP2 MLOAD SWAP1 POP SWAP2 SWAP1 POP JUMP JUMPDEST PUSH1 0x0 DUP3 DUP3 MSTORE PUSH1 0x20 DUP3 ADD SWAP1 POP SWAP3 SWAP2 POP POP JUMP JUMPDEST PUSH1 0x0 DUP2 SWAP1 POP PUSH1 0x20 DUP3 ADD SWAP1 POP SWAP2 SWAP1 POP JUMP JUMPDEST PUSH2 0x21F2 DUP2 PUSH2 0x2115 JUMP JUMPDEST DUP3 MSTORE POP POP JUMP JUMPDEST PUSH1 0x0 PUSH2 0x2204 DUP4 DUP4 PUSH2 0x21E9 JUMP JUMPDEST PUSH1 0x20 DUP4 ADD SWAP1 POP SWAP3 SWAP2 POP POP JUMP JUMPDEST PUSH1 0x0 PUSH1 0x20 DUP3 ADD SWAP1 POP SWAP2 SWAP1 POP JUMP JUMPDEST PUSH1 0x0 PUSH2 0x2228 DUP3 PUSH2 0x21BD JUMP JUMPDEST PUSH2 0x2232 DUP2 DUP6 PUSH2 0x21C8 JUMP JUMPDEST SWAP4 POP PUSH2 0x223D DUP4 PUSH2 0x21D9 JUMP JUMPDEST DUP1 PUSH1 0x0 JUMPDEST DUP4 DUP2 LT ISZERO PUSH2 0x226E JUMPI DUP2 MLOAD PUSH2 0x2255 DUP9 DUP3 PUSH2 0x21F8 JUMP JUMPDEST SWAP8 POP PUSH2 0x2260 DUP4 PUSH2 0x2210 JUMP JUMPDEST SWAP3 POP POP PUSH1 0x1 DUP2 ADD SWAP1 POP PUSH2 0x2241 JUMP JUMPDEST POP DUP6 SWAP4 POP POP POP POP SWAP3 SWAP2 POP POP JUMP JUMPDEST PUSH1 0x0 PUSH1 0x20 DUP3 ADD SWAP1 POP DUP2 DUP2 SUB PUSH1 0x0 DUP4 ADD MSTORE PUSH2 0x2295 DUP2 DUP5 PUSH2 0x221D JUMP JUMPDEST SWAP1 POP SWAP3 SWAP2 POP POP JUMP JUMPDEST PUSH1 0x0 PUSH1 0x20 DUP3 DUP5 SUB SLT ISZERO PUSH2 0x22B3 JUMPI PUSH2 0x22B2 PUSH2 0x20B5 JUMP JUMPDEST JUMPDEST PUSH1 0x0 PUSH2 0x22C1 DUP5 DUP3 DUP6 ADD PUSH2 0x20E0 JUMP JUMPDEST SWAP2 POP POP SWAP3 SWAP2 POP POP JUMP JUMPDEST PUSH1 0x0 DUP2 MLOAD SWAP1 POP SWAP2 SWAP1 POP JUMP JUMPDEST PUSH1 0x0 DUP3 DUP3 MSTORE PUSH1 0x20 DUP3 ADD SWAP1 POP SWAP3 SWAP2 POP POP JUMP JUMPDEST PUSH1 0x0 JUMPDEST DUP4 DUP2 LT ISZERO PUSH2 0x2304 JUMPI DUP1 DUP3 ADD MLOAD DUP2 DUP5 ADD MSTORE PUSH1 0x20 DUP2 ADD SWAP1 POP PUSH2 0x22E9 JUMP JUMPDEST PUSH1 0x0 DUP5 DUP5 ADD MSTORE POP POP POP POP JUMP JUMPDEST PUSH1 0x0 PUSH1 0x1F NOT PUSH1 0x1F DUP4 ADD AND SWAP1 POP SWAP2 SWAP1 POP JUMP JUMPDEST PUSH1 0x0 PUSH2 0x232C DUP3 PUSH2 0x22CA JUMP JUMPDEST PUSH2 0x2336 DUP2 DUP6 PUSH2 0x22D5 JUMP JUMPDEST SWAP4 POP PUSH2 0x2346 DUP2 DUP6 PUSH1 0x20 DUP7 ADD PUSH2 0x22E6 JUMP JUMPDEST PUSH2 0x234F DUP2 PUSH2 0x2310 JUMP JUMPDEST DUP5 ADD SWAP2 POP POP SWAP3 SWAP2 POP POP JUMP JUMPDEST PUSH2 0x2363 DUP2 PUSH2 0x2115 JUMP JUMPDEST DUP3 MSTORE POP POP JUMP JUMPDEST PUSH1 0x0 DUP2 ISZERO ISZERO SWAP1 POP SWAP2 SWAP1 POP JUMP JUMPDEST PUSH2 0x237E DUP2 PUSH2 0x2369 JUMP JUMPDEST DUP3 MSTORE POP POP JUMP JUMPDEST PUSH1 0x0 PUSH1 0xE0 DUP3 ADD SWAP1 POP DUP2 DUP2 SUB PUSH1 0x0 DUP4 ADD MSTORE PUSH2 0x239E DUP2 DUP11 PUSH2 0x2321 JUMP JUMPDEST SWAP1 POP PUSH2 0x23AD PUSH1 0x20 DUP4 ADD DUP10 PUSH2 0x235A JUMP JUMPDEST DUP2 DUP2 SUB PUSH1 0x40 DUP4 ADD MSTORE PUSH2 0x23BF DUP2 DUP9 PUSH2 0x221D JUMP JUMPDEST SWAP1 POP PUSH2 0x23CE PUSH1 0x60 DUP4 ADD DUP8 PUSH2 0x2193 JUMP JUMPDEST PUSH2 0x23DB PUSH1 0x80 DUP4 ADD DUP7 PUSH2 0x2193 JUMP JUMPDEST PUSH2 0x23E8 PUSH1 0xA0 DUP4 ADD DUP6 PUSH2 0x2375 JUMP JUMPDEST PUSH2 0x23F5 PUSH1 0xC0 DUP4 ADD DUP5 PUSH2 0x2375 JUMP JUMPDEST SWAP9 SWAP8 POP POP POP POP POP POP POP POP JUMP JUMPDEST PUSH1 0x0 PUSH1 0x20 DUP3 ADD SWAP1 POP PUSH2 0x2416 PUSH1 0x0 DUP4 ADD DUP5 PUSH2 0x2375 JUMP JUMPDEST SWAP3 SWAP2 POP POP JUMP JUMPDEST PUSH1 0x0 PUSH1 0x20 DUP3 ADD SWAP1 POP PUSH2 0x2431 PUSH1 0x0 DUP4 ADD DUP5 PUSH2 0x235A JUMP JUMPDEST SWAP3 SWAP2 POP POP JUMP JUMPDEST PUSH32 0x4E487B7100000000000000000000000000000000000000000000000000000000 PUSH1 0x0 MSTORE PUSH1 0x21 PUSH1 0x4 MSTORE PUSH1 0x24 PUSH1 0x0 REVERT JUMPDEST PUSH1 0x3 DUP2 LT PUSH2 0x2477 JUMPI PUSH2 0x2476 PUSH2 0x2437 JUMP JUMPDEST JUMPDEST POP JUMP JUMPDEST PUSH1 0x0 DUP2 SWAP1 POP PUSH2 0x2488 DUP3 PUSH2 0x2466 JUMP JUMPDEST SWAP2 SWAP1 POP JUMP JUMPDEST PUSH1 0x0 PUSH2 0x2498 DUP3 PUSH2 0x247A JUMP JUMPDEST SWAP1 POP SWAP2 SWAP1 POP JUMP JUMPDEST PUSH2 0x24A8 DUP2 PUSH2 0x248D JUMP JUMPDEST DUP3 MSTORE POP POP JUMP JUMPDEST PUSH1 0x0 PUSH1 0x20 DUP3 ADD SWAP1 POP PUSH2 0x24C3 PUSH1 0x0 DUP4 ADD DUP5 PUSH2 0x249F JUMP JUMPDEST SWAP3 SWAP2 POP POP JUMP JUMPDEST PUSH1 0x0 PUSH1 0x20 DUP3 DUP5 SUB SLT ISZERO PUSH2 0x24DF JUMPI PUSH2 0x24DE PUSH2 0x20B5 JUMP JUMPDEST JUMPDEST PUSH1 0x0 PUSH2 0x24ED DUP5 DUP3 DUP6 ADD PUSH2 0x213E JUMP JUMPDEST SWAP2 POP POP SWAP3 SWAP2 POP POP JUMP JUMPDEST PUSH1 0x0 PUSH1 0xC0 DUP3 ADD SWAP1 POP DUP2 DUP2 SUB PUSH1 0x0 DUP4 ADD MSTORE PUSH2 0x2510 DUP2 DUP10 PUSH2 0x2321 JUMP JUMPDEST SWAP1 POP DUP2 DUP2 SUB PUSH1 0x20 DUP4 ADD MSTORE PUSH2 0x2524 DUP2 DUP9 PUSH2 0x2321 JUMP JUMPDEST SWAP1 POP DUP2 DUP2 SUB PUSH1 0x40 DUP4 ADD MSTORE PUSH2 0x2538 DUP2 DUP8 PUSH2 0x2321 JUMP JUMPDEST SWAP1 POP PUSH2 0x2547 PUSH1 0x60 DUP4 ADD DUP7 PUSH2 0x2193 JUMP JUMPDEST PUSH2 0x2554 PUSH1 0x80 DUP4 ADD DUP6 PUSH2 0x2375 JUMP JUMPDEST DUP2 DUP2 SUB PUSH1 0xA0 DUP4 ADD MSTORE PUSH2 0x2566 DUP2 DUP5 PUSH2 0x2321 JUMP JUMPDEST SWAP1 POP SWAP8 SWAP7 POP POP POP POP POP POP POP JUMP JUMPDEST PUSH1 0x0 DUP1 REVERT JUMPDEST PUSH1 0x0 DUP1 REVERT JUMPDEST PUSH32 0x4E487B7100000000000000000000000000000000000000000000000000000000 PUSH1 0x0 MSTORE PUSH1 0x41 PUSH1 0x4 MSTORE PUSH1 0x24 PUSH1 0x0 REVERT JUMPDEST PUSH2 0x25B5 DUP3 PUSH2 0x2310 JUMP JUMPDEST DUP2 ADD DUP2 DUP2 LT PUSH8 0xFFFFFFFFFFFFFFFF DUP3 GT OR ISZERO PUSH2 0x25D4 JUMPI PUSH2 0x25D3 PUSH2 0x257D JUMP JUMPDEST JUMPDEST DUP1 PUSH1 0x40 MSTORE POP POP POP JUMP JUMPDEST PUSH1 0x0 PUSH2 0x25E7 PUSH2 0x20AB JUMP JUMPDEST SWAP1 POP PUSH2 0x25F3 DUP3 DUP3 PUSH2 0x25AC JUMP JUMPDEST SWAP2 SWAP1 POP JUMP JUMPDEST PUSH1 0x0 PUSH8 0xFFFFFFFFFFFFFFFF DUP3 GT ISZERO PUSH2 0x2613 JUMPI PUSH2 0x2612 PUSH2 0x257D JUMP JUMPDEST JUMPDEST PUSH2 0x261C DUP3 PUSH2 0x2310 JUMP JUMPDEST SWAP1 POP PUSH1 0x20 DUP2 ADD SWAP1 POP SWAP2 SWAP1 POP JUMP JUMPDEST DUP3 DUP2 DUP4 CALLDATACOPY PUSH1 0x0 DUP4 DUP4 ADD MSTORE POP POP POP JUMP JUMPDEST PUSH1 0x0 PUSH2 0x264B PUSH2 0x2646 DUP5 PUSH2 0x25F8 JUMP JUMPDEST PUSH2 0x25DD JUMP JUMPDEST SWAP1 POP DUP3 DUP2 MSTORE PUSH1 0x20 DUP2 ADD DUP5 DUP5 DUP5 ADD GT ISZERO PUSH2 0x2667 JUMPI PUSH2 0x2666 PUSH2 0x2578 JUMP JUMPDEST JUMPDEST PUSH2 0x2672 DUP5 DUP3 DUP6 PUSH2 0x2629 JUMP JUMPDEST POP SWAP4 SWAP3 POP POP POP JUMP JUMPDEST PUSH1 0x0 DUP3 PUSH1 0x1F DUP4 ADD SLT PUSH2 0x268F JUMPI PUSH2 0x268E PUSH2 0x2573 JUMP JUMPDEST JUMPDEST DUP2 CALLDATALOAD PUSH2 0x269F DUP5 DUP3 PUSH1 0x20 DUP7 ADD PUSH2 0x2638 JUMP JUMPDEST SWAP2 POP POP SWAP3 SWAP2 POP POP JUMP JUMPDEST PUSH1 0x0 DUP1 PUSH1 0x0 DUP1 PUSH1 0x0 PUSH1 0xA0 DUP7 DUP9 SUB SLT ISZERO PUSH2 0x26C4 JUMPI PUSH2 0x26C3 PUSH2 0x20B5 JUMP JUMPDEST JUMPDEST PUSH1 0x0 DUP7 ADD CALLDATALOAD PUSH8 0xFFFFFFFFFFFFFFFF DUP2 GT ISZERO PUSH2 0x26E2 JUMPI PUSH2 0x26E1 PUSH2 0x20BA JUMP JUMPDEST JUMPDEST PUSH2 0x26EE DUP9 DUP3 DUP10 ADD PUSH2 0x267A JUMP JUMPDEST SWAP6 POP POP PUSH1 0x20 DUP7 ADD CALLDATALOAD PUSH8 0xFFFFFFFFFFFFFFFF DUP2 GT ISZERO PUSH2 0x270F JUMPI PUSH2 0x270E PUSH2 0x20BA JUMP JUMPDEST JUMPDEST PUSH2 0x271B DUP9 DUP3 DUP10 ADD PUSH2 0x267A JUMP JUMPDEST SWAP5 POP POP PUSH1 0x40 DUP7 ADD CALLDATALOAD PUSH8 0xFFFFFFFFFFFFFFFF DUP2 GT ISZERO PUSH2 0x273C JUMPI PUSH2 0x273B PUSH2 0x20BA JUMP JUMPDEST JUMPDEST PUSH2 0x2748 DUP9 DUP3 DUP10 ADD PUSH2 0x267A JUMP JUMPDEST SWAP4 POP POP PUSH1 0x60 PUSH2 0x2759 DUP9 DUP3 DUP10 ADD PUSH2 0x20E0 JUMP JUMPDEST SWAP3 POP POP PUSH1 0x80 DUP7 ADD CALLDATALOAD PUSH8 0xFFFFFFFFFFFFFFFF DUP2 GT ISZERO PUSH2 0x277A JUMPI PUSH2 0x2779 PUSH2 0x20BA JUMP JUMPDEST JUMPDEST PUSH2 0x2786 DUP9 DUP3 DUP10 ADD PUSH2 0x267A JUMP JUMPDEST SWAP2 POP POP SWAP3 SWAP6 POP SWAP3 SWAP6 SWAP1 SWAP4 POP JUMP JUMPDEST PUSH1 0x0 DUP1 PUSH1 0x0 PUSH1 0x60 DUP5 DUP7 SUB SLT ISZERO PUSH2 0x27AC JUMPI PUSH2 0x27AB PUSH2 0x20B5 JUMP JUMPDEST JUMPDEST PUSH1 0x0 PUSH2 0x27BA DUP7 DUP3 DUP8 ADD PUSH2 0x20E0 JUMP JUMPDEST SWAP4 POP POP PUSH1 0x20 DUP5 ADD CALLDATALOAD PUSH8 0xFFFFFFFFFFFFFFFF DUP2 GT ISZERO PUSH2 0x27DB JUMPI PUSH2 0x27DA PUSH2 0x20BA JUMP JUMPDEST JUMPDEST PUSH2 0x27E7 DUP7 DUP3 DUP8 ADD PUSH2 0x267A JUMP JUMPDEST SWAP3 POP POP PUSH1 0x40 PUSH2 0x27F8 DUP7 DUP3 DUP8 ADD PUSH2 0x20E0 JUMP JUMPDEST SWAP2 POP POP SWAP3 POP SWAP3 POP SWAP3 JUMP JUMPDEST PUSH1 0x0 PUSH8 0xFFFFFFFFFFFFFFFF DUP3 GT ISZERO PUSH2 0x281D JUMPI PUSH2 0x281C PUSH2 0x257D JUMP JUMPDEST JUMPDEST PUSH1 0x20 DUP3 MUL SWAP1 POP PUSH1 0x20 DUP2 ADD SWAP1 POP SWAP2 SWAP1 POP JUMP JUMPDEST PUSH1 0x0 DUP1 REVERT JUMPDEST PUSH1 0x0 PUSH2 0x2846 PUSH2 0x2841 DUP5 PUSH2 0x2802 JUMP JUMPDEST PUSH2 0x25DD JUMP JUMPDEST SWAP1 POP DUP1 DUP4 DUP3 MSTORE PUSH1 0x20 DUP3 ADD SWAP1 POP PUSH1 0x20 DUP5 MUL DUP4 ADD DUP6 DUP2 GT ISZERO PUSH2 0x2869 JUMPI PUSH2 0x2868 PUSH2 0x282E JUMP JUMPDEST JUMPDEST DUP4 JUMPDEST DUP2 DUP2 LT ISZERO PUSH2 0x2892 JUMPI DUP1 PUSH2 0x287E DUP9 DUP3 PUSH2 0x213E JUMP JUMPDEST DUP5 MSTORE PUSH1 0x20 DUP5 ADD SWAP4 POP POP PUSH1 0x20 DUP2 ADD SWAP1 POP PUSH2 0x286B JUMP JUMPDEST POP POP POP SWAP4 SWAP3 POP POP POP JUMP JUMPDEST PUSH1 0x0 DUP3 PUSH1 0x1F DUP4 ADD SLT PUSH2 0x28B1 JUMPI PUSH2 0x28B0 PUSH2 0x2573 JUMP JUMPDEST JUMPDEST DUP2 CALLDATALOAD PUSH2 0x28C1 DUP5 DUP3 PUSH1 0x20 DUP7 ADD PUSH2 0x2833 JUMP JUMPDEST SWAP2 POP POP SWAP3 SWAP2 POP POP JUMP JUMPDEST PUSH1 0x0 DUP1 PUSH1 0x0 PUSH1 0x60 DUP5 DUP7 SUB SLT ISZERO PUSH2 0x28E3 JUMPI PUSH2 0x28E2 PUSH2 0x20B5 JUMP JUMPDEST JUMPDEST PUSH1 0x0 DUP5 ADD CALLDATALOAD PUSH8 0xFFFFFFFFFFFFFFFF DUP2 GT ISZERO PUSH2 0x2901 JUMPI PUSH2 0x2900 PUSH2 0x20BA JUMP JUMPDEST JUMPDEST PUSH2 0x290D DUP7 DUP3 DUP8 ADD PUSH2 0x267A JUMP JUMPDEST SWAP4 POP POP PUSH1 0x20 DUP5 ADD CALLDATALOAD PUSH8 0xFFFFFFFFFFFFFFFF DUP2 GT ISZERO PUSH2 0x292E JUMPI PUSH2 0x292D PUSH2 0x20BA JUMP JUMPDEST JUMPDEST PUSH2 0x293A DUP7 DUP3 DUP8 ADD PUSH2 0x289C JUMP JUMPDEST SWAP3 POP POP PUSH1 0x40 PUSH2 0x294B DUP7 DUP3 DUP8 ADD PUSH2 0x20E0 JUMP JUMPDEST SWAP2 POP POP SWAP3 POP SWAP3 POP SWAP3 JUMP JUMPDEST PUSH1 0x0 DUP1 PUSH1 0x40 DUP4 DUP6 SUB SLT ISZERO PUSH2 0x296C JUMPI PUSH2 0x296B PUSH2 0x20B5 JUMP JUMPDEST JUMPDEST PUSH1 0x0 PUSH2 0x297A DUP6 DUP3 DUP7 ADD PUSH2 0x20E0 JUMP JUMPDEST SWAP3 POP POP PUSH1 0x20 DUP4 ADD CALLDATALOAD PUSH8 0xFFFFFFFFFFFFFFFF DUP2 GT ISZERO PUSH2 0x299B JUMPI PUSH2 0x299A PUSH2 0x20BA JUMP JUMPDEST JUMPDEST PUSH2 0x29A7 DUP6 DUP3 DUP7 ADD PUSH2 0x267A JUMP JUMPDEST SWAP2 POP POP SWAP3 POP SWAP3 SWAP1 POP JUMP JUMPDEST PUSH32 0x446F63756D656E7420646F6573206E6F74206578697374000000000000000000 PUSH1 0x0 DUP3 ADD MSTORE POP JUMP JUMPDEST PUSH1 0x0 PUSH2 0x29E7 PUSH1 0x17 DUP4 PUSH2 0x22D5 JUMP JUMPDEST SWAP2 POP PUSH2 0x29F2 DUP3 PUSH2 0x29B1 JUMP JUMPDEST PUSH1 0x20 DUP3 ADD SWAP1 POP SWAP2 SWAP1 POP JUMP JUMPDEST PUSH1 0x0 PUSH1 0x20 DUP3 ADD SWAP1 POP DUP2 DUP2 SUB PUSH1 0x0 DUP4 ADD MSTORE PUSH2 0x2A16 DUP2 PUSH2 0x29DA JUMP JUMPDEST SWAP1 POP SWAP2 SWAP1 POP JUMP JUMPDEST PUSH32 0x4E487B7100000000000000000000000000000000000000000000000000000000 PUSH1 0x0 MSTORE PUSH1 0x32 PUSH1 0x4 MSTORE PUSH1 0x24 PUSH1 0x0 REVERT JUMPDEST PUSH32 0x4E487B7100000000000000000000000000000000000000000000000000000000 PUSH1 0x0 MSTORE PUSH1 0x11 PUSH1 0x4 MSTORE PUSH1 0x24 PUSH1 0x0 REVERT JUMPDEST PUSH1 0x0 PUSH2 0x2A86 DUP3 PUSH2 0x20BF JUMP JUMPDEST SWAP2 POP PUSH32 0xFFFFFFFFFFFFFFFFFFFFFFFFFFFFFFFFFFFFFFFFFFFFFFFFFFFFFFFFFFFFFFFF DUP3 SUB PUSH2 0x2AB8 JUMPI PUSH2 0x2AB7 PUSH2 0x2A4C JUMP JUMPDEST JUMPDEST PUSH1 0x1 DUP3 ADD SWAP1 POP SWAP2 SWAP1 POP JUMP JUMPDEST PUSH32 0x4E487B7100000000000000000000000000000000000000000000000000000000 PUSH1 0x0 MSTORE PUSH1 0x22 PUSH1 0x4 MSTORE PUSH1 0x24 PUSH1 0x0 REVERT JUMPDEST PUSH1 0x0 PUSH1 0x2 DUP3 DIV SWAP1 POP PUSH1 0x1 DUP3 AND DUP1 PUSH2 0x2B0A JUMPI PUSH1 0x7F DUP3 AND SWAP2 POP JUMPDEST PUSH1 0x20 DUP3 LT DUP2 SUB PUSH2 0x2B1D JUMPI PUSH2 0x2B1C PUSH2 0x2AC3 JUMP JUMPDEST JUMPDEST POP SWAP2 SWAP1 POP JUMP JUMPDEST PUSH32 0x4E6F7420617574686F72697A6564207369676E65720000000000000000000000 PUSH1 0x0 DUP3 ADD MSTORE POP JUMP JUMPDEST PUSH1 0x0 PUSH2 0x2B59 PUSH1 0x15 DUP4 PUSH2 0x22D5 JUMP JUMPDEST SWAP2 POP PUSH2 0x2B64 DUP3 PUSH2 0x2B23 JUMP JUMPDEST PUSH1 0x20 DUP3 ADD SWAP1 POP SWAP2 SWAP1 POP JUMP JUMPDEST PUSH1 0x0 PUSH1 0x20 DUP3 ADD SWAP1 POP DUP2 DUP2 SUB PUSH1 0x0 DUP4 ADD MSTORE PUSH2 0x2B88 DUP2 PUSH2 0x2B4C JUMP JUMPDEST SWAP1 POP SWAP2 SWAP1 POP JUMP JUMPDEST PUSH32 0x446F63756D656E74206973207265766F6B656400000000000000000000000000 PUSH1 0x0 DUP3 ADD MSTORE POP JUMP JUMPDEST PUSH1 0x0 PUSH2 0x2BC5 PUSH1 0x13 DUP4 PUSH2 0x22D5 JUMP JUMPDEST SWAP2 POP PUSH2 0x2BD0 DUP3 PUSH2 0x2B8F JUMP JUMPDEST PUSH1 0x20 DUP3 ADD SWAP1 POP SWAP2 SWAP1 POP JUMP JUMPDEST PUSH1 0x0 PUSH1 0x20 DUP3 ADD SWAP1 POP DUP2 DUP2 SUB PUSH1 0x0 DUP4 ADD MSTORE PUSH2 0x2BF4 DUP2 PUSH2 0x2BB8 JUMP JUMPDEST SWAP1 POP SWAP2 SWAP1 POP JUMP JUMPDEST PUSH32 0x446F63756D656E74206578706972656400000000000000000000000000000000 PUSH1 0x0 DUP3 ADD MSTORE POP JUMP JUMPDEST PUSH1 0x0 PUSH2 0x2C31 PUSH1 0x10 DUP4 PUSH2 0x22D5 JUMP JUMPDEST SWAP2 POP PUSH2 0x2C3C DUP3 PUSH2 0x2BFB JUMP JUMPDEST PUSH1 0x20 DUP3 ADD SWAP1 POP SWAP2 SWAP1 POP JUMP JUMPDEST PUSH1 0x0 PUSH1 0x20 DUP3 ADD SWAP1 POP DUP2 DUP2 SUB PUSH1 0x0 DUP4 ADD MSTORE PUSH2 0x2C60 DUP2 PUSH2 0x2C24 JUMP JUMPDEST SWAP1 POP SWAP2 SWAP1 POP JUMP JUMPDEST PUSH32 0x416C7265616479207369676E6564000000000000000000000000000000000000 PUSH1 0x0 DUP3 ADD MSTORE POP JUMP JUMPDEST PUSH1 0x0 PUSH2 0x2C9D PUSH1 0xE DUP4 PUSH2 0x22D5 JUMP JUMPDEST SWAP2 POP PUSH2 0x2CA8 DUP3 PUSH2 0x2C67 JUMP JUMPDEST PUSH1 0x20 DUP3 ADD SWAP1 POP SWAP2 SWAP1 POP JUMP JUMPDEST PUSH1 0x0 PUSH1 0x20 DUP3 ADD SWAP1 POP DUP2 DUP2 SUB PUSH1 0x0 DUP4 ADD MSTORE PUSH2 0x2CCC DUP2 PUSH2 0x2C90 JUMP JUMPDEST SWAP1 POP SWAP2 SWAP1 POP JUMP JUMPDEST PUSH32 0x4E6F7420796F7572207475726E20746F207369676E0000000000000000000000 PUSH1 0x0 DUP3 ADD MSTORE POP JUMP JUMPDEST PUSH1 0x0 PUSH2 0x2D09 PUSH1 0x15 DUP4 PUSH2 0x22D5 JUMP JUMPDEST SWAP2 POP PUSH2 0x2D14 DUP3 PUSH2 0x2CD3 JUMP JUMPDEST PUSH1 0x20 DUP3 ADD SWAP1 POP SWAP2 SWAP1 POP JUMP JUMPDEST PUSH1 0x0 PUSH1 0x20 DUP3 ADD SWAP1 POP DUP2 DUP2 SUB PUSH1 0x0 DUP4 ADD MSTORE PUSH2 0x2D38 DUP2 PUSH2 0x2CFC JUMP JUMPDEST SWAP1 POP SWAP2 SWAP1 POP JUMP JUMPDEST PUSH32 0x55736572206E6F74207265676973746572656400000000000000000000000000 PUSH1 0x0 DUP3 ADD MSTORE POP JUMP JUMPDEST PUSH1 0x0 PUSH2 0x2D75 PUSH1 0x13 DUP4 PUSH2 0x22D5 JUMP JUMPDEST SWAP2 POP PUSH2 0x2D80 DUP3 PUSH2 0x2D3F JUMP JUMPDEST PUSH1 0x20 DUP3 ADD SWAP1 POP SWAP2 SWAP1 POP JUMP JUMPDEST PUSH1 0x0 PUSH1 0x20 DUP3 ADD SWAP1 POP DUP2 DUP2 SUB PUSH1 0x0 DUP4 ADD MSTORE PUSH2 0x2DA4 DUP2 PUSH2 0x2D68 JUMP JUMPDEST SWAP1 POP SWAP2 SWAP1 POP JUMP JUMPDEST PUSH32 0x416C726561647920726567697374657265640000000000000000000000000000 PUSH1 0x0 DUP3 ADD MSTORE POP JUMP JUMPDEST PUSH1 0x0 PUSH2 0x2DE1 PUSH1 0x12 DUP4 PUSH2 0x22D5 JUMP JUMPDEST SWAP2 POP PUSH2 0x2DEC DUP3 PUSH2 0x2DAB JUMP JUMPDEST PUSH1 0x20 DUP3 ADD SWAP1 POP SWAP2 SWAP1 POP JUMP JUMPDEST PUSH1 0x0 PUSH1 0x20 DUP3 ADD SWAP1 POP DUP2 DUP2 SUB PUSH1 0x0 DUP4 ADD MSTORE PUSH2 0x2E10 DUP2 PUSH2 0x2DD4 JUMP JUMPDEST SWAP1 POP SWAP2 SWAP1 POP JUMP JUMPDEST PUSH1 0x0 DUP2 SWAP1 POP DUP2 PUSH1 0x0 MSTORE PUSH1 0x20 PUSH1 0x0 KECCAK256 SWAP1 POP SWAP2 SWAP1 POP JUMP JUMPDEST PUSH1 0x0 PUSH1 0x20 PUSH1 0x1F DUP4 ADD DIV SWAP1 POP SWAP2 SWAP1 POP JUMP JUMPDEST PUSH1 0x0 DUP3 DUP3 SHL SWAP1 POP SWAP3 SWAP2 POP POP JUMP JUMPDEST PUSH1 0x0 PUSH1 0x8 DUP4 MUL PUSH2 0x2E79 PUSH32 0xFFFFFFFFFFFFFFFFFFFFFFFFFFFFFFFFFFFFFFFFFFFFFFFFFFFFFFFFFFFFFFFF DUP3 PUSH2 0x2E3C JUMP JUMPDEST PUSH2 0x2E83 DUP7 DUP4 PUSH2 0x2E3C JUMP JUMPDEST SWAP6 POP DUP1 NOT DUP5 AND SWAP4 POP DUP1 DUP7 AND DUP5 OR SWAP3 POP POP POP SWAP4 SWAP3 POP POP POP JUMP JUMPDEST PUSH1 0x0 DUP2 SWAP1 POP SWAP2 SWAP1 POP JUMP JUMPDEST PUSH1 0x0 PUSH2 0x2EC0 PUSH2 0x2EBB PUSH2 0x2EB6 DUP5 PUSH2 0x20BF JUMP JUMPDEST PUSH2 0x2E9B JUMP JUMPDEST PUSH2 0x20BF JUMP JUMPDEST SWAP1 POP SWAP2 SWAP1 POP JUMP JUMPDEST PUSH1 0x0 DUP2 SWAP1 POP SWAP2 SWAP1 POP JUMP JUMPDEST PUSH2 0x2EDA DUP4 PUSH2 0x2EA5 JUMP JUMPDEST PUSH2 0x2EEE PUSH2 0x2EE6 DUP3 PUSH2 0x2EC7 JUMP JUMPDEST DUP5 DUP5 SLOAD PUSH2 0x2E49 JUMP JUMPDEST DUP3 SSTORE POP POP POP POP JUMP JUMPDEST PUSH1 0x0 SWAP1 JUMP JUMPDEST PUSH2 0x2F03 PUSH2 0x2EF6 JUMP JUMPDEST PUSH2 0x2F0E DUP2 DUP5 DUP5 PUSH2 0x2ED1 JUMP JUMPDEST POP POP POP JUMP JUMPDEST JUMPDEST DUP2 DUP2 LT ISZERO PUSH2 0x2F32 JUMPI PUSH2 0x2F27 PUSH1 0x0 DUP3 PUSH2 0x2EFB JUMP JUMPDEST PUSH1 0x1 DUP2 ADD SWAP1 POP PUSH2 0x2F14 JUMP JUMPDEST POP POP JUMP JUMPDEST PUSH1 0x1F DUP3 GT ISZERO PUSH2 0x2F77 JUMPI PUSH2 0x2F48 DUP2 PUSH2 0x2E17 JUMP JUMPDEST PUSH2 0x2F51 DUP5 PUSH2 0x2E2C JUMP JUMPDEST DUP2 ADD PUSH1 0x20 DUP6 LT ISZERO PUSH2 0x2F60 JUMPI DUP2 SWAP1 POP JUMPDEST PUSH2 0x2F74 PUSH2 0x2F6C DUP6 PUSH2 0x2E2C JUMP JUMPDEST DUP4 ADD DUP3 PUSH2 0x2F13 JUMP JUMPDEST POP POP JUMPDEST POP POP POP JUMP JUMPDEST PUSH1 0x0 DUP3 DUP3 SHR SWAP1 POP SWAP3 SWAP2 POP POP JUMP JUMPDEST PUSH1 0x0 PUSH2 0x2F9A PUSH1 0x0 NOT DUP5 PUSH1 0x8 MUL PUSH2 0x2F7C JUMP JUMPDEST NOT DUP1 DUP4 AND SWAP2 POP POP SWAP3 SWAP2 POP POP JUMP JUMPDEST PUSH1 0x0 PUSH2 0x2FB3 DUP4 DUP4 PUSH2 0x2F89 JUMP JUMPDEST SWAP2 POP DUP3 PUSH1 0x2 MUL DUP3 OR SWAP1 POP SWAP3 SWAP2 POP POP JUMP JUMPDEST PUSH2 0x2FCC DUP3 PUSH2 0x22CA JUMP JUMPDEST PUSH8 0xFFFFFFFFFFFFFFFF DUP2 GT ISZERO PUSH2 0x2FE5 JUMPI PUSH2 0x2FE4 PUSH2 0x257D JUMP JUMPDEST JUMPDEST PUSH2 0x2FEF DUP3 SLOAD PUSH2 0x2AF2 JUMP JUMPDEST PUSH2 0x2FFA DUP3 DUP3 DUP6 PUSH2 0x2F36 JUMP JUMPDEST PUSH1 0x0 PUSH1 0x20 SWAP1 POP PUSH1 0x1F DUP4 GT PUSH1 0x1 DUP2 EQ PUSH2 0x302D JUMPI PUSH1 0x0 DUP5 ISZERO PUSH2 0x301B JUMPI DUP3 DUP8 ADD MLOAD SWAP1 POP JUMPDEST PUSH2 0x3025 DUP6 DUP3 PUSH2 0x2FA7 JUMP JUMPDEST DUP7 SSTORE POP PUSH2 0x308D JUMP JUMPDEST PUSH1 0x1F NOT DUP5 AND PUSH2 0x303B DUP7 PUSH2 0x2E17 JUMP JUMPDEST PUSH1 0x0 JUMPDEST DUP3 DUP2 LT ISZERO PUSH2 0x3063 JUMPI DUP5 DUP10 ADD MLOAD DUP3 SSTORE PUSH1 0x1 DUP3 ADD SWAP2 POP PUSH1 0x20 DUP6 ADD SWAP5 POP PUSH1 0x20 DUP2 ADD SWAP1 POP PUSH2 0x303E JUMP JUMPDEST DUP7 DUP4 LT ISZERO PUSH2 0x3080 JUMPI DUP5 DUP10 ADD MLOAD PUSH2 0x307C PUSH1 0x1F DUP10 AND DUP3 PUSH2 0x2F89 JUMP JUMPDEST DUP4 SSTORE POP JUMPDEST PUSH1 0x1 PUSH1 0x2 DUP9 MUL ADD DUP9 SSTORE POP POP POP JUMPDEST POP POP POP POP POP POP JUMP JUMPDEST PUSH1 0x0 PUSH1 0xA0 DUP3 ADD SWAP1 POP DUP2 DUP2 SUB PUSH1 0x0 DUP4 ADD MSTORE PUSH2 0x30AF DUP2 DUP9 PUSH2 0x2321 JUMP JUMPDEST SWAP1 POP DUP2 DUP2 SUB PUSH1 0x20 DUP4 ADD MSTORE PUSH2 0x30C3 DUP2 DUP8 PUSH2 0x2321 JUMP JUMPDEST SWAP1 POP DUP2 DUP2 SUB PUSH1 0x40 DUP4 ADD MSTORE PUSH2 0x30D7 DUP2 DUP7 PUSH2 0x2321 JUMP JUMPDEST SWAP1 POP PUSH2 0x30E6 PUSH1 0x60 DUP4 ADD DUP6 PUSH2 0x2193 JUMP JUMPDEST DUP2 DUP2 SUB PUSH1 0x80 DUP4 ADD MSTORE PUSH2 0x30F8 DUP2 DUP5 PUSH2 0x2321 JUMP JUMPDEST SWAP1 POP SWAP7 SWAP6 POP POP POP POP POP POP JUMP JUMPDEST PUSH32 0x4E6F7420646F63756D656E74206F776E65720000000000000000000000000000 PUSH1 0x0 DUP3 ADD MSTORE POP JUMP JUMPDEST PUSH1 0x0 PUSH2 0x313A PUSH1 0x12 DUP4 PUSH2 0x22D5 JUMP JUMPDEST SWAP2 POP PUSH2 0x3145 DUP3 PUSH2 0x3104 JUMP JUMPDEST PUSH1 0x20 DUP3 ADD SWAP1 POP SWAP2 SWAP1 POP JUMP JUMPDEST PUSH1 0x0 PUSH1 0x20 DUP3 ADD SWAP1 POP DUP2 DUP2 SUB PUSH1 0x0 DUP4 ADD MSTORE PUSH2 0x3169 DUP2 PUSH2 0x312D JUMP JUMPDEST SWAP1 POP SWAP2 SWAP1 POP JUMP JUMPDEST PUSH32 0x43616E6E6F7420616D656E642066756C6C79207369676E656420646F63756D65 PUSH1 0x0 DUP3 ADD MSTORE PUSH32 0x6E74000000000000000000000000000000000000000000000000000000000000 PUSH1 0x20 DUP3 ADD MSTORE POP JUMP JUMPDEST PUSH1 0x0 PUSH2 0x31CC PUSH1 0x22 DUP4 PUSH2 0x22D5 JUMP JUMPDEST SWAP2 POP PUSH2 0x31D7 DUP3 PUSH2 0x3170 JUMP JUMPDEST PUSH1 0x40 DUP3 ADD SWAP1 POP SWAP2 SWAP1 POP JUMP JUMPDEST PUSH1 0x0 PUSH1 0x20 DUP3 ADD SWAP1 POP DUP2 DUP2 SUB PUSH1 0x0 DUP4 ADD MSTORE PUSH2 0x31FB DUP2 PUSH2 0x31BF JUMP JUMPDEST SWAP1 POP SWAP2 SWAP1 POP JUMP JUMPDEST PUSH32 0x4950465320686173682072657175697265640000000000000000000000000000 PUSH1 0x0 DUP3 ADD MSTORE POP JUMP JUMPDEST PUSH1 0x0 PUSH2 0x3238 PUSH1 0x12 DUP4 PUSH2 0x22D5 JUMP JUMPDEST SWAP2 POP PUSH2 0x3243 DUP3 PUSH2 0x3202 JUMP JUMPDEST PUSH1 0x20 DUP3 ADD SWAP1 POP SWAP2 SWAP1 POP JUMP JUMPDEST PUSH1 0x0 PUSH1 0x20 DUP3 ADD SWAP1 POP DUP2 DUP2 SUB PUSH1 0x0 DUP4 ADD MSTORE PUSH2 0x3267 DUP2 PUSH2 0x322B JUMP JUMPDEST SWAP1 POP SWAP2 SWAP1 POP JUMP JUMPDEST PUSH32 0x457870697279206D75737420626520696E207468652066757475726500000000 PUSH1 0x0 DUP3 ADD MSTORE POP JUMP JUMPDEST PUSH1 0x0 PUSH2 0x32A4 PUSH1 0x1C DUP4 PUSH2 0x22D5 JUMP JUMPDEST SWAP2 POP PUSH2 0x32AF DUP3 PUSH2 0x326E JUMP JUMPDEST PUSH1 0x20 DUP3 ADD SWAP1 POP SWAP2 SWAP1 POP JUMP JUMPDEST PUSH1 0x0 PUSH1 0x20 DUP3 ADD SWAP1 POP DUP2 DUP2 SUB PUSH1 0x0 DUP4 ADD MSTORE PUSH2 0x32D3 DUP2 PUSH2 0x3297 JUMP JUMPDEST SWAP1 POP SWAP2 SWAP1 POP JUMP JUMPDEST PUSH1 0x0 PUSH1 0x40 DUP3 ADD SWAP1 POP DUP2 DUP2 SUB PUSH1 0x0 DUP4 ADD MSTORE PUSH2 0x32F4 DUP2 DUP6 PUSH2 0x2321 JUMP JUMPDEST SWAP1 POP PUSH2 0x3303 PUSH1 0x20 DUP4 ADD DUP5 PUSH2 0x2193 JUMP JUMPDEST SWAP4 SWAP3 POP POP POP JUMP JUMPDEST PUSH32 0x4174206C65617374206F6E65207369676E657220726571756972656400000000 PUSH1 0x0 DUP3 ADD MSTORE POP JUMP JUMPDEST PUSH1 0x0 PUSH2 0x3340 PUSH1 0x1C DUP4 PUSH2 0x22D5 JUMP JUMPDEST SWAP2 POP PUSH2 0x334B DUP3 PUSH2 0x330A JUMP JUMPDEST PUSH1 0x20 DUP3 ADD SWAP1 POP SWAP2 SWAP1 POP JUMP JUMPDEST PUSH1 0x0 PUSH1 0x20 DUP3 ADD SWAP1 POP DUP2 DUP2 SUB PUSH1 0x0 DUP4 ADD MSTORE PUSH2 0x336F DUP2 PUSH2 0x3333 JUMP JUMPDEST SWAP1 POP SWAP2 SWAP1 POP JUMP JUMPDEST PUSH32 0x496E76616C6964207369676E6572206164647265737300000000000000000000 PUSH1 0x0 DUP3 ADD MSTORE POP JUMP JUMPDEST PUSH1 0x0 PUSH2 0x33AC PUSH1 0x16 DUP4 PUSH2 0x22D5 JUMP JUMPDEST SWAP2 POP PUSH2 0x33B7 DUP3 PUSH2 0x3376 JUMP JUMPDEST PUSH1 0x20 DUP3 ADD SWAP1 POP SWAP2 SWAP1 POP JUMP JUMPDEST PUSH1 0x0 PUSH1 0x20 DUP3 ADD SWAP1 POP DUP2 DUP2 SUB PUSH1 0x0 DUP4 ADD MSTORE PUSH2 0x33DB DUP2 PUSH2 0x339F JUMP JUMPDEST SWAP1 POP SWAP2 SWAP1 POP JUMP JUMPDEST PUSH32 0x4F776E65722063616E6E6F74206265207369676E657200000000000000000000 PUSH1 0x0 DUP3 ADD MSTORE POP JUMP JUMPDEST PUSH1 0x0 PUSH2 0x3418 PUSH1 0x16 DUP4 PUSH2 0x22D5 JUMP JUMPDEST SWAP2 POP PUSH2 0x3423 DUP3 PUSH2 0x33E2 JUMP JUMPDEST PUSH1 0x20 DUP3 ADD SWAP1 POP SWAP2 SWAP1 POP JUMP JUMPDEST PUSH1 0x0 PUSH1 0x20 DUP3 ADD SWAP1 POP DUP2 DUP2 SUB PUSH1 0x0 DUP4 ADD MSTORE PUSH2 0x3447 DUP2 PUSH2 0x340B JUMP JUMPDEST SWAP1 POP SWAP2 SWAP1 POP JUMP JUMPDEST PUSH1 0x0 PUSH1 0x60 DUP3 ADD SWAP1 POP DUP2 DUP2 SUB PUSH1 0x0 DUP4 ADD MSTORE PUSH2 0x3468 DUP2 DUP7 PUSH2 0x2321 JUMP JUMPDEST SWAP1 POP DUP2 DUP2 SUB PUSH1 0x20 DUP4 ADD MSTORE PUSH2 0x347C DUP2 DUP6 PUSH2 0x221D JUMP JUMPDEST SWAP1 POP PUSH2 0x348B PUSH1 0x40 DUP4 ADD DUP5 PUSH2 0x2193 JUMP JUMPDEST SWAP5 SWAP4 POP POP POP POP JUMP JUMPDEST PUSH1 0x0 PUSH1 0x40 DUP3 ADD SWAP1 POP PUSH2 0x34A8 PUSH1 0x0 DUP4 ADD DUP6 PUSH2 0x2193 JUMP JUMPDEST DUP2 DUP2 SUB PUSH1 0x20 DUP4 ADD MSTORE PUSH2 0x34BA DUP2 DUP5 PUSH2 0x2321 JUMP JUMPDEST SWAP1 POP SWAP4 SWAP3 POP POP POP JUMP INVALID LOG2 PUSH5 0x6970667358 0x22 SLT KECCAK256 0xE2 GASLIMIT 0xC1 0x4A PUSH4 0xD6EA553A 0xE9 PUSH19 0x39B2C50F79036AA50845A21BD3DDD33EDB12E4 0xCE 0xA5 PUSH5 0x736F6C6343 STOP ADDMOD ISZERO STOP CALLER "},"methodIdentifiers":{"amendDocument(uint256,string,uint256)":"c2a6ebfb","createDocument(string,address[],uint256)":"cb561824","documentCount()":"a5b16b2e","getAllRegisteredUsers()":"397388af","getCurrentSigner(uint256)":"e0cd77b0","getDocument(uint256)":"3f9b250a","getRole(uint256,address)":"93552a3d","getSignTimestamp(uint256,address)":"1b1ab53d","getUserProfile(address)":"987ee156","hasSigned(uint256,address)":"709df8d9","isExpired(uint256)":"d9548e53","profiles(address)":"bbe15627","registerUser(string,string,string,uint256,string)":"b0cace06","registeredUsers(uint256)":"7259e0f8","revokeDocument(uint256,string)":"d0e2a019","signDocument(uint256)":"63a50d50"}}}}}