{"contracts/Docu3.sol":{"DocumentSign":{"abi":[{"anonymous":false,"inputs":[{"indexed":false,"internalType":"uint256","name":"docId","type":"uint256"},{"indexed":false,"internalType":"string","name":"ipfsHash","type":"string"},{"indexed":false,"internalType":"address","name":"creator","type":"address"}],"name":"DocumentCreated","type":"event"},{"anonymous":false,"inputs":[{"indexed":false,"internalType":"uint256","name":"docId","type":"uint256"},{"indexed":false,"internalType":"address","name":"signer","type":"address"}],"name":"DocumentSigned","type":"event"},{"inputs":[{"internalType":"string","name":"_ipfsHash","type":"string"},{"internalType":"address[]","name":"_signers","type":"address[]"}],"name":"createDocument","outputs":[],"stateMutability":"nonpayable","type":"function"},{"inputs":[],"name":"documentCount","outputs":[{"internalType":"uint256","name":"","type":"uint256"}],"stateMutability":"view","type":"function"},{"inputs":[{"internalType":"uint256","name":"","type":"uint256"}],"name":"documents","outputs":[{"internalType":"string","name":"ipfsHash","type":"string"}],"stateMutability":"view","type":"function"},{"inputs":[{"internalType":"uint256","name":"_docId","type":"uint256"}],"name":"signDocument","outputs":[],"stateMutability":"nonpayable","type":"function"}],"evm":{"bytecode":{"linkReferences":{},"object":"608060405234801561001057600080fd5b50610e15806100206000396000f3fe608060405234801561001057600080fd5b506004361061004c5760003560e01c806335ac60641461005157806363a50d501461006d578063a5b16b2e14610089578063c2ed2b05146100a7575b600080fd5b61006b60048036038101906100669190610767565b6100d7565b005b61008760048036038101906100829190610815565b610174565b005b610091610394565b60405161009e9190610851565b60405180910390f35b6100c160048036038101906100bc9190610815565b61039a565b6040516100ce91906108eb565b60405180910390f35b600160008154809291906100ea9061093c565b9190505550600080600060015481526020019081526020016000209050828160000190816101189190610b90565b5081816001019080519060200190610131929190610440565b507f5f0a17619d345853660d0544e8bab0797520ac2c4e6164ea0209a662418ddbfe600154843360405161016793929190610c71565b60405180910390a1505050565b600080600083815260200190815260200160002090508060020160003373ffffffffffffffffffffffffffffffffffffffff1673ffffffffffffffffffffffffffffffffffffffff16815260200190815260200160002060009054906101000a900460ff1615610219576040517f08c379a000000000000000000000000000000000000000000000000000000000815260040161021090610cfb565b60405180910390fd5b6000805b82600101805490508110156102bb573373ffffffffffffffffffffffffffffffffffffffff1683600101828154811061025957610258610d1b565b5b9060005260206000200160009054906101000a900473ffffffffffffffffffffffffffffffffffffffff1673ffffffffffffffffffffffffffffffffffffffff16036102a857600191506102bb565b80806102b39061093c565b91505061021d565b50806102fc576040517f08c379a00000000000000000000000000000000000000000000000000000000081526004016102f390610d96565b60405180910390fd5b60018260020160003373ffffffffffffffffffffffffffffffffffffffff1673ffffffffffffffffffffffffffffffffffffffff16815260200190815260200160002060006101000a81548160ff0219169083151502179055507f4f45c30875f552d4b5d0a40abede6e40cb9e3b5df6c24df5026d21f5417a7c708333604051610387929190610db6565b60405180910390a1505050565b60015481565b60006020528060005260406000206000915090508060000180546103bd906109b3565b80601f01602080910402602001604051908101604052809291908181526020018280546103e9906109b3565b80156104365780601f1061040b57610100808354040283529160200191610436565b820191906000526020600020905b81548152906001019060200180831161041957829003601f168201915b5050505050905081565b8280548282559060005260206000209081019282156104b9579160200282015b828111156104b85782518260006101000a81548173ffffffffffffffffffffffffffffffffffffffff021916908373ffffffffffffffffffffffffffffffffffffffff16021790555091602001919060010190610460565b5b5090506104c691906104ca565b5090565b5b808211156104e35760008160009055506001016104cb565b5090565b6000604051905090565b600080fd5b600080fd5b600080fd5b600080fd5b6000601f19601f8301169050919050565b7f4e487b7100000000000000000000000000000000000000000000000000000000600052604160045260246000fd5b61054e82610505565b810181811067ffffffffffffffff8211171561056d5761056c610516565b5b80604052505050565b60006105806104e7565b905061058c8282610545565b919050565b600067ffffffffffffffff8211156105ac576105ab610516565b5b6105b582610505565b9050602081019050919050565b82818337600083830152505050565b60006105e46105df84610591565b610576565b905082815260208101848484011115610600576105ff610500565b5b61060b8482856105c2565b509392505050565b600082601f830112610628576106276104fb565b5b81356106388482602086016105d1565b91505092915050565b600067ffffffffffffffff82111561065c5761065b610516565b5b602082029050602081019050919050565b600080fd5b600073ffffffffffffffffffffffffffffffffffffffff82169050919050565b600061069d82610672565b9050919050565b6106ad81610692565b81146106b857600080fd5b50565b6000813590506106ca816106a4565b92915050565b60006106e36106de84610641565b610576565b905080838252602082019050602084028301858111156107065761070561066d565b5b835b8181101561072f578061071b88826106bb565b845260208401935050602081019050610708565b5050509392505050565b600082601f83011261074e5761074d6104fb565b5b813561075e8482602086016106d0565b91505092915050565b6000806040838503121561077e5761077d6104f1565b5b600083013567ffffffffffffffff81111561079c5761079b6104f6565b5b6107a885828601610613565b925050602083013567ffffffffffffffff8111156107c9576107c86104f6565b5b6107d585828601610739565b9150509250929050565b6000819050919050565b6107f2816107df565b81146107fd57600080fd5b50565b60008135905061080f816107e9565b92915050565b60006020828403121561082b5761082a6104f1565b5b600061083984828501610800565b91505092915050565b61084b816107df565b82525050565b60006020820190506108666000830184610842565b92915050565b600081519050919050565b600082825260208201905092915050565b60005b838110156108a657808201518184015260208101905061088b565b60008484015250505050565b60006108bd8261086c565b6108c78185610877565b93506108d7818560208601610888565b6108e081610505565b840191505092915050565b6000602082019050818103600083015261090581846108b2565b905092915050565b7f4e487b7100000000000000000000000000000000000000000000000000000000600052601160045260246000fd5b6000610947826107df565b91507fffffffffffffffffffffffffffffffffffffffffffffffffffffffffffffffff82036109795761097861090d565b5b600182019050919050565b7f4e487b7100000000000000000000000000000000000000000000000000000000600052602260045260246000fd5b600060028204905060018216806109cb57607f821691505b6020821081036109de576109dd610984565b5b50919050565b60008190508160005260206000209050919050565b60006020601f8301049050919050565b600082821b905092915050565b600060088302610a467fffffffffffffffffffffffffffffffffffffffffffffffffffffffffffffffff82610a09565b610a508683610a09565b95508019841693508086168417925050509392505050565b6000819050919050565b6000610a8d610a88610a83846107df565b610a68565b6107df565b9050919050565b6000819050919050565b610aa783610a72565b610abb610ab382610a94565b848454610a16565b825550505050565b600090565b610ad0610ac3565b610adb818484610a9e565b505050565b5b81811015610aff57610af4600082610ac8565b600181019050610ae1565b5050565b601f821115610b4457610b15816109e4565b610b1e846109f9565b81016020851015610b2d578190505b610b41610b39856109f9565b830182610ae0565b50505b505050565b600082821c905092915050565b6000610b6760001984600802610b49565b1980831691505092915050565b6000610b808383610b56565b9150826002028217905092915050565b610b998261086c565b67ffffffffffffffff811115610bb257610bb1610516565b5b610bbc82546109b3565b610bc7828285610b03565b600060209050601f831160018114610bfa5760008415610be8578287015190505b610bf28582610b74565b865550610c5a565b601f198416610c08866109e4565b60005b82811015610c3057848901518255600182019150602085019450602081019050610c0b565b86831015610c4d5784890151610c49601f891682610b56565b8355505b6001600288020188555050505b505050505050565b610c6b81610692565b82525050565b6000606082019050610c866000830186610842565b8181036020830152610c9881856108b2565b9050610ca76040830184610c62565b949350505050565b7f416c7265616479207369676e6564000000000000000000000000000000000000600082015250565b6000610ce5600e83610877565b9150610cf082610caf565b602082019050919050565b60006020820190508181036000830152610d1481610cd8565b9050919050565b7f4e487b7100000000000000000000000000000000000000000000000000000000600052603260045260246000fd5b7f4e6f7420617574686f72697a6564207369676e65720000000000000000000000600082015250565b6000610d80601583610877565b9150610d8b82610d4a565b602082019050919050565b60006020820190508181036000830152610daf81610d73565b9050919050565b6000604082019050610dcb6000830185610842565b610dd86020830184610c62565b939250505056fea26469706673582212204c73d3bc05bebae9e79b0b83f1f8e5904719ac29f55c0afdf53deae1dd2438db64736f6c63430008150033","opcodes":"PUSH1 0x80 PUSH1 0x40 MSTORE CALLVALUE DUP1 ISZERO PUSH2 0x10 JUMPI PUSH1 0x0 DUP1 REVERT JUMPDEST POP PUSH2 0xE15 DUP1 PUSH2 0x20 PUSH1 0x0 CODECOPY PUSH1 0x0 RETURN INVALID PUSH1 0x80 PUSH1 0x40 MSTORE CALLVALUE DUP1 ISZERO PUSH2 0x10 JUMPI PUSH1 0x0 DUP1 REVERT JUMPDEST POP PUSH1 0x4 CALLDATASIZE LT PUSH2 0x4C JUMPI PUSH1 0x0 CALLDATALOAD PUSH1 0xE0 SHR DUP1 PUSH4 0x35AC6064 EQ PUSH2 0x51 JUMPI DUP1 PUSH4 0x63A50D50 EQ PUSH2 0x6D JUMPI DUP1 PUSH4 0xA5B16B2E EQ PUSH2 0x89 JUMPI DUP1 PUSH4 0xC2ED2B05 EQ PUSH2 0xA7 JUMPI JUMPDEST PUSH1 0x0 DUP1 REVERT JUMPDEST PUSH2 0x6B PUSH1 0x4 DUP1 CALLDATASIZE SUB DUP2 ADD SWAP1 PUSH2 0x66 SWAP2 SWAP1 PUSH2 0x767 JUMP JUMPDEST PUSH2 0xD7 JUMP JUMPDEST STOP JUMPDEST PUSH2 0x87 PUSH1 0x4 DUP1 CALLDATASIZE SUB DUP2 ADD SWAP1 PUSH2 0x82 SWAP2 SWAP1 PUSH2 0x815 JUMP JUMPDEST PUSH2 0x174 JUMP JUMPDEST STOP JUMPDEST PUSH2 0x91 PUSH2 0x394 JUMP JUMPDEST PUSH1 0x40 MLOAD PUSH2 0x9E SWAP2 SWAP1 PUSH2 0x851 JUMP JUMPDEST PUSH1 0x40 MLOAD DUP1 SWAP2 SUB SWAP1 RETURN JUMPDEST PUSH2 0xC1 PUSH1 0x4 DUP1 CALLDATASIZE SUB DUP2 ADD SWAP1 PUSH2 0xBC SWAP2 SWAP1 PUSH2 0x815 JUMP JUMPDEST PUSH2 0x39A JUMP JUMPDEST PUSH1 0x40 MLOAD PUSH2 0xCE SWAP2 SWAP1 PUSH2 0x8EB JUMP JUMPDEST PUSH1 0x40 MLOAD DUP1 SWAP2 SUB SWAP1 RETURN JUMPDEST PUSH1 0x1 PUSH1 0x0 DUP2 SLOAD DUP1 SWAP3 SWAP2 SWAP1 PUSH2 0xEA SWAP1 PUSH2 0x93C JUMP JUMPDEST SWAP2 SWAP1 POP SSTORE POP PUSH1 0x0 DUP1 PUSH1 0x0 PUSH1 0x1 SLOAD DUP2 MSTORE PUSH1 0x20 ADD SWAP1 DUP2 MSTORE PUSH1 0x20 ADD PUSH1 0x0 KECCAK256 SWAP1 POP DUP3 DUP2 PUSH1 0x0 ADD SWAP1 DUP2 PUSH2 0x118 SWAP2 SWAP1 PUSH2 0xB90 JUMP JUMPDEST POP DUP2 DUP2 PUSH1 0x1 ADD SWAP1 DUP1 MLOAD SWAP1 PUSH1 0x20 ADD SWAP1 PUSH2 0x131 SWAP3 SWAP2 SWAP1 PUSH2 0x440 JUMP JUMPDEST POP PUSH32 0x5F0A17619D345853660D0544E8BAB0797520AC2C4E6164EA0209A662418DDBFE PUSH1 0x1 SLOAD DUP5 CALLER PUSH1 0x40 MLOAD PUSH2 0x167 SWAP4 SWAP3 SWAP2 SWAP1 PUSH2 0xC71 JUMP JUMPDEST PUSH1 0x40 MLOAD DUP1 SWAP2 SUB SWAP1 LOG1 POP POP POP JUMP JUMPDEST PUSH1 0x0 DUP1 PUSH1 0x0 DUP4 DUP2 MSTORE PUSH1 0x20 ADD SWAP1 DUP2 MSTORE PUSH1 0x20 ADD PUSH1 0x0 KECCAK256 SWAP1 POP DUP1 PUSH1 0x2 ADD PUSH1 0x0 CALLER PUSH20 0xFFFFFFFFFFFFFFFFFFFFFFFFFFFFFFFFFFFFFFFF AND PUSH20 0xFFFFFFFFFFFFFFFFFFFFFFFFFFFFFFFFFFFFFFFF AND DUP2 MSTORE PUSH1 0x20 ADD SWAP1 DUP2 MSTORE PUSH1 0x20 ADD PUSH1 0x0 KECCAK256 PUSH1 0x0 SWAP1 SLOAD SWAP1 PUSH2 0x100 EXP SWAP1 DIV PUSH1 0xFF AND ISZERO PUSH2 0x219 JUMPI PUSH1 0x40 MLOAD PUSH32 0x8C379A000000000000000000000000000000000000000000000000000000000 DUP2 MSTORE PUSH1 0x4 ADD PUSH2 0x210 SWAP1 PUSH2 0xCFB JUMP JUMPDEST PUSH1 0x40 MLOAD DUP1 SWAP2 SUB SWAP1 REVERT JUMPDEST PUSH1 0x0 DUP1 JUMPDEST DUP3 PUSH1 0x1 ADD DUP1 SLOAD SWAP1 POP DUP2 LT ISZERO PUSH2 0x2BB JUMPI CALLER PUSH20 0xFFFFFFFFFFFFFFFFFFFFFFFFFFFFFFFFFFFFFFFF AND DUP4 PUSH1 0x1 ADD DUP3 DUP2 SLOAD DUP2 LT PUSH2 0x259 JUMPI PUSH2 0x258 PUSH2 0xD1B JUMP JUMPDEST JUMPDEST SWAP1 PUSH1 0x0 MSTORE PUSH1 0x20 PUSH1 0x0 KECCAK256 ADD PUSH1 0x0 SWAP1 SLOAD SWAP1 PUSH2 0x100 EXP SWAP1 DIV PUSH20 0xFFFFFFFFFFFFFFFFFFFFFFFFFFFFFFFFFFFFFFFF AND PUSH20 0xFFFFFFFFFFFFFFFFFFFFFFFFFFFFFFFFFFFFFFFF AND SUB PUSH2 0x2A8 JUMPI PUSH1 0x1 SWAP2 POP PUSH2 0x2BB JUMP JUMPDEST DUP1 DUP1 PUSH2 0x2B3 SWAP1 PUSH2 0x93C JUMP JUMPDEST SWAP2 POP POP PUSH2 0x21D JUMP JUMPDEST POP DUP1 PUSH2 0x2FC JUMPI PUSH1 0x40 MLOAD PUSH32 0x8C379A000000000000000000000000000000000000000000000000000000000 DUP2 MSTORE PUSH1 0x4 ADD PUSH2 0x2F3 SWAP1 PUSH2 0xD96 JUMP JUMPDEST PUSH1 0x40 MLOAD DUP1 SWAP2 SUB SWAP1 REVERT JUMPDEST PUSH1 0x1 DUP3 PUSH1 0x2 ADD PUSH1 0x0 CALLER PUSH20 0xFFFFFFFFFFFFFFFFFFFFFFFFFFFFFFFFFFFFFFFF AND PUSH20 0xFFFFFFFFFFFFFFFFFFFFFFFFFFFFFFFFFFFFFFFF AND DUP2 MSTORE PUSH1 0x20 ADD SWAP1 DUP2 MSTORE PUSH1 0x20 ADD PUSH1 0x0 KECCAK256 PUSH1 0x0 PUSH2 0x100 EXP DUP2 SLOAD DUP2 PUSH1 0xFF MUL NOT AND SWAP1 DUP4 ISZERO ISZERO MUL OR SWAP1 SSTORE POP PUSH32 0x4F45C30875F552D4B5D0A40ABEDE6E40CB9E3B5DF6C24DF5026D21F5417A7C70 DUP4 CALLER PUSH1 0x40 MLOAD PUSH2 0x387 SWAP3 SWAP2 SWAP1 PUSH2 0xDB6 JUMP JUMPDEST PUSH1 0x40 MLOAD DUP1 SWAP2 SUB SWAP1 LOG1 POP POP POP JUMP JUMPDEST PUSH1 0x1 SLOAD DUP2 JUMP JUMPDEST PUSH1 0x0 PUSH1 0x20 MSTORE DUP1 PUSH1 0x0 MSTORE PUSH1 0x40 PUSH1 0x0 KECCAK256 PUSH1 0x0 SWAP2 POP SWAP1 POP DUP1 PUSH1 0x0 ADD DUP1 SLOAD PUSH2 0x3BD SWAP1 PUSH2 0x9B3 JUMP JUMPDEST DUP1 PUSH1 0x1F ADD PUSH1 0x20 DUP1 SWAP2 DIV MUL PUSH1 0x20 ADD PUSH1 0x40 MLOAD SWAP1 DUP2 ADD PUSH1 0x40 MSTORE DUP1 SWAP3 SWAP2 SWAP1 DUP2 DUP2 MSTORE PUSH1 0x20 ADD DUP3 DUP1 SLOAD PUSH2 0x3E9 SWAP1 PUSH2 0x9B3 JUMP JUMPDEST DUP1 ISZERO PUSH2 0x436 JUMPI DUP1 PUSH1 0x1F LT PUSH2 0x40B JUMPI PUSH2 0x100 DUP1 DUP4 SLOAD DIV MUL DUP4 MSTORE SWAP2 PUSH1 0x20 ADD SWAP2 PUSH2 0x436 JUMP JUMPDEST DUP3 ADD SWAP2 SWAP1 PUSH1 0x0 MSTORE PUSH1 0x20 PUSH1 0x0 KECCAK256 SWAP1 JUMPDEST DUP2 SLOAD DUP2 MSTORE SWAP1 PUSH1 0x1 ADD SWAP1 PUSH1 0x20 ADD DUP1 DUP4 GT PUSH2 0x419 JUMPI DUP3 SWAP1 SUB PUSH1 0x1F AND DUP3 ADD SWAP2 JUMPDEST POP POP POP POP POP SWAP1 POP DUP2 JUMP JUMPDEST DUP3 DUP1 SLOAD DUP3 DUP3 SSTORE SWAP1 PUSH1 0x0 MSTORE PUSH1 0x20 PUSH1 0x0 KECCAK256 SWAP1 DUP2 ADD SWAP3 DUP3 ISZERO PUSH2 0x4B9 JUMPI SWAP2 PUSH1 0x20 MUL DUP3 ADD JUMPDEST DUP3 DUP2 GT ISZERO PUSH2 0x4B8 JUMPI DUP3 MLOAD DUP3 PUSH1 0x0 PUSH2 0x100 EXP DUP2 SLOAD DUP2 PUSH20 0xFFFFFFFFFFFFFFFFFFFFFFFFFFFFFFFFFFFFFFFF MUL NOT AND SWAP1 DUP4 PUSH20 0xFFFFFFFFFFFFFFFFFFFFFFFFFFFFFFFFFFFFFFFF AND MUL OR SWAP1 SSTORE POP SWAP2 PUSH1 0x20 ADD SWAP2 SWAP1 PUSH1 0x1 ADD SWAP1 PUSH2 0x460 JUMP JUMPDEST JUMPDEST POP SWAP1 POP PUSH2 0x4C6 SWAP2 SWAP1 PUSH2 0x4CA JUMP JUMPDEST POP SWAP1 JUMP JUMPDEST JUMPDEST DUP1 DUP3 GT ISZERO PUSH2 0x4E3 JUMPI PUSH1 0x0 DUP2 PUSH1 0x0 SWAP1 SSTORE POP PUSH1 0x1 ADD PUSH2 0x4CB JUMP JUMPDEST POP SWAP1 JUMP JUMPDEST PUSH1 0x0 PUSH1 0x40 MLOAD SWAP1 POP SWAP1 JUMP JUMPDEST PUSH1 0x0 DUP1 REVERT JUMPDEST PUSH1 0x0 DUP1 REVERT JUMPDEST PUSH1 0x0 DUP1 REVERT JUMPDEST PUSH1 0x0 DUP1 REVERT JUMPDEST PUSH1 0x0 PUSH1 0x1F NOT PUSH1 0x1F DUP4 ADD AND SWAP1 POP SWAP2 SWAP1 POP JUMP JUMPDEST PUSH32 0x4E487B7100000000000000000000000000000000000000000000000000000000 PUSH1 0x0 MSTORE PUSH1 0x41 PUSH1 0x4 MSTORE PUSH1 0x24 PUSH1 0x0 REVERT JUMPDEST PUSH2 0x54E DUP3 PUSH2 0x505 JUMP JUMPDEST DUP2 ADD DUP2 DUP2 LT PUSH8 0xFFFFFFFFFFFFFFFF DUP3 GT OR ISZERO PUSH2 0x56D JUMPI PUSH2 0x56C PUSH2 0x516 JUMP JUMPDEST JUMPDEST DUP1 PUSH1 0x40 MSTORE POP POP POP JUMP JUMPDEST PUSH1 0x0 PUSH2 0x580 PUSH2 0x4E7 JUMP JUMPDEST SWAP1 POP PUSH2 0x58C DUP3 DUP3 PUSH2 0x545 JUMP JUMPDEST SWAP2 SWAP1 POP JUMP JUMPDEST PUSH1 0x0 PUSH8 0xFFFFFFFFFFFFFFFF DUP3 GT ISZERO PUSH2 0x5AC JUMPI PUSH2 0x5AB PUSH2 0x516 JUMP JUMPDEST JUMPDEST PUSH2 0x5B5 DUP3 PUSH2 0x505 JUMP JUMPDEST SWAP1 POP PUSH1 0x20 DUP2 ADD SWAP1 POP SWAP2 SWAP1 POP JUMP JUMPDEST DUP3 DUP2 DUP4 CALLDATACOPY PUSH1 0x0 DUP4 DUP4 ADD MSTORE POP POP POP JUMP JUMPDEST PUSH1 0x0 PUSH2 0x5E4 PUSH2 0x5DF DUP5 PUSH2 0x591 JUMP JUMPDEST PUSH2 0x576 JUMP JUMPDEST SWAP1 POP DUP3 DUP2 MSTORE PUSH1 0x20 DUP2 ADD DUP5 DUP5 DUP5 ADD GT ISZERO PUSH2 0x600 JUMPI PUSH2 0x5FF PUSH2 0x500 JUMP JUMPDEST JUMPDEST PUSH2 0x60B DUP5 DUP3 DUP6 PUSH2 0x5C2 JUMP JUMPDEST POP SWAP4 SWAP3 POP POP POP JUMP JUMPDEST PUSH1 0x0 DUP3 PUSH1 0x1F DUP4 ADD SLT PUSH2 0x628 JUMPI PUSH2 0x627 PUSH2 0x4FB JUMP JUMPDEST JUMPDEST DUP2 CALLDATALOAD PUSH2 0x638 DUP5 DUP3 PUSH1 0x20 DUP7 ADD PUSH2 0x5D1 JUMP JUMPDEST SWAP2 POP POP SWAP3 SWAP2 POP POP JUMP JUMPDEST PUSH1 0x0 PUSH8 0xFFFFFFFFFFFFFFFF DUP3 GT ISZERO PUSH2 0x65C JUMPI PUSH2 0x65B PUSH2 0x516 JUMP JUMPDEST JUMPDEST PUSH1 0x20 DUP3 MUL SWAP1 POP PUSH1 0x20 DUP2 ADD SWAP1 POP SWAP2 SWAP1 POP JUMP JUMPDEST PUSH1 0x0 DUP1 REVERT JUMPDEST PUSH1 0x0 PUSH20 0xFFFFFFFFFFFFFFFFFFFFFFFFFFFFFFFFFFFFFFFF DUP3 AND SWAP1 POP SWAP2 SWAP1 POP JUMP JUMPDEST PUSH1 0x0 PUSH2 0x69D DUP3 PUSH2 0x672 JUMP JUMPDEST SWAP1 POP SWAP2 SWAP1 POP JUMP JUMPDEST PUSH2 0x6AD DUP2 PUSH2 0x692 JUMP JUMPDEST DUP2 EQ PUSH2 0x6B8 JUMPI PUSH1 0x0 DUP1 REVERT JUMPDEST POP JUMP JUMPDEST PUSH1 0x0 DUP2 CALLDATALOAD SWAP1 POP PUSH2 0x6CA DUP2 PUSH2 0x6A4 JUMP JUMPDEST SWAP3 SWAP2 POP POP JUMP JUMPDEST PUSH1 0x0 PUSH2 0x6E3 PUSH2 0x6DE DUP5 PUSH2 0x641 JUMP JUMPDEST PUSH2 0x576 JUMP JUMPDEST SWAP1 POP DUP1 DUP4 DUP3 MSTORE PUSH1 0x20 DUP3 ADD SWAP1 POP PUSH1 0x20 DUP5 MUL DUP4 ADD DUP6 DUP2 GT ISZERO PUSH2 0x706 JUMPI PUSH2 0x705 PUSH2 0x66D JUMP JUMPDEST JUMPDEST DUP4 JUMPDEST DUP2 DUP2 LT ISZERO PUSH2 0x72F JUMPI DUP1 PUSH2 0x71B DUP9 DUP3 PUSH2 0x6BB JUMP JUMPDEST DUP5 MSTORE PUSH1 0x20 DUP5 ADD SWAP4 POP POP PUSH1 0x20 DUP2 ADD SWAP1 POP PUSH2 0x708 JUMP JUMPDEST POP POP POP SWAP4 SWAP3 POP POP POP JUMP JUMPDEST PUSH1 0x0 DUP3 PUSH1 0x1F DUP4 ADD SLT PUSH2 0x74E JUMPI PUSH2 0x74D PUSH2 0x4FB JUMP JUMPDEST JUMPDEST DUP2 CALLDATALOAD PUSH2 0x75E DUP5 DUP3 PUSH1 0x20 DUP7 ADD PUSH2 0x6D0 JUMP JUMPDEST SWAP2 POP POP SWAP3 SWAP2 POP POP JUMP JUMPDEST PUSH1 0x0 DUP1 PUSH1 0x40 DUP4 DUP6 SUB SLT ISZERO PUSH2 0x77E JUMPI PUSH2 0x77D PUSH2 0x4F1 JUMP JUMPDEST JUMPDEST PUSH1 0x0 DUP4 ADD CALLDATALOAD PUSH8 0xFFFFFFFFFFFFFFFF DUP2 GT ISZERO PUSH2 0x79C JUMPI PUSH2 0x79B PUSH2 0x4F6 JUMP JUMPDEST JUMPDEST PUSH2 0x7A8 DUP6 DUP3 DUP7 ADD PUSH2 0x613 JUMP JUMPDEST SWAP3 POP POP PUSH1 0x20 DUP4 ADD CALLDATALOAD PUSH8 0xFFFFFFFFFFFFFFFF DUP2 GT ISZERO PUSH2 0x7C9 JUMPI PUSH2 0x7C8 PUSH2 0x4F6 JUMP JUMPDEST JUMPDEST PUSH2 0x7D5 DUP6 DUP3 DUP7 ADD PUSH2 0x739 JUMP JUMPDEST SWAP2 POP POP SWAP3 POP SWAP3 SWAP1 POP JUMP JUMPDEST PUSH1 0x0 DUP2 SWAP1 POP SWAP2 SWAP1 POP JUMP JUMPDEST PUSH2 0x7F2 DUP2 PUSH2 0x7DF JUMP JUMPDEST DUP2 EQ PUSH2 0x7FD JUMPI PUSH1 0x0 DUP1 REVERT JUMPDEST POP JUMP JUMPDEST PUSH1 0x0 DUP2 CALLDATALOAD SWAP1 POP PUSH2 0x80F DUP2 PUSH2 0x7E9 JUMP JUMPDEST SWAP3 SWAP2 POP POP JUMP JUMPDEST PUSH1 0x0 PUSH1 0x20 DUP3 DUP5 SUB SLT ISZERO PUSH2 0x82B JUMPI PUSH2 0x82A PUSH2 0x4F1 JUMP JUMPDEST JUMPDEST PUSH1 0x0 PUSH2 0x839 DUP5 DUP3 DUP6 ADD PUSH2 0x800 JUMP JUMPDEST SWAP2 POP POP SWAP3 SWAP2 POP POP JUMP JUMPDEST PUSH2 0x84B DUP2 PUSH2 0x7DF JUMP JUMPDEST DUP3 MSTORE POP POP JUMP JUMPDEST PUSH1 0x0 PUSH1 0x20 DUP3 ADD SWAP1 POP PUSH2 0x866 PUSH1 0x0 DUP4 ADD DUP5 PUSH2 0x842 JUMP JUMPDEST SWAP3 SWAP2 POP POP JUMP JUMPDEST PUSH1 0x0 DUP2 MLOAD SWAP1 POP SWAP2 SWAP1 POP JUMP JUMPDEST PUSH1 0x0 DUP3 DUP3 MSTORE PUSH1 0x20 DUP3 ADD SWAP1 POP SWAP3 SWAP2 POP POP JUMP JUMPDEST PUSH1 0x0 JUMPDEST DUP4 DUP2 LT ISZERO PUSH2 0x8A6 JUMPI DUP1 DUP3 ADD MLOAD DUP2 DUP5 ADD MSTORE PUSH1 0x20 DUP2 ADD SWAP1 POP PUSH2 0x88B JUMP JUMPDEST PUSH1 0x0 DUP5 DUP5 ADD MSTORE POP POP POP POP JUMP JUMPDEST PUSH1 0x0 PUSH2 0x8BD DUP3 PUSH2 0x86C JUMP JUMPDEST PUSH2 0x8C7 DUP2 DUP6 PUSH2 0x877 JUMP JUMPDEST SWAP4 POP PUSH2 0x8D7 DUP2 DUP6 PUSH1 0x20 DUP7 ADD PUSH2 0x888 JUMP JUMPDEST PUSH2 0x8E0 DUP2 PUSH2 0x505 JUMP JUMPDEST DUP5 ADD SWAP2 POP POP SWAP3 SWAP2 POP POP JUMP JUMPDEST PUSH1 0x0 PUSH1 0x20 DUP3 ADD SWAP1 POP DUP2 DUP2 SUB PUSH1 0x0 DUP4 ADD MSTORE PUSH2 0x905 DUP2 DUP5 PUSH2 0x8B2 JUMP JUMPDEST SWAP1 POP SWAP3 SWAP2 POP POP JUMP JUMPDEST PUSH32 0x4E487B7100000000000000000000000000000000000000000000000000000000 PUSH1 0x0 MSTORE PUSH1 0x11 PUSH1 0x4 MSTORE PUSH1 0x24 PUSH1 0x0 REVERT JUMPDEST PUSH1 0x0 PUSH2 0x947 DUP3 PUSH2 0x7DF JUMP JUMPDEST SWAP2 POP PUSH32 0xFFFFFFFFFFFFFFFFFFFFFFFFFFFFFFFFFFFFFFFFFFFFFFFFFFFFFFFFFFFFFFFF DUP3 SUB PUSH2 0x979 JUMPI PUSH2 0x978 PUSH2 0x90D JUMP JUMPDEST JUMPDEST PUSH1 0x1 DUP3 ADD SWAP1 POP SWAP2 SWAP1 POP JUMP JUMPDEST PUSH32 0x4E487B7100000000000000000000000000000000000000000000000000000000 PUSH1 0x0 MSTORE PUSH1 0x22 PUSH1 0x4 MSTORE PUSH1 0x24 PUSH1 0x0 REVERT JUMPDEST PUSH1 0x0 PUSH1 0x2 DUP3 DIV SWAP1 POP PUSH1 0x1 DUP3 AND DUP1 PUSH2 0x9CB JUMPI PUSH1 0x7F DUP3 AND SWAP2 POP JUMPDEST PUSH1 0x20 DUP3 LT DUP2 SUB PUSH2 0x9DE JUMPI PUSH2 0x9DD PUSH2 0x984 JUMP JUMPDEST JUMPDEST POP SWAP2 SWAP1 POP JUMP JUMPDEST PUSH1 0x0 DUP2 SWAP1 POP DUP2 PUSH1 0x0 MSTORE PUSH1 0x20 PUSH1 0x0 KECCAK256 SWAP1 POP SWAP2 SWAP1 POP JUMP JUMPDEST PUSH1 0x0 PUSH1 0x20 PUSH1 0x1F DUP4 ADD DIV SWAP1 POP SWAP2 SWAP1 POP JUMP JUMPDEST PUSH1 0x0 DUP3 DUP3 SHL SWAP1 POP SWAP3 SWAP2 POP POP JUMP JUMPDEST PUSH1 0x0 PUSH1 0x8 DUP4 MUL PUSH2 0xA46 PUSH32 0xFFFFFFFFFFFFFFFFFFFFFFFFFFFFFFFFFFFFFFFFFFFFFFFFFFFFFFFFFFFFFFFF DUP3 PUSH2 0xA09 JUMP JUMPDEST PUSH2 0xA50 DUP7 DUP4 PUSH2 0xA09 JUMP JUMPDEST SWAP6 POP DUP1 NOT DUP5 AND SWAP4 POP DUP1 DUP7 AND DUP5 OR SWAP3 POP POP POP SWAP4 SWAP3 POP POP POP JUMP JUMPDEST PUSH1 0x0 DUP2 SWAP1 POP SWAP2 SWAP1 POP JUMP JUMPDEST PUSH1 0x0 PUSH2 0xA8D PUSH2 0xA88 PUSH2 0xA83 DUP5 PUSH2 0x7DF JUMP JUMPDEST PUSH2 0xA68 JUMP JUMPDEST PUSH2 0x7DF JUMP JUMPDEST SWAP1 POP SWAP2 SWAP1 POP JUMP JUMPDEST PUSH1 0x0 DUP2 SWAP1 POP SWAP2 SWAP1 POP JUMP JUMPDEST PUSH2 0xAA7 DUP4 PUSH2 0xA72 JUMP JUMPDEST PUSH2 0xABB PUSH2 0xAB3 DUP3 PUSH2 0xA94 JUMP JUMPDEST DUP5 DUP5 SLOAD PUSH2 0xA16 JUMP JUMPDEST DUP3 SSTORE POP POP POP POP JUMP JUMPDEST PUSH1 0x0 SWAP1 JUMP JUMPDEST PUSH2 0xAD0 PUSH2 0xAC3 JUMP JUMPDEST PUSH2 0xADB DUP2 DUP5 DUP5 PUSH2 0xA9E JUMP JUMPDEST POP POP POP JUMP JUMPDEST JUMPDEST DUP2 DUP2 LT ISZERO PUSH2 0xAFF JUMPI PUSH2 0xAF4 PUSH1 0x0 DUP3 PUSH2 0xAC8 JUMP JUMPDEST PUSH1 0x1 DUP2 ADD SWAP1 POP PUSH2 0xAE1 JUMP JUMPDEST POP POP JUMP JUMPDEST PUSH1 0x1F DUP3 GT ISZERO PUSH2 0xB44 JUMPI PUSH2 0xB15 DUP2 PUSH2 0x9E4 JUMP JUMPDEST PUSH2 0xB1E DUP5 PUSH2 0x9F9 JUMP JUMPDEST DUP2 ADD PUSH1 0x20 DUP6 LT ISZERO PUSH2 0xB2D JUMPI DUP2 SWAP1 POP JUMPDEST PUSH2 0xB41 PUSH2 0xB39 DUP6 PUSH2 0x9F9 JUMP JUMPDEST DUP4 ADD DUP3 PUSH2 0xAE0 JUMP JUMPDEST POP POP JUMPDEST POP POP POP JUMP JUMPDEST PUSH1 0x0 DUP3 DUP3 SHR SWAP1 POP SWAP3 SWAP2 POP POP JUMP JUMPDEST PUSH1 0x0 PUSH2 0xB67 PUSH1 0x0 NOT DUP5 PUSH1 0x8 MUL PUSH2 0xB49 JUMP JUMPDEST NOT DUP1 DUP4 AND SWAP2 POP POP SWAP3 SWAP2 POP POP JUMP JUMPDEST PUSH1 0x0 PUSH2 0xB80 DUP4 DUP4 PUSH2 0xB56 JUMP JUMPDEST SWAP2 POP DUP3 PUSH1 0x2 MUL DUP3 OR SWAP1 POP SWAP3 SWAP2 POP POP JUMP JUMPDEST PUSH2 0xB99 DUP3 PUSH2 0x86C JUMP JUMPDEST PUSH8 0xFFFFFFFFFFFFFFFF DUP2 GT ISZERO PUSH2 0xBB2 JUMPI PUSH2 0xBB1 PUSH2 0x516 JUMP JUMPDEST JUMPDEST PUSH2 0xBBC DUP3 SLOAD PUSH2 0x9B3 JUMP JUMPDEST PUSH2 0xBC7 DUP3 DUP3 DUP6 PUSH2 0xB03 JUMP JUMPDEST PUSH1 0x0 PUSH1 0x20 SWAP1 POP PUSH1 0x1F DUP4 GT PUSH1 0x1 DUP2 EQ PUSH2 0xBFA JUMPI PUSH1 0x0 DUP5 ISZERO PUSH2 0xBE8 JUMPI DUP3 DUP8 ADD MLOAD SWAP1 POP JUMPDEST PUSH2 0xBF2 DUP6 DUP3 PUSH2 0xB74 JUMP JUMPDEST DUP7 SSTORE POP PUSH2 0xC5A JUMP JUMPDEST PUSH1 0x1F NOT DUP5 AND PUSH2 0xC08 DUP7 PUSH2 0x9E4 JUMP JUMPDEST PUSH1 0x0 JUMPDEST DUP3 DUP2 LT ISZERO PUSH2 0xC30 JUMPI DUP5 DUP10 ADD MLOAD DUP3 SSTORE PUSH1 0x1 DUP3 ADD SWAP2 POP PUSH1 0x20 DUP6 ADD SWAP5 POP PUSH1 0x20 DUP2 ADD SWAP1 POP PUSH2 0xC0B JUMP JUMPDEST DUP7 DUP4 LT ISZERO PUSH2 0xC4D JUMPI DUP5 DUP10 ADD MLOAD PUSH2 0xC49 PUSH1 0x1F DUP10 AND DUP3 PUSH2 0xB56 JUMP JUMPDEST DUP4 SSTORE POP JUMPDEST PUSH1 0x1 PUSH1 0x2 DUP9 MUL ADD DUP9 SSTORE POP POP POP JUMPDEST POP POP POP POP POP POP JUMP JUMPDEST PUSH2 0xC6B DUP2 PUSH2 0x692 JUMP JUMPDEST DUP3 MSTORE POP POP JUMP JUMPDEST PUSH1 0x0 PUSH1 0x60 DUP3 ADD SWAP1 POP PUSH2 0xC86 PUSH1 0x0 DUP4 ADD DUP7 PUSH2 0x842 JUMP JUMPDEST DUP2 DUP2 SUB PUSH1 0x20 DUP4 ADD MSTORE PUSH2 0xC98 DUP2 DUP6 PUSH2 0x8B2 JUMP JUMPDEST SWAP1 POP PUSH2 0xCA7 PUSH1 0x40 DUP4 ADD DUP5 PUSH2 0xC62 JUMP JUMPDEST SWAP5 SWAP4 POP POP POP POP JUMP JUMPDEST PUSH32 0x416C7265616479207369676E6564000000000000000000000000000000000000 PUSH1 0x0 DUP3 ADD MSTORE POP JUMP JUMPDEST PUSH1 0x0 PUSH2 0xCE5 PUSH1 0xE DUP4 PUSH2 0x877 JUMP JUMPDEST SWAP2 POP PUSH2 0xCF0 DUP3 PUSH2 0xCAF JUMP JUMPDEST PUSH1 0x20 DUP3 ADD SWAP1 POP SWAP2 SWAP1 POP JUMP JUMPDEST PUSH1 0x0 PUSH1 0x20 DUP3 ADD SWAP1 POP DUP2 DUP2 SUB PUSH1 0x0 DUP4 ADD MSTORE PUSH2 0xD14 DUP2 PUSH2 0xCD8 JUMP JUMPDEST SWAP1 POP SWAP2 SWAP1 POP JUMP JUMPDEST PUSH32 0x4E487B7100000000000000000000000000000000000000000000000000000000 PUSH1 0x0 MSTORE PUSH1 0x32 PUSH1 0x4 MSTORE PUSH1 0x24 PUSH1 0x0 REVERT JUMPDEST PUSH32 0x4E6F7420617574686F72697A6564207369676E65720000000000000000000000 PUSH1 0x0 DUP3 ADD MSTORE POP JUMP JUMPDEST PUSH1 0x0 PUSH2 0xD80 PUSH1 0x15 DUP4 PUSH2 0x877 JUMP JUMPDEST SWAP2 POP PUSH2 0xD8B DUP3 PUSH2 0xD4A JUMP JUMPDEST PUSH1 0x20 DUP3 ADD SWAP1 POP SWAP2 SWAP1 POP JUMP JUMPDEST PUSH1 0x0 PUSH1 0x20 DUP3 ADD SWAP1 POP DUP2 DUP2 SUB PUSH1 0x0 DUP4 ADD MSTORE PUSH2 0xDAF DUP2 PUSH2 0xD73 JUMP JUMPDEST SWAP1 POP SWAP2 SWAP1 POP JUMP JUMPDEST PUSH1 0x0 PUSH1 0x40 DUP3 ADD SWAP1 POP PUSH2 0xDCB PUSH1 0x0 DUP4 ADD DUP6 PUSH2 0x842 JUMP JUMPDEST PUSH2 0xDD8 PUSH1 0x20 DUP4 ADD DUP5 PUSH2 0xC62 JUMP JUMPDEST SWAP4 SWAP3 POP POP POP JUMP INVALID LOG2 PUSH5 0x6970667358 0x22 SLT KECCAK256 0x4C PUSH20 0xD3BC05BEBAE9E79B0B83F1F8E5904719AC29F55C EXP REVERT CREATE2 RETURNDATASIZE 0xEA 0xE1 0xDD 0x24 CODESIZE 0xDB PUSH5 0x736F6C6343 STOP ADDMOD ISZERO STOP CALLER "},"methodIdentifiers":{"createDocument(string,address[])":"35ac6064","documentCount()":"a5b16b2e","documents(uint256)":"c2ed2b05","signDocument(uint256)":"63a50d50"}}}}}