{"contracts/Docu3.sol":{"DocumentSign":{"abi":[{"anonymous":false,"inputs":[{"indexed":true,"internalType":"uint256","name":"docId","type":"uint256"},{"indexed":false,"internalType":"string","name":"ipfsHash","type":"string"},{"indexed":true,"internalType":"address","name":"creator","type":"address"},{"indexed":false,"internalType":"address[]","name":"signers","type":"address[]"},{"indexed":false,"internalType":"uint256","name":"createdAt","type":"uint256"}],"name":"DocumentCreated","type":"event"},{"anonymous":false,"inputs":[{"indexed":true,"internalType":"uint256","name":"docId","type":"uint256"},{"indexed":true,"internalType":"address","name":"revoker","type":"address"},{"indexed":false,"internalType":"uint256","name":"revokedAt","type":"uint256"}],"name":"DocumentRevoked","type":"event"},{"anonymous":false,"inputs":[{"indexed":true,"internalType":"uint256","name":"docId","type":"uint256"},{"indexed":true,"internalType":"address","name":"signer","type":"address"},{"indexed":false,"internalType":"uint256","name":"signedAt","type":"uint256"}],"name":"DocumentSigned","type":"event"},{"inputs":[{"internalType":"string","name":"_ipfsHash","type":"string"},{"internalType":"address[]","name":"_signers","type":"address[]"}],"name":"createDocument","outputs":[{"internalType":"uint256","name":"","type":"uint256"}],"stateMutability":"nonpayable","type":"function"},{"inputs":[],"name":"documentCount","outputs":[{"internalType":"uint256","name":"","type":"uint256"}],"stateMutability":"view","type":"function"},{"inputs":[{"internalType":"uint256","name":"_docId","type":"uint256"}],"name":"getDocument","outputs":[{"internalType":"string","name":"ipfsHash","type":"string"},{"internalType":"address","name":"creator","type":"address"},{"internalType":"address[]","name":"signers","type":"address[]"},{"internalType":"uint256","name":"createdAt","type":"uint256"},{"internalType":"uint256","name":"signatures","type":"uint256"},{"internalType":"bool","name":"fullySigned","type":"bool"},{"internalType":"bool","name":"isRevoked","type":"bool"}],"stateMutability":"view","type":"function"},{"inputs":[{"internalType":"uint256","name":"_docId","type":"uint256"},{"internalType":"address","name":"_user","type":"address"}],"name":"getRole","outputs":[{"internalType":"enum DocumentSign.Role","name":"","type":"uint8"}],"stateMutability":"view","type":"function"},{"inputs":[{"internalType":"uint256","name":"_docId","type":"uint256"},{"internalType":"address","name":"_signer","type":"address"}],"name":"getSignTimestamp","outputs":[{"internalType":"uint256","name":"","type":"uint256"}],"stateMutability":"view","type":"function"},{"inputs":[{"internalType":"uint256","name":"_docId","type":"uint256"},{"internalType":"address","name":"_signer","type":"address"}],"name":"hasSigned","outputs":[{"internalType":"bool","name":"","type":"bool"}],"stateMutability":"view","type":"function"},{"inputs":[{"internalType":"uint256","name":"_docId","type":"uint256"}],"name":"revokeDocument","outputs":[],"stateMutability":"nonpayable","type":"function"},{"inputs":[{"internalType":"uint256","name":"_docId","type":"uint256"}],"name":"signDocument","outputs":[],"stateMutability":"nonpayable","type":"function"}],"evm":{"bytecode":{"linkReferences":{},"object":"608060405234801561001057600080fd5b50611dcf806100206000396000f3fe608060405234801561001057600080fd5b50600436106100885760003560e01c8063709df8d91161005b578063709df8d91461013f57806393552a3d1461016f578063a5b16b2e1461019f578063fba1842a146101bd57610088565b80631b1ab53d1461008d57806335ac6064146100bd5780633f9b250a146100ed57806363a50d5014610123575b600080fd5b6100a760048036038101906100a29190611056565b6101d9565b6040516100b491906110a5565b60405180910390f35b6100d760048036038101906100d291906112ce565b610236565b6040516100e491906110a5565b60405180910390f35b61010760048036038101906101029190611346565b610669565b60405161011a97969594939291906114da565b60405180910390f35b61013d60048036038101906101389190611346565b61091d565b005b61015960048036038101906101549190611056565b610c5d565b6040516101669190611557565b60405180910390f35b61018960048036038101906101849190611056565b610cc7565b60405161019691906115e9565b60405180910390f35b6101a7610d93565b6040516101b491906110a5565b60405180910390f35b6101d760048036038101906101d29190611346565b610d99565b005b600080600084815260200190815260200160002060050160008373ffffffffffffffffffffffffffffffffffffffff1673ffffffffffffffffffffffffffffffffffffffff16815260200190815260200160002054905092915050565b60008083511161027b576040517f08c379a000000000000000000000000000000000000000000000000000000000815260040161027290611650565b60405180910390fd5b60008251116102bf576040517f08c379a00000000000000000000000000000000000000000000000000000000081526004016102b6906116bc565b60405180910390fd5b600160008154809291906102d29061170b565b919050555060008060006001548152602001908152602001600020905083816000019081610300919061195f565b50338160010160006101000a81548173ffffffffffffffffffffffffffffffffffffffff021916908373ffffffffffffffffffffffffffffffffffffffff16021790555042816006018190555060018160080160016101000a81548160ff02191690831515021790555060018160030160003373ffffffffffffffffffffffffffffffffffffffff1673ffffffffffffffffffffffffffffffffffffffff16815260200190815260200160002060006101000a81548160ff021916908360028111156103cf576103ce611572565b5b021790555060005b835181101561060757600073ffffffffffffffffffffffffffffffffffffffff1684828151811061040b5761040a611a31565b5b602002602001015173ffffffffffffffffffffffffffffffffffffffff1603610469576040517f08c379a000000000000000000000000000000000000000000000000000000000815260040161046090611aac565b60405180910390fd5b3373ffffffffffffffffffffffffffffffffffffffff1684828151811061049357610492611a31565b5b602002602001015173ffffffffffffffffffffffffffffffffffffffff16036104f1576040517f08c379a00000000000000000000000000000000000000000000000000000000081526004016104e890611b18565b60405180910390fd5b8160020184828151811061050857610507611a31565b5b60200260200101519080600181540180825580915050600190039060005260206000200160009091909190916101000a81548173ffffffffffffffffffffffffffffffffffffffff021916908373ffffffffffffffffffffffffffffffffffffffff160217905550600282600301600086848151811061058b5761058a611a31565b5b602002602001015173ffffffffffffffffffffffffffffffffffffffff1673ffffffffffffffffffffffffffffffffffffffff16815260200190815260200160002060006101000a81548160ff021916908360028111156105ef576105ee611572565b5b021790555080806105ff9061170b565b9150506103d7565b503373ffffffffffffffffffffffffffffffffffffffff166001547f0f34f336d6e1cc231d161403dd583f287c90d4e144120937a223d9531afe848c86864260405161065593929190611b38565b60405180910390a360015491505092915050565b60606000606060008060008060008060008a815260200190815260200160002090508060080160019054906101000a900460ff166106dc576040517f08c379a00000000000000000000000000000000000000000000000000000000081526004016106d390611bc9565b60405180910390fd5b60006001905060005b82600201805490508110156107a3578260040160008460020183815481106107105761070f611a31565b5b9060005260206000200160009054906101000a900473ffffffffffffffffffffffffffffffffffffffff1673ffffffffffffffffffffffffffffffffffffffff1673ffffffffffffffffffffffffffffffffffffffff16815260200190815260200160002060009054906101000a900460ff1661079057600091506107a3565b808061079b9061170b565b9150506106e5565b50816000018260010160009054906101000a900473ffffffffffffffffffffffffffffffffffffffff168360020184600601548560070154858760080160009054906101000a900460ff168680546107fa90611782565b80601f016020809104026020016040519081016040528092919081815260200182805461082690611782565b80156108735780601f1061084857610100808354040283529160200191610873565b820191906000526020600020905b81548152906001019060200180831161085657829003601f168201915b50505050509650848054806020026020016040519081016040528092919081815260200182805480156108fb57602002820191906000526020600020905b8160009054906101000a900473ffffffffffffffffffffffffffffffffffffffff1673ffffffffffffffffffffffffffffffffffffffff16815260200190600101908083116108b1575b5050505050945098509850985098509850985098505050919395979092949650565b8060008082815260200190815260200160002060080160019054906101000a900460ff16610980576040517f08c379a000000000000000000000000000000000000000000000000000000000815260040161097790611bc9565b60405180910390fd5b60028081111561099357610992611572565b5b60008083815260200190815260200160002060030160003373ffffffffffffffffffffffffffffffffffffffff1673ffffffffffffffffffffffffffffffffffffffff16815260200190815260200160002060009054906101000a900460ff166002811115610a0557610a04611572565b5b14610a45576040517f08c379a0000000000000000000000000000000000000000000000000000000008152600401610a3c90611c35565b60405180910390fd5b8160008082815260200190815260200160002060080160009054906101000a900460ff1615610aa9576040517f08c379a0000000000000000000000000000000000000000000000000000000008152600401610aa090611ca1565b60405180910390fd5b600080600085815260200190815260200160002090508060040160003373ffffffffffffffffffffffffffffffffffffffff1673ffffffffffffffffffffffffffffffffffffffff16815260200190815260200160002060009054906101000a900460ff1615610b4e576040517f08c379a0000000000000000000000000000000000000000000000000000000008152600401610b4590611d0d565b60405180910390fd5b60018160040160003373ffffffffffffffffffffffffffffffffffffffff1673ffffffffffffffffffffffffffffffffffffffff16815260200190815260200160002060006101000a81548160ff021916908315150217905550428160050160003373ffffffffffffffffffffffffffffffffffffffff1673ffffffffffffffffffffffffffffffffffffffff16815260200190815260200160002081905550806007016000815480929190610c039061170b565b91905055503373ffffffffffffffffffffffffffffffffffffffff16847fe7324c4138a9f505bfe9d1de2fbfe2aef2ef2fee70ea9d93b5b2d348a1bbdd2a42604051610c4f91906110a5565b60405180910390a350505050565b600080600084815260200190815260200160002060040160008373ffffffffffffffffffffffffffffffffffffffff1673ffffffffffffffffffffffffffffffffffffffff16815260200190815260200160002060009054906101000a900460ff16905092915050565b600080600084815260200190815260200160002060080160019054906101000a900460ff16610d2b576040517f08c379a0000000000000000000000000000000000000000000000000000000008152600401610d2290611bc9565b60405180910390fd5b60008084815260200190815260200160002060030160008373ffffffffffffffffffffffffffffffffffffffff1673ffffffffffffffffffffffffffffffffffffffff16815260200190815260200160002060009054906101000a900460ff16905092915050565b60015481565b8060008082815260200190815260200160002060080160019054906101000a900460ff16610dfc576040517f08c379a0000000000000000000000000000000000000000000000000000000008152600401610df390611bc9565b60405180910390fd5b60016002811115610e1057610e0f611572565b5b60008083815260200190815260200160002060030160003373ffffffffffffffffffffffffffffffffffffffff1673ffffffffffffffffffffffffffffffffffffffff16815260200190815260200160002060009054906101000a900460ff166002811115610e8257610e81611572565b5b14610ec2576040517f08c379a0000000000000000000000000000000000000000000000000000000008152600401610eb990611d79565b60405180910390fd5b8160008082815260200190815260200160002060080160009054906101000a900460ff1615610f26576040517f08c379a0000000000000000000000000000000000000000000000000000000008152600401610f1d90611ca1565b60405180910390fd5b6000806000858152602001908152602001600020905060018160080160006101000a81548160ff0219169083151502179055503373ffffffffffffffffffffffffffffffffffffffff16847f64528b505f9036d109710ee785a2b439943867003b9a4f7d1f3958f101104fbf42604051610fa091906110a5565b60405180910390a350505050565b6000604051905090565b600080fd5b600080fd5b6000819050919050565b610fd581610fc2565b8114610fe057600080fd5b50565b600081359050610ff281610fcc565b92915050565b600073ffffffffffffffffffffffffffffffffffffffff82169050919050565b600061102382610ff8565b9050919050565b61103381611018565b811461103e57600080fd5b50565b6000813590506110508161102a565b92915050565b6000806040838503121561106d5761106c610fb8565b5b600061107b85828601610fe3565b925050602061108c85828601611041565b9150509250929050565b61109f81610fc2565b82525050565b60006020820190506110ba6000830184611096565b92915050565b600080fd5b600080fd5b6000601f19601f8301169050919050565b7f4e487b7100000000000000000000000000000000000000000000000000000000600052604160045260246000fd5b611113826110ca565b810181811067ffffffffffffffff82111715611132576111316110db565b5b80604052505050565b6000611145610fae565b9050611151828261110a565b919050565b600067ffffffffffffffff821115611171576111706110db565b5b61117a826110ca565b9050602081019050919050565b82818337600083830152505050565b60006111a96111a484611156565b61113b565b9050828152602081018484840111156111c5576111c46110c5565b5b6111d0848285611187565b509392505050565b600082601f8301126111ed576111ec6110c0565b5b81356111fd848260208601611196565b91505092915050565b600067ffffffffffffffff821115611221576112206110db565b5b602082029050602081019050919050565b600080fd5b600061124a61124584611206565b61113b565b9050808382526020820190506020840283018581111561126d5761126c611232565b5b835b8181101561129657806112828882611041565b84526020840193505060208101905061126f565b5050509392505050565b600082601f8301126112b5576112b46110c0565b5b81356112c5848260208601611237565b91505092915050565b600080604083850312156112e5576112e4610fb8565b5b600083013567ffffffffffffffff81111561130357611302610fbd565b5b61130f858286016111d8565b925050602083013567ffffffffffffffff8111156113305761132f610fbd565b5b61133c858286016112a0565b9150509250929050565b60006020828403121561135c5761135b610fb8565b5b600061136a84828501610fe3565b91505092915050565b600081519050919050565b600082825260208201905092915050565b60005b838110156113ad578082015181840152602081019050611392565b60008484015250505050565b60006113c482611373565b6113ce818561137e565b93506113de81856020860161138f565b6113e7816110ca565b840191505092915050565b6113fb81611018565b82525050565b600081519050919050565b600082825260208201905092915050565b6000819050602082019050919050565b61143681611018565b82525050565b6000611448838361142d565b60208301905092915050565b6000602082019050919050565b600061146c82611401565b611476818561140c565b93506114818361141d565b8060005b838110156114b2578151611499888261143c565b97506114a483611454565b925050600181019050611485565b5085935050505092915050565b60008115159050919050565b6114d4816114bf565b82525050565b600060e08201905081810360008301526114f4818a6113b9565b905061150360208301896113f2565b81810360408301526115158188611461565b90506115246060830187611096565b6115316080830186611096565b61153e60a08301856114cb565b61154b60c08301846114cb565b98975050505050505050565b600060208201905061156c60008301846114cb565b92915050565b7f4e487b7100000000000000000000000000000000000000000000000000000000600052602160045260246000fd5b600381106115b2576115b1611572565b5b50565b60008190506115c3826115a1565b919050565b60006115d3826115b5565b9050919050565b6115e3816115c8565b82525050565b60006020820190506115fe60008301846115da565b92915050565b7f4950465320686173682072657175697265640000000000000000000000000000600082015250565b600061163a60128361137e565b915061164582611604565b602082019050919050565b600060208201905081810360008301526116698161162d565b9050919050565b7f4174206c65617374206f6e65207369676e657220726571756972656400000000600082015250565b60006116a6601c8361137e565b91506116b182611670565b602082019050919050565b600060208201905081810360008301526116d581611699565b9050919050565b7f4e487b7100000000000000000000000000000000000000000000000000000000600052601160045260246000fd5b600061171682610fc2565b91507fffffffffffffffffffffffffffffffffffffffffffffffffffffffffffffffff8203611748576117476116dc565b5b600182019050919050565b7f4e487b7100000000000000000000000000000000000000000000000000000000600052602260045260246000fd5b6000600282049050600182168061179a57607f821691505b6020821081036117ad576117ac611753565b5b50919050565b60008190508160005260206000209050919050565b60006020601f8301049050919050565b600082821b905092915050565b6000600883026118157fffffffffffffffffffffffffffffffffffffffffffffffffffffffffffffffff826117d8565b61181f86836117d8565b95508019841693508086168417925050509392505050565b6000819050919050565b600061185c61185761185284610fc2565b611837565b610fc2565b9050919050565b6000819050919050565b61187683611841565b61188a61188282611863565b8484546117e5565b825550505050565b600090565b61189f611892565b6118aa81848461186d565b505050565b5b818110156118ce576118c3600082611897565b6001810190506118b0565b5050565b601f821115611913576118e4816117b3565b6118ed846117c8565b810160208510156118fc578190505b611910611908856117c8565b8301826118af565b50505b505050565b600082821c905092915050565b600061193660001984600802611918565b1980831691505092915050565b600061194f8383611925565b9150826002028217905092915050565b61196882611373565b67ffffffffffffffff811115611981576119806110db565b5b61198b8254611782565b6119968282856118d2565b600060209050601f8311600181146119c957600084156119b7578287015190505b6119c18582611943565b865550611a29565b601f1984166119d7866117b3565b60005b828110156119ff578489015182556001820191506020850194506020810190506119da565b86831015611a1c5784890151611a18601f891682611925565b8355505b6001600288020188555050505b505050505050565b7f4e487b7100000000000000000000000000000000000000000000000000000000600052603260045260246000fd5b7f496e76616c6964207369676e6572206164647265737300000000000000000000600082015250565b6000611a9660168361137e565b9150611aa182611a60565b602082019050919050565b60006020820190508181036000830152611ac581611a89565b9050919050565b7f4f776e65722063616e6e6f74206265207369676e657200000000000000000000600082015250565b6000611b0260168361137e565b9150611b0d82611acc565b602082019050919050565b60006020820190508181036000830152611b3181611af5565b9050919050565b60006060820190508181036000830152611b5281866113b9565b90508181036020830152611b668185611461565b9050611b756040830184611096565b949350505050565b7f446f63756d656e7420646f6573206e6f74206578697374000000000000000000600082015250565b6000611bb360178361137e565b9150611bbe82611b7d565b602082019050919050565b60006020820190508181036000830152611be281611ba6565b9050919050565b7f4e6f7420617574686f72697a6564207369676e65720000000000000000000000600082015250565b6000611c1f60158361137e565b9150611c2a82611be9565b602082019050919050565b60006020820190508181036000830152611c4e81611c12565b9050919050565b7f446f63756d656e74206973207265766f6b656400000000000000000000000000600082015250565b6000611c8b60138361137e565b9150611c9682611c55565b602082019050919050565b60006020820190508181036000830152611cba81611c7e565b9050919050565b7f416c7265616479207369676e6564000000000000000000000000000000000000600082015250565b6000611cf7600e8361137e565b9150611d0282611cc1565b602082019050919050565b60006020820190508181036000830152611d2681611cea565b9050919050565b7f4e6f7420646f63756d656e74206f776e65720000000000000000000000000000600082015250565b6000611d6360128361137e565b9150611d6e82611d2d565b602082019050919050565b60006020820190508181036000830152611d9281611d56565b905091905056fea2646970667358221220178e35e1dd17fd7bf7686ebd079df9e52987702073fdd16e17159f124064bf2564736f6c63430008150033","opcodes":"PUSH1 0x80 PUSH1 0x40 MSTORE CALLVALUE DUP1 ISZERO PUSH2 0x10 JUMPI PUSH1 0x0 DUP1 REVERT JUMPDEST POP PUSH2 0x1DCF DUP1 PUSH2 0x20 PUSH1 0x0 CODECOPY PUSH1 0x0 RETURN INVALID PUSH1 0x80 PUSH1 0x40 MSTORE CALLVALUE DUP1 ISZERO PUSH2 0x10 JUMPI PUSH1 0x0 DUP1 REVERT JUMPDEST POP PUSH1 0x4 CALLDATASIZE LT PUSH2 0x88 JUMPI PUSH1 0x0 CALLDATALOAD PUSH1 0xE0 SHR DUP1 PUSH4 0x709DF8D9 GT PUSH2 0x5B JUMPI DUP1 PUSH4 0x709DF8D9 EQ PUSH2 0x13F JUMPI DUP1 PUSH4 0x93552A3D EQ PUSH2 0x16F JUMPI DUP1 PUSH4 0xA5B16B2E EQ PUSH2 0x19F JUMPI DUP1 PUSH4 0xFBA1842A EQ PUSH2 0x1BD JUMPI PUSH2 0x88 JUMP JUMPDEST DUP1 PUSH4 0x1B1AB53D EQ PUSH2 0x8D JUMPI DUP1 PUSH4 0x35AC6064 EQ PUSH2 0xBD JUMPI DUP1 PUSH4 0x3F9B250A EQ PUSH2 0xED JUMPI DUP1 PUSH4 0x63A50D50 EQ PUSH2 0x123 JUMPI JUMPDEST PUSH1 0x0 DUP1 REVERT JUMPDEST PUSH2 0xA7 PUSH1 0x4 DUP1 CALLDATASIZE SUB DUP2 ADD SWAP1 PUSH2 0xA2 SWAP2 SWAP1 PUSH2 0x1056 JUMP JUMPDEST PUSH2 0x1D9 JUMP JUMPDEST PUSH1 0x40 MLOAD PUSH2 0xB4 SWAP2 SWAP1 PUSH2 0x10A5 JUMP JUMPDEST PUSH1 0x40 MLOAD DUP1 SWAP2 SUB SWAP1 RETURN JUMPDEST PUSH2 0xD7 PUSH1 0x4 DUP1 CALLDATASIZE SUB DUP2 ADD SWAP1 PUSH2 0xD2 SWAP2 SWAP1 PUSH2 0x12CE JUMP JUMPDEST PUSH2 0x236 JUMP JUMPDEST PUSH1 0x40 MLOAD PUSH2 0xE4 SWAP2 SWAP1 PUSH2 0x10A5 JUMP JUMPDEST PUSH1 0x40 MLOAD DUP1 SWAP2 SUB SWAP1 RETURN JUMPDEST PUSH2 0x107 PUSH1 0x4 DUP1 CALLDATASIZE SUB DUP2 ADD SWAP1 PUSH2 0x102 SWAP2 SWAP1 PUSH2 0x1346 JUMP JUMPDEST PUSH2 0x669 JUMP JUMPDEST PUSH1 0x40 MLOAD PUSH2 0x11A SWAP8 SWAP7 SWAP6 SWAP5 SWAP4 SWAP3 SWAP2 SWAP1 PUSH2 0x14DA JUMP JUMPDEST PUSH1 0x40 MLOAD DUP1 SWAP2 SUB SWAP1 RETURN JUMPDEST PUSH2 0x13D PUSH1 0x4 DUP1 CALLDATASIZE SUB DUP2 ADD SWAP1 PUSH2 0x138 SWAP2 SWAP1 PUSH2 0x1346 JUMP JUMPDEST PUSH2 0x91D JUMP JUMPDEST STOP JUMPDEST PUSH2 0x159 PUSH1 0x4 DUP1 CALLDATASIZE SUB DUP2 ADD SWAP1 PUSH2 0x154 SWAP2 SWAP1 PUSH2 0x1056 JUMP JUMPDEST PUSH2 0xC5D JUMP JUMPDEST PUSH1 0x40 MLOAD PUSH2 0x166 SWAP2 SWAP1 PUSH2 0x1557 JUMP JUMPDEST PUSH1 0x40 MLOAD DUP1 SWAP2 SUB SWAP1 RETURN JUMPDEST PUSH2 0x189 PUSH1 0x4 DUP1 CALLDATASIZE SUB DUP2 ADD SWAP1 PUSH2 0x184 SWAP2 SWAP1 PUSH2 0x1056 JUMP JUMPDEST PUSH2 0xCC7 JUMP JUMPDEST PUSH1 0x40 MLOAD PUSH2 0x196 SWAP2 SWAP1 PUSH2 0x15E9 JUMP JUMPDEST PUSH1 0x40 MLOAD DUP1 SWAP2 SUB SWAP1 RETURN JUMPDEST PUSH2 0x1A7 PUSH2 0xD93 JUMP JUMPDEST PUSH1 0x40 MLOAD PUSH2 0x1B4 SWAP2 SWAP1 PUSH2 0x10A5 JUMP JUMPDEST PUSH1 0x40 MLOAD DUP1 SWAP2 SUB SWAP1 RETURN JUMPDEST PUSH2 0x1D7 PUSH1 0x4 DUP1 CALLDATASIZE SUB DUP2 ADD SWAP1 PUSH2 0x1D2 SWAP2 SWAP1 PUSH2 0x1346 JUMP JUMPDEST PUSH2 0xD99 JUMP JUMPDEST STOP JUMPDEST PUSH1 0x0 DUP1 PUSH1 0x0 DUP5 DUP2 MSTORE PUSH1 0x20 ADD SWAP1 DUP2 MSTORE PUSH1 0x20 ADD PUSH1 0x0 KECCAK256 PUSH1 0x5 ADD PUSH1 0x0 DUP4 PUSH20 0xFFFFFFFFFFFFFFFFFFFFFFFFFFFFFFFFFFFFFFFF AND PUSH20 0xFFFFFFFFFFFFFFFFFFFFFFFFFFFFFFFFFFFFFFFF AND DUP2 MSTORE PUSH1 0x20 ADD SWAP1 DUP2 MSTORE PUSH1 0x20 ADD PUSH1 0x0 KECCAK256 SLOAD SWAP1 POP SWAP3 SWAP2 POP POP JUMP JUMPDEST PUSH1 0x0 DUP1 DUP4 MLOAD GT PUSH2 0x27B JUMPI PUSH1 0x40 MLOAD PUSH32 0x8C379A000000000000000000000000000000000000000000000000000000000 DUP2 MSTORE PUSH1 0x4 ADD PUSH2 0x272 SWAP1 PUSH2 0x1650 JUMP JUMPDEST PUSH1 0x40 MLOAD DUP1 SWAP2 SUB SWAP1 REVERT JUMPDEST PUSH1 0x0 DUP3 MLOAD GT PUSH2 0x2BF JUMPI PUSH1 0x40 MLOAD PUSH32 0x8C379A000000000000000000000000000000000000000000000000000000000 DUP2 MSTORE PUSH1 0x4 ADD PUSH2 0x2B6 SWAP1 PUSH2 0x16BC JUMP JUMPDEST PUSH1 0x40 MLOAD DUP1 SWAP2 SUB SWAP1 REVERT JUMPDEST PUSH1 0x1 PUSH1 0x0 DUP2 SLOAD DUP1 SWAP3 SWAP2 SWAP1 PUSH2 0x2D2 SWAP1 PUSH2 0x170B JUMP JUMPDEST SWAP2 SWAP1 POP SSTORE POP PUSH1 0x0 DUP1 PUSH1 0x0 PUSH1 0x1 SLOAD DUP2 MSTORE PUSH1 0x20 ADD SWAP1 DUP2 MSTORE PUSH1 0x20 ADD PUSH1 0x0 KECCAK256 SWAP1 POP DUP4 DUP2 PUSH1 0x0 ADD SWAP1 DUP2 PUSH2 0x300 SWAP2 SWAP1 PUSH2 0x195F JUMP JUMPDEST POP CALLER DUP2 PUSH1 0x1 ADD PUSH1 0x0 PUSH2 0x100 EXP DUP2 SLOAD DUP2 PUSH20 0xFFFFFFFFFFFFFFFFFFFFFFFFFFFFFFFFFFFFFFFF MUL NOT AND SWAP1 DUP4 PUSH20 0xFFFFFFFFFFFFFFFFFFFFFFFFFFFFFFFFFFFFFFFF AND MUL OR SWAP1 SSTORE POP TIMESTAMP DUP2 PUSH1 0x6 ADD DUP2 SWAP1 SSTORE POP PUSH1 0x1 DUP2 PUSH1 0x8 ADD PUSH1 0x1 PUSH2 0x100 EXP DUP2 SLOAD DUP2 PUSH1 0xFF MUL NOT AND SWAP1 DUP4 ISZERO ISZERO MUL OR SWAP1 SSTORE POP PUSH1 0x1 DUP2 PUSH1 0x3 ADD PUSH1 0x0 CALLER PUSH20 0xFFFFFFFFFFFFFFFFFFFFFFFFFFFFFFFFFFFFFFFF AND PUSH20 0xFFFFFFFFFFFFFFFFFFFFFFFFFFFFFFFFFFFFFFFF AND DUP2 MSTORE PUSH1 0x20 ADD SWAP1 DUP2 MSTORE PUSH1 0x20 ADD PUSH1 0x0 KECCAK256 PUSH1 0x0 PUSH2 0x100 EXP DUP2 SLOAD DUP2 PUSH1 0xFF MUL NOT AND SWAP1 DUP4 PUSH1 0x2 DUP2 GT ISZERO PUSH2 0x3CF JUMPI PUSH2 0x3CE PUSH2 0x1572 JUMP JUMPDEST JUMPDEST MUL OR SWAP1 SSTORE POP PUSH1 0x0 JUMPDEST DUP4 MLOAD DUP2 LT ISZERO PUSH2 0x607 JUMPI PUSH1 0x0 PUSH20 0xFFFFFFFFFFFFFFFFFFFFFFFFFFFFFFFFFFFFFFFF AND DUP5 DUP3 DUP2 MLOAD DUP2 LT PUSH2 0x40B JUMPI PUSH2 0x40A PUSH2 0x1A31 JUMP JUMPDEST JUMPDEST PUSH1 0x20 MUL PUSH1 0x20 ADD ADD MLOAD PUSH20 0xFFFFFFFFFFFFFFFFFFFFFFFFFFFFFFFFFFFFFFFF AND SUB PUSH2 0x469 JUMPI PUSH1 0x40 MLOAD PUSH32 0x8C379A000000000000000000000000000000000000000000000000000000000 DUP2 MSTORE PUSH1 0x4 ADD PUSH2 0x460 SWAP1 PUSH2 0x1AAC JUMP JUMPDEST PUSH1 0x40 MLOAD DUP1 SWAP2 SUB SWAP1 REVERT JUMPDEST CALLER PUSH20 0xFFFFFFFFFFFFFFFFFFFFFFFFFFFFFFFFFFFFFFFF AND DUP5 DUP3 DUP2 MLOAD DUP2 LT PUSH2 0x493 JUMPI PUSH2 0x492 PUSH2 0x1A31 JUMP JUMPDEST JUMPDEST PUSH1 0x20 MUL PUSH1 0x20 ADD ADD MLOAD PUSH20 0xFFFFFFFFFFFFFFFFFFFFFFFFFFFFFFFFFFFFFFFF AND SUB PUSH2 0x4F1 JUMPI PUSH1 0x40 MLOAD PUSH32 0x8C379A000000000000000000000000000000000000000000000000000000000 DUP2 MSTORE PUSH1 0x4 ADD PUSH2 0x4E8 SWAP1 PUSH2 0x1B18 JUMP JUMPDEST PUSH1 0x40 MLOAD DUP1 SWAP2 SUB SWAP1 REVERT JUMPDEST DUP2 PUSH1 0x2 ADD DUP5 DUP3 DUP2 MLOAD DUP2 LT PUSH2 0x508 JUMPI PUSH2 0x507 PUSH2 0x1A31 JUMP JUMPDEST JUMPDEST PUSH1 0x20 MUL PUSH1 0x20 ADD ADD MLOAD SWAP1 DUP1 PUSH1 0x1 DUP2 SLOAD ADD DUP1 DUP3 SSTORE DUP1 SWAP2 POP POP PUSH1 0x1 SWAP1 SUB SWAP1 PUSH1 0x0 MSTORE PUSH1 0x20 PUSH1 0x0 KECCAK256 ADD PUSH1 0x0 SWAP1 SWAP2 SWAP1 SWAP2 SWAP1 SWAP2 PUSH2 0x100 EXP DUP2 SLOAD DUP2 PUSH20 0xFFFFFFFFFFFFFFFFFFFFFFFFFFFFFFFFFFFFFFFF MUL NOT AND SWAP1 DUP4 PUSH20 0xFFFFFFFFFFFFFFFFFFFFFFFFFFFFFFFFFFFFFFFF AND MUL OR SWAP1 SSTORE POP PUSH1 0x2 DUP3 PUSH1 0x3 ADD PUSH1 0x0 DUP7 DUP5 DUP2 MLOAD DUP2 LT PUSH2 0x58B JUMPI PUSH2 0x58A PUSH2 0x1A31 JUMP JUMPDEST JUMPDEST PUSH1 0x20 MUL PUSH1 0x20 ADD ADD MLOAD PUSH20 0xFFFFFFFFFFFFFFFFFFFFFFFFFFFFFFFFFFFFFFFF AND PUSH20 0xFFFFFFFFFFFFFFFFFFFFFFFFFFFFFFFFFFFFFFFF AND DUP2 MSTORE PUSH1 0x20 ADD SWAP1 DUP2 MSTORE PUSH1 0x20 ADD PUSH1 0x0 KECCAK256 PUSH1 0x0 PUSH2 0x100 EXP DUP2 SLOAD DUP2 PUSH1 0xFF MUL NOT AND SWAP1 DUP4 PUSH1 0x2 DUP2 GT ISZERO PUSH2 0x5EF JUMPI PUSH2 0x5EE PUSH2 0x1572 JUMP JUMPDEST JUMPDEST MUL OR SWAP1 SSTORE POP DUP1 DUP1 PUSH2 0x5FF SWAP1 PUSH2 0x170B JUMP JUMPDEST SWAP2 POP POP PUSH2 0x3D7 JUMP JUMPDEST POP CALLER PUSH20 0xFFFFFFFFFFFFFFFFFFFFFFFFFFFFFFFFFFFFFFFF AND PUSH1 0x1 SLOAD PUSH32 0xF34F336D6E1CC231D161403DD583F287C90D4E144120937A223D9531AFE848C DUP7 DUP7 TIMESTAMP PUSH1 0x40 MLOAD PUSH2 0x655 SWAP4 SWAP3 SWAP2 SWAP1 PUSH2 0x1B38 JUMP JUMPDEST PUSH1 0x40 MLOAD DUP1 SWAP2 SUB SWAP1 LOG3 PUSH1 0x1 SLOAD SWAP2 POP POP SWAP3 SWAP2 POP POP JUMP JUMPDEST PUSH1 0x60 PUSH1 0x0 PUSH1 0x60 PUSH1 0x0 DUP1 PUSH1 0x0 DUP1 PUSH1 0x0 DUP1 PUSH1 0x0 DUP11 DUP2 MSTORE PUSH1 0x20 ADD SWAP1 DUP2 MSTORE PUSH1 0x20 ADD PUSH1 0x0 KECCAK256 SWAP1 POP DUP1 PUSH1 0x8 ADD PUSH1 0x1 SWAP1 SLOAD SWAP1 PUSH2 0x100 EXP SWAP1 DIV PUSH1 0xFF AND PUSH2 0x6DC JUMPI PUSH1 0x40 MLOAD PUSH32 0x8C379A000000000000000000000000000000000000000000000000000000000 DUP2 MSTORE PUSH1 0x4 ADD PUSH2 0x6D3 SWAP1 PUSH2 0x1BC9 JUMP JUMPDEST PUSH1 0x40 MLOAD DUP1 SWAP2 SUB SWAP1 REVERT JUMPDEST PUSH1 0x0 PUSH1 0x1 SWAP1 POP PUSH1 0x0 JUMPDEST DUP3 PUSH1 0x2 ADD DUP1 SLOAD SWAP1 POP DUP2 LT ISZERO PUSH2 0x7A3 JUMPI DUP3 PUSH1 0x4 ADD PUSH1 0x0 DUP5 PUSH1 0x2 ADD DUP4 DUP2 SLOAD DUP2 LT PUSH2 0x710 JUMPI PUSH2 0x70F PUSH2 0x1A31 JUMP JUMPDEST JUMPDEST SWAP1 PUSH1 0x0 MSTORE PUSH1 0x20 PUSH1 0x0 KECCAK256 ADD PUSH1 0x0 SWAP1 SLOAD SWAP1 PUSH2 0x100 EXP SWAP1 DIV PUSH20 0xFFFFFFFFFFFFFFFFFFFFFFFFFFFFFFFFFFFFFFFF AND PUSH20 0xFFFFFFFFFFFFFFFFFFFFFFFFFFFFFFFFFFFFFFFF AND PUSH20 0xFFFFFFFFFFFFFFFFFFFFFFFFFFFFFFFFFFFFFFFF AND DUP2 MSTORE PUSH1 0x20 ADD SWAP1 DUP2 MSTORE PUSH1 0x20 ADD PUSH1 0x0 KECCAK256 PUSH1 0x0 SWAP1 SLOAD SWAP1 PUSH2 0x100 EXP SWAP1 DIV PUSH1 0xFF AND PUSH2 0x790 JUMPI PUSH1 0x0 SWAP2 POP PUSH2 0x7A3 JUMP JUMPDEST DUP1 DUP1 PUSH2 0x79B SWAP1 PUSH2 0x170B JUMP JUMPDEST SWAP2 POP POP PUSH2 0x6E5 JUMP JUMPDEST POP DUP2 PUSH1 0x0 ADD DUP3 PUSH1 0x1 ADD PUSH1 0x0 SWAP1 SLOAD SWAP1 PUSH2 0x100 EXP SWAP1 DIV PUSH20 0xFFFFFFFFFFFFFFFFFFFFFFFFFFFFFFFFFFFFFFFF AND DUP4 PUSH1 0x2 ADD DUP5 PUSH1 0x6 ADD SLOAD DUP6 PUSH1 0x7 ADD SLOAD DUP6 DUP8 PUSH1 0x8 ADD PUSH1 0x0 SWAP1 SLOAD SWAP1 PUSH2 0x100 EXP SWAP1 DIV PUSH1 0xFF AND DUP7 DUP1 SLOAD PUSH2 0x7FA SWAP1 PUSH2 0x1782 JUMP JUMPDEST DUP1 PUSH1 0x1F ADD PUSH1 0x20 DUP1 SWAP2 DIV MUL PUSH1 0x20 ADD PUSH1 0x40 MLOAD SWAP1 DUP2 ADD PUSH1 0x40 MSTORE DUP1 SWAP3 SWAP2 SWAP1 DUP2 DUP2 MSTORE PUSH1 0x20 ADD DUP3 DUP1 SLOAD PUSH2 0x826 SWAP1 PUSH2 0x1782 JUMP JUMPDEST DUP1 ISZERO PUSH2 0x873 JUMPI DUP1 PUSH1 0x1F LT PUSH2 0x848 JUMPI PUSH2 0x100 DUP1 DUP4 SLOAD DIV MUL DUP4 MSTORE SWAP2 PUSH1 0x20 ADD SWAP2 PUSH2 0x873 JUMP JUMPDEST DUP3 ADD SWAP2 SWAP1 PUSH1 0x0 MSTORE PUSH1 0x20 PUSH1 0x0 KECCAK256 SWAP1 JUMPDEST DUP2 SLOAD DUP2 MSTORE SWAP1 PUSH1 0x1 ADD SWAP1 PUSH1 0x20 ADD DUP1 DUP4 GT PUSH2 0x856 JUMPI DUP3 SWAP1 SUB PUSH1 0x1F AND DUP3 ADD SWAP2 JUMPDEST POP POP POP POP POP SWAP7 POP DUP5 DUP1 SLOAD DUP1 PUSH1 0x20 MUL PUSH1 0x20 ADD PUSH1 0x40 MLOAD SWAP1 DUP2 ADD PUSH1 0x40 MSTORE DUP1 SWAP3 SWAP2 SWAP1 DUP2 DUP2 MSTORE PUSH1 0x20 ADD DUP3 DUP1 SLOAD DUP1 ISZERO PUSH2 0x8FB JUMPI PUSH1 0x20 MUL DUP3 ADD SWAP2 SWAP1 PUSH1 0x0 MSTORE PUSH1 0x20 PUSH1 0x0 KECCAK256 SWAP1 JUMPDEST DUP2 PUSH1 0x0 SWAP1 SLOAD SWAP1 PUSH2 0x100 EXP SWAP1 DIV PUSH20 0xFFFFFFFFFFFFFFFFFFFFFFFFFFFFFFFFFFFFFFFF AND PUSH20 0xFFFFFFFFFFFFFFFFFFFFFFFFFFFFFFFFFFFFFFFF AND DUP2 MSTORE PUSH1 0x20 ADD SWAP1 PUSH1 0x1 ADD SWAP1 DUP1 DUP4 GT PUSH2 0x8B1 JUMPI JUMPDEST POP POP POP POP POP SWAP5 POP SWAP9 POP SWAP9 POP SWAP9 POP SWAP9 POP SWAP9 POP SWAP9 POP SWAP9 POP POP POP SWAP2 SWAP4 SWAP6 SWAP8 SWAP1 SWAP3 SWAP5 SWAP7 POP JUMP JUMPDEST DUP1 PUSH1 0x0 DUP1 DUP3 DUP2 MSTORE PUSH1 0x20 ADD SWAP1 DUP2 MSTORE PUSH1 0x20 ADD PUSH1 0x0 KECCAK256 PUSH1 0x8 ADD PUSH1 0x1 SWAP1 SLOAD SWAP1 PUSH2 0x100 EXP SWAP1 DIV PUSH1 0xFF AND PUSH2 0x980 JUMPI PUSH1 0x40 MLOAD PUSH32 0x8C379A000000000000000000000000000000000000000000000000000000000 DUP2 MSTORE PUSH1 0x4 ADD PUSH2 0x977 SWAP1 PUSH2 0x1BC9 JUMP JUMPDEST PUSH1 0x40 MLOAD DUP1 SWAP2 SUB SWAP1 REVERT JUMPDEST PUSH1 0x2 DUP1 DUP2 GT ISZERO PUSH2 0x993 JUMPI PUSH2 0x992 PUSH2 0x1572 JUMP JUMPDEST JUMPDEST PUSH1 0x0 DUP1 DUP4 DUP2 MSTORE PUSH1 0x20 ADD SWAP1 DUP2 MSTORE PUSH1 0x20 ADD PUSH1 0x0 KECCAK256 PUSH1 0x3 ADD PUSH1 0x0 CALLER PUSH20 0xFFFFFFFFFFFFFFFFFFFFFFFFFFFFFFFFFFFFFFFF AND PUSH20 0xFFFFFFFFFFFFFFFFFFFFFFFFFFFFFFFFFFFFFFFF AND DUP2 MSTORE PUSH1 0x20 ADD SWAP1 DUP2 MSTORE PUSH1 0x20 ADD PUSH1 0x0 KECCAK256 PUSH1 0x0 SWAP1 SLOAD SWAP1 PUSH2 0x100 EXP SWAP1 DIV PUSH1 0xFF AND PUSH1 0x2 DUP2 GT ISZERO PUSH2 0xA05 JUMPI PUSH2 0xA04 PUSH2 0x1572 JUMP JUMPDEST JUMPDEST EQ PUSH2 0xA45 JUMPI PUSH1 0x40 MLOAD PUSH32 0x8C379A000000000000000000000000000000000000000000000000000000000 DUP2 MSTORE PUSH1 0x4 ADD PUSH2 0xA3C SWAP1 PUSH2 0x1C35 JUMP JUMPDEST PUSH1 0x40 MLOAD DUP1 SWAP2 SUB SWAP1 REVERT JUMPDEST DUP2 PUSH1 0x0 DUP1 DUP3 DUP2 MSTORE PUSH1 0x20 ADD SWAP1 DUP2 MSTORE PUSH1 0x20 ADD PUSH1 0x0 KECCAK256 PUSH1 0x8 ADD PUSH1 0x0 SWAP1 SLOAD SWAP1 PUSH2 0x100 EXP SWAP1 DIV PUSH1 0xFF AND ISZERO PUSH2 0xAA9 JUMPI PUSH1 0x40 MLOAD PUSH32 0x8C379A000000000000000000000000000000000000000000000000000000000 DUP2 MSTORE PUSH1 0x4 ADD PUSH2 0xAA0 SWAP1 PUSH2 0x1CA1 JUMP JUMPDEST PUSH1 0x40 MLOAD DUP1 SWAP2 SUB SWAP1 REVERT JUMPDEST PUSH1 0x0 DUP1 PUSH1 0x0 DUP6 DUP2 MSTORE PUSH1 0x20 ADD SWAP1 DUP2 MSTORE PUSH1 0x20 ADD PUSH1 0x0 KECCAK256 SWAP1 POP DUP1 PUSH1 0x4 ADD PUSH1 0x0 CALLER PUSH20 0xFFFFFFFFFFFFFFFFFFFFFFFFFFFFFFFFFFFFFFFF AND PUSH20 0xFFFFFFFFFFFFFFFFFFFFFFFFFFFFFFFFFFFFFFFF AND DUP2 MSTORE PUSH1 0x20 ADD SWAP1 DUP2 MSTORE PUSH1 0x20 ADD PUSH1 0x0 KECCAK256 PUSH1 0x0 SWAP1 SLOAD SWAP1 PUSH2 0x100 EXP SWAP1 DIV PUSH1 0xFF AND ISZERO PUSH2 0xB4E JUMPI PUSH1 0x40 MLOAD PUSH32 0x8C379A000000000000000000000000000000000000000000000000000000000 DUP2 MSTORE PUSH1 0x4 ADD PUSH2 0xB45 SWAP1 PUSH2 0x1D0D JUMP JUMPDEST PUSH1 0x40 MLOAD DUP1 SWAP2 SUB SWAP1 REVERT JUMPDEST PUSH1 0x1 DUP2 PUSH1 0x4 ADD PUSH1 0x0 CALLER PUSH20 0xFFFFFFFFFFFFFFFFFFFFFFFFFFFFFFFFFFFFFFFF AND PUSH20 0xFFFFFFFFFFFFFFFFFFFFFFFFFFFFFFFFFFFFFFFF AND DUP2 MSTORE PUSH1 0x20 ADD SWAP1 DUP2 MSTORE PUSH1 0x20 ADD PUSH1 0x0 KECCAK256 PUSH1 0x0 PUSH2 0x100 EXP DUP2 SLOAD DUP2 PUSH1 0xFF MUL NOT AND SWAP1 DUP4 ISZERO ISZERO MUL OR SWAP1 SSTORE POP TIMESTAMP DUP2 PUSH1 0x5 ADD PUSH1 0x0 CALLER PUSH20 0xFFFFFFFFFFFFFFFFFFFFFFFFFFFFFFFFFFFFFFFF AND PUSH20 0xFFFFFFFFFFFFFFFFFFFFFFFFFFFFFFFFFFFFFFFF AND DUP2 MSTORE PUSH1 0x20 ADD SWAP1 DUP2 MSTORE PUSH1 0x20 ADD PUSH1 0x0 KECCAK256 DUP2 SWAP1 SSTORE POP DUP1 PUSH1 0x7 ADD PUSH1 0x0 DUP2 SLOAD DUP1 SWAP3 SWAP2 SWAP1 PUSH2 0xC03 SWAP1 PUSH2 0x170B JUMP JUMPDEST SWAP2 SWAP1 POP SSTORE POP CALLER PUSH20 0xFFFFFFFFFFFFFFFFFFFFFFFFFFFFFFFFFFFFFFFF AND DUP5 PUSH32 0xE7324C4138A9F505BFE9D1DE2FBFE2AEF2EF2FEE70EA9D93B5B2D348A1BBDD2A TIMESTAMP PUSH1 0x40 MLOAD PUSH2 0xC4F SWAP2 SWAP1 PUSH2 0x10A5 JUMP JUMPDEST PUSH1 0x40 MLOAD DUP1 SWAP2 SUB SWAP1 LOG3 POP POP POP POP JUMP JUMPDEST PUSH1 0x0 DUP1 PUSH1 0x0 DUP5 DUP2 MSTORE PUSH1 0x20 ADD SWAP1 DUP2 MSTORE PUSH1 0x20 ADD PUSH1 0x0 KECCAK256 PUSH1 0x4 ADD PUSH1 0x0 DUP4 PUSH20 0xFFFFFFFFFFFFFFFFFFFFFFFFFFFFFFFFFFFFFFFF AND PUSH20 0xFFFFFFFFFFFFFFFFFFFFFFFFFFFFFFFFFFFFFFFF AND DUP2 MSTORE PUSH1 0x20 ADD SWAP1 DUP2 MSTORE PUSH1 0x20 ADD PUSH1 0x0 KECCAK256 PUSH1 0x0 SWAP1 SLOAD SWAP1 PUSH2 0x100 EXP SWAP1 DIV PUSH1 0xFF AND SWAP1 POP SWAP3 SWAP2 POP POP JUMP JUMPDEST PUSH1 0x0 DUP1 PUSH1 0x0 DUP5 DUP2 MSTORE PUSH1 0x20 ADD SWAP1 DUP2 MSTORE PUSH1 0x20 ADD PUSH1 0x0 KECCAK256 PUSH1 0x8 ADD PUSH1 0x1 SWAP1 SLOAD SWAP1 PUSH2 0x100 EXP SWAP1 DIV PUSH1 0xFF AND PUSH2 0xD2B JUMPI PUSH1 0x40 MLOAD PUSH32 0x8C379A000000000000000000000000000000000000000000000000000000000 DUP2 MSTORE PUSH1 0x4 ADD PUSH2 0xD22 SWAP1 PUSH2 0x1BC9 JUMP JUMPDEST PUSH1 0x40 MLOAD DUP1 SWAP2 SUB SWAP1 REVERT JUMPDEST PUSH1 0x0 DUP1 DUP5 DUP2 MSTORE PUSH1 0x20 ADD SWAP1 DUP2 MSTORE PUSH1 0x20 ADD PUSH1 0x0 KECCAK256 PUSH1 0x3 ADD PUSH1 0x0 DUP4 PUSH20 0xFFFFFFFFFFFFFFFFFFFFFFFFFFFFFFFFFFFFFFFF AND PUSH20 0xFFFFFFFFFFFFFFFFFFFFFFFFFFFFFFFFFFFFFFFF AND DUP2 MSTORE PUSH1 0x20 ADD SWAP1 DUP2 MSTORE PUSH1 0x20 ADD PUSH1 0x0 KECCAK256 PUSH1 0x0 SWAP1 SLOAD SWAP1 PUSH2 0x100 EXP SWAP1 DIV PUSH1 0xFF AND SWAP1 POP SWAP3 SWAP2 POP POP JUMP JUMPDEST PUSH1 0x1 SLOAD DUP2 JUMP JUMPDEST DUP1 PUSH1 0x0 DUP1 DUP3 DUP2 MSTORE PUSH1 0x20 ADD SWAP1 DUP2 MSTORE PUSH1 0x20 ADD PUSH1 0x0 KECCAK256 PUSH1 0x8 ADD PUSH1 0x1 SWAP1 SLOAD SWAP1 PUSH2 0x100 EXP SWAP1 DIV PUSH1 0xFF AND PUSH2 0xDFC JUMPI PUSH1 0x40 MLOAD PUSH32 0x8C379A000000000000000000000000000000000000000000000000000000000 DUP2 MSTORE PUSH1 0x4 ADD PUSH2 0xDF3 SWAP1 PUSH2 0x1BC9 JUMP JUMPDEST PUSH1 0x40 MLOAD DUP1 SWAP2 SUB SWAP1 REVERT JUMPDEST PUSH1 0x1 PUSH1 0x2 DUP2 GT ISZERO PUSH2 0xE10 JUMPI PUSH2 0xE0F PUSH2 0x1572 JUMP JUMPDEST JUMPDEST PUSH1 0x0 DUP1 DUP4 DUP2 MSTORE PUSH1 0x20 ADD SWAP1 DUP2 MSTORE PUSH1 0x20 ADD PUSH1 0x0 KECCAK256 PUSH1 0x3 ADD PUSH1 0x0 CALLER PUSH20 0xFFFFFFFFFFFFFFFFFFFFFFFFFFFFFFFFFFFFFFFF AND PUSH20 0xFFFFFFFFFFFFFFFFFFFFFFFFFFFFFFFFFFFFFFFF AND DUP2 MSTORE PUSH1 0x20 ADD SWAP1 DUP2 MSTORE PUSH1 0x20 ADD PUSH1 0x0 KECCAK256 PUSH1 0x0 SWAP1 SLOAD SWAP1 PUSH2 0x100 EXP SWAP1 DIV PUSH1 0xFF AND PUSH1 0x2 DUP2 GT ISZERO PUSH2 0xE82 JUMPI PUSH2 0xE81 PUSH2 0x1572 JUMP JUMPDEST JUMPDEST EQ PUSH2 0xEC2 JUMPI PUSH1 0x40 MLOAD PUSH32 0x8C379A000000000000000000000000000000000000000000000000000000000 DUP2 MSTORE PUSH1 0x4 ADD PUSH2 0xEB9 SWAP1 PUSH2 0x1D79 JUMP JUMPDEST PUSH1 0x40 MLOAD DUP1 SWAP2 SUB SWAP1 REVERT JUMPDEST DUP2 PUSH1 0x0 DUP1 DUP3 DUP2 MSTORE PUSH1 0x20 ADD SWAP1 DUP2 MSTORE PUSH1 0x20 ADD PUSH1 0x0 KECCAK256 PUSH1 0x8 ADD PUSH1 0x0 SWAP1 SLOAD SWAP1 PUSH2 0x100 EXP SWAP1 DIV PUSH1 0xFF AND ISZERO PUSH2 0xF26 JUMPI PUSH1 0x40 MLOAD PUSH32 0x8C379A000000000000000000000000000000000000000000000000000000000 DUP2 MSTORE PUSH1 0x4 ADD PUSH2 0xF1D SWAP1 PUSH2 0x1CA1 JUMP JUMPDEST PUSH1 0x40 MLOAD DUP1 SWAP2 SUB SWAP1 REVERT JUMPDEST PUSH1 0x0 DUP1 PUSH1 0x0 DUP6 DUP2 MSTORE PUSH1 0x20 ADD SWAP1 DUP2 MSTORE PUSH1 0x20 ADD PUSH1 0x0 KECCAK256 SWAP1 POP PUSH1 0x1 DUP2 PUSH1 0x8 ADD PUSH1 0x0 PUSH2 0x100 EXP DUP2 SLOAD DUP2 PUSH1 0xFF MUL NOT AND SWAP1 DUP4 ISZERO ISZERO MUL OR SWAP1 SSTORE POP CALLER PUSH20 0xFFFFFFFFFFFFFFFFFFFFFFFFFFFFFFFFFFFFFFFF AND DUP5 PUSH32 0x64528B505F9036D109710EE785A2B439943867003B9A4F7D1F3958F101104FBF TIMESTAMP PUSH1 0x40 MLOAD PUSH2 0xFA0 SWAP2 SWAP1 PUSH2 0x10A5 JUMP JUMPDEST PUSH1 0x40 MLOAD DUP1 SWAP2 SUB SWAP1 LOG3 POP POP POP POP JUMP JUMPDEST PUSH1 0x0 PUSH1 0x40 MLOAD SWAP1 POP SWAP1 JUMP JUMPDEST PUSH1 0x0 DUP1 REVERT JUMPDEST PUSH1 0x0 DUP1 REVERT JUMPDEST PUSH1 0x0 DUP2 SWAP1 POP SWAP2 SWAP1 POP JUMP JUMPDEST PUSH2 0xFD5 DUP2 PUSH2 0xFC2 JUMP JUMPDEST DUP2 EQ PUSH2 0xFE0 JUMPI PUSH1 0x0 DUP1 REVERT JUMPDEST POP JUMP JUMPDEST PUSH1 0x0 DUP2 CALLDATALOAD SWAP1 POP PUSH2 0xFF2 DUP2 PUSH2 0xFCC JUMP JUMPDEST SWAP3 SWAP2 POP POP JUMP JUMPDEST PUSH1 0x0 PUSH20 0xFFFFFFFFFFFFFFFFFFFFFFFFFFFFFFFFFFFFFFFF DUP3 AND SWAP1 POP SWAP2 SWAP1 POP JUMP JUMPDEST PUSH1 0x0 PUSH2 0x1023 DUP3 PUSH2 0xFF8 JUMP JUMPDEST SWAP1 POP SWAP2 SWAP1 POP JUMP JUMPDEST PUSH2 0x1033 DUP2 PUSH2 0x1018 JUMP JUMPDEST DUP2 EQ PUSH2 0x103E JUMPI PUSH1 0x0 DUP1 REVERT JUMPDEST POP JUMP JUMPDEST PUSH1 0x0 DUP2 CALLDATALOAD SWAP1 POP PUSH2 0x1050 DUP2 PUSH2 0x102A JUMP JUMPDEST SWAP3 SWAP2 POP POP JUMP JUMPDEST PUSH1 0x0 DUP1 PUSH1 0x40 DUP4 DUP6 SUB SLT ISZERO PUSH2 0x106D JUMPI PUSH2 0x106C PUSH2 0xFB8 JUMP JUMPDEST JUMPDEST PUSH1 0x0 PUSH2 0x107B DUP6 DUP3 DUP7 ADD PUSH2 0xFE3 JUMP JUMPDEST SWAP3 POP POP PUSH1 0x20 PUSH2 0x108C DUP6 DUP3 DUP7 ADD PUSH2 0x1041 JUMP JUMPDEST SWAP2 POP POP SWAP3 POP SWAP3 SWAP1 POP JUMP JUMPDEST PUSH2 0x109F DUP2 PUSH2 0xFC2 JUMP JUMPDEST DUP3 MSTORE POP POP JUMP JUMPDEST PUSH1 0x0 PUSH1 0x20 DUP3 ADD SWAP1 POP PUSH2 0x10BA PUSH1 0x0 DUP4 ADD DUP5 PUSH2 0x1096 JUMP JUMPDEST SWAP3 SWAP2 POP POP JUMP JUMPDEST PUSH1 0x0 DUP1 REVERT JUMPDEST PUSH1 0x0 DUP1 REVERT JUMPDEST PUSH1 0x0 PUSH1 0x1F NOT PUSH1 0x1F DUP4 ADD AND SWAP1 POP SWAP2 SWAP1 POP JUMP JUMPDEST PUSH32 0x4E487B7100000000000000000000000000000000000000000000000000000000 PUSH1 0x0 MSTORE PUSH1 0x41 PUSH1 0x4 MSTORE PUSH1 0x24 PUSH1 0x0 REVERT JUMPDEST PUSH2 0x1113 DUP3 PUSH2 0x10CA JUMP JUMPDEST DUP2 ADD DUP2 DUP2 LT PUSH8 0xFFFFFFFFFFFFFFFF DUP3 GT OR ISZERO PUSH2 0x1132 JUMPI PUSH2 0x1131 PUSH2 0x10DB JUMP JUMPDEST JUMPDEST DUP1 PUSH1 0x40 MSTORE POP POP POP JUMP JUMPDEST PUSH1 0x0 PUSH2 0x1145 PUSH2 0xFAE JUMP JUMPDEST SWAP1 POP PUSH2 0x1151 DUP3 DUP3 PUSH2 0x110A JUMP JUMPDEST SWAP2 SWAP1 POP JUMP JUMPDEST PUSH1 0x0 PUSH8 0xFFFFFFFFFFFFFFFF DUP3 GT ISZERO PUSH2 0x1171 JUMPI PUSH2 0x1170 PUSH2 0x10DB JUMP JUMPDEST JUMPDEST PUSH2 0x117A DUP3 PUSH2 0x10CA JUMP JUMPDEST SWAP1 POP PUSH1 0x20 DUP2 ADD SWAP1 POP SWAP2 SWAP1 POP JUMP JUMPDEST DUP3 DUP2 DUP4 CALLDATACOPY PUSH1 0x0 DUP4 DUP4 ADD MSTORE POP POP POP JUMP JUMPDEST PUSH1 0x0 PUSH2 0x11A9 PUSH2 0x11A4 DUP5 PUSH2 0x1156 JUMP JUMPDEST PUSH2 0x113B JUMP JUMPDEST SWAP1 POP DUP3 DUP2 MSTORE PUSH1 0x20 DUP2 ADD DUP5 DUP5 DUP5 ADD GT ISZERO PUSH2 0x11C5 JUMPI PUSH2 0x11C4 PUSH2 0x10C5 JUMP JUMPDEST JUMPDEST PUSH2 0x11D0 DUP5 DUP3 DUP6 PUSH2 0x1187 JUMP JUMPDEST POP SWAP4 SWAP3 POP POP POP JUMP JUMPDEST PUSH1 0x0 DUP3 PUSH1 0x1F DUP4 ADD SLT PUSH2 0x11ED JUMPI PUSH2 0x11EC PUSH2 0x10C0 JUMP JUMPDEST JUMPDEST DUP2 CALLDATALOAD PUSH2 0x11FD DUP5 DUP3 PUSH1 0x20 DUP7 ADD PUSH2 0x1196 JUMP JUMPDEST SWAP2 POP POP SWAP3 SWAP2 POP POP JUMP JUMPDEST PUSH1 0x0 PUSH8 0xFFFFFFFFFFFFFFFF DUP3 GT ISZERO PUSH2 0x1221 JUMPI PUSH2 0x1220 PUSH2 0x10DB JUMP JUMPDEST JUMPDEST PUSH1 0x20 DUP3 MUL SWAP1 POP PUSH1 0x20 DUP2 ADD SWAP1 POP SWAP2 SWAP1 POP JUMP JUMPDEST PUSH1 0x0 DUP1 REVERT JUMPDEST PUSH1 0x0 PUSH2 0x124A PUSH2 0x1245 DUP5 PUSH2 0x1206 JUMP JUMPDEST PUSH2 0x113B JUMP JUMPDEST SWAP1 POP DUP1 DUP4 DUP3 MSTORE PUSH1 0x20 DUP3 ADD SWAP1 POP PUSH1 0x20 DUP5 MUL DUP4 ADD DUP6 DUP2 GT ISZERO PUSH2 0x126D JUMPI PUSH2 0x126C PUSH2 0x1232 JUMP JUMPDEST JUMPDEST DUP4 JUMPDEST DUP2 DUP2 LT ISZERO PUSH2 0x1296 JUMPI DUP1 PUSH2 0x1282 DUP9 DUP3 PUSH2 0x1041 JUMP JUMPDEST DUP5 MSTORE PUSH1 0x20 DUP5 ADD SWAP4 POP POP PUSH1 0x20 DUP2 ADD SWAP1 POP PUSH2 0x126F JUMP JUMPDEST POP POP POP SWAP4 SWAP3 POP POP POP JUMP JUMPDEST PUSH1 0x0 DUP3 PUSH1 0x1F DUP4 ADD SLT PUSH2 0x12B5 JUMPI PUSH2 0x12B4 PUSH2 0x10C0 JUMP JUMPDEST JUMPDEST DUP2 CALLDATALOAD PUSH2 0x12C5 DUP5 DUP3 PUSH1 0x20 DUP7 ADD PUSH2 0x1237 JUMP JUMPDEST SWAP2 POP POP SWAP3 SWAP2 POP POP JUMP JUMPDEST PUSH1 0x0 DUP1 PUSH1 0x40 DUP4 DUP6 SUB SLT ISZERO PUSH2 0x12E5 JUMPI PUSH2 0x12E4 PUSH2 0xFB8 JUMP JUMPDEST JUMPDEST PUSH1 0x0 DUP4 ADD CALLDATALOAD PUSH8 0xFFFFFFFFFFFFFFFF DUP2 GT ISZERO PUSH2 0x1303 JUMPI PUSH2 0x1302 PUSH2 0xFBD JUMP JUMPDEST JUMPDEST PUSH2 0x130F DUP6 DUP3 DUP7 ADD PUSH2 0x11D8 JUMP JUMPDEST SWAP3 POP POP PUSH1 0x20 DUP4 ADD CALLDATALOAD PUSH8 0xFFFFFFFFFFFFFFFF DUP2 GT ISZERO PUSH2 0x1330 JUMPI PUSH2 0x132F PUSH2 0xFBD JUMP JUMPDEST JUMPDEST PUSH2 0x133C DUP6 DUP3 DUP7 ADD PUSH2 0x12A0 JUMP JUMPDEST SWAP2 POP POP SWAP3 POP SWAP3 SWAP1 POP JUMP JUMPDEST PUSH1 0x0 PUSH1 0x20 DUP3 DUP5 SUB SLT ISZERO PUSH2 0x135C JUMPI PUSH2 0x135B PUSH2 0xFB8 JUMP JUMPDEST JUMPDEST PUSH1 0x0 PUSH2 0x136A DUP5 DUP3 DUP6 ADD PUSH2 0xFE3 JUMP JUMPDEST SWAP2 POP POP SWAP3 SWAP2 POP POP JUMP JUMPDEST PUSH1 0x0 DUP2 MLOAD SWAP1 POP SWAP2 SWAP1 POP JUMP JUMPDEST PUSH1 0x0 DUP3 DUP3 MSTORE PUSH1 0x20 DUP3 ADD SWAP1 POP SWAP3 SWAP2 POP POP JUMP JUMPDEST PUSH1 0x0 JUMPDEST DUP4 DUP2 LT ISZERO PUSH2 0x13AD JUMPI DUP1 DUP3 ADD MLOAD DUP2 DUP5 ADD MSTORE PUSH1 0x20 DUP2 ADD SWAP1 POP PUSH2 0x1392 JUMP JUMPDEST PUSH1 0x0 DUP5 DUP5 ADD MSTORE POP POP POP POP JUMP JUMPDEST PUSH1 0x0 PUSH2 0x13C4 DUP3 PUSH2 0x1373 JUMP JUMPDEST PUSH2 0x13CE DUP2 DUP6 PUSH2 0x137E JUMP JUMPDEST SWAP4 POP PUSH2 0x13DE DUP2 DUP6 PUSH1 0x20 DUP7 ADD PUSH2 0x138F JUMP JUMPDEST PUSH2 0x13E7 DUP2 PUSH2 0x10CA JUMP JUMPDEST DUP5 ADD SWAP2 POP POP SWAP3 SWAP2 POP POP JUMP JUMPDEST PUSH2 0x13FB DUP2 PUSH2 0x1018 JUMP JUMPDEST DUP3 MSTORE POP POP JUMP JUMPDEST PUSH1 0x0 DUP2 MLOAD SWAP1 POP SWAP2 SWAP1 POP JUMP JUMPDEST PUSH1 0x0 DUP3 DUP3 MSTORE PUSH1 0x20 DUP3 ADD SWAP1 POP SWAP3 SWAP2 POP POP JUMP JUMPDEST PUSH1 0x0 DUP2 SWAP1 POP PUSH1 0x20 DUP3 ADD SWAP1 POP SWAP2 SWAP1 POP JUMP JUMPDEST PUSH2 0x1436 DUP2 PUSH2 0x1018 JUMP JUMPDEST DUP3 MSTORE POP POP JUMP JUMPDEST PUSH1 0x0 PUSH2 0x1448 DUP4 DUP4 PUSH2 0x142D JUMP JUMPDEST PUSH1 0x20 DUP4 ADD SWAP1 POP SWAP3 SWAP2 POP POP JUMP JUMPDEST PUSH1 0x0 PUSH1 0x20 DUP3 ADD SWAP1 POP SWAP2 SWAP1 POP JUMP JUMPDEST PUSH1 0x0 PUSH2 0x146C DUP3 PUSH2 0x1401 JUMP JUMPDEST PUSH2 0x1476 DUP2 DUP6 PUSH2 0x140C JUMP JUMPDEST SWAP4 POP PUSH2 0x1481 DUP4 PUSH2 0x141D JUMP JUMPDEST DUP1 PUSH1 0x0 JUMPDEST DUP4 DUP2 LT ISZERO PUSH2 0x14B2 JUMPI DUP2 MLOAD PUSH2 0x1499 DUP9 DUP3 PUSH2 0x143C JUMP JUMPDEST SWAP8 POP PUSH2 0x14A4 DUP4 PUSH2 0x1454 JUMP JUMPDEST SWAP3 POP POP PUSH1 0x1 DUP2 ADD SWAP1 POP PUSH2 0x1485 JUMP JUMPDEST POP DUP6 SWAP4 POP POP POP POP SWAP3 SWAP2 POP POP JUMP JUMPDEST PUSH1 0x0 DUP2 ISZERO ISZERO SWAP1 POP SWAP2 SWAP1 POP JUMP JUMPDEST PUSH2 0x14D4 DUP2 PUSH2 0x14BF JUMP JUMPDEST DUP3 MSTORE POP POP JUMP JUMPDEST PUSH1 0x0 PUSH1 0xE0 DUP3 ADD SWAP1 POP DUP2 DUP2 SUB PUSH1 0x0 DUP4 ADD MSTORE PUSH2 0x14F4 DUP2 DUP11 PUSH2 0x13B9 JUMP JUMPDEST SWAP1 POP PUSH2 0x1503 PUSH1 0x20 DUP4 ADD DUP10 PUSH2 0x13F2 JUMP JUMPDEST DUP2 DUP2 SUB PUSH1 0x40 DUP4 ADD MSTORE PUSH2 0x1515 DUP2 DUP9 PUSH2 0x1461 JUMP JUMPDEST SWAP1 POP PUSH2 0x1524 PUSH1 0x60 DUP4 ADD DUP8 PUSH2 0x1096 JUMP JUMPDEST PUSH2 0x1531 PUSH1 0x80 DUP4 ADD DUP7 PUSH2 0x1096 JUMP JUMPDEST PUSH2 0x153E PUSH1 0xA0 DUP4 ADD DUP6 PUSH2 0x14CB JUMP JUMPDEST PUSH2 0x154B PUSH1 0xC0 DUP4 ADD DUP5 PUSH2 0x14CB JUMP JUMPDEST SWAP9 SWAP8 POP POP POP POP POP POP POP POP JUMP JUMPDEST PUSH1 0x0 PUSH1 0x20 DUP3 ADD SWAP1 POP PUSH2 0x156C PUSH1 0x0 DUP4 ADD DUP5 PUSH2 0x14CB JUMP JUMPDEST SWAP3 SWAP2 POP POP JUMP JUMPDEST PUSH32 0x4E487B7100000000000000000000000000000000000000000000000000000000 PUSH1 0x0 MSTORE PUSH1 0x21 PUSH1 0x4 MSTORE PUSH1 0x24 PUSH1 0x0 REVERT JUMPDEST PUSH1 0x3 DUP2 LT PUSH2 0x15B2 JUMPI PUSH2 0x15B1 PUSH2 0x1572 JUMP JUMPDEST JUMPDEST POP JUMP JUMPDEST PUSH1 0x0 DUP2 SWAP1 POP PUSH2 0x15C3 DUP3 PUSH2 0x15A1 JUMP JUMPDEST SWAP2 SWAP1 POP JUMP JUMPDEST PUSH1 0x0 PUSH2 0x15D3 DUP3 PUSH2 0x15B5 JUMP JUMPDEST SWAP1 POP SWAP2 SWAP1 POP JUMP JUMPDEST PUSH2 0x15E3 DUP2 PUSH2 0x15C8 JUMP JUMPDEST DUP3 MSTORE POP POP JUMP JUMPDEST PUSH1 0x0 PUSH1 0x20 DUP3 ADD SWAP1 POP PUSH2 0x15FE PUSH1 0x0 DUP4 ADD DUP5 PUSH2 0x15DA JUMP JUMPDEST SWAP3 SWAP2 POP POP JUMP JUMPDEST PUSH32 0x4950465320686173682072657175697265640000000000000000000000000000 PUSH1 0x0 DUP3 ADD MSTORE POP JUMP JUMPDEST PUSH1 0x0 PUSH2 0x163A PUSH1 0x12 DUP4 PUSH2 0x137E JUMP JUMPDEST SWAP2 POP PUSH2 0x1645 DUP3 PUSH2 0x1604 JUMP JUMPDEST PUSH1 0x20 DUP3 ADD SWAP1 POP SWAP2 SWAP1 POP JUMP JUMPDEST PUSH1 0x0 PUSH1 0x20 DUP3 ADD SWAP1 POP DUP2 DUP2 SUB PUSH1 0x0 DUP4 ADD MSTORE PUSH2 0x1669 DUP2 PUSH2 0x162D JUMP JUMPDEST SWAP1 POP SWAP2 SWAP1 POP JUMP JUMPDEST PUSH32 0x4174206C65617374206F6E65207369676E657220726571756972656400000000 PUSH1 0x0 DUP3 ADD MSTORE POP JUMP JUMPDEST PUSH1 0x0 PUSH2 0x16A6 PUSH1 0x1C DUP4 PUSH2 0x137E JUMP JUMPDEST SWAP2 POP PUSH2 0x16B1 DUP3 PUSH2 0x1670 JUMP JUMPDEST PUSH1 0x20 DUP3 ADD SWAP1 POP SWAP2 SWAP1 POP JUMP JUMPDEST PUSH1 0x0 PUSH1 0x20 DUP3 ADD SWAP1 POP DUP2 DUP2 SUB PUSH1 0x0 DUP4 ADD MSTORE PUSH2 0x16D5 DUP2 PUSH2 0x1699 JUMP JUMPDEST SWAP1 POP SWAP2 SWAP1 POP JUMP JUMPDEST PUSH32 0x4E487B7100000000000000000000000000000000000000000000000000000000 PUSH1 0x0 MSTORE PUSH1 0x11 PUSH1 0x4 MSTORE PUSH1 0x24 PUSH1 0x0 REVERT JUMPDEST PUSH1 0x0 PUSH2 0x1716 DUP3 PUSH2 0xFC2 JUMP JUMPDEST SWAP2 POP PUSH32 0xFFFFFFFFFFFFFFFFFFFFFFFFFFFFFFFFFFFFFFFFFFFFFFFFFFFFFFFFFFFFFFFF DUP3 SUB PUSH2 0x1748 JUMPI PUSH2 0x1747 PUSH2 0x16DC JUMP JUMPDEST JUMPDEST PUSH1 0x1 DUP3 ADD SWAP1 POP SWAP2 SWAP1 POP JUMP JUMPDEST PUSH32 0x4E487B7100000000000000000000000000000000000000000000000000000000 PUSH1 0x0 MSTORE PUSH1 0x22 PUSH1 0x4 MSTORE PUSH1 0x24 PUSH1 0x0 REVERT JUMPDEST PUSH1 0x0 PUSH1 0x2 DUP3 DIV SWAP1 POP PUSH1 0x1 DUP3 AND DUP1 PUSH2 0x179A JUMPI PUSH1 0x7F DUP3 AND SWAP2 POP JUMPDEST PUSH1 0x20 DUP3 LT DUP2 SUB PUSH2 0x17AD JUMPI PUSH2 0x17AC PUSH2 0x1753 JUMP JUMPDEST JUMPDEST POP SWAP2 SWAP1 POP JUMP JUMPDEST PUSH1 0x0 DUP2 SWAP1 POP DUP2 PUSH1 0x0 MSTORE PUSH1 0x20 PUSH1 0x0 KECCAK256 SWAP1 POP SWAP2 SWAP1 POP JUMP JUMPDEST PUSH1 0x0 PUSH1 0x20 PUSH1 0x1F DUP4 ADD DIV SWAP1 POP SWAP2 SWAP1 POP JUMP JUMPDEST PUSH1 0x0 DUP3 DUP3 SHL SWAP1 POP SWAP3 SWAP2 POP POP JUMP JUMPDEST PUSH1 0x0 PUSH1 0x8 DUP4 MUL PUSH2 0x1815 PUSH32 0xFFFFFFFFFFFFFFFFFFFFFFFFFFFFFFFFFFFFFFFFFFFFFFFFFFFFFFFFFFFFFFFF DUP3 PUSH2 0x17D8 JUMP JUMPDEST PUSH2 0x181F DUP7 DUP4 PUSH2 0x17D8 JUMP JUMPDEST SWAP6 POP DUP1 NOT DUP5 AND SWAP4 POP DUP1 DUP7 AND DUP5 OR SWAP3 POP POP POP SWAP4 SWAP3 POP POP POP JUMP JUMPDEST PUSH1 0x0 DUP2 SWAP1 POP SWAP2 SWAP1 POP JUMP JUMPDEST PUSH1 0x0 PUSH2 0x185C PUSH2 0x1857 PUSH2 0x1852 DUP5 PUSH2 0xFC2 JUMP JUMPDEST PUSH2 0x1837 JUMP JUMPDEST PUSH2 0xFC2 JUMP JUMPDEST SWAP1 POP SWAP2 SWAP1 POP JUMP JUMPDEST PUSH1 0x0 DUP2 SWAP1 POP SWAP2 SWAP1 POP JUMP JUMPDEST PUSH2 0x1876 DUP4 PUSH2 0x1841 JUMP JUMPDEST PUSH2 0x188A PUSH2 0x1882 DUP3 PUSH2 0x1863 JUMP JUMPDEST DUP5 DUP5 SLOAD PUSH2 0x17E5 JUMP JUMPDEST DUP3 SSTORE POP POP POP POP JUMP JUMPDEST PUSH1 0x0 SWAP1 JUMP JUMPDEST PUSH2 0x189F PUSH2 0x1892 JUMP JUMPDEST PUSH2 0x18AA DUP2 DUP5 DUP5 PUSH2 0x186D JUMP JUMPDEST POP POP POP JUMP JUMPDEST JUMPDEST DUP2 DUP2 LT ISZERO PUSH2 0x18CE JUMPI PUSH2 0x18C3 PUSH1 0x0 DUP3 PUSH2 0x1897 JUMP JUMPDEST PUSH1 0x1 DUP2 ADD SWAP1 POP PUSH2 0x18B0 JUMP JUMPDEST POP POP JUMP JUMPDEST PUSH1 0x1F DUP3 GT ISZERO PUSH2 0x1913 JUMPI PUSH2 0x18E4 DUP2 PUSH2 0x17B3 JUMP JUMPDEST PUSH2 0x18ED DUP5 PUSH2 0x17C8 JUMP JUMPDEST DUP2 ADD PUSH1 0x20 DUP6 LT ISZERO PUSH2 0x18FC JUMPI DUP2 SWAP1 POP JUMPDEST PUSH2 0x1910 PUSH2 0x1908 DUP6 PUSH2 0x17C8 JUMP JUMPDEST DUP4 ADD DUP3 PUSH2 0x18AF JUMP JUMPDEST POP POP JUMPDEST POP POP POP JUMP JUMPDEST PUSH1 0x0 DUP3 DUP3 SHR SWAP1 POP SWAP3 SWAP2 POP POP JUMP JUMPDEST PUSH1 0x0 PUSH2 0x1936 PUSH1 0x0 NOT DUP5 PUSH1 0x8 MUL PUSH2 0x1918 JUMP JUMPDEST NOT DUP1 DUP4 AND SWAP2 POP POP SWAP3 SWAP2 POP POP JUMP JUMPDEST PUSH1 0x0 PUSH2 0x194F DUP4 DUP4 PUSH2 0x1925 JUMP JUMPDEST SWAP2 POP DUP3 PUSH1 0x2 MUL DUP3 OR SWAP1 POP SWAP3 SWAP2 POP POP JUMP JUMPDEST PUSH2 0x1968 DUP3 PUSH2 0x1373 JUMP JUMPDEST PUSH8 0xFFFFFFFFFFFFFFFF DUP2 GT ISZERO PUSH2 0x1981 JUMPI PUSH2 0x1980 PUSH2 0x10DB JUMP JUMPDEST JUMPDEST PUSH2 0x198B DUP3 SLOAD PUSH2 0x1782 JUMP JUMPDEST PUSH2 0x1996 DUP3 DUP3 DUP6 PUSH2 0x18D2 JUMP JUMPDEST PUSH1 0x0 PUSH1 0x20 SWAP1 POP PUSH1 0x1F DUP4 GT PUSH1 0x1 DUP2 EQ PUSH2 0x19C9 JUMPI PUSH1 0x0 DUP5 ISZERO PUSH2 0x19B7 JUMPI DUP3 DUP8 ADD MLOAD SWAP1 POP JUMPDEST PUSH2 0x19C1 DUP6 DUP3 PUSH2 0x1943 JUMP JUMPDEST DUP7 SSTORE POP PUSH2 0x1A29 JUMP JUMPDEST PUSH1 0x1F NOT DUP5 AND PUSH2 0x19D7 DUP7 PUSH2 0x17B3 JUMP JUMPDEST PUSH1 0x0 JUMPDEST DUP3 DUP2 LT ISZERO PUSH2 0x19FF JUMPI DUP5 DUP10 ADD MLOAD DUP3 SSTORE PUSH1 0x1 DUP3 ADD SWAP2 POP PUSH1 0x20 DUP6 ADD SWAP5 POP PUSH1 0x20 DUP2 ADD SWAP1 POP PUSH2 0x19DA JUMP JUMPDEST DUP7 DUP4 LT ISZERO PUSH2 0x1A1C JUMPI DUP5 DUP10 ADD MLOAD PUSH2 0x1A18 PUSH1 0x1F DUP10 AND DUP3 PUSH2 0x1925 JUMP JUMPDEST DUP4 SSTORE POP JUMPDEST PUSH1 0x1 PUSH1 0x2 DUP9 MUL ADD DUP9 SSTORE POP POP POP JUMPDEST POP POP POP POP POP POP JUMP JUMPDEST PUSH32 0x4E487B7100000000000000000000000000000000000000000000000000000000 PUSH1 0x0 MSTORE PUSH1 0x32 PUSH1 0x4 MSTORE PUSH1 0x24 PUSH1 0x0 REVERT JUMPDEST PUSH32 0x496E76616C6964207369676E6572206164647265737300000000000000000000 PUSH1 0x0 DUP3 ADD MSTORE POP JUMP JUMPDEST PUSH1 0x0 PUSH2 0x1A96 PUSH1 0x16 DUP4 PUSH2 0x137E JUMP JUMPDEST SWAP2 POP PUSH2 0x1AA1 DUP3 PUSH2 0x1A60 JUMP JUMPDEST PUSH1 0x20 DUP3 ADD SWAP1 POP SWAP2 SWAP1 POP JUMP JUMPDEST PUSH1 0x0 PUSH1 0x20 DUP3 ADD SWAP1 POP DUP2 DUP2 SUB PUSH1 0x0 DUP4 ADD MSTORE PUSH2 0x1AC5 DUP2 PUSH2 0x1A89 JUMP JUMPDEST SWAP1 POP SWAP2 SWAP1 POP JUMP JUMPDEST PUSH32 0x4F776E65722063616E6E6F74206265207369676E657200000000000000000000 PUSH1 0x0 DUP3 ADD MSTORE POP JUMP JUMPDEST PUSH1 0x0 PUSH2 0x1B02 PUSH1 0x16 DUP4 PUSH2 0x137E JUMP JUMPDEST SWAP2 POP PUSH2 0x1B0D DUP3 PUSH2 0x1ACC JUMP JUMPDEST PUSH1 0x20 DUP3 ADD SWAP1 POP SWAP2 SWAP1 POP JUMP JUMPDEST PUSH1 0x0 PUSH1 0x20 DUP3 ADD SWAP1 POP DUP2 DUP2 SUB PUSH1 0x0 DUP4 ADD MSTORE PUSH2 0x1B31 DUP2 PUSH2 0x1AF5 JUMP JUMPDEST SWAP1 POP SWAP2 SWAP1 POP JUMP JUMPDEST PUSH1 0x0 PUSH1 0x60 DUP3 ADD SWAP1 POP DUP2 DUP2 SUB PUSH1 0x0 DUP4 ADD MSTORE PUSH2 0x1B52 DUP2 DUP7 PUSH2 0x13B9 JUMP JUMPDEST SWAP1 POP DUP2 DUP2 SUB PUSH1 0x20 DUP4 ADD MSTORE PUSH2 0x1B66 DUP2 DUP6 PUSH2 0x1461 JUMP JUMPDEST SWAP1 POP PUSH2 0x1B75 PUSH1 0x40 DUP4 ADD DUP5 PUSH2 0x1096 JUMP JUMPDEST SWAP5 SWAP4 POP POP POP POP JUMP JUMPDEST PUSH32 0x446F63756D656E7420646F6573206E6F74206578697374000000000000000000 PUSH1 0x0 DUP3 ADD MSTORE POP JUMP JUMPDEST PUSH1 0x0 PUSH2 0x1BB3 PUSH1 0x17 DUP4 PUSH2 0x137E JUMP JUMPDEST SWAP2 POP PUSH2 0x1BBE DUP3 PUSH2 0x1B7D JUMP JUMPDEST PUSH1 0x20 DUP3 ADD SWAP1 POP SWAP2 SWAP1 POP JUMP JUMPDEST PUSH1 0x0 PUSH1 0x20 DUP3 ADD SWAP1 POP DUP2 DUP2 SUB PUSH1 0x0 DUP4 ADD MSTORE PUSH2 0x1BE2 DUP2 PUSH2 0x1BA6 JUMP JUMPDEST SWAP1 POP SWAP2 SWAP1 POP JUMP JUMPDEST PUSH32 0x4E6F7420617574686F72697A6564207369676E65720000000000000000000000 PUSH1 0x0 DUP3 ADD MSTORE POP JUMP JUMPDEST PUSH1 0x0 PUSH2 0x1C1F PUSH1 0x15 DUP4 PUSH2 0x137E JUMP JUMPDEST SWAP2 POP PUSH2 0x1C2A DUP3 PUSH2 0x1BE9 JUMP JUMPDEST PUSH1 0x20 DUP3 ADD SWAP1 POP SWAP2 SWAP1 POP JUMP JUMPDEST PUSH1 0x0 PUSH1 0x20 DUP3 ADD SWAP1 POP DUP2 DUP2 SUB PUSH1 0x0 DUP4 ADD MSTORE PUSH2 0x1C4E DUP2 PUSH2 0x1C12 JUMP JUMPDEST SWAP1 POP SWAP2 SWAP1 POP JUMP JUMPDEST PUSH32 0x446F63756D656E74206973207265766F6B656400000000000000000000000000 PUSH1 0x0 DUP3 ADD MSTORE POP JUMP JUMPDEST PUSH1 0x0 PUSH2 0x1C8B PUSH1 0x13 DUP4 PUSH2 0x137E JUMP JUMPDEST SWAP2 POP PUSH2 0x1C96 DUP3 PUSH2 0x1C55 JUMP JUMPDEST PUSH1 0x20 DUP3 ADD SWAP1 POP SWAP2 SWAP1 POP JUMP JUMPDEST PUSH1 0x0 PUSH1 0x20 DUP3 ADD SWAP1 POP DUP2 DUP2 SUB PUSH1 0x0 DUP4 ADD MSTORE PUSH2 0x1CBA DUP2 PUSH2 0x1C7E JUMP JUMPDEST SWAP1 POP SWAP2 SWAP1 POP JUMP JUMPDEST PUSH32 0x416C7265616479207369676E6564000000000000000000000000000000000000 PUSH1 0x0 DUP3 ADD MSTORE POP JUMP JUMPDEST PUSH1 0x0 PUSH2 0x1CF7 PUSH1 0xE DUP4 PUSH2 0x137E JUMP JUMPDEST SWAP2 POP PUSH2 0x1D02 DUP3 PUSH2 0x1CC1 JUMP JUMPDEST PUSH1 0x20 DUP3 ADD SWAP1 POP SWAP2 SWAP1 POP JUMP JUMPDEST PUSH1 0x0 PUSH1 0x20 DUP3 ADD SWAP1 POP DUP2 DUP2 SUB PUSH1 0x0 DUP4 ADD MSTORE PUSH2 0x1D26 DUP2 PUSH2 0x1CEA JUMP JUMPDEST SWAP1 POP SWAP2 SWAP1 POP JUMP JUMPDEST PUSH32 0x4E6F7420646F63756D656E74206F776E65720000000000000000000000000000 PUSH1 0x0 DUP3 ADD MSTORE POP JUMP JUMPDEST PUSH1 0x0 PUSH2 0x1D63 PUSH1 0x12 DUP4 PUSH2 0x137E JUMP JUMPDEST SWAP2 POP PUSH2 0x1D6E DUP3 PUSH2 0x1D2D JUMP JUMPDEST PUSH1 0x20 DUP3 ADD SWAP1 POP SWAP2 SWAP1 POP JUMP JUMPDEST PUSH1 0x0 PUSH1 0x20 DUP3 ADD SWAP1 POP DUP2 DUP2 SUB PUSH1 0x0 DUP4 ADD MSTORE PUSH2 0x1D92 DUP2 PUSH2 0x1D56 JUMP JUMPDEST SWAP1 POP SWAP2 SWAP1 POP JUMP INVALID LOG2 PUSH5 0x6970667358 0x22 SLT KECCAK256 OR DUP15 CALLDATALOAD 0xE1 0xDD OR REVERT PUSH28 0xF7686EBD079DF9E52987702073FDD16E17159F124064BF2564736F6C PUSH4 0x43000815 STOP CALLER "},"methodIdentifiers":{"createDocument(string,address[])":"35ac6064","documentCount()":"a5b16b2e","getDocument(uint256)":"3f9b250a","getRole(uint256,address)":"93552a3d","getSignTimestamp(uint256,address)":"1b1ab53d","hasSigned(uint256,address)":"709df8d9","revokeDocument(uint256)":"fba1842a","signDocument(uint256)":"63a50d50"}}}}}