{
  "_format": "hh-sol-artifact-1",
  "contractName": "DocumentSign",
  "sourceName": "contracts/Docu3.sol",
  "abi": [
    {
      "anonymous": false,
      "inputs": [
        {
          "indexed": true,
          "internalType": "uint256",
          "name": "docId",
          "type": "uint256"
        },
        {
          "indexed": false,
          "internalType": "string",
          "name": "newIpfsHash",
          "type": "string"
        },
        {
          "indexed": true,
          "internalType": "address",
          "name": "editor",
          "type": "address"
        },
        {
          "indexed": false,
          "internalType": "uint256",
          "name": "amendedAt",
          "type": "uint256"
        }
      ],
      "name": "DocumentAmended",
      "type": "event"
    },
    {
      "anonymous": false,
      "inputs": [
        {
          "indexed": true,
          "internalType": "uint256",
          "name": "docId",
          "type": "uint256"
        },
        {
          "indexed": false,
          "internalType": "string",
          "name": "ipfsHash",
          "type": "string"
        },
        {
          "indexed": true,
          "internalType": "address",
          "name": "creator",
          "type": "address"
        },
        {
          "indexed": false,
          "internalType": "address[]",
          "name": "signers",
          "type": "address[]"
        },
        {
          "indexed": false,
          "internalType": "uint256",
          "name": "createdAt",
          "type": "uint256"
        }
      ],
      "name": "DocumentCreated",
      "type": "event"
    },
    {
      "anonymous": false,
      "inputs": [
        {
          "indexed": true,
          "internalType": "uint256",
          "name": "docId",
          "type": "uint256"
        },
        {
          "indexed": false,
          "internalType": "uint256",
          "name": "expiredAt",
          "type": "uint256"
        }
      ],
      "name": "DocumentExpired",
      "type": "event"
    },
    {
      "anonymous": false,
      "inputs": [
        {
          "indexed": true,
          "internalType": "uint256",
          "name": "docId",
          "type": "uint256"
        },
        {
          "indexed": true,
          "internalType": "address",
          "name": "revoker",
          "type": "address"
        },
        {
          "indexed": false,
          "internalType": "uint256",
          "name": "revokedAt",
          "type": "uint256"
        },
        {
          "indexed": false,
          "internalType": "string",
          "name": "reason",
          "type": "string"
        }
      ],
      "name": "DocumentRevoked",
      "type": "event"
    },
    {
      "anonymous": false,
      "inputs": [
        {
          "indexed": true,
          "internalType": "uint256",
          "name": "docId",
          "type": "uint256"
        },
        {
          "indexed": true,
          "internalType": "address",
          "name": "signer",
          "type": "address"
        },
        {
          "indexed": false,
          "internalType": "uint256",
          "name": "signedAt",
          "type": "uint256"
        },
        {
          "indexed": false,
          "internalType": "string",
          "name": "signature",
          "type": "string"
        }
      ],
      "name": "DocumentSigned",
      "type": "event"
    },
    {
      "anonymous": false,
      "inputs": [
        {
          "indexed": true,
          "internalType": "address",
          "name": "user",
          "type": "address"
        },
        {
          "indexed": false,
          "internalType": "string",
          "name": "firstName",
          "type": "string"
        },
        {
          "indexed": false,
          "internalType": "string",
          "name": "familyName",
          "type": "string"
        },
        {
          "indexed": false,
          "internalType": "string",
          "name": "email",
          "type": "string"
        },
        {
          "indexed": false,
          "internalType": "uint256",
          "name": "dob",
          "type": "uint256"
        },
        {
          "indexed": false,
          "internalType": "string",
          "name": "publicKey",
          "type": "string"
        }
      ],
      "name": "UserRegistered",
      "type": "event"
    },
    {
      "inputs": [
        {
          "internalType": "uint256",
          "name": "_docId",
          "type": "uint256"
        },
        {
          "internalType": "string",
          "name": "_newIpfsHash",
          "type": "string"
        },
        {
          "internalType": "uint256",
          "name": "_newExpiry",
          "type": "uint256"
        }
      ],
      "name": "amendDocument",
      "outputs": [],
      "stateMutability": "nonpayable",
      "type": "function"
    },
    {
      "inputs": [
        {
          "internalType": "string",
          "name": "_ipfsHash",
          "type": "string"
        },
        {
          "internalType": "address[]",
          "name": "_signers",
          "type": "address[]"
        },
        {
          "internalType": "uint256",
          "name": "_expiry",
          "type": "uint256"
        }
      ],
      "name": "createDocument",
      "outputs": [
        {
          "internalType": "uint256",
          "name": "",
          "type": "uint256"
        }
      ],
      "stateMutability": "nonpayable",
      "type": "function"
    },
    {
      "inputs": [],
      "name": "documentCount",
      "outputs": [
        {
          "internalType": "uint256",
          "name": "",
          "type": "uint256"
        }
      ],
      "stateMutability": "view",
      "type": "function"
    },
    {
      "inputs": [],
      "name": "getAllRegisteredUsers",
      "outputs": [
        {
          "internalType": "address[]",
          "name": "",
          "type": "address[]"
        }
      ],
      "stateMutability": "view",
      "type": "function"
    },
    {
      "inputs": [
        {
          "internalType": "uint256",
          "name": "_docId",
          "type": "uint256"
        }
      ],
      "name": "getCurrentSigner",
      "outputs": [
        {
          "internalType": "address",
          "name": "",
          "type": "address"
        }
      ],
      "stateMutability": "view",
      "type": "function"
    },
    {
      "inputs": [
        {
          "internalType": "uint256",
          "name": "_docId",
          "type": "uint256"
        }
      ],
      "name": "getDocument",
      "outputs": [
        {
          "internalType": "string",
          "name": "ipfsHash",
          "type": "string"
        },
        {
          "internalType": "address",
          "name": "creator",
          "type": "address"
        },
        {
          "internalType": "address[]",
          "name": "signers",
          "type": "address[]"
        },
        {
          "internalType": "uint256",
          "name": "createdAt",
          "type": "uint256"
        },
        {
          "internalType": "uint256",
          "name": "signatureCount",
          "type": "uint256"
        },
        {
          "internalType": "bool",
          "name": "fullySigned",
          "type": "bool"
        },
        {
          "internalType": "bool",
          "name": "isRevoked",
          "type": "bool"
        }
      ],
      "stateMutability": "view",
      "type": "function"
    },
    {
      "inputs": [
        {
          "internalType": "uint256",
          "name": "_docId",
          "type": "uint256"
        },
        {
          "internalType": "address",
          "name": "_user",
          "type": "address"
        }
      ],
      "name": "getRole",
      "outputs": [
        {
          "internalType": "enum DocumentSign.Role",
          "name": "",
          "type": "uint8"
        }
      ],
      "stateMutability": "view",
      "type": "function"
    },
    {
      "inputs": [
        {
          "internalType": "uint256",
          "name": "_docId",
          "type": "uint256"
        },
        {
          "internalType": "address",
          "name": "_signer",
          "type": "address"
        }
      ],
      "name": "getSignTimestamp",
      "outputs": [
        {
          "internalType": "uint256",
          "name": "",
          "type": "uint256"
        }
      ],
      "stateMutability": "view",
      "type": "function"
    },
    {
      "inputs": [
        {
          "internalType": "uint256",
          "name": "_docId",
          "type": "uint256"
        },
        {
          "internalType": "address",
          "name": "_signer",
          "type": "address"
        }
      ],
      "name": "getSignature",
      "outputs": [
        {
          "internalType": "string",
          "name": "",
          "type": "string"
        }
      ],
      "stateMutability": "view",
      "type": "function"
    },
    {
      "inputs": [
        {
          "internalType": "address",
          "name": "user",
          "type": "address"
        }
      ],
      "name": "getUserProfile",
      "outputs": [
        {
          "internalType": "string",
          "name": "firstName",
          "type": "string"
        },
        {
          "internalType": "string",
          "name": "familyName",
          "type": "string"
        },
        {
          "internalType": "string",
          "name": "email",
          "type": "string"
        },
        {
          "internalType": "uint256",
          "name": "dob",
          "type": "uint256"
        },
        {
          "internalType": "bool",
          "name": "isRegistered",
          "type": "bool"
        },
        {
          "internalType": "string",
          "name": "publicKey",
          "type": "string"
        }
      ],
      "stateMutability": "view",
      "type": "function"
    },
    {
      "inputs": [
        {
          "internalType": "uint256",
          "name": "_docId",
          "type": "uint256"
        },
        {
          "internalType": "address",
          "name": "_signer",
          "type": "address"
        }
      ],
      "name": "hasSigned",
      "outputs": [
        {
          "internalType": "bool",
          "name": "",
          "type": "bool"
        }
      ],
      "stateMutability": "view",
      "type": "function"
    },
    {
      "inputs": [
        {
          "internalType": "uint256",
          "name": "_docId",
          "type": "uint256"
        }
      ],
      "name": "isExpired",
      "outputs": [
        {
          "internalType": "bool",
          "name": "",
          "type": "bool"
        }
      ],
      "stateMutability": "view",
      "type": "function"
    },
    {
      "inputs": [
        {
          "internalType": "address",
          "name": "",
          "type": "address"
        }
      ],
      "name": "profiles",
      "outputs": [
        {
          "internalType": "string",
          "name": "firstName",
          "type": "string"
        },
        {
          "internalType": "string",
          "name": "familyName",
          "type": "string"
        },
        {
          "internalType": "string",
          "name": "email",
          "type": "string"
        },
        {
          "internalType": "uint256",
          "name": "dob",
          "type": "uint256"
        },
        {
          "internalType": "bool",
          "name": "isRegistered",
          "type": "bool"
        },
        {
          "internalType": "string",
          "name": "publicKey",
          "type": "string"
        }
      ],
      "stateMutability": "view",
      "type": "function"
    },
    {
      "inputs": [
        {
          "internalType": "string",
          "name": "firstName",
          "type": "string"
        },
        {
          "internalType": "string",
          "name": "familyName",
          "type": "string"
        },
        {
          "internalType": "string",
          "name": "email",
          "type": "string"
        },
        {
          "internalType": "uint256",
          "name": "dob",
          "type": "uint256"
        },
        {
          "internalType": "string",
          "name": "publicKey",
          "type": "string"
        }
      ],
      "name": "registerUser",
      "outputs": [],
      "stateMutability": "nonpayable",
      "type": "function"
    },
    {
      "inputs": [
        {
          "internalType": "uint256",
          "name": "",
          "type": "uint256"
        }
      ],
      "name": "registeredUsers",
      "outputs": [
        {
          "internalType": "address",
          "name": "",
          "type": "address"
        }
      ],
      "stateMutability": "view",
      "type": "function"
    },
    {
      "inputs": [
        {
          "internalType": "uint256",
          "name": "_docId",
          "type": "uint256"
        },
        {
          "internalType": "string",
          "name": "_reason",
          "type": "string"
        }
      ],
      "name": "revokeDocument",
      "outputs": [],
      "stateMutability": "nonpayable",
      "type": "function"
    },
    {
      "inputs": [
        {
          "internalType": "uint256",
          "name": "_docId",
          "type": "uint256"
        },
        {
          "internalType": "string",
          "name": "_signature",
          "type": "string"
        }
      ],
      "name": "signDocument",
      "outputs": [],
      "stateMutability": "nonpayable",
      "type": "function"
    },
    {
      "inputs": [
        {
          "internalType": "uint256",
          "name": "_docId",
          "type": "uint256"
        }
      ],
      "name": "signDocumentLegacy",
      "outputs": [],
      "stateMutability": "nonpayable",
      "type": "function"
    },
    {
      "inputs": [
        {
          "internalType": "uint256",
          "name": "_docId",
          "type": "uint256"
        },
        {
          "internalType": "address",
          "name": "_signer",
          "type": "address"
        },
        {
          "internalType": "bytes32",
          "name": "_documentHash",
          "type": "bytes32"
        },
        {
          "internalType": "bytes",
          "name": "_signature",
          "type": "bytes"
        }
      ],
      "name": "verifySignature",
      "outputs": [
        {
          "internalType": "bool",
          "name": "",
          "type": "bool"
        }
      ],
      "stateMutability": "view",
      "type": "function"
    }
  ],
  "bytecode": "0x608060405234801561001057600080fd5b506142df806100206000396000f3fe608060405234801561001057600080fd5b50600436106101215760003560e01c8063987ee156116100ad578063c2a6ebfb11610071578063c2a6ebfb14610376578063cb56182414610392578063d0e2a019146103c2578063d9548e53146103de578063e0cd77b01461040e57610121565b8063987ee156146102a2578063a5b16b2e146102d7578063b0cace06146102f5578063b3bcd5cf14610311578063bbe156271461034157610121565b80635308cfa9116100f45780635308cfa9146101da5780635f372d56146101f6578063709df8d9146102125780637259e0f81461024257806393552a3d1461027257610121565b80631b1ab53d1461012657806328d787d914610156578063397388af146101865780633f9b250a146101a4575b600080fd5b610140600480360381019061013b9190612a50565b61043e565b60405161014d9190612a9f565b60405180910390f35b610170600480360381019061016b9190612c36565b61049b565b60405161017d9190612cd4565b60405180910390f35b61018e61072b565b60405161019b9190612dad565b60405180910390f35b6101be60048036038101906101b99190612dcf565b6107b9565b6040516101d19796959493929190612e8a565b60405180910390f35b6101f460048036038101906101ef9190612fa8565b610a6d565b005b610210600480360381019061020b9190612dcf565b610f58565b005b61022c60048036038101906102279190612a50565b6113ad565b6040516102399190612cd4565b60405180910390f35b61025c60048036038101906102579190612dcf565b611417565b6040516102699190613004565b60405180910390f35b61028c60048036038101906102879190612a50565b611456565b6040516102999190613096565b60405180910390f35b6102bc60048036038101906102b791906130b1565b611522565b6040516102ce969594939291906130de565b60405180910390f35b6102df61186b565b6040516102ec9190612a9f565b60405180910390f35b61030f600480360381019061030a919061315b565b611871565b005b61032b60048036038101906103269190612a50565b611ab5565b6040516103389190613246565b60405180910390f35b61035b600480360381019061035691906130b1565b611b9a565b60405161036d969594939291906130de565b60405180910390f35b610390600480360381019061038b9190613268565b611e03565b005b6103ac60048036038101906103a7919061339f565b6121fc565b6040516103b99190612a9f565b60405180910390f35b6103dc60048036038101906103d79190612fa8565b612686565b005b6103f860048036038101906103f39190612dcf565b61289e565b6040516104059190612cd4565b60405180910390f35b61042860048036038101906104239190612dcf565b6128d5565b6040516104359190613004565b60405180910390f35b600080600084815260200190815260200160002060050160008373ffffffffffffffffffffffffffffffffffffffff1673ffffffffffffffffffffffffffffffffffffffff16815260200190815260200160002054905092915050565b600080600086815260200190815260200160002060090160019054906101000a900460ff166104ff576040517f08c379a00000000000000000000000000000000000000000000000000000000081526004016104f690613476565b60405180910390fd5b60008086815260200190815260200160002060040160008573ffffffffffffffffffffffffffffffffffffffff1673ffffffffffffffffffffffffffffffffffffffff16815260200190815260200160002060009054906101000a900460ff1661059e576040517f08c379a000000000000000000000000000000000000000000000000000000000815260040161059590613508565b60405180910390fd5b60418251146105e2576040517f08c379a00000000000000000000000000000000000000000000000000000000081526004016105d990613574565b60405180910390fd5b6000836040516020016105f5919061360c565b60405160208183030381529060405280519060200120905060008060006020860151925060408601519150606086015160001a9050601b8160ff16101561064657601b81610643919061366e565b90505b601b8160ff16148061065b5750601c8160ff16145b61069a576040517f08c379a0000000000000000000000000000000000000000000000000000000008152600401610691906136ef565b60405180910390fd5b6000600185838686604051600081526020016040526040516106bf949392919061372d565b6020604051602081039080840390855afa1580156106e1573d6000803e3d6000fd5b5050506020604051035190508873ffffffffffffffffffffffffffffffffffffffff168173ffffffffffffffffffffffffffffffffffffffff161495505050505050949350505050565b606060038054806020026020016040519081016040528092919081815260200182805480156107af57602002820191906000526020600020905b8160009054906101000a900473ffffffffffffffffffffffffffffffffffffffff1673ffffffffffffffffffffffffffffffffffffffff1681526020019060010190808311610765575b5050505050905090565b60606000606060008060008060008060008a815260200190815260200160002090508060090160019054906101000a900460ff1661082c576040517f08c379a000000000000000000000000000000000000000000000000000000000815260040161082390613476565b60405180910390fd5b60006001905060005b82600201805490508110156108f3578260040160008460020183815481106108605761085f613772565b5b9060005260206000200160009054906101000a900473ffffffffffffffffffffffffffffffffffffffff1673ffffffffffffffffffffffffffffffffffffffff1673ffffffffffffffffffffffffffffffffffffffff16815260200190815260200160002060009054906101000a900460ff166108e057600091506108f3565b80806108eb906137a1565b915050610835565b50816000018260010160009054906101000a900473ffffffffffffffffffffffffffffffffffffffff168360020184600701548560080154858760090160009054906101000a900460ff1686805461094a90613818565b80601f016020809104026020016040519081016040528092919081815260200182805461097690613818565b80156109c35780601f10610998576101008083540402835291602001916109c3565b820191906000526020600020905b8154815290600101906020018083116109a657829003601f168201915b5050505050965084805480602002602001604051908101604052809291908181526020018280548015610a4b57602002820191906000526020600020905b8160009054906101000a900473ffffffffffffffffffffffffffffffffffffffff1673ffffffffffffffffffffffffffffffffffffffff1681526020019060010190808311610a01575b5050505050945098509850985098509850985098505050919395979092949650565b8160008082815260200190815260200160002060090160019054906101000a900460ff16610ad0576040517f08c379a0000000000000000000000000000000000000000000000000000000008152600401610ac790613476565b60405180910390fd5b600280811115610ae357610ae261301f565b5b60008083815260200190815260200160002060030160003373ffffffffffffffffffffffffffffffffffffffff1673ffffffffffffffffffffffffffffffffffffffff16815260200190815260200160002060009054906101000a900460ff166002811115610b5557610b5461301f565b5b14610b95576040517f08c379a0000000000000000000000000000000000000000000000000000000008152600401610b8c90613895565b60405180910390fd5b8260008082815260200190815260200160002060090160009054906101000a900460ff1615610bf9576040517f08c379a0000000000000000000000000000000000000000000000000000000008152600401610bf090613901565b60405180910390fd5b60008060008681526020019081526020016000209050610c188561289e565b15610c58576040517f08c379a0000000000000000000000000000000000000000000000000000000008152600401610c4f9061396d565b60405180910390fd5b8060040160003373ffffffffffffffffffffffffffffffffffffffff1673ffffffffffffffffffffffffffffffffffffffff16815260200190815260200160002060009054906101000a900460ff1615610ce7576040517f08c379a0000000000000000000000000000000000000000000000000000000008152600401610cde906139d9565b60405180910390fd5b3373ffffffffffffffffffffffffffffffffffffffff168160020182600b015481548110610d1857610d17613772565b5b9060005260206000200160009054906101000a900473ffffffffffffffffffffffffffffffffffffffff1673ffffffffffffffffffffffffffffffffffffffff1614610d99576040517f08c379a0000000000000000000000000000000000000000000000000000000008152600401610d9090613a45565b60405180910390fd5b6000845111610ddd576040517f08c379a0000000000000000000000000000000000000000000000000000000008152600401610dd490613ab1565b60405180910390fd5b60018160040160003373ffffffffffffffffffffffffffffffffffffffff1673ffffffffffffffffffffffffffffffffffffffff16815260200190815260200160002060006101000a81548160ff021916908315150217905550428160050160003373ffffffffffffffffffffffffffffffffffffffff1673ffffffffffffffffffffffffffffffffffffffff16815260200190815260200160002081905550838160060160003373ffffffffffffffffffffffffffffffffffffffff1673ffffffffffffffffffffffffffffffffffffffff1681526020019081526020016000209081610ecb9190613c7d565b50806008016000815480929190610ee1906137a1565b919050555080600b016000815480929190610efb906137a1565b91905055503373ffffffffffffffffffffffffffffffffffffffff16857f8c14a9d5f9e05ea3d9142fd74ae9dc73e6214837cd22e0622926450648a81edb4287604051610f49929190613d4f565b60405180910390a35050505050565b8060008082815260200190815260200160002060090160019054906101000a900460ff16610fbb576040517f08c379a0000000000000000000000000000000000000000000000000000000008152600401610fb290613476565b60405180910390fd5b600280811115610fce57610fcd61301f565b5b60008083815260200190815260200160002060030160003373ffffffffffffffffffffffffffffffffffffffff1673ffffffffffffffffffffffffffffffffffffffff16815260200190815260200160002060009054906101000a900460ff1660028111156110405761103f61301f565b5b14611080576040517f08c379a000000000000000000000000000000000000000000000000000000000815260040161107790613895565b60405180910390fd5b8160008082815260200190815260200160002060090160009054906101000a900460ff16156110e4576040517f08c379a00000000000000000000000000000000000000000000000000000000081526004016110db90613901565b60405180910390fd5b600080600085815260200190815260200160002090506111038461289e565b15611143576040517f08c379a000000000000000000000000000000000000000000000000000000000815260040161113a9061396d565b60405180910390fd5b8060040160003373ffffffffffffffffffffffffffffffffffffffff1673ffffffffffffffffffffffffffffffffffffffff16815260200190815260200160002060009054906101000a900460ff16156111d2576040517f08c379a00000000000000000000000000000000000000000000000000000000081526004016111c9906139d9565b60405180910390fd5b3373ffffffffffffffffffffffffffffffffffffffff168160020182600b01548154811061120357611202613772565b5b9060005260206000200160009054906101000a900473ffffffffffffffffffffffffffffffffffffffff1673ffffffffffffffffffffffffffffffffffffffff1614611284576040517f08c379a000000000000000000000000000000000000000000000000000000000815260040161127b90613a45565b60405180910390fd5b60018160040160003373ffffffffffffffffffffffffffffffffffffffff1673ffffffffffffffffffffffffffffffffffffffff16815260200190815260200160002060006101000a81548160ff021916908315150217905550428160050160003373ffffffffffffffffffffffffffffffffffffffff1673ffffffffffffffffffffffffffffffffffffffff16815260200190815260200160002081905550806008016000815480929190611339906137a1565b919050555080600b016000815480929190611353906137a1565b91905055503373ffffffffffffffffffffffffffffffffffffffff16847f8c14a9d5f9e05ea3d9142fd74ae9dc73e6214837cd22e0622926450648a81edb4260405161139f9190613da5565b60405180910390a350505050565b600080600084815260200190815260200160002060040160008373ffffffffffffffffffffffffffffffffffffffff1673ffffffffffffffffffffffffffffffffffffffff16815260200190815260200160002060009054906101000a900460ff16905092915050565b6003818154811061142757600080fd5b906000526020600020016000915054906101000a900473ffffffffffffffffffffffffffffffffffffffff1681565b600080600084815260200190815260200160002060090160019054906101000a900460ff166114ba576040517f08c379a00000000000000000000000000000000000000000000000000000000081526004016114b190613476565b60405180910390fd5b60008084815260200190815260200160002060030160008373ffffffffffffffffffffffffffffffffffffffff1673ffffffffffffffffffffffffffffffffffffffff16815260200190815260200160002060009054906101000a900460ff16905092915050565b60608060606000806060600260008873ffffffffffffffffffffffffffffffffffffffff1673ffffffffffffffffffffffffffffffffffffffff16815260200190815260200160002060040160009054906101000a900460ff166115bb576040517f08c379a00000000000000000000000000000000000000000000000000000000081526004016115b290613e1f565b60405180910390fd5b6000600260008973ffffffffffffffffffffffffffffffffffffffff1673ffffffffffffffffffffffffffffffffffffffff168152602001908152602001600020905080600001816001018260020183600301548460040160009054906101000a900460ff168560050185805461163190613818565b80601f016020809104026020016040519081016040528092919081815260200182805461165d90613818565b80156116aa5780601f1061167f576101008083540402835291602001916116aa565b820191906000526020600020905b81548152906001019060200180831161168d57829003601f168201915b505050505095508480546116bd90613818565b80601f01602080910402602001604051908101604052809291908181526020018280546116e990613818565b80156117365780601f1061170b57610100808354040283529160200191611736565b820191906000526020600020905b81548152906001019060200180831161171957829003601f168201915b5050505050945083805461174990613818565b80601f016020809104026020016040519081016040528092919081815260200182805461177590613818565b80156117c25780601f10611797576101008083540402835291602001916117c2565b820191906000526020600020905b8154815290600101906020018083116117a557829003601f168201915b505050505093508080546117d590613818565b80601f016020809104026020016040519081016040528092919081815260200182805461180190613818565b801561184e5780601f106118235761010080835404028352916020019161184e565b820191906000526020600020905b81548152906001019060200180831161183157829003601f168201915b505050505090509650965096509650965096505091939550919395565b60015481565b600260003373ffffffffffffffffffffffffffffffffffffffff1673ffffffffffffffffffffffffffffffffffffffff16815260200190815260200160002060040160009054906101000a900460ff1615611901576040517f08c379a00000000000000000000000000000000000000000000000000000000081526004016118f890613e8b565b60405180910390fd5b6040518060c0016040528086815260200185815260200184815260200183815260200160011515815260200182815250600260003373ffffffffffffffffffffffffffffffffffffffff1673ffffffffffffffffffffffffffffffffffffffff16815260200190815260200160002060008201518160000190816119859190613c7d565b50602082015181600101908161199b9190613c7d565b5060408201518160020190816119b19190613c7d565b506060820151816003015560808201518160040160006101000a81548160ff02191690831515021790555060a08201518160050190816119f19190613c7d565b509050506003339080600181540180825580915050600190039060005260206000200160009091909190916101000a81548173ffffffffffffffffffffffffffffffffffffffff021916908373ffffffffffffffffffffffffffffffffffffffff1602179055503373ffffffffffffffffffffffffffffffffffffffff167f78088310123490d67595b7b0e336cb2e2fc0f7df27ddd8950b8656c84413fb1b8686868686604051611aa6959493929190613eab565b60405180910390a25050505050565b606060008084815260200190815260200160002060060160008373ffffffffffffffffffffffffffffffffffffffff1673ffffffffffffffffffffffffffffffffffffffff1681526020019081526020016000208054611b1490613818565b80601f0160208091040260200160405190810160405280929190818152602001828054611b4090613818565b8015611b8d5780601f10611b6257610100808354040283529160200191611b8d565b820191906000526020600020905b815481529060010190602001808311611b7057829003601f168201915b5050505050905092915050565b6002602052806000526040600020600091509050806000018054611bbd90613818565b80601f0160208091040260200160405190810160405280929190818152602001828054611be990613818565b8015611c365780601f10611c0b57610100808354040283529160200191611c36565b820191906000526020600020905b815481529060010190602001808311611c1957829003601f168201915b505050505090806001018054611c4b90613818565b80601f0160208091040260200160405190810160405280929190818152602001828054611c7790613818565b8015611cc45780601f10611c9957610100808354040283529160200191611cc4565b820191906000526020600020905b815481529060010190602001808311611ca757829003601f168201915b505050505090806002018054611cd990613818565b80601f0160208091040260200160405190810160405280929190818152602001828054611d0590613818565b8015611d525780601f10611d2757610100808354040283529160200191611d52565b820191906000526020600020905b815481529060010190602001808311611d3557829003601f168201915b5050505050908060030154908060040160009054906101000a900460ff1690806005018054611d8090613818565b80601f0160208091040260200160405190810160405280929190818152602001828054611dac90613818565b8015611df95780601f10611dce57610100808354040283529160200191611df9565b820191906000526020600020905b815481529060010190602001808311611ddc57829003601f168201915b5050505050905086565b8260008082815260200190815260200160002060090160019054906101000a900460ff16611e66576040517f08c379a0000000000000000000000000000000000000000000000000000000008152600401611e5d90613476565b60405180910390fd5b60016002811115611e7a57611e7961301f565b5b60008083815260200190815260200160002060030160003373ffffffffffffffffffffffffffffffffffffffff1673ffffffffffffffffffffffffffffffffffffffff16815260200190815260200160002060009054906101000a900460ff166002811115611eec57611eeb61301f565b5b14611f2c576040517f08c379a0000000000000000000000000000000000000000000000000000000008152600401611f2390613f66565b60405180910390fd5b8360008082815260200190815260200160002060090160009054906101000a900460ff1615611f90576040517f08c379a0000000000000000000000000000000000000000000000000000000008152600401611f8790613901565b60405180910390fd5b60008060008781526020019081526020016000209050611faf8661289e565b15611fef576040517f08c379a0000000000000000000000000000000000000000000000000000000008152600401611fe69061396d565b60405180910390fd5b60006001905060005b82600201805490508110156120b65782600401600084600201838154811061202357612022613772565b5b9060005260206000200160009054906101000a900473ffffffffffffffffffffffffffffffffffffffff1673ffffffffffffffffffffffffffffffffffffffff1673ffffffffffffffffffffffffffffffffffffffff16815260200190815260200160002060009054906101000a900460ff166120a357600091506120b6565b80806120ae906137a1565b915050611ff8565b5080156120f8576040517f08c379a00000000000000000000000000000000000000000000000000000000081526004016120ef90613ff8565b60405180910390fd5b600086511161213c576040517f08c379a000000000000000000000000000000000000000000000000000000000815260040161213390614064565b60405180910390fd5b6000851461219057428511612186576040517f08c379a000000000000000000000000000000000000000000000000000000000815260040161217d906140d0565b60405180910390fd5b8482600a01819055505b858260000190816121a19190613c7d565b503373ffffffffffffffffffffffffffffffffffffffff16877fd4af573228b33e73cdfacac0a74b920c7b511e2ff826fb63a2e0bb5790b54ebc88426040516121eb9291906140f0565b60405180910390a350505050505050565b600080845111612241576040517f08c379a000000000000000000000000000000000000000000000000000000000815260040161223890614064565b60405180910390fd5b6000835111612285576040517f08c379a000000000000000000000000000000000000000000000000000000000815260040161227c9061416c565b60405180910390fd5b600082148061229357504282115b6122d2576040517f08c379a00000000000000000000000000000000000000000000000000000000081526004016122c9906140d0565b60405180910390fd5b600160008154809291906122e5906137a1565b9190505550600080600060015481526020019081526020016000209050848160000190816123139190613c7d565b50338160010160006101000a81548173ffffffffffffffffffffffffffffffffffffffff021916908373ffffffffffffffffffffffffffffffffffffffff16021790555042816007018190555060018160090160016101000a81548160ff0219169083151502179055508281600a018190555060018160030160003373ffffffffffffffffffffffffffffffffffffffff1673ffffffffffffffffffffffffffffffffffffffff16815260200190815260200160002060006101000a81548160ff021916908360028111156123eb576123ea61301f565b5b021790555060005b845181101561262357600073ffffffffffffffffffffffffffffffffffffffff1685828151811061242757612426613772565b5b602002602001015173ffffffffffffffffffffffffffffffffffffffff1603612485576040517f08c379a000000000000000000000000000000000000000000000000000000000815260040161247c906141d8565b60405180910390fd5b3373ffffffffffffffffffffffffffffffffffffffff168582815181106124af576124ae613772565b5b602002602001015173ffffffffffffffffffffffffffffffffffffffff160361250d576040517f08c379a000000000000000000000000000000000000000000000000000000000815260040161250490614244565b60405180910390fd5b8160020185828151811061252457612523613772565b5b60200260200101519080600181540180825580915050600190039060005260206000200160009091909190916101000a81548173ffffffffffffffffffffffffffffffffffffffff021916908373ffffffffffffffffffffffffffffffffffffffff16021790555060028260030160008784815181106125a7576125a6613772565b5b602002602001015173ffffffffffffffffffffffffffffffffffffffff1673ffffffffffffffffffffffffffffffffffffffff16815260200190815260200160002060006101000a81548160ff0219169083600281111561260b5761260a61301f565b5b0217905550808061261b906137a1565b9150506123f3565b503373ffffffffffffffffffffffffffffffffffffffff166001547f0f34f336d6e1cc231d161403dd583f287c90d4e144120937a223d9531afe848c87874260405161267193929190614264565b60405180910390a36001549150509392505050565b8160008082815260200190815260200160002060090160019054906101000a900460ff166126e9576040517f08c379a00000000000000000000000000000000000000000000000000000000081526004016126e090613476565b60405180910390fd5b600160028111156126fd576126fc61301f565b5b60008083815260200190815260200160002060030160003373ffffffffffffffffffffffffffffffffffffffff1673ffffffffffffffffffffffffffffffffffffffff16815260200190815260200160002060009054906101000a900460ff16600281111561276f5761276e61301f565b5b146127af576040517f08c379a00000000000000000000000000000000000000000000000000000000081526004016127a690613f66565b60405180910390fd5b8260008082815260200190815260200160002060090160009054906101000a900460ff1615612813576040517f08c379a000000000000000000000000000000000000000000000000000000000815260040161280a90613901565b60405180910390fd5b6000806000868152602001908152602001600020905060018160090160006101000a81548160ff0219169083151502179055503373ffffffffffffffffffffffffffffffffffffffff16857f7a58ff517c00037031f8886d9305cec9b4a44d1c1a04fc2ef4d7a5d7a09eede5428760405161288f929190613d4f565b60405180910390a35050505050565b6000806000808481526020019081526020016000209050600081600a0154141580156128cd575080600a015442115b915050919050565b60008060008084815260200190815260200160002090508060090160019054906101000a900460ff1661293d576040517f08c379a000000000000000000000000000000000000000000000000000000000815260040161293490613476565b60405180910390fd5b806002018054905081600b0154101561299d578060020181600b01548154811061296a57612969613772565b5b9060005260206000200160009054906101000a900473ffffffffffffffffffffffffffffffffffffffff169150506129a3565b60009150505b919050565b6000604051905090565b600080fd5b600080fd5b6000819050919050565b6129cf816129bc565b81146129da57600080fd5b50565b6000813590506129ec816129c6565b92915050565b600073ffffffffffffffffffffffffffffffffffffffff82169050919050565b6000612a1d826129f2565b9050919050565b612a2d81612a12565b8114612a3857600080fd5b50565b600081359050612a4a81612a24565b92915050565b60008060408385031215612a6757612a666129b2565b5b6000612a75858286016129dd565b9250506020612a8685828601612a3b565b9150509250929050565b612a99816129bc565b82525050565b6000602082019050612ab46000830184612a90565b92915050565b6000819050919050565b612acd81612aba565b8114612ad857600080fd5b50565b600081359050612aea81612ac4565b92915050565b600080fd5b600080fd5b6000601f19601f8301169050919050565b7f4e487b7100000000000000000000000000000000000000000000000000000000600052604160045260246000fd5b612b4382612afa565b810181811067ffffffffffffffff82111715612b6257612b61612b0b565b5b80604052505050565b6000612b756129a8565b9050612b818282612b3a565b919050565b600067ffffffffffffffff821115612ba157612ba0612b0b565b5b612baa82612afa565b9050602081019050919050565b82818337600083830152505050565b6000612bd9612bd484612b86565b612b6b565b905082815260208101848484011115612bf557612bf4612af5565b5b612c00848285612bb7565b509392505050565b600082601f830112612c1d57612c1c612af0565b5b8135612c2d848260208601612bc6565b91505092915050565b60008060008060808587031215612c5057612c4f6129b2565b5b6000612c5e878288016129dd565b9450506020612c6f87828801612a3b565b9350506040612c8087828801612adb565b925050606085013567ffffffffffffffff811115612ca157612ca06129b7565b5b612cad87828801612c08565b91505092959194509250565b60008115159050919050565b612cce81612cb9565b82525050565b6000602082019050612ce96000830184612cc5565b92915050565b600081519050919050565b600082825260208201905092915050565b6000819050602082019050919050565b612d2481612a12565b82525050565b6000612d368383612d1b565b60208301905092915050565b6000602082019050919050565b6000612d5a82612cef565b612d648185612cfa565b9350612d6f83612d0b565b8060005b83811015612da0578151612d878882612d2a565b9750612d9283612d42565b925050600181019050612d73565b5085935050505092915050565b60006020820190508181036000830152612dc78184612d4f565b905092915050565b600060208284031215612de557612de46129b2565b5b6000612df3848285016129dd565b91505092915050565b600081519050919050565b600082825260208201905092915050565b60005b83811015612e36578082015181840152602081019050612e1b565b60008484015250505050565b6000612e4d82612dfc565b612e578185612e07565b9350612e67818560208601612e18565b612e7081612afa565b840191505092915050565b612e8481612a12565b82525050565b600060e0820190508181036000830152612ea4818a612e42565b9050612eb36020830189612e7b565b8181036040830152612ec58188612d4f565b9050612ed46060830187612a90565b612ee16080830186612a90565b612eee60a0830185612cc5565b612efb60c0830184612cc5565b98975050505050505050565b600067ffffffffffffffff821115612f2257612f21612b0b565b5b612f2b82612afa565b9050602081019050919050565b6000612f4b612f4684612f07565b612b6b565b905082815260208101848484011115612f6757612f66612af5565b5b612f72848285612bb7565b509392505050565b600082601f830112612f8f57612f8e612af0565b5b8135612f9f848260208601612f38565b91505092915050565b60008060408385031215612fbf57612fbe6129b2565b5b6000612fcd858286016129dd565b925050602083013567ffffffffffffffff811115612fee57612fed6129b7565b5b612ffa85828601612f7a565b9150509250929050565b60006020820190506130196000830184612e7b565b92915050565b7f4e487b7100000000000000000000000000000000000000000000000000000000600052602160045260246000fd5b6003811061305f5761305e61301f565b5b50565b60008190506130708261304e565b919050565b600061308082613062565b9050919050565b61309081613075565b82525050565b60006020820190506130ab6000830184613087565b92915050565b6000602082840312156130c7576130c66129b2565b5b60006130d584828501612a3b565b91505092915050565b600060c08201905081810360008301526130f88189612e42565b9050818103602083015261310c8188612e42565b905081810360408301526131208187612e42565b905061312f6060830186612a90565b61313c6080830185612cc5565b81810360a083015261314e8184612e42565b9050979650505050505050565b600080600080600060a08688031215613177576131766129b2565b5b600086013567ffffffffffffffff811115613195576131946129b7565b5b6131a188828901612f7a565b955050602086013567ffffffffffffffff8111156131c2576131c16129b7565b5b6131ce88828901612f7a565b945050604086013567ffffffffffffffff8111156131ef576131ee6129b7565b5b6131fb88828901612f7a565b935050606061320c888289016129dd565b925050608086013567ffffffffffffffff81111561322d5761322c6129b7565b5b61323988828901612f7a565b9150509295509295909350565b600060208201905081810360008301526132608184612e42565b905092915050565b600080600060608486031215613281576132806129b2565b5b600061328f868287016129dd565b935050602084013567ffffffffffffffff8111156132b0576132af6129b7565b5b6132bc86828701612f7a565b92505060406132cd868287016129dd565b9150509250925092565b600067ffffffffffffffff8211156132f2576132f1612b0b565b5b602082029050602081019050919050565b600080fd5b600061331b613316846132d7565b612b6b565b9050808382526020820190506020840283018581111561333e5761333d613303565b5b835b8181101561336757806133538882612a3b565b845260208401935050602081019050613340565b5050509392505050565b600082601f83011261338657613385612af0565b5b8135613396848260208601613308565b91505092915050565b6000806000606084860312156133b8576133b76129b2565b5b600084013567ffffffffffffffff8111156133d6576133d56129b7565b5b6133e286828701612f7a565b935050602084013567ffffffffffffffff811115613403576134026129b7565b5b61340f86828701613371565b9250506040613420868287016129dd565b9150509250925092565b7f446f63756d656e7420646f6573206e6f74206578697374000000000000000000600082015250565b6000613460601783612e07565b915061346b8261342a565b602082019050919050565b6000602082019050818103600083015261348f81613453565b9050919050565b7f5369676e657220686173206e6f74207369676e6564207468697320646f63756d60008201527f656e740000000000000000000000000000000000000000000000000000000000602082015250565b60006134f2602383612e07565b91506134fd82613496565b604082019050919050565b60006020820190508181036000830152613521816134e5565b9050919050565b7f496e76616c6964207369676e6174757265206c656e6774680000000000000000600082015250565b600061355e601883612e07565b915061356982613528565b602082019050919050565b6000602082019050818103600083015261358d81613551565b9050919050565b600081905092915050565b7f19457468657265756d205369676e6564204d6573736167653a0a333200000000600082015250565b60006135d5601c83613594565b91506135e08261359f565b601c82019050919050565b6000819050919050565b61360661360182612aba565b6135eb565b82525050565b6000613617826135c8565b915061362382846135f5565b60208201915081905092915050565b600060ff82169050919050565b7f4e487b7100000000000000000000000000000000000000000000000000000000600052601160045260246000fd5b600061367982613632565b915061368483613632565b9250828201905060ff81111561369d5761369c61363f565b5b92915050565b7f496e76616c6964207369676e6174757265202776272076616c75650000000000600082015250565b60006136d9601b83612e07565b91506136e4826136a3565b602082019050919050565b60006020820190508181036000830152613708816136cc565b9050919050565b61371881612aba565b82525050565b61372781613632565b82525050565b6000608082019050613742600083018761370f565b61374f602083018661371e565b61375c604083018561370f565b613769606083018461370f565b95945050505050565b7f4e487b7100000000000000000000000000000000000000000000000000000000600052603260045260246000fd5b60006137ac826129bc565b91507fffffffffffffffffffffffffffffffffffffffffffffffffffffffffffffffff82036137de576137dd61363f565b5b600182019050919050565b7f4e487b7100000000000000000000000000000000000000000000000000000000600052602260045260246000fd5b6000600282049050600182168061383057607f821691505b602082108103613843576138426137e9565b5b50919050565b7f4e6f7420617574686f72697a6564207369676e65720000000000000000000000600082015250565b600061387f601583612e07565b915061388a82613849565b602082019050919050565b600060208201905081810360008301526138ae81613872565b9050919050565b7f446f63756d656e74206973207265766f6b656400000000000000000000000000600082015250565b60006138eb601383612e07565b91506138f6826138b5565b602082019050919050565b6000602082019050818103600083015261391a816138de565b9050919050565b7f446f63756d656e74206578706972656400000000000000000000000000000000600082015250565b6000613957601083612e07565b915061396282613921565b602082019050919050565b600060208201905081810360008301526139868161394a565b9050919050565b7f416c7265616479207369676e6564000000000000000000000000000000000000600082015250565b60006139c3600e83612e07565b91506139ce8261398d565b602082019050919050565b600060208201905081810360008301526139f2816139b6565b9050919050565b7f4e6f7420796f7572207475726e20746f207369676e0000000000000000000000600082015250565b6000613a2f601583612e07565b9150613a3a826139f9565b602082019050919050565b60006020820190508181036000830152613a5e81613a22565b9050919050565b7f5369676e61747572652072657175697265640000000000000000000000000000600082015250565b6000613a9b601283612e07565b9150613aa682613a65565b602082019050919050565b60006020820190508181036000830152613aca81613a8e565b9050919050565b60008190508160005260206000209050919050565b60006020601f8301049050919050565b600082821b905092915050565b600060088302613b337fffffffffffffffffffffffffffffffffffffffffffffffffffffffffffffffff82613af6565b613b3d8683613af6565b95508019841693508086168417925050509392505050565b6000819050919050565b6000613b7a613b75613b70846129bc565b613b55565b6129bc565b9050919050565b6000819050919050565b613b9483613b5f565b613ba8613ba082613b81565b848454613b03565b825550505050565b600090565b613bbd613bb0565b613bc8818484613b8b565b505050565b5b81811015613bec57613be1600082613bb5565b600181019050613bce565b5050565b601f821115613c3157613c0281613ad1565b613c0b84613ae6565b81016020851015613c1a578190505b613c2e613c2685613ae6565b830182613bcd565b50505b505050565b600082821c905092915050565b6000613c5460001984600802613c36565b1980831691505092915050565b6000613c6d8383613c43565b9150826002028217905092915050565b613c8682612dfc565b67ffffffffffffffff811115613c9f57613c9e612b0b565b5b613ca98254613818565b613cb4828285613bf0565b600060209050601f831160018114613ce75760008415613cd5578287015190505b613cdf8582613c61565b865550613d47565b601f198416613cf586613ad1565b60005b82811015613d1d57848901518255600182019150602085019450602081019050613cf8565b86831015613d3a5784890151613d36601f891682613c43565b8355505b6001600288020188555050505b505050505050565b6000604082019050613d646000830185612a90565b8181036020830152613d768184612e42565b90509392505050565b50565b6000613d8f600083612e07565b9150613d9a82613d7f565b600082019050919050565b6000604082019050613dba6000830184612a90565b8181036020830152613dcb81613d82565b905092915050565b7f55736572206e6f74207265676973746572656400000000000000000000000000600082015250565b6000613e09601383612e07565b9150613e1482613dd3565b602082019050919050565b60006020820190508181036000830152613e3881613dfc565b9050919050565b7f416c726561647920726567697374657265640000000000000000000000000000600082015250565b6000613e75601283612e07565b9150613e8082613e3f565b602082019050919050565b60006020820190508181036000830152613ea481613e68565b9050919050565b600060a0820190508181036000830152613ec58188612e42565b90508181036020830152613ed98187612e42565b90508181036040830152613eed8186612e42565b9050613efc6060830185612a90565b8181036080830152613f0e8184612e42565b90509695505050505050565b7f4e6f7420646f63756d656e74206f776e65720000000000000000000000000000600082015250565b6000613f50601283612e07565b9150613f5b82613f1a565b602082019050919050565b60006020820190508181036000830152613f7f81613f43565b9050919050565b7f43616e6e6f7420616d656e642066756c6c79207369676e656420646f63756d6560008201527f6e74000000000000000000000000000000000000000000000000000000000000602082015250565b6000613fe2602283612e07565b9150613fed82613f86565b604082019050919050565b6000602082019050818103600083015261401181613fd5565b9050919050565b7f4950465320686173682072657175697265640000000000000000000000000000600082015250565b600061404e601283612e07565b915061405982614018565b602082019050919050565b6000602082019050818103600083015261407d81614041565b9050919050565b7f457870697279206d75737420626520696e207468652066757475726500000000600082015250565b60006140ba601c83612e07565b91506140c582614084565b602082019050919050565b600060208201905081810360008301526140e9816140ad565b9050919050565b6000604082019050818103600083015261410a8185612e42565b90506141196020830184612a90565b9392505050565b7f4174206c65617374206f6e65207369676e657220726571756972656400000000600082015250565b6000614156601c83612e07565b915061416182614120565b602082019050919050565b6000602082019050818103600083015261418581614149565b9050919050565b7f496e76616c6964207369676e6572206164647265737300000000000000000000600082015250565b60006141c2601683612e07565b91506141cd8261418c565b602082019050919050565b600060208201905081810360008301526141f1816141b5565b9050919050565b7f4f776e65722063616e6e6f74206265207369676e657200000000000000000000600082015250565b600061422e601683612e07565b9150614239826141f8565b602082019050919050565b6000602082019050818103600083015261425d81614221565b9050919050565b6000606082019050818103600083015261427e8186612e42565b905081810360208301526142928185612d4f565b90506142a16040830184612a90565b94935050505056fea26469706673582212208e13a6200ec067e6fcf3c6f1f9f2645264ea6a1b1ae5ca037c8060be1446b94d64736f6c63430008150033",
  "linkReferences": {},
  "deployedLinkReferences": {}
}