{
  "_format": "hh-sol-artifact-1",
  "contractName": "DocumentSign",
  "sourceName": "contracts/Docu3.sol",
  "abi": [
    {
      "anonymous": false,
      "inputs": [
        {
          "indexed": true,
          "internalType": "uint256",
          "name": "docId",
          "type": "uint256"
        },
        {
          "indexed": false,
          "internalType": "string",
          "name": "newIpfsHash",
          "type": "string"
        },
        {
          "indexed": true,
          "internalType": "address",
          "name": "editor",
          "type": "address"
        },
        {
          "indexed": false,
          "internalType": "uint256",
          "name": "amendedAt",
          "type": "uint256"
        }
      ],
      "name": "DocumentAmended",
      "type": "event"
    },
    {
      "anonymous": false,
      "inputs": [
        {
          "indexed": true,
          "internalType": "uint256",
          "name": "docId",
          "type": "uint256"
        },
        {
          "indexed": false,
          "internalType": "string",
          "name": "ipfsHash",
          "type": "string"
        },
        {
          "indexed": true,
          "internalType": "address",
          "name": "creator",
          "type": "address"
        },
        {
          "indexed": false,
          "internalType": "address[]",
          "name": "signers",
          "type": "address[]"
        },
        {
          "indexed": false,
          "internalType": "uint256",
          "name": "createdAt",
          "type": "uint256"
        }
      ],
      "name": "DocumentCreated",
      "type": "event"
    },
    {
      "anonymous": false,
      "inputs": [
        {
          "indexed": true,
          "internalType": "uint256",
          "name": "docId",
          "type": "uint256"
        },
        {
          "indexed": false,
          "internalType": "uint256",
          "name": "expiredAt",
          "type": "uint256"
        }
      ],
      "name": "DocumentExpired",
      "type": "event"
    },
    {
      "anonymous": false,
      "inputs": [
        {
          "indexed": true,
          "internalType": "uint256",
          "name": "docId",
          "type": "uint256"
        },
        {
          "indexed": true,
          "internalType": "address",
          "name": "revoker",
          "type": "address"
        },
        {
          "indexed": false,
          "internalType": "uint256",
          "name": "revokedAt",
          "type": "uint256"
        },
        {
          "indexed": false,
          "internalType": "string",
          "name": "reason",
          "type": "string"
        }
      ],
      "name": "DocumentRevoked",
      "type": "event"
    },
    {
      "anonymous": false,
      "inputs": [
        {
          "indexed": true,
          "internalType": "uint256",
          "name": "docId",
          "type": "uint256"
        },
        {
          "indexed": true,
          "internalType": "address",
          "name": "signer",
          "type": "address"
        },
        {
          "indexed": false,
          "internalType": "uint256",
          "name": "signedAt",
          "type": "uint256"
        }
      ],
      "name": "DocumentSigned",
      "type": "event"
    },
    {
      "anonymous": false,
      "inputs": [
        {
          "indexed": true,
          "internalType": "address",
          "name": "user",
          "type": "address"
        },
        {
          "indexed": false,
          "internalType": "string",
          "name": "firstName",
          "type": "string"
        },
        {
          "indexed": false,
          "internalType": "string",
          "name": "familyName",
          "type": "string"
        },
        {
          "indexed": false,
          "internalType": "string",
          "name": "email",
          "type": "string"
        },
        {
          "indexed": false,
          "internalType": "uint256",
          "name": "dob",
          "type": "uint256"
        }
      ],
      "name": "UserRegistered",
      "type": "event"
    },
    {
      "inputs": [
        {
          "internalType": "uint256",
          "name": "_docId",
          "type": "uint256"
        },
        {
          "internalType": "string",
          "name": "_newIpfsHash",
          "type": "string"
        },
        {
          "internalType": "uint256",
          "name": "_newExpiry",
          "type": "uint256"
        }
      ],
      "name": "amendDocument",
      "outputs": [],
      "stateMutability": "nonpayable",
      "type": "function"
    },
    {
      "inputs": [
        {
          "internalType": "string",
          "name": "_ipfsHash",
          "type": "string"
        },
        {
          "internalType": "address[]",
          "name": "_signers",
          "type": "address[]"
        },
        {
          "internalType": "uint256",
          "name": "_expiry",
          "type": "uint256"
        }
      ],
      "name": "createDocument",
      "outputs": [
        {
          "internalType": "uint256",
          "name": "",
          "type": "uint256"
        }
      ],
      "stateMutability": "nonpayable",
      "type": "function"
    },
    {
      "inputs": [],
      "name": "documentCount",
      "outputs": [
        {
          "internalType": "uint256",
          "name": "",
          "type": "uint256"
        }
      ],
      "stateMutability": "view",
      "type": "function"
    },
    {
      "inputs": [
        {
          "internalType": "uint256",
          "name": "_docId",
          "type": "uint256"
        }
      ],
      "name": "getCurrentSigner",
      "outputs": [
        {
          "internalType": "address",
          "name": "",
          "type": "address"
        }
      ],
      "stateMutability": "view",
      "type": "function"
    },
    {
      "inputs": [
        {
          "internalType": "uint256",
          "name": "_docId",
          "type": "uint256"
        }
      ],
      "name": "getDocument",
      "outputs": [
        {
          "internalType": "string",
          "name": "ipfsHash",
          "type": "string"
        },
        {
          "internalType": "address",
          "name": "creator",
          "type": "address"
        },
        {
          "internalType": "address[]",
          "name": "signers",
          "type": "address[]"
        },
        {
          "internalType": "uint256",
          "name": "createdAt",
          "type": "uint256"
        },
        {
          "internalType": "uint256",
          "name": "signatures",
          "type": "uint256"
        },
        {
          "internalType": "bool",
          "name": "fullySigned",
          "type": "bool"
        },
        {
          "internalType": "bool",
          "name": "isRevoked",
          "type": "bool"
        }
      ],
      "stateMutability": "view",
      "type": "function"
    },
    {
      "inputs": [
        {
          "internalType": "uint256",
          "name": "_docId",
          "type": "uint256"
        },
        {
          "internalType": "address",
          "name": "_user",
          "type": "address"
        }
      ],
      "name": "getRole",
      "outputs": [
        {
          "internalType": "enum DocumentSign.Role",
          "name": "",
          "type": "uint8"
        }
      ],
      "stateMutability": "view",
      "type": "function"
    },
    {
      "inputs": [
        {
          "internalType": "uint256",
          "name": "_docId",
          "type": "uint256"
        },
        {
          "internalType": "address",
          "name": "_signer",
          "type": "address"
        }
      ],
      "name": "getSignTimestamp",
      "outputs": [
        {
          "internalType": "uint256",
          "name": "",
          "type": "uint256"
        }
      ],
      "stateMutability": "view",
      "type": "function"
    },
    {
      "inputs": [
        {
          "internalType": "address",
          "name": "user",
          "type": "address"
        }
      ],
      "name": "getUserProfile",
      "outputs": [
        {
          "components": [
            {
              "internalType": "string",
              "name": "firstName",
              "type": "string"
            },
            {
              "internalType": "string",
              "name": "familyName",
              "type": "string"
            },
            {
              "internalType": "string",
              "name": "email",
              "type": "string"
            },
            {
              "internalType": "uint256",
              "name": "dob",
              "type": "uint256"
            },
            {
              "internalType": "bool",
              "name": "isRegistered",
              "type": "bool"
            }
          ],
          "internalType": "struct DocumentSign.UserProfile",
          "name": "",
          "type": "tuple"
        }
      ],
      "stateMutability": "view",
      "type": "function"
    },
    {
      "inputs": [
        {
          "internalType": "uint256",
          "name": "_docId",
          "type": "uint256"
        },
        {
          "internalType": "address",
          "name": "_signer",
          "type": "address"
        }
      ],
      "name": "hasSigned",
      "outputs": [
        {
          "internalType": "bool",
          "name": "",
          "type": "bool"
        }
      ],
      "stateMutability": "view",
      "type": "function"
    },
    {
      "inputs": [
        {
          "internalType": "uint256",
          "name": "_docId",
          "type": "uint256"
        }
      ],
      "name": "isExpired",
      "outputs": [
        {
          "internalType": "bool",
          "name": "",
          "type": "bool"
        }
      ],
      "stateMutability": "view",
      "type": "function"
    },
    {
      "inputs": [
        {
          "internalType": "address",
          "name": "",
          "type": "address"
        }
      ],
      "name": "profiles",
      "outputs": [
        {
          "internalType": "string",
          "name": "firstName",
          "type": "string"
        },
        {
          "internalType": "string",
          "name": "familyName",
          "type": "string"
        },
        {
          "internalType": "string",
          "name": "email",
          "type": "string"
        },
        {
          "internalType": "uint256",
          "name": "dob",
          "type": "uint256"
        },
        {
          "internalType": "bool",
          "name": "isRegistered",
          "type": "bool"
        }
      ],
      "stateMutability": "view",
      "type": "function"
    },
    {
      "inputs": [
        {
          "internalType": "string",
          "name": "firstName",
          "type": "string"
        },
        {
          "internalType": "string",
          "name": "familyName",
          "type": "string"
        },
        {
          "internalType": "string",
          "name": "email",
          "type": "string"
        },
        {
          "internalType": "uint256",
          "name": "dob",
          "type": "uint256"
        }
      ],
      "name": "registerUser",
      "outputs": [],
      "stateMutability": "nonpayable",
      "type": "function"
    },
    {
      "inputs": [
        {
          "internalType": "uint256",
          "name": "_docId",
          "type": "uint256"
        },
        {
          "internalType": "string",
          "name": "_reason",
          "type": "string"
        }
      ],
      "name": "revokeDocument",
      "outputs": [],
      "stateMutability": "nonpayable",
      "type": "function"
    },
    {
      "inputs": [
        {
          "internalType": "uint256",
          "name": "_docId",
          "type": "uint256"
        }
      ],
      "name": "signDocument",
      "outputs": [],
      "stateMutability": "nonpayable",
      "type": "function"
    }
  ],
  "bytecode": "0x608060405234801561001057600080fd5b506132ef806100206000396000f3fe608060405234801561001057600080fd5b50600436106100ea5760003560e01c8063a5b16b2e1161008c578063cb56182411610066578063cb5618241461028b578063d0e2a019146102bb578063d9548e53146102d7578063e0cd77b014610307576100ea565b8063a5b16b2e1461021d578063bbe156271461023b578063c2a6ebfb1461026f576100ea565b806363a50d50116100c857806363a50d5014610171578063709df8d91461018d57806393552a3d146101bd578063987ee156146101ed576100ea565b806311b2806b146100ef5780631b1ab53d1461010b5780633f9b250a1461013b575b600080fd5b61010960048036038101906101049190611f9f565b610337565b005b610125600480360381019061012091906120b8565b6104f9565b6040516101329190612107565b60405180910390f35b61015560048036038101906101509190612122565b610556565b60405161016897969594939291906122b6565b60405180910390f35b61018b60048036038101906101869190612122565b61080a565b005b6101a760048036038101906101a291906120b8565b610c5f565b6040516101b49190612333565b60405180910390f35b6101d760048036038101906101d291906120b8565b610cc9565b6040516101e491906123c5565b60405180910390f35b610207600480360381019061020291906123e0565b610d95565b60405161021491906124f9565b60405180910390f35b610225611058565b6040516102329190612107565b60405180910390f35b610255600480360381019061025091906123e0565b61105e565b60405161026695949392919061251b565b60405180910390f35b61028960048036038101906102849190612583565b611239565b005b6102a560048036038101906102a091906126ba565b611632565b6040516102b29190612107565b60405180910390f35b6102d560048036038101906102d09190612745565b611abc565b005b6102f160048036038101906102ec9190612122565b611cd4565b6040516102fe9190612333565b60405180910390f35b610321600480360381019061031c9190612122565b611d0b565b60405161032e91906127a1565b60405180910390f35b600260003373ffffffffffffffffffffffffffffffffffffffff1673ffffffffffffffffffffffffffffffffffffffff16815260200190815260200160002060040160009054906101000a900460ff16156103c7576040517f08c379a00000000000000000000000000000000000000000000000000000000081526004016103be90612808565b60405180910390fd5b6040518060a0016040528085815260200184815260200183815260200182815260200160011515815250600260003373ffffffffffffffffffffffffffffffffffffffff1673ffffffffffffffffffffffffffffffffffffffff16815260200190815260200160002060008201518160000190816104459190612a34565b50602082015181600101908161045b9190612a34565b5060408201518160020190816104719190612a34565b506060820151816003015560808201518160040160006101000a81548160ff0219169083151502179055509050503373ffffffffffffffffffffffffffffffffffffffff167feb909d03a1826538126783a14a06a590245c9e5085337d88971cca5ada6b8099858585856040516104eb9493929190612b06565b60405180910390a250505050565b600080600084815260200190815260200160002060050160008373ffffffffffffffffffffffffffffffffffffffff1673ffffffffffffffffffffffffffffffffffffffff16815260200190815260200160002054905092915050565b60606000606060008060008060008060008a815260200190815260200160002090508060080160019054906101000a900460ff166105c9576040517f08c379a00000000000000000000000000000000000000000000000000000000081526004016105c090612bac565b60405180910390fd5b60006001905060005b8260020180549050811015610690578260040160008460020183815481106105fd576105fc612bcc565b5b9060005260206000200160009054906101000a900473ffffffffffffffffffffffffffffffffffffffff1673ffffffffffffffffffffffffffffffffffffffff1673ffffffffffffffffffffffffffffffffffffffff16815260200190815260200160002060009054906101000a900460ff1661067d5760009150610690565b808061068890612c2a565b9150506105d2565b50816000018260010160009054906101000a900473ffffffffffffffffffffffffffffffffffffffff168360020184600601548560070154858760080160009054906101000a900460ff168680546106e790612857565b80601f016020809104026020016040519081016040528092919081815260200182805461071390612857565b80156107605780601f1061073557610100808354040283529160200191610760565b820191906000526020600020905b81548152906001019060200180831161074357829003601f168201915b50505050509650848054806020026020016040519081016040528092919081815260200182805480156107e857602002820191906000526020600020905b8160009054906101000a900473ffffffffffffffffffffffffffffffffffffffff1673ffffffffffffffffffffffffffffffffffffffff168152602001906001019080831161079e575b5050505050945098509850985098509850985098505050919395979092949650565b8060008082815260200190815260200160002060080160019054906101000a900460ff1661086d576040517f08c379a000000000000000000000000000000000000000000000000000000000815260040161086490612bac565b60405180910390fd5b6002808111156108805761087f61234e565b5b60008083815260200190815260200160002060030160003373ffffffffffffffffffffffffffffffffffffffff1673ffffffffffffffffffffffffffffffffffffffff16815260200190815260200160002060009054906101000a900460ff1660028111156108f2576108f161234e565b5b14610932576040517f08c379a000000000000000000000000000000000000000000000000000000000815260040161092990612cbe565b60405180910390fd5b8160008082815260200190815260200160002060080160009054906101000a900460ff1615610996576040517f08c379a000000000000000000000000000000000000000000000000000000000815260040161098d90612d2a565b60405180910390fd5b600080600085815260200190815260200160002090506109b584611cd4565b156109f5576040517f08c379a00000000000000000000000000000000000000000000000000000000081526004016109ec90612d96565b60405180910390fd5b8060040160003373ffffffffffffffffffffffffffffffffffffffff1673ffffffffffffffffffffffffffffffffffffffff16815260200190815260200160002060009054906101000a900460ff1615610a84576040517f08c379a0000000000000000000000000000000000000000000000000000000008152600401610a7b90612e02565b60405180910390fd5b3373ffffffffffffffffffffffffffffffffffffffff168160020182600a015481548110610ab557610ab4612bcc565b5b9060005260206000200160009054906101000a900473ffffffffffffffffffffffffffffffffffffffff1673ffffffffffffffffffffffffffffffffffffffff1614610b36576040517f08c379a0000000000000000000000000000000000000000000000000000000008152600401610b2d90612e6e565b60405180910390fd5b60018160040160003373ffffffffffffffffffffffffffffffffffffffff1673ffffffffffffffffffffffffffffffffffffffff16815260200190815260200160002060006101000a81548160ff021916908315150217905550428160050160003373ffffffffffffffffffffffffffffffffffffffff1673ffffffffffffffffffffffffffffffffffffffff16815260200190815260200160002081905550806007016000815480929190610beb90612c2a565b919050555080600a016000815480929190610c0590612c2a565b91905055503373ffffffffffffffffffffffffffffffffffffffff16847fe7324c4138a9f505bfe9d1de2fbfe2aef2ef2fee70ea9d93b5b2d348a1bbdd2a42604051610c519190612107565b60405180910390a350505050565b600080600084815260200190815260200160002060040160008373ffffffffffffffffffffffffffffffffffffffff1673ffffffffffffffffffffffffffffffffffffffff16815260200190815260200160002060009054906101000a900460ff16905092915050565b600080600084815260200190815260200160002060080160019054906101000a900460ff16610d2d576040517f08c379a0000000000000000000000000000000000000000000000000000000008152600401610d2490612bac565b60405180910390fd5b60008084815260200190815260200160002060030160008373ffffffffffffffffffffffffffffffffffffffff1673ffffffffffffffffffffffffffffffffffffffff16815260200190815260200160002060009054906101000a900460ff16905092915050565b610d9d611dde565b600260008373ffffffffffffffffffffffffffffffffffffffff1673ffffffffffffffffffffffffffffffffffffffff16815260200190815260200160002060040160009054906101000a900460ff16610e2c576040517f08c379a0000000000000000000000000000000000000000000000000000000008152600401610e2390612eda565b60405180910390fd5b600260008373ffffffffffffffffffffffffffffffffffffffff1673ffffffffffffffffffffffffffffffffffffffff1681526020019081526020016000206040518060a0016040529081600082018054610e8690612857565b80601f0160208091040260200160405190810160405280929190818152602001828054610eb290612857565b8015610eff5780601f10610ed457610100808354040283529160200191610eff565b820191906000526020600020905b815481529060010190602001808311610ee257829003601f168201915b50505050508152602001600182018054610f1890612857565b80601f0160208091040260200160405190810160405280929190818152602001828054610f4490612857565b8015610f915780601f10610f6657610100808354040283529160200191610f91565b820191906000526020600020905b815481529060010190602001808311610f7457829003601f168201915b50505050508152602001600282018054610faa90612857565b80601f0160208091040260200160405190810160405280929190818152602001828054610fd690612857565b80156110235780601f10610ff857610100808354040283529160200191611023565b820191906000526020600020905b81548152906001019060200180831161100657829003601f168201915b50505050508152602001600382015481526020016004820160009054906101000a900460ff1615151515815250509050919050565b60015481565b600260205280600052604060002060009150905080600001805461108190612857565b80601f01602080910402602001604051908101604052809291908181526020018280546110ad90612857565b80156110fa5780601f106110cf576101008083540402835291602001916110fa565b820191906000526020600020905b8154815290600101906020018083116110dd57829003601f168201915b50505050509080600101805461110f90612857565b80601f016020809104026020016040519081016040528092919081815260200182805461113b90612857565b80156111885780601f1061115d57610100808354040283529160200191611188565b820191906000526020600020905b81548152906001019060200180831161116b57829003601f168201915b50505050509080600201805461119d90612857565b80601f01602080910402602001604051908101604052809291908181526020018280546111c990612857565b80156112165780601f106111eb57610100808354040283529160200191611216565b820191906000526020600020905b8154815290600101906020018083116111f957829003601f168201915b5050505050908060030154908060040160009054906101000a900460ff16905085565b8260008082815260200190815260200160002060080160019054906101000a900460ff1661129c576040517f08c379a000000000000000000000000000000000000000000000000000000000815260040161129390612bac565b60405180910390fd5b600160028111156112b0576112af61234e565b5b60008083815260200190815260200160002060030160003373ffffffffffffffffffffffffffffffffffffffff1673ffffffffffffffffffffffffffffffffffffffff16815260200190815260200160002060009054906101000a900460ff1660028111156113225761132161234e565b5b14611362576040517f08c379a000000000000000000000000000000000000000000000000000000000815260040161135990612f46565b60405180910390fd5b8360008082815260200190815260200160002060080160009054906101000a900460ff16156113c6576040517f08c379a00000000000000000000000000000000000000000000000000000000081526004016113bd90612d2a565b60405180910390fd5b600080600087815260200190815260200160002090506113e586611cd4565b15611425576040517f08c379a000000000000000000000000000000000000000000000000000000000815260040161141c90612d96565b60405180910390fd5b60006001905060005b82600201805490508110156114ec5782600401600084600201838154811061145957611458612bcc565b5b9060005260206000200160009054906101000a900473ffffffffffffffffffffffffffffffffffffffff1673ffffffffffffffffffffffffffffffffffffffff1673ffffffffffffffffffffffffffffffffffffffff16815260200190815260200160002060009054906101000a900460ff166114d957600091506114ec565b80806114e490612c2a565b91505061142e565b50801561152e576040517f08c379a000000000000000000000000000000000000000000000000000000000815260040161152590612fd8565b60405180910390fd5b6000865111611572576040517f08c379a000000000000000000000000000000000000000000000000000000000815260040161156990613044565b60405180910390fd5b600085146115c6574285116115bc576040517f08c379a00000000000000000000000000000000000000000000000000000000081526004016115b3906130b0565b60405180910390fd5b8482600901819055505b858260000190816115d79190612a34565b503373ffffffffffffffffffffffffffffffffffffffff16877fd4af573228b33e73cdfacac0a74b920c7b511e2ff826fb63a2e0bb5790b54ebc88426040516116219291906130d0565b60405180910390a350505050505050565b600080845111611677576040517f08c379a000000000000000000000000000000000000000000000000000000000815260040161166e90613044565b60405180910390fd5b60008351116116bb576040517f08c379a00000000000000000000000000000000000000000000000000000000081526004016116b29061314c565b60405180910390fd5b60008214806116c957504282115b611708576040517f08c379a00000000000000000000000000000000000000000000000000000000081526004016116ff906130b0565b60405180910390fd5b6001600081548092919061171b90612c2a565b9190505550600080600060015481526020019081526020016000209050848160000190816117499190612a34565b50338160010160006101000a81548173ffffffffffffffffffffffffffffffffffffffff021916908373ffffffffffffffffffffffffffffffffffffffff16021790555042816006018190555060018160080160016101000a81548160ff02191690831515021790555082816009018190555060018160030160003373ffffffffffffffffffffffffffffffffffffffff1673ffffffffffffffffffffffffffffffffffffffff16815260200190815260200160002060006101000a81548160ff021916908360028111156118215761182061234e565b5b021790555060005b8451811015611a5957600073ffffffffffffffffffffffffffffffffffffffff1685828151811061185d5761185c612bcc565b5b602002602001015173ffffffffffffffffffffffffffffffffffffffff16036118bb576040517f08c379a00000000000000000000000000000000000000000000000000000000081526004016118b2906131b8565b60405180910390fd5b3373ffffffffffffffffffffffffffffffffffffffff168582815181106118e5576118e4612bcc565b5b602002602001015173ffffffffffffffffffffffffffffffffffffffff1603611943576040517f08c379a000000000000000000000000000000000000000000000000000000000815260040161193a90613224565b60405180910390fd5b8160020185828151811061195a57611959612bcc565b5b60200260200101519080600181540180825580915050600190039060005260206000200160009091909190916101000a81548173ffffffffffffffffffffffffffffffffffffffff021916908373ffffffffffffffffffffffffffffffffffffffff16021790555060028260030160008784815181106119dd576119dc612bcc565b5b602002602001015173ffffffffffffffffffffffffffffffffffffffff1673ffffffffffffffffffffffffffffffffffffffff16815260200190815260200160002060006101000a81548160ff02191690836002811115611a4157611a4061234e565b5b02179055508080611a5190612c2a565b915050611829565b503373ffffffffffffffffffffffffffffffffffffffff166001547f0f34f336d6e1cc231d161403dd583f287c90d4e144120937a223d9531afe848c878742604051611aa793929190613244565b60405180910390a36001549150509392505050565b8160008082815260200190815260200160002060080160019054906101000a900460ff16611b1f576040517f08c379a0000000000000000000000000000000000000000000000000000000008152600401611b1690612bac565b60405180910390fd5b60016002811115611b3357611b3261234e565b5b60008083815260200190815260200160002060030160003373ffffffffffffffffffffffffffffffffffffffff1673ffffffffffffffffffffffffffffffffffffffff16815260200190815260200160002060009054906101000a900460ff166002811115611ba557611ba461234e565b5b14611be5576040517f08c379a0000000000000000000000000000000000000000000000000000000008152600401611bdc90612f46565b60405180910390fd5b8260008082815260200190815260200160002060080160009054906101000a900460ff1615611c49576040517f08c379a0000000000000000000000000000000000000000000000000000000008152600401611c4090612d2a565b60405180910390fd5b6000806000868152602001908152602001600020905060018160080160006101000a81548160ff0219169083151502179055503373ffffffffffffffffffffffffffffffffffffffff16857f7a58ff517c00037031f8886d9305cec9b4a44d1c1a04fc2ef4d7a5d7a09eede54287604051611cc5929190613289565b60405180910390a35050505050565b60008060008084815260200190815260200160002090506000816009015414158015611d035750806009015442115b915050919050565b60008060008084815260200190815260200160002090508060080160019054906101000a900460ff16611d73576040517f08c379a0000000000000000000000000000000000000000000000000000000008152600401611d6a90612bac565b60405180910390fd5b806002018054905081600a01541015611dd3578060020181600a015481548110611da057611d9f612bcc565b5b9060005260206000200160009054906101000a900473ffffffffffffffffffffffffffffffffffffffff16915050611dd9565b60009150505b919050565b6040518060a00160405280606081526020016060815260200160608152602001600081526020016000151581525090565b6000604051905090565b600080fd5b600080fd5b600080fd5b600080fd5b6000601f19601f8301169050919050565b7f4e487b7100000000000000000000000000000000000000000000000000000000600052604160045260246000fd5b611e7682611e2d565b810181811067ffffffffffffffff82111715611e9557611e94611e3e565b5b80604052505050565b6000611ea8611e0f565b9050611eb48282611e6d565b919050565b600067ffffffffffffffff821115611ed457611ed3611e3e565b5b611edd82611e2d565b9050602081019050919050565b82818337600083830152505050565b6000611f0c611f0784611eb9565b611e9e565b905082815260208101848484011115611f2857611f27611e28565b5b611f33848285611eea565b509392505050565b600082601f830112611f5057611f4f611e23565b5b8135611f60848260208601611ef9565b91505092915050565b6000819050919050565b611f7c81611f69565b8114611f8757600080fd5b50565b600081359050611f9981611f73565b92915050565b60008060008060808587031215611fb957611fb8611e19565b5b600085013567ffffffffffffffff811115611fd757611fd6611e1e565b5b611fe387828801611f3b565b945050602085013567ffffffffffffffff81111561200457612003611e1e565b5b61201087828801611f3b565b935050604085013567ffffffffffffffff81111561203157612030611e1e565b5b61203d87828801611f3b565b925050606061204e87828801611f8a565b91505092959194509250565b600073ffffffffffffffffffffffffffffffffffffffff82169050919050565b60006120858261205a565b9050919050565b6120958161207a565b81146120a057600080fd5b50565b6000813590506120b28161208c565b92915050565b600080604083850312156120cf576120ce611e19565b5b60006120dd85828601611f8a565b92505060206120ee858286016120a3565b9150509250929050565b61210181611f69565b82525050565b600060208201905061211c60008301846120f8565b92915050565b60006020828403121561213857612137611e19565b5b600061214684828501611f8a565b91505092915050565b600081519050919050565b600082825260208201905092915050565b60005b8381101561218957808201518184015260208101905061216e565b60008484015250505050565b60006121a08261214f565b6121aa818561215a565b93506121ba81856020860161216b565b6121c381611e2d565b840191505092915050565b6121d78161207a565b82525050565b600081519050919050565b600082825260208201905092915050565b6000819050602082019050919050565b6122128161207a565b82525050565b60006122248383612209565b60208301905092915050565b6000602082019050919050565b6000612248826121dd565b61225281856121e8565b935061225d836121f9565b8060005b8381101561228e5781516122758882612218565b975061228083612230565b925050600181019050612261565b5085935050505092915050565b60008115159050919050565b6122b08161229b565b82525050565b600060e08201905081810360008301526122d0818a612195565b90506122df60208301896121ce565b81810360408301526122f1818861223d565b905061230060608301876120f8565b61230d60808301866120f8565b61231a60a08301856122a7565b61232760c08301846122a7565b98975050505050505050565b600060208201905061234860008301846122a7565b92915050565b7f4e487b7100000000000000000000000000000000000000000000000000000000600052602160045260246000fd5b6003811061238e5761238d61234e565b5b50565b600081905061239f8261237d565b919050565b60006123af82612391565b9050919050565b6123bf816123a4565b82525050565b60006020820190506123da60008301846123b6565b92915050565b6000602082840312156123f6576123f5611e19565b5b6000612404848285016120a3565b91505092915050565b600082825260208201905092915050565b60006124298261214f565b612433818561240d565b935061244381856020860161216b565b61244c81611e2d565b840191505092915050565b61246081611f69565b82525050565b61246f8161229b565b82525050565b600060a0830160008301518482036000860152612492828261241e565b915050602083015184820360208601526124ac828261241e565b915050604083015184820360408601526124c6828261241e565b91505060608301516124db6060860182612457565b5060808301516124ee6080860182612466565b508091505092915050565b600060208201905081810360008301526125138184612475565b905092915050565b600060a08201905081810360008301526125358188612195565b905081810360208301526125498187612195565b9050818103604083015261255d8186612195565b905061256c60608301856120f8565b61257960808301846122a7565b9695505050505050565b60008060006060848603121561259c5761259b611e19565b5b60006125aa86828701611f8a565b935050602084013567ffffffffffffffff8111156125cb576125ca611e1e565b5b6125d786828701611f3b565b92505060406125e886828701611f8a565b9150509250925092565b600067ffffffffffffffff82111561260d5761260c611e3e565b5b602082029050602081019050919050565b600080fd5b6000612636612631846125f2565b611e9e565b905080838252602082019050602084028301858111156126595761265861261e565b5b835b81811015612682578061266e88826120a3565b84526020840193505060208101905061265b565b5050509392505050565b600082601f8301126126a1576126a0611e23565b5b81356126b1848260208601612623565b91505092915050565b6000806000606084860312156126d3576126d2611e19565b5b600084013567ffffffffffffffff8111156126f1576126f0611e1e565b5b6126fd86828701611f3b565b935050602084013567ffffffffffffffff81111561271e5761271d611e1e565b5b61272a8682870161268c565b925050604061273b86828701611f8a565b9150509250925092565b6000806040838503121561275c5761275b611e19565b5b600061276a85828601611f8a565b925050602083013567ffffffffffffffff81111561278b5761278a611e1e565b5b61279785828601611f3b565b9150509250929050565b60006020820190506127b660008301846121ce565b92915050565b7f416c726561647920726567697374657265640000000000000000000000000000600082015250565b60006127f260128361215a565b91506127fd826127bc565b602082019050919050565b60006020820190508181036000830152612821816127e5565b9050919050565b7f4e487b7100000000000000000000000000000000000000000000000000000000600052602260045260246000fd5b6000600282049050600182168061286f57607f821691505b60208210810361288257612881612828565b5b50919050565b60008190508160005260206000209050919050565b60006020601f8301049050919050565b600082821b905092915050565b6000600883026128ea7fffffffffffffffffffffffffffffffffffffffffffffffffffffffffffffffff826128ad565b6128f486836128ad565b95508019841693508086168417925050509392505050565b6000819050919050565b600061293161292c61292784611f69565b61290c565b611f69565b9050919050565b6000819050919050565b61294b83612916565b61295f61295782612938565b8484546128ba565b825550505050565b600090565b612974612967565b61297f818484612942565b505050565b5b818110156129a35761299860008261296c565b600181019050612985565b5050565b601f8211156129e8576129b981612888565b6129c28461289d565b810160208510156129d1578190505b6129e56129dd8561289d565b830182612984565b50505b505050565b600082821c905092915050565b6000612a0b600019846008026129ed565b1980831691505092915050565b6000612a2483836129fa565b9150826002028217905092915050565b612a3d8261214f565b67ffffffffffffffff811115612a5657612a55611e3e565b5b612a608254612857565b612a6b8282856129a7565b600060209050601f831160018114612a9e5760008415612a8c578287015190505b612a968582612a18565b865550612afe565b601f198416612aac86612888565b60005b82811015612ad457848901518255600182019150602085019450602081019050612aaf565b86831015612af15784890151612aed601f8916826129fa565b8355505b6001600288020188555050505b505050505050565b60006080820190508181036000830152612b208187612195565b90508181036020830152612b348186612195565b90508181036040830152612b488185612195565b9050612b5760608301846120f8565b95945050505050565b7f446f63756d656e7420646f6573206e6f74206578697374000000000000000000600082015250565b6000612b9660178361215a565b9150612ba182612b60565b602082019050919050565b60006020820190508181036000830152612bc581612b89565b9050919050565b7f4e487b7100000000000000000000000000000000000000000000000000000000600052603260045260246000fd5b7f4e487b7100000000000000000000000000000000000000000000000000000000600052601160045260246000fd5b6000612c3582611f69565b91507fffffffffffffffffffffffffffffffffffffffffffffffffffffffffffffffff8203612c6757612c66612bfb565b5b600182019050919050565b7f4e6f7420617574686f72697a6564207369676e65720000000000000000000000600082015250565b6000612ca860158361215a565b9150612cb382612c72565b602082019050919050565b60006020820190508181036000830152612cd781612c9b565b9050919050565b7f446f63756d656e74206973207265766f6b656400000000000000000000000000600082015250565b6000612d1460138361215a565b9150612d1f82612cde565b602082019050919050565b60006020820190508181036000830152612d4381612d07565b9050919050565b7f446f63756d656e74206578706972656400000000000000000000000000000000600082015250565b6000612d8060108361215a565b9150612d8b82612d4a565b602082019050919050565b60006020820190508181036000830152612daf81612d73565b9050919050565b7f416c7265616479207369676e6564000000000000000000000000000000000000600082015250565b6000612dec600e8361215a565b9150612df782612db6565b602082019050919050565b60006020820190508181036000830152612e1b81612ddf565b9050919050565b7f4e6f7420796f7572207475726e20746f207369676e0000000000000000000000600082015250565b6000612e5860158361215a565b9150612e6382612e22565b602082019050919050565b60006020820190508181036000830152612e8781612e4b565b9050919050565b7f55736572206e6f74207265676973746572656400000000000000000000000000600082015250565b6000612ec460138361215a565b9150612ecf82612e8e565b602082019050919050565b60006020820190508181036000830152612ef381612eb7565b9050919050565b7f4e6f7420646f63756d656e74206f776e65720000000000000000000000000000600082015250565b6000612f3060128361215a565b9150612f3b82612efa565b602082019050919050565b60006020820190508181036000830152612f5f81612f23565b9050919050565b7f43616e6e6f7420616d656e642066756c6c79207369676e656420646f63756d6560008201527f6e74000000000000000000000000000000000000000000000000000000000000602082015250565b6000612fc260228361215a565b9150612fcd82612f66565b604082019050919050565b60006020820190508181036000830152612ff181612fb5565b9050919050565b7f4950465320686173682072657175697265640000000000000000000000000000600082015250565b600061302e60128361215a565b915061303982612ff8565b602082019050919050565b6000602082019050818103600083015261305d81613021565b9050919050565b7f457870697279206d75737420626520696e207468652066757475726500000000600082015250565b600061309a601c8361215a565b91506130a582613064565b602082019050919050565b600060208201905081810360008301526130c98161308d565b9050919050565b600060408201905081810360008301526130ea8185612195565b90506130f960208301846120f8565b9392505050565b7f4174206c65617374206f6e65207369676e657220726571756972656400000000600082015250565b6000613136601c8361215a565b915061314182613100565b602082019050919050565b6000602082019050818103600083015261316581613129565b9050919050565b7f496e76616c6964207369676e6572206164647265737300000000000000000000600082015250565b60006131a260168361215a565b91506131ad8261316c565b602082019050919050565b600060208201905081810360008301526131d181613195565b9050919050565b7f4f776e65722063616e6e6f74206265207369676e657200000000000000000000600082015250565b600061320e60168361215a565b9150613219826131d8565b602082019050919050565b6000602082019050818103600083015261323d81613201565b9050919050565b6000606082019050818103600083015261325e8186612195565b90508181036020830152613272818561223d565b905061328160408301846120f8565b949350505050565b600060408201905061329e60008301856120f8565b81810360208301526132b08184612195565b9050939250505056fea26469706673582212203e3040f575aac33a7623ee5381cd5f045776ee89cd664435920fc8b60cb078bf64736f6c63430008150033",
  "linkReferences": {},
  "deployedLinkReferences": {}
}