{
  "_format": "hh-sol-artifact-1",
  "contractName": "DocumentSign",
  "sourceName": "contracts/Docu3.sol",
  "abi": [
    {
      "anonymous": false,
      "inputs": [
        {
          "indexed": true,
          "internalType": "uint256",
          "name": "docId",
          "type": "uint256"
        },
        {
          "indexed": false,
          "internalType": "string",
          "name": "newIpfsHash",
          "type": "string"
        },
        {
          "indexed": true,
          "internalType": "address",
          "name": "editor",
          "type": "address"
        },
        {
          "indexed": false,
          "internalType": "uint256",
          "name": "amendedAt",
          "type": "uint256"
        }
      ],
      "name": "DocumentAmended",
      "type": "event"
    },
    {
      "anonymous": false,
      "inputs": [
        {
          "indexed": true,
          "internalType": "uint256",
          "name": "docId",
          "type": "uint256"
        },
        {
          "indexed": false,
          "internalType": "string",
          "name": "ipfsHash",
          "type": "string"
        },
        {
          "indexed": true,
          "internalType": "address",
          "name": "creator",
          "type": "address"
        },
        {
          "indexed": false,
          "internalType": "address[]",
          "name": "signers",
          "type": "address[]"
        },
        {
          "indexed": false,
          "internalType": "uint256",
          "name": "createdAt",
          "type": "uint256"
        }
      ],
      "name": "DocumentCreated",
      "type": "event"
    },
    {
      "anonymous": false,
      "inputs": [
        {
          "indexed": true,
          "internalType": "uint256",
          "name": "docId",
          "type": "uint256"
        },
        {
          "indexed": false,
          "internalType": "uint256",
          "name": "expiredAt",
          "type": "uint256"
        }
      ],
      "name": "DocumentExpired",
      "type": "event"
    },
    {
      "anonymous": false,
      "inputs": [
        {
          "indexed": true,
          "internalType": "uint256",
          "name": "docId",
          "type": "uint256"
        },
        {
          "indexed": true,
          "internalType": "address",
          "name": "revoker",
          "type": "address"
        },
        {
          "indexed": false,
          "internalType": "uint256",
          "name": "revokedAt",
          "type": "uint256"
        },
        {
          "indexed": false,
          "internalType": "string",
          "name": "reason",
          "type": "string"
        }
      ],
      "name": "DocumentRevoked",
      "type": "event"
    },
    {
      "anonymous": false,
      "inputs": [
        {
          "indexed": true,
          "internalType": "uint256",
          "name": "docId",
          "type": "uint256"
        },
        {
          "indexed": true,
          "internalType": "address",
          "name": "signer",
          "type": "address"
        },
        {
          "indexed": false,
          "internalType": "uint256",
          "name": "signedAt",
          "type": "uint256"
        },
        {
          "indexed": false,
          "internalType": "string",
          "name": "signature",
          "type": "string"
        }
      ],
      "name": "DocumentSigned",
      "type": "event"
    },
    {
      "anonymous": false,
      "inputs": [
        {
          "indexed": true,
          "internalType": "address",
          "name": "user",
          "type": "address"
        },
        {
          "indexed": false,
          "internalType": "string",
          "name": "firstName",
          "type": "string"
        },
        {
          "indexed": false,
          "internalType": "string",
          "name": "familyName",
          "type": "string"
        },
        {
          "indexed": false,
          "internalType": "string",
          "name": "email",
          "type": "string"
        },
        {
          "indexed": false,
          "internalType": "uint256",
          "name": "dob",
          "type": "uint256"
        },
        {
          "indexed": false,
          "internalType": "string",
          "name": "publicKey",
          "type": "string"
        }
      ],
      "name": "UserRegistered",
      "type": "event"
    },
    {
      "inputs": [
        {
          "internalType": "uint256",
          "name": "_docId",
          "type": "uint256"
        },
        {
          "internalType": "string",
          "name": "_newIpfsHash",
          "type": "string"
        },
        {
          "internalType": "uint256",
          "name": "_newExpiry",
          "type": "uint256"
        }
      ],
      "name": "amendDocument",
      "outputs": [],
      "stateMutability": "nonpayable",
      "type": "function"
    },
    {
      "inputs": [
        {
          "internalType": "string",
          "name": "_ipfsHash",
          "type": "string"
        },
        {
          "internalType": "address[]",
          "name": "_signers",
          "type": "address[]"
        },
        {
          "internalType": "uint256",
          "name": "_expiry",
          "type": "uint256"
        }
      ],
      "name": "createDocument",
      "outputs": [
        {
          "internalType": "uint256",
          "name": "",
          "type": "uint256"
        }
      ],
      "stateMutability": "nonpayable",
      "type": "function"
    },
    {
      "inputs": [],
      "name": "documentCount",
      "outputs": [
        {
          "internalType": "uint256",
          "name": "",
          "type": "uint256"
        }
      ],
      "stateMutability": "view",
      "type": "function"
    },
    {
      "inputs": [
        {
          "internalType": "string",
          "name": "",
          "type": "string"
        }
      ],
      "name": "emailToAddress",
      "outputs": [
        {
          "internalType": "address",
          "name": "",
          "type": "address"
        }
      ],
      "stateMutability": "view",
      "type": "function"
    },
    {
      "inputs": [],
      "name": "getAllRegisteredUsers",
      "outputs": [
        {
          "internalType": "address[]",
          "name": "",
          "type": "address[]"
        }
      ],
      "stateMutability": "view",
      "type": "function"
    },
    {
      "inputs": [
        {
          "internalType": "uint256",
          "name": "_docId",
          "type": "uint256"
        }
      ],
      "name": "getCurrentSigner",
      "outputs": [
        {
          "internalType": "address",
          "name": "",
          "type": "address"
        }
      ],
      "stateMutability": "view",
      "type": "function"
    },
    {
      "inputs": [
        {
          "internalType": "uint256",
          "name": "_docId",
          "type": "uint256"
        }
      ],
      "name": "getDocument",
      "outputs": [
        {
          "internalType": "string",
          "name": "ipfsHash",
          "type": "string"
        },
        {
          "internalType": "address",
          "name": "creator",
          "type": "address"
        },
        {
          "internalType": "address[]",
          "name": "signers",
          "type": "address[]"
        },
        {
          "internalType": "uint256",
          "name": "createdAt",
          "type": "uint256"
        },
        {
          "internalType": "uint256",
          "name": "signatureCount",
          "type": "uint256"
        },
        {
          "internalType": "bool",
          "name": "fullySigned",
          "type": "bool"
        },
        {
          "internalType": "bool",
          "name": "isRevoked",
          "type": "bool"
        }
      ],
      "stateMutability": "view",
      "type": "function"
    },
    {
      "inputs": [
        {
          "internalType": "uint256",
          "name": "_docId",
          "type": "uint256"
        }
      ],
      "name": "getDocumentExpiry",
      "outputs": [
        {
          "internalType": "uint256",
          "name": "",
          "type": "uint256"
        }
      ],
      "stateMutability": "view",
      "type": "function"
    },
    {
      "inputs": [
        {
          "internalType": "uint256",
          "name": "_docId",
          "type": "uint256"
        }
      ],
      "name": "getDocumentExpiryInfo",
      "outputs": [
        {
          "internalType": "uint256",
          "name": "expiry",
          "type": "uint256"
        },
        {
          "internalType": "bool",
          "name": "expired",
          "type": "bool"
        },
        {
          "internalType": "uint256",
          "name": "timeUntilExpiry",
          "type": "uint256"
        },
        {
          "internalType": "bool",
          "name": "hasExpiry",
          "type": "bool"
        }
      ],
      "stateMutability": "view",
      "type": "function"
    },
    {
      "inputs": [
        {
          "internalType": "uint256",
          "name": "_docId",
          "type": "uint256"
        },
        {
          "internalType": "address",
          "name": "_user",
          "type": "address"
        }
      ],
      "name": "getRole",
      "outputs": [
        {
          "internalType": "enum DocumentSign.Role",
          "name": "",
          "type": "uint8"
        }
      ],
      "stateMutability": "view",
      "type": "function"
    },
    {
      "inputs": [
        {
          "internalType": "uint256",
          "name": "_docId",
          "type": "uint256"
        },
        {
          "internalType": "address",
          "name": "_signer",
          "type": "address"
        }
      ],
      "name": "getSignTimestamp",
      "outputs": [
        {
          "internalType": "uint256",
          "name": "",
          "type": "uint256"
        }
      ],
      "stateMutability": "view",
      "type": "function"
    },
    {
      "inputs": [
        {
          "internalType": "uint256",
          "name": "_docId",
          "type": "uint256"
        },
        {
          "internalType": "address",
          "name": "_signer",
          "type": "address"
        }
      ],
      "name": "getSignature",
      "outputs": [
        {
          "internalType": "string",
          "name": "",
          "type": "string"
        }
      ],
      "stateMutability": "view",
      "type": "function"
    },
    {
      "inputs": [
        {
          "internalType": "uint256",
          "name": "_docId",
          "type": "uint256"
        },
        {
          "internalType": "address",
          "name": "_signer",
          "type": "address"
        }
      ],
      "name": "getSignatureTransactionHash",
      "outputs": [
        {
          "internalType": "bytes32",
          "name": "",
          "type": "bytes32"
        }
      ],
      "stateMutability": "view",
      "type": "function"
    },
    {
      "inputs": [
        {
          "internalType": "address",
          "name": "user",
          "type": "address"
        }
      ],
      "name": "getUserProfile",
      "outputs": [
        {
          "internalType": "string",
          "name": "firstName",
          "type": "string"
        },
        {
          "internalType": "string",
          "name": "familyName",
          "type": "string"
        },
        {
          "internalType": "string",
          "name": "email",
          "type": "string"
        },
        {
          "internalType": "uint256",
          "name": "dob",
          "type": "uint256"
        },
        {
          "internalType": "bool",
          "name": "isRegistered",
          "type": "bool"
        },
        {
          "internalType": "string",
          "name": "publicKey",
          "type": "string"
        }
      ],
      "stateMutability": "view",
      "type": "function"
    },
    {
      "inputs": [
        {
          "internalType": "uint256",
          "name": "_docId",
          "type": "uint256"
        },
        {
          "internalType": "address",
          "name": "_signer",
          "type": "address"
        }
      ],
      "name": "hasSigned",
      "outputs": [
        {
          "internalType": "bool",
          "name": "",
          "type": "bool"
        }
      ],
      "stateMutability": "view",
      "type": "function"
    },
    {
      "inputs": [
        {
          "internalType": "uint256",
          "name": "_docId",
          "type": "uint256"
        }
      ],
      "name": "isExpired",
      "outputs": [
        {
          "internalType": "bool",
          "name": "",
          "type": "bool"
        }
      ],
      "stateMutability": "view",
      "type": "function"
    },
    {
      "inputs": [
        {
          "internalType": "address",
          "name": "_user",
          "type": "address"
        },
        {
          "internalType": "uint256",
          "name": "_docId",
          "type": "uint256"
        }
      ],
      "name": "isSigner",
      "outputs": [
        {
          "internalType": "bool",
          "name": "",
          "type": "bool"
        }
      ],
      "stateMutability": "view",
      "type": "function"
    },
    {
      "inputs": [
        {
          "internalType": "uint256",
          "name": "_docId",
          "type": "uint256"
        }
      ],
      "name": "isSingleUserDocument",
      "outputs": [
        {
          "internalType": "bool",
          "name": "",
          "type": "bool"
        }
      ],
      "stateMutability": "view",
      "type": "function"
    },
    {
      "inputs": [
        {
          "internalType": "address",
          "name": "",
          "type": "address"
        }
      ],
      "name": "profiles",
      "outputs": [
        {
          "internalType": "string",
          "name": "firstName",
          "type": "string"
        },
        {
          "internalType": "string",
          "name": "familyName",
          "type": "string"
        },
        {
          "internalType": "string",
          "name": "email",
          "type": "string"
        },
        {
          "internalType": "uint256",
          "name": "dob",
          "type": "uint256"
        },
        {
          "internalType": "bool",
          "name": "isRegistered",
          "type": "bool"
        },
        {
          "internalType": "string",
          "name": "publicKey",
          "type": "string"
        }
      ],
      "stateMutability": "view",
      "type": "function"
    },
    {
      "inputs": [
        {
          "internalType": "string",
          "name": "firstName",
          "type": "string"
        },
        {
          "internalType": "string",
          "name": "familyName",
          "type": "string"
        },
        {
          "internalType": "string",
          "name": "email",
          "type": "string"
        },
        {
          "internalType": "uint256",
          "name": "dob",
          "type": "uint256"
        },
        {
          "internalType": "string",
          "name": "publicKey",
          "type": "string"
        }
      ],
      "name": "registerUser",
      "outputs": [],
      "stateMutability": "nonpayable",
      "type": "function"
    },
    {
      "inputs": [
        {
          "internalType": "uint256",
          "name": "",
          "type": "uint256"
        }
      ],
      "name": "registeredUsers",
      "outputs": [
        {
          "internalType": "address",
          "name": "",
          "type": "address"
        }
      ],
      "stateMutability": "view",
      "type": "function"
    },
    {
      "inputs": [
        {
          "internalType": "uint256",
          "name": "_docId",
          "type": "uint256"
        },
        {
          "internalType": "string",
          "name": "_reason",
          "type": "string"
        }
      ],
      "name": "revokeDocument",
      "outputs": [],
      "stateMutability": "nonpayable",
      "type": "function"
    },
    {
      "inputs": [
        {
          "internalType": "uint256",
          "name": "_docId",
          "type": "uint256"
        },
        {
          "internalType": "string",
          "name": "_signature",
          "type": "string"
        }
      ],
      "name": "signDocument",
      "outputs": [],
      "stateMutability": "nonpayable",
      "type": "function"
    },
    {
      "inputs": [
        {
          "internalType": "uint256",
          "name": "_docId",
          "type": "uint256"
        }
      ],
      "name": "signDocumentLegacy",
      "outputs": [],
      "stateMutability": "nonpayable",
      "type": "function"
    },
    {
      "inputs": [
        {
          "internalType": "uint256",
          "name": "_docId",
          "type": "uint256"
        },
        {
          "internalType": "bytes32",
          "name": "_transactionHash",
          "type": "bytes32"
        }
      ],
      "name": "updateSignatureTransactionHash",
      "outputs": [],
      "stateMutability": "nonpayable",
      "type": "function"
    },
    {
      "inputs": [
        {
          "internalType": "uint256",
          "name": "_docId",
          "type": "uint256"
        },
        {
          "internalType": "address",
          "name": "_signer",
          "type": "address"
        },
        {
          "internalType": "bytes32",
          "name": "_documentHash",
          "type": "bytes32"
        },
        {
          "internalType": "bytes",
          "name": "_signature",
          "type": "bytes"
        }
      ],
      "name": "verifySignature",
      "outputs": [
        {
          "internalType": "bool",
          "name": "",
          "type": "bool"
        }
      ],
      "stateMutability": "view",
      "type": "function"
    }
  ],
  "bytecode": "0x608060405234801561001057600080fd5b50614e11806100206000396000f3fe608060405234801561001057600080fd5b506004361061018e5760003560e01c806393552a3d116100de578063c2a6ebfb11610097578063d9548e5311610071578063d9548e531461052a578063dbc7edd41461055a578063e0cd77b01461058a578063ea78dcbf146105ba5761018e565b8063c2a6ebfb146104c2578063cb561824146104de578063d0e2a0191461050e5761018e565b806393552a3d146103be578063987ee156146103ee578063a5b16b2e14610423578063b0cace0614610441578063b3bcd5cf1461045d578063bbe156271461048d5761018e565b80634cac566a1161014b5780635f372d56116101255780635f372d5614610312578063709df8d91461032e5780637259e0f81461035e57806378abeae11461038e5761018e565b80634cac566a146102aa5780634e46a1e8146102c65780635308cfa9146102f65761018e565b80631b1ab53d146101935780631bcb19ab146101c35780631d639b2a146101f657806328d787d914610226578063397388af146102565780633f9b250a14610274575b600080fd5b6101ad60048036038101906101a891906132cb565b6105ea565b6040516101ba919061331a565b60405180910390f35b6101dd60048036038101906101d89190613335565b610647565b6040516101ed949392919061337d565b60405180910390f35b610210600480360381019061020b9190613335565b610715565b60405161021d91906133c2565b60405180910390f35b610240600480360381019061023b9190613559565b61082c565b60405161024d91906133c2565b60405180910390f35b61025e610abc565b60405161026b919061369a565b60405180910390f35b61028e60048036038101906102899190613335565b610b4a565b6040516102a1979695949392919061374a565b60405180910390f35b6102c460048036038101906102bf91906137c7565b610dfe565b005b6102e060048036038101906102db9190613807565b610f5a565b6040516102ed91906133c2565b60405180910390f35b610310600480360381019061030b91906138e8565b6110a2565b005b61032c60048036038101906103279190613335565b61158d565b005b610348600480360381019061034391906132cb565b6119e2565b60405161035591906133c2565b60405180910390f35b61037860048036038101906103739190613335565b611a4c565b6040516103859190613944565b60405180910390f35b6103a860048036038101906103a39190613335565b611a8b565b6040516103b5919061331a565b60405180910390f35b6103d860048036038101906103d391906132cb565b611b0c565b6040516103e591906139d6565b60405180910390f35b610408600480360381019061040391906139f1565b611bd8565b60405161041a96959493929190613a1e565b60405180910390f35b61042b611f21565b604051610438919061331a565b60405180910390f35b61045b60048036038101906104569190613a9b565b611f27565b005b610477600480360381019061047291906132cb565b612275565b6040516104849190613b86565b60405180910390f35b6104a760048036038101906104a291906139f1565b61235a565b6040516104b996959493929190613a1e565b60405180910390f35b6104dc60048036038101906104d79190613ba8565b6125c3565b005b6104f860048036038101906104f39190613cdf565b6129bc565b604051610505919061331a565b60405180910390f35b610528600480360381019061052391906138e8565b612e5b565b005b610544600480360381019061053f9190613335565b613073565b60405161055191906133c2565b60405180910390f35b610574600480360381019061056f91906132cb565b6130aa565b6040516105819190613d79565b60405180910390f35b6105a4600480360381019061059f9190613335565b613107565b6040516105b19190613944565b60405180910390f35b6105d460048036038101906105cf9190613d94565b6131da565b6040516105e19190613944565b60405180910390f35b600080600084815260200190815260200160002060050160008373ffffffffffffffffffffffffffffffffffffffff1673ffffffffffffffffffffffffffffffffffffffff16815260200190815260200160002054905092915050565b6000806000806000806000878152602001908152602001600020905080600a0160019054906101000a900460ff166106b4576040517f08c379a00000000000000000000000000000000000000000000000000000000081526004016106ab90613e29565b60405180910390fd5b6000429050600082600b0154905060008082141580156106d357508183115b905060008083141580156106e5575081155b156106f95783836106f69190613e78565b90505b8282826000861415985098509850985050505050509193509193565b600080600080848152602001908152602001600020905080600a0160019054906101000a900460ff1661077d576040517f08c379a000000000000000000000000000000000000000000000000000000000815260040161077490613e29565b60405180910390fd5b6001816002018054905014801561082457508060010160009054906101000a900473ffffffffffffffffffffffffffffffffffffffff1673ffffffffffffffffffffffffffffffffffffffff16816002016000815481106107e1576107e0613eac565b5b9060005260206000200160009054906101000a900473ffffffffffffffffffffffffffffffffffffffff1673ffffffffffffffffffffffffffffffffffffffff16145b915050919050565b6000806000868152602001908152602001600020600a0160019054906101000a900460ff16610890576040517f08c379a000000000000000000000000000000000000000000000000000000000815260040161088790613e29565b60405180910390fd5b60008086815260200190815260200160002060040160008573ffffffffffffffffffffffffffffffffffffffff1673ffffffffffffffffffffffffffffffffffffffff16815260200190815260200160002060009054906101000a900460ff1661092f576040517f08c379a000000000000000000000000000000000000000000000000000000000815260040161092690613f4d565b60405180910390fd5b6041825114610973576040517f08c379a000000000000000000000000000000000000000000000000000000000815260040161096a90613fb9565b60405180910390fd5b6000836040516020016109869190614051565b60405160208183030381529060405280519060200120905060008060006020860151925060408601519150606086015160001a9050601b8160ff1610156109d757601b816109d49190614084565b90505b601b8160ff1614806109ec5750601c8160ff16145b610a2b576040517f08c379a0000000000000000000000000000000000000000000000000000000008152600401610a2290614105565b60405180910390fd5b600060018583868660405160008152602001604052604051610a509493929190614134565b6020604051602081039080840390855afa158015610a72573d6000803e3d6000fd5b5050506020604051035190508873ffffffffffffffffffffffffffffffffffffffff168173ffffffffffffffffffffffffffffffffffffffff161495505050505050949350505050565b60606003805480602002602001604051908101604052809291908181526020018280548015610b4057602002820191906000526020600020905b8160009054906101000a900473ffffffffffffffffffffffffffffffffffffffff1673ffffffffffffffffffffffffffffffffffffffff1681526020019060010190808311610af6575b5050505050905090565b60606000606060008060008060008060008a8152602001908152602001600020905080600a0160019054906101000a900460ff16610bbd576040517f08c379a0000000000000000000000000000000000000000000000000000000008152600401610bb490613e29565b60405180910390fd5b60006001905060005b8260020180549050811015610c8457826004016000846002018381548110610bf157610bf0613eac565b5b9060005260206000200160009054906101000a900473ffffffffffffffffffffffffffffffffffffffff1673ffffffffffffffffffffffffffffffffffffffff1673ffffffffffffffffffffffffffffffffffffffff16815260200190815260200160002060009054906101000a900460ff16610c715760009150610c84565b8080610c7c90614179565b915050610bc6565b50816000018260010160009054906101000a900473ffffffffffffffffffffffffffffffffffffffff1683600201846008015485600901548587600a0160009054906101000a900460ff16868054610cdb906141f0565b80601f0160208091040260200160405190810160405280929190818152602001828054610d07906141f0565b8015610d545780601f10610d2957610100808354040283529160200191610d54565b820191906000526020600020905b815481529060010190602001808311610d3757829003601f168201915b5050505050965084805480602002602001604051908101604052809291908181526020018280548015610ddc57602002820191906000526020600020905b8160009054906101000a900473ffffffffffffffffffffffffffffffffffffffff1673ffffffffffffffffffffffffffffffffffffffff1681526020019060010190808311610d92575b5050505050945098509850985098509850985098505050919395979092949650565b600080838152602001908152602001600020600a0160019054906101000a900460ff16610e60576040517f08c379a0000000000000000000000000000000000000000000000000000000008152600401610e5790613e29565b60405180910390fd5b60008083815260200190815260200160002060040160003373ffffffffffffffffffffffffffffffffffffffff1673ffffffffffffffffffffffffffffffffffffffff16815260200190815260200160002060009054906101000a900460ff16610eff576040517f08c379a0000000000000000000000000000000000000000000000000000000008152600401610ef690614293565b60405180910390fd5b8060008084815260200190815260200160002060070160003373ffffffffffffffffffffffffffffffffffffffff1673ffffffffffffffffffffffffffffffffffffffff168152602001908152602001600020819055505050565b600080600080848152602001908152602001600020905080600a0160019054906101000a900460ff16610f9157600091505061109c565b8373ffffffffffffffffffffffffffffffffffffffff168160010160009054906101000a900473ffffffffffffffffffffffffffffffffffffffff1673ffffffffffffffffffffffffffffffffffffffff1603610ff257600191505061109c565b60005b8160020180549050811015611095578473ffffffffffffffffffffffffffffffffffffffff1682600201828154811061103157611030613eac565b5b9060005260206000200160009054906101000a900473ffffffffffffffffffffffffffffffffffffffff1673ffffffffffffffffffffffffffffffffffffffff16036110825760019250505061109c565b808061108d90614179565b915050610ff5565b5060009150505b92915050565b81600080828152602001908152602001600020600a0160019054906101000a900460ff16611105576040517f08c379a00000000000000000000000000000000000000000000000000000000081526004016110fc90613e29565b60405180910390fd5b6002808111156111185761111761395f565b5b60008083815260200190815260200160002060030160003373ffffffffffffffffffffffffffffffffffffffff1673ffffffffffffffffffffffffffffffffffffffff16815260200190815260200160002060009054906101000a900460ff16600281111561118a5761118961395f565b5b146111ca576040517f08c379a00000000000000000000000000000000000000000000000000000000081526004016111c1906142ff565b60405180910390fd5b82600080828152602001908152602001600020600a0160009054906101000a900460ff161561122e576040517f08c379a00000000000000000000000000000000000000000000000000000000081526004016112259061436b565b60405180910390fd5b6000806000868152602001908152602001600020905061124d85613073565b1561128d576040517f08c379a0000000000000000000000000000000000000000000000000000000008152600401611284906143d7565b60405180910390fd5b8060040160003373ffffffffffffffffffffffffffffffffffffffff1673ffffffffffffffffffffffffffffffffffffffff16815260200190815260200160002060009054906101000a900460ff161561131c576040517f08c379a000000000000000000000000000000000000000000000000000000000815260040161131390614443565b60405180910390fd5b3373ffffffffffffffffffffffffffffffffffffffff168160020182600c01548154811061134d5761134c613eac565b5b9060005260206000200160009054906101000a900473ffffffffffffffffffffffffffffffffffffffff1673ffffffffffffffffffffffffffffffffffffffff16146113ce576040517f08c379a00000000000000000000000000000000000000000000000000000000081526004016113c5906144af565b60405180910390fd5b6000845111611412576040517f08c379a00000000000000000000000000000000000000000000000000000000081526004016114099061451b565b60405180910390fd5b60018160040160003373ffffffffffffffffffffffffffffffffffffffff1673ffffffffffffffffffffffffffffffffffffffff16815260200190815260200160002060006101000a81548160ff021916908315150217905550428160050160003373ffffffffffffffffffffffffffffffffffffffff1673ffffffffffffffffffffffffffffffffffffffff16815260200190815260200160002081905550838160060160003373ffffffffffffffffffffffffffffffffffffffff1673ffffffffffffffffffffffffffffffffffffffff168152602001908152602001600020908161150091906146e7565b5080600901600081548092919061151690614179565b919050555080600c01600081548092919061153090614179565b91905055503373ffffffffffffffffffffffffffffffffffffffff16857f8c14a9d5f9e05ea3d9142fd74ae9dc73e6214837cd22e0622926450648a81edb428760405161157e9291906147b9565b60405180910390a35050505050565b80600080828152602001908152602001600020600a0160019054906101000a900460ff166115f0576040517f08c379a00000000000000000000000000000000000000000000000000000000081526004016115e790613e29565b60405180910390fd5b6002808111156116035761160261395f565b5b60008083815260200190815260200160002060030160003373ffffffffffffffffffffffffffffffffffffffff1673ffffffffffffffffffffffffffffffffffffffff16815260200190815260200160002060009054906101000a900460ff1660028111156116755761167461395f565b5b146116b5576040517f08c379a00000000000000000000000000000000000000000000000000000000081526004016116ac906142ff565b60405180910390fd5b81600080828152602001908152602001600020600a0160009054906101000a900460ff1615611719576040517f08c379a00000000000000000000000000000000000000000000000000000000081526004016117109061436b565b60405180910390fd5b6000806000858152602001908152602001600020905061173884613073565b15611778576040517f08c379a000000000000000000000000000000000000000000000000000000000815260040161176f906143d7565b60405180910390fd5b8060040160003373ffffffffffffffffffffffffffffffffffffffff1673ffffffffffffffffffffffffffffffffffffffff16815260200190815260200160002060009054906101000a900460ff1615611807576040517f08c379a00000000000000000000000000000000000000000000000000000000081526004016117fe90614443565b60405180910390fd5b3373ffffffffffffffffffffffffffffffffffffffff168160020182600c01548154811061183857611837613eac565b5b9060005260206000200160009054906101000a900473ffffffffffffffffffffffffffffffffffffffff1673ffffffffffffffffffffffffffffffffffffffff16146118b9576040517f08c379a00000000000000000000000000000000000000000000000000000000081526004016118b0906144af565b60405180910390fd5b60018160040160003373ffffffffffffffffffffffffffffffffffffffff1673ffffffffffffffffffffffffffffffffffffffff16815260200190815260200160002060006101000a81548160ff021916908315150217905550428160050160003373ffffffffffffffffffffffffffffffffffffffff1673ffffffffffffffffffffffffffffffffffffffff1681526020019081526020016000208190555080600901600081548092919061196e90614179565b919050555080600c01600081548092919061198890614179565b91905055503373ffffffffffffffffffffffffffffffffffffffff16847f8c14a9d5f9e05ea3d9142fd74ae9dc73e6214837cd22e0622926450648a81edb426040516119d4919061480f565b60405180910390a350505050565b600080600084815260200190815260200160002060040160008373ffffffffffffffffffffffffffffffffffffffff1673ffffffffffffffffffffffffffffffffffffffff16815260200190815260200160002060009054906101000a900460ff16905092915050565b60038181548110611a5c57600080fd5b906000526020600020016000915054906101000a900473ffffffffffffffffffffffffffffffffffffffff1681565b6000806000838152602001908152602001600020600a0160019054906101000a900460ff16611aef576040517f08c379a0000000000000000000000000000000000000000000000000000000008152600401611ae690613e29565b60405180910390fd5b600080838152602001908152602001600020600b01549050919050565b6000806000848152602001908152602001600020600a0160019054906101000a900460ff16611b70576040517f08c379a0000000000000000000000000000000000000000000000000000000008152600401611b6790613e29565b60405180910390fd5b60008084815260200190815260200160002060030160008373ffffffffffffffffffffffffffffffffffffffff1673ffffffffffffffffffffffffffffffffffffffff16815260200190815260200160002060009054906101000a900460ff16905092915050565b60608060606000806060600260008873ffffffffffffffffffffffffffffffffffffffff1673ffffffffffffffffffffffffffffffffffffffff16815260200190815260200160002060040160009054906101000a900460ff16611c71576040517f08c379a0000000000000000000000000000000000000000000000000000000008152600401611c6890614889565b60405180910390fd5b6000600260008973ffffffffffffffffffffffffffffffffffffffff1673ffffffffffffffffffffffffffffffffffffffff168152602001908152602001600020905080600001816001018260020183600301548460040160009054906101000a900460ff1685600501858054611ce7906141f0565b80601f0160208091040260200160405190810160405280929190818152602001828054611d13906141f0565b8015611d605780601f10611d3557610100808354040283529160200191611d60565b820191906000526020600020905b815481529060010190602001808311611d4357829003601f168201915b50505050509550848054611d73906141f0565b80601f0160208091040260200160405190810160405280929190818152602001828054611d9f906141f0565b8015611dec5780601f10611dc157610100808354040283529160200191611dec565b820191906000526020600020905b815481529060010190602001808311611dcf57829003601f168201915b50505050509450838054611dff906141f0565b80601f0160208091040260200160405190810160405280929190818152602001828054611e2b906141f0565b8015611e785780601f10611e4d57610100808354040283529160200191611e78565b820191906000526020600020905b815481529060010190602001808311611e5b57829003601f168201915b50505050509350808054611e8b906141f0565b80601f0160208091040260200160405190810160405280929190818152602001828054611eb7906141f0565b8015611f045780601f10611ed957610100808354040283529160200191611f04565b820191906000526020600020905b815481529060010190602001808311611ee757829003601f168201915b505050505090509650965096509650965096505091939550919395565b60015481565b600260003373ffffffffffffffffffffffffffffffffffffffff1673ffffffffffffffffffffffffffffffffffffffff16815260200190815260200160002060040160009054906101000a900460ff1615611fb7576040517f08c379a0000000000000000000000000000000000000000000000000000000008152600401611fae906148f5565b60405180910390fd5b600073ffffffffffffffffffffffffffffffffffffffff16600484604051611fdf9190614946565b908152602001604051809103902060009054906101000a900473ffffffffffffffffffffffffffffffffffffffff1673ffffffffffffffffffffffffffffffffffffffff1614612064576040517f08c379a000000000000000000000000000000000000000000000000000000000815260040161205b906149a9565b60405180910390fd5b6040518060c0016040528086815260200185815260200184815260200183815260200160011515815260200182815250600260003373ffffffffffffffffffffffffffffffffffffffff1673ffffffffffffffffffffffffffffffffffffffff16815260200190815260200160002060008201518160000190816120e891906146e7565b5060208201518160010190816120fe91906146e7565b50604082015181600201908161211491906146e7565b506060820151816003015560808201518160040160006101000a81548160ff02191690831515021790555060a082015181600501908161215491906146e7565b509050506003339080600181540180825580915050600190039060005260206000200160009091909190916101000a81548173ffffffffffffffffffffffffffffffffffffffff021916908373ffffffffffffffffffffffffffffffffffffffff160217905550336004846040516121cc9190614946565b908152602001604051809103902060006101000a81548173ffffffffffffffffffffffffffffffffffffffff021916908373ffffffffffffffffffffffffffffffffffffffff1602179055503373ffffffffffffffffffffffffffffffffffffffff167f78088310123490d67595b7b0e336cb2e2fc0f7df27ddd8950b8656c84413fb1b86868686866040516122669594939291906149c9565b60405180910390a25050505050565b606060008084815260200190815260200160002060060160008373ffffffffffffffffffffffffffffffffffffffff1673ffffffffffffffffffffffffffffffffffffffff16815260200190815260200160002080546122d4906141f0565b80601f0160208091040260200160405190810160405280929190818152602001828054612300906141f0565b801561234d5780601f106123225761010080835404028352916020019161234d565b820191906000526020600020905b81548152906001019060200180831161233057829003601f168201915b5050505050905092915050565b600260205280600052604060002060009150905080600001805461237d906141f0565b80601f01602080910402602001604051908101604052809291908181526020018280546123a9906141f0565b80156123f65780601f106123cb576101008083540402835291602001916123f6565b820191906000526020600020905b8154815290600101906020018083116123d957829003601f168201915b50505050509080600101805461240b906141f0565b80601f0160208091040260200160405190810160405280929190818152602001828054612437906141f0565b80156124845780601f1061245957610100808354040283529160200191612484565b820191906000526020600020905b81548152906001019060200180831161246757829003601f168201915b505050505090806002018054612499906141f0565b80601f01602080910402602001604051908101604052809291908181526020018280546124c5906141f0565b80156125125780601f106124e757610100808354040283529160200191612512565b820191906000526020600020905b8154815290600101906020018083116124f557829003601f168201915b5050505050908060030154908060040160009054906101000a900460ff1690806005018054612540906141f0565b80601f016020809104026020016040519081016040528092919081815260200182805461256c906141f0565b80156125b95780601f1061258e576101008083540402835291602001916125b9565b820191906000526020600020905b81548152906001019060200180831161259c57829003601f168201915b5050505050905086565b82600080828152602001908152602001600020600a0160019054906101000a900460ff16612626576040517f08c379a000000000000000000000000000000000000000000000000000000000815260040161261d90613e29565b60405180910390fd5b6001600281111561263a5761263961395f565b5b60008083815260200190815260200160002060030160003373ffffffffffffffffffffffffffffffffffffffff1673ffffffffffffffffffffffffffffffffffffffff16815260200190815260200160002060009054906101000a900460ff1660028111156126ac576126ab61395f565b5b146126ec576040517f08c379a00000000000000000000000000000000000000000000000000000000081526004016126e390614a84565b60405180910390fd5b83600080828152602001908152602001600020600a0160009054906101000a900460ff1615612750576040517f08c379a00000000000000000000000000000000000000000000000000000000081526004016127479061436b565b60405180910390fd5b6000806000878152602001908152602001600020905061276f86613073565b156127af576040517f08c379a00000000000000000000000000000000000000000000000000000000081526004016127a6906143d7565b60405180910390fd5b60006001905060005b8260020180549050811015612876578260040160008460020183815481106127e3576127e2613eac565b5b9060005260206000200160009054906101000a900473ffffffffffffffffffffffffffffffffffffffff1673ffffffffffffffffffffffffffffffffffffffff1673ffffffffffffffffffffffffffffffffffffffff16815260200190815260200160002060009054906101000a900460ff166128635760009150612876565b808061286e90614179565b9150506127b8565b5080156128b8576040517f08c379a00000000000000000000000000000000000000000000000000000000081526004016128af90614b16565b60405180910390fd5b60008651116128fc576040517f08c379a00000000000000000000000000000000000000000000000000000000081526004016128f390614b82565b60405180910390fd5b6000851461295057428511612946576040517f08c379a000000000000000000000000000000000000000000000000000000000815260040161293d90614bee565b60405180910390fd5b8482600b01819055505b8582600001908161296191906146e7565b503373ffffffffffffffffffffffffffffffffffffffff16877fd4af573228b33e73cdfacac0a74b920c7b511e2ff826fb63a2e0bb5790b54ebc88426040516129ab929190614c0e565b60405180910390a350505050505050565b600080845111612a01576040517f08c379a00000000000000000000000000000000000000000000000000000000081526004016129f890614b82565b60405180910390fd5b6000821480612a0f57504282115b612a4e576040517f08c379a0000000000000000000000000000000000000000000000000000000008152600401612a4590614bee565b60405180910390fd5b60016000815480929190612a6190614179565b919050555060008060006001548152602001908152602001600020905084816000019081612a8f91906146e7565b50338160010160006101000a81548173ffffffffffffffffffffffffffffffffffffffff021916908373ffffffffffffffffffffffffffffffffffffffff160217905550428160080181905550600181600a0160016101000a81548160ff0219169083151502179055508281600b018190555060018160030160003373ffffffffffffffffffffffffffffffffffffffff1673ffffffffffffffffffffffffffffffffffffffff16815260200190815260200160002060006101000a81548160ff02191690836002811115612b6757612b6661395f565b5b02179055506000845103612c495780600201339080600181540180825580915050600190039060005260206000200160009091909190916101000a81548173ffffffffffffffffffffffffffffffffffffffff021916908373ffffffffffffffffffffffffffffffffffffffff16021790555060028160030160003373ffffffffffffffffffffffffffffffffffffffff1673ffffffffffffffffffffffffffffffffffffffff16815260200190815260200160002060006101000a81548160ff02191690836002811115612c3f57612c3e61395f565b5b0217905550612df6565b60005b8451811015612df457600073ffffffffffffffffffffffffffffffffffffffff16858281518110612c8057612c7f613eac565b5b602002602001015173ffffffffffffffffffffffffffffffffffffffff1603612cde576040517f08c379a0000000000000000000000000000000000000000000000000000000008152600401612cd590614c8a565b60405180910390fd5b81600201858281518110612cf557612cf4613eac565b5b60200260200101519080600181540180825580915050600190039060005260206000200160009091909190916101000a81548173ffffffffffffffffffffffffffffffffffffffff021916908373ffffffffffffffffffffffffffffffffffffffff1602179055506002826003016000878481518110612d7857612d77613eac565b5b602002602001015173ffffffffffffffffffffffffffffffffffffffff1673ffffffffffffffffffffffffffffffffffffffff16815260200190815260200160002060006101000a81548160ff02191690836002811115612ddc57612ddb61395f565b5b02179055508080612dec90614179565b915050612c4c565b505b3373ffffffffffffffffffffffffffffffffffffffff166001547f0f34f336d6e1cc231d161403dd583f287c90d4e144120937a223d9531afe848c878460020142604051612e4693929190614d96565b60405180910390a36001549150509392505050565b81600080828152602001908152602001600020600a0160019054906101000a900460ff16612ebe576040517f08c379a0000000000000000000000000000000000000000000000000000000008152600401612eb590613e29565b60405180910390fd5b60016002811115612ed257612ed161395f565b5b60008083815260200190815260200160002060030160003373ffffffffffffffffffffffffffffffffffffffff1673ffffffffffffffffffffffffffffffffffffffff16815260200190815260200160002060009054906101000a900460ff166002811115612f4457612f4361395f565b5b14612f84576040517f08c379a0000000000000000000000000000000000000000000000000000000008152600401612f7b90614a84565b60405180910390fd5b82600080828152602001908152602001600020600a0160009054906101000a900460ff1615612fe8576040517f08c379a0000000000000000000000000000000000000000000000000000000008152600401612fdf9061436b565b60405180910390fd5b60008060008681526020019081526020016000209050600181600a0160006101000a81548160ff0219169083151502179055503373ffffffffffffffffffffffffffffffffffffffff16857f7a58ff517c00037031f8886d9305cec9b4a44d1c1a04fc2ef4d7a5d7a09eede542876040516130649291906147b9565b60405180910390a35050505050565b6000806000808481526020019081526020016000209050600081600b0154141580156130a2575080600b015442115b915050919050565b600080600084815260200190815260200160002060070160008373ffffffffffffffffffffffffffffffffffffffff1673ffffffffffffffffffffffffffffffffffffffff16815260200190815260200160002054905092915050565b600080600080848152602001908152602001600020905080600a0160019054906101000a900460ff1661316f576040517f08c379a000000000000000000000000000000000000000000000000000000000815260040161316690613e29565b60405180910390fd5b806002018054905081600c015410156131cf578060020181600c01548154811061319c5761319b613eac565b5b9060005260206000200160009054906101000a900473ffffffffffffffffffffffffffffffffffffffff169150506131d5565b60009150505b919050565b6004818051602081018201805184825260208301602085012081835280955050505050506000915054906101000a900473ffffffffffffffffffffffffffffffffffffffff1681565b6000604051905090565b600080fd5b600080fd5b6000819050919050565b61324a81613237565b811461325557600080fd5b50565b60008135905061326781613241565b92915050565b600073ffffffffffffffffffffffffffffffffffffffff82169050919050565b60006132988261326d565b9050919050565b6132a88161328d565b81146132b357600080fd5b50565b6000813590506132c58161329f565b92915050565b600080604083850312156132e2576132e161322d565b5b60006132f085828601613258565b9250506020613301858286016132b6565b9150509250929050565b61331481613237565b82525050565b600060208201905061332f600083018461330b565b92915050565b60006020828403121561334b5761334a61322d565b5b600061335984828501613258565b91505092915050565b60008115159050919050565b61337781613362565b82525050565b6000608082019050613392600083018761330b565b61339f602083018661336e565b6133ac604083018561330b565b6133b9606083018461336e565b95945050505050565b60006020820190506133d7600083018461336e565b92915050565b6000819050919050565b6133f0816133dd565b81146133fb57600080fd5b50565b60008135905061340d816133e7565b92915050565b600080fd5b600080fd5b6000601f19601f8301169050919050565b7f4e487b7100000000000000000000000000000000000000000000000000000000600052604160045260246000fd5b6134668261341d565b810181811067ffffffffffffffff821117156134855761348461342e565b5b80604052505050565b6000613498613223565b90506134a4828261345d565b919050565b600067ffffffffffffffff8211156134c4576134c361342e565b5b6134cd8261341d565b9050602081019050919050565b82818337600083830152505050565b60006134fc6134f7846134a9565b61348e565b90508281526020810184848401111561351857613517613418565b5b6135238482856134da565b509392505050565b600082601f8301126135405761353f613413565b5b81356135508482602086016134e9565b91505092915050565b600080600080608085870312156135735761357261322d565b5b600061358187828801613258565b9450506020613592878288016132b6565b93505060406135a3878288016133fe565b925050606085013567ffffffffffffffff8111156135c4576135c3613232565b5b6135d08782880161352b565b91505092959194509250565b600081519050919050565b600082825260208201905092915050565b6000819050602082019050919050565b6136118161328d565b82525050565b60006136238383613608565b60208301905092915050565b6000602082019050919050565b6000613647826135dc565b61365181856135e7565b935061365c836135f8565b8060005b8381101561368d5781516136748882613617565b975061367f8361362f565b925050600181019050613660565b5085935050505092915050565b600060208201905081810360008301526136b4818461363c565b905092915050565b600081519050919050565b600082825260208201905092915050565b60005b838110156136f65780820151818401526020810190506136db565b60008484015250505050565b600061370d826136bc565b61371781856136c7565b93506137278185602086016136d8565b6137308161341d565b840191505092915050565b6137448161328d565b82525050565b600060e0820190508181036000830152613764818a613702565b9050613773602083018961373b565b8181036040830152613785818861363c565b9050613794606083018761330b565b6137a1608083018661330b565b6137ae60a083018561336e565b6137bb60c083018461336e565b98975050505050505050565b600080604083850312156137de576137dd61322d565b5b60006137ec85828601613258565b92505060206137fd858286016133fe565b9150509250929050565b6000806040838503121561381e5761381d61322d565b5b600061382c858286016132b6565b925050602061383d85828601613258565b9150509250929050565b600067ffffffffffffffff8211156138625761386161342e565b5b61386b8261341d565b9050602081019050919050565b600061388b61388684613847565b61348e565b9050828152602081018484840111156138a7576138a6613418565b5b6138b28482856134da565b509392505050565b600082601f8301126138cf576138ce613413565b5b81356138df848260208601613878565b91505092915050565b600080604083850312156138ff576138fe61322d565b5b600061390d85828601613258565b925050602083013567ffffffffffffffff81111561392e5761392d613232565b5b61393a858286016138ba565b9150509250929050565b6000602082019050613959600083018461373b565b92915050565b7f4e487b7100000000000000000000000000000000000000000000000000000000600052602160045260246000fd5b6003811061399f5761399e61395f565b5b50565b60008190506139b08261398e565b919050565b60006139c0826139a2565b9050919050565b6139d0816139b5565b82525050565b60006020820190506139eb60008301846139c7565b92915050565b600060208284031215613a0757613a0661322d565b5b6000613a15848285016132b6565b91505092915050565b600060c0820190508181036000830152613a388189613702565b90508181036020830152613a4c8188613702565b90508181036040830152613a608187613702565b9050613a6f606083018661330b565b613a7c608083018561336e565b81810360a0830152613a8e8184613702565b9050979650505050505050565b600080600080600060a08688031215613ab757613ab661322d565b5b600086013567ffffffffffffffff811115613ad557613ad4613232565b5b613ae1888289016138ba565b955050602086013567ffffffffffffffff811115613b0257613b01613232565b5b613b0e888289016138ba565b945050604086013567ffffffffffffffff811115613b2f57613b2e613232565b5b613b3b888289016138ba565b9350506060613b4c88828901613258565b925050608086013567ffffffffffffffff811115613b6d57613b6c613232565b5b613b79888289016138ba565b9150509295509295909350565b60006020820190508181036000830152613ba08184613702565b905092915050565b600080600060608486031215613bc157613bc061322d565b5b6000613bcf86828701613258565b935050602084013567ffffffffffffffff811115613bf057613bef613232565b5b613bfc868287016138ba565b9250506040613c0d86828701613258565b9150509250925092565b600067ffffffffffffffff821115613c3257613c3161342e565b5b602082029050602081019050919050565b600080fd5b6000613c5b613c5684613c17565b61348e565b90508083825260208201905060208402830185811115613c7e57613c7d613c43565b5b835b81811015613ca75780613c9388826132b6565b845260208401935050602081019050613c80565b5050509392505050565b600082601f830112613cc657613cc5613413565b5b8135613cd6848260208601613c48565b91505092915050565b600080600060608486031215613cf857613cf761322d565b5b600084013567ffffffffffffffff811115613d1657613d15613232565b5b613d22868287016138ba565b935050602084013567ffffffffffffffff811115613d4357613d42613232565b5b613d4f86828701613cb1565b9250506040613d6086828701613258565b9150509250925092565b613d73816133dd565b82525050565b6000602082019050613d8e6000830184613d6a565b92915050565b600060208284031215613daa57613da961322d565b5b600082013567ffffffffffffffff811115613dc857613dc7613232565b5b613dd4848285016138ba565b91505092915050565b7f446f63756d656e7420646f6573206e6f74206578697374000000000000000000600082015250565b6000613e136017836136c7565b9150613e1e82613ddd565b602082019050919050565b60006020820190508181036000830152613e4281613e06565b9050919050565b7f4e487b7100000000000000000000000000000000000000000000000000000000600052601160045260246000fd5b6000613e8382613237565b9150613e8e83613237565b9250828203905081811115613ea657613ea5613e49565b5b92915050565b7f4e487b7100000000000000000000000000000000000000000000000000000000600052603260045260246000fd5b7f5369676e657220686173206e6f74207369676e6564207468697320646f63756d60008201527f656e740000000000000000000000000000000000000000000000000000000000602082015250565b6000613f376023836136c7565b9150613f4282613edb565b604082019050919050565b60006020820190508181036000830152613f6681613f2a565b9050919050565b7f496e76616c6964207369676e6174757265206c656e6774680000000000000000600082015250565b6000613fa36018836136c7565b9150613fae82613f6d565b602082019050919050565b60006020820190508181036000830152613fd281613f96565b9050919050565b600081905092915050565b7f19457468657265756d205369676e6564204d6573736167653a0a333200000000600082015250565b600061401a601c83613fd9565b915061402582613fe4565b601c82019050919050565b6000819050919050565b61404b614046826133dd565b614030565b82525050565b600061405c8261400d565b9150614068828461403a565b60208201915081905092915050565b600060ff82169050919050565b600061408f82614077565b915061409a83614077565b9250828201905060ff8111156140b3576140b2613e49565b5b92915050565b7f496e76616c6964207369676e6174757265202776272076616c75650000000000600082015250565b60006140ef601b836136c7565b91506140fa826140b9565b602082019050919050565b6000602082019050818103600083015261411e816140e2565b9050919050565b61412e81614077565b82525050565b60006080820190506141496000830187613d6a565b6141566020830186614125565b6141636040830185613d6a565b6141706060830184613d6a565b95945050505050565b600061418482613237565b91507fffffffffffffffffffffffffffffffffffffffffffffffffffffffffffffffff82036141b6576141b5613e49565b5b600182019050919050565b7f4e487b7100000000000000000000000000000000000000000000000000000000600052602260045260246000fd5b6000600282049050600182168061420857607f821691505b60208210810361421b5761421a6141c1565b5b50919050565b7f596f752068617665206e6f74207369676e6564207468697320646f63756d656e60008201527f7400000000000000000000000000000000000000000000000000000000000000602082015250565b600061427d6021836136c7565b915061428882614221565b604082019050919050565b600060208201905081810360008301526142ac81614270565b9050919050565b7f4e6f7420617574686f72697a6564207369676e65720000000000000000000000600082015250565b60006142e96015836136c7565b91506142f4826142b3565b602082019050919050565b60006020820190508181036000830152614318816142dc565b9050919050565b7f446f63756d656e74206973207265766f6b656400000000000000000000000000600082015250565b60006143556013836136c7565b91506143608261431f565b602082019050919050565b6000602082019050818103600083015261438481614348565b9050919050565b7f446f63756d656e74206578706972656400000000000000000000000000000000600082015250565b60006143c16010836136c7565b91506143cc8261438b565b602082019050919050565b600060208201905081810360008301526143f0816143b4565b9050919050565b7f416c7265616479207369676e6564000000000000000000000000000000000000600082015250565b600061442d600e836136c7565b9150614438826143f7565b602082019050919050565b6000602082019050818103600083015261445c81614420565b9050919050565b7f4e6f7420796f7572207475726e20746f207369676e0000000000000000000000600082015250565b60006144996015836136c7565b91506144a482614463565b602082019050919050565b600060208201905081810360008301526144c88161448c565b9050919050565b7f5369676e61747572652072657175697265640000000000000000000000000000600082015250565b60006145056012836136c7565b9150614510826144cf565b602082019050919050565b60006020820190508181036000830152614534816144f8565b9050919050565b60008190508160005260206000209050919050565b60006020601f8301049050919050565b600082821b905092915050565b60006008830261459d7fffffffffffffffffffffffffffffffffffffffffffffffffffffffffffffffff82614560565b6145a78683614560565b95508019841693508086168417925050509392505050565b6000819050919050565b60006145e46145df6145da84613237565b6145bf565b613237565b9050919050565b6000819050919050565b6145fe836145c9565b61461261460a826145eb565b84845461456d565b825550505050565b600090565b61462761461a565b6146328184846145f5565b505050565b5b818110156146565761464b60008261461f565b600181019050614638565b5050565b601f82111561469b5761466c8161453b565b61467584614550565b81016020851015614684578190505b61469861469085614550565b830182614637565b50505b505050565b600082821c905092915050565b60006146be600019846008026146a0565b1980831691505092915050565b60006146d783836146ad565b9150826002028217905092915050565b6146f0826136bc565b67ffffffffffffffff8111156147095761470861342e565b5b61471382546141f0565b61471e82828561465a565b600060209050601f831160018114614751576000841561473f578287015190505b61474985826146cb565b8655506147b1565b601f19841661475f8661453b565b60005b8281101561478757848901518255600182019150602085019450602081019050614762565b868310156147a457848901516147a0601f8916826146ad565b8355505b6001600288020188555050505b505050505050565b60006040820190506147ce600083018561330b565b81810360208301526147e08184613702565b90509392505050565b50565b60006147f96000836136c7565b9150614804826147e9565b600082019050919050565b6000604082019050614824600083018461330b565b8181036020830152614835816147ec565b905092915050565b7f55736572206e6f74207265676973746572656400000000000000000000000000600082015250565b60006148736013836136c7565b915061487e8261483d565b602082019050919050565b600060208201905081810360008301526148a281614866565b9050919050565b7f416c726561647920726567697374657265640000000000000000000000000000600082015250565b60006148df6012836136c7565b91506148ea826148a9565b602082019050919050565b6000602082019050818103600083015261490e816148d2565b9050919050565b6000614920826136bc565b61492a8185613fd9565b935061493a8185602086016136d8565b80840191505092915050565b60006149528284614915565b915081905092915050565b7f456d61696c20616c726561647920726567697374657265640000000000000000600082015250565b60006149936018836136c7565b915061499e8261495d565b602082019050919050565b600060208201905081810360008301526149c281614986565b9050919050565b600060a08201905081810360008301526149e38188613702565b905081810360208301526149f78187613702565b90508181036040830152614a0b8186613702565b9050614a1a606083018561330b565b8181036080830152614a2c8184613702565b90509695505050505050565b7f4e6f7420646f63756d656e74206f776e65720000000000000000000000000000600082015250565b6000614a6e6012836136c7565b9150614a7982614a38565b602082019050919050565b60006020820190508181036000830152614a9d81614a61565b9050919050565b7f43616e6e6f7420616d656e642066756c6c79207369676e656420646f63756d6560008201527f6e74000000000000000000000000000000000000000000000000000000000000602082015250565b6000614b006022836136c7565b9150614b0b82614aa4565b604082019050919050565b60006020820190508181036000830152614b2f81614af3565b9050919050565b7f4950465320686173682072657175697265640000000000000000000000000000600082015250565b6000614b6c6012836136c7565b9150614b7782614b36565b602082019050919050565b60006020820190508181036000830152614b9b81614b5f565b9050919050565b7f457870697279206d75737420626520696e207468652066757475726500000000600082015250565b6000614bd8601c836136c7565b9150614be382614ba2565b602082019050919050565b60006020820190508181036000830152614c0781614bcb565b9050919050565b60006040820190508181036000830152614c288185613702565b9050614c37602083018461330b565b9392505050565b7f496e76616c6964207369676e6572206164647265737300000000000000000000600082015250565b6000614c746016836136c7565b9150614c7f82614c3e565b602082019050919050565b60006020820190508181036000830152614ca381614c67565b9050919050565b600081549050919050565b60008190508160005260206000209050919050565b60008160001c9050919050565b600073ffffffffffffffffffffffffffffffffffffffff82169050919050565b6000614d0a614d0583614cca565b614cd7565b9050919050565b6000614d1d8254614cf7565b9050919050565b6000600182019050919050565b6000614d3c82614caa565b614d4681856135e7565b9350614d5183614cb5565b8060005b83811015614d8957614d6682614d11565b614d708882613617565b9750614d7b83614d24565b925050600181019050614d55565b5085935050505092915050565b60006060820190508181036000830152614db08186613702565b90508181036020830152614dc48185614d31565b9050614dd3604083018461330b565b94935050505056fea2646970667358221220652eab67d825204b2f3d98db83afe6baf4dce9dd94f139ea7c89e6e13d002d0a64736f6c63430008150033",
  "linkReferences": {},
  "deployedLinkReferences": {}
}