{
  "_format": "hh-sol-artifact-1",
  "contractName": "DocumentSign",
  "sourceName": "contracts/Docu3.sol",
  "abi": [
    {
      "anonymous": false,
      "inputs": [
        {
          "indexed": true,
          "internalType": "uint256",
          "name": "docId",
          "type": "uint256"
        },
        {
          "indexed": false,
          "internalType": "string",
          "name": "newIpfsHash",
          "type": "string"
        },
        {
          "indexed": true,
          "internalType": "address",
          "name": "editor",
          "type": "address"
        },
        {
          "indexed": false,
          "internalType": "uint256",
          "name": "amendedAt",
          "type": "uint256"
        }
      ],
      "name": "DocumentAmended",
      "type": "event"
    },
    {
      "anonymous": false,
      "inputs": [
        {
          "indexed": true,
          "internalType": "uint256",
          "name": "docId",
          "type": "uint256"
        },
        {
          "indexed": false,
          "internalType": "string",
          "name": "ipfsHash",
          "type": "string"
        },
        {
          "indexed": true,
          "internalType": "address",
          "name": "creator",
          "type": "address"
        },
        {
          "indexed": false,
          "internalType": "address[]",
          "name": "signers",
          "type": "address[]"
        },
        {
          "indexed": false,
          "internalType": "uint256",
          "name": "createdAt",
          "type": "uint256"
        }
      ],
      "name": "DocumentCreated",
      "type": "event"
    },
    {
      "anonymous": false,
      "inputs": [
        {
          "indexed": true,
          "internalType": "uint256",
          "name": "docId",
          "type": "uint256"
        },
        {
          "indexed": false,
          "internalType": "uint256",
          "name": "expiredAt",
          "type": "uint256"
        }
      ],
      "name": "DocumentExpired",
      "type": "event"
    },
    {
      "anonymous": false,
      "inputs": [
        {
          "indexed": true,
          "internalType": "uint256",
          "name": "docId",
          "type": "uint256"
        },
        {
          "indexed": true,
          "internalType": "address",
          "name": "revoker",
          "type": "address"
        },
        {
          "indexed": false,
          "internalType": "uint256",
          "name": "revokedAt",
          "type": "uint256"
        },
        {
          "indexed": false,
          "internalType": "string",
          "name": "reason",
          "type": "string"
        }
      ],
      "name": "DocumentRevoked",
      "type": "event"
    },
    {
      "anonymous": false,
      "inputs": [
        {
          "indexed": true,
          "internalType": "uint256",
          "name": "docId",
          "type": "uint256"
        },
        {
          "indexed": true,
          "internalType": "address",
          "name": "signer",
          "type": "address"
        },
        {
          "indexed": false,
          "internalType": "uint256",
          "name": "signedAt",
          "type": "uint256"
        }
      ],
      "name": "DocumentSigned",
      "type": "event"
    },
    {
      "anonymous": false,
      "inputs": [
        {
          "indexed": true,
          "internalType": "address",
          "name": "user",
          "type": "address"
        },
        {
          "indexed": false,
          "internalType": "string",
          "name": "firstName",
          "type": "string"
        },
        {
          "indexed": false,
          "internalType": "string",
          "name": "familyName",
          "type": "string"
        },
        {
          "indexed": false,
          "internalType": "string",
          "name": "email",
          "type": "string"
        },
        {
          "indexed": false,
          "internalType": "uint256",
          "name": "dob",
          "type": "uint256"
        },
        {
          "indexed": false,
          "internalType": "string",
          "name": "publicKey",
          "type": "string"
        }
      ],
      "name": "UserRegistered",
      "type": "event"
    },
    {
      "inputs": [
        {
          "internalType": "uint256",
          "name": "_docId",
          "type": "uint256"
        },
        {
          "internalType": "string",
          "name": "_newIpfsHash",
          "type": "string"
        },
        {
          "internalType": "uint256",
          "name": "_newExpiry",
          "type": "uint256"
        }
      ],
      "name": "amendDocument",
      "outputs": [],
      "stateMutability": "nonpayable",
      "type": "function"
    },
    {
      "inputs": [
        {
          "internalType": "string",
          "name": "_ipfsHash",
          "type": "string"
        },
        {
          "internalType": "address[]",
          "name": "_signers",
          "type": "address[]"
        },
        {
          "internalType": "uint256",
          "name": "_expiry",
          "type": "uint256"
        }
      ],
      "name": "createDocument",
      "outputs": [
        {
          "internalType": "uint256",
          "name": "",
          "type": "uint256"
        }
      ],
      "stateMutability": "nonpayable",
      "type": "function"
    },
    {
      "inputs": [],
      "name": "documentCount",
      "outputs": [
        {
          "internalType": "uint256",
          "name": "",
          "type": "uint256"
        }
      ],
      "stateMutability": "view",
      "type": "function"
    },
    {
      "inputs": [],
      "name": "getAllRegisteredUsers",
      "outputs": [
        {
          "internalType": "address[]",
          "name": "",
          "type": "address[]"
        }
      ],
      "stateMutability": "view",
      "type": "function"
    },
    {
      "inputs": [
        {
          "internalType": "uint256",
          "name": "_docId",
          "type": "uint256"
        }
      ],
      "name": "getCurrentSigner",
      "outputs": [
        {
          "internalType": "address",
          "name": "",
          "type": "address"
        }
      ],
      "stateMutability": "view",
      "type": "function"
    },
    {
      "inputs": [
        {
          "internalType": "uint256",
          "name": "_docId",
          "type": "uint256"
        }
      ],
      "name": "getDocument",
      "outputs": [
        {
          "internalType": "string",
          "name": "ipfsHash",
          "type": "string"
        },
        {
          "internalType": "address",
          "name": "creator",
          "type": "address"
        },
        {
          "internalType": "address[]",
          "name": "signers",
          "type": "address[]"
        },
        {
          "internalType": "uint256",
          "name": "createdAt",
          "type": "uint256"
        },
        {
          "internalType": "uint256",
          "name": "signatures",
          "type": "uint256"
        },
        {
          "internalType": "bool",
          "name": "fullySigned",
          "type": "bool"
        },
        {
          "internalType": "bool",
          "name": "isRevoked",
          "type": "bool"
        }
      ],
      "stateMutability": "view",
      "type": "function"
    },
    {
      "inputs": [
        {
          "internalType": "uint256",
          "name": "_docId",
          "type": "uint256"
        },
        {
          "internalType": "address",
          "name": "_user",
          "type": "address"
        }
      ],
      "name": "getRole",
      "outputs": [
        {
          "internalType": "enum DocumentSign.Role",
          "name": "",
          "type": "uint8"
        }
      ],
      "stateMutability": "view",
      "type": "function"
    },
    {
      "inputs": [
        {
          "internalType": "uint256",
          "name": "_docId",
          "type": "uint256"
        },
        {
          "internalType": "address",
          "name": "_signer",
          "type": "address"
        }
      ],
      "name": "getSignTimestamp",
      "outputs": [
        {
          "internalType": "uint256",
          "name": "",
          "type": "uint256"
        }
      ],
      "stateMutability": "view",
      "type": "function"
    },
    {
      "inputs": [
        {
          "internalType": "address",
          "name": "user",
          "type": "address"
        }
      ],
      "name": "getUserProfile",
      "outputs": [
        {
          "internalType": "string",
          "name": "firstName",
          "type": "string"
        },
        {
          "internalType": "string",
          "name": "familyName",
          "type": "string"
        },
        {
          "internalType": "string",
          "name": "email",
          "type": "string"
        },
        {
          "internalType": "uint256",
          "name": "dob",
          "type": "uint256"
        },
        {
          "internalType": "bool",
          "name": "isRegistered",
          "type": "bool"
        },
        {
          "internalType": "string",
          "name": "publicKey",
          "type": "string"
        }
      ],
      "stateMutability": "view",
      "type": "function"
    },
    {
      "inputs": [
        {
          "internalType": "uint256",
          "name": "_docId",
          "type": "uint256"
        },
        {
          "internalType": "address",
          "name": "_signer",
          "type": "address"
        }
      ],
      "name": "hasSigned",
      "outputs": [
        {
          "internalType": "bool",
          "name": "",
          "type": "bool"
        }
      ],
      "stateMutability": "view",
      "type": "function"
    },
    {
      "inputs": [
        {
          "internalType": "uint256",
          "name": "_docId",
          "type": "uint256"
        }
      ],
      "name": "isExpired",
      "outputs": [
        {
          "internalType": "bool",
          "name": "",
          "type": "bool"
        }
      ],
      "stateMutability": "view",
      "type": "function"
    },
    {
      "inputs": [
        {
          "internalType": "address",
          "name": "",
          "type": "address"
        }
      ],
      "name": "profiles",
      "outputs": [
        {
          "internalType": "string",
          "name": "firstName",
          "type": "string"
        },
        {
          "internalType": "string",
          "name": "familyName",
          "type": "string"
        },
        {
          "internalType": "string",
          "name": "email",
          "type": "string"
        },
        {
          "internalType": "uint256",
          "name": "dob",
          "type": "uint256"
        },
        {
          "internalType": "bool",
          "name": "isRegistered",
          "type": "bool"
        },
        {
          "internalType": "string",
          "name": "publicKey",
          "type": "string"
        }
      ],
      "stateMutability": "view",
      "type": "function"
    },
    {
      "inputs": [
        {
          "internalType": "string",
          "name": "firstName",
          "type": "string"
        },
        {
          "internalType": "string",
          "name": "familyName",
          "type": "string"
        },
        {
          "internalType": "string",
          "name": "email",
          "type": "string"
        },
        {
          "internalType": "uint256",
          "name": "dob",
          "type": "uint256"
        },
        {
          "internalType": "string",
          "name": "publicKey",
          "type": "string"
        }
      ],
      "name": "registerUser",
      "outputs": [],
      "stateMutability": "nonpayable",
      "type": "function"
    },
    {
      "inputs": [
        {
          "internalType": "uint256",
          "name": "",
          "type": "uint256"
        }
      ],
      "name": "registeredUsers",
      "outputs": [
        {
          "internalType": "address",
          "name": "",
          "type": "address"
        }
      ],
      "stateMutability": "view",
      "type": "function"
    },
    {
      "inputs": [
        {
          "internalType": "uint256",
          "name": "_docId",
          "type": "uint256"
        },
        {
          "internalType": "string",
          "name": "_reason",
          "type": "string"
        }
      ],
      "name": "revokeDocument",
      "outputs": [],
      "stateMutability": "nonpayable",
      "type": "function"
    },
    {
      "inputs": [
        {
          "internalType": "uint256",
          "name": "_docId",
          "type": "uint256"
        }
      ],
      "name": "signDocument",
      "outputs": [],
      "stateMutability": "nonpayable",
      "type": "function"
    }
  ],
  "bytecode": "0x608060405234801561001057600080fd5b506134f9806100206000396000f3fe608060405234801561001057600080fd5b50600436106101005760003560e01c8063a5b16b2e11610097578063cb56182411610066578063cb561824146102f5578063d0e2a01914610325578063d9548e5314610341578063e0cd77b01461037157610100565b8063a5b16b2e1461026a578063b0cace0614610288578063bbe15627146102a4578063c2a6ebfb146102d957610100565b8063709df8d9116100d3578063709df8d9146101a55780637259e0f8146101d557806393552a3d14610205578063987ee1561461023557610100565b80631b1ab53d14610105578063397388af146101355780633f9b250a1461015357806363a50d5014610189575b600080fd5b61011f600480360381019061011a9190612153565b6103a1565b60405161012c91906121a2565b60405180910390f35b61013d6103fe565b60405161014a919061227b565b60405180910390f35b61016d6004803603810190610168919061229d565b61048c565b6040516101809796959493929190612384565b60405180910390f35b6101a3600480360381019061019e919061229d565b610740565b005b6101bf60048036038101906101ba9190612153565b610b95565b6040516101cc9190612401565b60405180910390f35b6101ef60048036038101906101ea919061229d565b610bff565b6040516101fc919061241c565b60405180910390f35b61021f600480360381019061021a9190612153565b610c3e565b60405161022c91906124ae565b60405180910390f35b61024f600480360381019061024a91906124c9565b610d0a565b604051610261969594939291906124f6565b60405180910390f35b610272611053565b60405161027f91906121a2565b60405180910390f35b6102a2600480360381019061029d91906126a8565b611059565b005b6102be60048036038101906102b991906124c9565b61129d565b6040516102d0969594939291906124f6565b60405180910390f35b6102f360048036038101906102ee9190612793565b611506565b005b61030f600480360381019061030a91906128ca565b6118ff565b60405161031c91906121a2565b60405180910390f35b61033f600480360381019061033a9190612955565b611d89565b005b61035b6004803603810190610356919061229d565b611fa1565b6040516103689190612401565b60405180910390f35b61038b6004803603810190610386919061229d565b611fd8565b604051610398919061241c565b60405180910390f35b600080600084815260200190815260200160002060050160008373ffffffffffffffffffffffffffffffffffffffff1673ffffffffffffffffffffffffffffffffffffffff16815260200190815260200160002054905092915050565b6060600380548060200260200160405190810160405280929190818152602001828054801561048257602002820191906000526020600020905b8160009054906101000a900473ffffffffffffffffffffffffffffffffffffffff1673ffffffffffffffffffffffffffffffffffffffff1681526020019060010190808311610438575b5050505050905090565b60606000606060008060008060008060008a815260200190815260200160002090508060080160019054906101000a900460ff166104ff576040517f08c379a00000000000000000000000000000000000000000000000000000000081526004016104f6906129fd565b60405180910390fd5b60006001905060005b82600201805490508110156105c65782600401600084600201838154811061053357610532612a1d565b5b9060005260206000200160009054906101000a900473ffffffffffffffffffffffffffffffffffffffff1673ffffffffffffffffffffffffffffffffffffffff1673ffffffffffffffffffffffffffffffffffffffff16815260200190815260200160002060009054906101000a900460ff166105b357600091506105c6565b80806105be90612a7b565b915050610508565b50816000018260010160009054906101000a900473ffffffffffffffffffffffffffffffffffffffff168360020184600601548560070154858760080160009054906101000a900460ff1686805461061d90612af2565b80601f016020809104026020016040519081016040528092919081815260200182805461064990612af2565b80156106965780601f1061066b57610100808354040283529160200191610696565b820191906000526020600020905b81548152906001019060200180831161067957829003601f168201915b505050505096508480548060200260200160405190810160405280929190818152602001828054801561071e57602002820191906000526020600020905b8160009054906101000a900473ffffffffffffffffffffffffffffffffffffffff1673ffffffffffffffffffffffffffffffffffffffff16815260200190600101908083116106d4575b5050505050945098509850985098509850985098505050919395979092949650565b8060008082815260200190815260200160002060080160019054906101000a900460ff166107a3576040517f08c379a000000000000000000000000000000000000000000000000000000000815260040161079a906129fd565b60405180910390fd5b6002808111156107b6576107b5612437565b5b60008083815260200190815260200160002060030160003373ffffffffffffffffffffffffffffffffffffffff1673ffffffffffffffffffffffffffffffffffffffff16815260200190815260200160002060009054906101000a900460ff16600281111561082857610827612437565b5b14610868576040517f08c379a000000000000000000000000000000000000000000000000000000000815260040161085f90612b6f565b60405180910390fd5b8160008082815260200190815260200160002060080160009054906101000a900460ff16156108cc576040517f08c379a00000000000000000000000000000000000000000000000000000000081526004016108c390612bdb565b60405180910390fd5b600080600085815260200190815260200160002090506108eb84611fa1565b1561092b576040517f08c379a000000000000000000000000000000000000000000000000000000000815260040161092290612c47565b60405180910390fd5b8060040160003373ffffffffffffffffffffffffffffffffffffffff1673ffffffffffffffffffffffffffffffffffffffff16815260200190815260200160002060009054906101000a900460ff16156109ba576040517f08c379a00000000000000000000000000000000000000000000000000000000081526004016109b190612cb3565b60405180910390fd5b3373ffffffffffffffffffffffffffffffffffffffff168160020182600a0154815481106109eb576109ea612a1d565b5b9060005260206000200160009054906101000a900473ffffffffffffffffffffffffffffffffffffffff1673ffffffffffffffffffffffffffffffffffffffff1614610a6c576040517f08c379a0000000000000000000000000000000000000000000000000000000008152600401610a6390612d1f565b60405180910390fd5b60018160040160003373ffffffffffffffffffffffffffffffffffffffff1673ffffffffffffffffffffffffffffffffffffffff16815260200190815260200160002060006101000a81548160ff021916908315150217905550428160050160003373ffffffffffffffffffffffffffffffffffffffff1673ffffffffffffffffffffffffffffffffffffffff16815260200190815260200160002081905550806007016000815480929190610b2190612a7b565b919050555080600a016000815480929190610b3b90612a7b565b91905055503373ffffffffffffffffffffffffffffffffffffffff16847fe7324c4138a9f505bfe9d1de2fbfe2aef2ef2fee70ea9d93b5b2d348a1bbdd2a42604051610b8791906121a2565b60405180910390a350505050565b600080600084815260200190815260200160002060040160008373ffffffffffffffffffffffffffffffffffffffff1673ffffffffffffffffffffffffffffffffffffffff16815260200190815260200160002060009054906101000a900460ff16905092915050565b60038181548110610c0f57600080fd5b906000526020600020016000915054906101000a900473ffffffffffffffffffffffffffffffffffffffff1681565b600080600084815260200190815260200160002060080160019054906101000a900460ff16610ca2576040517f08c379a0000000000000000000000000000000000000000000000000000000008152600401610c99906129fd565b60405180910390fd5b60008084815260200190815260200160002060030160008373ffffffffffffffffffffffffffffffffffffffff1673ffffffffffffffffffffffffffffffffffffffff16815260200190815260200160002060009054906101000a900460ff16905092915050565b60608060606000806060600260008873ffffffffffffffffffffffffffffffffffffffff1673ffffffffffffffffffffffffffffffffffffffff16815260200190815260200160002060040160009054906101000a900460ff16610da3576040517f08c379a0000000000000000000000000000000000000000000000000000000008152600401610d9a90612d8b565b60405180910390fd5b6000600260008973ffffffffffffffffffffffffffffffffffffffff1673ffffffffffffffffffffffffffffffffffffffff168152602001908152602001600020905080600001816001018260020183600301548460040160009054906101000a900460ff1685600501858054610e1990612af2565b80601f0160208091040260200160405190810160405280929190818152602001828054610e4590612af2565b8015610e925780601f10610e6757610100808354040283529160200191610e92565b820191906000526020600020905b815481529060010190602001808311610e7557829003601f168201915b50505050509550848054610ea590612af2565b80601f0160208091040260200160405190810160405280929190818152602001828054610ed190612af2565b8015610f1e5780601f10610ef357610100808354040283529160200191610f1e565b820191906000526020600020905b815481529060010190602001808311610f0157829003601f168201915b50505050509450838054610f3190612af2565b80601f0160208091040260200160405190810160405280929190818152602001828054610f5d90612af2565b8015610faa5780601f10610f7f57610100808354040283529160200191610faa565b820191906000526020600020905b815481529060010190602001808311610f8d57829003601f168201915b50505050509350808054610fbd90612af2565b80601f0160208091040260200160405190810160405280929190818152602001828054610fe990612af2565b80156110365780601f1061100b57610100808354040283529160200191611036565b820191906000526020600020905b81548152906001019060200180831161101957829003601f168201915b505050505090509650965096509650965096505091939550919395565b60015481565b600260003373ffffffffffffffffffffffffffffffffffffffff1673ffffffffffffffffffffffffffffffffffffffff16815260200190815260200160002060040160009054906101000a900460ff16156110e9576040517f08c379a00000000000000000000000000000000000000000000000000000000081526004016110e090612df7565b60405180910390fd5b6040518060c0016040528086815260200185815260200184815260200183815260200160011515815260200182815250600260003373ffffffffffffffffffffffffffffffffffffffff1673ffffffffffffffffffffffffffffffffffffffff168152602001908152602001600020600082015181600001908161116d9190612fc3565b5060208201518160010190816111839190612fc3565b5060408201518160020190816111999190612fc3565b506060820151816003015560808201518160040160006101000a81548160ff02191690831515021790555060a08201518160050190816111d99190612fc3565b509050506003339080600181540180825580915050600190039060005260206000200160009091909190916101000a81548173ffffffffffffffffffffffffffffffffffffffff021916908373ffffffffffffffffffffffffffffffffffffffff1602179055503373ffffffffffffffffffffffffffffffffffffffff167f78088310123490d67595b7b0e336cb2e2fc0f7df27ddd8950b8656c84413fb1b868686868660405161128e959493929190613095565b60405180910390a25050505050565b60026020528060005260406000206000915090508060000180546112c090612af2565b80601f01602080910402602001604051908101604052809291908181526020018280546112ec90612af2565b80156113395780601f1061130e57610100808354040283529160200191611339565b820191906000526020600020905b81548152906001019060200180831161131c57829003601f168201915b50505050509080600101805461134e90612af2565b80601f016020809104026020016040519081016040528092919081815260200182805461137a90612af2565b80156113c75780601f1061139c576101008083540402835291602001916113c7565b820191906000526020600020905b8154815290600101906020018083116113aa57829003601f168201915b5050505050908060020180546113dc90612af2565b80601f016020809104026020016040519081016040528092919081815260200182805461140890612af2565b80156114555780601f1061142a57610100808354040283529160200191611455565b820191906000526020600020905b81548152906001019060200180831161143857829003601f168201915b5050505050908060030154908060040160009054906101000a900460ff169080600501805461148390612af2565b80601f01602080910402602001604051908101604052809291908181526020018280546114af90612af2565b80156114fc5780601f106114d1576101008083540402835291602001916114fc565b820191906000526020600020905b8154815290600101906020018083116114df57829003601f168201915b5050505050905086565b8260008082815260200190815260200160002060080160019054906101000a900460ff16611569576040517f08c379a0000000000000000000000000000000000000000000000000000000008152600401611560906129fd565b60405180910390fd5b6001600281111561157d5761157c612437565b5b60008083815260200190815260200160002060030160003373ffffffffffffffffffffffffffffffffffffffff1673ffffffffffffffffffffffffffffffffffffffff16815260200190815260200160002060009054906101000a900460ff1660028111156115ef576115ee612437565b5b1461162f576040517f08c379a000000000000000000000000000000000000000000000000000000000815260040161162690613150565b60405180910390fd5b8360008082815260200190815260200160002060080160009054906101000a900460ff1615611693576040517f08c379a000000000000000000000000000000000000000000000000000000000815260040161168a90612bdb565b60405180910390fd5b600080600087815260200190815260200160002090506116b286611fa1565b156116f2576040517f08c379a00000000000000000000000000000000000000000000000000000000081526004016116e990612c47565b60405180910390fd5b60006001905060005b82600201805490508110156117b95782600401600084600201838154811061172657611725612a1d565b5b9060005260206000200160009054906101000a900473ffffffffffffffffffffffffffffffffffffffff1673ffffffffffffffffffffffffffffffffffffffff1673ffffffffffffffffffffffffffffffffffffffff16815260200190815260200160002060009054906101000a900460ff166117a657600091506117b9565b80806117b190612a7b565b9150506116fb565b5080156117fb576040517f08c379a00000000000000000000000000000000000000000000000000000000081526004016117f2906131e2565b60405180910390fd5b600086511161183f576040517f08c379a00000000000000000000000000000000000000000000000000000000081526004016118369061324e565b60405180910390fd5b6000851461189357428511611889576040517f08c379a0000000000000000000000000000000000000000000000000000000008152600401611880906132ba565b60405180910390fd5b8482600901819055505b858260000190816118a49190612fc3565b503373ffffffffffffffffffffffffffffffffffffffff16877fd4af573228b33e73cdfacac0a74b920c7b511e2ff826fb63a2e0bb5790b54ebc88426040516118ee9291906132da565b60405180910390a350505050505050565b600080845111611944576040517f08c379a000000000000000000000000000000000000000000000000000000000815260040161193b9061324e565b60405180910390fd5b6000835111611988576040517f08c379a000000000000000000000000000000000000000000000000000000000815260040161197f90613356565b60405180910390fd5b600082148061199657504282115b6119d5576040517f08c379a00000000000000000000000000000000000000000000000000000000081526004016119cc906132ba565b60405180910390fd5b600160008154809291906119e890612a7b565b919050555060008060006001548152602001908152602001600020905084816000019081611a169190612fc3565b50338160010160006101000a81548173ffffffffffffffffffffffffffffffffffffffff021916908373ffffffffffffffffffffffffffffffffffffffff16021790555042816006018190555060018160080160016101000a81548160ff02191690831515021790555082816009018190555060018160030160003373ffffffffffffffffffffffffffffffffffffffff1673ffffffffffffffffffffffffffffffffffffffff16815260200190815260200160002060006101000a81548160ff02191690836002811115611aee57611aed612437565b5b021790555060005b8451811015611d2657600073ffffffffffffffffffffffffffffffffffffffff16858281518110611b2a57611b29612a1d565b5b602002602001015173ffffffffffffffffffffffffffffffffffffffff1603611b88576040517f08c379a0000000000000000000000000000000000000000000000000000000008152600401611b7f906133c2565b60405180910390fd5b3373ffffffffffffffffffffffffffffffffffffffff16858281518110611bb257611bb1612a1d565b5b602002602001015173ffffffffffffffffffffffffffffffffffffffff1603611c10576040517f08c379a0000000000000000000000000000000000000000000000000000000008152600401611c079061342e565b60405180910390fd5b81600201858281518110611c2757611c26612a1d565b5b60200260200101519080600181540180825580915050600190039060005260206000200160009091909190916101000a81548173ffffffffffffffffffffffffffffffffffffffff021916908373ffffffffffffffffffffffffffffffffffffffff1602179055506002826003016000878481518110611caa57611ca9612a1d565b5b602002602001015173ffffffffffffffffffffffffffffffffffffffff1673ffffffffffffffffffffffffffffffffffffffff16815260200190815260200160002060006101000a81548160ff02191690836002811115611d0e57611d0d612437565b5b02179055508080611d1e90612a7b565b915050611af6565b503373ffffffffffffffffffffffffffffffffffffffff166001547f0f34f336d6e1cc231d161403dd583f287c90d4e144120937a223d9531afe848c878742604051611d749392919061344e565b60405180910390a36001549150509392505050565b8160008082815260200190815260200160002060080160019054906101000a900460ff16611dec576040517f08c379a0000000000000000000000000000000000000000000000000000000008152600401611de3906129fd565b60405180910390fd5b60016002811115611e0057611dff612437565b5b60008083815260200190815260200160002060030160003373ffffffffffffffffffffffffffffffffffffffff1673ffffffffffffffffffffffffffffffffffffffff16815260200190815260200160002060009054906101000a900460ff166002811115611e7257611e71612437565b5b14611eb2576040517f08c379a0000000000000000000000000000000000000000000000000000000008152600401611ea990613150565b60405180910390fd5b8260008082815260200190815260200160002060080160009054906101000a900460ff1615611f16576040517f08c379a0000000000000000000000000000000000000000000000000000000008152600401611f0d90612bdb565b60405180910390fd5b6000806000868152602001908152602001600020905060018160080160006101000a81548160ff0219169083151502179055503373ffffffffffffffffffffffffffffffffffffffff16857f7a58ff517c00037031f8886d9305cec9b4a44d1c1a04fc2ef4d7a5d7a09eede54287604051611f92929190613493565b60405180910390a35050505050565b60008060008084815260200190815260200160002090506000816009015414158015611fd05750806009015442115b915050919050565b60008060008084815260200190815260200160002090508060080160019054906101000a900460ff16612040576040517f08c379a0000000000000000000000000000000000000000000000000000000008152600401612037906129fd565b60405180910390fd5b806002018054905081600a015410156120a0578060020181600a01548154811061206d5761206c612a1d565b5b9060005260206000200160009054906101000a900473ffffffffffffffffffffffffffffffffffffffff169150506120a6565b60009150505b919050565b6000604051905090565b600080fd5b600080fd5b6000819050919050565b6120d2816120bf565b81146120dd57600080fd5b50565b6000813590506120ef816120c9565b92915050565b600073ffffffffffffffffffffffffffffffffffffffff82169050919050565b6000612120826120f5565b9050919050565b61213081612115565b811461213b57600080fd5b50565b60008135905061214d81612127565b92915050565b6000806040838503121561216a576121696120b5565b5b6000612178858286016120e0565b92505060206121898582860161213e565b9150509250929050565b61219c816120bf565b82525050565b60006020820190506121b76000830184612193565b92915050565b600081519050919050565b600082825260208201905092915050565b6000819050602082019050919050565b6121f281612115565b82525050565b600061220483836121e9565b60208301905092915050565b6000602082019050919050565b6000612228826121bd565b61223281856121c8565b935061223d836121d9565b8060005b8381101561226e57815161225588826121f8565b975061226083612210565b925050600181019050612241565b5085935050505092915050565b60006020820190508181036000830152612295818461221d565b905092915050565b6000602082840312156122b3576122b26120b5565b5b60006122c1848285016120e0565b91505092915050565b600081519050919050565b600082825260208201905092915050565b60005b838110156123045780820151818401526020810190506122e9565b60008484015250505050565b6000601f19601f8301169050919050565b600061232c826122ca565b61233681856122d5565b93506123468185602086016122e6565b61234f81612310565b840191505092915050565b61236381612115565b82525050565b60008115159050919050565b61237e81612369565b82525050565b600060e082019050818103600083015261239e818a612321565b90506123ad602083018961235a565b81810360408301526123bf818861221d565b90506123ce6060830187612193565b6123db6080830186612193565b6123e860a0830185612375565b6123f560c0830184612375565b98975050505050505050565b60006020820190506124166000830184612375565b92915050565b6000602082019050612431600083018461235a565b92915050565b7f4e487b7100000000000000000000000000000000000000000000000000000000600052602160045260246000fd5b6003811061247757612476612437565b5b50565b600081905061248882612466565b919050565b60006124988261247a565b9050919050565b6124a88161248d565b82525050565b60006020820190506124c3600083018461249f565b92915050565b6000602082840312156124df576124de6120b5565b5b60006124ed8482850161213e565b91505092915050565b600060c08201905081810360008301526125108189612321565b905081810360208301526125248188612321565b905081810360408301526125388187612321565b90506125476060830186612193565b6125546080830185612375565b81810360a08301526125668184612321565b9050979650505050505050565b600080fd5b600080fd5b7f4e487b7100000000000000000000000000000000000000000000000000000000600052604160045260246000fd5b6125b582612310565b810181811067ffffffffffffffff821117156125d4576125d361257d565b5b80604052505050565b60006125e76120ab565b90506125f382826125ac565b919050565b600067ffffffffffffffff8211156126135761261261257d565b5b61261c82612310565b9050602081019050919050565b82818337600083830152505050565b600061264b612646846125f8565b6125dd565b90508281526020810184848401111561266757612666612578565b5b612672848285612629565b509392505050565b600082601f83011261268f5761268e612573565b5b813561269f848260208601612638565b91505092915050565b600080600080600060a086880312156126c4576126c36120b5565b5b600086013567ffffffffffffffff8111156126e2576126e16120ba565b5b6126ee8882890161267a565b955050602086013567ffffffffffffffff81111561270f5761270e6120ba565b5b61271b8882890161267a565b945050604086013567ffffffffffffffff81111561273c5761273b6120ba565b5b6127488882890161267a565b9350506060612759888289016120e0565b925050608086013567ffffffffffffffff81111561277a576127796120ba565b5b6127868882890161267a565b9150509295509295909350565b6000806000606084860312156127ac576127ab6120b5565b5b60006127ba868287016120e0565b935050602084013567ffffffffffffffff8111156127db576127da6120ba565b5b6127e78682870161267a565b92505060406127f8868287016120e0565b9150509250925092565b600067ffffffffffffffff82111561281d5761281c61257d565b5b602082029050602081019050919050565b600080fd5b600061284661284184612802565b6125dd565b905080838252602082019050602084028301858111156128695761286861282e565b5b835b81811015612892578061287e888261213e565b84526020840193505060208101905061286b565b5050509392505050565b600082601f8301126128b1576128b0612573565b5b81356128c1848260208601612833565b91505092915050565b6000806000606084860312156128e3576128e26120b5565b5b600084013567ffffffffffffffff811115612901576129006120ba565b5b61290d8682870161267a565b935050602084013567ffffffffffffffff81111561292e5761292d6120ba565b5b61293a8682870161289c565b925050604061294b868287016120e0565b9150509250925092565b6000806040838503121561296c5761296b6120b5565b5b600061297a858286016120e0565b925050602083013567ffffffffffffffff81111561299b5761299a6120ba565b5b6129a78582860161267a565b9150509250929050565b7f446f63756d656e7420646f6573206e6f74206578697374000000000000000000600082015250565b60006129e76017836122d5565b91506129f2826129b1565b602082019050919050565b60006020820190508181036000830152612a16816129da565b9050919050565b7f4e487b7100000000000000000000000000000000000000000000000000000000600052603260045260246000fd5b7f4e487b7100000000000000000000000000000000000000000000000000000000600052601160045260246000fd5b6000612a86826120bf565b91507fffffffffffffffffffffffffffffffffffffffffffffffffffffffffffffffff8203612ab857612ab7612a4c565b5b600182019050919050565b7f4e487b7100000000000000000000000000000000000000000000000000000000600052602260045260246000fd5b60006002820490506001821680612b0a57607f821691505b602082108103612b1d57612b1c612ac3565b5b50919050565b7f4e6f7420617574686f72697a6564207369676e65720000000000000000000000600082015250565b6000612b596015836122d5565b9150612b6482612b23565b602082019050919050565b60006020820190508181036000830152612b8881612b4c565b9050919050565b7f446f63756d656e74206973207265766f6b656400000000000000000000000000600082015250565b6000612bc56013836122d5565b9150612bd082612b8f565b602082019050919050565b60006020820190508181036000830152612bf481612bb8565b9050919050565b7f446f63756d656e74206578706972656400000000000000000000000000000000600082015250565b6000612c316010836122d5565b9150612c3c82612bfb565b602082019050919050565b60006020820190508181036000830152612c6081612c24565b9050919050565b7f416c7265616479207369676e6564000000000000000000000000000000000000600082015250565b6000612c9d600e836122d5565b9150612ca882612c67565b602082019050919050565b60006020820190508181036000830152612ccc81612c90565b9050919050565b7f4e6f7420796f7572207475726e20746f207369676e0000000000000000000000600082015250565b6000612d096015836122d5565b9150612d1482612cd3565b602082019050919050565b60006020820190508181036000830152612d3881612cfc565b9050919050565b7f55736572206e6f74207265676973746572656400000000000000000000000000600082015250565b6000612d756013836122d5565b9150612d8082612d3f565b602082019050919050565b60006020820190508181036000830152612da481612d68565b9050919050565b7f416c726561647920726567697374657265640000000000000000000000000000600082015250565b6000612de16012836122d5565b9150612dec82612dab565b602082019050919050565b60006020820190508181036000830152612e1081612dd4565b9050919050565b60008190508160005260206000209050919050565b60006020601f8301049050919050565b600082821b905092915050565b600060088302612e797fffffffffffffffffffffffffffffffffffffffffffffffffffffffffffffffff82612e3c565b612e838683612e3c565b95508019841693508086168417925050509392505050565b6000819050919050565b6000612ec0612ebb612eb6846120bf565b612e9b565b6120bf565b9050919050565b6000819050919050565b612eda83612ea5565b612eee612ee682612ec7565b848454612e49565b825550505050565b600090565b612f03612ef6565b612f0e818484612ed1565b505050565b5b81811015612f3257612f27600082612efb565b600181019050612f14565b5050565b601f821115612f7757612f4881612e17565b612f5184612e2c565b81016020851015612f60578190505b612f74612f6c85612e2c565b830182612f13565b50505b505050565b600082821c905092915050565b6000612f9a60001984600802612f7c565b1980831691505092915050565b6000612fb38383612f89565b9150826002028217905092915050565b612fcc826122ca565b67ffffffffffffffff811115612fe557612fe461257d565b5b612fef8254612af2565b612ffa828285612f36565b600060209050601f83116001811461302d576000841561301b578287015190505b6130258582612fa7565b86555061308d565b601f19841661303b86612e17565b60005b828110156130635784890151825560018201915060208501945060208101905061303e565b86831015613080578489015161307c601f891682612f89565b8355505b6001600288020188555050505b505050505050565b600060a08201905081810360008301526130af8188612321565b905081810360208301526130c38187612321565b905081810360408301526130d78186612321565b90506130e66060830185612193565b81810360808301526130f88184612321565b90509695505050505050565b7f4e6f7420646f63756d656e74206f776e65720000000000000000000000000000600082015250565b600061313a6012836122d5565b915061314582613104565b602082019050919050565b600060208201905081810360008301526131698161312d565b9050919050565b7f43616e6e6f7420616d656e642066756c6c79207369676e656420646f63756d6560008201527f6e74000000000000000000000000000000000000000000000000000000000000602082015250565b60006131cc6022836122d5565b91506131d782613170565b604082019050919050565b600060208201905081810360008301526131fb816131bf565b9050919050565b7f4950465320686173682072657175697265640000000000000000000000000000600082015250565b60006132386012836122d5565b915061324382613202565b602082019050919050565b600060208201905081810360008301526132678161322b565b9050919050565b7f457870697279206d75737420626520696e207468652066757475726500000000600082015250565b60006132a4601c836122d5565b91506132af8261326e565b602082019050919050565b600060208201905081810360008301526132d381613297565b9050919050565b600060408201905081810360008301526132f48185612321565b90506133036020830184612193565b9392505050565b7f4174206c65617374206f6e65207369676e657220726571756972656400000000600082015250565b6000613340601c836122d5565b915061334b8261330a565b602082019050919050565b6000602082019050818103600083015261336f81613333565b9050919050565b7f496e76616c6964207369676e6572206164647265737300000000000000000000600082015250565b60006133ac6016836122d5565b91506133b782613376565b602082019050919050565b600060208201905081810360008301526133db8161339f565b9050919050565b7f4f776e65722063616e6e6f74206265207369676e657200000000000000000000600082015250565b60006134186016836122d5565b9150613423826133e2565b602082019050919050565b600060208201905081810360008301526134478161340b565b9050919050565b600060608201905081810360008301526134688186612321565b9050818103602083015261347c818561221d565b905061348b6040830184612193565b949350505050565b60006040820190506134a86000830185612193565b81810360208301526134ba8184612321565b9050939250505056fea2646970667358221220e245c14a63d6ea553ae97239b2c50f79036aa50845a21bd3ddd33edb12e4cea564736f6c63430008150033",
  "linkReferences": {},
  "deployedLinkReferences": {}
}