{
  "_format": "hh-sol-artifact-1",
  "contractName": "DocumentSign",
  "sourceName": "contracts/Docu3.sol",
  "abi": [
    {
      "anonymous": false,
      "inputs": [
        {
          "indexed": true,
          "internalType": "uint256",
          "name": "docId",
          "type": "uint256"
        },
        {
          "indexed": false,
          "internalType": "string",
          "name": "newIpfsHash",
          "type": "string"
        },
        {
          "indexed": true,
          "internalType": "address",
          "name": "editor",
          "type": "address"
        },
        {
          "indexed": false,
          "internalType": "uint256",
          "name": "amendedAt",
          "type": "uint256"
        }
      ],
      "name": "DocumentAmended",
      "type": "event"
    },
    {
      "anonymous": false,
      "inputs": [
        {
          "indexed": true,
          "internalType": "uint256",
          "name": "docId",
          "type": "uint256"
        },
        {
          "indexed": false,
          "internalType": "string",
          "name": "ipfsHash",
          "type": "string"
        },
        {
          "indexed": true,
          "internalType": "address",
          "name": "creator",
          "type": "address"
        },
        {
          "indexed": false,
          "internalType": "address[]",
          "name": "signers",
          "type": "address[]"
        },
        {
          "indexed": false,
          "internalType": "uint256",
          "name": "createdAt",
          "type": "uint256"
        }
      ],
      "name": "DocumentCreated",
      "type": "event"
    },
    {
      "anonymous": false,
      "inputs": [
        {
          "indexed": true,
          "internalType": "uint256",
          "name": "docId",
          "type": "uint256"
        },
        {
          "indexed": false,
          "internalType": "uint256",
          "name": "expiredAt",
          "type": "uint256"
        }
      ],
      "name": "DocumentExpired",
      "type": "event"
    },
    {
      "anonymous": false,
      "inputs": [
        {
          "indexed": true,
          "internalType": "uint256",
          "name": "docId",
          "type": "uint256"
        },
        {
          "indexed": true,
          "internalType": "address",
          "name": "revoker",
          "type": "address"
        },
        {
          "indexed": false,
          "internalType": "uint256",
          "name": "revokedAt",
          "type": "uint256"
        },
        {
          "indexed": false,
          "internalType": "string",
          "name": "reason",
          "type": "string"
        }
      ],
      "name": "DocumentRevoked",
      "type": "event"
    },
    {
      "anonymous": false,
      "inputs": [
        {
          "indexed": true,
          "internalType": "uint256",
          "name": "docId",
          "type": "uint256"
        },
        {
          "indexed": true,
          "internalType": "address",
          "name": "signer",
          "type": "address"
        },
        {
          "indexed": false,
          "internalType": "uint256",
          "name": "signedAt",
          "type": "uint256"
        },
        {
          "indexed": false,
          "internalType": "string",
          "name": "signature",
          "type": "string"
        }
      ],
      "name": "DocumentSigned",
      "type": "event"
    },
    {
      "anonymous": false,
      "inputs": [
        {
          "indexed": true,
          "internalType": "address",
          "name": "user",
          "type": "address"
        },
        {
          "indexed": false,
          "internalType": "string",
          "name": "firstName",
          "type": "string"
        },
        {
          "indexed": false,
          "internalType": "string",
          "name": "familyName",
          "type": "string"
        },
        {
          "indexed": false,
          "internalType": "string",
          "name": "email",
          "type": "string"
        },
        {
          "indexed": false,
          "internalType": "uint256",
          "name": "dob",
          "type": "uint256"
        },
        {
          "indexed": false,
          "internalType": "string",
          "name": "publicKey",
          "type": "string"
        }
      ],
      "name": "UserRegistered",
      "type": "event"
    },
    {
      "inputs": [
        {
          "internalType": "uint256",
          "name": "_docId",
          "type": "uint256"
        },
        {
          "internalType": "string",
          "name": "_newIpfsHash",
          "type": "string"
        },
        {
          "internalType": "uint256",
          "name": "_newExpiry",
          "type": "uint256"
        }
      ],
      "name": "amendDocument",
      "outputs": [],
      "stateMutability": "nonpayable",
      "type": "function"
    },
    {
      "inputs": [
        {
          "internalType": "uint256",
          "name": "_docId",
          "type": "uint256"
        },
        {
          "internalType": "string",
          "name": "_newMetadataIpfsHash",
          "type": "string"
        }
      ],
      "name": "amendDocumentMetadata",
      "outputs": [],
      "stateMutability": "nonpayable",
      "type": "function"
    },
    {
      "inputs": [
        {
          "internalType": "string",
          "name": "_ipfsHash",
          "type": "string"
        },
        {
          "internalType": "address[]",
          "name": "_signers",
          "type": "address[]"
        },
        {
          "internalType": "uint256",
          "name": "_expiry",
          "type": "uint256"
        }
      ],
      "name": "createDocument",
      "outputs": [
        {
          "internalType": "uint256",
          "name": "",
          "type": "uint256"
        }
      ],
      "stateMutability": "nonpayable",
      "type": "function"
    },
    {
      "inputs": [],
      "name": "documentCount",
      "outputs": [
        {
          "internalType": "uint256",
          "name": "",
          "type": "uint256"
        }
      ],
      "stateMutability": "view",
      "type": "function"
    },
    {
      "inputs": [
        {
          "internalType": "string",
          "name": "",
          "type": "string"
        }
      ],
      "name": "emailToAddress",
      "outputs": [
        {
          "internalType": "address",
          "name": "",
          "type": "address"
        }
      ],
      "stateMutability": "view",
      "type": "function"
    },
    {
      "inputs": [],
      "name": "getAllRegisteredUsers",
      "outputs": [
        {
          "internalType": "address[]",
          "name": "",
          "type": "address[]"
        }
      ],
      "stateMutability": "view",
      "type": "function"
    },
    {
      "inputs": [
        {
          "internalType": "uint256",
          "name": "_docId",
          "type": "uint256"
        }
      ],
      "name": "getCurrentSigner",
      "outputs": [
        {
          "internalType": "address",
          "name": "",
          "type": "address"
        }
      ],
      "stateMutability": "view",
      "type": "function"
    },
    {
      "inputs": [
        {
          "internalType": "uint256",
          "name": "_docId",
          "type": "uint256"
        }
      ],
      "name": "getDocument",
      "outputs": [
        {
          "internalType": "string",
          "name": "ipfsHash",
          "type": "string"
        },
        {
          "internalType": "address",
          "name": "creator",
          "type": "address"
        },
        {
          "internalType": "address[]",
          "name": "signers",
          "type": "address[]"
        },
        {
          "internalType": "uint256",
          "name": "createdAt",
          "type": "uint256"
        },
        {
          "internalType": "uint256",
          "name": "signatureCount",
          "type": "uint256"
        },
        {
          "internalType": "bool",
          "name": "fullySigned",
          "type": "bool"
        },
        {
          "internalType": "bool",
          "name": "isRevoked",
          "type": "bool"
        }
      ],
      "stateMutability": "view",
      "type": "function"
    },
    {
      "inputs": [
        {
          "internalType": "uint256",
          "name": "_docId",
          "type": "uint256"
        }
      ],
      "name": "getDocumentExpiry",
      "outputs": [
        {
          "internalType": "uint256",
          "name": "",
          "type": "uint256"
        }
      ],
      "stateMutability": "view",
      "type": "function"
    },
    {
      "inputs": [
        {
          "internalType": "uint256",
          "name": "_docId",
          "type": "uint256"
        }
      ],
      "name": "getDocumentExpiryInfo",
      "outputs": [
        {
          "internalType": "uint256",
          "name": "expiry",
          "type": "uint256"
        },
        {
          "internalType": "bool",
          "name": "expired",
          "type": "bool"
        },
        {
          "internalType": "uint256",
          "name": "timeUntilExpiry",
          "type": "uint256"
        },
        {
          "internalType": "bool",
          "name": "hasExpiry",
          "type": "bool"
        }
      ],
      "stateMutability": "view",
      "type": "function"
    },
    {
      "inputs": [
        {
          "internalType": "uint256",
          "name": "_docId",
          "type": "uint256"
        },
        {
          "internalType": "address",
          "name": "_user",
          "type": "address"
        }
      ],
      "name": "getRole",
      "outputs": [
        {
          "internalType": "enum DocumentSign.Role",
          "name": "",
          "type": "uint8"
        }
      ],
      "stateMutability": "view",
      "type": "function"
    },
    {
      "inputs": [
        {
          "internalType": "uint256",
          "name": "_docId",
          "type": "uint256"
        },
        {
          "internalType": "address",
          "name": "_signer",
          "type": "address"
        }
      ],
      "name": "getSignTimestamp",
      "outputs": [
        {
          "internalType": "uint256",
          "name": "",
          "type": "uint256"
        }
      ],
      "stateMutability": "view",
      "type": "function"
    },
    {
      "inputs": [
        {
          "internalType": "uint256",
          "name": "_docId",
          "type": "uint256"
        },
        {
          "internalType": "address",
          "name": "_signer",
          "type": "address"
        }
      ],
      "name": "getSignature",
      "outputs": [
        {
          "internalType": "string",
          "name": "",
          "type": "string"
        }
      ],
      "stateMutability": "view",
      "type": "function"
    },
    {
      "inputs": [
        {
          "internalType": "uint256",
          "name": "_docId",
          "type": "uint256"
        },
        {
          "internalType": "address",
          "name": "_signer",
          "type": "address"
        }
      ],
      "name": "getSignatureTransactionHash",
      "outputs": [
        {
          "internalType": "bytes32",
          "name": "",
          "type": "bytes32"
        }
      ],
      "stateMutability": "view",
      "type": "function"
    },
    {
      "inputs": [
        {
          "internalType": "address",
          "name": "user",
          "type": "address"
        }
      ],
      "name": "getUserProfile",
      "outputs": [
        {
          "internalType": "string",
          "name": "firstName",
          "type": "string"
        },
        {
          "internalType": "string",
          "name": "familyName",
          "type": "string"
        },
        {
          "internalType": "string",
          "name": "email",
          "type": "string"
        },
        {
          "internalType": "uint256",
          "name": "dob",
          "type": "uint256"
        },
        {
          "internalType": "bool",
          "name": "isRegistered",
          "type": "bool"
        },
        {
          "internalType": "string",
          "name": "publicKey",
          "type": "string"
        }
      ],
      "stateMutability": "view",
      "type": "function"
    },
    {
      "inputs": [
        {
          "internalType": "uint256",
          "name": "_docId",
          "type": "uint256"
        },
        {
          "internalType": "address",
          "name": "_signer",
          "type": "address"
        }
      ],
      "name": "hasSigned",
      "outputs": [
        {
          "internalType": "bool",
          "name": "",
          "type": "bool"
        }
      ],
      "stateMutability": "view",
      "type": "function"
    },
    {
      "inputs": [
        {
          "internalType": "uint256",
          "name": "_docId",
          "type": "uint256"
        }
      ],
      "name": "isExpired",
      "outputs": [
        {
          "internalType": "bool",
          "name": "",
          "type": "bool"
        }
      ],
      "stateMutability": "view",
      "type": "function"
    },
    {
      "inputs": [
        {
          "internalType": "address",
          "name": "_user",
          "type": "address"
        },
        {
          "internalType": "uint256",
          "name": "_docId",
          "type": "uint256"
        }
      ],
      "name": "isSigner",
      "outputs": [
        {
          "internalType": "bool",
          "name": "",
          "type": "bool"
        }
      ],
      "stateMutability": "view",
      "type": "function"
    },
    {
      "inputs": [
        {
          "internalType": "uint256",
          "name": "_docId",
          "type": "uint256"
        }
      ],
      "name": "isSingleUserDocument",
      "outputs": [
        {
          "internalType": "bool",
          "name": "",
          "type": "bool"
        }
      ],
      "stateMutability": "view",
      "type": "function"
    },
    {
      "inputs": [
        {
          "internalType": "address",
          "name": "",
          "type": "address"
        }
      ],
      "name": "profiles",
      "outputs": [
        {
          "internalType": "string",
          "name": "firstName",
          "type": "string"
        },
        {
          "internalType": "string",
          "name": "familyName",
          "type": "string"
        },
        {
          "internalType": "string",
          "name": "email",
          "type": "string"
        },
        {
          "internalType": "uint256",
          "name": "dob",
          "type": "uint256"
        },
        {
          "internalType": "bool",
          "name": "isRegistered",
          "type": "bool"
        },
        {
          "internalType": "string",
          "name": "publicKey",
          "type": "string"
        }
      ],
      "stateMutability": "view",
      "type": "function"
    },
    {
      "inputs": [
        {
          "internalType": "string",
          "name": "firstName",
          "type": "string"
        },
        {
          "internalType": "string",
          "name": "familyName",
          "type": "string"
        },
        {
          "internalType": "string",
          "name": "email",
          "type": "string"
        },
        {
          "internalType": "uint256",
          "name": "dob",
          "type": "uint256"
        },
        {
          "internalType": "string",
          "name": "publicKey",
          "type": "string"
        }
      ],
      "name": "registerUser",
      "outputs": [],
      "stateMutability": "nonpayable",
      "type": "function"
    },
    {
      "inputs": [
        {
          "internalType": "uint256",
          "name": "",
          "type": "uint256"
        }
      ],
      "name": "registeredUsers",
      "outputs": [
        {
          "internalType": "address",
          "name": "",
          "type": "address"
        }
      ],
      "stateMutability": "view",
      "type": "function"
    },
    {
      "inputs": [
        {
          "internalType": "uint256",
          "name": "_docId",
          "type": "uint256"
        },
        {
          "internalType": "string",
          "name": "_reason",
          "type": "string"
        }
      ],
      "name": "revokeDocument",
      "outputs": [],
      "stateMutability": "nonpayable",
      "type": "function"
    },
    {
      "inputs": [
        {
          "internalType": "uint256",
          "name": "_docId",
          "type": "uint256"
        },
        {
          "internalType": "string",
          "name": "_signature",
          "type": "string"
        }
      ],
      "name": "signDocument",
      "outputs": [],
      "stateMutability": "nonpayable",
      "type": "function"
    },
    {
      "inputs": [
        {
          "internalType": "uint256",
          "name": "_docId",
          "type": "uint256"
        }
      ],
      "name": "signDocumentLegacy",
      "outputs": [],
      "stateMutability": "nonpayable",
      "type": "function"
    },
    {
      "inputs": [
        {
          "internalType": "uint256",
          "name": "_docId",
          "type": "uint256"
        },
        {
          "internalType": "bytes32",
          "name": "_transactionHash",
          "type": "bytes32"
        }
      ],
      "name": "updateSignatureTransactionHash",
      "outputs": [],
      "stateMutability": "nonpayable",
      "type": "function"
    },
    {
      "inputs": [
        {
          "internalType": "uint256",
          "name": "_docId",
          "type": "uint256"
        },
        {
          "internalType": "address",
          "name": "_signer",
          "type": "address"
        },
        {
          "internalType": "bytes32",
          "name": "_documentHash",
          "type": "bytes32"
        },
        {
          "internalType": "bytes",
          "name": "_signature",
          "type": "bytes"
        }
      ],
      "name": "verifySignature",
      "outputs": [
        {
          "internalType": "bool",
          "name": "",
          "type": "bool"
        }
      ],
      "stateMutability": "view",
      "type": "function"
    }
  ],
  "bytecode": "0x608060405234801561001057600080fd5b50615268806100206000396000f3fe608060405234801561001057600080fd5b50600436106101a95760003560e01c806378abeae1116100f9578063c2a6ebfb11610097578063d9548e5311610071578063d9548e5314610561578063dbc7edd414610591578063e0cd77b0146105c1578063ea78dcbf146105f1576101a9565b8063c2a6ebfb146104f9578063cb56182414610515578063d0e2a01914610545576101a9565b8063a5b16b2e116100d3578063a5b16b2e1461045a578063b0cace0614610478578063b3bcd5cf14610494578063bbe15627146104c4576101a9565b806378abeae1146103c557806393552a3d146103f5578063987ee15614610425576101a9565b80634cac566a116101665780635f372d56116101405780635f372d561461032d578063709df8d91461034957806371532893146103795780637259e0f814610395576101a9565b80634cac566a146102c55780634e46a1e8146102e15780635308cfa914610311576101a9565b80631b1ab53d146101ae5780631bcb19ab146101de5780631d639b2a1461021157806328d787d914610241578063397388af146102715780633f9b250a1461028f575b600080fd5b6101c860048036038101906101c39190613722565b610621565b6040516101d59190613771565b60405180910390f35b6101f860048036038101906101f3919061378c565b61067e565b60405161020894939291906137d4565b60405180910390f35b61022b6004803603810190610226919061378c565b61074c565b6040516102389190613819565b60405180910390f35b61025b600480360381019061025691906139b0565b610863565b6040516102689190613819565b60405180910390f35b610279610af3565b6040516102869190613af1565b60405180910390f35b6102a960048036038101906102a4919061378c565b610b81565b6040516102bc9796959493929190613ba1565b60405180910390f35b6102df60048036038101906102da9190613c1e565b610e35565b005b6102fb60048036038101906102f69190613c5e565b610f91565b6040516103089190613819565b60405180910390f35b61032b60048036038101906103269190613d3f565b6110d9565b005b6103476004803603810190610342919061378c565b611652565b005b610363600480360381019061035e9190613722565b611b35565b6040516103709190613819565b60405180910390f35b610393600480360381019061038e9190613d3f565b611b9f565b005b6103af60048036038101906103aa919061378c565b611e39565b6040516103bc9190613d9b565b60405180910390f35b6103df60048036038101906103da919061378c565b611e78565b6040516103ec9190613771565b60405180910390f35b61040f600480360381019061040a9190613722565b611ef9565b60405161041c9190613e2d565b60405180910390f35b61043f600480360381019061043a9190613e48565b611fc5565b60405161045196959493929190613e75565b60405180910390f35b61046261230e565b60405161046f9190613771565b60405180910390f35b610492600480360381019061048d9190613ef2565b612314565b005b6104ae60048036038101906104a99190613722565b612662565b6040516104bb9190613fdd565b60405180910390f35b6104de60048036038101906104d99190613e48565b612747565b6040516104f096959493929190613e75565b60405180910390f35b610513600480360381019061050e9190613fff565b6129b0565b005b61052f600480360381019061052a9190614136565b612da9565b60405161053c9190613771565b60405180910390f35b61055f600480360381019061055a9190613d3f565b6132b2565b005b61057b6004803603810190610576919061378c565b6134ca565b6040516105889190613819565b60405180910390f35b6105ab60048036038101906105a69190613722565b613501565b6040516105b891906141d0565b60405180910390f35b6105db60048036038101906105d6919061378c565b61355e565b6040516105e89190613d9b565b60405180910390f35b61060b600480360381019061060691906141eb565b613631565b6040516106189190613d9b565b60405180910390f35b600080600084815260200190815260200160002060050160008373ffffffffffffffffffffffffffffffffffffffff1673ffffffffffffffffffffffffffffffffffffffff16815260200190815260200160002054905092915050565b6000806000806000806000878152602001908152602001600020905080600a0160019054906101000a900460ff166106eb576040517f08c379a00000000000000000000000000000000000000000000000000000000081526004016106e290614280565b60405180910390fd5b6000429050600082600b01549050600080821415801561070a57508183115b9050600080831415801561071c575081155b1561073057838361072d91906142cf565b90505b8282826000861415985098509850985050505050509193509193565b600080600080848152602001908152602001600020905080600a0160019054906101000a900460ff166107b4576040517f08c379a00000000000000000000000000000000000000000000000000000000081526004016107ab90614280565b60405180910390fd5b6001816002018054905014801561085b57508060010160009054906101000a900473ffffffffffffffffffffffffffffffffffffffff1673ffffffffffffffffffffffffffffffffffffffff168160020160008154811061081857610817614303565b5b9060005260206000200160009054906101000a900473ffffffffffffffffffffffffffffffffffffffff1673ffffffffffffffffffffffffffffffffffffffff16145b915050919050565b6000806000868152602001908152602001600020600a0160019054906101000a900460ff166108c7576040517f08c379a00000000000000000000000000000000000000000000000000000000081526004016108be90614280565b60405180910390fd5b60008086815260200190815260200160002060040160008573ffffffffffffffffffffffffffffffffffffffff1673ffffffffffffffffffffffffffffffffffffffff16815260200190815260200160002060009054906101000a900460ff16610966576040517f08c379a000000000000000000000000000000000000000000000000000000000815260040161095d906143a4565b60405180910390fd5b60418251146109aa576040517f08c379a00000000000000000000000000000000000000000000000000000000081526004016109a190614410565b60405180910390fd5b6000836040516020016109bd91906144a8565b60405160208183030381529060405280519060200120905060008060006020860151925060408601519150606086015160001a9050601b8160ff161015610a0e57601b81610a0b91906144db565b90505b601b8160ff161480610a235750601c8160ff16145b610a62576040517f08c379a0000000000000000000000000000000000000000000000000000000008152600401610a599061455c565b60405180910390fd5b600060018583868660405160008152602001604052604051610a87949392919061458b565b6020604051602081039080840390855afa158015610aa9573d6000803e3d6000fd5b5050506020604051035190508873ffffffffffffffffffffffffffffffffffffffff168173ffffffffffffffffffffffffffffffffffffffff161495505050505050949350505050565b60606003805480602002602001604051908101604052809291908181526020018280548015610b7757602002820191906000526020600020905b8160009054906101000a900473ffffffffffffffffffffffffffffffffffffffff1673ffffffffffffffffffffffffffffffffffffffff1681526020019060010190808311610b2d575b5050505050905090565b60606000606060008060008060008060008a8152602001908152602001600020905080600a0160019054906101000a900460ff16610bf4576040517f08c379a0000000000000000000000000000000000000000000000000000000008152600401610beb90614280565b60405180910390fd5b60006001905060005b8260020180549050811015610cbb57826004016000846002018381548110610c2857610c27614303565b5b9060005260206000200160009054906101000a900473ffffffffffffffffffffffffffffffffffffffff1673ffffffffffffffffffffffffffffffffffffffff1673ffffffffffffffffffffffffffffffffffffffff16815260200190815260200160002060009054906101000a900460ff16610ca85760009150610cbb565b8080610cb3906145d0565b915050610bfd565b50816000018260010160009054906101000a900473ffffffffffffffffffffffffffffffffffffffff1683600201846008015485600901548587600a0160009054906101000a900460ff16868054610d1290614647565b80601f0160208091040260200160405190810160405280929190818152602001828054610d3e90614647565b8015610d8b5780601f10610d6057610100808354040283529160200191610d8b565b820191906000526020600020905b815481529060010190602001808311610d6e57829003601f168201915b5050505050965084805480602002602001604051908101604052809291908181526020018280548015610e1357602002820191906000526020600020905b8160009054906101000a900473ffffffffffffffffffffffffffffffffffffffff1673ffffffffffffffffffffffffffffffffffffffff1681526020019060010190808311610dc9575b5050505050945098509850985098509850985098505050919395979092949650565b600080838152602001908152602001600020600a0160019054906101000a900460ff16610e97576040517f08c379a0000000000000000000000000000000000000000000000000000000008152600401610e8e90614280565b60405180910390fd5b60008083815260200190815260200160002060040160003373ffffffffffffffffffffffffffffffffffffffff1673ffffffffffffffffffffffffffffffffffffffff16815260200190815260200160002060009054906101000a900460ff16610f36576040517f08c379a0000000000000000000000000000000000000000000000000000000008152600401610f2d906146ea565b60405180910390fd5b8060008084815260200190815260200160002060070160003373ffffffffffffffffffffffffffffffffffffffff1673ffffffffffffffffffffffffffffffffffffffff168152602001908152602001600020819055505050565b600080600080848152602001908152602001600020905080600a0160019054906101000a900460ff16610fc85760009150506110d3565b8373ffffffffffffffffffffffffffffffffffffffff168160010160009054906101000a900473ffffffffffffffffffffffffffffffffffffffff1673ffffffffffffffffffffffffffffffffffffffff16036110295760019150506110d3565b60005b81600201805490508110156110cc578473ffffffffffffffffffffffffffffffffffffffff1682600201828154811061106857611067614303565b5b9060005260206000200160009054906101000a900473ffffffffffffffffffffffffffffffffffffffff1673ffffffffffffffffffffffffffffffffffffffff16036110b9576001925050506110d3565b80806110c4906145d0565b91505061102c565b5060009150505b92915050565b81600080828152602001908152602001600020600a0160019054906101000a900460ff1661113c576040517f08c379a000000000000000000000000000000000000000000000000000000000815260040161113390614280565b60405180910390fd5b60028081111561114f5761114e613db6565b5b60008083815260200190815260200160002060030160003373ffffffffffffffffffffffffffffffffffffffff1673ffffffffffffffffffffffffffffffffffffffff16815260200190815260200160002060009054906101000a900460ff1660028111156111c1576111c0613db6565b5b14806112505750600160028111156111dc576111db613db6565b5b60008083815260200190815260200160002060030160003373ffffffffffffffffffffffffffffffffffffffff1673ffffffffffffffffffffffffffffffffffffffff16815260200190815260200160002060009054906101000a900460ff16600281111561124e5761124d613db6565b5b145b61128f576040517f08c379a000000000000000000000000000000000000000000000000000000000815260040161128690614756565b60405180910390fd5b82600080828152602001908152602001600020600a0160009054906101000a900460ff16156112f3576040517f08c379a00000000000000000000000000000000000000000000000000000000081526004016112ea906147c2565b60405180910390fd5b60008060008681526020019081526020016000209050611312856134ca565b15611352576040517f08c379a00000000000000000000000000000000000000000000000000000000081526004016113499061482e565b60405180910390fd5b8060040160003373ffffffffffffffffffffffffffffffffffffffff1673ffffffffffffffffffffffffffffffffffffffff16815260200190815260200160002060009054906101000a900460ff16156113e1576040517f08c379a00000000000000000000000000000000000000000000000000000000081526004016113d89061489a565b60405180910390fd5b3373ffffffffffffffffffffffffffffffffffffffff168160020182600c01548154811061141257611411614303565b5b9060005260206000200160009054906101000a900473ffffffffffffffffffffffffffffffffffffffff1673ffffffffffffffffffffffffffffffffffffffff1614611493576040517f08c379a000000000000000000000000000000000000000000000000000000000815260040161148a90614906565b60405180910390fd5b60008451116114d7576040517f08c379a00000000000000000000000000000000000000000000000000000000081526004016114ce90614972565b60405180910390fd5b60018160040160003373ffffffffffffffffffffffffffffffffffffffff1673ffffffffffffffffffffffffffffffffffffffff16815260200190815260200160002060006101000a81548160ff021916908315150217905550428160050160003373ffffffffffffffffffffffffffffffffffffffff1673ffffffffffffffffffffffffffffffffffffffff16815260200190815260200160002081905550838160060160003373ffffffffffffffffffffffffffffffffffffffff1673ffffffffffffffffffffffffffffffffffffffff16815260200190815260200160002090816115c59190614b3e565b508060090160008154809291906115db906145d0565b919050555080600c0160008154809291906115f5906145d0565b91905055503373ffffffffffffffffffffffffffffffffffffffff16857f8c14a9d5f9e05ea3d9142fd74ae9dc73e6214837cd22e0622926450648a81edb4287604051611643929190614c10565b60405180910390a35050505050565b80600080828152602001908152602001600020600a0160019054906101000a900460ff166116b5576040517f08c379a00000000000000000000000000000000000000000000000000000000081526004016116ac90614280565b60405180910390fd5b6002808111156116c8576116c7613db6565b5b60008083815260200190815260200160002060030160003373ffffffffffffffffffffffffffffffffffffffff1673ffffffffffffffffffffffffffffffffffffffff16815260200190815260200160002060009054906101000a900460ff16600281111561173a57611739613db6565b5b14806117c957506001600281111561175557611754613db6565b5b60008083815260200190815260200160002060030160003373ffffffffffffffffffffffffffffffffffffffff1673ffffffffffffffffffffffffffffffffffffffff16815260200190815260200160002060009054906101000a900460ff1660028111156117c7576117c6613db6565b5b145b611808576040517f08c379a00000000000000000000000000000000000000000000000000000000081526004016117ff90614756565b60405180910390fd5b81600080828152602001908152602001600020600a0160009054906101000a900460ff161561186c576040517f08c379a0000000000000000000000000000000000000000000000000000000008152600401611863906147c2565b60405180910390fd5b6000806000858152602001908152602001600020905061188b846134ca565b156118cb576040517f08c379a00000000000000000000000000000000000000000000000000000000081526004016118c29061482e565b60405180910390fd5b8060040160003373ffffffffffffffffffffffffffffffffffffffff1673ffffffffffffffffffffffffffffffffffffffff16815260200190815260200160002060009054906101000a900460ff161561195a576040517f08c379a00000000000000000000000000000000000000000000000000000000081526004016119519061489a565b60405180910390fd5b3373ffffffffffffffffffffffffffffffffffffffff168160020182600c01548154811061198b5761198a614303565b5b9060005260206000200160009054906101000a900473ffffffffffffffffffffffffffffffffffffffff1673ffffffffffffffffffffffffffffffffffffffff1614611a0c576040517f08c379a0000000000000000000000000000000000000000000000000000000008152600401611a0390614906565b60405180910390fd5b60018160040160003373ffffffffffffffffffffffffffffffffffffffff1673ffffffffffffffffffffffffffffffffffffffff16815260200190815260200160002060006101000a81548160ff021916908315150217905550428160050160003373ffffffffffffffffffffffffffffffffffffffff1673ffffffffffffffffffffffffffffffffffffffff16815260200190815260200160002081905550806009016000815480929190611ac1906145d0565b919050555080600c016000815480929190611adb906145d0565b91905055503373ffffffffffffffffffffffffffffffffffffffff16847f8c14a9d5f9e05ea3d9142fd74ae9dc73e6214837cd22e0622926450648a81edb42604051611b279190614c66565b60405180910390a350505050565b600080600084815260200190815260200160002060040160008373ffffffffffffffffffffffffffffffffffffffff1673ffffffffffffffffffffffffffffffffffffffff16815260200190815260200160002060009054906101000a900460ff16905092915050565b81600080828152602001908152602001600020600a0160019054906101000a900460ff16611c02576040517f08c379a0000000000000000000000000000000000000000000000000000000008152600401611bf990614280565b60405180910390fd5b60016002811115611c1657611c15613db6565b5b60008083815260200190815260200160002060030160003373ffffffffffffffffffffffffffffffffffffffff1673ffffffffffffffffffffffffffffffffffffffff16815260200190815260200160002060009054906101000a900460ff166002811115611c8857611c87613db6565b5b14611cc8576040517f08c379a0000000000000000000000000000000000000000000000000000000008152600401611cbf90614ce0565b60405180910390fd5b82600080828152602001908152602001600020600a0160009054906101000a900460ff1615611d2c576040517f08c379a0000000000000000000000000000000000000000000000000000000008152600401611d23906147c2565b60405180910390fd5b60008060008681526020019081526020016000209050611d4b856134ca565b15611d8b576040517f08c379a0000000000000000000000000000000000000000000000000000000008152600401611d829061482e565b60405180910390fd5b6000845111611dcf576040517f08c379a0000000000000000000000000000000000000000000000000000000008152600401611dc690614d4c565b60405180910390fd5b83816000019081611de09190614b3e565b503373ffffffffffffffffffffffffffffffffffffffff16857fd4af573228b33e73cdfacac0a74b920c7b511e2ff826fb63a2e0bb5790b54ebc8642604051611e2a929190614d6c565b60405180910390a35050505050565b60038181548110611e4957600080fd5b906000526020600020016000915054906101000a900473ffffffffffffffffffffffffffffffffffffffff1681565b6000806000838152602001908152602001600020600a0160019054906101000a900460ff16611edc576040517f08c379a0000000000000000000000000000000000000000000000000000000008152600401611ed390614280565b60405180910390fd5b600080838152602001908152602001600020600b01549050919050565b6000806000848152602001908152602001600020600a0160019054906101000a900460ff16611f5d576040517f08c379a0000000000000000000000000000000000000000000000000000000008152600401611f5490614280565b60405180910390fd5b60008084815260200190815260200160002060030160008373ffffffffffffffffffffffffffffffffffffffff1673ffffffffffffffffffffffffffffffffffffffff16815260200190815260200160002060009054906101000a900460ff16905092915050565b60608060606000806060600260008873ffffffffffffffffffffffffffffffffffffffff1673ffffffffffffffffffffffffffffffffffffffff16815260200190815260200160002060040160009054906101000a900460ff1661205e576040517f08c379a000000000000000000000000000000000000000000000000000000000815260040161205590614de8565b60405180910390fd5b6000600260008973ffffffffffffffffffffffffffffffffffffffff1673ffffffffffffffffffffffffffffffffffffffff168152602001908152602001600020905080600001816001018260020183600301548460040160009054906101000a900460ff16856005018580546120d490614647565b80601f016020809104026020016040519081016040528092919081815260200182805461210090614647565b801561214d5780601f106121225761010080835404028352916020019161214d565b820191906000526020600020905b81548152906001019060200180831161213057829003601f168201915b5050505050955084805461216090614647565b80601f016020809104026020016040519081016040528092919081815260200182805461218c90614647565b80156121d95780601f106121ae576101008083540402835291602001916121d9565b820191906000526020600020905b8154815290600101906020018083116121bc57829003601f168201915b505050505094508380546121ec90614647565b80601f016020809104026020016040519081016040528092919081815260200182805461221890614647565b80156122655780601f1061223a57610100808354040283529160200191612265565b820191906000526020600020905b81548152906001019060200180831161224857829003601f168201915b5050505050935080805461227890614647565b80601f01602080910402602001604051908101604052809291908181526020018280546122a490614647565b80156122f15780601f106122c6576101008083540402835291602001916122f1565b820191906000526020600020905b8154815290600101906020018083116122d457829003601f168201915b505050505090509650965096509650965096505091939550919395565b60015481565b600260003373ffffffffffffffffffffffffffffffffffffffff1673ffffffffffffffffffffffffffffffffffffffff16815260200190815260200160002060040160009054906101000a900460ff16156123a4576040517f08c379a000000000000000000000000000000000000000000000000000000000815260040161239b90614e54565b60405180910390fd5b600073ffffffffffffffffffffffffffffffffffffffff166004846040516123cc9190614ea5565b908152602001604051809103902060009054906101000a900473ffffffffffffffffffffffffffffffffffffffff1673ffffffffffffffffffffffffffffffffffffffff1614612451576040517f08c379a000000000000000000000000000000000000000000000000000000000815260040161244890614f08565b60405180910390fd5b6040518060c0016040528086815260200185815260200184815260200183815260200160011515815260200182815250600260003373ffffffffffffffffffffffffffffffffffffffff1673ffffffffffffffffffffffffffffffffffffffff16815260200190815260200160002060008201518160000190816124d59190614b3e565b5060208201518160010190816124eb9190614b3e565b5060408201518160020190816125019190614b3e565b506060820151816003015560808201518160040160006101000a81548160ff02191690831515021790555060a08201518160050190816125419190614b3e565b509050506003339080600181540180825580915050600190039060005260206000200160009091909190916101000a81548173ffffffffffffffffffffffffffffffffffffffff021916908373ffffffffffffffffffffffffffffffffffffffff160217905550336004846040516125b99190614ea5565b908152602001604051809103902060006101000a81548173ffffffffffffffffffffffffffffffffffffffff021916908373ffffffffffffffffffffffffffffffffffffffff1602179055503373ffffffffffffffffffffffffffffffffffffffff167f78088310123490d67595b7b0e336cb2e2fc0f7df27ddd8950b8656c84413fb1b8686868686604051612653959493929190614f28565b60405180910390a25050505050565b606060008084815260200190815260200160002060060160008373ffffffffffffffffffffffffffffffffffffffff1673ffffffffffffffffffffffffffffffffffffffff16815260200190815260200160002080546126c190614647565b80601f01602080910402602001604051908101604052809291908181526020018280546126ed90614647565b801561273a5780601f1061270f5761010080835404028352916020019161273a565b820191906000526020600020905b81548152906001019060200180831161271d57829003601f168201915b5050505050905092915050565b600260205280600052604060002060009150905080600001805461276a90614647565b80601f016020809104026020016040519081016040528092919081815260200182805461279690614647565b80156127e35780601f106127b8576101008083540402835291602001916127e3565b820191906000526020600020905b8154815290600101906020018083116127c657829003601f168201915b5050505050908060010180546127f890614647565b80601f016020809104026020016040519081016040528092919081815260200182805461282490614647565b80156128715780601f1061284657610100808354040283529160200191612871565b820191906000526020600020905b81548152906001019060200180831161285457829003601f168201915b50505050509080600201805461288690614647565b80601f01602080910402602001604051908101604052809291908181526020018280546128b290614647565b80156128ff5780601f106128d4576101008083540402835291602001916128ff565b820191906000526020600020905b8154815290600101906020018083116128e257829003601f168201915b5050505050908060030154908060040160009054906101000a900460ff169080600501805461292d90614647565b80601f016020809104026020016040519081016040528092919081815260200182805461295990614647565b80156129a65780601f1061297b576101008083540402835291602001916129a6565b820191906000526020600020905b81548152906001019060200180831161298957829003601f168201915b5050505050905086565b82600080828152602001908152602001600020600a0160019054906101000a900460ff16612a13576040517f08c379a0000000000000000000000000000000000000000000000000000000008152600401612a0a90614280565b60405180910390fd5b60016002811115612a2757612a26613db6565b5b60008083815260200190815260200160002060030160003373ffffffffffffffffffffffffffffffffffffffff1673ffffffffffffffffffffffffffffffffffffffff16815260200190815260200160002060009054906101000a900460ff166002811115612a9957612a98613db6565b5b14612ad9576040517f08c379a0000000000000000000000000000000000000000000000000000000008152600401612ad090614ce0565b60405180910390fd5b83600080828152602001908152602001600020600a0160009054906101000a900460ff1615612b3d576040517f08c379a0000000000000000000000000000000000000000000000000000000008152600401612b34906147c2565b60405180910390fd5b60008060008781526020019081526020016000209050612b5c866134ca565b15612b9c576040517f08c379a0000000000000000000000000000000000000000000000000000000008152600401612b939061482e565b60405180910390fd5b60006001905060005b8260020180549050811015612c6357826004016000846002018381548110612bd057612bcf614303565b5b9060005260206000200160009054906101000a900473ffffffffffffffffffffffffffffffffffffffff1673ffffffffffffffffffffffffffffffffffffffff1673ffffffffffffffffffffffffffffffffffffffff16815260200190815260200160002060009054906101000a900460ff16612c505760009150612c63565b8080612c5b906145d0565b915050612ba5565b508015612ca5576040517f08c379a0000000000000000000000000000000000000000000000000000000008152600401612c9c90615009565b60405180910390fd5b6000865111612ce9576040517f08c379a0000000000000000000000000000000000000000000000000000000008152600401612ce090614d4c565b60405180910390fd5b60008514612d3d57428511612d33576040517f08c379a0000000000000000000000000000000000000000000000000000000008152600401612d2a90615075565b60405180910390fd5b8482600b01819055505b85826000019081612d4e9190614b3e565b503373ffffffffffffffffffffffffffffffffffffffff16877fd4af573228b33e73cdfacac0a74b920c7b511e2ff826fb63a2e0bb5790b54ebc8842604051612d98929190614d6c565b60405180910390a350505050505050565b600080845111612dee576040517f08c379a0000000000000000000000000000000000000000000000000000000008152600401612de590614d4c565b60405180910390fd5b6000821480612dfc57504282115b612e3b576040517f08c379a0000000000000000000000000000000000000000000000000000000008152600401612e3290615075565b60405180910390fd5b60016000815480929190612e4e906145d0565b919050555060008060006001548152602001908152602001600020905084816000019081612e7c9190614b3e565b50338160010160006101000a81548173ffffffffffffffffffffffffffffffffffffffff021916908373ffffffffffffffffffffffffffffffffffffffff160217905550428160080181905550600181600a0160016101000a81548160ff0219169083151502179055508281600b018190555060018160030160003373ffffffffffffffffffffffffffffffffffffffff1673ffffffffffffffffffffffffffffffffffffffff16815260200190815260200160002060006101000a81548160ff02191690836002811115612f5457612f53613db6565b5b021790555060008451036130365780600201339080600181540180825580915050600190039060005260206000200160009091909190916101000a81548173ffffffffffffffffffffffffffffffffffffffff021916908373ffffffffffffffffffffffffffffffffffffffff16021790555060028160030160003373ffffffffffffffffffffffffffffffffffffffff1673ffffffffffffffffffffffffffffffffffffffff16815260200190815260200160002060006101000a81548160ff0219169083600281111561302c5761302b613db6565b5b02179055506131e3565b60005b84518110156131e157600073ffffffffffffffffffffffffffffffffffffffff1685828151811061306d5761306c614303565b5b602002602001015173ffffffffffffffffffffffffffffffffffffffff16036130cb576040517f08c379a00000000000000000000000000000000000000000000000000000000081526004016130c2906150e1565b60405180910390fd5b816002018582815181106130e2576130e1614303565b5b60200260200101519080600181540180825580915050600190039060005260206000200160009091909190916101000a81548173ffffffffffffffffffffffffffffffffffffffff021916908373ffffffffffffffffffffffffffffffffffffffff160217905550600282600301600087848151811061316557613164614303565b5b602002602001015173ffffffffffffffffffffffffffffffffffffffff1673ffffffffffffffffffffffffffffffffffffffff16815260200190815260200160002060006101000a81548160ff021916908360028111156131c9576131c8613db6565b5b021790555080806131d9906145d0565b915050613039565b505b60018160030160003373ffffffffffffffffffffffffffffffffffffffff1673ffffffffffffffffffffffffffffffffffffffff16815260200190815260200160002060006101000a81548160ff0219169083600281111561324857613247613db6565b5b02179055503373ffffffffffffffffffffffffffffffffffffffff166001547f0f34f336d6e1cc231d161403dd583f287c90d4e144120937a223d9531afe848c87846002014260405161329d939291906151ed565b60405180910390a36001549150509392505050565b81600080828152602001908152602001600020600a0160019054906101000a900460ff16613315576040517f08c379a000000000000000000000000000000000000000000000000000000000815260040161330c90614280565b60405180910390fd5b6001600281111561332957613328613db6565b5b60008083815260200190815260200160002060030160003373ffffffffffffffffffffffffffffffffffffffff1673ffffffffffffffffffffffffffffffffffffffff16815260200190815260200160002060009054906101000a900460ff16600281111561339b5761339a613db6565b5b146133db576040517f08c379a00000000000000000000000000000000000000000000000000000000081526004016133d290614ce0565b60405180910390fd5b82600080828152602001908152602001600020600a0160009054906101000a900460ff161561343f576040517f08c379a0000000000000000000000000000000000000000000000000000000008152600401613436906147c2565b60405180910390fd5b60008060008681526020019081526020016000209050600181600a0160006101000a81548160ff0219169083151502179055503373ffffffffffffffffffffffffffffffffffffffff16857f7a58ff517c00037031f8886d9305cec9b4a44d1c1a04fc2ef4d7a5d7a09eede542876040516134bb929190614c10565b60405180910390a35050505050565b6000806000808481526020019081526020016000209050600081600b0154141580156134f9575080600b015442115b915050919050565b600080600084815260200190815260200160002060070160008373ffffffffffffffffffffffffffffffffffffffff1673ffffffffffffffffffffffffffffffffffffffff16815260200190815260200160002054905092915050565b600080600080848152602001908152602001600020905080600a0160019054906101000a900460ff166135c6576040517f08c379a00000000000000000000000000000000000000000000000000000000081526004016135bd90614280565b60405180910390fd5b806002018054905081600c01541015613626578060020181600c0154815481106135f3576135f2614303565b5b9060005260206000200160009054906101000a900473ffffffffffffffffffffffffffffffffffffffff1691505061362c565b60009150505b919050565b6004818051602081018201805184825260208301602085012081835280955050505050506000915054906101000a900473ffffffffffffffffffffffffffffffffffffffff1681565b6000604051905090565b600080fd5b600080fd5b6000819050919050565b6136a18161368e565b81146136ac57600080fd5b50565b6000813590506136be81613698565b92915050565b600073ffffffffffffffffffffffffffffffffffffffff82169050919050565b60006136ef826136c4565b9050919050565b6136ff816136e4565b811461370a57600080fd5b50565b60008135905061371c816136f6565b92915050565b6000806040838503121561373957613738613684565b5b6000613747858286016136af565b92505060206137588582860161370d565b9150509250929050565b61376b8161368e565b82525050565b60006020820190506137866000830184613762565b92915050565b6000602082840312156137a2576137a1613684565b5b60006137b0848285016136af565b91505092915050565b60008115159050919050565b6137ce816137b9565b82525050565b60006080820190506137e96000830187613762565b6137f660208301866137c5565b6138036040830185613762565b61381060608301846137c5565b95945050505050565b600060208201905061382e60008301846137c5565b92915050565b6000819050919050565b61384781613834565b811461385257600080fd5b50565b6000813590506138648161383e565b92915050565b600080fd5b600080fd5b6000601f19601f8301169050919050565b7f4e487b7100000000000000000000000000000000000000000000000000000000600052604160045260246000fd5b6138bd82613874565b810181811067ffffffffffffffff821117156138dc576138db613885565b5b80604052505050565b60006138ef61367a565b90506138fb82826138b4565b919050565b600067ffffffffffffffff82111561391b5761391a613885565b5b61392482613874565b9050602081019050919050565b82818337600083830152505050565b600061395361394e84613900565b6138e5565b90508281526020810184848401111561396f5761396e61386f565b5b61397a848285613931565b509392505050565b600082601f8301126139975761399661386a565b5b81356139a7848260208601613940565b91505092915050565b600080600080608085870312156139ca576139c9613684565b5b60006139d8878288016136af565b94505060206139e98782880161370d565b93505060406139fa87828801613855565b925050606085013567ffffffffffffffff811115613a1b57613a1a613689565b5b613a2787828801613982565b91505092959194509250565b600081519050919050565b600082825260208201905092915050565b6000819050602082019050919050565b613a68816136e4565b82525050565b6000613a7a8383613a5f565b60208301905092915050565b6000602082019050919050565b6000613a9e82613a33565b613aa88185613a3e565b9350613ab383613a4f565b8060005b83811015613ae4578151613acb8882613a6e565b9750613ad683613a86565b925050600181019050613ab7565b5085935050505092915050565b60006020820190508181036000830152613b0b8184613a93565b905092915050565b600081519050919050565b600082825260208201905092915050565b60005b83811015613b4d578082015181840152602081019050613b32565b60008484015250505050565b6000613b6482613b13565b613b6e8185613b1e565b9350613b7e818560208601613b2f565b613b8781613874565b840191505092915050565b613b9b816136e4565b82525050565b600060e0820190508181036000830152613bbb818a613b59565b9050613bca6020830189613b92565b8181036040830152613bdc8188613a93565b9050613beb6060830187613762565b613bf86080830186613762565b613c0560a08301856137c5565b613c1260c08301846137c5565b98975050505050505050565b60008060408385031215613c3557613c34613684565b5b6000613c43858286016136af565b9250506020613c5485828601613855565b9150509250929050565b60008060408385031215613c7557613c74613684565b5b6000613c838582860161370d565b9250506020613c94858286016136af565b9150509250929050565b600067ffffffffffffffff821115613cb957613cb8613885565b5b613cc282613874565b9050602081019050919050565b6000613ce2613cdd84613c9e565b6138e5565b905082815260208101848484011115613cfe57613cfd61386f565b5b613d09848285613931565b509392505050565b600082601f830112613d2657613d2561386a565b5b8135613d36848260208601613ccf565b91505092915050565b60008060408385031215613d5657613d55613684565b5b6000613d64858286016136af565b925050602083013567ffffffffffffffff811115613d8557613d84613689565b5b613d9185828601613d11565b9150509250929050565b6000602082019050613db06000830184613b92565b92915050565b7f4e487b7100000000000000000000000000000000000000000000000000000000600052602160045260246000fd5b60038110613df657613df5613db6565b5b50565b6000819050613e0782613de5565b919050565b6000613e1782613df9565b9050919050565b613e2781613e0c565b82525050565b6000602082019050613e426000830184613e1e565b92915050565b600060208284031215613e5e57613e5d613684565b5b6000613e6c8482850161370d565b91505092915050565b600060c0820190508181036000830152613e8f8189613b59565b90508181036020830152613ea38188613b59565b90508181036040830152613eb78187613b59565b9050613ec66060830186613762565b613ed360808301856137c5565b81810360a0830152613ee58184613b59565b9050979650505050505050565b600080600080600060a08688031215613f0e57613f0d613684565b5b600086013567ffffffffffffffff811115613f2c57613f2b613689565b5b613f3888828901613d11565b955050602086013567ffffffffffffffff811115613f5957613f58613689565b5b613f6588828901613d11565b945050604086013567ffffffffffffffff811115613f8657613f85613689565b5b613f9288828901613d11565b9350506060613fa3888289016136af565b925050608086013567ffffffffffffffff811115613fc457613fc3613689565b5b613fd088828901613d11565b9150509295509295909350565b60006020820190508181036000830152613ff78184613b59565b905092915050565b60008060006060848603121561401857614017613684565b5b6000614026868287016136af565b935050602084013567ffffffffffffffff81111561404757614046613689565b5b61405386828701613d11565b9250506040614064868287016136af565b9150509250925092565b600067ffffffffffffffff82111561408957614088613885565b5b602082029050602081019050919050565b600080fd5b60006140b26140ad8461406e565b6138e5565b905080838252602082019050602084028301858111156140d5576140d461409a565b5b835b818110156140fe57806140ea888261370d565b8452602084019350506020810190506140d7565b5050509392505050565b600082601f83011261411d5761411c61386a565b5b813561412d84826020860161409f565b91505092915050565b60008060006060848603121561414f5761414e613684565b5b600084013567ffffffffffffffff81111561416d5761416c613689565b5b61417986828701613d11565b935050602084013567ffffffffffffffff81111561419a57614199613689565b5b6141a686828701614108565b92505060406141b7868287016136af565b9150509250925092565b6141ca81613834565b82525050565b60006020820190506141e560008301846141c1565b92915050565b60006020828403121561420157614200613684565b5b600082013567ffffffffffffffff81111561421f5761421e613689565b5b61422b84828501613d11565b91505092915050565b7f446f63756d656e7420646f6573206e6f74206578697374000000000000000000600082015250565b600061426a601783613b1e565b915061427582614234565b602082019050919050565b600060208201905081810360008301526142998161425d565b9050919050565b7f4e487b7100000000000000000000000000000000000000000000000000000000600052601160045260246000fd5b60006142da8261368e565b91506142e58361368e565b92508282039050818111156142fd576142fc6142a0565b5b92915050565b7f4e487b7100000000000000000000000000000000000000000000000000000000600052603260045260246000fd5b7f5369676e657220686173206e6f74207369676e6564207468697320646f63756d60008201527f656e740000000000000000000000000000000000000000000000000000000000602082015250565b600061438e602383613b1e565b915061439982614332565b604082019050919050565b600060208201905081810360008301526143bd81614381565b9050919050565b7f496e76616c6964207369676e6174757265206c656e6774680000000000000000600082015250565b60006143fa601883613b1e565b9150614405826143c4565b602082019050919050565b60006020820190508181036000830152614429816143ed565b9050919050565b600081905092915050565b7f19457468657265756d205369676e6564204d6573736167653a0a333200000000600082015250565b6000614471601c83614430565b915061447c8261443b565b601c82019050919050565b6000819050919050565b6144a261449d82613834565b614487565b82525050565b60006144b382614464565b91506144bf8284614491565b60208201915081905092915050565b600060ff82169050919050565b60006144e6826144ce565b91506144f1836144ce565b9250828201905060ff81111561450a576145096142a0565b5b92915050565b7f496e76616c6964207369676e6174757265202776272076616c75650000000000600082015250565b6000614546601b83613b1e565b915061455182614510565b602082019050919050565b6000602082019050818103600083015261457581614539565b9050919050565b614585816144ce565b82525050565b60006080820190506145a060008301876141c1565b6145ad602083018661457c565b6145ba60408301856141c1565b6145c760608301846141c1565b95945050505050565b60006145db8261368e565b91507fffffffffffffffffffffffffffffffffffffffffffffffffffffffffffffffff820361460d5761460c6142a0565b5b600182019050919050565b7f4e487b7100000000000000000000000000000000000000000000000000000000600052602260045260246000fd5b6000600282049050600182168061465f57607f821691505b60208210810361467257614671614618565b5b50919050565b7f596f752068617665206e6f74207369676e6564207468697320646f63756d656e60008201527f7400000000000000000000000000000000000000000000000000000000000000602082015250565b60006146d4602183613b1e565b91506146df82614678565b604082019050919050565b60006020820190508181036000830152614703816146c7565b9050919050565b7f4e6f7420617574686f72697a6564207369676e65720000000000000000000000600082015250565b6000614740601583613b1e565b915061474b8261470a565b602082019050919050565b6000602082019050818103600083015261476f81614733565b9050919050565b7f446f63756d656e74206973207265766f6b656400000000000000000000000000600082015250565b60006147ac601383613b1e565b91506147b782614776565b602082019050919050565b600060208201905081810360008301526147db8161479f565b9050919050565b7f446f63756d656e74206578706972656400000000000000000000000000000000600082015250565b6000614818601083613b1e565b9150614823826147e2565b602082019050919050565b600060208201905081810360008301526148478161480b565b9050919050565b7f416c7265616479207369676e6564000000000000000000000000000000000000600082015250565b6000614884600e83613b1e565b915061488f8261484e565b602082019050919050565b600060208201905081810360008301526148b381614877565b9050919050565b7f4e6f7420796f7572207475726e20746f207369676e0000000000000000000000600082015250565b60006148f0601583613b1e565b91506148fb826148ba565b602082019050919050565b6000602082019050818103600083015261491f816148e3565b9050919050565b7f5369676e61747572652072657175697265640000000000000000000000000000600082015250565b600061495c601283613b1e565b915061496782614926565b602082019050919050565b6000602082019050818103600083015261498b8161494f565b9050919050565b60008190508160005260206000209050919050565b60006020601f8301049050919050565b600082821b905092915050565b6000600883026149f47fffffffffffffffffffffffffffffffffffffffffffffffffffffffffffffffff826149b7565b6149fe86836149b7565b95508019841693508086168417925050509392505050565b6000819050919050565b6000614a3b614a36614a318461368e565b614a16565b61368e565b9050919050565b6000819050919050565b614a5583614a20565b614a69614a6182614a42565b8484546149c4565b825550505050565b600090565b614a7e614a71565b614a89818484614a4c565b505050565b5b81811015614aad57614aa2600082614a76565b600181019050614a8f565b5050565b601f821115614af257614ac381614992565b614acc846149a7565b81016020851015614adb578190505b614aef614ae7856149a7565b830182614a8e565b50505b505050565b600082821c905092915050565b6000614b1560001984600802614af7565b1980831691505092915050565b6000614b2e8383614b04565b9150826002028217905092915050565b614b4782613b13565b67ffffffffffffffff811115614b6057614b5f613885565b5b614b6a8254614647565b614b75828285614ab1565b600060209050601f831160018114614ba85760008415614b96578287015190505b614ba08582614b22565b865550614c08565b601f198416614bb686614992565b60005b82811015614bde57848901518255600182019150602085019450602081019050614bb9565b86831015614bfb5784890151614bf7601f891682614b04565b8355505b6001600288020188555050505b505050505050565b6000604082019050614c256000830185613762565b8181036020830152614c378184613b59565b90509392505050565b50565b6000614c50600083613b1e565b9150614c5b82614c40565b600082019050919050565b6000604082019050614c7b6000830184613762565b8181036020830152614c8c81614c43565b905092915050565b7f4e6f7420646f63756d656e74206f776e65720000000000000000000000000000600082015250565b6000614cca601283613b1e565b9150614cd582614c94565b602082019050919050565b60006020820190508181036000830152614cf981614cbd565b9050919050565b7f4950465320686173682072657175697265640000000000000000000000000000600082015250565b6000614d36601283613b1e565b9150614d4182614d00565b602082019050919050565b60006020820190508181036000830152614d6581614d29565b9050919050565b60006040820190508181036000830152614d868185613b59565b9050614d956020830184613762565b9392505050565b7f55736572206e6f74207265676973746572656400000000000000000000000000600082015250565b6000614dd2601383613b1e565b9150614ddd82614d9c565b602082019050919050565b60006020820190508181036000830152614e0181614dc5565b9050919050565b7f416c726561647920726567697374657265640000000000000000000000000000600082015250565b6000614e3e601283613b1e565b9150614e4982614e08565b602082019050919050565b60006020820190508181036000830152614e6d81614e31565b9050919050565b6000614e7f82613b13565b614e898185614430565b9350614e99818560208601613b2f565b80840191505092915050565b6000614eb18284614e74565b915081905092915050565b7f456d61696c20616c726561647920726567697374657265640000000000000000600082015250565b6000614ef2601883613b1e565b9150614efd82614ebc565b602082019050919050565b60006020820190508181036000830152614f2181614ee5565b9050919050565b600060a0820190508181036000830152614f428188613b59565b90508181036020830152614f568187613b59565b90508181036040830152614f6a8186613b59565b9050614f796060830185613762565b8181036080830152614f8b8184613b59565b90509695505050505050565b7f43616e6e6f7420616d656e642066756c6c79207369676e656420646f63756d6560008201527f6e74000000000000000000000000000000000000000000000000000000000000602082015250565b6000614ff3602283613b1e565b9150614ffe82614f97565b604082019050919050565b6000602082019050818103600083015261502281614fe6565b9050919050565b7f457870697279206d75737420626520696e207468652066757475726500000000600082015250565b600061505f601c83613b1e565b915061506a82615029565b602082019050919050565b6000602082019050818103600083015261508e81615052565b9050919050565b7f496e76616c6964207369676e6572206164647265737300000000000000000000600082015250565b60006150cb601683613b1e565b91506150d682615095565b602082019050919050565b600060208201905081810360008301526150fa816150be565b9050919050565b600081549050919050565b60008190508160005260206000209050919050565b60008160001c9050919050565b600073ffffffffffffffffffffffffffffffffffffffff82169050919050565b600061516161515c83615121565b61512e565b9050919050565b6000615174825461514e565b9050919050565b6000600182019050919050565b600061519382615101565b61519d8185613a3e565b93506151a88361510c565b8060005b838110156151e0576151bd82615168565b6151c78882613a6e565b97506151d28361517b565b9250506001810190506151ac565b5085935050505092915050565b600060608201905081810360008301526152078186613b59565b9050818103602083015261521b8185615188565b905061522a6040830184613762565b94935050505056fea2646970667358221220e0453e93ab5851d05c0d78cf9bba054ad916c82c7acd8ef975c677eac37730e864736f6c63430008150033",
  "linkReferences": {},
  "deployedLinkReferences": {}
}