{
  "_format": "hh-sol-artifact-1",
  "contractName": "DocumentSign",
  "sourceName": "contracts/Docu3.sol",
  "abi": [
    {
      "anonymous": false,
      "inputs": [
        {
          "indexed": true,
          "internalType": "uint256",
          "name": "docId",
          "type": "uint256"
        },
        {
          "indexed": false,
          "internalType": "string",
          "name": "newIpfsHash",
          "type": "string"
        },
        {
          "indexed": true,
          "internalType": "address",
          "name": "editor",
          "type": "address"
        },
        {
          "indexed": false,
          "internalType": "uint256",
          "name": "amendedAt",
          "type": "uint256"
        }
      ],
      "name": "DocumentAmended",
      "type": "event"
    },
    {
      "anonymous": false,
      "inputs": [
        {
          "indexed": true,
          "internalType": "uint256",
          "name": "docId",
          "type": "uint256"
        },
        {
          "indexed": false,
          "internalType": "string",
          "name": "ipfsHash",
          "type": "string"
        },
        {
          "indexed": true,
          "internalType": "address",
          "name": "creator",
          "type": "address"
        },
        {
          "indexed": false,
          "internalType": "address[]",
          "name": "signers",
          "type": "address[]"
        },
        {
          "indexed": false,
          "internalType": "uint256",
          "name": "createdAt",
          "type": "uint256"
        }
      ],
      "name": "DocumentCreated",
      "type": "event"
    },
    {
      "anonymous": false,
      "inputs": [
        {
          "indexed": true,
          "internalType": "uint256",
          "name": "docId",
          "type": "uint256"
        },
        {
          "indexed": false,
          "internalType": "uint256",
          "name": "expiredAt",
          "type": "uint256"
        }
      ],
      "name": "DocumentExpired",
      "type": "event"
    },
    {
      "anonymous": false,
      "inputs": [
        {
          "indexed": true,
          "internalType": "uint256",
          "name": "docId",
          "type": "uint256"
        },
        {
          "indexed": true,
          "internalType": "address",
          "name": "revoker",
          "type": "address"
        },
        {
          "indexed": false,
          "internalType": "uint256",
          "name": "revokedAt",
          "type": "uint256"
        },
        {
          "indexed": false,
          "internalType": "string",
          "name": "reason",
          "type": "string"
        }
      ],
      "name": "DocumentRevoked",
      "type": "event"
    },
    {
      "anonymous": false,
      "inputs": [
        {
          "indexed": true,
          "internalType": "uint256",
          "name": "docId",
          "type": "uint256"
        },
        {
          "indexed": true,
          "internalType": "address",
          "name": "signer",
          "type": "address"
        },
        {
          "indexed": false,
          "internalType": "uint256",
          "name": "signedAt",
          "type": "uint256"
        },
        {
          "indexed": false,
          "internalType": "string",
          "name": "signature",
          "type": "string"
        }
      ],
      "name": "DocumentSigned",
      "type": "event"
    },
    {
      "anonymous": false,
      "inputs": [
        {
          "indexed": true,
          "internalType": "address",
          "name": "user",
          "type": "address"
        },
        {
          "indexed": false,
          "internalType": "string",
          "name": "firstName",
          "type": "string"
        },
        {
          "indexed": false,
          "internalType": "string",
          "name": "familyName",
          "type": "string"
        },
        {
          "indexed": false,
          "internalType": "string",
          "name": "email",
          "type": "string"
        },
        {
          "indexed": false,
          "internalType": "uint256",
          "name": "dob",
          "type": "uint256"
        },
        {
          "indexed": false,
          "internalType": "string",
          "name": "publicKey",
          "type": "string"
        }
      ],
      "name": "UserRegistered",
      "type": "event"
    },
    {
      "inputs": [
        {
          "internalType": "uint256",
          "name": "_docId",
          "type": "uint256"
        },
        {
          "internalType": "string",
          "name": "_newIpfsHash",
          "type": "string"
        },
        {
          "internalType": "uint256",
          "name": "_newExpiry",
          "type": "uint256"
        }
      ],
      "name": "amendDocument",
      "outputs": [],
      "stateMutability": "nonpayable",
      "type": "function"
    },
    {
      "inputs": [
        {
          "internalType": "string",
          "name": "_ipfsHash",
          "type": "string"
        },
        {
          "internalType": "address[]",
          "name": "_signers",
          "type": "address[]"
        },
        {
          "internalType": "uint256",
          "name": "_expiry",
          "type": "uint256"
        }
      ],
      "name": "createDocument",
      "outputs": [
        {
          "internalType": "uint256",
          "name": "",
          "type": "uint256"
        }
      ],
      "stateMutability": "nonpayable",
      "type": "function"
    },
    {
      "inputs": [],
      "name": "documentCount",
      "outputs": [
        {
          "internalType": "uint256",
          "name": "",
          "type": "uint256"
        }
      ],
      "stateMutability": "view",
      "type": "function"
    },
    {
      "inputs": [
        {
          "internalType": "string",
          "name": "",
          "type": "string"
        }
      ],
      "name": "emailToAddress",
      "outputs": [
        {
          "internalType": "address",
          "name": "",
          "type": "address"
        }
      ],
      "stateMutability": "view",
      "type": "function"
    },
    {
      "inputs": [],
      "name": "getAllRegisteredUsers",
      "outputs": [
        {
          "internalType": "address[]",
          "name": "",
          "type": "address[]"
        }
      ],
      "stateMutability": "view",
      "type": "function"
    },
    {
      "inputs": [
        {
          "internalType": "uint256",
          "name": "_docId",
          "type": "uint256"
        }
      ],
      "name": "getCurrentSigner",
      "outputs": [
        {
          "internalType": "address",
          "name": "",
          "type": "address"
        }
      ],
      "stateMutability": "view",
      "type": "function"
    },
    {
      "inputs": [
        {
          "internalType": "uint256",
          "name": "_docId",
          "type": "uint256"
        }
      ],
      "name": "getDocument",
      "outputs": [
        {
          "internalType": "string",
          "name": "ipfsHash",
          "type": "string"
        },
        {
          "internalType": "address",
          "name": "creator",
          "type": "address"
        },
        {
          "internalType": "address[]",
          "name": "signers",
          "type": "address[]"
        },
        {
          "internalType": "uint256",
          "name": "createdAt",
          "type": "uint256"
        },
        {
          "internalType": "uint256",
          "name": "signatureCount",
          "type": "uint256"
        },
        {
          "internalType": "bool",
          "name": "fullySigned",
          "type": "bool"
        },
        {
          "internalType": "bool",
          "name": "isRevoked",
          "type": "bool"
        }
      ],
      "stateMutability": "view",
      "type": "function"
    },
    {
      "inputs": [
        {
          "internalType": "uint256",
          "name": "_docId",
          "type": "uint256"
        },
        {
          "internalType": "address",
          "name": "_user",
          "type": "address"
        }
      ],
      "name": "getRole",
      "outputs": [
        {
          "internalType": "enum DocumentSign.Role",
          "name": "",
          "type": "uint8"
        }
      ],
      "stateMutability": "view",
      "type": "function"
    },
    {
      "inputs": [
        {
          "internalType": "uint256",
          "name": "_docId",
          "type": "uint256"
        },
        {
          "internalType": "address",
          "name": "_signer",
          "type": "address"
        }
      ],
      "name": "getSignTimestamp",
      "outputs": [
        {
          "internalType": "uint256",
          "name": "",
          "type": "uint256"
        }
      ],
      "stateMutability": "view",
      "type": "function"
    },
    {
      "inputs": [
        {
          "internalType": "uint256",
          "name": "_docId",
          "type": "uint256"
        },
        {
          "internalType": "address",
          "name": "_signer",
          "type": "address"
        }
      ],
      "name": "getSignature",
      "outputs": [
        {
          "internalType": "string",
          "name": "",
          "type": "string"
        }
      ],
      "stateMutability": "view",
      "type": "function"
    },
    {
      "inputs": [
        {
          "internalType": "address",
          "name": "user",
          "type": "address"
        }
      ],
      "name": "getUserProfile",
      "outputs": [
        {
          "internalType": "string",
          "name": "firstName",
          "type": "string"
        },
        {
          "internalType": "string",
          "name": "familyName",
          "type": "string"
        },
        {
          "internalType": "string",
          "name": "email",
          "type": "string"
        },
        {
          "internalType": "uint256",
          "name": "dob",
          "type": "uint256"
        },
        {
          "internalType": "bool",
          "name": "isRegistered",
          "type": "bool"
        },
        {
          "internalType": "string",
          "name": "publicKey",
          "type": "string"
        }
      ],
      "stateMutability": "view",
      "type": "function"
    },
    {
      "inputs": [
        {
          "internalType": "uint256",
          "name": "_docId",
          "type": "uint256"
        },
        {
          "internalType": "address",
          "name": "_signer",
          "type": "address"
        }
      ],
      "name": "hasSigned",
      "outputs": [
        {
          "internalType": "bool",
          "name": "",
          "type": "bool"
        }
      ],
      "stateMutability": "view",
      "type": "function"
    },
    {
      "inputs": [
        {
          "internalType": "uint256",
          "name": "_docId",
          "type": "uint256"
        }
      ],
      "name": "isExpired",
      "outputs": [
        {
          "internalType": "bool",
          "name": "",
          "type": "bool"
        }
      ],
      "stateMutability": "view",
      "type": "function"
    },
    {
      "inputs": [
        {
          "internalType": "address",
          "name": "_user",
          "type": "address"
        },
        {
          "internalType": "uint256",
          "name": "_docId",
          "type": "uint256"
        }
      ],
      "name": "isSigner",
      "outputs": [
        {
          "internalType": "bool",
          "name": "",
          "type": "bool"
        }
      ],
      "stateMutability": "view",
      "type": "function"
    },
    {
      "inputs": [
        {
          "internalType": "address",
          "name": "",
          "type": "address"
        }
      ],
      "name": "profiles",
      "outputs": [
        {
          "internalType": "string",
          "name": "firstName",
          "type": "string"
        },
        {
          "internalType": "string",
          "name": "familyName",
          "type": "string"
        },
        {
          "internalType": "string",
          "name": "email",
          "type": "string"
        },
        {
          "internalType": "uint256",
          "name": "dob",
          "type": "uint256"
        },
        {
          "internalType": "bool",
          "name": "isRegistered",
          "type": "bool"
        },
        {
          "internalType": "string",
          "name": "publicKey",
          "type": "string"
        }
      ],
      "stateMutability": "view",
      "type": "function"
    },
    {
      "inputs": [
        {
          "internalType": "string",
          "name": "firstName",
          "type": "string"
        },
        {
          "internalType": "string",
          "name": "familyName",
          "type": "string"
        },
        {
          "internalType": "string",
          "name": "email",
          "type": "string"
        },
        {
          "internalType": "uint256",
          "name": "dob",
          "type": "uint256"
        },
        {
          "internalType": "string",
          "name": "publicKey",
          "type": "string"
        }
      ],
      "name": "registerUser",
      "outputs": [],
      "stateMutability": "nonpayable",
      "type": "function"
    },
    {
      "inputs": [
        {
          "internalType": "uint256",
          "name": "",
          "type": "uint256"
        }
      ],
      "name": "registeredUsers",
      "outputs": [
        {
          "internalType": "address",
          "name": "",
          "type": "address"
        }
      ],
      "stateMutability": "view",
      "type": "function"
    },
    {
      "inputs": [
        {
          "internalType": "uint256",
          "name": "_docId",
          "type": "uint256"
        },
        {
          "internalType": "string",
          "name": "_reason",
          "type": "string"
        }
      ],
      "name": "revokeDocument",
      "outputs": [],
      "stateMutability": "nonpayable",
      "type": "function"
    },
    {
      "inputs": [
        {
          "internalType": "uint256",
          "name": "_docId",
          "type": "uint256"
        },
        {
          "internalType": "string",
          "name": "_signature",
          "type": "string"
        }
      ],
      "name": "signDocument",
      "outputs": [],
      "stateMutability": "nonpayable",
      "type": "function"
    },
    {
      "inputs": [
        {
          "internalType": "uint256",
          "name": "_docId",
          "type": "uint256"
        }
      ],
      "name": "signDocumentLegacy",
      "outputs": [],
      "stateMutability": "nonpayable",
      "type": "function"
    },
    {
      "inputs": [
        {
          "internalType": "uint256",
          "name": "_docId",
          "type": "uint256"
        },
        {
          "internalType": "address",
          "name": "_signer",
          "type": "address"
        },
        {
          "internalType": "bytes32",
          "name": "_documentHash",
          "type": "bytes32"
        },
        {
          "internalType": "bytes",
          "name": "_signature",
          "type": "bytes"
        }
      ],
      "name": "verifySignature",
      "outputs": [
        {
          "internalType": "bool",
          "name": "",
          "type": "bool"
        }
      ],
      "stateMutability": "view",
      "type": "function"
    }
  ],
  "bytecode": "0x608060405234801561001057600080fd5b5061472d806100206000396000f3fe608060405234801561001057600080fd5b50600436106101375760003560e01c8063987ee156116100b8578063c2a6ebfb1161007c578063c2a6ebfb146103bc578063cb561824146103d8578063d0e2a01914610408578063d9548e5314610424578063e0cd77b014610454578063ea78dcbf1461048457610137565b8063987ee156146102e8578063a5b16b2e1461031d578063b0cace061461033b578063b3bcd5cf14610357578063bbe156271461038757610137565b80635308cfa9116100ff5780635308cfa9146102205780635f372d561461023c578063709df8d9146102585780637259e0f81461028857806393552a3d146102b857610137565b80631b1ab53d1461013c57806328d787d91461016c578063397388af1461019c5780633f9b250a146101ba5780634e46a1e8146101f0575b600080fd5b61015660048036038101906101519190612d61565b6104b4565b6040516101639190612db0565b60405180910390f35b61018660048036038101906101819190612f47565b610511565b6040516101939190612fe5565b60405180910390f35b6101a46107a1565b6040516101b191906130be565b60405180910390f35b6101d460048036038101906101cf91906130e0565b61082f565b6040516101e7979695949392919061319b565b60405180910390f35b61020a60048036038101906102059190613218565b610ae3565b6040516102179190612fe5565b60405180910390f35b61023a600480360381019061023591906132f9565b610c2b565b005b610256600480360381019061025191906130e0565b611116565b005b610272600480360381019061026d9190612d61565b61156b565b60405161027f9190612fe5565b60405180910390f35b6102a2600480360381019061029d91906130e0565b6115d5565b6040516102af9190613355565b60405180910390f35b6102d260048036038101906102cd9190612d61565b611614565b6040516102df91906133e7565b60405180910390f35b61030260048036038101906102fd9190613402565b6116e0565b6040516103149695949392919061342f565b60405180910390f35b610325611a29565b6040516103329190612db0565b60405180910390f35b610355600480360381019061035091906134ac565b611a2f565b005b610371600480360381019061036c9190612d61565b611d7d565b60405161037e9190613597565b60405180910390f35b6103a1600480360381019061039c9190613402565b611e62565b6040516103b39695949392919061342f565b60405180910390f35b6103d660048036038101906103d191906135b9565b6120cb565b005b6103f260048036038101906103ed91906136f0565b6124c4565b6040516103ff9190612db0565b60405180910390f35b610422600480360381019061041d91906132f9565b61294e565b005b61043e600480360381019061043991906130e0565b612b66565b60405161044b9190612fe5565b60405180910390f35b61046e600480360381019061046991906130e0565b612b9d565b60405161047b9190613355565b60405180910390f35b61049e6004803603810190610499919061377b565b612c70565b6040516104ab9190613355565b60405180910390f35b600080600084815260200190815260200160002060050160008373ffffffffffffffffffffffffffffffffffffffff1673ffffffffffffffffffffffffffffffffffffffff16815260200190815260200160002054905092915050565b600080600086815260200190815260200160002060090160019054906101000a900460ff16610575576040517f08c379a000000000000000000000000000000000000000000000000000000000815260040161056c90613810565b60405180910390fd5b60008086815260200190815260200160002060040160008573ffffffffffffffffffffffffffffffffffffffff1673ffffffffffffffffffffffffffffffffffffffff16815260200190815260200160002060009054906101000a900460ff16610614576040517f08c379a000000000000000000000000000000000000000000000000000000000815260040161060b906138a2565b60405180910390fd5b6041825114610658576040517f08c379a000000000000000000000000000000000000000000000000000000000815260040161064f9061390e565b60405180910390fd5b60008360405160200161066b91906139a6565b60405160208183030381529060405280519060200120905060008060006020860151925060408601519150606086015160001a9050601b8160ff1610156106bc57601b816106b99190613a08565b90505b601b8160ff1614806106d15750601c8160ff16145b610710576040517f08c379a000000000000000000000000000000000000000000000000000000000815260040161070790613a89565b60405180910390fd5b6000600185838686604051600081526020016040526040516107359493929190613ac7565b6020604051602081039080840390855afa158015610757573d6000803e3d6000fd5b5050506020604051035190508873ffffffffffffffffffffffffffffffffffffffff168173ffffffffffffffffffffffffffffffffffffffff161495505050505050949350505050565b6060600380548060200260200160405190810160405280929190818152602001828054801561082557602002820191906000526020600020905b8160009054906101000a900473ffffffffffffffffffffffffffffffffffffffff1673ffffffffffffffffffffffffffffffffffffffff16815260200190600101908083116107db575b5050505050905090565b60606000606060008060008060008060008a815260200190815260200160002090508060090160019054906101000a900460ff166108a2576040517f08c379a000000000000000000000000000000000000000000000000000000000815260040161089990613810565b60405180910390fd5b60006001905060005b8260020180549050811015610969578260040160008460020183815481106108d6576108d5613b0c565b5b9060005260206000200160009054906101000a900473ffffffffffffffffffffffffffffffffffffffff1673ffffffffffffffffffffffffffffffffffffffff1673ffffffffffffffffffffffffffffffffffffffff16815260200190815260200160002060009054906101000a900460ff166109565760009150610969565b808061096190613b3b565b9150506108ab565b50816000018260010160009054906101000a900473ffffffffffffffffffffffffffffffffffffffff168360020184600701548560080154858760090160009054906101000a900460ff168680546109c090613bb2565b80601f01602080910402602001604051908101604052809291908181526020018280546109ec90613bb2565b8015610a395780601f10610a0e57610100808354040283529160200191610a39565b820191906000526020600020905b815481529060010190602001808311610a1c57829003601f168201915b5050505050965084805480602002602001604051908101604052809291908181526020018280548015610ac157602002820191906000526020600020905b8160009054906101000a900473ffffffffffffffffffffffffffffffffffffffff1673ffffffffffffffffffffffffffffffffffffffff1681526020019060010190808311610a77575b5050505050945098509850985098509850985098505050919395979092949650565b60008060008084815260200190815260200160002090508060090160019054906101000a900460ff16610b1a576000915050610c25565b8373ffffffffffffffffffffffffffffffffffffffff168160010160009054906101000a900473ffffffffffffffffffffffffffffffffffffffff1673ffffffffffffffffffffffffffffffffffffffff1603610b7b576001915050610c25565b60005b8160020180549050811015610c1e578473ffffffffffffffffffffffffffffffffffffffff16826002018281548110610bba57610bb9613b0c565b5b9060005260206000200160009054906101000a900473ffffffffffffffffffffffffffffffffffffffff1673ffffffffffffffffffffffffffffffffffffffff1603610c0b57600192505050610c25565b8080610c1690613b3b565b915050610b7e565b5060009150505b92915050565b8160008082815260200190815260200160002060090160019054906101000a900460ff16610c8e576040517f08c379a0000000000000000000000000000000000000000000000000000000008152600401610c8590613810565b60405180910390fd5b600280811115610ca157610ca0613370565b5b60008083815260200190815260200160002060030160003373ffffffffffffffffffffffffffffffffffffffff1673ffffffffffffffffffffffffffffffffffffffff16815260200190815260200160002060009054906101000a900460ff166002811115610d1357610d12613370565b5b14610d53576040517f08c379a0000000000000000000000000000000000000000000000000000000008152600401610d4a90613c2f565b60405180910390fd5b8260008082815260200190815260200160002060090160009054906101000a900460ff1615610db7576040517f08c379a0000000000000000000000000000000000000000000000000000000008152600401610dae90613c9b565b60405180910390fd5b60008060008681526020019081526020016000209050610dd685612b66565b15610e16576040517f08c379a0000000000000000000000000000000000000000000000000000000008152600401610e0d90613d07565b60405180910390fd5b8060040160003373ffffffffffffffffffffffffffffffffffffffff1673ffffffffffffffffffffffffffffffffffffffff16815260200190815260200160002060009054906101000a900460ff1615610ea5576040517f08c379a0000000000000000000000000000000000000000000000000000000008152600401610e9c90613d73565b60405180910390fd5b3373ffffffffffffffffffffffffffffffffffffffff168160020182600b015481548110610ed657610ed5613b0c565b5b9060005260206000200160009054906101000a900473ffffffffffffffffffffffffffffffffffffffff1673ffffffffffffffffffffffffffffffffffffffff1614610f57576040517f08c379a0000000000000000000000000000000000000000000000000000000008152600401610f4e90613ddf565b60405180910390fd5b6000845111610f9b576040517f08c379a0000000000000000000000000000000000000000000000000000000008152600401610f9290613e4b565b60405180910390fd5b60018160040160003373ffffffffffffffffffffffffffffffffffffffff1673ffffffffffffffffffffffffffffffffffffffff16815260200190815260200160002060006101000a81548160ff021916908315150217905550428160050160003373ffffffffffffffffffffffffffffffffffffffff1673ffffffffffffffffffffffffffffffffffffffff16815260200190815260200160002081905550838160060160003373ffffffffffffffffffffffffffffffffffffffff1673ffffffffffffffffffffffffffffffffffffffff16815260200190815260200160002090816110899190614017565b5080600801600081548092919061109f90613b3b565b919050555080600b0160008154809291906110b990613b3b565b91905055503373ffffffffffffffffffffffffffffffffffffffff16857f8c14a9d5f9e05ea3d9142fd74ae9dc73e6214837cd22e0622926450648a81edb42876040516111079291906140e9565b60405180910390a35050505050565b8060008082815260200190815260200160002060090160019054906101000a900460ff16611179576040517f08c379a000000000000000000000000000000000000000000000000000000000815260040161117090613810565b60405180910390fd5b60028081111561118c5761118b613370565b5b60008083815260200190815260200160002060030160003373ffffffffffffffffffffffffffffffffffffffff1673ffffffffffffffffffffffffffffffffffffffff16815260200190815260200160002060009054906101000a900460ff1660028111156111fe576111fd613370565b5b1461123e576040517f08c379a000000000000000000000000000000000000000000000000000000000815260040161123590613c2f565b60405180910390fd5b8160008082815260200190815260200160002060090160009054906101000a900460ff16156112a2576040517f08c379a000000000000000000000000000000000000000000000000000000000815260040161129990613c9b565b60405180910390fd5b600080600085815260200190815260200160002090506112c184612b66565b15611301576040517f08c379a00000000000000000000000000000000000000000000000000000000081526004016112f890613d07565b60405180910390fd5b8060040160003373ffffffffffffffffffffffffffffffffffffffff1673ffffffffffffffffffffffffffffffffffffffff16815260200190815260200160002060009054906101000a900460ff1615611390576040517f08c379a000000000000000000000000000000000000000000000000000000000815260040161138790613d73565b60405180910390fd5b3373ffffffffffffffffffffffffffffffffffffffff168160020182600b0154815481106113c1576113c0613b0c565b5b9060005260206000200160009054906101000a900473ffffffffffffffffffffffffffffffffffffffff1673ffffffffffffffffffffffffffffffffffffffff1614611442576040517f08c379a000000000000000000000000000000000000000000000000000000000815260040161143990613ddf565b60405180910390fd5b60018160040160003373ffffffffffffffffffffffffffffffffffffffff1673ffffffffffffffffffffffffffffffffffffffff16815260200190815260200160002060006101000a81548160ff021916908315150217905550428160050160003373ffffffffffffffffffffffffffffffffffffffff1673ffffffffffffffffffffffffffffffffffffffff168152602001908152602001600020819055508060080160008154809291906114f790613b3b565b919050555080600b01600081548092919061151190613b3b565b91905055503373ffffffffffffffffffffffffffffffffffffffff16847f8c14a9d5f9e05ea3d9142fd74ae9dc73e6214837cd22e0622926450648a81edb4260405161155d919061413f565b60405180910390a350505050565b600080600084815260200190815260200160002060040160008373ffffffffffffffffffffffffffffffffffffffff1673ffffffffffffffffffffffffffffffffffffffff16815260200190815260200160002060009054906101000a900460ff16905092915050565b600381815481106115e557600080fd5b906000526020600020016000915054906101000a900473ffffffffffffffffffffffffffffffffffffffff1681565b600080600084815260200190815260200160002060090160019054906101000a900460ff16611678576040517f08c379a000000000000000000000000000000000000000000000000000000000815260040161166f90613810565b60405180910390fd5b60008084815260200190815260200160002060030160008373ffffffffffffffffffffffffffffffffffffffff1673ffffffffffffffffffffffffffffffffffffffff16815260200190815260200160002060009054906101000a900460ff16905092915050565b60608060606000806060600260008873ffffffffffffffffffffffffffffffffffffffff1673ffffffffffffffffffffffffffffffffffffffff16815260200190815260200160002060040160009054906101000a900460ff16611779576040517f08c379a0000000000000000000000000000000000000000000000000000000008152600401611770906141b9565b60405180910390fd5b6000600260008973ffffffffffffffffffffffffffffffffffffffff1673ffffffffffffffffffffffffffffffffffffffff168152602001908152602001600020905080600001816001018260020183600301548460040160009054906101000a900460ff16856005018580546117ef90613bb2565b80601f016020809104026020016040519081016040528092919081815260200182805461181b90613bb2565b80156118685780601f1061183d57610100808354040283529160200191611868565b820191906000526020600020905b81548152906001019060200180831161184b57829003601f168201915b5050505050955084805461187b90613bb2565b80601f01602080910402602001604051908101604052809291908181526020018280546118a790613bb2565b80156118f45780601f106118c9576101008083540402835291602001916118f4565b820191906000526020600020905b8154815290600101906020018083116118d757829003601f168201915b5050505050945083805461190790613bb2565b80601f016020809104026020016040519081016040528092919081815260200182805461193390613bb2565b80156119805780601f1061195557610100808354040283529160200191611980565b820191906000526020600020905b81548152906001019060200180831161196357829003601f168201915b5050505050935080805461199390613bb2565b80601f01602080910402602001604051908101604052809291908181526020018280546119bf90613bb2565b8015611a0c5780601f106119e157610100808354040283529160200191611a0c565b820191906000526020600020905b8154815290600101906020018083116119ef57829003601f168201915b505050505090509650965096509650965096505091939550919395565b60015481565b600260003373ffffffffffffffffffffffffffffffffffffffff1673ffffffffffffffffffffffffffffffffffffffff16815260200190815260200160002060040160009054906101000a900460ff1615611abf576040517f08c379a0000000000000000000000000000000000000000000000000000000008152600401611ab690614225565b60405180910390fd5b600073ffffffffffffffffffffffffffffffffffffffff16600484604051611ae79190614276565b908152602001604051809103902060009054906101000a900473ffffffffffffffffffffffffffffffffffffffff1673ffffffffffffffffffffffffffffffffffffffff1614611b6c576040517f08c379a0000000000000000000000000000000000000000000000000000000008152600401611b63906142d9565b60405180910390fd5b6040518060c0016040528086815260200185815260200184815260200183815260200160011515815260200182815250600260003373ffffffffffffffffffffffffffffffffffffffff1673ffffffffffffffffffffffffffffffffffffffff1681526020019081526020016000206000820151816000019081611bf09190614017565b506020820151816001019081611c069190614017565b506040820151816002019081611c1c9190614017565b506060820151816003015560808201518160040160006101000a81548160ff02191690831515021790555060a0820151816005019081611c5c9190614017565b509050506003339080600181540180825580915050600190039060005260206000200160009091909190916101000a81548173ffffffffffffffffffffffffffffffffffffffff021916908373ffffffffffffffffffffffffffffffffffffffff16021790555033600484604051611cd49190614276565b908152602001604051809103902060006101000a81548173ffffffffffffffffffffffffffffffffffffffff021916908373ffffffffffffffffffffffffffffffffffffffff1602179055503373ffffffffffffffffffffffffffffffffffffffff167f78088310123490d67595b7b0e336cb2e2fc0f7df27ddd8950b8656c84413fb1b8686868686604051611d6e9594939291906142f9565b60405180910390a25050505050565b606060008084815260200190815260200160002060060160008373ffffffffffffffffffffffffffffffffffffffff1673ffffffffffffffffffffffffffffffffffffffff1681526020019081526020016000208054611ddc90613bb2565b80601f0160208091040260200160405190810160405280929190818152602001828054611e0890613bb2565b8015611e555780601f10611e2a57610100808354040283529160200191611e55565b820191906000526020600020905b815481529060010190602001808311611e3857829003601f168201915b5050505050905092915050565b6002602052806000526040600020600091509050806000018054611e8590613bb2565b80601f0160208091040260200160405190810160405280929190818152602001828054611eb190613bb2565b8015611efe5780601f10611ed357610100808354040283529160200191611efe565b820191906000526020600020905b815481529060010190602001808311611ee157829003601f168201915b505050505090806001018054611f1390613bb2565b80601f0160208091040260200160405190810160405280929190818152602001828054611f3f90613bb2565b8015611f8c5780601f10611f6157610100808354040283529160200191611f8c565b820191906000526020600020905b815481529060010190602001808311611f6f57829003601f168201915b505050505090806002018054611fa190613bb2565b80601f0160208091040260200160405190810160405280929190818152602001828054611fcd90613bb2565b801561201a5780601f10611fef5761010080835404028352916020019161201a565b820191906000526020600020905b815481529060010190602001808311611ffd57829003601f168201915b5050505050908060030154908060040160009054906101000a900460ff169080600501805461204890613bb2565b80601f016020809104026020016040519081016040528092919081815260200182805461207490613bb2565b80156120c15780601f10612096576101008083540402835291602001916120c1565b820191906000526020600020905b8154815290600101906020018083116120a457829003601f168201915b5050505050905086565b8260008082815260200190815260200160002060090160019054906101000a900460ff1661212e576040517f08c379a000000000000000000000000000000000000000000000000000000000815260040161212590613810565b60405180910390fd5b6001600281111561214257612141613370565b5b60008083815260200190815260200160002060030160003373ffffffffffffffffffffffffffffffffffffffff1673ffffffffffffffffffffffffffffffffffffffff16815260200190815260200160002060009054906101000a900460ff1660028111156121b4576121b3613370565b5b146121f4576040517f08c379a00000000000000000000000000000000000000000000000000000000081526004016121eb906143b4565b60405180910390fd5b8360008082815260200190815260200160002060090160009054906101000a900460ff1615612258576040517f08c379a000000000000000000000000000000000000000000000000000000000815260040161224f90613c9b565b60405180910390fd5b6000806000878152602001908152602001600020905061227786612b66565b156122b7576040517f08c379a00000000000000000000000000000000000000000000000000000000081526004016122ae90613d07565b60405180910390fd5b60006001905060005b826002018054905081101561237e578260040160008460020183815481106122eb576122ea613b0c565b5b9060005260206000200160009054906101000a900473ffffffffffffffffffffffffffffffffffffffff1673ffffffffffffffffffffffffffffffffffffffff1673ffffffffffffffffffffffffffffffffffffffff16815260200190815260200160002060009054906101000a900460ff1661236b576000915061237e565b808061237690613b3b565b9150506122c0565b5080156123c0576040517f08c379a00000000000000000000000000000000000000000000000000000000081526004016123b790614446565b60405180910390fd5b6000865111612404576040517f08c379a00000000000000000000000000000000000000000000000000000000081526004016123fb906144b2565b60405180910390fd5b600085146124585742851161244e576040517f08c379a00000000000000000000000000000000000000000000000000000000081526004016124459061451e565b60405180910390fd5b8482600a01819055505b858260000190816124699190614017565b503373ffffffffffffffffffffffffffffffffffffffff16877fd4af573228b33e73cdfacac0a74b920c7b511e2ff826fb63a2e0bb5790b54ebc88426040516124b392919061453e565b60405180910390a350505050505050565b600080845111612509576040517f08c379a0000000000000000000000000000000000000000000000000000000008152600401612500906144b2565b60405180910390fd5b600083511161254d576040517f08c379a0000000000000000000000000000000000000000000000000000000008152600401612544906145ba565b60405180910390fd5b600082148061255b57504282115b61259a576040517f08c379a00000000000000000000000000000000000000000000000000000000081526004016125919061451e565b60405180910390fd5b600160008154809291906125ad90613b3b565b9190505550600080600060015481526020019081526020016000209050848160000190816125db9190614017565b50338160010160006101000a81548173ffffffffffffffffffffffffffffffffffffffff021916908373ffffffffffffffffffffffffffffffffffffffff16021790555042816007018190555060018160090160016101000a81548160ff0219169083151502179055508281600a018190555060018160030160003373ffffffffffffffffffffffffffffffffffffffff1673ffffffffffffffffffffffffffffffffffffffff16815260200190815260200160002060006101000a81548160ff021916908360028111156126b3576126b2613370565b5b021790555060005b84518110156128eb57600073ffffffffffffffffffffffffffffffffffffffff168582815181106126ef576126ee613b0c565b5b602002602001015173ffffffffffffffffffffffffffffffffffffffff160361274d576040517f08c379a000000000000000000000000000000000000000000000000000000000815260040161274490614626565b60405180910390fd5b3373ffffffffffffffffffffffffffffffffffffffff1685828151811061277757612776613b0c565b5b602002602001015173ffffffffffffffffffffffffffffffffffffffff16036127d5576040517f08c379a00000000000000000000000000000000000000000000000000000000081526004016127cc90614692565b60405180910390fd5b816002018582815181106127ec576127eb613b0c565b5b60200260200101519080600181540180825580915050600190039060005260206000200160009091909190916101000a81548173ffffffffffffffffffffffffffffffffffffffff021916908373ffffffffffffffffffffffffffffffffffffffff160217905550600282600301600087848151811061286f5761286e613b0c565b5b602002602001015173ffffffffffffffffffffffffffffffffffffffff1673ffffffffffffffffffffffffffffffffffffffff16815260200190815260200160002060006101000a81548160ff021916908360028111156128d3576128d2613370565b5b021790555080806128e390613b3b565b9150506126bb565b503373ffffffffffffffffffffffffffffffffffffffff166001547f0f34f336d6e1cc231d161403dd583f287c90d4e144120937a223d9531afe848c878742604051612939939291906146b2565b60405180910390a36001549150509392505050565b8160008082815260200190815260200160002060090160019054906101000a900460ff166129b1576040517f08c379a00000000000000000000000000000000000000000000000000000000081526004016129a890613810565b60405180910390fd5b600160028111156129c5576129c4613370565b5b60008083815260200190815260200160002060030160003373ffffffffffffffffffffffffffffffffffffffff1673ffffffffffffffffffffffffffffffffffffffff16815260200190815260200160002060009054906101000a900460ff166002811115612a3757612a36613370565b5b14612a77576040517f08c379a0000000000000000000000000000000000000000000000000000000008152600401612a6e906143b4565b60405180910390fd5b8260008082815260200190815260200160002060090160009054906101000a900460ff1615612adb576040517f08c379a0000000000000000000000000000000000000000000000000000000008152600401612ad290613c9b565b60405180910390fd5b6000806000868152602001908152602001600020905060018160090160006101000a81548160ff0219169083151502179055503373ffffffffffffffffffffffffffffffffffffffff16857f7a58ff517c00037031f8886d9305cec9b4a44d1c1a04fc2ef4d7a5d7a09eede54287604051612b579291906140e9565b60405180910390a35050505050565b6000806000808481526020019081526020016000209050600081600a015414158015612b95575080600a015442115b915050919050565b60008060008084815260200190815260200160002090508060090160019054906101000a900460ff16612c05576040517f08c379a0000000000000000000000000000000000000000000000000000000008152600401612bfc90613810565b60405180910390fd5b806002018054905081600b01541015612c65578060020181600b015481548110612c3257612c31613b0c565b5b9060005260206000200160009054906101000a900473ffffffffffffffffffffffffffffffffffffffff16915050612c6b565b60009150505b919050565b6004818051602081018201805184825260208301602085012081835280955050505050506000915054906101000a900473ffffffffffffffffffffffffffffffffffffffff1681565b6000604051905090565b600080fd5b600080fd5b6000819050919050565b612ce081612ccd565b8114612ceb57600080fd5b50565b600081359050612cfd81612cd7565b92915050565b600073ffffffffffffffffffffffffffffffffffffffff82169050919050565b6000612d2e82612d03565b9050919050565b612d3e81612d23565b8114612d4957600080fd5b50565b600081359050612d5b81612d35565b92915050565b60008060408385031215612d7857612d77612cc3565b5b6000612d8685828601612cee565b9250506020612d9785828601612d4c565b9150509250929050565b612daa81612ccd565b82525050565b6000602082019050612dc56000830184612da1565b92915050565b6000819050919050565b612dde81612dcb565b8114612de957600080fd5b50565b600081359050612dfb81612dd5565b92915050565b600080fd5b600080fd5b6000601f19601f8301169050919050565b7f4e487b7100000000000000000000000000000000000000000000000000000000600052604160045260246000fd5b612e5482612e0b565b810181811067ffffffffffffffff82111715612e7357612e72612e1c565b5b80604052505050565b6000612e86612cb9565b9050612e928282612e4b565b919050565b600067ffffffffffffffff821115612eb257612eb1612e1c565b5b612ebb82612e0b565b9050602081019050919050565b82818337600083830152505050565b6000612eea612ee584612e97565b612e7c565b905082815260208101848484011115612f0657612f05612e06565b5b612f11848285612ec8565b509392505050565b600082601f830112612f2e57612f2d612e01565b5b8135612f3e848260208601612ed7565b91505092915050565b60008060008060808587031215612f6157612f60612cc3565b5b6000612f6f87828801612cee565b9450506020612f8087828801612d4c565b9350506040612f9187828801612dec565b925050606085013567ffffffffffffffff811115612fb257612fb1612cc8565b5b612fbe87828801612f19565b91505092959194509250565b60008115159050919050565b612fdf81612fca565b82525050565b6000602082019050612ffa6000830184612fd6565b92915050565b600081519050919050565b600082825260208201905092915050565b6000819050602082019050919050565b61303581612d23565b82525050565b6000613047838361302c565b60208301905092915050565b6000602082019050919050565b600061306b82613000565b613075818561300b565b93506130808361301c565b8060005b838110156130b1578151613098888261303b565b97506130a383613053565b925050600181019050613084565b5085935050505092915050565b600060208201905081810360008301526130d88184613060565b905092915050565b6000602082840312156130f6576130f5612cc3565b5b600061310484828501612cee565b91505092915050565b600081519050919050565b600082825260208201905092915050565b60005b8381101561314757808201518184015260208101905061312c565b60008484015250505050565b600061315e8261310d565b6131688185613118565b9350613178818560208601613129565b61318181612e0b565b840191505092915050565b61319581612d23565b82525050565b600060e08201905081810360008301526131b5818a613153565b90506131c4602083018961318c565b81810360408301526131d68188613060565b90506131e56060830187612da1565b6131f26080830186612da1565b6131ff60a0830185612fd6565b61320c60c0830184612fd6565b98975050505050505050565b6000806040838503121561322f5761322e612cc3565b5b600061323d85828601612d4c565b925050602061324e85828601612cee565b9150509250929050565b600067ffffffffffffffff82111561327357613272612e1c565b5b61327c82612e0b565b9050602081019050919050565b600061329c61329784613258565b612e7c565b9050828152602081018484840111156132b8576132b7612e06565b5b6132c3848285612ec8565b509392505050565b600082601f8301126132e0576132df612e01565b5b81356132f0848260208601613289565b91505092915050565b600080604083850312156133105761330f612cc3565b5b600061331e85828601612cee565b925050602083013567ffffffffffffffff81111561333f5761333e612cc8565b5b61334b858286016132cb565b9150509250929050565b600060208201905061336a600083018461318c565b92915050565b7f4e487b7100000000000000000000000000000000000000000000000000000000600052602160045260246000fd5b600381106133b0576133af613370565b5b50565b60008190506133c18261339f565b919050565b60006133d1826133b3565b9050919050565b6133e1816133c6565b82525050565b60006020820190506133fc60008301846133d8565b92915050565b60006020828403121561341857613417612cc3565b5b600061342684828501612d4c565b91505092915050565b600060c08201905081810360008301526134498189613153565b9050818103602083015261345d8188613153565b905081810360408301526134718187613153565b90506134806060830186612da1565b61348d6080830185612fd6565b81810360a083015261349f8184613153565b9050979650505050505050565b600080600080600060a086880312156134c8576134c7612cc3565b5b600086013567ffffffffffffffff8111156134e6576134e5612cc8565b5b6134f2888289016132cb565b955050602086013567ffffffffffffffff81111561351357613512612cc8565b5b61351f888289016132cb565b945050604086013567ffffffffffffffff8111156135405761353f612cc8565b5b61354c888289016132cb565b935050606061355d88828901612cee565b925050608086013567ffffffffffffffff81111561357e5761357d612cc8565b5b61358a888289016132cb565b9150509295509295909350565b600060208201905081810360008301526135b18184613153565b905092915050565b6000806000606084860312156135d2576135d1612cc3565b5b60006135e086828701612cee565b935050602084013567ffffffffffffffff81111561360157613600612cc8565b5b61360d868287016132cb565b925050604061361e86828701612cee565b9150509250925092565b600067ffffffffffffffff82111561364357613642612e1c565b5b602082029050602081019050919050565b600080fd5b600061366c61366784613628565b612e7c565b9050808382526020820190506020840283018581111561368f5761368e613654565b5b835b818110156136b857806136a48882612d4c565b845260208401935050602081019050613691565b5050509392505050565b600082601f8301126136d7576136d6612e01565b5b81356136e7848260208601613659565b91505092915050565b60008060006060848603121561370957613708612cc3565b5b600084013567ffffffffffffffff81111561372757613726612cc8565b5b613733868287016132cb565b935050602084013567ffffffffffffffff81111561375457613753612cc8565b5b613760868287016136c2565b925050604061377186828701612cee565b9150509250925092565b60006020828403121561379157613790612cc3565b5b600082013567ffffffffffffffff8111156137af576137ae612cc8565b5b6137bb848285016132cb565b91505092915050565b7f446f63756d656e7420646f6573206e6f74206578697374000000000000000000600082015250565b60006137fa601783613118565b9150613805826137c4565b602082019050919050565b60006020820190508181036000830152613829816137ed565b9050919050565b7f5369676e657220686173206e6f74207369676e6564207468697320646f63756d60008201527f656e740000000000000000000000000000000000000000000000000000000000602082015250565b600061388c602383613118565b915061389782613830565b604082019050919050565b600060208201905081810360008301526138bb8161387f565b9050919050565b7f496e76616c6964207369676e6174757265206c656e6774680000000000000000600082015250565b60006138f8601883613118565b9150613903826138c2565b602082019050919050565b60006020820190508181036000830152613927816138eb565b9050919050565b600081905092915050565b7f19457468657265756d205369676e6564204d6573736167653a0a333200000000600082015250565b600061396f601c8361392e565b915061397a82613939565b601c82019050919050565b6000819050919050565b6139a061399b82612dcb565b613985565b82525050565b60006139b182613962565b91506139bd828461398f565b60208201915081905092915050565b600060ff82169050919050565b7f4e487b7100000000000000000000000000000000000000000000000000000000600052601160045260246000fd5b6000613a13826139cc565b9150613a1e836139cc565b9250828201905060ff811115613a3757613a366139d9565b5b92915050565b7f496e76616c6964207369676e6174757265202776272076616c75650000000000600082015250565b6000613a73601b83613118565b9150613a7e82613a3d565b602082019050919050565b60006020820190508181036000830152613aa281613a66565b9050919050565b613ab281612dcb565b82525050565b613ac1816139cc565b82525050565b6000608082019050613adc6000830187613aa9565b613ae96020830186613ab8565b613af66040830185613aa9565b613b036060830184613aa9565b95945050505050565b7f4e487b7100000000000000000000000000000000000000000000000000000000600052603260045260246000fd5b6000613b4682612ccd565b91507fffffffffffffffffffffffffffffffffffffffffffffffffffffffffffffffff8203613b7857613b776139d9565b5b600182019050919050565b7f4e487b7100000000000000000000000000000000000000000000000000000000600052602260045260246000fd5b60006002820490506001821680613bca57607f821691505b602082108103613bdd57613bdc613b83565b5b50919050565b7f4e6f7420617574686f72697a6564207369676e65720000000000000000000000600082015250565b6000613c19601583613118565b9150613c2482613be3565b602082019050919050565b60006020820190508181036000830152613c4881613c0c565b9050919050565b7f446f63756d656e74206973207265766f6b656400000000000000000000000000600082015250565b6000613c85601383613118565b9150613c9082613c4f565b602082019050919050565b60006020820190508181036000830152613cb481613c78565b9050919050565b7f446f63756d656e74206578706972656400000000000000000000000000000000600082015250565b6000613cf1601083613118565b9150613cfc82613cbb565b602082019050919050565b60006020820190508181036000830152613d2081613ce4565b9050919050565b7f416c7265616479207369676e6564000000000000000000000000000000000000600082015250565b6000613d5d600e83613118565b9150613d6882613d27565b602082019050919050565b60006020820190508181036000830152613d8c81613d50565b9050919050565b7f4e6f7420796f7572207475726e20746f207369676e0000000000000000000000600082015250565b6000613dc9601583613118565b9150613dd482613d93565b602082019050919050565b60006020820190508181036000830152613df881613dbc565b9050919050565b7f5369676e61747572652072657175697265640000000000000000000000000000600082015250565b6000613e35601283613118565b9150613e4082613dff565b602082019050919050565b60006020820190508181036000830152613e6481613e28565b9050919050565b60008190508160005260206000209050919050565b60006020601f8301049050919050565b600082821b905092915050565b600060088302613ecd7fffffffffffffffffffffffffffffffffffffffffffffffffffffffffffffffff82613e90565b613ed78683613e90565b95508019841693508086168417925050509392505050565b6000819050919050565b6000613f14613f0f613f0a84612ccd565b613eef565b612ccd565b9050919050565b6000819050919050565b613f2e83613ef9565b613f42613f3a82613f1b565b848454613e9d565b825550505050565b600090565b613f57613f4a565b613f62818484613f25565b505050565b5b81811015613f8657613f7b600082613f4f565b600181019050613f68565b5050565b601f821115613fcb57613f9c81613e6b565b613fa584613e80565b81016020851015613fb4578190505b613fc8613fc085613e80565b830182613f67565b50505b505050565b600082821c905092915050565b6000613fee60001984600802613fd0565b1980831691505092915050565b60006140078383613fdd565b9150826002028217905092915050565b6140208261310d565b67ffffffffffffffff81111561403957614038612e1c565b5b6140438254613bb2565b61404e828285613f8a565b600060209050601f831160018114614081576000841561406f578287015190505b6140798582613ffb565b8655506140e1565b601f19841661408f86613e6b565b60005b828110156140b757848901518255600182019150602085019450602081019050614092565b868310156140d457848901516140d0601f891682613fdd565b8355505b6001600288020188555050505b505050505050565b60006040820190506140fe6000830185612da1565b81810360208301526141108184613153565b90509392505050565b50565b6000614129600083613118565b915061413482614119565b600082019050919050565b60006040820190506141546000830184612da1565b81810360208301526141658161411c565b905092915050565b7f55736572206e6f74207265676973746572656400000000000000000000000000600082015250565b60006141a3601383613118565b91506141ae8261416d565b602082019050919050565b600060208201905081810360008301526141d281614196565b9050919050565b7f416c726561647920726567697374657265640000000000000000000000000000600082015250565b600061420f601283613118565b915061421a826141d9565b602082019050919050565b6000602082019050818103600083015261423e81614202565b9050919050565b60006142508261310d565b61425a818561392e565b935061426a818560208601613129565b80840191505092915050565b60006142828284614245565b915081905092915050565b7f456d61696c20616c726561647920726567697374657265640000000000000000600082015250565b60006142c3601883613118565b91506142ce8261428d565b602082019050919050565b600060208201905081810360008301526142f2816142b6565b9050919050565b600060a08201905081810360008301526143138188613153565b905081810360208301526143278187613153565b9050818103604083015261433b8186613153565b905061434a6060830185612da1565b818103608083015261435c8184613153565b90509695505050505050565b7f4e6f7420646f63756d656e74206f776e65720000000000000000000000000000600082015250565b600061439e601283613118565b91506143a982614368565b602082019050919050565b600060208201905081810360008301526143cd81614391565b9050919050565b7f43616e6e6f7420616d656e642066756c6c79207369676e656420646f63756d6560008201527f6e74000000000000000000000000000000000000000000000000000000000000602082015250565b6000614430602283613118565b915061443b826143d4565b604082019050919050565b6000602082019050818103600083015261445f81614423565b9050919050565b7f4950465320686173682072657175697265640000000000000000000000000000600082015250565b600061449c601283613118565b91506144a782614466565b602082019050919050565b600060208201905081810360008301526144cb8161448f565b9050919050565b7f457870697279206d75737420626520696e207468652066757475726500000000600082015250565b6000614508601c83613118565b9150614513826144d2565b602082019050919050565b60006020820190508181036000830152614537816144fb565b9050919050565b600060408201905081810360008301526145588185613153565b90506145676020830184612da1565b9392505050565b7f4174206c65617374206f6e65207369676e657220726571756972656400000000600082015250565b60006145a4601c83613118565b91506145af8261456e565b602082019050919050565b600060208201905081810360008301526145d381614597565b9050919050565b7f496e76616c6964207369676e6572206164647265737300000000000000000000600082015250565b6000614610601683613118565b915061461b826145da565b602082019050919050565b6000602082019050818103600083015261463f81614603565b9050919050565b7f4f776e65722063616e6e6f74206265207369676e657200000000000000000000600082015250565b600061467c601683613118565b915061468782614646565b602082019050919050565b600060208201905081810360008301526146ab8161466f565b9050919050565b600060608201905081810360008301526146cc8186613153565b905081810360208301526146e08185613060565b90506146ef6040830184612da1565b94935050505056fea2646970667358221220851d6c2dacbb667a5829376a8a4b00a40765cc3145640d696589c22789dcd20b64736f6c63430008150033",
  "linkReferences": {},
  "deployedLinkReferences": {}
}