{
  "_format": "hh-sol-artifact-1",
  "contractName": "DocumentSign",
  "sourceName": "contracts/Docu3.sol",
  "abi": [
    {
      "anonymous": false,
      "inputs": [
        {
          "indexed": true,
          "internalType": "uint256",
          "name": "docId",
          "type": "uint256"
        },
        {
          "indexed": false,
          "internalType": "string",
          "name": "newIpfsHash",
          "type": "string"
        },
        {
          "indexed": true,
          "internalType": "address",
          "name": "editor",
          "type": "address"
        },
        {
          "indexed": false,
          "internalType": "uint256",
          "name": "amendedAt",
          "type": "uint256"
        }
      ],
      "name": "DocumentAmended",
      "type": "event"
    },
    {
      "anonymous": false,
      "inputs": [
        {
          "indexed": true,
          "internalType": "uint256",
          "name": "docId",
          "type": "uint256"
        },
        {
          "indexed": false,
          "internalType": "string",
          "name": "ipfsHash",
          "type": "string"
        },
        {
          "indexed": true,
          "internalType": "address",
          "name": "creator",
          "type": "address"
        },
        {
          "indexed": false,
          "internalType": "address[]",
          "name": "signers",
          "type": "address[]"
        },
        {
          "indexed": false,
          "internalType": "uint256",
          "name": "createdAt",
          "type": "uint256"
        }
      ],
      "name": "DocumentCreated",
      "type": "event"
    },
    {
      "anonymous": false,
      "inputs": [
        {
          "indexed": true,
          "internalType": "uint256",
          "name": "docId",
          "type": "uint256"
        },
        {
          "indexed": false,
          "internalType": "uint256",
          "name": "expiredAt",
          "type": "uint256"
        }
      ],
      "name": "DocumentExpired",
      "type": "event"
    },
    {
      "anonymous": false,
      "inputs": [
        {
          "indexed": true,
          "internalType": "uint256",
          "name": "docId",
          "type": "uint256"
        },
        {
          "indexed": true,
          "internalType": "address",
          "name": "revoker",
          "type": "address"
        },
        {
          "indexed": false,
          "internalType": "uint256",
          "name": "revokedAt",
          "type": "uint256"
        },
        {
          "indexed": false,
          "internalType": "string",
          "name": "reason",
          "type": "string"
        }
      ],
      "name": "DocumentRevoked",
      "type": "event"
    },
    {
      "anonymous": false,
      "inputs": [
        {
          "indexed": true,
          "internalType": "uint256",
          "name": "docId",
          "type": "uint256"
        },
        {
          "indexed": true,
          "internalType": "address",
          "name": "signer",
          "type": "address"
        },
        {
          "indexed": false,
          "internalType": "uint256",
          "name": "signedAt",
          "type": "uint256"
        },
        {
          "indexed": false,
          "internalType": "string",
          "name": "signature",
          "type": "string"
        }
      ],
      "name": "DocumentSigned",
      "type": "event"
    },
    {
      "anonymous": false,
      "inputs": [
        {
          "indexed": true,
          "internalType": "address",
          "name": "user",
          "type": "address"
        },
        {
          "indexed": false,
          "internalType": "string",
          "name": "firstName",
          "type": "string"
        },
        {
          "indexed": false,
          "internalType": "string",
          "name": "familyName",
          "type": "string"
        },
        {
          "indexed": false,
          "internalType": "string",
          "name": "email",
          "type": "string"
        },
        {
          "indexed": false,
          "internalType": "uint256",
          "name": "dob",
          "type": "uint256"
        },
        {
          "indexed": false,
          "internalType": "string",
          "name": "publicKey",
          "type": "string"
        }
      ],
      "name": "UserRegistered",
      "type": "event"
    },
    {
      "inputs": [
        {
          "internalType": "uint256",
          "name": "_docId",
          "type": "uint256"
        },
        {
          "internalType": "string",
          "name": "_newIpfsHash",
          "type": "string"
        },
        {
          "internalType": "uint256",
          "name": "_newExpiry",
          "type": "uint256"
        }
      ],
      "name": "amendDocument",
      "outputs": [],
      "stateMutability": "nonpayable",
      "type": "function"
    },
    {
      "inputs": [
        {
          "internalType": "string",
          "name": "_ipfsHash",
          "type": "string"
        },
        {
          "internalType": "address[]",
          "name": "_signers",
          "type": "address[]"
        },
        {
          "internalType": "uint256",
          "name": "_expiry",
          "type": "uint256"
        }
      ],
      "name": "createDocument",
      "outputs": [
        {
          "internalType": "uint256",
          "name": "",
          "type": "uint256"
        }
      ],
      "stateMutability": "nonpayable",
      "type": "function"
    },
    {
      "inputs": [],
      "name": "documentCount",
      "outputs": [
        {
          "internalType": "uint256",
          "name": "",
          "type": "uint256"
        }
      ],
      "stateMutability": "view",
      "type": "function"
    },
    {
      "inputs": [
        {
          "internalType": "string",
          "name": "",
          "type": "string"
        }
      ],
      "name": "emailToAddress",
      "outputs": [
        {
          "internalType": "address",
          "name": "",
          "type": "address"
        }
      ],
      "stateMutability": "view",
      "type": "function"
    },
    {
      "inputs": [],
      "name": "getAllRegisteredUsers",
      "outputs": [
        {
          "internalType": "address[]",
          "name": "",
          "type": "address[]"
        }
      ],
      "stateMutability": "view",
      "type": "function"
    },
    {
      "inputs": [
        {
          "internalType": "uint256",
          "name": "_docId",
          "type": "uint256"
        }
      ],
      "name": "getCurrentSigner",
      "outputs": [
        {
          "internalType": "address",
          "name": "",
          "type": "address"
        }
      ],
      "stateMutability": "view",
      "type": "function"
    },
    {
      "inputs": [
        {
          "internalType": "uint256",
          "name": "_docId",
          "type": "uint256"
        }
      ],
      "name": "getDocument",
      "outputs": [
        {
          "internalType": "string",
          "name": "ipfsHash",
          "type": "string"
        },
        {
          "internalType": "address",
          "name": "creator",
          "type": "address"
        },
        {
          "internalType": "address[]",
          "name": "signers",
          "type": "address[]"
        },
        {
          "internalType": "uint256",
          "name": "createdAt",
          "type": "uint256"
        },
        {
          "internalType": "uint256",
          "name": "signatureCount",
          "type": "uint256"
        },
        {
          "internalType": "bool",
          "name": "fullySigned",
          "type": "bool"
        },
        {
          "internalType": "bool",
          "name": "isRevoked",
          "type": "bool"
        }
      ],
      "stateMutability": "view",
      "type": "function"
    },
    {
      "inputs": [
        {
          "internalType": "uint256",
          "name": "_docId",
          "type": "uint256"
        },
        {
          "internalType": "address",
          "name": "_user",
          "type": "address"
        }
      ],
      "name": "getRole",
      "outputs": [
        {
          "internalType": "enum DocumentSign.Role",
          "name": "",
          "type": "uint8"
        }
      ],
      "stateMutability": "view",
      "type": "function"
    },
    {
      "inputs": [
        {
          "internalType": "uint256",
          "name": "_docId",
          "type": "uint256"
        },
        {
          "internalType": "address",
          "name": "_signer",
          "type": "address"
        }
      ],
      "name": "getSignTimestamp",
      "outputs": [
        {
          "internalType": "uint256",
          "name": "",
          "type": "uint256"
        }
      ],
      "stateMutability": "view",
      "type": "function"
    },
    {
      "inputs": [
        {
          "internalType": "uint256",
          "name": "_docId",
          "type": "uint256"
        },
        {
          "internalType": "address",
          "name": "_signer",
          "type": "address"
        }
      ],
      "name": "getSignature",
      "outputs": [
        {
          "internalType": "string",
          "name": "",
          "type": "string"
        }
      ],
      "stateMutability": "view",
      "type": "function"
    },
    {
      "inputs": [
        {
          "internalType": "address",
          "name": "user",
          "type": "address"
        }
      ],
      "name": "getUserProfile",
      "outputs": [
        {
          "internalType": "string",
          "name": "firstName",
          "type": "string"
        },
        {
          "internalType": "string",
          "name": "familyName",
          "type": "string"
        },
        {
          "internalType": "string",
          "name": "email",
          "type": "string"
        },
        {
          "internalType": "uint256",
          "name": "dob",
          "type": "uint256"
        },
        {
          "internalType": "bool",
          "name": "isRegistered",
          "type": "bool"
        },
        {
          "internalType": "string",
          "name": "publicKey",
          "type": "string"
        }
      ],
      "stateMutability": "view",
      "type": "function"
    },
    {
      "inputs": [
        {
          "internalType": "uint256",
          "name": "_docId",
          "type": "uint256"
        },
        {
          "internalType": "address",
          "name": "_signer",
          "type": "address"
        }
      ],
      "name": "hasSigned",
      "outputs": [
        {
          "internalType": "bool",
          "name": "",
          "type": "bool"
        }
      ],
      "stateMutability": "view",
      "type": "function"
    },
    {
      "inputs": [
        {
          "internalType": "uint256",
          "name": "_docId",
          "type": "uint256"
        }
      ],
      "name": "isExpired",
      "outputs": [
        {
          "internalType": "bool",
          "name": "",
          "type": "bool"
        }
      ],
      "stateMutability": "view",
      "type": "function"
    },
    {
      "inputs": [
        {
          "internalType": "address",
          "name": "_user",
          "type": "address"
        },
        {
          "internalType": "uint256",
          "name": "_docId",
          "type": "uint256"
        }
      ],
      "name": "isSigner",
      "outputs": [
        {
          "internalType": "bool",
          "name": "",
          "type": "bool"
        }
      ],
      "stateMutability": "view",
      "type": "function"
    },
    {
      "inputs": [
        {
          "internalType": "address",
          "name": "",
          "type": "address"
        }
      ],
      "name": "profiles",
      "outputs": [
        {
          "internalType": "string",
          "name": "firstName",
          "type": "string"
        },
        {
          "internalType": "string",
          "name": "familyName",
          "type": "string"
        },
        {
          "internalType": "string",
          "name": "email",
          "type": "string"
        },
        {
          "internalType": "uint256",
          "name": "dob",
          "type": "uint256"
        },
        {
          "internalType": "bool",
          "name": "isRegistered",
          "type": "bool"
        },
        {
          "internalType": "string",
          "name": "publicKey",
          "type": "string"
        }
      ],
      "stateMutability": "view",
      "type": "function"
    },
    {
      "inputs": [
        {
          "internalType": "string",
          "name": "firstName",
          "type": "string"
        },
        {
          "internalType": "string",
          "name": "familyName",
          "type": "string"
        },
        {
          "internalType": "string",
          "name": "email",
          "type": "string"
        },
        {
          "internalType": "uint256",
          "name": "dob",
          "type": "uint256"
        },
        {
          "internalType": "string",
          "name": "publicKey",
          "type": "string"
        }
      ],
      "name": "registerUser",
      "outputs": [],
      "stateMutability": "nonpayable",
      "type": "function"
    },
    {
      "inputs": [
        {
          "internalType": "uint256",
          "name": "",
          "type": "uint256"
        }
      ],
      "name": "registeredUsers",
      "outputs": [
        {
          "internalType": "address",
          "name": "",
          "type": "address"
        }
      ],
      "stateMutability": "view",
      "type": "function"
    },
    {
      "inputs": [
        {
          "internalType": "uint256",
          "name": "_docId",
          "type": "uint256"
        },
        {
          "internalType": "string",
          "name": "_reason",
          "type": "string"
        }
      ],
      "name": "revokeDocument",
      "outputs": [],
      "stateMutability": "nonpayable",
      "type": "function"
    },
    {
      "inputs": [
        {
          "internalType": "uint256",
          "name": "_docId",
          "type": "uint256"
        },
        {
          "internalType": "string",
          "name": "_signature",
          "type": "string"
        }
      ],
      "name": "signDocument",
      "outputs": [],
      "stateMutability": "nonpayable",
      "type": "function"
    },
    {
      "inputs": [
        {
          "internalType": "uint256",
          "name": "_docId",
          "type": "uint256"
        }
      ],
      "name": "signDocumentLegacy",
      "outputs": [],
      "stateMutability": "nonpayable",
      "type": "function"
    },
    {
      "inputs": [
        {
          "internalType": "uint256",
          "name": "_docId",
          "type": "uint256"
        },
        {
          "internalType": "address",
          "name": "_signer",
          "type": "address"
        },
        {
          "internalType": "bytes32",
          "name": "_documentHash",
          "type": "bytes32"
        },
        {
          "internalType": "bytes",
          "name": "_signature",
          "type": "bytes"
        }
      ],
      "name": "verifySignature",
      "outputs": [
        {
          "internalType": "bool",
          "name": "",
          "type": "bool"
        }
      ],
      "stateMutability": "view",
      "type": "function"
    }
  ],
  "bytecode": "0x608060405234801561001057600080fd5b50614639806100206000396000f3fe608060405234801561001057600080fd5b50600436106101375760003560e01c8063987ee156116100b8578063c2a6ebfb1161007c578063c2a6ebfb146103bc578063cb561824146103d8578063d0e2a01914610408578063d9548e5314610424578063e0cd77b014610454578063ea78dcbf1461048457610137565b8063987ee156146102e8578063a5b16b2e1461031d578063b0cace061461033b578063b3bcd5cf14610357578063bbe156271461038757610137565b80635308cfa9116100ff5780635308cfa9146102205780635f372d561461023c578063709df8d9146102585780637259e0f81461028857806393552a3d146102b857610137565b80631b1ab53d1461013c57806328d787d91461016c578063397388af1461019c5780633f9b250a146101ba5780634e46a1e8146101f0575b600080fd5b61015660048036038101906101519190612cd9565b6104b4565b6040516101639190612d28565b60405180910390f35b61018660048036038101906101819190612ebf565b610511565b6040516101939190612f5d565b60405180910390f35b6101a46107a1565b6040516101b19190613036565b60405180910390f35b6101d460048036038101906101cf9190613058565b61082f565b6040516101e79796959493929190613113565b60405180910390f35b61020a60048036038101906102059190613190565b610ae3565b6040516102179190612f5d565b60405180910390f35b61023a60048036038101906102359190613271565b610c2b565b005b61025660048036038101906102519190613058565b611116565b005b610272600480360381019061026d9190612cd9565b61156b565b60405161027f9190612f5d565b60405180910390f35b6102a2600480360381019061029d9190613058565b6115d5565b6040516102af91906132cd565b60405180910390f35b6102d260048036038101906102cd9190612cd9565b611614565b6040516102df919061335f565b60405180910390f35b61030260048036038101906102fd919061337a565b6116e0565b604051610314969594939291906133a7565b60405180910390f35b610325611a29565b6040516103329190612d28565b60405180910390f35b61035560048036038101906103509190613424565b611a2f565b005b610371600480360381019061036c9190612cd9565b611d7d565b60405161037e919061350f565b60405180910390f35b6103a1600480360381019061039c919061337a565b611e62565b6040516103b3969594939291906133a7565b60405180910390f35b6103d660048036038101906103d19190613531565b6120cb565b005b6103f260048036038101906103ed9190613668565b6124c4565b6040516103ff9190612d28565b60405180910390f35b610422600480360381019061041d9190613271565b6128c6565b005b61043e60048036038101906104399190613058565b612ade565b60405161044b9190612f5d565b60405180910390f35b61046e60048036038101906104699190613058565b612b15565b60405161047b91906132cd565b60405180910390f35b61049e600480360381019061049991906136f3565b612be8565b6040516104ab91906132cd565b60405180910390f35b600080600084815260200190815260200160002060050160008373ffffffffffffffffffffffffffffffffffffffff1673ffffffffffffffffffffffffffffffffffffffff16815260200190815260200160002054905092915050565b600080600086815260200190815260200160002060090160019054906101000a900460ff16610575576040517f08c379a000000000000000000000000000000000000000000000000000000000815260040161056c90613788565b60405180910390fd5b60008086815260200190815260200160002060040160008573ffffffffffffffffffffffffffffffffffffffff1673ffffffffffffffffffffffffffffffffffffffff16815260200190815260200160002060009054906101000a900460ff16610614576040517f08c379a000000000000000000000000000000000000000000000000000000000815260040161060b9061381a565b60405180910390fd5b6041825114610658576040517f08c379a000000000000000000000000000000000000000000000000000000000815260040161064f90613886565b60405180910390fd5b60008360405160200161066b919061391e565b60405160208183030381529060405280519060200120905060008060006020860151925060408601519150606086015160001a9050601b8160ff1610156106bc57601b816106b99190613980565b90505b601b8160ff1614806106d15750601c8160ff16145b610710576040517f08c379a000000000000000000000000000000000000000000000000000000000815260040161070790613a01565b60405180910390fd5b6000600185838686604051600081526020016040526040516107359493929190613a3f565b6020604051602081039080840390855afa158015610757573d6000803e3d6000fd5b5050506020604051035190508873ffffffffffffffffffffffffffffffffffffffff168173ffffffffffffffffffffffffffffffffffffffff161495505050505050949350505050565b6060600380548060200260200160405190810160405280929190818152602001828054801561082557602002820191906000526020600020905b8160009054906101000a900473ffffffffffffffffffffffffffffffffffffffff1673ffffffffffffffffffffffffffffffffffffffff16815260200190600101908083116107db575b5050505050905090565b60606000606060008060008060008060008a815260200190815260200160002090508060090160019054906101000a900460ff166108a2576040517f08c379a000000000000000000000000000000000000000000000000000000000815260040161089990613788565b60405180910390fd5b60006001905060005b8260020180549050811015610969578260040160008460020183815481106108d6576108d5613a84565b5b9060005260206000200160009054906101000a900473ffffffffffffffffffffffffffffffffffffffff1673ffffffffffffffffffffffffffffffffffffffff1673ffffffffffffffffffffffffffffffffffffffff16815260200190815260200160002060009054906101000a900460ff166109565760009150610969565b808061096190613ab3565b9150506108ab565b50816000018260010160009054906101000a900473ffffffffffffffffffffffffffffffffffffffff168360020184600701548560080154858760090160009054906101000a900460ff168680546109c090613b2a565b80601f01602080910402602001604051908101604052809291908181526020018280546109ec90613b2a565b8015610a395780601f10610a0e57610100808354040283529160200191610a39565b820191906000526020600020905b815481529060010190602001808311610a1c57829003601f168201915b5050505050965084805480602002602001604051908101604052809291908181526020018280548015610ac157602002820191906000526020600020905b8160009054906101000a900473ffffffffffffffffffffffffffffffffffffffff1673ffffffffffffffffffffffffffffffffffffffff1681526020019060010190808311610a77575b5050505050945098509850985098509850985098505050919395979092949650565b60008060008084815260200190815260200160002090508060090160019054906101000a900460ff16610b1a576000915050610c25565b8373ffffffffffffffffffffffffffffffffffffffff168160010160009054906101000a900473ffffffffffffffffffffffffffffffffffffffff1673ffffffffffffffffffffffffffffffffffffffff1603610b7b576001915050610c25565b60005b8160020180549050811015610c1e578473ffffffffffffffffffffffffffffffffffffffff16826002018281548110610bba57610bb9613a84565b5b9060005260206000200160009054906101000a900473ffffffffffffffffffffffffffffffffffffffff1673ffffffffffffffffffffffffffffffffffffffff1603610c0b57600192505050610c25565b8080610c1690613ab3565b915050610b7e565b5060009150505b92915050565b8160008082815260200190815260200160002060090160019054906101000a900460ff16610c8e576040517f08c379a0000000000000000000000000000000000000000000000000000000008152600401610c8590613788565b60405180910390fd5b600280811115610ca157610ca06132e8565b5b60008083815260200190815260200160002060030160003373ffffffffffffffffffffffffffffffffffffffff1673ffffffffffffffffffffffffffffffffffffffff16815260200190815260200160002060009054906101000a900460ff166002811115610d1357610d126132e8565b5b14610d53576040517f08c379a0000000000000000000000000000000000000000000000000000000008152600401610d4a90613ba7565b60405180910390fd5b8260008082815260200190815260200160002060090160009054906101000a900460ff1615610db7576040517f08c379a0000000000000000000000000000000000000000000000000000000008152600401610dae90613c13565b60405180910390fd5b60008060008681526020019081526020016000209050610dd685612ade565b15610e16576040517f08c379a0000000000000000000000000000000000000000000000000000000008152600401610e0d90613c7f565b60405180910390fd5b8060040160003373ffffffffffffffffffffffffffffffffffffffff1673ffffffffffffffffffffffffffffffffffffffff16815260200190815260200160002060009054906101000a900460ff1615610ea5576040517f08c379a0000000000000000000000000000000000000000000000000000000008152600401610e9c90613ceb565b60405180910390fd5b3373ffffffffffffffffffffffffffffffffffffffff168160020182600b015481548110610ed657610ed5613a84565b5b9060005260206000200160009054906101000a900473ffffffffffffffffffffffffffffffffffffffff1673ffffffffffffffffffffffffffffffffffffffff1614610f57576040517f08c379a0000000000000000000000000000000000000000000000000000000008152600401610f4e90613d57565b60405180910390fd5b6000845111610f9b576040517f08c379a0000000000000000000000000000000000000000000000000000000008152600401610f9290613dc3565b60405180910390fd5b60018160040160003373ffffffffffffffffffffffffffffffffffffffff1673ffffffffffffffffffffffffffffffffffffffff16815260200190815260200160002060006101000a81548160ff021916908315150217905550428160050160003373ffffffffffffffffffffffffffffffffffffffff1673ffffffffffffffffffffffffffffffffffffffff16815260200190815260200160002081905550838160060160003373ffffffffffffffffffffffffffffffffffffffff1673ffffffffffffffffffffffffffffffffffffffff16815260200190815260200160002090816110899190613f8f565b5080600801600081548092919061109f90613ab3565b919050555080600b0160008154809291906110b990613ab3565b91905055503373ffffffffffffffffffffffffffffffffffffffff16857f8c14a9d5f9e05ea3d9142fd74ae9dc73e6214837cd22e0622926450648a81edb4287604051611107929190614061565b60405180910390a35050505050565b8060008082815260200190815260200160002060090160019054906101000a900460ff16611179576040517f08c379a000000000000000000000000000000000000000000000000000000000815260040161117090613788565b60405180910390fd5b60028081111561118c5761118b6132e8565b5b60008083815260200190815260200160002060030160003373ffffffffffffffffffffffffffffffffffffffff1673ffffffffffffffffffffffffffffffffffffffff16815260200190815260200160002060009054906101000a900460ff1660028111156111fe576111fd6132e8565b5b1461123e576040517f08c379a000000000000000000000000000000000000000000000000000000000815260040161123590613ba7565b60405180910390fd5b8160008082815260200190815260200160002060090160009054906101000a900460ff16156112a2576040517f08c379a000000000000000000000000000000000000000000000000000000000815260040161129990613c13565b60405180910390fd5b600080600085815260200190815260200160002090506112c184612ade565b15611301576040517f08c379a00000000000000000000000000000000000000000000000000000000081526004016112f890613c7f565b60405180910390fd5b8060040160003373ffffffffffffffffffffffffffffffffffffffff1673ffffffffffffffffffffffffffffffffffffffff16815260200190815260200160002060009054906101000a900460ff1615611390576040517f08c379a000000000000000000000000000000000000000000000000000000000815260040161138790613ceb565b60405180910390fd5b3373ffffffffffffffffffffffffffffffffffffffff168160020182600b0154815481106113c1576113c0613a84565b5b9060005260206000200160009054906101000a900473ffffffffffffffffffffffffffffffffffffffff1673ffffffffffffffffffffffffffffffffffffffff1614611442576040517f08c379a000000000000000000000000000000000000000000000000000000000815260040161143990613d57565b60405180910390fd5b60018160040160003373ffffffffffffffffffffffffffffffffffffffff1673ffffffffffffffffffffffffffffffffffffffff16815260200190815260200160002060006101000a81548160ff021916908315150217905550428160050160003373ffffffffffffffffffffffffffffffffffffffff1673ffffffffffffffffffffffffffffffffffffffff168152602001908152602001600020819055508060080160008154809291906114f790613ab3565b919050555080600b01600081548092919061151190613ab3565b91905055503373ffffffffffffffffffffffffffffffffffffffff16847f8c14a9d5f9e05ea3d9142fd74ae9dc73e6214837cd22e0622926450648a81edb4260405161155d91906140b7565b60405180910390a350505050565b600080600084815260200190815260200160002060040160008373ffffffffffffffffffffffffffffffffffffffff1673ffffffffffffffffffffffffffffffffffffffff16815260200190815260200160002060009054906101000a900460ff16905092915050565b600381815481106115e557600080fd5b906000526020600020016000915054906101000a900473ffffffffffffffffffffffffffffffffffffffff1681565b600080600084815260200190815260200160002060090160019054906101000a900460ff16611678576040517f08c379a000000000000000000000000000000000000000000000000000000000815260040161166f90613788565b60405180910390fd5b60008084815260200190815260200160002060030160008373ffffffffffffffffffffffffffffffffffffffff1673ffffffffffffffffffffffffffffffffffffffff16815260200190815260200160002060009054906101000a900460ff16905092915050565b60608060606000806060600260008873ffffffffffffffffffffffffffffffffffffffff1673ffffffffffffffffffffffffffffffffffffffff16815260200190815260200160002060040160009054906101000a900460ff16611779576040517f08c379a000000000000000000000000000000000000000000000000000000000815260040161177090614131565b60405180910390fd5b6000600260008973ffffffffffffffffffffffffffffffffffffffff1673ffffffffffffffffffffffffffffffffffffffff168152602001908152602001600020905080600001816001018260020183600301548460040160009054906101000a900460ff16856005018580546117ef90613b2a565b80601f016020809104026020016040519081016040528092919081815260200182805461181b90613b2a565b80156118685780601f1061183d57610100808354040283529160200191611868565b820191906000526020600020905b81548152906001019060200180831161184b57829003601f168201915b5050505050955084805461187b90613b2a565b80601f01602080910402602001604051908101604052809291908181526020018280546118a790613b2a565b80156118f45780601f106118c9576101008083540402835291602001916118f4565b820191906000526020600020905b8154815290600101906020018083116118d757829003601f168201915b5050505050945083805461190790613b2a565b80601f016020809104026020016040519081016040528092919081815260200182805461193390613b2a565b80156119805780601f1061195557610100808354040283529160200191611980565b820191906000526020600020905b81548152906001019060200180831161196357829003601f168201915b5050505050935080805461199390613b2a565b80601f01602080910402602001604051908101604052809291908181526020018280546119bf90613b2a565b8015611a0c5780601f106119e157610100808354040283529160200191611a0c565b820191906000526020600020905b8154815290600101906020018083116119ef57829003601f168201915b505050505090509650965096509650965096505091939550919395565b60015481565b600260003373ffffffffffffffffffffffffffffffffffffffff1673ffffffffffffffffffffffffffffffffffffffff16815260200190815260200160002060040160009054906101000a900460ff1615611abf576040517f08c379a0000000000000000000000000000000000000000000000000000000008152600401611ab69061419d565b60405180910390fd5b600073ffffffffffffffffffffffffffffffffffffffff16600484604051611ae791906141ee565b908152602001604051809103902060009054906101000a900473ffffffffffffffffffffffffffffffffffffffff1673ffffffffffffffffffffffffffffffffffffffff1614611b6c576040517f08c379a0000000000000000000000000000000000000000000000000000000008152600401611b6390614251565b60405180910390fd5b6040518060c0016040528086815260200185815260200184815260200183815260200160011515815260200182815250600260003373ffffffffffffffffffffffffffffffffffffffff1673ffffffffffffffffffffffffffffffffffffffff1681526020019081526020016000206000820151816000019081611bf09190613f8f565b506020820151816001019081611c069190613f8f565b506040820151816002019081611c1c9190613f8f565b506060820151816003015560808201518160040160006101000a81548160ff02191690831515021790555060a0820151816005019081611c5c9190613f8f565b509050506003339080600181540180825580915050600190039060005260206000200160009091909190916101000a81548173ffffffffffffffffffffffffffffffffffffffff021916908373ffffffffffffffffffffffffffffffffffffffff16021790555033600484604051611cd491906141ee565b908152602001604051809103902060006101000a81548173ffffffffffffffffffffffffffffffffffffffff021916908373ffffffffffffffffffffffffffffffffffffffff1602179055503373ffffffffffffffffffffffffffffffffffffffff167f78088310123490d67595b7b0e336cb2e2fc0f7df27ddd8950b8656c84413fb1b8686868686604051611d6e959493929190614271565b60405180910390a25050505050565b606060008084815260200190815260200160002060060160008373ffffffffffffffffffffffffffffffffffffffff1673ffffffffffffffffffffffffffffffffffffffff1681526020019081526020016000208054611ddc90613b2a565b80601f0160208091040260200160405190810160405280929190818152602001828054611e0890613b2a565b8015611e555780601f10611e2a57610100808354040283529160200191611e55565b820191906000526020600020905b815481529060010190602001808311611e3857829003601f168201915b5050505050905092915050565b6002602052806000526040600020600091509050806000018054611e8590613b2a565b80601f0160208091040260200160405190810160405280929190818152602001828054611eb190613b2a565b8015611efe5780601f10611ed357610100808354040283529160200191611efe565b820191906000526020600020905b815481529060010190602001808311611ee157829003601f168201915b505050505090806001018054611f1390613b2a565b80601f0160208091040260200160405190810160405280929190818152602001828054611f3f90613b2a565b8015611f8c5780601f10611f6157610100808354040283529160200191611f8c565b820191906000526020600020905b815481529060010190602001808311611f6f57829003601f168201915b505050505090806002018054611fa190613b2a565b80601f0160208091040260200160405190810160405280929190818152602001828054611fcd90613b2a565b801561201a5780601f10611fef5761010080835404028352916020019161201a565b820191906000526020600020905b815481529060010190602001808311611ffd57829003601f168201915b5050505050908060030154908060040160009054906101000a900460ff169080600501805461204890613b2a565b80601f016020809104026020016040519081016040528092919081815260200182805461207490613b2a565b80156120c15780601f10612096576101008083540402835291602001916120c1565b820191906000526020600020905b8154815290600101906020018083116120a457829003601f168201915b5050505050905086565b8260008082815260200190815260200160002060090160019054906101000a900460ff1661212e576040517f08c379a000000000000000000000000000000000000000000000000000000000815260040161212590613788565b60405180910390fd5b60016002811115612142576121416132e8565b5b60008083815260200190815260200160002060030160003373ffffffffffffffffffffffffffffffffffffffff1673ffffffffffffffffffffffffffffffffffffffff16815260200190815260200160002060009054906101000a900460ff1660028111156121b4576121b36132e8565b5b146121f4576040517f08c379a00000000000000000000000000000000000000000000000000000000081526004016121eb9061432c565b60405180910390fd5b8360008082815260200190815260200160002060090160009054906101000a900460ff1615612258576040517f08c379a000000000000000000000000000000000000000000000000000000000815260040161224f90613c13565b60405180910390fd5b6000806000878152602001908152602001600020905061227786612ade565b156122b7576040517f08c379a00000000000000000000000000000000000000000000000000000000081526004016122ae90613c7f565b60405180910390fd5b60006001905060005b826002018054905081101561237e578260040160008460020183815481106122eb576122ea613a84565b5b9060005260206000200160009054906101000a900473ffffffffffffffffffffffffffffffffffffffff1673ffffffffffffffffffffffffffffffffffffffff1673ffffffffffffffffffffffffffffffffffffffff16815260200190815260200160002060009054906101000a900460ff1661236b576000915061237e565b808061237690613ab3565b9150506122c0565b5080156123c0576040517f08c379a00000000000000000000000000000000000000000000000000000000081526004016123b7906143be565b60405180910390fd5b6000865111612404576040517f08c379a00000000000000000000000000000000000000000000000000000000081526004016123fb9061442a565b60405180910390fd5b600085146124585742851161244e576040517f08c379a000000000000000000000000000000000000000000000000000000000815260040161244590614496565b60405180910390fd5b8482600a01819055505b858260000190816124699190613f8f565b503373ffffffffffffffffffffffffffffffffffffffff16877fd4af573228b33e73cdfacac0a74b920c7b511e2ff826fb63a2e0bb5790b54ebc88426040516124b39291906144b6565b60405180910390a350505050505050565b600080845111612509576040517f08c379a00000000000000000000000000000000000000000000000000000000081526004016125009061442a565b60405180910390fd5b600083511161254d576040517f08c379a000000000000000000000000000000000000000000000000000000000815260040161254490614532565b60405180910390fd5b600082148061255b57504282115b61259a576040517f08c379a000000000000000000000000000000000000000000000000000000000815260040161259190614496565b60405180910390fd5b600160008154809291906125ad90613ab3565b9190505550600080600060015481526020019081526020016000209050848160000190816125db9190613f8f565b50338160010160006101000a81548173ffffffffffffffffffffffffffffffffffffffff021916908373ffffffffffffffffffffffffffffffffffffffff16021790555042816007018190555060018160090160016101000a81548160ff0219169083151502179055508281600a018190555060018160030160003373ffffffffffffffffffffffffffffffffffffffff1673ffffffffffffffffffffffffffffffffffffffff16815260200190815260200160002060006101000a81548160ff021916908360028111156126b3576126b26132e8565b5b021790555060005b845181101561286357600073ffffffffffffffffffffffffffffffffffffffff168582815181106126ef576126ee613a84565b5b602002602001015173ffffffffffffffffffffffffffffffffffffffff160361274d576040517f08c379a00000000000000000000000000000000000000000000000000000000081526004016127449061459e565b60405180910390fd5b8160020185828151811061276457612763613a84565b5b60200260200101519080600181540180825580915050600190039060005260206000200160009091909190916101000a81548173ffffffffffffffffffffffffffffffffffffffff021916908373ffffffffffffffffffffffffffffffffffffffff16021790555060028260030160008784815181106127e7576127e6613a84565b5b602002602001015173ffffffffffffffffffffffffffffffffffffffff1673ffffffffffffffffffffffffffffffffffffffff16815260200190815260200160002060006101000a81548160ff0219169083600281111561284b5761284a6132e8565b5b0217905550808061285b90613ab3565b9150506126bb565b503373ffffffffffffffffffffffffffffffffffffffff166001547f0f34f336d6e1cc231d161403dd583f287c90d4e144120937a223d9531afe848c8787426040516128b1939291906145be565b60405180910390a36001549150509392505050565b8160008082815260200190815260200160002060090160019054906101000a900460ff16612929576040517f08c379a000000000000000000000000000000000000000000000000000000000815260040161292090613788565b60405180910390fd5b6001600281111561293d5761293c6132e8565b5b60008083815260200190815260200160002060030160003373ffffffffffffffffffffffffffffffffffffffff1673ffffffffffffffffffffffffffffffffffffffff16815260200190815260200160002060009054906101000a900460ff1660028111156129af576129ae6132e8565b5b146129ef576040517f08c379a00000000000000000000000000000000000000000000000000000000081526004016129e69061432c565b60405180910390fd5b8260008082815260200190815260200160002060090160009054906101000a900460ff1615612a53576040517f08c379a0000000000000000000000000000000000000000000000000000000008152600401612a4a90613c13565b60405180910390fd5b6000806000868152602001908152602001600020905060018160090160006101000a81548160ff0219169083151502179055503373ffffffffffffffffffffffffffffffffffffffff16857f7a58ff517c00037031f8886d9305cec9b4a44d1c1a04fc2ef4d7a5d7a09eede54287604051612acf929190614061565b60405180910390a35050505050565b6000806000808481526020019081526020016000209050600081600a015414158015612b0d575080600a015442115b915050919050565b60008060008084815260200190815260200160002090508060090160019054906101000a900460ff16612b7d576040517f08c379a0000000000000000000000000000000000000000000000000000000008152600401612b7490613788565b60405180910390fd5b806002018054905081600b01541015612bdd578060020181600b015481548110612baa57612ba9613a84565b5b9060005260206000200160009054906101000a900473ffffffffffffffffffffffffffffffffffffffff16915050612be3565b60009150505b919050565b6004818051602081018201805184825260208301602085012081835280955050505050506000915054906101000a900473ffffffffffffffffffffffffffffffffffffffff1681565b6000604051905090565b600080fd5b600080fd5b6000819050919050565b612c5881612c45565b8114612c6357600080fd5b50565b600081359050612c7581612c4f565b92915050565b600073ffffffffffffffffffffffffffffffffffffffff82169050919050565b6000612ca682612c7b565b9050919050565b612cb681612c9b565b8114612cc157600080fd5b50565b600081359050612cd381612cad565b92915050565b60008060408385031215612cf057612cef612c3b565b5b6000612cfe85828601612c66565b9250506020612d0f85828601612cc4565b9150509250929050565b612d2281612c45565b82525050565b6000602082019050612d3d6000830184612d19565b92915050565b6000819050919050565b612d5681612d43565b8114612d6157600080fd5b50565b600081359050612d7381612d4d565b92915050565b600080fd5b600080fd5b6000601f19601f8301169050919050565b7f4e487b7100000000000000000000000000000000000000000000000000000000600052604160045260246000fd5b612dcc82612d83565b810181811067ffffffffffffffff82111715612deb57612dea612d94565b5b80604052505050565b6000612dfe612c31565b9050612e0a8282612dc3565b919050565b600067ffffffffffffffff821115612e2a57612e29612d94565b5b612e3382612d83565b9050602081019050919050565b82818337600083830152505050565b6000612e62612e5d84612e0f565b612df4565b905082815260208101848484011115612e7e57612e7d612d7e565b5b612e89848285612e40565b509392505050565b600082601f830112612ea657612ea5612d79565b5b8135612eb6848260208601612e4f565b91505092915050565b60008060008060808587031215612ed957612ed8612c3b565b5b6000612ee787828801612c66565b9450506020612ef887828801612cc4565b9350506040612f0987828801612d64565b925050606085013567ffffffffffffffff811115612f2a57612f29612c40565b5b612f3687828801612e91565b91505092959194509250565b60008115159050919050565b612f5781612f42565b82525050565b6000602082019050612f726000830184612f4e565b92915050565b600081519050919050565b600082825260208201905092915050565b6000819050602082019050919050565b612fad81612c9b565b82525050565b6000612fbf8383612fa4565b60208301905092915050565b6000602082019050919050565b6000612fe382612f78565b612fed8185612f83565b9350612ff883612f94565b8060005b838110156130295781516130108882612fb3565b975061301b83612fcb565b925050600181019050612ffc565b5085935050505092915050565b600060208201905081810360008301526130508184612fd8565b905092915050565b60006020828403121561306e5761306d612c3b565b5b600061307c84828501612c66565b91505092915050565b600081519050919050565b600082825260208201905092915050565b60005b838110156130bf5780820151818401526020810190506130a4565b60008484015250505050565b60006130d682613085565b6130e08185613090565b93506130f08185602086016130a1565b6130f981612d83565b840191505092915050565b61310d81612c9b565b82525050565b600060e082019050818103600083015261312d818a6130cb565b905061313c6020830189613104565b818103604083015261314e8188612fd8565b905061315d6060830187612d19565b61316a6080830186612d19565b61317760a0830185612f4e565b61318460c0830184612f4e565b98975050505050505050565b600080604083850312156131a7576131a6612c3b565b5b60006131b585828601612cc4565b92505060206131c685828601612c66565b9150509250929050565b600067ffffffffffffffff8211156131eb576131ea612d94565b5b6131f482612d83565b9050602081019050919050565b600061321461320f846131d0565b612df4565b9050828152602081018484840111156132305761322f612d7e565b5b61323b848285612e40565b509392505050565b600082601f83011261325857613257612d79565b5b8135613268848260208601613201565b91505092915050565b6000806040838503121561328857613287612c3b565b5b600061329685828601612c66565b925050602083013567ffffffffffffffff8111156132b7576132b6612c40565b5b6132c385828601613243565b9150509250929050565b60006020820190506132e26000830184613104565b92915050565b7f4e487b7100000000000000000000000000000000000000000000000000000000600052602160045260246000fd5b60038110613328576133276132e8565b5b50565b600081905061333982613317565b919050565b60006133498261332b565b9050919050565b6133598161333e565b82525050565b60006020820190506133746000830184613350565b92915050565b6000602082840312156133905761338f612c3b565b5b600061339e84828501612cc4565b91505092915050565b600060c08201905081810360008301526133c181896130cb565b905081810360208301526133d581886130cb565b905081810360408301526133e981876130cb565b90506133f86060830186612d19565b6134056080830185612f4e565b81810360a083015261341781846130cb565b9050979650505050505050565b600080600080600060a086880312156134405761343f612c3b565b5b600086013567ffffffffffffffff81111561345e5761345d612c40565b5b61346a88828901613243565b955050602086013567ffffffffffffffff81111561348b5761348a612c40565b5b61349788828901613243565b945050604086013567ffffffffffffffff8111156134b8576134b7612c40565b5b6134c488828901613243565b93505060606134d588828901612c66565b925050608086013567ffffffffffffffff8111156134f6576134f5612c40565b5b61350288828901613243565b9150509295509295909350565b6000602082019050818103600083015261352981846130cb565b905092915050565b60008060006060848603121561354a57613549612c3b565b5b600061355886828701612c66565b935050602084013567ffffffffffffffff81111561357957613578612c40565b5b61358586828701613243565b925050604061359686828701612c66565b9150509250925092565b600067ffffffffffffffff8211156135bb576135ba612d94565b5b602082029050602081019050919050565b600080fd5b60006135e46135df846135a0565b612df4565b90508083825260208201905060208402830185811115613607576136066135cc565b5b835b81811015613630578061361c8882612cc4565b845260208401935050602081019050613609565b5050509392505050565b600082601f83011261364f5761364e612d79565b5b813561365f8482602086016135d1565b91505092915050565b60008060006060848603121561368157613680612c3b565b5b600084013567ffffffffffffffff81111561369f5761369e612c40565b5b6136ab86828701613243565b935050602084013567ffffffffffffffff8111156136cc576136cb612c40565b5b6136d88682870161363a565b92505060406136e986828701612c66565b9150509250925092565b60006020828403121561370957613708612c3b565b5b600082013567ffffffffffffffff81111561372757613726612c40565b5b61373384828501613243565b91505092915050565b7f446f63756d656e7420646f6573206e6f74206578697374000000000000000000600082015250565b6000613772601783613090565b915061377d8261373c565b602082019050919050565b600060208201905081810360008301526137a181613765565b9050919050565b7f5369676e657220686173206e6f74207369676e6564207468697320646f63756d60008201527f656e740000000000000000000000000000000000000000000000000000000000602082015250565b6000613804602383613090565b915061380f826137a8565b604082019050919050565b60006020820190508181036000830152613833816137f7565b9050919050565b7f496e76616c6964207369676e6174757265206c656e6774680000000000000000600082015250565b6000613870601883613090565b915061387b8261383a565b602082019050919050565b6000602082019050818103600083015261389f81613863565b9050919050565b600081905092915050565b7f19457468657265756d205369676e6564204d6573736167653a0a333200000000600082015250565b60006138e7601c836138a6565b91506138f2826138b1565b601c82019050919050565b6000819050919050565b61391861391382612d43565b6138fd565b82525050565b6000613929826138da565b91506139358284613907565b60208201915081905092915050565b600060ff82169050919050565b7f4e487b7100000000000000000000000000000000000000000000000000000000600052601160045260246000fd5b600061398b82613944565b915061399683613944565b9250828201905060ff8111156139af576139ae613951565b5b92915050565b7f496e76616c6964207369676e6174757265202776272076616c75650000000000600082015250565b60006139eb601b83613090565b91506139f6826139b5565b602082019050919050565b60006020820190508181036000830152613a1a816139de565b9050919050565b613a2a81612d43565b82525050565b613a3981613944565b82525050565b6000608082019050613a546000830187613a21565b613a616020830186613a30565b613a6e6040830185613a21565b613a7b6060830184613a21565b95945050505050565b7f4e487b7100000000000000000000000000000000000000000000000000000000600052603260045260246000fd5b6000613abe82612c45565b91507fffffffffffffffffffffffffffffffffffffffffffffffffffffffffffffffff8203613af057613aef613951565b5b600182019050919050565b7f4e487b7100000000000000000000000000000000000000000000000000000000600052602260045260246000fd5b60006002820490506001821680613b4257607f821691505b602082108103613b5557613b54613afb565b5b50919050565b7f4e6f7420617574686f72697a6564207369676e65720000000000000000000000600082015250565b6000613b91601583613090565b9150613b9c82613b5b565b602082019050919050565b60006020820190508181036000830152613bc081613b84565b9050919050565b7f446f63756d656e74206973207265766f6b656400000000000000000000000000600082015250565b6000613bfd601383613090565b9150613c0882613bc7565b602082019050919050565b60006020820190508181036000830152613c2c81613bf0565b9050919050565b7f446f63756d656e74206578706972656400000000000000000000000000000000600082015250565b6000613c69601083613090565b9150613c7482613c33565b602082019050919050565b60006020820190508181036000830152613c9881613c5c565b9050919050565b7f416c7265616479207369676e6564000000000000000000000000000000000000600082015250565b6000613cd5600e83613090565b9150613ce082613c9f565b602082019050919050565b60006020820190508181036000830152613d0481613cc8565b9050919050565b7f4e6f7420796f7572207475726e20746f207369676e0000000000000000000000600082015250565b6000613d41601583613090565b9150613d4c82613d0b565b602082019050919050565b60006020820190508181036000830152613d7081613d34565b9050919050565b7f5369676e61747572652072657175697265640000000000000000000000000000600082015250565b6000613dad601283613090565b9150613db882613d77565b602082019050919050565b60006020820190508181036000830152613ddc81613da0565b9050919050565b60008190508160005260206000209050919050565b60006020601f8301049050919050565b600082821b905092915050565b600060088302613e457fffffffffffffffffffffffffffffffffffffffffffffffffffffffffffffffff82613e08565b613e4f8683613e08565b95508019841693508086168417925050509392505050565b6000819050919050565b6000613e8c613e87613e8284612c45565b613e67565b612c45565b9050919050565b6000819050919050565b613ea683613e71565b613eba613eb282613e93565b848454613e15565b825550505050565b600090565b613ecf613ec2565b613eda818484613e9d565b505050565b5b81811015613efe57613ef3600082613ec7565b600181019050613ee0565b5050565b601f821115613f4357613f1481613de3565b613f1d84613df8565b81016020851015613f2c578190505b613f40613f3885613df8565b830182613edf565b50505b505050565b600082821c905092915050565b6000613f6660001984600802613f48565b1980831691505092915050565b6000613f7f8383613f55565b9150826002028217905092915050565b613f9882613085565b67ffffffffffffffff811115613fb157613fb0612d94565b5b613fbb8254613b2a565b613fc6828285613f02565b600060209050601f831160018114613ff95760008415613fe7578287015190505b613ff18582613f73565b865550614059565b601f19841661400786613de3565b60005b8281101561402f5784890151825560018201915060208501945060208101905061400a565b8683101561404c5784890151614048601f891682613f55565b8355505b6001600288020188555050505b505050505050565b60006040820190506140766000830185612d19565b818103602083015261408881846130cb565b90509392505050565b50565b60006140a1600083613090565b91506140ac82614091565b600082019050919050565b60006040820190506140cc6000830184612d19565b81810360208301526140dd81614094565b905092915050565b7f55736572206e6f74207265676973746572656400000000000000000000000000600082015250565b600061411b601383613090565b9150614126826140e5565b602082019050919050565b6000602082019050818103600083015261414a8161410e565b9050919050565b7f416c726561647920726567697374657265640000000000000000000000000000600082015250565b6000614187601283613090565b915061419282614151565b602082019050919050565b600060208201905081810360008301526141b68161417a565b9050919050565b60006141c882613085565b6141d281856138a6565b93506141e28185602086016130a1565b80840191505092915050565b60006141fa82846141bd565b915081905092915050565b7f456d61696c20616c726561647920726567697374657265640000000000000000600082015250565b600061423b601883613090565b915061424682614205565b602082019050919050565b6000602082019050818103600083015261426a8161422e565b9050919050565b600060a082019050818103600083015261428b81886130cb565b9050818103602083015261429f81876130cb565b905081810360408301526142b381866130cb565b90506142c26060830185612d19565b81810360808301526142d481846130cb565b90509695505050505050565b7f4e6f7420646f63756d656e74206f776e65720000000000000000000000000000600082015250565b6000614316601283613090565b9150614321826142e0565b602082019050919050565b6000602082019050818103600083015261434581614309565b9050919050565b7f43616e6e6f7420616d656e642066756c6c79207369676e656420646f63756d6560008201527f6e74000000000000000000000000000000000000000000000000000000000000602082015250565b60006143a8602283613090565b91506143b38261434c565b604082019050919050565b600060208201905081810360008301526143d78161439b565b9050919050565b7f4950465320686173682072657175697265640000000000000000000000000000600082015250565b6000614414601283613090565b915061441f826143de565b602082019050919050565b6000602082019050818103600083015261444381614407565b9050919050565b7f457870697279206d75737420626520696e207468652066757475726500000000600082015250565b6000614480601c83613090565b915061448b8261444a565b602082019050919050565b600060208201905081810360008301526144af81614473565b9050919050565b600060408201905081810360008301526144d081856130cb565b90506144df6020830184612d19565b9392505050565b7f4174206c65617374206f6e65207369676e657220726571756972656400000000600082015250565b600061451c601c83613090565b9150614527826144e6565b602082019050919050565b6000602082019050818103600083015261454b8161450f565b9050919050565b7f496e76616c6964207369676e6572206164647265737300000000000000000000600082015250565b6000614588601683613090565b915061459382614552565b602082019050919050565b600060208201905081810360008301526145b78161457b565b9050919050565b600060608201905081810360008301526145d881866130cb565b905081810360208301526145ec8185612fd8565b90506145fb6040830184612d19565b94935050505056fea2646970667358221220e3d87e9ab46378f44b02625505fed83d5038713ee31987d4e402d28e2d8bda7864736f6c63430008150033",
  "linkReferences": {},
  "deployedLinkReferences": {}
}