{
  "_format": "hh-sol-artifact-1",
  "contractName": "DocumentSign",
  "sourceName": "contracts/Docu3.sol",
  "abi": [
    {
      "anonymous": false,
      "inputs": [
        {
          "indexed": true,
          "internalType": "uint256",
          "name": "docId",
          "type": "uint256"
        },
        {
          "indexed": false,
          "internalType": "string",
          "name": "newIpfsHash",
          "type": "string"
        },
        {
          "indexed": true,
          "internalType": "address",
          "name": "editor",
          "type": "address"
        },
        {
          "indexed": false,
          "internalType": "uint256",
          "name": "amendedAt",
          "type": "uint256"
        }
      ],
      "name": "DocumentAmended",
      "type": "event"
    },
    {
      "anonymous": false,
      "inputs": [
        {
          "indexed": true,
          "internalType": "uint256",
          "name": "docId",
          "type": "uint256"
        },
        {
          "indexed": false,
          "internalType": "string",
          "name": "ipfsHash",
          "type": "string"
        },
        {
          "indexed": true,
          "internalType": "address",
          "name": "creator",
          "type": "address"
        },
        {
          "indexed": false,
          "internalType": "address[]",
          "name": "signers",
          "type": "address[]"
        },
        {
          "indexed": false,
          "internalType": "uint256",
          "name": "createdAt",
          "type": "uint256"
        }
      ],
      "name": "DocumentCreated",
      "type": "event"
    },
    {
      "anonymous": false,
      "inputs": [
        {
          "indexed": true,
          "internalType": "uint256",
          "name": "docId",
          "type": "uint256"
        },
        {
          "indexed": false,
          "internalType": "uint256",
          "name": "expiredAt",
          "type": "uint256"
        }
      ],
      "name": "DocumentExpired",
      "type": "event"
    },
    {
      "anonymous": false,
      "inputs": [
        {
          "indexed": true,
          "internalType": "uint256",
          "name": "docId",
          "type": "uint256"
        },
        {
          "indexed": true,
          "internalType": "address",
          "name": "revoker",
          "type": "address"
        },
        {
          "indexed": false,
          "internalType": "uint256",
          "name": "revokedAt",
          "type": "uint256"
        },
        {
          "indexed": false,
          "internalType": "string",
          "name": "reason",
          "type": "string"
        }
      ],
      "name": "DocumentRevoked",
      "type": "event"
    },
    {
      "anonymous": false,
      "inputs": [
        {
          "indexed": true,
          "internalType": "uint256",
          "name": "docId",
          "type": "uint256"
        },
        {
          "indexed": true,
          "internalType": "address",
          "name": "signer",
          "type": "address"
        },
        {
          "indexed": false,
          "internalType": "uint256",
          "name": "signedAt",
          "type": "uint256"
        },
        {
          "indexed": false,
          "internalType": "string",
          "name": "signature",
          "type": "string"
        }
      ],
      "name": "DocumentSigned",
      "type": "event"
    },
    {
      "anonymous": false,
      "inputs": [
        {
          "indexed": true,
          "internalType": "address",
          "name": "user",
          "type": "address"
        },
        {
          "indexed": false,
          "internalType": "string",
          "name": "firstName",
          "type": "string"
        },
        {
          "indexed": false,
          "internalType": "string",
          "name": "familyName",
          "type": "string"
        },
        {
          "indexed": false,
          "internalType": "string",
          "name": "email",
          "type": "string"
        },
        {
          "indexed": false,
          "internalType": "uint256",
          "name": "dob",
          "type": "uint256"
        },
        {
          "indexed": false,
          "internalType": "string",
          "name": "publicKey",
          "type": "string"
        }
      ],
      "name": "UserRegistered",
      "type": "event"
    },
    {
      "inputs": [
        {
          "internalType": "uint256",
          "name": "_docId",
          "type": "uint256"
        },
        {
          "internalType": "string",
          "name": "_newIpfsHash",
          "type": "string"
        },
        {
          "internalType": "uint256",
          "name": "_newExpiry",
          "type": "uint256"
        }
      ],
      "name": "amendDocument",
      "outputs": [],
      "stateMutability": "nonpayable",
      "type": "function"
    },
    {
      "inputs": [
        {
          "internalType": "string",
          "name": "_ipfsHash",
          "type": "string"
        },
        {
          "internalType": "address[]",
          "name": "_signers",
          "type": "address[]"
        },
        {
          "internalType": "uint256",
          "name": "_expiry",
          "type": "uint256"
        }
      ],
      "name": "createDocument",
      "outputs": [
        {
          "internalType": "uint256",
          "name": "",
          "type": "uint256"
        }
      ],
      "stateMutability": "nonpayable",
      "type": "function"
    },
    {
      "inputs": [],
      "name": "documentCount",
      "outputs": [
        {
          "internalType": "uint256",
          "name": "",
          "type": "uint256"
        }
      ],
      "stateMutability": "view",
      "type": "function"
    },
    {
      "inputs": [
        {
          "internalType": "string",
          "name": "",
          "type": "string"
        }
      ],
      "name": "emailToAddress",
      "outputs": [
        {
          "internalType": "address",
          "name": "",
          "type": "address"
        }
      ],
      "stateMutability": "view",
      "type": "function"
    },
    {
      "inputs": [],
      "name": "getAllRegisteredUsers",
      "outputs": [
        {
          "internalType": "address[]",
          "name": "",
          "type": "address[]"
        }
      ],
      "stateMutability": "view",
      "type": "function"
    },
    {
      "inputs": [
        {
          "internalType": "uint256",
          "name": "_docId",
          "type": "uint256"
        }
      ],
      "name": "getCurrentSigner",
      "outputs": [
        {
          "internalType": "address",
          "name": "",
          "type": "address"
        }
      ],
      "stateMutability": "view",
      "type": "function"
    },
    {
      "inputs": [
        {
          "internalType": "uint256",
          "name": "_docId",
          "type": "uint256"
        }
      ],
      "name": "getDocument",
      "outputs": [
        {
          "internalType": "string",
          "name": "ipfsHash",
          "type": "string"
        },
        {
          "internalType": "address",
          "name": "creator",
          "type": "address"
        },
        {
          "internalType": "address[]",
          "name": "signers",
          "type": "address[]"
        },
        {
          "internalType": "uint256",
          "name": "createdAt",
          "type": "uint256"
        },
        {
          "internalType": "uint256",
          "name": "signatureCount",
          "type": "uint256"
        },
        {
          "internalType": "bool",
          "name": "fullySigned",
          "type": "bool"
        },
        {
          "internalType": "bool",
          "name": "isRevoked",
          "type": "bool"
        }
      ],
      "stateMutability": "view",
      "type": "function"
    },
    {
      "inputs": [
        {
          "internalType": "uint256",
          "name": "_docId",
          "type": "uint256"
        },
        {
          "internalType": "address",
          "name": "_user",
          "type": "address"
        }
      ],
      "name": "getRole",
      "outputs": [
        {
          "internalType": "enum DocumentSign.Role",
          "name": "",
          "type": "uint8"
        }
      ],
      "stateMutability": "view",
      "type": "function"
    },
    {
      "inputs": [
        {
          "internalType": "uint256",
          "name": "_docId",
          "type": "uint256"
        },
        {
          "internalType": "address",
          "name": "_signer",
          "type": "address"
        }
      ],
      "name": "getSignTimestamp",
      "outputs": [
        {
          "internalType": "uint256",
          "name": "",
          "type": "uint256"
        }
      ],
      "stateMutability": "view",
      "type": "function"
    },
    {
      "inputs": [
        {
          "internalType": "uint256",
          "name": "_docId",
          "type": "uint256"
        },
        {
          "internalType": "address",
          "name": "_signer",
          "type": "address"
        }
      ],
      "name": "getSignature",
      "outputs": [
        {
          "internalType": "string",
          "name": "",
          "type": "string"
        }
      ],
      "stateMutability": "view",
      "type": "function"
    },
    {
      "inputs": [
        {
          "internalType": "address",
          "name": "user",
          "type": "address"
        }
      ],
      "name": "getUserProfile",
      "outputs": [
        {
          "internalType": "string",
          "name": "firstName",
          "type": "string"
        },
        {
          "internalType": "string",
          "name": "familyName",
          "type": "string"
        },
        {
          "internalType": "string",
          "name": "email",
          "type": "string"
        },
        {
          "internalType": "uint256",
          "name": "dob",
          "type": "uint256"
        },
        {
          "internalType": "bool",
          "name": "isRegistered",
          "type": "bool"
        },
        {
          "internalType": "string",
          "name": "publicKey",
          "type": "string"
        }
      ],
      "stateMutability": "view",
      "type": "function"
    },
    {
      "inputs": [
        {
          "internalType": "uint256",
          "name": "_docId",
          "type": "uint256"
        },
        {
          "internalType": "address",
          "name": "_signer",
          "type": "address"
        }
      ],
      "name": "hasSigned",
      "outputs": [
        {
          "internalType": "bool",
          "name": "",
          "type": "bool"
        }
      ],
      "stateMutability": "view",
      "type": "function"
    },
    {
      "inputs": [
        {
          "internalType": "uint256",
          "name": "_docId",
          "type": "uint256"
        }
      ],
      "name": "isExpired",
      "outputs": [
        {
          "internalType": "bool",
          "name": "",
          "type": "bool"
        }
      ],
      "stateMutability": "view",
      "type": "function"
    },
    {
      "inputs": [
        {
          "internalType": "address",
          "name": "",
          "type": "address"
        }
      ],
      "name": "profiles",
      "outputs": [
        {
          "internalType": "string",
          "name": "firstName",
          "type": "string"
        },
        {
          "internalType": "string",
          "name": "familyName",
          "type": "string"
        },
        {
          "internalType": "string",
          "name": "email",
          "type": "string"
        },
        {
          "internalType": "uint256",
          "name": "dob",
          "type": "uint256"
        },
        {
          "internalType": "bool",
          "name": "isRegistered",
          "type": "bool"
        },
        {
          "internalType": "string",
          "name": "publicKey",
          "type": "string"
        }
      ],
      "stateMutability": "view",
      "type": "function"
    },
    {
      "inputs": [
        {
          "internalType": "string",
          "name": "firstName",
          "type": "string"
        },
        {
          "internalType": "string",
          "name": "familyName",
          "type": "string"
        },
        {
          "internalType": "string",
          "name": "email",
          "type": "string"
        },
        {
          "internalType": "uint256",
          "name": "dob",
          "type": "uint256"
        },
        {
          "internalType": "string",
          "name": "publicKey",
          "type": "string"
        }
      ],
      "name": "registerUser",
      "outputs": [],
      "stateMutability": "nonpayable",
      "type": "function"
    },
    {
      "inputs": [
        {
          "internalType": "uint256",
          "name": "",
          "type": "uint256"
        }
      ],
      "name": "registeredUsers",
      "outputs": [
        {
          "internalType": "address",
          "name": "",
          "type": "address"
        }
      ],
      "stateMutability": "view",
      "type": "function"
    },
    {
      "inputs": [
        {
          "internalType": "uint256",
          "name": "_docId",
          "type": "uint256"
        },
        {
          "internalType": "string",
          "name": "_reason",
          "type": "string"
        }
      ],
      "name": "revokeDocument",
      "outputs": [],
      "stateMutability": "nonpayable",
      "type": "function"
    },
    {
      "inputs": [
        {
          "internalType": "uint256",
          "name": "_docId",
          "type": "uint256"
        },
        {
          "internalType": "string",
          "name": "_signature",
          "type": "string"
        }
      ],
      "name": "signDocument",
      "outputs": [],
      "stateMutability": "nonpayable",
      "type": "function"
    },
    {
      "inputs": [
        {
          "internalType": "uint256",
          "name": "_docId",
          "type": "uint256"
        }
      ],
      "name": "signDocumentLegacy",
      "outputs": [],
      "stateMutability": "nonpayable",
      "type": "function"
    },
    {
      "inputs": [
        {
          "internalType": "uint256",
          "name": "_docId",
          "type": "uint256"
        },
        {
          "internalType": "address",
          "name": "_signer",
          "type": "address"
        },
        {
          "internalType": "bytes32",
          "name": "_documentHash",
          "type": "bytes32"
        },
        {
          "internalType": "bytes",
          "name": "_signature",
          "type": "bytes"
        }
      ],
      "name": "verifySignature",
      "outputs": [
        {
          "internalType": "bool",
          "name": "",
          "type": "bool"
        }
      ],
      "stateMutability": "view",
      "type": "function"
    }
  ],
  "bytecode": "0x608060405234801561001057600080fd5b5061456a806100206000396000f3fe608060405234801561001057600080fd5b506004361061012c5760003560e01c8063a5b16b2e116100ad578063cb56182411610071578063cb5618241461039d578063d0e2a019146103cd578063d9548e53146103e9578063e0cd77b014610419578063ea78dcbf146104495761012c565b8063a5b16b2e146102e2578063b0cace0614610300578063b3bcd5cf1461031c578063bbe156271461034c578063c2a6ebfb146103815761012c565b80635f372d56116100f45780635f372d5614610201578063709df8d91461021d5780637259e0f81461024d57806393552a3d1461027d578063987ee156146102ad5761012c565b80631b1ab53d1461013157806328d787d914610161578063397388af146101915780633f9b250a146101af5780635308cfa9146101e5575b600080fd5b61014b60048036038101906101469190612bde565b610479565b6040516101589190612c2d565b60405180910390f35b61017b60048036038101906101769190612dc4565b6104d6565b6040516101889190612e62565b60405180910390f35b610199610766565b6040516101a69190612f3b565b60405180910390f35b6101c960048036038101906101c49190612f5d565b6107f4565b6040516101dc9796959493929190613018565b60405180910390f35b6101ff60048036038101906101fa9190613136565b610aa8565b005b61021b60048036038101906102169190612f5d565b610f93565b005b61023760048036038101906102329190612bde565b6113e8565b6040516102449190612e62565b60405180910390f35b61026760048036038101906102629190612f5d565b611452565b6040516102749190613192565b60405180910390f35b61029760048036038101906102929190612bde565b611491565b6040516102a49190613224565b60405180910390f35b6102c760048036038101906102c2919061323f565b61155d565b6040516102d99695949392919061326c565b60405180910390f35b6102ea6118a6565b6040516102f79190612c2d565b60405180910390f35b61031a600480360381019061031591906132e9565b6118ac565b005b61033660048036038101906103319190612bde565b611bfa565b60405161034391906133d4565b60405180910390f35b6103666004803603810190610361919061323f565b611cdf565b6040516103789695949392919061326c565b60405180910390f35b61039b600480360381019061039691906133f6565b611f48565b005b6103b760048036038101906103b2919061352d565b612341565b6040516103c49190612c2d565b60405180910390f35b6103e760048036038101906103e29190613136565b6127cb565b005b61040360048036038101906103fe9190612f5d565b6129e3565b6040516104109190612e62565b60405180910390f35b610433600480360381019061042e9190612f5d565b612a1a565b6040516104409190613192565b60405180910390f35b610463600480360381019061045e91906135b8565b612aed565b6040516104709190613192565b60405180910390f35b600080600084815260200190815260200160002060050160008373ffffffffffffffffffffffffffffffffffffffff1673ffffffffffffffffffffffffffffffffffffffff16815260200190815260200160002054905092915050565b600080600086815260200190815260200160002060090160019054906101000a900460ff1661053a576040517f08c379a00000000000000000000000000000000000000000000000000000000081526004016105319061364d565b60405180910390fd5b60008086815260200190815260200160002060040160008573ffffffffffffffffffffffffffffffffffffffff1673ffffffffffffffffffffffffffffffffffffffff16815260200190815260200160002060009054906101000a900460ff166105d9576040517f08c379a00000000000000000000000000000000000000000000000000000000081526004016105d0906136df565b60405180910390fd5b604182511461061d576040517f08c379a00000000000000000000000000000000000000000000000000000000081526004016106149061374b565b60405180910390fd5b60008360405160200161063091906137e3565b60405160208183030381529060405280519060200120905060008060006020860151925060408601519150606086015160001a9050601b8160ff16101561068157601b8161067e9190613845565b90505b601b8160ff1614806106965750601c8160ff16145b6106d5576040517f08c379a00000000000000000000000000000000000000000000000000000000081526004016106cc906138c6565b60405180910390fd5b6000600185838686604051600081526020016040526040516106fa9493929190613904565b6020604051602081039080840390855afa15801561071c573d6000803e3d6000fd5b5050506020604051035190508873ffffffffffffffffffffffffffffffffffffffff168173ffffffffffffffffffffffffffffffffffffffff161495505050505050949350505050565b606060038054806020026020016040519081016040528092919081815260200182805480156107ea57602002820191906000526020600020905b8160009054906101000a900473ffffffffffffffffffffffffffffffffffffffff1673ffffffffffffffffffffffffffffffffffffffff16815260200190600101908083116107a0575b5050505050905090565b60606000606060008060008060008060008a815260200190815260200160002090508060090160019054906101000a900460ff16610867576040517f08c379a000000000000000000000000000000000000000000000000000000000815260040161085e9061364d565b60405180910390fd5b60006001905060005b826002018054905081101561092e5782600401600084600201838154811061089b5761089a613949565b5b9060005260206000200160009054906101000a900473ffffffffffffffffffffffffffffffffffffffff1673ffffffffffffffffffffffffffffffffffffffff1673ffffffffffffffffffffffffffffffffffffffff16815260200190815260200160002060009054906101000a900460ff1661091b576000915061092e565b808061092690613978565b915050610870565b50816000018260010160009054906101000a900473ffffffffffffffffffffffffffffffffffffffff168360020184600701548560080154858760090160009054906101000a900460ff16868054610985906139ef565b80601f01602080910402602001604051908101604052809291908181526020018280546109b1906139ef565b80156109fe5780601f106109d3576101008083540402835291602001916109fe565b820191906000526020600020905b8154815290600101906020018083116109e157829003601f168201915b5050505050965084805480602002602001604051908101604052809291908181526020018280548015610a8657602002820191906000526020600020905b8160009054906101000a900473ffffffffffffffffffffffffffffffffffffffff1673ffffffffffffffffffffffffffffffffffffffff1681526020019060010190808311610a3c575b5050505050945098509850985098509850985098505050919395979092949650565b8160008082815260200190815260200160002060090160019054906101000a900460ff16610b0b576040517f08c379a0000000000000000000000000000000000000000000000000000000008152600401610b029061364d565b60405180910390fd5b600280811115610b1e57610b1d6131ad565b5b60008083815260200190815260200160002060030160003373ffffffffffffffffffffffffffffffffffffffff1673ffffffffffffffffffffffffffffffffffffffff16815260200190815260200160002060009054906101000a900460ff166002811115610b9057610b8f6131ad565b5b14610bd0576040517f08c379a0000000000000000000000000000000000000000000000000000000008152600401610bc790613a6c565b60405180910390fd5b8260008082815260200190815260200160002060090160009054906101000a900460ff1615610c34576040517f08c379a0000000000000000000000000000000000000000000000000000000008152600401610c2b90613ad8565b60405180910390fd5b60008060008681526020019081526020016000209050610c53856129e3565b15610c93576040517f08c379a0000000000000000000000000000000000000000000000000000000008152600401610c8a90613b44565b60405180910390fd5b8060040160003373ffffffffffffffffffffffffffffffffffffffff1673ffffffffffffffffffffffffffffffffffffffff16815260200190815260200160002060009054906101000a900460ff1615610d22576040517f08c379a0000000000000000000000000000000000000000000000000000000008152600401610d1990613bb0565b60405180910390fd5b3373ffffffffffffffffffffffffffffffffffffffff168160020182600b015481548110610d5357610d52613949565b5b9060005260206000200160009054906101000a900473ffffffffffffffffffffffffffffffffffffffff1673ffffffffffffffffffffffffffffffffffffffff1614610dd4576040517f08c379a0000000000000000000000000000000000000000000000000000000008152600401610dcb90613c1c565b60405180910390fd5b6000845111610e18576040517f08c379a0000000000000000000000000000000000000000000000000000000008152600401610e0f90613c88565b60405180910390fd5b60018160040160003373ffffffffffffffffffffffffffffffffffffffff1673ffffffffffffffffffffffffffffffffffffffff16815260200190815260200160002060006101000a81548160ff021916908315150217905550428160050160003373ffffffffffffffffffffffffffffffffffffffff1673ffffffffffffffffffffffffffffffffffffffff16815260200190815260200160002081905550838160060160003373ffffffffffffffffffffffffffffffffffffffff1673ffffffffffffffffffffffffffffffffffffffff1681526020019081526020016000209081610f069190613e54565b50806008016000815480929190610f1c90613978565b919050555080600b016000815480929190610f3690613978565b91905055503373ffffffffffffffffffffffffffffffffffffffff16857f8c14a9d5f9e05ea3d9142fd74ae9dc73e6214837cd22e0622926450648a81edb4287604051610f84929190613f26565b60405180910390a35050505050565b8060008082815260200190815260200160002060090160019054906101000a900460ff16610ff6576040517f08c379a0000000000000000000000000000000000000000000000000000000008152600401610fed9061364d565b60405180910390fd5b600280811115611009576110086131ad565b5b60008083815260200190815260200160002060030160003373ffffffffffffffffffffffffffffffffffffffff1673ffffffffffffffffffffffffffffffffffffffff16815260200190815260200160002060009054906101000a900460ff16600281111561107b5761107a6131ad565b5b146110bb576040517f08c379a00000000000000000000000000000000000000000000000000000000081526004016110b290613a6c565b60405180910390fd5b8160008082815260200190815260200160002060090160009054906101000a900460ff161561111f576040517f08c379a000000000000000000000000000000000000000000000000000000000815260040161111690613ad8565b60405180910390fd5b6000806000858152602001908152602001600020905061113e846129e3565b1561117e576040517f08c379a000000000000000000000000000000000000000000000000000000000815260040161117590613b44565b60405180910390fd5b8060040160003373ffffffffffffffffffffffffffffffffffffffff1673ffffffffffffffffffffffffffffffffffffffff16815260200190815260200160002060009054906101000a900460ff161561120d576040517f08c379a000000000000000000000000000000000000000000000000000000000815260040161120490613bb0565b60405180910390fd5b3373ffffffffffffffffffffffffffffffffffffffff168160020182600b01548154811061123e5761123d613949565b5b9060005260206000200160009054906101000a900473ffffffffffffffffffffffffffffffffffffffff1673ffffffffffffffffffffffffffffffffffffffff16146112bf576040517f08c379a00000000000000000000000000000000000000000000000000000000081526004016112b690613c1c565b60405180910390fd5b60018160040160003373ffffffffffffffffffffffffffffffffffffffff1673ffffffffffffffffffffffffffffffffffffffff16815260200190815260200160002060006101000a81548160ff021916908315150217905550428160050160003373ffffffffffffffffffffffffffffffffffffffff1673ffffffffffffffffffffffffffffffffffffffff1681526020019081526020016000208190555080600801600081548092919061137490613978565b919050555080600b01600081548092919061138e90613978565b91905055503373ffffffffffffffffffffffffffffffffffffffff16847f8c14a9d5f9e05ea3d9142fd74ae9dc73e6214837cd22e0622926450648a81edb426040516113da9190613f7c565b60405180910390a350505050565b600080600084815260200190815260200160002060040160008373ffffffffffffffffffffffffffffffffffffffff1673ffffffffffffffffffffffffffffffffffffffff16815260200190815260200160002060009054906101000a900460ff16905092915050565b6003818154811061146257600080fd5b906000526020600020016000915054906101000a900473ffffffffffffffffffffffffffffffffffffffff1681565b600080600084815260200190815260200160002060090160019054906101000a900460ff166114f5576040517f08c379a00000000000000000000000000000000000000000000000000000000081526004016114ec9061364d565b60405180910390fd5b60008084815260200190815260200160002060030160008373ffffffffffffffffffffffffffffffffffffffff1673ffffffffffffffffffffffffffffffffffffffff16815260200190815260200160002060009054906101000a900460ff16905092915050565b60608060606000806060600260008873ffffffffffffffffffffffffffffffffffffffff1673ffffffffffffffffffffffffffffffffffffffff16815260200190815260200160002060040160009054906101000a900460ff166115f6576040517f08c379a00000000000000000000000000000000000000000000000000000000081526004016115ed90613ff6565b60405180910390fd5b6000600260008973ffffffffffffffffffffffffffffffffffffffff1673ffffffffffffffffffffffffffffffffffffffff168152602001908152602001600020905080600001816001018260020183600301548460040160009054906101000a900460ff168560050185805461166c906139ef565b80601f0160208091040260200160405190810160405280929190818152602001828054611698906139ef565b80156116e55780601f106116ba576101008083540402835291602001916116e5565b820191906000526020600020905b8154815290600101906020018083116116c857829003601f168201915b505050505095508480546116f8906139ef565b80601f0160208091040260200160405190810160405280929190818152602001828054611724906139ef565b80156117715780601f1061174657610100808354040283529160200191611771565b820191906000526020600020905b81548152906001019060200180831161175457829003601f168201915b50505050509450838054611784906139ef565b80601f01602080910402602001604051908101604052809291908181526020018280546117b0906139ef565b80156117fd5780601f106117d2576101008083540402835291602001916117fd565b820191906000526020600020905b8154815290600101906020018083116117e057829003601f168201915b50505050509350808054611810906139ef565b80601f016020809104026020016040519081016040528092919081815260200182805461183c906139ef565b80156118895780601f1061185e57610100808354040283529160200191611889565b820191906000526020600020905b81548152906001019060200180831161186c57829003601f168201915b505050505090509650965096509650965096505091939550919395565b60015481565b600260003373ffffffffffffffffffffffffffffffffffffffff1673ffffffffffffffffffffffffffffffffffffffff16815260200190815260200160002060040160009054906101000a900460ff161561193c576040517f08c379a000000000000000000000000000000000000000000000000000000000815260040161193390614062565b60405180910390fd5b600073ffffffffffffffffffffffffffffffffffffffff1660048460405161196491906140b3565b908152602001604051809103902060009054906101000a900473ffffffffffffffffffffffffffffffffffffffff1673ffffffffffffffffffffffffffffffffffffffff16146119e9576040517f08c379a00000000000000000000000000000000000000000000000000000000081526004016119e090614116565b60405180910390fd5b6040518060c0016040528086815260200185815260200184815260200183815260200160011515815260200182815250600260003373ffffffffffffffffffffffffffffffffffffffff1673ffffffffffffffffffffffffffffffffffffffff1681526020019081526020016000206000820151816000019081611a6d9190613e54565b506020820151816001019081611a839190613e54565b506040820151816002019081611a999190613e54565b506060820151816003015560808201518160040160006101000a81548160ff02191690831515021790555060a0820151816005019081611ad99190613e54565b509050506003339080600181540180825580915050600190039060005260206000200160009091909190916101000a81548173ffffffffffffffffffffffffffffffffffffffff021916908373ffffffffffffffffffffffffffffffffffffffff16021790555033600484604051611b5191906140b3565b908152602001604051809103902060006101000a81548173ffffffffffffffffffffffffffffffffffffffff021916908373ffffffffffffffffffffffffffffffffffffffff1602179055503373ffffffffffffffffffffffffffffffffffffffff167f78088310123490d67595b7b0e336cb2e2fc0f7df27ddd8950b8656c84413fb1b8686868686604051611beb959493929190614136565b60405180910390a25050505050565b606060008084815260200190815260200160002060060160008373ffffffffffffffffffffffffffffffffffffffff1673ffffffffffffffffffffffffffffffffffffffff1681526020019081526020016000208054611c59906139ef565b80601f0160208091040260200160405190810160405280929190818152602001828054611c85906139ef565b8015611cd25780601f10611ca757610100808354040283529160200191611cd2565b820191906000526020600020905b815481529060010190602001808311611cb557829003601f168201915b5050505050905092915050565b6002602052806000526040600020600091509050806000018054611d02906139ef565b80601f0160208091040260200160405190810160405280929190818152602001828054611d2e906139ef565b8015611d7b5780601f10611d5057610100808354040283529160200191611d7b565b820191906000526020600020905b815481529060010190602001808311611d5e57829003601f168201915b505050505090806001018054611d90906139ef565b80601f0160208091040260200160405190810160405280929190818152602001828054611dbc906139ef565b8015611e095780601f10611dde57610100808354040283529160200191611e09565b820191906000526020600020905b815481529060010190602001808311611dec57829003601f168201915b505050505090806002018054611e1e906139ef565b80601f0160208091040260200160405190810160405280929190818152602001828054611e4a906139ef565b8015611e975780601f10611e6c57610100808354040283529160200191611e97565b820191906000526020600020905b815481529060010190602001808311611e7a57829003601f168201915b5050505050908060030154908060040160009054906101000a900460ff1690806005018054611ec5906139ef565b80601f0160208091040260200160405190810160405280929190818152602001828054611ef1906139ef565b8015611f3e5780601f10611f1357610100808354040283529160200191611f3e565b820191906000526020600020905b815481529060010190602001808311611f2157829003601f168201915b5050505050905086565b8260008082815260200190815260200160002060090160019054906101000a900460ff16611fab576040517f08c379a0000000000000000000000000000000000000000000000000000000008152600401611fa29061364d565b60405180910390fd5b60016002811115611fbf57611fbe6131ad565b5b60008083815260200190815260200160002060030160003373ffffffffffffffffffffffffffffffffffffffff1673ffffffffffffffffffffffffffffffffffffffff16815260200190815260200160002060009054906101000a900460ff166002811115612031576120306131ad565b5b14612071576040517f08c379a0000000000000000000000000000000000000000000000000000000008152600401612068906141f1565b60405180910390fd5b8360008082815260200190815260200160002060090160009054906101000a900460ff16156120d5576040517f08c379a00000000000000000000000000000000000000000000000000000000081526004016120cc90613ad8565b60405180910390fd5b600080600087815260200190815260200160002090506120f4866129e3565b15612134576040517f08c379a000000000000000000000000000000000000000000000000000000000815260040161212b90613b44565b60405180910390fd5b60006001905060005b82600201805490508110156121fb5782600401600084600201838154811061216857612167613949565b5b9060005260206000200160009054906101000a900473ffffffffffffffffffffffffffffffffffffffff1673ffffffffffffffffffffffffffffffffffffffff1673ffffffffffffffffffffffffffffffffffffffff16815260200190815260200160002060009054906101000a900460ff166121e857600091506121fb565b80806121f390613978565b91505061213d565b50801561223d576040517f08c379a000000000000000000000000000000000000000000000000000000000815260040161223490614283565b60405180910390fd5b6000865111612281576040517f08c379a0000000000000000000000000000000000000000000000000000000008152600401612278906142ef565b60405180910390fd5b600085146122d5574285116122cb576040517f08c379a00000000000000000000000000000000000000000000000000000000081526004016122c29061435b565b60405180910390fd5b8482600a01819055505b858260000190816122e69190613e54565b503373ffffffffffffffffffffffffffffffffffffffff16877fd4af573228b33e73cdfacac0a74b920c7b511e2ff826fb63a2e0bb5790b54ebc884260405161233092919061437b565b60405180910390a350505050505050565b600080845111612386576040517f08c379a000000000000000000000000000000000000000000000000000000000815260040161237d906142ef565b60405180910390fd5b60008351116123ca576040517f08c379a00000000000000000000000000000000000000000000000000000000081526004016123c1906143f7565b60405180910390fd5b60008214806123d857504282115b612417576040517f08c379a000000000000000000000000000000000000000000000000000000000815260040161240e9061435b565b60405180910390fd5b6001600081548092919061242a90613978565b9190505550600080600060015481526020019081526020016000209050848160000190816124589190613e54565b50338160010160006101000a81548173ffffffffffffffffffffffffffffffffffffffff021916908373ffffffffffffffffffffffffffffffffffffffff16021790555042816007018190555060018160090160016101000a81548160ff0219169083151502179055508281600a018190555060018160030160003373ffffffffffffffffffffffffffffffffffffffff1673ffffffffffffffffffffffffffffffffffffffff16815260200190815260200160002060006101000a81548160ff021916908360028111156125305761252f6131ad565b5b021790555060005b845181101561276857600073ffffffffffffffffffffffffffffffffffffffff1685828151811061256c5761256b613949565b5b602002602001015173ffffffffffffffffffffffffffffffffffffffff16036125ca576040517f08c379a00000000000000000000000000000000000000000000000000000000081526004016125c190614463565b60405180910390fd5b3373ffffffffffffffffffffffffffffffffffffffff168582815181106125f4576125f3613949565b5b602002602001015173ffffffffffffffffffffffffffffffffffffffff1603612652576040517f08c379a0000000000000000000000000000000000000000000000000000000008152600401612649906144cf565b60405180910390fd5b8160020185828151811061266957612668613949565b5b60200260200101519080600181540180825580915050600190039060005260206000200160009091909190916101000a81548173ffffffffffffffffffffffffffffffffffffffff021916908373ffffffffffffffffffffffffffffffffffffffff16021790555060028260030160008784815181106126ec576126eb613949565b5b602002602001015173ffffffffffffffffffffffffffffffffffffffff1673ffffffffffffffffffffffffffffffffffffffff16815260200190815260200160002060006101000a81548160ff021916908360028111156127505761274f6131ad565b5b0217905550808061276090613978565b915050612538565b503373ffffffffffffffffffffffffffffffffffffffff166001547f0f34f336d6e1cc231d161403dd583f287c90d4e144120937a223d9531afe848c8787426040516127b6939291906144ef565b60405180910390a36001549150509392505050565b8160008082815260200190815260200160002060090160019054906101000a900460ff1661282e576040517f08c379a00000000000000000000000000000000000000000000000000000000081526004016128259061364d565b60405180910390fd5b60016002811115612842576128416131ad565b5b60008083815260200190815260200160002060030160003373ffffffffffffffffffffffffffffffffffffffff1673ffffffffffffffffffffffffffffffffffffffff16815260200190815260200160002060009054906101000a900460ff1660028111156128b4576128b36131ad565b5b146128f4576040517f08c379a00000000000000000000000000000000000000000000000000000000081526004016128eb906141f1565b60405180910390fd5b8260008082815260200190815260200160002060090160009054906101000a900460ff1615612958576040517f08c379a000000000000000000000000000000000000000000000000000000000815260040161294f90613ad8565b60405180910390fd5b6000806000868152602001908152602001600020905060018160090160006101000a81548160ff0219169083151502179055503373ffffffffffffffffffffffffffffffffffffffff16857f7a58ff517c00037031f8886d9305cec9b4a44d1c1a04fc2ef4d7a5d7a09eede542876040516129d4929190613f26565b60405180910390a35050505050565b6000806000808481526020019081526020016000209050600081600a015414158015612a12575080600a015442115b915050919050565b60008060008084815260200190815260200160002090508060090160019054906101000a900460ff16612a82576040517f08c379a0000000000000000000000000000000000000000000000000000000008152600401612a799061364d565b60405180910390fd5b806002018054905081600b01541015612ae2578060020181600b015481548110612aaf57612aae613949565b5b9060005260206000200160009054906101000a900473ffffffffffffffffffffffffffffffffffffffff16915050612ae8565b60009150505b919050565b6004818051602081018201805184825260208301602085012081835280955050505050506000915054906101000a900473ffffffffffffffffffffffffffffffffffffffff1681565b6000604051905090565b600080fd5b600080fd5b6000819050919050565b612b5d81612b4a565b8114612b6857600080fd5b50565b600081359050612b7a81612b54565b92915050565b600073ffffffffffffffffffffffffffffffffffffffff82169050919050565b6000612bab82612b80565b9050919050565b612bbb81612ba0565b8114612bc657600080fd5b50565b600081359050612bd881612bb2565b92915050565b60008060408385031215612bf557612bf4612b40565b5b6000612c0385828601612b6b565b9250506020612c1485828601612bc9565b9150509250929050565b612c2781612b4a565b82525050565b6000602082019050612c426000830184612c1e565b92915050565b6000819050919050565b612c5b81612c48565b8114612c6657600080fd5b50565b600081359050612c7881612c52565b92915050565b600080fd5b600080fd5b6000601f19601f8301169050919050565b7f4e487b7100000000000000000000000000000000000000000000000000000000600052604160045260246000fd5b612cd182612c88565b810181811067ffffffffffffffff82111715612cf057612cef612c99565b5b80604052505050565b6000612d03612b36565b9050612d0f8282612cc8565b919050565b600067ffffffffffffffff821115612d2f57612d2e612c99565b5b612d3882612c88565b9050602081019050919050565b82818337600083830152505050565b6000612d67612d6284612d14565b612cf9565b905082815260208101848484011115612d8357612d82612c83565b5b612d8e848285612d45565b509392505050565b600082601f830112612dab57612daa612c7e565b5b8135612dbb848260208601612d54565b91505092915050565b60008060008060808587031215612dde57612ddd612b40565b5b6000612dec87828801612b6b565b9450506020612dfd87828801612bc9565b9350506040612e0e87828801612c69565b925050606085013567ffffffffffffffff811115612e2f57612e2e612b45565b5b612e3b87828801612d96565b91505092959194509250565b60008115159050919050565b612e5c81612e47565b82525050565b6000602082019050612e776000830184612e53565b92915050565b600081519050919050565b600082825260208201905092915050565b6000819050602082019050919050565b612eb281612ba0565b82525050565b6000612ec48383612ea9565b60208301905092915050565b6000602082019050919050565b6000612ee882612e7d565b612ef28185612e88565b9350612efd83612e99565b8060005b83811015612f2e578151612f158882612eb8565b9750612f2083612ed0565b925050600181019050612f01565b5085935050505092915050565b60006020820190508181036000830152612f558184612edd565b905092915050565b600060208284031215612f7357612f72612b40565b5b6000612f8184828501612b6b565b91505092915050565b600081519050919050565b600082825260208201905092915050565b60005b83811015612fc4578082015181840152602081019050612fa9565b60008484015250505050565b6000612fdb82612f8a565b612fe58185612f95565b9350612ff5818560208601612fa6565b612ffe81612c88565b840191505092915050565b61301281612ba0565b82525050565b600060e0820190508181036000830152613032818a612fd0565b90506130416020830189613009565b81810360408301526130538188612edd565b90506130626060830187612c1e565b61306f6080830186612c1e565b61307c60a0830185612e53565b61308960c0830184612e53565b98975050505050505050565b600067ffffffffffffffff8211156130b0576130af612c99565b5b6130b982612c88565b9050602081019050919050565b60006130d96130d484613095565b612cf9565b9050828152602081018484840111156130f5576130f4612c83565b5b613100848285612d45565b509392505050565b600082601f83011261311d5761311c612c7e565b5b813561312d8482602086016130c6565b91505092915050565b6000806040838503121561314d5761314c612b40565b5b600061315b85828601612b6b565b925050602083013567ffffffffffffffff81111561317c5761317b612b45565b5b61318885828601613108565b9150509250929050565b60006020820190506131a76000830184613009565b92915050565b7f4e487b7100000000000000000000000000000000000000000000000000000000600052602160045260246000fd5b600381106131ed576131ec6131ad565b5b50565b60008190506131fe826131dc565b919050565b600061320e826131f0565b9050919050565b61321e81613203565b82525050565b60006020820190506132396000830184613215565b92915050565b60006020828403121561325557613254612b40565b5b600061326384828501612bc9565b91505092915050565b600060c08201905081810360008301526132868189612fd0565b9050818103602083015261329a8188612fd0565b905081810360408301526132ae8187612fd0565b90506132bd6060830186612c1e565b6132ca6080830185612e53565b81810360a08301526132dc8184612fd0565b9050979650505050505050565b600080600080600060a0868803121561330557613304612b40565b5b600086013567ffffffffffffffff81111561332357613322612b45565b5b61332f88828901613108565b955050602086013567ffffffffffffffff8111156133505761334f612b45565b5b61335c88828901613108565b945050604086013567ffffffffffffffff81111561337d5761337c612b45565b5b61338988828901613108565b935050606061339a88828901612b6b565b925050608086013567ffffffffffffffff8111156133bb576133ba612b45565b5b6133c788828901613108565b9150509295509295909350565b600060208201905081810360008301526133ee8184612fd0565b905092915050565b60008060006060848603121561340f5761340e612b40565b5b600061341d86828701612b6b565b935050602084013567ffffffffffffffff81111561343e5761343d612b45565b5b61344a86828701613108565b925050604061345b86828701612b6b565b9150509250925092565b600067ffffffffffffffff8211156134805761347f612c99565b5b602082029050602081019050919050565b600080fd5b60006134a96134a484613465565b612cf9565b905080838252602082019050602084028301858111156134cc576134cb613491565b5b835b818110156134f557806134e18882612bc9565b8452602084019350506020810190506134ce565b5050509392505050565b600082601f83011261351457613513612c7e565b5b8135613524848260208601613496565b91505092915050565b60008060006060848603121561354657613545612b40565b5b600084013567ffffffffffffffff81111561356457613563612b45565b5b61357086828701613108565b935050602084013567ffffffffffffffff81111561359157613590612b45565b5b61359d868287016134ff565b92505060406135ae86828701612b6b565b9150509250925092565b6000602082840312156135ce576135cd612b40565b5b600082013567ffffffffffffffff8111156135ec576135eb612b45565b5b6135f884828501613108565b91505092915050565b7f446f63756d656e7420646f6573206e6f74206578697374000000000000000000600082015250565b6000613637601783612f95565b915061364282613601565b602082019050919050565b600060208201905081810360008301526136668161362a565b9050919050565b7f5369676e657220686173206e6f74207369676e6564207468697320646f63756d60008201527f656e740000000000000000000000000000000000000000000000000000000000602082015250565b60006136c9602383612f95565b91506136d48261366d565b604082019050919050565b600060208201905081810360008301526136f8816136bc565b9050919050565b7f496e76616c6964207369676e6174757265206c656e6774680000000000000000600082015250565b6000613735601883612f95565b9150613740826136ff565b602082019050919050565b6000602082019050818103600083015261376481613728565b9050919050565b600081905092915050565b7f19457468657265756d205369676e6564204d6573736167653a0a333200000000600082015250565b60006137ac601c8361376b565b91506137b782613776565b601c82019050919050565b6000819050919050565b6137dd6137d882612c48565b6137c2565b82525050565b60006137ee8261379f565b91506137fa82846137cc565b60208201915081905092915050565b600060ff82169050919050565b7f4e487b7100000000000000000000000000000000000000000000000000000000600052601160045260246000fd5b600061385082613809565b915061385b83613809565b9250828201905060ff81111561387457613873613816565b5b92915050565b7f496e76616c6964207369676e6174757265202776272076616c75650000000000600082015250565b60006138b0601b83612f95565b91506138bb8261387a565b602082019050919050565b600060208201905081810360008301526138df816138a3565b9050919050565b6138ef81612c48565b82525050565b6138fe81613809565b82525050565b600060808201905061391960008301876138e6565b61392660208301866138f5565b61393360408301856138e6565b61394060608301846138e6565b95945050505050565b7f4e487b7100000000000000000000000000000000000000000000000000000000600052603260045260246000fd5b600061398382612b4a565b91507fffffffffffffffffffffffffffffffffffffffffffffffffffffffffffffffff82036139b5576139b4613816565b5b600182019050919050565b7f4e487b7100000000000000000000000000000000000000000000000000000000600052602260045260246000fd5b60006002820490506001821680613a0757607f821691505b602082108103613a1a57613a196139c0565b5b50919050565b7f4e6f7420617574686f72697a6564207369676e65720000000000000000000000600082015250565b6000613a56601583612f95565b9150613a6182613a20565b602082019050919050565b60006020820190508181036000830152613a8581613a49565b9050919050565b7f446f63756d656e74206973207265766f6b656400000000000000000000000000600082015250565b6000613ac2601383612f95565b9150613acd82613a8c565b602082019050919050565b60006020820190508181036000830152613af181613ab5565b9050919050565b7f446f63756d656e74206578706972656400000000000000000000000000000000600082015250565b6000613b2e601083612f95565b9150613b3982613af8565b602082019050919050565b60006020820190508181036000830152613b5d81613b21565b9050919050565b7f416c7265616479207369676e6564000000000000000000000000000000000000600082015250565b6000613b9a600e83612f95565b9150613ba582613b64565b602082019050919050565b60006020820190508181036000830152613bc981613b8d565b9050919050565b7f4e6f7420796f7572207475726e20746f207369676e0000000000000000000000600082015250565b6000613c06601583612f95565b9150613c1182613bd0565b602082019050919050565b60006020820190508181036000830152613c3581613bf9565b9050919050565b7f5369676e61747572652072657175697265640000000000000000000000000000600082015250565b6000613c72601283612f95565b9150613c7d82613c3c565b602082019050919050565b60006020820190508181036000830152613ca181613c65565b9050919050565b60008190508160005260206000209050919050565b60006020601f8301049050919050565b600082821b905092915050565b600060088302613d0a7fffffffffffffffffffffffffffffffffffffffffffffffffffffffffffffffff82613ccd565b613d148683613ccd565b95508019841693508086168417925050509392505050565b6000819050919050565b6000613d51613d4c613d4784612b4a565b613d2c565b612b4a565b9050919050565b6000819050919050565b613d6b83613d36565b613d7f613d7782613d58565b848454613cda565b825550505050565b600090565b613d94613d87565b613d9f818484613d62565b505050565b5b81811015613dc357613db8600082613d8c565b600181019050613da5565b5050565b601f821115613e0857613dd981613ca8565b613de284613cbd565b81016020851015613df1578190505b613e05613dfd85613cbd565b830182613da4565b50505b505050565b600082821c905092915050565b6000613e2b60001984600802613e0d565b1980831691505092915050565b6000613e448383613e1a565b9150826002028217905092915050565b613e5d82612f8a565b67ffffffffffffffff811115613e7657613e75612c99565b5b613e8082546139ef565b613e8b828285613dc7565b600060209050601f831160018114613ebe5760008415613eac578287015190505b613eb68582613e38565b865550613f1e565b601f198416613ecc86613ca8565b60005b82811015613ef457848901518255600182019150602085019450602081019050613ecf565b86831015613f115784890151613f0d601f891682613e1a565b8355505b6001600288020188555050505b505050505050565b6000604082019050613f3b6000830185612c1e565b8181036020830152613f4d8184612fd0565b90509392505050565b50565b6000613f66600083612f95565b9150613f7182613f56565b600082019050919050565b6000604082019050613f916000830184612c1e565b8181036020830152613fa281613f59565b905092915050565b7f55736572206e6f74207265676973746572656400000000000000000000000000600082015250565b6000613fe0601383612f95565b9150613feb82613faa565b602082019050919050565b6000602082019050818103600083015261400f81613fd3565b9050919050565b7f416c726561647920726567697374657265640000000000000000000000000000600082015250565b600061404c601283612f95565b915061405782614016565b602082019050919050565b6000602082019050818103600083015261407b8161403f565b9050919050565b600061408d82612f8a565b614097818561376b565b93506140a7818560208601612fa6565b80840191505092915050565b60006140bf8284614082565b915081905092915050565b7f456d61696c20616c726561647920726567697374657265640000000000000000600082015250565b6000614100601883612f95565b915061410b826140ca565b602082019050919050565b6000602082019050818103600083015261412f816140f3565b9050919050565b600060a08201905081810360008301526141508188612fd0565b905081810360208301526141648187612fd0565b905081810360408301526141788186612fd0565b90506141876060830185612c1e565b81810360808301526141998184612fd0565b90509695505050505050565b7f4e6f7420646f63756d656e74206f776e65720000000000000000000000000000600082015250565b60006141db601283612f95565b91506141e6826141a5565b602082019050919050565b6000602082019050818103600083015261420a816141ce565b9050919050565b7f43616e6e6f7420616d656e642066756c6c79207369676e656420646f63756d6560008201527f6e74000000000000000000000000000000000000000000000000000000000000602082015250565b600061426d602283612f95565b915061427882614211565b604082019050919050565b6000602082019050818103600083015261429c81614260565b9050919050565b7f4950465320686173682072657175697265640000000000000000000000000000600082015250565b60006142d9601283612f95565b91506142e4826142a3565b602082019050919050565b60006020820190508181036000830152614308816142cc565b9050919050565b7f457870697279206d75737420626520696e207468652066757475726500000000600082015250565b6000614345601c83612f95565b91506143508261430f565b602082019050919050565b6000602082019050818103600083015261437481614338565b9050919050565b600060408201905081810360008301526143958185612fd0565b90506143a46020830184612c1e565b9392505050565b7f4174206c65617374206f6e65207369676e657220726571756972656400000000600082015250565b60006143e1601c83612f95565b91506143ec826143ab565b602082019050919050565b60006020820190508181036000830152614410816143d4565b9050919050565b7f496e76616c6964207369676e6572206164647265737300000000000000000000600082015250565b600061444d601683612f95565b915061445882614417565b602082019050919050565b6000602082019050818103600083015261447c81614440565b9050919050565b7f4f776e65722063616e6e6f74206265207369676e657200000000000000000000600082015250565b60006144b9601683612f95565b91506144c482614483565b602082019050919050565b600060208201905081810360008301526144e8816144ac565b9050919050565b600060608201905081810360008301526145098186612fd0565b9050818103602083015261451d8185612edd565b905061452c6040830184612c1e565b94935050505056fea2646970667358221220a4b17fb70c717de046e052bd321e855320ef049e36ba2e3b8ba90288a169c94964736f6c63430008150033",
  "linkReferences": {},
  "deployedLinkReferences": {}
}