{
  "_format": "hh-sol-artifact-1",
  "contractName": "DocumentSign",
  "sourceName": "contracts/Docu3.sol",
  "abi": [
    {
      "anonymous": false,
      "inputs": [
        {
          "indexed": true,
          "internalType": "uint256",
          "name": "docId",
          "type": "uint256"
        },
        {
          "indexed": false,
          "internalType": "string",
          "name": "newIpfsHash",
          "type": "string"
        },
        {
          "indexed": true,
          "internalType": "address",
          "name": "editor",
          "type": "address"
        },
        {
          "indexed": false,
          "internalType": "uint256",
          "name": "amendedAt",
          "type": "uint256"
        }
      ],
      "name": "DocumentAmended",
      "type": "event"
    },
    {
      "anonymous": false,
      "inputs": [
        {
          "indexed": true,
          "internalType": "uint256",
          "name": "docId",
          "type": "uint256"
        },
        {
          "indexed": false,
          "internalType": "string",
          "name": "ipfsHash",
          "type": "string"
        },
        {
          "indexed": true,
          "internalType": "address",
          "name": "creator",
          "type": "address"
        },
        {
          "indexed": false,
          "internalType": "address[]",
          "name": "signers",
          "type": "address[]"
        },
        {
          "indexed": false,
          "internalType": "uint256",
          "name": "createdAt",
          "type": "uint256"
        }
      ],
      "name": "DocumentCreated",
      "type": "event"
    },
    {
      "anonymous": false,
      "inputs": [
        {
          "indexed": true,
          "internalType": "uint256",
          "name": "docId",
          "type": "uint256"
        },
        {
          "indexed": false,
          "internalType": "uint256",
          "name": "expiredAt",
          "type": "uint256"
        }
      ],
      "name": "DocumentExpired",
      "type": "event"
    },
    {
      "anonymous": false,
      "inputs": [
        {
          "indexed": true,
          "internalType": "uint256",
          "name": "docId",
          "type": "uint256"
        },
        {
          "indexed": true,
          "internalType": "address",
          "name": "revoker",
          "type": "address"
        },
        {
          "indexed": false,
          "internalType": "uint256",
          "name": "revokedAt",
          "type": "uint256"
        },
        {
          "indexed": false,
          "internalType": "string",
          "name": "reason",
          "type": "string"
        }
      ],
      "name": "DocumentRevoked",
      "type": "event"
    },
    {
      "anonymous": false,
      "inputs": [
        {
          "indexed": true,
          "internalType": "uint256",
          "name": "docId",
          "type": "uint256"
        },
        {
          "indexed": true,
          "internalType": "address",
          "name": "signer",
          "type": "address"
        },
        {
          "indexed": false,
          "internalType": "uint256",
          "name": "signedAt",
          "type": "uint256"
        }
      ],
      "name": "DocumentSigned",
      "type": "event"
    },
    {
      "inputs": [
        {
          "internalType": "uint256",
          "name": "_docId",
          "type": "uint256"
        },
        {
          "internalType": "string",
          "name": "_newIpfsHash",
          "type": "string"
        },
        {
          "internalType": "uint256",
          "name": "_newExpiry",
          "type": "uint256"
        }
      ],
      "name": "amendDocument",
      "outputs": [],
      "stateMutability": "nonpayable",
      "type": "function"
    },
    {
      "inputs": [
        {
          "internalType": "string",
          "name": "_ipfsHash",
          "type": "string"
        },
        {
          "internalType": "address[]",
          "name": "_signers",
          "type": "address[]"
        },
        {
          "internalType": "uint256",
          "name": "_expiry",
          "type": "uint256"
        }
      ],
      "name": "createDocument",
      "outputs": [
        {
          "internalType": "uint256",
          "name": "",
          "type": "uint256"
        }
      ],
      "stateMutability": "nonpayable",
      "type": "function"
    },
    {
      "inputs": [],
      "name": "documentCount",
      "outputs": [
        {
          "internalType": "uint256",
          "name": "",
          "type": "uint256"
        }
      ],
      "stateMutability": "view",
      "type": "function"
    },
    {
      "inputs": [
        {
          "internalType": "uint256",
          "name": "_docId",
          "type": "uint256"
        }
      ],
      "name": "getCurrentSigner",
      "outputs": [
        {
          "internalType": "address",
          "name": "",
          "type": "address"
        }
      ],
      "stateMutability": "view",
      "type": "function"
    },
    {
      "inputs": [
        {
          "internalType": "uint256",
          "name": "_docId",
          "type": "uint256"
        }
      ],
      "name": "getDocument",
      "outputs": [
        {
          "internalType": "string",
          "name": "ipfsHash",
          "type": "string"
        },
        {
          "internalType": "address",
          "name": "creator",
          "type": "address"
        },
        {
          "internalType": "address[]",
          "name": "signers",
          "type": "address[]"
        },
        {
          "internalType": "uint256",
          "name": "createdAt",
          "type": "uint256"
        },
        {
          "internalType": "uint256",
          "name": "signatures",
          "type": "uint256"
        },
        {
          "internalType": "bool",
          "name": "fullySigned",
          "type": "bool"
        },
        {
          "internalType": "bool",
          "name": "isRevoked",
          "type": "bool"
        }
      ],
      "stateMutability": "view",
      "type": "function"
    },
    {
      "inputs": [
        {
          "internalType": "uint256",
          "name": "_docId",
          "type": "uint256"
        },
        {
          "internalType": "address",
          "name": "_user",
          "type": "address"
        }
      ],
      "name": "getRole",
      "outputs": [
        {
          "internalType": "enum DocumentSign.Role",
          "name": "",
          "type": "uint8"
        }
      ],
      "stateMutability": "view",
      "type": "function"
    },
    {
      "inputs": [
        {
          "internalType": "uint256",
          "name": "_docId",
          "type": "uint256"
        },
        {
          "internalType": "address",
          "name": "_signer",
          "type": "address"
        }
      ],
      "name": "getSignTimestamp",
      "outputs": [
        {
          "internalType": "uint256",
          "name": "",
          "type": "uint256"
        }
      ],
      "stateMutability": "view",
      "type": "function"
    },
    {
      "inputs": [
        {
          "internalType": "uint256",
          "name": "_docId",
          "type": "uint256"
        },
        {
          "internalType": "address",
          "name": "_signer",
          "type": "address"
        }
      ],
      "name": "hasSigned",
      "outputs": [
        {
          "internalType": "bool",
          "name": "",
          "type": "bool"
        }
      ],
      "stateMutability": "view",
      "type": "function"
    },
    {
      "inputs": [
        {
          "internalType": "uint256",
          "name": "_docId",
          "type": "uint256"
        }
      ],
      "name": "isExpired",
      "outputs": [
        {
          "internalType": "bool",
          "name": "",
          "type": "bool"
        }
      ],
      "stateMutability": "view",
      "type": "function"
    },
    {
      "inputs": [
        {
          "internalType": "uint256",
          "name": "_docId",
          "type": "uint256"
        },
        {
          "internalType": "string",
          "name": "_reason",
          "type": "string"
        }
      ],
      "name": "revokeDocument",
      "outputs": [],
      "stateMutability": "nonpayable",
      "type": "function"
    },
    {
      "inputs": [
        {
          "internalType": "uint256",
          "name": "_docId",
          "type": "uint256"
        }
      ],
      "name": "signDocument",
      "outputs": [],
      "stateMutability": "nonpayable",
      "type": "function"
    }
  ],
  "bytecode": "0x608060405234801561001057600080fd5b5061280d806100206000396000f3fe608060405234801561001057600080fd5b50600436106100a95760003560e01c8063a5b16b2e11610071578063a5b16b2e14610190578063c2a6ebfb146101ae578063cb561824146101ca578063d0e2a019146101fa578063d9548e5314610216578063e0cd77b014610246576100a9565b80631b1ab53d146100ae5780633f9b250a146100de57806363a50d5014610114578063709df8d91461013057806393552a3d14610160575b600080fd5b6100c860048036038101906100c39190611765565b610276565b6040516100d591906117b4565b60405180910390f35b6100f860048036038101906100f391906117cf565b6102d3565b60405161010b9796959493929190611974565b60405180910390f35b61012e600480360381019061012991906117cf565b610587565b005b61014a60048036038101906101459190611765565b6109dc565b60405161015791906119f1565b60405180910390f35b61017a60048036038101906101759190611765565b610a46565b6040516101879190611a83565b60405180910390f35b610198610b12565b6040516101a591906117b4565b60405180910390f35b6101c860048036038101906101c39190611bd3565b610b18565b005b6101e460048036038101906101df9190611d0a565b610f11565b6040516101f191906117b4565b60405180910390f35b610214600480360381019061020f9190611d95565b61139b565b005b610230600480360381019061022b91906117cf565b6115b3565b60405161023d91906119f1565b60405180910390f35b610260600480360381019061025b91906117cf565b6115ea565b60405161026d9190611df1565b60405180910390f35b600080600084815260200190815260200160002060050160008373ffffffffffffffffffffffffffffffffffffffff1673ffffffffffffffffffffffffffffffffffffffff16815260200190815260200160002054905092915050565b60606000606060008060008060008060008a815260200190815260200160002090508060080160019054906101000a900460ff16610346576040517f08c379a000000000000000000000000000000000000000000000000000000000815260040161033d90611e58565b60405180910390fd5b60006001905060005b826002018054905081101561040d5782600401600084600201838154811061037a57610379611e78565b5b9060005260206000200160009054906101000a900473ffffffffffffffffffffffffffffffffffffffff1673ffffffffffffffffffffffffffffffffffffffff1673ffffffffffffffffffffffffffffffffffffffff16815260200190815260200160002060009054906101000a900460ff166103fa576000915061040d565b808061040590611ed6565b91505061034f565b50816000018260010160009054906101000a900473ffffffffffffffffffffffffffffffffffffffff168360020184600601548560070154858760080160009054906101000a900460ff1686805461046490611f4d565b80601f016020809104026020016040519081016040528092919081815260200182805461049090611f4d565b80156104dd5780601f106104b2576101008083540402835291602001916104dd565b820191906000526020600020905b8154815290600101906020018083116104c057829003601f168201915b505050505096508480548060200260200160405190810160405280929190818152602001828054801561056557602002820191906000526020600020905b8160009054906101000a900473ffffffffffffffffffffffffffffffffffffffff1673ffffffffffffffffffffffffffffffffffffffff168152602001906001019080831161051b575b5050505050945098509850985098509850985098505050919395979092949650565b8060008082815260200190815260200160002060080160019054906101000a900460ff166105ea576040517f08c379a00000000000000000000000000000000000000000000000000000000081526004016105e190611e58565b60405180910390fd5b6002808111156105fd576105fc611a0c565b5b60008083815260200190815260200160002060030160003373ffffffffffffffffffffffffffffffffffffffff1673ffffffffffffffffffffffffffffffffffffffff16815260200190815260200160002060009054906101000a900460ff16600281111561066f5761066e611a0c565b5b146106af576040517f08c379a00000000000000000000000000000000000000000000000000000000081526004016106a690611fca565b60405180910390fd5b8160008082815260200190815260200160002060080160009054906101000a900460ff1615610713576040517f08c379a000000000000000000000000000000000000000000000000000000000815260040161070a90612036565b60405180910390fd5b60008060008581526020019081526020016000209050610732846115b3565b15610772576040517f08c379a0000000000000000000000000000000000000000000000000000000008152600401610769906120a2565b60405180910390fd5b8060040160003373ffffffffffffffffffffffffffffffffffffffff1673ffffffffffffffffffffffffffffffffffffffff16815260200190815260200160002060009054906101000a900460ff1615610801576040517f08c379a00000000000000000000000000000000000000000000000000000000081526004016107f89061210e565b60405180910390fd5b3373ffffffffffffffffffffffffffffffffffffffff168160020182600a01548154811061083257610831611e78565b5b9060005260206000200160009054906101000a900473ffffffffffffffffffffffffffffffffffffffff1673ffffffffffffffffffffffffffffffffffffffff16146108b3576040517f08c379a00000000000000000000000000000000000000000000000000000000081526004016108aa9061217a565b60405180910390fd5b60018160040160003373ffffffffffffffffffffffffffffffffffffffff1673ffffffffffffffffffffffffffffffffffffffff16815260200190815260200160002060006101000a81548160ff021916908315150217905550428160050160003373ffffffffffffffffffffffffffffffffffffffff1673ffffffffffffffffffffffffffffffffffffffff1681526020019081526020016000208190555080600701600081548092919061096890611ed6565b919050555080600a01600081548092919061098290611ed6565b91905055503373ffffffffffffffffffffffffffffffffffffffff16847fe7324c4138a9f505bfe9d1de2fbfe2aef2ef2fee70ea9d93b5b2d348a1bbdd2a426040516109ce91906117b4565b60405180910390a350505050565b600080600084815260200190815260200160002060040160008373ffffffffffffffffffffffffffffffffffffffff1673ffffffffffffffffffffffffffffffffffffffff16815260200190815260200160002060009054906101000a900460ff16905092915050565b600080600084815260200190815260200160002060080160019054906101000a900460ff16610aaa576040517f08c379a0000000000000000000000000000000000000000000000000000000008152600401610aa190611e58565b60405180910390fd5b60008084815260200190815260200160002060030160008373ffffffffffffffffffffffffffffffffffffffff1673ffffffffffffffffffffffffffffffffffffffff16815260200190815260200160002060009054906101000a900460ff16905092915050565b60015481565b8260008082815260200190815260200160002060080160019054906101000a900460ff16610b7b576040517f08c379a0000000000000000000000000000000000000000000000000000000008152600401610b7290611e58565b60405180910390fd5b60016002811115610b8f57610b8e611a0c565b5b60008083815260200190815260200160002060030160003373ffffffffffffffffffffffffffffffffffffffff1673ffffffffffffffffffffffffffffffffffffffff16815260200190815260200160002060009054906101000a900460ff166002811115610c0157610c00611a0c565b5b14610c41576040517f08c379a0000000000000000000000000000000000000000000000000000000008152600401610c38906121e6565b60405180910390fd5b8360008082815260200190815260200160002060080160009054906101000a900460ff1615610ca5576040517f08c379a0000000000000000000000000000000000000000000000000000000008152600401610c9c90612036565b60405180910390fd5b60008060008781526020019081526020016000209050610cc4866115b3565b15610d04576040517f08c379a0000000000000000000000000000000000000000000000000000000008152600401610cfb906120a2565b60405180910390fd5b60006001905060005b8260020180549050811015610dcb57826004016000846002018381548110610d3857610d37611e78565b5b9060005260206000200160009054906101000a900473ffffffffffffffffffffffffffffffffffffffff1673ffffffffffffffffffffffffffffffffffffffff1673ffffffffffffffffffffffffffffffffffffffff16815260200190815260200160002060009054906101000a900460ff16610db85760009150610dcb565b8080610dc390611ed6565b915050610d0d565b508015610e0d576040517f08c379a0000000000000000000000000000000000000000000000000000000008152600401610e0490612278565b60405180910390fd5b6000865111610e51576040517f08c379a0000000000000000000000000000000000000000000000000000000008152600401610e48906122e4565b60405180910390fd5b60008514610ea557428511610e9b576040517f08c379a0000000000000000000000000000000000000000000000000000000008152600401610e9290612350565b60405180910390fd5b8482600901819055505b85826000019081610eb6919061251c565b503373ffffffffffffffffffffffffffffffffffffffff16877fd4af573228b33e73cdfacac0a74b920c7b511e2ff826fb63a2e0bb5790b54ebc8842604051610f009291906125ee565b60405180910390a350505050505050565b600080845111610f56576040517f08c379a0000000000000000000000000000000000000000000000000000000008152600401610f4d906122e4565b60405180910390fd5b6000835111610f9a576040517f08c379a0000000000000000000000000000000000000000000000000000000008152600401610f919061266a565b60405180910390fd5b6000821480610fa857504282115b610fe7576040517f08c379a0000000000000000000000000000000000000000000000000000000008152600401610fde90612350565b60405180910390fd5b60016000815480929190610ffa90611ed6565b919050555060008060006001548152602001908152602001600020905084816000019081611028919061251c565b50338160010160006101000a81548173ffffffffffffffffffffffffffffffffffffffff021916908373ffffffffffffffffffffffffffffffffffffffff16021790555042816006018190555060018160080160016101000a81548160ff02191690831515021790555082816009018190555060018160030160003373ffffffffffffffffffffffffffffffffffffffff1673ffffffffffffffffffffffffffffffffffffffff16815260200190815260200160002060006101000a81548160ff02191690836002811115611100576110ff611a0c565b5b021790555060005b845181101561133857600073ffffffffffffffffffffffffffffffffffffffff1685828151811061113c5761113b611e78565b5b602002602001015173ffffffffffffffffffffffffffffffffffffffff160361119a576040517f08c379a0000000000000000000000000000000000000000000000000000000008152600401611191906126d6565b60405180910390fd5b3373ffffffffffffffffffffffffffffffffffffffff168582815181106111c4576111c3611e78565b5b602002602001015173ffffffffffffffffffffffffffffffffffffffff1603611222576040517f08c379a000000000000000000000000000000000000000000000000000000000815260040161121990612742565b60405180910390fd5b8160020185828151811061123957611238611e78565b5b60200260200101519080600181540180825580915050600190039060005260206000200160009091909190916101000a81548173ffffffffffffffffffffffffffffffffffffffff021916908373ffffffffffffffffffffffffffffffffffffffff16021790555060028260030160008784815181106112bc576112bb611e78565b5b602002602001015173ffffffffffffffffffffffffffffffffffffffff1673ffffffffffffffffffffffffffffffffffffffff16815260200190815260200160002060006101000a81548160ff021916908360028111156113205761131f611a0c565b5b0217905550808061133090611ed6565b915050611108565b503373ffffffffffffffffffffffffffffffffffffffff166001547f0f34f336d6e1cc231d161403dd583f287c90d4e144120937a223d9531afe848c87874260405161138693929190612762565b60405180910390a36001549150509392505050565b8160008082815260200190815260200160002060080160019054906101000a900460ff166113fe576040517f08c379a00000000000000000000000000000000000000000000000000000000081526004016113f590611e58565b60405180910390fd5b6001600281111561141257611411611a0c565b5b60008083815260200190815260200160002060030160003373ffffffffffffffffffffffffffffffffffffffff1673ffffffffffffffffffffffffffffffffffffffff16815260200190815260200160002060009054906101000a900460ff16600281111561148457611483611a0c565b5b146114c4576040517f08c379a00000000000000000000000000000000000000000000000000000000081526004016114bb906121e6565b60405180910390fd5b8260008082815260200190815260200160002060080160009054906101000a900460ff1615611528576040517f08c379a000000000000000000000000000000000000000000000000000000000815260040161151f90612036565b60405180910390fd5b6000806000868152602001908152602001600020905060018160080160006101000a81548160ff0219169083151502179055503373ffffffffffffffffffffffffffffffffffffffff16857f7a58ff517c00037031f8886d9305cec9b4a44d1c1a04fc2ef4d7a5d7a09eede542876040516115a49291906127a7565b60405180910390a35050505050565b600080600080848152602001908152602001600020905060008160090154141580156115e25750806009015442115b915050919050565b60008060008084815260200190815260200160002090508060080160019054906101000a900460ff16611652576040517f08c379a000000000000000000000000000000000000000000000000000000000815260040161164990611e58565b60405180910390fd5b806002018054905081600a015410156116b2578060020181600a01548154811061167f5761167e611e78565b5b9060005260206000200160009054906101000a900473ffffffffffffffffffffffffffffffffffffffff169150506116b8565b60009150505b919050565b6000604051905090565b600080fd5b600080fd5b6000819050919050565b6116e4816116d1565b81146116ef57600080fd5b50565b600081359050611701816116db565b92915050565b600073ffffffffffffffffffffffffffffffffffffffff82169050919050565b600061173282611707565b9050919050565b61174281611727565b811461174d57600080fd5b50565b60008135905061175f81611739565b92915050565b6000806040838503121561177c5761177b6116c7565b5b600061178a858286016116f2565b925050602061179b85828601611750565b9150509250929050565b6117ae816116d1565b82525050565b60006020820190506117c960008301846117a5565b92915050565b6000602082840312156117e5576117e46116c7565b5b60006117f3848285016116f2565b91505092915050565b600081519050919050565b600082825260208201905092915050565b60005b8381101561183657808201518184015260208101905061181b565b60008484015250505050565b6000601f19601f8301169050919050565b600061185e826117fc565b6118688185611807565b9350611878818560208601611818565b61188181611842565b840191505092915050565b61189581611727565b82525050565b600081519050919050565b600082825260208201905092915050565b6000819050602082019050919050565b6118d081611727565b82525050565b60006118e283836118c7565b60208301905092915050565b6000602082019050919050565b60006119068261189b565b61191081856118a6565b935061191b836118b7565b8060005b8381101561194c57815161193388826118d6565b975061193e836118ee565b92505060018101905061191f565b5085935050505092915050565b60008115159050919050565b61196e81611959565b82525050565b600060e082019050818103600083015261198e818a611853565b905061199d602083018961188c565b81810360408301526119af81886118fb565b90506119be60608301876117a5565b6119cb60808301866117a5565b6119d860a0830185611965565b6119e560c0830184611965565b98975050505050505050565b6000602082019050611a066000830184611965565b92915050565b7f4e487b7100000000000000000000000000000000000000000000000000000000600052602160045260246000fd5b60038110611a4c57611a4b611a0c565b5b50565b6000819050611a5d82611a3b565b919050565b6000611a6d82611a4f565b9050919050565b611a7d81611a62565b82525050565b6000602082019050611a986000830184611a74565b92915050565b600080fd5b600080fd5b7f4e487b7100000000000000000000000000000000000000000000000000000000600052604160045260246000fd5b611ae082611842565b810181811067ffffffffffffffff82111715611aff57611afe611aa8565b5b80604052505050565b6000611b126116bd565b9050611b1e8282611ad7565b919050565b600067ffffffffffffffff821115611b3e57611b3d611aa8565b5b611b4782611842565b9050602081019050919050565b82818337600083830152505050565b6000611b76611b7184611b23565b611b08565b905082815260208101848484011115611b9257611b91611aa3565b5b611b9d848285611b54565b509392505050565b600082601f830112611bba57611bb9611a9e565b5b8135611bca848260208601611b63565b91505092915050565b600080600060608486031215611bec57611beb6116c7565b5b6000611bfa868287016116f2565b935050602084013567ffffffffffffffff811115611c1b57611c1a6116cc565b5b611c2786828701611ba5565b9250506040611c38868287016116f2565b9150509250925092565b600067ffffffffffffffff821115611c5d57611c5c611aa8565b5b602082029050602081019050919050565b600080fd5b6000611c86611c8184611c42565b611b08565b90508083825260208201905060208402830185811115611ca957611ca8611c6e565b5b835b81811015611cd25780611cbe8882611750565b845260208401935050602081019050611cab565b5050509392505050565b600082601f830112611cf157611cf0611a9e565b5b8135611d01848260208601611c73565b91505092915050565b600080600060608486031215611d2357611d226116c7565b5b600084013567ffffffffffffffff811115611d4157611d406116cc565b5b611d4d86828701611ba5565b935050602084013567ffffffffffffffff811115611d6e57611d6d6116cc565b5b611d7a86828701611cdc565b9250506040611d8b868287016116f2565b9150509250925092565b60008060408385031215611dac57611dab6116c7565b5b6000611dba858286016116f2565b925050602083013567ffffffffffffffff811115611ddb57611dda6116cc565b5b611de785828601611ba5565b9150509250929050565b6000602082019050611e06600083018461188c565b92915050565b7f446f63756d656e7420646f6573206e6f74206578697374000000000000000000600082015250565b6000611e42601783611807565b9150611e4d82611e0c565b602082019050919050565b60006020820190508181036000830152611e7181611e35565b9050919050565b7f4e487b7100000000000000000000000000000000000000000000000000000000600052603260045260246000fd5b7f4e487b7100000000000000000000000000000000000000000000000000000000600052601160045260246000fd5b6000611ee1826116d1565b91507fffffffffffffffffffffffffffffffffffffffffffffffffffffffffffffffff8203611f1357611f12611ea7565b5b600182019050919050565b7f4e487b7100000000000000000000000000000000000000000000000000000000600052602260045260246000fd5b60006002820490506001821680611f6557607f821691505b602082108103611f7857611f77611f1e565b5b50919050565b7f4e6f7420617574686f72697a6564207369676e65720000000000000000000000600082015250565b6000611fb4601583611807565b9150611fbf82611f7e565b602082019050919050565b60006020820190508181036000830152611fe381611fa7565b9050919050565b7f446f63756d656e74206973207265766f6b656400000000000000000000000000600082015250565b6000612020601383611807565b915061202b82611fea565b602082019050919050565b6000602082019050818103600083015261204f81612013565b9050919050565b7f446f63756d656e74206578706972656400000000000000000000000000000000600082015250565b600061208c601083611807565b915061209782612056565b602082019050919050565b600060208201905081810360008301526120bb8161207f565b9050919050565b7f416c7265616479207369676e6564000000000000000000000000000000000000600082015250565b60006120f8600e83611807565b9150612103826120c2565b602082019050919050565b60006020820190508181036000830152612127816120eb565b9050919050565b7f4e6f7420796f7572207475726e20746f207369676e0000000000000000000000600082015250565b6000612164601583611807565b915061216f8261212e565b602082019050919050565b6000602082019050818103600083015261219381612157565b9050919050565b7f4e6f7420646f63756d656e74206f776e65720000000000000000000000000000600082015250565b60006121d0601283611807565b91506121db8261219a565b602082019050919050565b600060208201905081810360008301526121ff816121c3565b9050919050565b7f43616e6e6f7420616d656e642066756c6c79207369676e656420646f63756d6560008201527f6e74000000000000000000000000000000000000000000000000000000000000602082015250565b6000612262602283611807565b915061226d82612206565b604082019050919050565b6000602082019050818103600083015261229181612255565b9050919050565b7f4950465320686173682072657175697265640000000000000000000000000000600082015250565b60006122ce601283611807565b91506122d982612298565b602082019050919050565b600060208201905081810360008301526122fd816122c1565b9050919050565b7f457870697279206d75737420626520696e207468652066757475726500000000600082015250565b600061233a601c83611807565b915061234582612304565b602082019050919050565b600060208201905081810360008301526123698161232d565b9050919050565b60008190508160005260206000209050919050565b60006020601f8301049050919050565b600082821b905092915050565b6000600883026123d27fffffffffffffffffffffffffffffffffffffffffffffffffffffffffffffffff82612395565b6123dc8683612395565b95508019841693508086168417925050509392505050565b6000819050919050565b600061241961241461240f846116d1565b6123f4565b6116d1565b9050919050565b6000819050919050565b612433836123fe565b61244761243f82612420565b8484546123a2565b825550505050565b600090565b61245c61244f565b61246781848461242a565b505050565b5b8181101561248b57612480600082612454565b60018101905061246d565b5050565b601f8211156124d0576124a181612370565b6124aa84612385565b810160208510156124b9578190505b6124cd6124c585612385565b83018261246c565b50505b505050565b600082821c905092915050565b60006124f3600019846008026124d5565b1980831691505092915050565b600061250c83836124e2565b9150826002028217905092915050565b612525826117fc565b67ffffffffffffffff81111561253e5761253d611aa8565b5b6125488254611f4d565b61255382828561248f565b600060209050601f8311600181146125865760008415612574578287015190505b61257e8582612500565b8655506125e6565b601f19841661259486612370565b60005b828110156125bc57848901518255600182019150602085019450602081019050612597565b868310156125d957848901516125d5601f8916826124e2565b8355505b6001600288020188555050505b505050505050565b600060408201905081810360008301526126088185611853565b905061261760208301846117a5565b9392505050565b7f4174206c65617374206f6e65207369676e657220726571756972656400000000600082015250565b6000612654601c83611807565b915061265f8261261e565b602082019050919050565b6000602082019050818103600083015261268381612647565b9050919050565b7f496e76616c6964207369676e6572206164647265737300000000000000000000600082015250565b60006126c0601683611807565b91506126cb8261268a565b602082019050919050565b600060208201905081810360008301526126ef816126b3565b9050919050565b7f4f776e65722063616e6e6f74206265207369676e657200000000000000000000600082015250565b600061272c601683611807565b9150612737826126f6565b602082019050919050565b6000602082019050818103600083015261275b8161271f565b9050919050565b6000606082019050818103600083015261277c8186611853565b9050818103602083015261279081856118fb565b905061279f60408301846117a5565b949350505050565b60006040820190506127bc60008301856117a5565b81810360208301526127ce8184611853565b9050939250505056fea2646970667358221220d69b456cca5d6b48078a835231cd564d21e2168cd403a06bddeb679bcfd4e84464736f6c63430008150033",
  "linkReferences": {},
  "deployedLinkReferences": {}
}