{
  "_format": "hh-sol-artifact-1",
  "contractName": "DocumentSign",
  "sourceName": "contracts/Docu3.sol",
  "abi": [
    {
      "anonymous": false,
      "inputs": [
        {
          "indexed": true,
          "internalType": "uint256",
          "name": "docId",
          "type": "uint256"
        },
        {
          "indexed": false,
          "internalType": "string",
          "name": "ipfsHash",
          "type": "string"
        },
        {
          "indexed": true,
          "internalType": "address",
          "name": "creator",
          "type": "address"
        },
        {
          "indexed": false,
          "internalType": "address[]",
          "name": "signers",
          "type": "address[]"
        },
        {
          "indexed": false,
          "internalType": "uint256",
          "name": "createdAt",
          "type": "uint256"
        }
      ],
      "name": "DocumentCreated",
      "type": "event"
    },
    {
      "anonymous": false,
      "inputs": [
        {
          "indexed": true,
          "internalType": "uint256",
          "name": "docId",
          "type": "uint256"
        },
        {
          "indexed": true,
          "internalType": "address",
          "name": "revoker",
          "type": "address"
        },
        {
          "indexed": false,
          "internalType": "uint256",
          "name": "revokedAt",
          "type": "uint256"
        }
      ],
      "name": "DocumentRevoked",
      "type": "event"
    },
    {
      "anonymous": false,
      "inputs": [
        {
          "indexed": true,
          "internalType": "uint256",
          "name": "docId",
          "type": "uint256"
        },
        {
          "indexed": true,
          "internalType": "address",
          "name": "signer",
          "type": "address"
        },
        {
          "indexed": false,
          "internalType": "uint256",
          "name": "signedAt",
          "type": "uint256"
        }
      ],
      "name": "DocumentSigned",
      "type": "event"
    },
    {
      "inputs": [
        {
          "internalType": "string",
          "name": "_ipfsHash",
          "type": "string"
        },
        {
          "internalType": "address[]",
          "name": "_signers",
          "type": "address[]"
        }
      ],
      "name": "createDocument",
      "outputs": [
        {
          "internalType": "uint256",
          "name": "",
          "type": "uint256"
        }
      ],
      "stateMutability": "nonpayable",
      "type": "function"
    },
    {
      "inputs": [],
      "name": "documentCount",
      "outputs": [
        {
          "internalType": "uint256",
          "name": "",
          "type": "uint256"
        }
      ],
      "stateMutability": "view",
      "type": "function"
    },
    {
      "inputs": [
        {
          "internalType": "uint256",
          "name": "_docId",
          "type": "uint256"
        }
      ],
      "name": "getDocument",
      "outputs": [
        {
          "internalType": "string",
          "name": "ipfsHash",
          "type": "string"
        },
        {
          "internalType": "address",
          "name": "creator",
          "type": "address"
        },
        {
          "internalType": "address[]",
          "name": "signers",
          "type": "address[]"
        },
        {
          "internalType": "uint256",
          "name": "createdAt",
          "type": "uint256"
        },
        {
          "internalType": "uint256",
          "name": "signatures",
          "type": "uint256"
        },
        {
          "internalType": "bool",
          "name": "fullySigned",
          "type": "bool"
        },
        {
          "internalType": "bool",
          "name": "isRevoked",
          "type": "bool"
        }
      ],
      "stateMutability": "view",
      "type": "function"
    },
    {
      "inputs": [
        {
          "internalType": "uint256",
          "name": "_docId",
          "type": "uint256"
        },
        {
          "internalType": "address",
          "name": "_user",
          "type": "address"
        }
      ],
      "name": "getRole",
      "outputs": [
        {
          "internalType": "enum DocumentSign.Role",
          "name": "",
          "type": "uint8"
        }
      ],
      "stateMutability": "view",
      "type": "function"
    },
    {
      "inputs": [
        {
          "internalType": "uint256",
          "name": "_docId",
          "type": "uint256"
        },
        {
          "internalType": "address",
          "name": "_signer",
          "type": "address"
        }
      ],
      "name": "getSignTimestamp",
      "outputs": [
        {
          "internalType": "uint256",
          "name": "",
          "type": "uint256"
        }
      ],
      "stateMutability": "view",
      "type": "function"
    },
    {
      "inputs": [
        {
          "internalType": "uint256",
          "name": "_docId",
          "type": "uint256"
        },
        {
          "internalType": "address",
          "name": "_signer",
          "type": "address"
        }
      ],
      "name": "hasSigned",
      "outputs": [
        {
          "internalType": "bool",
          "name": "",
          "type": "bool"
        }
      ],
      "stateMutability": "view",
      "type": "function"
    },
    {
      "inputs": [
        {
          "internalType": "uint256",
          "name": "_docId",
          "type": "uint256"
        }
      ],
      "name": "revokeDocument",
      "outputs": [],
      "stateMutability": "nonpayable",
      "type": "function"
    },
    {
      "inputs": [
        {
          "internalType": "uint256",
          "name": "_docId",
          "type": "uint256"
        }
      ],
      "name": "signDocument",
      "outputs": [],
      "stateMutability": "nonpayable",
      "type": "function"
    }
  ],
  "bytecode": "0x608060405234801561001057600080fd5b50611dcf806100206000396000f3fe608060405234801561001057600080fd5b50600436106100885760003560e01c8063709df8d91161005b578063709df8d91461013f57806393552a3d1461016f578063a5b16b2e1461019f578063fba1842a146101bd57610088565b80631b1ab53d1461008d57806335ac6064146100bd5780633f9b250a146100ed57806363a50d5014610123575b600080fd5b6100a760048036038101906100a29190611056565b6101d9565b6040516100b491906110a5565b60405180910390f35b6100d760048036038101906100d291906112ce565b610236565b6040516100e491906110a5565b60405180910390f35b61010760048036038101906101029190611346565b610669565b60405161011a97969594939291906114da565b60405180910390f35b61013d60048036038101906101389190611346565b61091d565b005b61015960048036038101906101549190611056565b610c5d565b6040516101669190611557565b60405180910390f35b61018960048036038101906101849190611056565b610cc7565b60405161019691906115e9565b60405180910390f35b6101a7610d93565b6040516101b491906110a5565b60405180910390f35b6101d760048036038101906101d29190611346565b610d99565b005b600080600084815260200190815260200160002060050160008373ffffffffffffffffffffffffffffffffffffffff1673ffffffffffffffffffffffffffffffffffffffff16815260200190815260200160002054905092915050565b60008083511161027b576040517f08c379a000000000000000000000000000000000000000000000000000000000815260040161027290611650565b60405180910390fd5b60008251116102bf576040517f08c379a00000000000000000000000000000000000000000000000000000000081526004016102b6906116bc565b60405180910390fd5b600160008154809291906102d29061170b565b919050555060008060006001548152602001908152602001600020905083816000019081610300919061195f565b50338160010160006101000a81548173ffffffffffffffffffffffffffffffffffffffff021916908373ffffffffffffffffffffffffffffffffffffffff16021790555042816006018190555060018160080160016101000a81548160ff02191690831515021790555060018160030160003373ffffffffffffffffffffffffffffffffffffffff1673ffffffffffffffffffffffffffffffffffffffff16815260200190815260200160002060006101000a81548160ff021916908360028111156103cf576103ce611572565b5b021790555060005b835181101561060757600073ffffffffffffffffffffffffffffffffffffffff1684828151811061040b5761040a611a31565b5b602002602001015173ffffffffffffffffffffffffffffffffffffffff1603610469576040517f08c379a000000000000000000000000000000000000000000000000000000000815260040161046090611aac565b60405180910390fd5b3373ffffffffffffffffffffffffffffffffffffffff1684828151811061049357610492611a31565b5b602002602001015173ffffffffffffffffffffffffffffffffffffffff16036104f1576040517f08c379a00000000000000000000000000000000000000000000000000000000081526004016104e890611b18565b60405180910390fd5b8160020184828151811061050857610507611a31565b5b60200260200101519080600181540180825580915050600190039060005260206000200160009091909190916101000a81548173ffffffffffffffffffffffffffffffffffffffff021916908373ffffffffffffffffffffffffffffffffffffffff160217905550600282600301600086848151811061058b5761058a611a31565b5b602002602001015173ffffffffffffffffffffffffffffffffffffffff1673ffffffffffffffffffffffffffffffffffffffff16815260200190815260200160002060006101000a81548160ff021916908360028111156105ef576105ee611572565b5b021790555080806105ff9061170b565b9150506103d7565b503373ffffffffffffffffffffffffffffffffffffffff166001547f0f34f336d6e1cc231d161403dd583f287c90d4e144120937a223d9531afe848c86864260405161065593929190611b38565b60405180910390a360015491505092915050565b60606000606060008060008060008060008a815260200190815260200160002090508060080160019054906101000a900460ff166106dc576040517f08c379a00000000000000000000000000000000000000000000000000000000081526004016106d390611bc9565b60405180910390fd5b60006001905060005b82600201805490508110156107a3578260040160008460020183815481106107105761070f611a31565b5b9060005260206000200160009054906101000a900473ffffffffffffffffffffffffffffffffffffffff1673ffffffffffffffffffffffffffffffffffffffff1673ffffffffffffffffffffffffffffffffffffffff16815260200190815260200160002060009054906101000a900460ff1661079057600091506107a3565b808061079b9061170b565b9150506106e5565b50816000018260010160009054906101000a900473ffffffffffffffffffffffffffffffffffffffff168360020184600601548560070154858760080160009054906101000a900460ff168680546107fa90611782565b80601f016020809104026020016040519081016040528092919081815260200182805461082690611782565b80156108735780601f1061084857610100808354040283529160200191610873565b820191906000526020600020905b81548152906001019060200180831161085657829003601f168201915b50505050509650848054806020026020016040519081016040528092919081815260200182805480156108fb57602002820191906000526020600020905b8160009054906101000a900473ffffffffffffffffffffffffffffffffffffffff1673ffffffffffffffffffffffffffffffffffffffff16815260200190600101908083116108b1575b5050505050945098509850985098509850985098505050919395979092949650565b8060008082815260200190815260200160002060080160019054906101000a900460ff16610980576040517f08c379a000000000000000000000000000000000000000000000000000000000815260040161097790611bc9565b60405180910390fd5b60028081111561099357610992611572565b5b60008083815260200190815260200160002060030160003373ffffffffffffffffffffffffffffffffffffffff1673ffffffffffffffffffffffffffffffffffffffff16815260200190815260200160002060009054906101000a900460ff166002811115610a0557610a04611572565b5b14610a45576040517f08c379a0000000000000000000000000000000000000000000000000000000008152600401610a3c90611c35565b60405180910390fd5b8160008082815260200190815260200160002060080160009054906101000a900460ff1615610aa9576040517f08c379a0000000000000000000000000000000000000000000000000000000008152600401610aa090611ca1565b60405180910390fd5b600080600085815260200190815260200160002090508060040160003373ffffffffffffffffffffffffffffffffffffffff1673ffffffffffffffffffffffffffffffffffffffff16815260200190815260200160002060009054906101000a900460ff1615610b4e576040517f08c379a0000000000000000000000000000000000000000000000000000000008152600401610b4590611d0d565b60405180910390fd5b60018160040160003373ffffffffffffffffffffffffffffffffffffffff1673ffffffffffffffffffffffffffffffffffffffff16815260200190815260200160002060006101000a81548160ff021916908315150217905550428160050160003373ffffffffffffffffffffffffffffffffffffffff1673ffffffffffffffffffffffffffffffffffffffff16815260200190815260200160002081905550806007016000815480929190610c039061170b565b91905055503373ffffffffffffffffffffffffffffffffffffffff16847fe7324c4138a9f505bfe9d1de2fbfe2aef2ef2fee70ea9d93b5b2d348a1bbdd2a42604051610c4f91906110a5565b60405180910390a350505050565b600080600084815260200190815260200160002060040160008373ffffffffffffffffffffffffffffffffffffffff1673ffffffffffffffffffffffffffffffffffffffff16815260200190815260200160002060009054906101000a900460ff16905092915050565b600080600084815260200190815260200160002060080160019054906101000a900460ff16610d2b576040517f08c379a0000000000000000000000000000000000000000000000000000000008152600401610d2290611bc9565b60405180910390fd5b60008084815260200190815260200160002060030160008373ffffffffffffffffffffffffffffffffffffffff1673ffffffffffffffffffffffffffffffffffffffff16815260200190815260200160002060009054906101000a900460ff16905092915050565b60015481565b8060008082815260200190815260200160002060080160019054906101000a900460ff16610dfc576040517f08c379a0000000000000000000000000000000000000000000000000000000008152600401610df390611bc9565b60405180910390fd5b60016002811115610e1057610e0f611572565b5b60008083815260200190815260200160002060030160003373ffffffffffffffffffffffffffffffffffffffff1673ffffffffffffffffffffffffffffffffffffffff16815260200190815260200160002060009054906101000a900460ff166002811115610e8257610e81611572565b5b14610ec2576040517f08c379a0000000000000000000000000000000000000000000000000000000008152600401610eb990611d79565b60405180910390fd5b8160008082815260200190815260200160002060080160009054906101000a900460ff1615610f26576040517f08c379a0000000000000000000000000000000000000000000000000000000008152600401610f1d90611ca1565b60405180910390fd5b6000806000858152602001908152602001600020905060018160080160006101000a81548160ff0219169083151502179055503373ffffffffffffffffffffffffffffffffffffffff16847f64528b505f9036d109710ee785a2b439943867003b9a4f7d1f3958f101104fbf42604051610fa091906110a5565b60405180910390a350505050565b6000604051905090565b600080fd5b600080fd5b6000819050919050565b610fd581610fc2565b8114610fe057600080fd5b50565b600081359050610ff281610fcc565b92915050565b600073ffffffffffffffffffffffffffffffffffffffff82169050919050565b600061102382610ff8565b9050919050565b61103381611018565b811461103e57600080fd5b50565b6000813590506110508161102a565b92915050565b6000806040838503121561106d5761106c610fb8565b5b600061107b85828601610fe3565b925050602061108c85828601611041565b9150509250929050565b61109f81610fc2565b82525050565b60006020820190506110ba6000830184611096565b92915050565b600080fd5b600080fd5b6000601f19601f8301169050919050565b7f4e487b7100000000000000000000000000000000000000000000000000000000600052604160045260246000fd5b611113826110ca565b810181811067ffffffffffffffff82111715611132576111316110db565b5b80604052505050565b6000611145610fae565b9050611151828261110a565b919050565b600067ffffffffffffffff821115611171576111706110db565b5b61117a826110ca565b9050602081019050919050565b82818337600083830152505050565b60006111a96111a484611156565b61113b565b9050828152602081018484840111156111c5576111c46110c5565b5b6111d0848285611187565b509392505050565b600082601f8301126111ed576111ec6110c0565b5b81356111fd848260208601611196565b91505092915050565b600067ffffffffffffffff821115611221576112206110db565b5b602082029050602081019050919050565b600080fd5b600061124a61124584611206565b61113b565b9050808382526020820190506020840283018581111561126d5761126c611232565b5b835b8181101561129657806112828882611041565b84526020840193505060208101905061126f565b5050509392505050565b600082601f8301126112b5576112b46110c0565b5b81356112c5848260208601611237565b91505092915050565b600080604083850312156112e5576112e4610fb8565b5b600083013567ffffffffffffffff81111561130357611302610fbd565b5b61130f858286016111d8565b925050602083013567ffffffffffffffff8111156113305761132f610fbd565b5b61133c858286016112a0565b9150509250929050565b60006020828403121561135c5761135b610fb8565b5b600061136a84828501610fe3565b91505092915050565b600081519050919050565b600082825260208201905092915050565b60005b838110156113ad578082015181840152602081019050611392565b60008484015250505050565b60006113c482611373565b6113ce818561137e565b93506113de81856020860161138f565b6113e7816110ca565b840191505092915050565b6113fb81611018565b82525050565b600081519050919050565b600082825260208201905092915050565b6000819050602082019050919050565b61143681611018565b82525050565b6000611448838361142d565b60208301905092915050565b6000602082019050919050565b600061146c82611401565b611476818561140c565b93506114818361141d565b8060005b838110156114b2578151611499888261143c565b97506114a483611454565b925050600181019050611485565b5085935050505092915050565b60008115159050919050565b6114d4816114bf565b82525050565b600060e08201905081810360008301526114f4818a6113b9565b905061150360208301896113f2565b81810360408301526115158188611461565b90506115246060830187611096565b6115316080830186611096565b61153e60a08301856114cb565b61154b60c08301846114cb565b98975050505050505050565b600060208201905061156c60008301846114cb565b92915050565b7f4e487b7100000000000000000000000000000000000000000000000000000000600052602160045260246000fd5b600381106115b2576115b1611572565b5b50565b60008190506115c3826115a1565b919050565b60006115d3826115b5565b9050919050565b6115e3816115c8565b82525050565b60006020820190506115fe60008301846115da565b92915050565b7f4950465320686173682072657175697265640000000000000000000000000000600082015250565b600061163a60128361137e565b915061164582611604565b602082019050919050565b600060208201905081810360008301526116698161162d565b9050919050565b7f4174206c65617374206f6e65207369676e657220726571756972656400000000600082015250565b60006116a6601c8361137e565b91506116b182611670565b602082019050919050565b600060208201905081810360008301526116d581611699565b9050919050565b7f4e487b7100000000000000000000000000000000000000000000000000000000600052601160045260246000fd5b600061171682610fc2565b91507fffffffffffffffffffffffffffffffffffffffffffffffffffffffffffffffff8203611748576117476116dc565b5b600182019050919050565b7f4e487b7100000000000000000000000000000000000000000000000000000000600052602260045260246000fd5b6000600282049050600182168061179a57607f821691505b6020821081036117ad576117ac611753565b5b50919050565b60008190508160005260206000209050919050565b60006020601f8301049050919050565b600082821b905092915050565b6000600883026118157fffffffffffffffffffffffffffffffffffffffffffffffffffffffffffffffff826117d8565b61181f86836117d8565b95508019841693508086168417925050509392505050565b6000819050919050565b600061185c61185761185284610fc2565b611837565b610fc2565b9050919050565b6000819050919050565b61187683611841565b61188a61188282611863565b8484546117e5565b825550505050565b600090565b61189f611892565b6118aa81848461186d565b505050565b5b818110156118ce576118c3600082611897565b6001810190506118b0565b5050565b601f821115611913576118e4816117b3565b6118ed846117c8565b810160208510156118fc578190505b611910611908856117c8565b8301826118af565b50505b505050565b600082821c905092915050565b600061193660001984600802611918565b1980831691505092915050565b600061194f8383611925565b9150826002028217905092915050565b61196882611373565b67ffffffffffffffff811115611981576119806110db565b5b61198b8254611782565b6119968282856118d2565b600060209050601f8311600181146119c957600084156119b7578287015190505b6119c18582611943565b865550611a29565b601f1984166119d7866117b3565b60005b828110156119ff578489015182556001820191506020850194506020810190506119da565b86831015611a1c5784890151611a18601f891682611925565b8355505b6001600288020188555050505b505050505050565b7f4e487b7100000000000000000000000000000000000000000000000000000000600052603260045260246000fd5b7f496e76616c6964207369676e6572206164647265737300000000000000000000600082015250565b6000611a9660168361137e565b9150611aa182611a60565b602082019050919050565b60006020820190508181036000830152611ac581611a89565b9050919050565b7f4f776e65722063616e6e6f74206265207369676e657200000000000000000000600082015250565b6000611b0260168361137e565b9150611b0d82611acc565b602082019050919050565b60006020820190508181036000830152611b3181611af5565b9050919050565b60006060820190508181036000830152611b5281866113b9565b90508181036020830152611b668185611461565b9050611b756040830184611096565b949350505050565b7f446f63756d656e7420646f6573206e6f74206578697374000000000000000000600082015250565b6000611bb360178361137e565b9150611bbe82611b7d565b602082019050919050565b60006020820190508181036000830152611be281611ba6565b9050919050565b7f4e6f7420617574686f72697a6564207369676e65720000000000000000000000600082015250565b6000611c1f60158361137e565b9150611c2a82611be9565b602082019050919050565b60006020820190508181036000830152611c4e81611c12565b9050919050565b7f446f63756d656e74206973207265766f6b656400000000000000000000000000600082015250565b6000611c8b60138361137e565b9150611c9682611c55565b602082019050919050565b60006020820190508181036000830152611cba81611c7e565b9050919050565b7f416c7265616479207369676e6564000000000000000000000000000000000000600082015250565b6000611cf7600e8361137e565b9150611d0282611cc1565b602082019050919050565b60006020820190508181036000830152611d2681611cea565b9050919050565b7f4e6f7420646f63756d656e74206f776e65720000000000000000000000000000600082015250565b6000611d6360128361137e565b9150611d6e82611d2d565b602082019050919050565b60006020820190508181036000830152611d9281611d56565b905091905056fea2646970667358221220178e35e1dd17fd7bf7686ebd079df9e52987702073fdd16e17159f124064bf2564736f6c63430008150033",
  "linkReferences": {},
  "deployedLinkReferences": {}
}