{
  "_format": "hh-sol-artifact-1",
  "contractName": "DocumentSign",
  "sourceName": "contracts/Docu3.sol",
  "abi": [
    {
      "anonymous": false,
      "inputs": [
        {
          "indexed": false,
          "internalType": "uint256",
          "name": "docId",
          "type": "uint256"
        },
        {
          "indexed": false,
          "internalType": "string",
          "name": "ipfsHash",
          "type": "string"
        },
        {
          "indexed": false,
          "internalType": "address",
          "name": "creator",
          "type": "address"
        }
      ],
      "name": "DocumentCreated",
      "type": "event"
    },
    {
      "anonymous": false,
      "inputs": [
        {
          "indexed": false,
          "internalType": "uint256",
          "name": "docId",
          "type": "uint256"
        },
        {
          "indexed": false,
          "internalType": "address",
          "name": "signer",
          "type": "address"
        }
      ],
      "name": "DocumentSigned",
      "type": "event"
    },
    {
      "inputs": [
        {
          "internalType": "string",
          "name": "_ipfsHash",
          "type": "string"
        },
        {
          "internalType": "address[]",
          "name": "_signers",
          "type": "address[]"
        }
      ],
      "name": "createDocument",
      "outputs": [],
      "stateMutability": "nonpayable",
      "type": "function"
    },
    {
      "inputs": [],
      "name": "documentCount",
      "outputs": [
        {
          "internalType": "uint256",
          "name": "",
          "type": "uint256"
        }
      ],
      "stateMutability": "view",
      "type": "function"
    },
    {
      "inputs": [
        {
          "internalType": "uint256",
          "name": "",
          "type": "uint256"
        }
      ],
      "name": "documents",
      "outputs": [
        {
          "internalType": "string",
          "name": "ipfsHash",
          "type": "string"
        }
      ],
      "stateMutability": "view",
      "type": "function"
    },
    {
      "inputs": [
        {
          "internalType": "uint256",
          "name": "_docId",
          "type": "uint256"
        }
      ],
      "name": "signDocument",
      "outputs": [],
      "stateMutability": "nonpayable",
      "type": "function"
    }
  ],
  "bytecode": "0x608060405234801561001057600080fd5b50610e15806100206000396000f3fe608060405234801561001057600080fd5b506004361061004c5760003560e01c806335ac60641461005157806363a50d501461006d578063a5b16b2e14610089578063c2ed2b05146100a7575b600080fd5b61006b60048036038101906100669190610767565b6100d7565b005b61008760048036038101906100829190610815565b610174565b005b610091610394565b60405161009e9190610851565b60405180910390f35b6100c160048036038101906100bc9190610815565b61039a565b6040516100ce91906108eb565b60405180910390f35b600160008154809291906100ea9061093c565b9190505550600080600060015481526020019081526020016000209050828160000190816101189190610b90565b5081816001019080519060200190610131929190610440565b507f5f0a17619d345853660d0544e8bab0797520ac2c4e6164ea0209a662418ddbfe600154843360405161016793929190610c71565b60405180910390a1505050565b600080600083815260200190815260200160002090508060020160003373ffffffffffffffffffffffffffffffffffffffff1673ffffffffffffffffffffffffffffffffffffffff16815260200190815260200160002060009054906101000a900460ff1615610219576040517f08c379a000000000000000000000000000000000000000000000000000000000815260040161021090610cfb565b60405180910390fd5b6000805b82600101805490508110156102bb573373ffffffffffffffffffffffffffffffffffffffff1683600101828154811061025957610258610d1b565b5b9060005260206000200160009054906101000a900473ffffffffffffffffffffffffffffffffffffffff1673ffffffffffffffffffffffffffffffffffffffff16036102a857600191506102bb565b80806102b39061093c565b91505061021d565b50806102fc576040517f08c379a00000000000000000000000000000000000000000000000000000000081526004016102f390610d96565b60405180910390fd5b60018260020160003373ffffffffffffffffffffffffffffffffffffffff1673ffffffffffffffffffffffffffffffffffffffff16815260200190815260200160002060006101000a81548160ff0219169083151502179055507f4f45c30875f552d4b5d0a40abede6e40cb9e3b5df6c24df5026d21f5417a7c708333604051610387929190610db6565b60405180910390a1505050565b60015481565b60006020528060005260406000206000915090508060000180546103bd906109b3565b80601f01602080910402602001604051908101604052809291908181526020018280546103e9906109b3565b80156104365780601f1061040b57610100808354040283529160200191610436565b820191906000526020600020905b81548152906001019060200180831161041957829003601f168201915b5050505050905081565b8280548282559060005260206000209081019282156104b9579160200282015b828111156104b85782518260006101000a81548173ffffffffffffffffffffffffffffffffffffffff021916908373ffffffffffffffffffffffffffffffffffffffff16021790555091602001919060010190610460565b5b5090506104c691906104ca565b5090565b5b808211156104e35760008160009055506001016104cb565b5090565b6000604051905090565b600080fd5b600080fd5b600080fd5b600080fd5b6000601f19601f8301169050919050565b7f4e487b7100000000000000000000000000000000000000000000000000000000600052604160045260246000fd5b61054e82610505565b810181811067ffffffffffffffff8211171561056d5761056c610516565b5b80604052505050565b60006105806104e7565b905061058c8282610545565b919050565b600067ffffffffffffffff8211156105ac576105ab610516565b5b6105b582610505565b9050602081019050919050565b82818337600083830152505050565b60006105e46105df84610591565b610576565b905082815260208101848484011115610600576105ff610500565b5b61060b8482856105c2565b509392505050565b600082601f830112610628576106276104fb565b5b81356106388482602086016105d1565b91505092915050565b600067ffffffffffffffff82111561065c5761065b610516565b5b602082029050602081019050919050565b600080fd5b600073ffffffffffffffffffffffffffffffffffffffff82169050919050565b600061069d82610672565b9050919050565b6106ad81610692565b81146106b857600080fd5b50565b6000813590506106ca816106a4565b92915050565b60006106e36106de84610641565b610576565b905080838252602082019050602084028301858111156107065761070561066d565b5b835b8181101561072f578061071b88826106bb565b845260208401935050602081019050610708565b5050509392505050565b600082601f83011261074e5761074d6104fb565b5b813561075e8482602086016106d0565b91505092915050565b6000806040838503121561077e5761077d6104f1565b5b600083013567ffffffffffffffff81111561079c5761079b6104f6565b5b6107a885828601610613565b925050602083013567ffffffffffffffff8111156107c9576107c86104f6565b5b6107d585828601610739565b9150509250929050565b6000819050919050565b6107f2816107df565b81146107fd57600080fd5b50565b60008135905061080f816107e9565b92915050565b60006020828403121561082b5761082a6104f1565b5b600061083984828501610800565b91505092915050565b61084b816107df565b82525050565b60006020820190506108666000830184610842565b92915050565b600081519050919050565b600082825260208201905092915050565b60005b838110156108a657808201518184015260208101905061088b565b60008484015250505050565b60006108bd8261086c565b6108c78185610877565b93506108d7818560208601610888565b6108e081610505565b840191505092915050565b6000602082019050818103600083015261090581846108b2565b905092915050565b7f4e487b7100000000000000000000000000000000000000000000000000000000600052601160045260246000fd5b6000610947826107df565b91507fffffffffffffffffffffffffffffffffffffffffffffffffffffffffffffffff82036109795761097861090d565b5b600182019050919050565b7f4e487b7100000000000000000000000000000000000000000000000000000000600052602260045260246000fd5b600060028204905060018216806109cb57607f821691505b6020821081036109de576109dd610984565b5b50919050565b60008190508160005260206000209050919050565b60006020601f8301049050919050565b600082821b905092915050565b600060088302610a467fffffffffffffffffffffffffffffffffffffffffffffffffffffffffffffffff82610a09565b610a508683610a09565b95508019841693508086168417925050509392505050565b6000819050919050565b6000610a8d610a88610a83846107df565b610a68565b6107df565b9050919050565b6000819050919050565b610aa783610a72565b610abb610ab382610a94565b848454610a16565b825550505050565b600090565b610ad0610ac3565b610adb818484610a9e565b505050565b5b81811015610aff57610af4600082610ac8565b600181019050610ae1565b5050565b601f821115610b4457610b15816109e4565b610b1e846109f9565b81016020851015610b2d578190505b610b41610b39856109f9565b830182610ae0565b50505b505050565b600082821c905092915050565b6000610b6760001984600802610b49565b1980831691505092915050565b6000610b808383610b56565b9150826002028217905092915050565b610b998261086c565b67ffffffffffffffff811115610bb257610bb1610516565b5b610bbc82546109b3565b610bc7828285610b03565b600060209050601f831160018114610bfa5760008415610be8578287015190505b610bf28582610b74565b865550610c5a565b601f198416610c08866109e4565b60005b82811015610c3057848901518255600182019150602085019450602081019050610c0b565b86831015610c4d5784890151610c49601f891682610b56565b8355505b6001600288020188555050505b505050505050565b610c6b81610692565b82525050565b6000606082019050610c866000830186610842565b8181036020830152610c9881856108b2565b9050610ca76040830184610c62565b949350505050565b7f416c7265616479207369676e6564000000000000000000000000000000000000600082015250565b6000610ce5600e83610877565b9150610cf082610caf565b602082019050919050565b60006020820190508181036000830152610d1481610cd8565b9050919050565b7f4e487b7100000000000000000000000000000000000000000000000000000000600052603260045260246000fd5b7f4e6f7420617574686f72697a6564207369676e65720000000000000000000000600082015250565b6000610d80601583610877565b9150610d8b82610d4a565b602082019050919050565b60006020820190508181036000830152610daf81610d73565b9050919050565b6000604082019050610dcb6000830185610842565b610dd86020830184610c62565b939250505056fea26469706673582212204c73d3bc05bebae9e79b0b83f1f8e5904719ac29f55c0afdf53deae1dd2438db64736f6c63430008150033",
  "linkReferences": {},
  "deployedLinkReferences": {}
}