{
  "_format": "hh-sol-artifact-1",
  "contractName": "DocumentSign",
  "sourceName": "contracts/Docu3.sol",
  "abi": [
    {
      "anonymous": false,
      "inputs": [
        {
          "indexed": true,
          "internalType": "uint256",
          "name": "docId",
          "type": "uint256"
        },
        {
          "indexed": false,
          "internalType": "string",
          "name": "newIpfsHash",
          "type": "string"
        },
        {
          "indexed": true,
          "internalType": "address",
          "name": "editor",
          "type": "address"
        },
        {
          "indexed": false,
          "internalType": "uint256",
          "name": "amendedAt",
          "type": "uint256"
        }
      ],
      "name": "DocumentAmended",
      "type": "event"
    },
    {
      "anonymous": false,
      "inputs": [
        {
          "indexed": true,
          "internalType": "uint256",
          "name": "docId",
          "type": "uint256"
        },
        {
          "indexed": false,
          "internalType": "string",
          "name": "ipfsHash",
          "type": "string"
        },
        {
          "indexed": true,
          "internalType": "address",
          "name": "creator",
          "type": "address"
        },
        {
          "indexed": false,
          "internalType": "address[]",
          "name": "signers",
          "type": "address[]"
        },
        {
          "indexed": false,
          "internalType": "uint256",
          "name": "createdAt",
          "type": "uint256"
        }
      ],
      "name": "DocumentCreated",
      "type": "event"
    },
    {
      "anonymous": false,
      "inputs": [
        {
          "indexed": true,
          "internalType": "uint256",
          "name": "docId",
          "type": "uint256"
        },
        {
          "indexed": false,
          "internalType": "uint256",
          "name": "expiredAt",
          "type": "uint256"
        }
      ],
      "name": "DocumentExpired",
      "type": "event"
    },
    {
      "anonymous": false,
      "inputs": [
        {
          "indexed": true,
          "internalType": "uint256",
          "name": "docId",
          "type": "uint256"
        },
        {
          "indexed": true,
          "internalType": "address",
          "name": "revoker",
          "type": "address"
        },
        {
          "indexed": false,
          "internalType": "uint256",
          "name": "revokedAt",
          "type": "uint256"
        },
        {
          "indexed": false,
          "internalType": "string",
          "name": "reason",
          "type": "string"
        }
      ],
      "name": "DocumentRevoked",
      "type": "event"
    },
    {
      "anonymous": false,
      "inputs": [
        {
          "indexed": true,
          "internalType": "uint256",
          "name": "docId",
          "type": "uint256"
        },
        {
          "indexed": true,
          "internalType": "address",
          "name": "signer",
          "type": "address"
        },
        {
          "indexed": false,
          "internalType": "uint256",
          "name": "signedAt",
          "type": "uint256"
        },
        {
          "indexed": false,
          "internalType": "string",
          "name": "signature",
          "type": "string"
        }
      ],
      "name": "DocumentSigned",
      "type": "event"
    },
    {
      "anonymous": false,
      "inputs": [
        {
          "indexed": true,
          "internalType": "address",
          "name": "user",
          "type": "address"
        },
        {
          "indexed": false,
          "internalType": "string",
          "name": "firstName",
          "type": "string"
        },
        {
          "indexed": false,
          "internalType": "string",
          "name": "familyName",
          "type": "string"
        },
        {
          "indexed": false,
          "internalType": "string",
          "name": "email",
          "type": "string"
        },
        {
          "indexed": false,
          "internalType": "uint256",
          "name": "dob",
          "type": "uint256"
        },
        {
          "indexed": false,
          "internalType": "string",
          "name": "publicKey",
          "type": "string"
        }
      ],
      "name": "UserRegistered",
      "type": "event"
    },
    {
      "inputs": [
        {
          "internalType": "uint256",
          "name": "_docId",
          "type": "uint256"
        },
        {
          "internalType": "string",
          "name": "_newIpfsHash",
          "type": "string"
        },
        {
          "internalType": "uint256",
          "name": "_newExpiry",
          "type": "uint256"
        }
      ],
      "name": "amendDocument",
      "outputs": [],
      "stateMutability": "nonpayable",
      "type": "function"
    },
    {
      "inputs": [
        {
          "internalType": "uint256",
          "name": "_docId",
          "type": "uint256"
        },
        {
          "internalType": "string",
          "name": "_newMetadataIpfsHash",
          "type": "string"
        }
      ],
      "name": "amendDocumentMetadata",
      "outputs": [],
      "stateMutability": "nonpayable",
      "type": "function"
    },
    {
      "inputs": [
        {
          "internalType": "string",
          "name": "_ipfsHash",
          "type": "string"
        },
        {
          "internalType": "address[]",
          "name": "_signers",
          "type": "address[]"
        },
        {
          "internalType": "uint256",
          "name": "_expiry",
          "type": "uint256"
        }
      ],
      "name": "createDocument",
      "outputs": [
        {
          "internalType": "uint256",
          "name": "",
          "type": "uint256"
        }
      ],
      "stateMutability": "nonpayable",
      "type": "function"
    },
    {
      "inputs": [],
      "name": "documentCount",
      "outputs": [
        {
          "internalType": "uint256",
          "name": "",
          "type": "uint256"
        }
      ],
      "stateMutability": "view",
      "type": "function"
    },
    {
      "inputs": [
        {
          "internalType": "string",
          "name": "",
          "type": "string"
        }
      ],
      "name": "emailToAddress",
      "outputs": [
        {
          "internalType": "address",
          "name": "",
          "type": "address"
        }
      ],
      "stateMutability": "view",
      "type": "function"
    },
    {
      "inputs": [],
      "name": "getAllRegisteredUsers",
      "outputs": [
        {
          "internalType": "address[]",
          "name": "",
          "type": "address[]"
        }
      ],
      "stateMutability": "view",
      "type": "function"
    },
    {
      "inputs": [
        {
          "internalType": "uint256",
          "name": "_docId",
          "type": "uint256"
        }
      ],
      "name": "getCurrentSigner",
      "outputs": [
        {
          "internalType": "address",
          "name": "",
          "type": "address"
        }
      ],
      "stateMutability": "view",
      "type": "function"
    },
    {
      "inputs": [
        {
          "internalType": "uint256",
          "name": "_docId",
          "type": "uint256"
        }
      ],
      "name": "getDocument",
      "outputs": [
        {
          "internalType": "string",
          "name": "ipfsHash",
          "type": "string"
        },
        {
          "internalType": "address",
          "name": "creator",
          "type": "address"
        },
        {
          "internalType": "address[]",
          "name": "signers",
          "type": "address[]"
        },
        {
          "internalType": "uint256",
          "name": "createdAt",
          "type": "uint256"
        },
        {
          "internalType": "uint256",
          "name": "signatureCount",
          "type": "uint256"
        },
        {
          "internalType": "bool",
          "name": "fullySigned",
          "type": "bool"
        },
        {
          "internalType": "bool",
          "name": "isRevoked",
          "type": "bool"
        }
      ],
      "stateMutability": "view",
      "type": "function"
    },
    {
      "inputs": [
        {
          "internalType": "uint256",
          "name": "_docId",
          "type": "uint256"
        }
      ],
      "name": "getDocumentExpiry",
      "outputs": [
        {
          "internalType": "uint256",
          "name": "",
          "type": "uint256"
        }
      ],
      "stateMutability": "view",
      "type": "function"
    },
    {
      "inputs": [
        {
          "internalType": "uint256",
          "name": "_docId",
          "type": "uint256"
        }
      ],
      "name": "getDocumentExpiryInfo",
      "outputs": [
        {
          "internalType": "uint256",
          "name": "expiry",
          "type": "uint256"
        },
        {
          "internalType": "bool",
          "name": "expired",
          "type": "bool"
        },
        {
          "internalType": "uint256",
          "name": "timeUntilExpiry",
          "type": "uint256"
        },
        {
          "internalType": "bool",
          "name": "hasExpiry",
          "type": "bool"
        }
      ],
      "stateMutability": "view",
      "type": "function"
    },
    {
      "inputs": [
        {
          "internalType": "uint256",
          "name": "_docId",
          "type": "uint256"
        },
        {
          "internalType": "address",
          "name": "_user",
          "type": "address"
        }
      ],
      "name": "getRole",
      "outputs": [
        {
          "internalType": "enum DocumentSign.Role",
          "name": "",
          "type": "uint8"
        }
      ],
      "stateMutability": "view",
      "type": "function"
    },
    {
      "inputs": [
        {
          "internalType": "uint256",
          "name": "_docId",
          "type": "uint256"
        },
        {
          "internalType": "address",
          "name": "_signer",
          "type": "address"
        }
      ],
      "name": "getSignTimestamp",
      "outputs": [
        {
          "internalType": "uint256",
          "name": "",
          "type": "uint256"
        }
      ],
      "stateMutability": "view",
      "type": "function"
    },
    {
      "inputs": [
        {
          "internalType": "uint256",
          "name": "_docId",
          "type": "uint256"
        },
        {
          "internalType": "address",
          "name": "_signer",
          "type": "address"
        }
      ],
      "name": "getSignature",
      "outputs": [
        {
          "internalType": "string",
          "name": "",
          "type": "string"
        }
      ],
      "stateMutability": "view",
      "type": "function"
    },
    {
      "inputs": [
        {
          "internalType": "uint256",
          "name": "_docId",
          "type": "uint256"
        },
        {
          "internalType": "address",
          "name": "_signer",
          "type": "address"
        }
      ],
      "name": "getSignatureTransactionHash",
      "outputs": [
        {
          "internalType": "bytes32",
          "name": "",
          "type": "bytes32"
        }
      ],
      "stateMutability": "view",
      "type": "function"
    },
    {
      "inputs": [
        {
          "internalType": "address",
          "name": "user",
          "type": "address"
        }
      ],
      "name": "getUserProfile",
      "outputs": [
        {
          "internalType": "string",
          "name": "firstName",
          "type": "string"
        },
        {
          "internalType": "string",
          "name": "familyName",
          "type": "string"
        },
        {
          "internalType": "string",
          "name": "email",
          "type": "string"
        },
        {
          "internalType": "uint256",
          "name": "dob",
          "type": "uint256"
        },
        {
          "internalType": "bool",
          "name": "isRegistered",
          "type": "bool"
        },
        {
          "internalType": "string",
          "name": "publicKey",
          "type": "string"
        }
      ],
      "stateMutability": "view",
      "type": "function"
    },
    {
      "inputs": [
        {
          "internalType": "uint256",
          "name": "_docId",
          "type": "uint256"
        },
        {
          "internalType": "address",
          "name": "_signer",
          "type": "address"
        }
      ],
      "name": "hasSigned",
      "outputs": [
        {
          "internalType": "bool",
          "name": "",
          "type": "bool"
        }
      ],
      "stateMutability": "view",
      "type": "function"
    },
    {
      "inputs": [
        {
          "internalType": "uint256",
          "name": "_docId",
          "type": "uint256"
        }
      ],
      "name": "isExpired",
      "outputs": [
        {
          "internalType": "bool",
          "name": "",
          "type": "bool"
        }
      ],
      "stateMutability": "view",
      "type": "function"
    },
    {
      "inputs": [
        {
          "internalType": "address",
          "name": "_user",
          "type": "address"
        },
        {
          "internalType": "uint256",
          "name": "_docId",
          "type": "uint256"
        }
      ],
      "name": "isSigner",
      "outputs": [
        {
          "internalType": "bool",
          "name": "",
          "type": "bool"
        }
      ],
      "stateMutability": "view",
      "type": "function"
    },
    {
      "inputs": [
        {
          "internalType": "uint256",
          "name": "_docId",
          "type": "uint256"
        }
      ],
      "name": "isSingleUserDocument",
      "outputs": [
        {
          "internalType": "bool",
          "name": "",
          "type": "bool"
        }
      ],
      "stateMutability": "view",
      "type": "function"
    },
    {
      "inputs": [
        {
          "internalType": "address",
          "name": "",
          "type": "address"
        }
      ],
      "name": "profiles",
      "outputs": [
        {
          "internalType": "string",
          "name": "firstName",
          "type": "string"
        },
        {
          "internalType": "string",
          "name": "familyName",
          "type": "string"
        },
        {
          "internalType": "string",
          "name": "email",
          "type": "string"
        },
        {
          "internalType": "uint256",
          "name": "dob",
          "type": "uint256"
        },
        {
          "internalType": "bool",
          "name": "isRegistered",
          "type": "bool"
        },
        {
          "internalType": "string",
          "name": "publicKey",
          "type": "string"
        }
      ],
      "stateMutability": "view",
      "type": "function"
    },
    {
      "inputs": [
        {
          "internalType": "string",
          "name": "firstName",
          "type": "string"
        },
        {
          "internalType": "string",
          "name": "familyName",
          "type": "string"
        },
        {
          "internalType": "string",
          "name": "email",
          "type": "string"
        },
        {
          "internalType": "uint256",
          "name": "dob",
          "type": "uint256"
        },
        {
          "internalType": "string",
          "name": "publicKey",
          "type": "string"
        }
      ],
      "name": "registerUser",
      "outputs": [],
      "stateMutability": "nonpayable",
      "type": "function"
    },
    {
      "inputs": [
        {
          "internalType": "uint256",
          "name": "",
          "type": "uint256"
        }
      ],
      "name": "registeredUsers",
      "outputs": [
        {
          "internalType": "address",
          "name": "",
          "type": "address"
        }
      ],
      "stateMutability": "view",
      "type": "function"
    },
    {
      "inputs": [
        {
          "internalType": "uint256",
          "name": "_docId",
          "type": "uint256"
        },
        {
          "internalType": "string",
          "name": "_reason",
          "type": "string"
        }
      ],
      "name": "revokeDocument",
      "outputs": [],
      "stateMutability": "nonpayable",
      "type": "function"
    },
    {
      "inputs": [
        {
          "internalType": "uint256",
          "name": "_docId",
          "type": "uint256"
        },
        {
          "internalType": "string",
          "name": "_signature",
          "type": "string"
        }
      ],
      "name": "signDocument",
      "outputs": [],
      "stateMutability": "nonpayable",
      "type": "function"
    },
    {
      "inputs": [
        {
          "internalType": "uint256",
          "name": "_docId",
          "type": "uint256"
        }
      ],
      "name": "signDocumentLegacy",
      "outputs": [],
      "stateMutability": "nonpayable",
      "type": "function"
    },
    {
      "inputs": [
        {
          "internalType": "uint256",
          "name": "_docId",
          "type": "uint256"
        },
        {
          "internalType": "bytes32",
          "name": "_transactionHash",
          "type": "bytes32"
        }
      ],
      "name": "updateSignatureTransactionHash",
      "outputs": [],
      "stateMutability": "nonpayable",
      "type": "function"
    },
    {
      "inputs": [
        {
          "internalType": "uint256",
          "name": "_docId",
          "type": "uint256"
        },
        {
          "internalType": "address",
          "name": "_signer",
          "type": "address"
        },
        {
          "internalType": "bytes32",
          "name": "_documentHash",
          "type": "bytes32"
        },
        {
          "internalType": "bytes",
          "name": "_signature",
          "type": "bytes"
        }
      ],
      "name": "verifySignature",
      "outputs": [
        {
          "internalType": "bool",
          "name": "",
          "type": "bool"
        }
      ],
      "stateMutability": "view",
      "type": "function"
    }
  ],
  "bytecode": "0x608060405234801561001057600080fd5b5061514c806100206000396000f3fe608060405234801561001057600080fd5b50600436106101a95760003560e01c806378abeae1116100f9578063c2a6ebfb11610097578063d9548e5311610071578063d9548e5314610561578063dbc7edd414610591578063e0cd77b0146105c1578063ea78dcbf146105f1576101a9565b8063c2a6ebfb146104f9578063cb56182414610515578063d0e2a01914610545576101a9565b8063a5b16b2e116100d3578063a5b16b2e1461045a578063b0cace0614610478578063b3bcd5cf14610494578063bbe15627146104c4576101a9565b806378abeae1146103c557806393552a3d146103f5578063987ee15614610425576101a9565b80634cac566a116101665780635f372d56116101405780635f372d561461032d578063709df8d91461034957806371532893146103795780637259e0f814610395576101a9565b80634cac566a146102c55780634e46a1e8146102e15780635308cfa914610311576101a9565b80631b1ab53d146101ae5780631bcb19ab146101de5780631d639b2a1461021157806328d787d914610241578063397388af146102715780633f9b250a1461028f575b600080fd5b6101c860048036038101906101c39190613606565b610621565b6040516101d59190613655565b60405180910390f35b6101f860048036038101906101f39190613670565b61067e565b60405161020894939291906136b8565b60405180910390f35b61022b60048036038101906102269190613670565b61074c565b60405161023891906136fd565b60405180910390f35b61025b60048036038101906102569190613894565b610863565b60405161026891906136fd565b60405180910390f35b610279610af3565b60405161028691906139d5565b60405180910390f35b6102a960048036038101906102a49190613670565b610b81565b6040516102bc9796959493929190613a85565b60405180910390f35b6102df60048036038101906102da9190613b02565b610e35565b005b6102fb60048036038101906102f69190613b42565b610f91565b60405161030891906136fd565b60405180910390f35b61032b60048036038101906103269190613c23565b6110d9565b005b61034760048036038101906103429190613670565b6115c4565b005b610363600480360381019061035e9190613606565b611a19565b60405161037091906136fd565b60405180910390f35b610393600480360381019061038e9190613c23565b611a83565b005b6103af60048036038101906103aa9190613670565b611d1d565b6040516103bc9190613c7f565b60405180910390f35b6103df60048036038101906103da9190613670565b611d5c565b6040516103ec9190613655565b60405180910390f35b61040f600480360381019061040a9190613606565b611ddd565b60405161041c9190613d11565b60405180910390f35b61043f600480360381019061043a9190613d2c565b611ea9565b60405161045196959493929190613d59565b60405180910390f35b6104626121f2565b60405161046f9190613655565b60405180910390f35b610492600480360381019061048d9190613dd6565b6121f8565b005b6104ae60048036038101906104a99190613606565b612546565b6040516104bb9190613ec1565b60405180910390f35b6104de60048036038101906104d99190613d2c565b61262b565b6040516104f096959493929190613d59565b60405180910390f35b610513600480360381019061050e9190613ee3565b612894565b005b61052f600480360381019061052a919061401a565b612c8d565b60405161053c9190613655565b60405180910390f35b61055f600480360381019061055a9190613c23565b613196565b005b61057b60048036038101906105769190613670565b6133ae565b60405161058891906136fd565b60405180910390f35b6105ab60048036038101906105a69190613606565b6133e5565b6040516105b891906140b4565b60405180910390f35b6105db60048036038101906105d69190613670565b613442565b6040516105e89190613c7f565b60405180910390f35b61060b600480360381019061060691906140cf565b613515565b6040516106189190613c7f565b60405180910390f35b600080600084815260200190815260200160002060050160008373ffffffffffffffffffffffffffffffffffffffff1673ffffffffffffffffffffffffffffffffffffffff16815260200190815260200160002054905092915050565b6000806000806000806000878152602001908152602001600020905080600a0160019054906101000a900460ff166106eb576040517f08c379a00000000000000000000000000000000000000000000000000000000081526004016106e290614164565b60405180910390fd5b6000429050600082600b01549050600080821415801561070a57508183115b9050600080831415801561071c575081155b1561073057838361072d91906141b3565b90505b8282826000861415985098509850985050505050509193509193565b600080600080848152602001908152602001600020905080600a0160019054906101000a900460ff166107b4576040517f08c379a00000000000000000000000000000000000000000000000000000000081526004016107ab90614164565b60405180910390fd5b6001816002018054905014801561085b57508060010160009054906101000a900473ffffffffffffffffffffffffffffffffffffffff1673ffffffffffffffffffffffffffffffffffffffff1681600201600081548110610818576108176141e7565b5b9060005260206000200160009054906101000a900473ffffffffffffffffffffffffffffffffffffffff1673ffffffffffffffffffffffffffffffffffffffff16145b915050919050565b6000806000868152602001908152602001600020600a0160019054906101000a900460ff166108c7576040517f08c379a00000000000000000000000000000000000000000000000000000000081526004016108be90614164565b60405180910390fd5b60008086815260200190815260200160002060040160008573ffffffffffffffffffffffffffffffffffffffff1673ffffffffffffffffffffffffffffffffffffffff16815260200190815260200160002060009054906101000a900460ff16610966576040517f08c379a000000000000000000000000000000000000000000000000000000000815260040161095d90614288565b60405180910390fd5b60418251146109aa576040517f08c379a00000000000000000000000000000000000000000000000000000000081526004016109a1906142f4565b60405180910390fd5b6000836040516020016109bd919061438c565b60405160208183030381529060405280519060200120905060008060006020860151925060408601519150606086015160001a9050601b8160ff161015610a0e57601b81610a0b91906143bf565b90505b601b8160ff161480610a235750601c8160ff16145b610a62576040517f08c379a0000000000000000000000000000000000000000000000000000000008152600401610a5990614440565b60405180910390fd5b600060018583868660405160008152602001604052604051610a87949392919061446f565b6020604051602081039080840390855afa158015610aa9573d6000803e3d6000fd5b5050506020604051035190508873ffffffffffffffffffffffffffffffffffffffff168173ffffffffffffffffffffffffffffffffffffffff161495505050505050949350505050565b60606003805480602002602001604051908101604052809291908181526020018280548015610b7757602002820191906000526020600020905b8160009054906101000a900473ffffffffffffffffffffffffffffffffffffffff1673ffffffffffffffffffffffffffffffffffffffff1681526020019060010190808311610b2d575b5050505050905090565b60606000606060008060008060008060008a8152602001908152602001600020905080600a0160019054906101000a900460ff16610bf4576040517f08c379a0000000000000000000000000000000000000000000000000000000008152600401610beb90614164565b60405180910390fd5b60006001905060005b8260020180549050811015610cbb57826004016000846002018381548110610c2857610c276141e7565b5b9060005260206000200160009054906101000a900473ffffffffffffffffffffffffffffffffffffffff1673ffffffffffffffffffffffffffffffffffffffff1673ffffffffffffffffffffffffffffffffffffffff16815260200190815260200160002060009054906101000a900460ff16610ca85760009150610cbb565b8080610cb3906144b4565b915050610bfd565b50816000018260010160009054906101000a900473ffffffffffffffffffffffffffffffffffffffff1683600201846008015485600901548587600a0160009054906101000a900460ff16868054610d129061452b565b80601f0160208091040260200160405190810160405280929190818152602001828054610d3e9061452b565b8015610d8b5780601f10610d6057610100808354040283529160200191610d8b565b820191906000526020600020905b815481529060010190602001808311610d6e57829003601f168201915b5050505050965084805480602002602001604051908101604052809291908181526020018280548015610e1357602002820191906000526020600020905b8160009054906101000a900473ffffffffffffffffffffffffffffffffffffffff1673ffffffffffffffffffffffffffffffffffffffff1681526020019060010190808311610dc9575b5050505050945098509850985098509850985098505050919395979092949650565b600080838152602001908152602001600020600a0160019054906101000a900460ff16610e97576040517f08c379a0000000000000000000000000000000000000000000000000000000008152600401610e8e90614164565b60405180910390fd5b60008083815260200190815260200160002060040160003373ffffffffffffffffffffffffffffffffffffffff1673ffffffffffffffffffffffffffffffffffffffff16815260200190815260200160002060009054906101000a900460ff16610f36576040517f08c379a0000000000000000000000000000000000000000000000000000000008152600401610f2d906145ce565b60405180910390fd5b8060008084815260200190815260200160002060070160003373ffffffffffffffffffffffffffffffffffffffff1673ffffffffffffffffffffffffffffffffffffffff168152602001908152602001600020819055505050565b600080600080848152602001908152602001600020905080600a0160019054906101000a900460ff16610fc85760009150506110d3565b8373ffffffffffffffffffffffffffffffffffffffff168160010160009054906101000a900473ffffffffffffffffffffffffffffffffffffffff1673ffffffffffffffffffffffffffffffffffffffff16036110295760019150506110d3565b60005b81600201805490508110156110cc578473ffffffffffffffffffffffffffffffffffffffff16826002018281548110611068576110676141e7565b5b9060005260206000200160009054906101000a900473ffffffffffffffffffffffffffffffffffffffff1673ffffffffffffffffffffffffffffffffffffffff16036110b9576001925050506110d3565b80806110c4906144b4565b91505061102c565b5060009150505b92915050565b81600080828152602001908152602001600020600a0160019054906101000a900460ff1661113c576040517f08c379a000000000000000000000000000000000000000000000000000000000815260040161113390614164565b60405180910390fd5b60028081111561114f5761114e613c9a565b5b60008083815260200190815260200160002060030160003373ffffffffffffffffffffffffffffffffffffffff1673ffffffffffffffffffffffffffffffffffffffff16815260200190815260200160002060009054906101000a900460ff1660028111156111c1576111c0613c9a565b5b14611201576040517f08c379a00000000000000000000000000000000000000000000000000000000081526004016111f89061463a565b60405180910390fd5b82600080828152602001908152602001600020600a0160009054906101000a900460ff1615611265576040517f08c379a000000000000000000000000000000000000000000000000000000000815260040161125c906146a6565b60405180910390fd5b60008060008681526020019081526020016000209050611284856133ae565b156112c4576040517f08c379a00000000000000000000000000000000000000000000000000000000081526004016112bb90614712565b60405180910390fd5b8060040160003373ffffffffffffffffffffffffffffffffffffffff1673ffffffffffffffffffffffffffffffffffffffff16815260200190815260200160002060009054906101000a900460ff1615611353576040517f08c379a000000000000000000000000000000000000000000000000000000000815260040161134a9061477e565b60405180910390fd5b3373ffffffffffffffffffffffffffffffffffffffff168160020182600c015481548110611384576113836141e7565b5b9060005260206000200160009054906101000a900473ffffffffffffffffffffffffffffffffffffffff1673ffffffffffffffffffffffffffffffffffffffff1614611405576040517f08c379a00000000000000000000000000000000000000000000000000000000081526004016113fc906147ea565b60405180910390fd5b6000845111611449576040517f08c379a000000000000000000000000000000000000000000000000000000000815260040161144090614856565b60405180910390fd5b60018160040160003373ffffffffffffffffffffffffffffffffffffffff1673ffffffffffffffffffffffffffffffffffffffff16815260200190815260200160002060006101000a81548160ff021916908315150217905550428160050160003373ffffffffffffffffffffffffffffffffffffffff1673ffffffffffffffffffffffffffffffffffffffff16815260200190815260200160002081905550838160060160003373ffffffffffffffffffffffffffffffffffffffff1673ffffffffffffffffffffffffffffffffffffffff16815260200190815260200160002090816115379190614a22565b5080600901600081548092919061154d906144b4565b919050555080600c016000815480929190611567906144b4565b91905055503373ffffffffffffffffffffffffffffffffffffffff16857f8c14a9d5f9e05ea3d9142fd74ae9dc73e6214837cd22e0622926450648a81edb42876040516115b5929190614af4565b60405180910390a35050505050565b80600080828152602001908152602001600020600a0160019054906101000a900460ff16611627576040517f08c379a000000000000000000000000000000000000000000000000000000000815260040161161e90614164565b60405180910390fd5b60028081111561163a57611639613c9a565b5b60008083815260200190815260200160002060030160003373ffffffffffffffffffffffffffffffffffffffff1673ffffffffffffffffffffffffffffffffffffffff16815260200190815260200160002060009054906101000a900460ff1660028111156116ac576116ab613c9a565b5b146116ec576040517f08c379a00000000000000000000000000000000000000000000000000000000081526004016116e39061463a565b60405180910390fd5b81600080828152602001908152602001600020600a0160009054906101000a900460ff1615611750576040517f08c379a0000000000000000000000000000000000000000000000000000000008152600401611747906146a6565b60405180910390fd5b6000806000858152602001908152602001600020905061176f846133ae565b156117af576040517f08c379a00000000000000000000000000000000000000000000000000000000081526004016117a690614712565b60405180910390fd5b8060040160003373ffffffffffffffffffffffffffffffffffffffff1673ffffffffffffffffffffffffffffffffffffffff16815260200190815260200160002060009054906101000a900460ff161561183e576040517f08c379a00000000000000000000000000000000000000000000000000000000081526004016118359061477e565b60405180910390fd5b3373ffffffffffffffffffffffffffffffffffffffff168160020182600c01548154811061186f5761186e6141e7565b5b9060005260206000200160009054906101000a900473ffffffffffffffffffffffffffffffffffffffff1673ffffffffffffffffffffffffffffffffffffffff16146118f0576040517f08c379a00000000000000000000000000000000000000000000000000000000081526004016118e7906147ea565b60405180910390fd5b60018160040160003373ffffffffffffffffffffffffffffffffffffffff1673ffffffffffffffffffffffffffffffffffffffff16815260200190815260200160002060006101000a81548160ff021916908315150217905550428160050160003373ffffffffffffffffffffffffffffffffffffffff1673ffffffffffffffffffffffffffffffffffffffff168152602001908152602001600020819055508060090160008154809291906119a5906144b4565b919050555080600c0160008154809291906119bf906144b4565b91905055503373ffffffffffffffffffffffffffffffffffffffff16847f8c14a9d5f9e05ea3d9142fd74ae9dc73e6214837cd22e0622926450648a81edb42604051611a0b9190614b4a565b60405180910390a350505050565b600080600084815260200190815260200160002060040160008373ffffffffffffffffffffffffffffffffffffffff1673ffffffffffffffffffffffffffffffffffffffff16815260200190815260200160002060009054906101000a900460ff16905092915050565b81600080828152602001908152602001600020600a0160019054906101000a900460ff16611ae6576040517f08c379a0000000000000000000000000000000000000000000000000000000008152600401611add90614164565b60405180910390fd5b60016002811115611afa57611af9613c9a565b5b60008083815260200190815260200160002060030160003373ffffffffffffffffffffffffffffffffffffffff1673ffffffffffffffffffffffffffffffffffffffff16815260200190815260200160002060009054906101000a900460ff166002811115611b6c57611b6b613c9a565b5b14611bac576040517f08c379a0000000000000000000000000000000000000000000000000000000008152600401611ba390614bc4565b60405180910390fd5b82600080828152602001908152602001600020600a0160009054906101000a900460ff1615611c10576040517f08c379a0000000000000000000000000000000000000000000000000000000008152600401611c07906146a6565b60405180910390fd5b60008060008681526020019081526020016000209050611c2f856133ae565b15611c6f576040517f08c379a0000000000000000000000000000000000000000000000000000000008152600401611c6690614712565b60405180910390fd5b6000845111611cb3576040517f08c379a0000000000000000000000000000000000000000000000000000000008152600401611caa90614c30565b60405180910390fd5b83816000019081611cc49190614a22565b503373ffffffffffffffffffffffffffffffffffffffff16857fd4af573228b33e73cdfacac0a74b920c7b511e2ff826fb63a2e0bb5790b54ebc8642604051611d0e929190614c50565b60405180910390a35050505050565b60038181548110611d2d57600080fd5b906000526020600020016000915054906101000a900473ffffffffffffffffffffffffffffffffffffffff1681565b6000806000838152602001908152602001600020600a0160019054906101000a900460ff16611dc0576040517f08c379a0000000000000000000000000000000000000000000000000000000008152600401611db790614164565b60405180910390fd5b600080838152602001908152602001600020600b01549050919050565b6000806000848152602001908152602001600020600a0160019054906101000a900460ff16611e41576040517f08c379a0000000000000000000000000000000000000000000000000000000008152600401611e3890614164565b60405180910390fd5b60008084815260200190815260200160002060030160008373ffffffffffffffffffffffffffffffffffffffff1673ffffffffffffffffffffffffffffffffffffffff16815260200190815260200160002060009054906101000a900460ff16905092915050565b60608060606000806060600260008873ffffffffffffffffffffffffffffffffffffffff1673ffffffffffffffffffffffffffffffffffffffff16815260200190815260200160002060040160009054906101000a900460ff16611f42576040517f08c379a0000000000000000000000000000000000000000000000000000000008152600401611f3990614ccc565b60405180910390fd5b6000600260008973ffffffffffffffffffffffffffffffffffffffff1673ffffffffffffffffffffffffffffffffffffffff168152602001908152602001600020905080600001816001018260020183600301548460040160009054906101000a900460ff1685600501858054611fb89061452b565b80601f0160208091040260200160405190810160405280929190818152602001828054611fe49061452b565b80156120315780601f1061200657610100808354040283529160200191612031565b820191906000526020600020905b81548152906001019060200180831161201457829003601f168201915b505050505095508480546120449061452b565b80601f01602080910402602001604051908101604052809291908181526020018280546120709061452b565b80156120bd5780601f10612092576101008083540402835291602001916120bd565b820191906000526020600020905b8154815290600101906020018083116120a057829003601f168201915b505050505094508380546120d09061452b565b80601f01602080910402602001604051908101604052809291908181526020018280546120fc9061452b565b80156121495780601f1061211e57610100808354040283529160200191612149565b820191906000526020600020905b81548152906001019060200180831161212c57829003601f168201915b5050505050935080805461215c9061452b565b80601f01602080910402602001604051908101604052809291908181526020018280546121889061452b565b80156121d55780601f106121aa576101008083540402835291602001916121d5565b820191906000526020600020905b8154815290600101906020018083116121b857829003601f168201915b505050505090509650965096509650965096505091939550919395565b60015481565b600260003373ffffffffffffffffffffffffffffffffffffffff1673ffffffffffffffffffffffffffffffffffffffff16815260200190815260200160002060040160009054906101000a900460ff1615612288576040517f08c379a000000000000000000000000000000000000000000000000000000000815260040161227f90614d38565b60405180910390fd5b600073ffffffffffffffffffffffffffffffffffffffff166004846040516122b09190614d89565b908152602001604051809103902060009054906101000a900473ffffffffffffffffffffffffffffffffffffffff1673ffffffffffffffffffffffffffffffffffffffff1614612335576040517f08c379a000000000000000000000000000000000000000000000000000000000815260040161232c90614dec565b60405180910390fd5b6040518060c0016040528086815260200185815260200184815260200183815260200160011515815260200182815250600260003373ffffffffffffffffffffffffffffffffffffffff1673ffffffffffffffffffffffffffffffffffffffff16815260200190815260200160002060008201518160000190816123b99190614a22565b5060208201518160010190816123cf9190614a22565b5060408201518160020190816123e59190614a22565b506060820151816003015560808201518160040160006101000a81548160ff02191690831515021790555060a08201518160050190816124259190614a22565b509050506003339080600181540180825580915050600190039060005260206000200160009091909190916101000a81548173ffffffffffffffffffffffffffffffffffffffff021916908373ffffffffffffffffffffffffffffffffffffffff1602179055503360048460405161249d9190614d89565b908152602001604051809103902060006101000a81548173ffffffffffffffffffffffffffffffffffffffff021916908373ffffffffffffffffffffffffffffffffffffffff1602179055503373ffffffffffffffffffffffffffffffffffffffff167f78088310123490d67595b7b0e336cb2e2fc0f7df27ddd8950b8656c84413fb1b8686868686604051612537959493929190614e0c565b60405180910390a25050505050565b606060008084815260200190815260200160002060060160008373ffffffffffffffffffffffffffffffffffffffff1673ffffffffffffffffffffffffffffffffffffffff16815260200190815260200160002080546125a59061452b565b80601f01602080910402602001604051908101604052809291908181526020018280546125d19061452b565b801561261e5780601f106125f35761010080835404028352916020019161261e565b820191906000526020600020905b81548152906001019060200180831161260157829003601f168201915b5050505050905092915050565b600260205280600052604060002060009150905080600001805461264e9061452b565b80601f016020809104026020016040519081016040528092919081815260200182805461267a9061452b565b80156126c75780601f1061269c576101008083540402835291602001916126c7565b820191906000526020600020905b8154815290600101906020018083116126aa57829003601f168201915b5050505050908060010180546126dc9061452b565b80601f01602080910402602001604051908101604052809291908181526020018280546127089061452b565b80156127555780601f1061272a57610100808354040283529160200191612755565b820191906000526020600020905b81548152906001019060200180831161273857829003601f168201915b50505050509080600201805461276a9061452b565b80601f01602080910402602001604051908101604052809291908181526020018280546127969061452b565b80156127e35780601f106127b8576101008083540402835291602001916127e3565b820191906000526020600020905b8154815290600101906020018083116127c657829003601f168201915b5050505050908060030154908060040160009054906101000a900460ff16908060050180546128119061452b565b80601f016020809104026020016040519081016040528092919081815260200182805461283d9061452b565b801561288a5780601f1061285f5761010080835404028352916020019161288a565b820191906000526020600020905b81548152906001019060200180831161286d57829003601f168201915b5050505050905086565b82600080828152602001908152602001600020600a0160019054906101000a900460ff166128f7576040517f08c379a00000000000000000000000000000000000000000000000000000000081526004016128ee90614164565b60405180910390fd5b6001600281111561290b5761290a613c9a565b5b60008083815260200190815260200160002060030160003373ffffffffffffffffffffffffffffffffffffffff1673ffffffffffffffffffffffffffffffffffffffff16815260200190815260200160002060009054906101000a900460ff16600281111561297d5761297c613c9a565b5b146129bd576040517f08c379a00000000000000000000000000000000000000000000000000000000081526004016129b490614bc4565b60405180910390fd5b83600080828152602001908152602001600020600a0160009054906101000a900460ff1615612a21576040517f08c379a0000000000000000000000000000000000000000000000000000000008152600401612a18906146a6565b60405180910390fd5b60008060008781526020019081526020016000209050612a40866133ae565b15612a80576040517f08c379a0000000000000000000000000000000000000000000000000000000008152600401612a7790614712565b60405180910390fd5b60006001905060005b8260020180549050811015612b4757826004016000846002018381548110612ab457612ab36141e7565b5b9060005260206000200160009054906101000a900473ffffffffffffffffffffffffffffffffffffffff1673ffffffffffffffffffffffffffffffffffffffff1673ffffffffffffffffffffffffffffffffffffffff16815260200190815260200160002060009054906101000a900460ff16612b345760009150612b47565b8080612b3f906144b4565b915050612a89565b508015612b89576040517f08c379a0000000000000000000000000000000000000000000000000000000008152600401612b8090614eed565b60405180910390fd5b6000865111612bcd576040517f08c379a0000000000000000000000000000000000000000000000000000000008152600401612bc490614c30565b60405180910390fd5b60008514612c2157428511612c17576040517f08c379a0000000000000000000000000000000000000000000000000000000008152600401612c0e90614f59565b60405180910390fd5b8482600b01819055505b85826000019081612c329190614a22565b503373ffffffffffffffffffffffffffffffffffffffff16877fd4af573228b33e73cdfacac0a74b920c7b511e2ff826fb63a2e0bb5790b54ebc8842604051612c7c929190614c50565b60405180910390a350505050505050565b600080845111612cd2576040517f08c379a0000000000000000000000000000000000000000000000000000000008152600401612cc990614c30565b60405180910390fd5b6000821480612ce057504282115b612d1f576040517f08c379a0000000000000000000000000000000000000000000000000000000008152600401612d1690614f59565b60405180910390fd5b60016000815480929190612d32906144b4565b919050555060008060006001548152602001908152602001600020905084816000019081612d609190614a22565b50338160010160006101000a81548173ffffffffffffffffffffffffffffffffffffffff021916908373ffffffffffffffffffffffffffffffffffffffff160217905550428160080181905550600181600a0160016101000a81548160ff0219169083151502179055508281600b018190555060018160030160003373ffffffffffffffffffffffffffffffffffffffff1673ffffffffffffffffffffffffffffffffffffffff16815260200190815260200160002060006101000a81548160ff02191690836002811115612e3857612e37613c9a565b5b02179055506000845103612f1a5780600201339080600181540180825580915050600190039060005260206000200160009091909190916101000a81548173ffffffffffffffffffffffffffffffffffffffff021916908373ffffffffffffffffffffffffffffffffffffffff16021790555060028160030160003373ffffffffffffffffffffffffffffffffffffffff1673ffffffffffffffffffffffffffffffffffffffff16815260200190815260200160002060006101000a81548160ff02191690836002811115612f1057612f0f613c9a565b5b02179055506130c7565b60005b84518110156130c557600073ffffffffffffffffffffffffffffffffffffffff16858281518110612f5157612f506141e7565b5b602002602001015173ffffffffffffffffffffffffffffffffffffffff1603612faf576040517f08c379a0000000000000000000000000000000000000000000000000000000008152600401612fa690614fc5565b60405180910390fd5b81600201858281518110612fc657612fc56141e7565b5b60200260200101519080600181540180825580915050600190039060005260206000200160009091909190916101000a81548173ffffffffffffffffffffffffffffffffffffffff021916908373ffffffffffffffffffffffffffffffffffffffff1602179055506002826003016000878481518110613049576130486141e7565b5b602002602001015173ffffffffffffffffffffffffffffffffffffffff1673ffffffffffffffffffffffffffffffffffffffff16815260200190815260200160002060006101000a81548160ff021916908360028111156130ad576130ac613c9a565b5b021790555080806130bd906144b4565b915050612f1d565b505b60018160030160003373ffffffffffffffffffffffffffffffffffffffff1673ffffffffffffffffffffffffffffffffffffffff16815260200190815260200160002060006101000a81548160ff0219169083600281111561312c5761312b613c9a565b5b02179055503373ffffffffffffffffffffffffffffffffffffffff166001547f0f34f336d6e1cc231d161403dd583f287c90d4e144120937a223d9531afe848c878460020142604051613181939291906150d1565b60405180910390a36001549150509392505050565b81600080828152602001908152602001600020600a0160019054906101000a900460ff166131f9576040517f08c379a00000000000000000000000000000000000000000000000000000000081526004016131f090614164565b60405180910390fd5b6001600281111561320d5761320c613c9a565b5b60008083815260200190815260200160002060030160003373ffffffffffffffffffffffffffffffffffffffff1673ffffffffffffffffffffffffffffffffffffffff16815260200190815260200160002060009054906101000a900460ff16600281111561327f5761327e613c9a565b5b146132bf576040517f08c379a00000000000000000000000000000000000000000000000000000000081526004016132b690614bc4565b60405180910390fd5b82600080828152602001908152602001600020600a0160009054906101000a900460ff1615613323576040517f08c379a000000000000000000000000000000000000000000000000000000000815260040161331a906146a6565b60405180910390fd5b60008060008681526020019081526020016000209050600181600a0160006101000a81548160ff0219169083151502179055503373ffffffffffffffffffffffffffffffffffffffff16857f7a58ff517c00037031f8886d9305cec9b4a44d1c1a04fc2ef4d7a5d7a09eede5428760405161339f929190614af4565b60405180910390a35050505050565b6000806000808481526020019081526020016000209050600081600b0154141580156133dd575080600b015442115b915050919050565b600080600084815260200190815260200160002060070160008373ffffffffffffffffffffffffffffffffffffffff1673ffffffffffffffffffffffffffffffffffffffff16815260200190815260200160002054905092915050565b600080600080848152602001908152602001600020905080600a0160019054906101000a900460ff166134aa576040517f08c379a00000000000000000000000000000000000000000000000000000000081526004016134a190614164565b60405180910390fd5b806002018054905081600c0154101561350a578060020181600c0154815481106134d7576134d66141e7565b5b9060005260206000200160009054906101000a900473ffffffffffffffffffffffffffffffffffffffff16915050613510565b60009150505b919050565b6004818051602081018201805184825260208301602085012081835280955050505050506000915054906101000a900473ffffffffffffffffffffffffffffffffffffffff1681565b6000604051905090565b600080fd5b600080fd5b6000819050919050565b61358581613572565b811461359057600080fd5b50565b6000813590506135a28161357c565b92915050565b600073ffffffffffffffffffffffffffffffffffffffff82169050919050565b60006135d3826135a8565b9050919050565b6135e3816135c8565b81146135ee57600080fd5b50565b600081359050613600816135da565b92915050565b6000806040838503121561361d5761361c613568565b5b600061362b85828601613593565b925050602061363c858286016135f1565b9150509250929050565b61364f81613572565b82525050565b600060208201905061366a6000830184613646565b92915050565b60006020828403121561368657613685613568565b5b600061369484828501613593565b91505092915050565b60008115159050919050565b6136b28161369d565b82525050565b60006080820190506136cd6000830187613646565b6136da60208301866136a9565b6136e76040830185613646565b6136f460608301846136a9565b95945050505050565b600060208201905061371260008301846136a9565b92915050565b6000819050919050565b61372b81613718565b811461373657600080fd5b50565b60008135905061374881613722565b92915050565b600080fd5b600080fd5b6000601f19601f8301169050919050565b7f4e487b7100000000000000000000000000000000000000000000000000000000600052604160045260246000fd5b6137a182613758565b810181811067ffffffffffffffff821117156137c0576137bf613769565b5b80604052505050565b60006137d361355e565b90506137df8282613798565b919050565b600067ffffffffffffffff8211156137ff576137fe613769565b5b61380882613758565b9050602081019050919050565b82818337600083830152505050565b6000613837613832846137e4565b6137c9565b90508281526020810184848401111561385357613852613753565b5b61385e848285613815565b509392505050565b600082601f83011261387b5761387a61374e565b5b813561388b848260208601613824565b91505092915050565b600080600080608085870312156138ae576138ad613568565b5b60006138bc87828801613593565b94505060206138cd878288016135f1565b93505060406138de87828801613739565b925050606085013567ffffffffffffffff8111156138ff576138fe61356d565b5b61390b87828801613866565b91505092959194509250565b600081519050919050565b600082825260208201905092915050565b6000819050602082019050919050565b61394c816135c8565b82525050565b600061395e8383613943565b60208301905092915050565b6000602082019050919050565b600061398282613917565b61398c8185613922565b935061399783613933565b8060005b838110156139c85781516139af8882613952565b97506139ba8361396a565b92505060018101905061399b565b5085935050505092915050565b600060208201905081810360008301526139ef8184613977565b905092915050565b600081519050919050565b600082825260208201905092915050565b60005b83811015613a31578082015181840152602081019050613a16565b60008484015250505050565b6000613a48826139f7565b613a528185613a02565b9350613a62818560208601613a13565b613a6b81613758565b840191505092915050565b613a7f816135c8565b82525050565b600060e0820190508181036000830152613a9f818a613a3d565b9050613aae6020830189613a76565b8181036040830152613ac08188613977565b9050613acf6060830187613646565b613adc6080830186613646565b613ae960a08301856136a9565b613af660c08301846136a9565b98975050505050505050565b60008060408385031215613b1957613b18613568565b5b6000613b2785828601613593565b9250506020613b3885828601613739565b9150509250929050565b60008060408385031215613b5957613b58613568565b5b6000613b67858286016135f1565b9250506020613b7885828601613593565b9150509250929050565b600067ffffffffffffffff821115613b9d57613b9c613769565b5b613ba682613758565b9050602081019050919050565b6000613bc6613bc184613b82565b6137c9565b905082815260208101848484011115613be257613be1613753565b5b613bed848285613815565b509392505050565b600082601f830112613c0a57613c0961374e565b5b8135613c1a848260208601613bb3565b91505092915050565b60008060408385031215613c3a57613c39613568565b5b6000613c4885828601613593565b925050602083013567ffffffffffffffff811115613c6957613c6861356d565b5b613c7585828601613bf5565b9150509250929050565b6000602082019050613c946000830184613a76565b92915050565b7f4e487b7100000000000000000000000000000000000000000000000000000000600052602160045260246000fd5b60038110613cda57613cd9613c9a565b5b50565b6000819050613ceb82613cc9565b919050565b6000613cfb82613cdd565b9050919050565b613d0b81613cf0565b82525050565b6000602082019050613d266000830184613d02565b92915050565b600060208284031215613d4257613d41613568565b5b6000613d50848285016135f1565b91505092915050565b600060c0820190508181036000830152613d738189613a3d565b90508181036020830152613d878188613a3d565b90508181036040830152613d9b8187613a3d565b9050613daa6060830186613646565b613db760808301856136a9565b81810360a0830152613dc98184613a3d565b9050979650505050505050565b600080600080600060a08688031215613df257613df1613568565b5b600086013567ffffffffffffffff811115613e1057613e0f61356d565b5b613e1c88828901613bf5565b955050602086013567ffffffffffffffff811115613e3d57613e3c61356d565b5b613e4988828901613bf5565b945050604086013567ffffffffffffffff811115613e6a57613e6961356d565b5b613e7688828901613bf5565b9350506060613e8788828901613593565b925050608086013567ffffffffffffffff811115613ea857613ea761356d565b5b613eb488828901613bf5565b9150509295509295909350565b60006020820190508181036000830152613edb8184613a3d565b905092915050565b600080600060608486031215613efc57613efb613568565b5b6000613f0a86828701613593565b935050602084013567ffffffffffffffff811115613f2b57613f2a61356d565b5b613f3786828701613bf5565b9250506040613f4886828701613593565b9150509250925092565b600067ffffffffffffffff821115613f6d57613f6c613769565b5b602082029050602081019050919050565b600080fd5b6000613f96613f9184613f52565b6137c9565b90508083825260208201905060208402830185811115613fb957613fb8613f7e565b5b835b81811015613fe25780613fce88826135f1565b845260208401935050602081019050613fbb565b5050509392505050565b600082601f8301126140015761400061374e565b5b8135614011848260208601613f83565b91505092915050565b60008060006060848603121561403357614032613568565b5b600084013567ffffffffffffffff8111156140515761405061356d565b5b61405d86828701613bf5565b935050602084013567ffffffffffffffff81111561407e5761407d61356d565b5b61408a86828701613fec565b925050604061409b86828701613593565b9150509250925092565b6140ae81613718565b82525050565b60006020820190506140c960008301846140a5565b92915050565b6000602082840312156140e5576140e4613568565b5b600082013567ffffffffffffffff8111156141035761410261356d565b5b61410f84828501613bf5565b91505092915050565b7f446f63756d656e7420646f6573206e6f74206578697374000000000000000000600082015250565b600061414e601783613a02565b915061415982614118565b602082019050919050565b6000602082019050818103600083015261417d81614141565b9050919050565b7f4e487b7100000000000000000000000000000000000000000000000000000000600052601160045260246000fd5b60006141be82613572565b91506141c983613572565b92508282039050818111156141e1576141e0614184565b5b92915050565b7f4e487b7100000000000000000000000000000000000000000000000000000000600052603260045260246000fd5b7f5369676e657220686173206e6f74207369676e6564207468697320646f63756d60008201527f656e740000000000000000000000000000000000000000000000000000000000602082015250565b6000614272602383613a02565b915061427d82614216565b604082019050919050565b600060208201905081810360008301526142a181614265565b9050919050565b7f496e76616c6964207369676e6174757265206c656e6774680000000000000000600082015250565b60006142de601883613a02565b91506142e9826142a8565b602082019050919050565b6000602082019050818103600083015261430d816142d1565b9050919050565b600081905092915050565b7f19457468657265756d205369676e6564204d6573736167653a0a333200000000600082015250565b6000614355601c83614314565b91506143608261431f565b601c82019050919050565b6000819050919050565b61438661438182613718565b61436b565b82525050565b600061439782614348565b91506143a38284614375565b60208201915081905092915050565b600060ff82169050919050565b60006143ca826143b2565b91506143d5836143b2565b9250828201905060ff8111156143ee576143ed614184565b5b92915050565b7f496e76616c6964207369676e6174757265202776272076616c75650000000000600082015250565b600061442a601b83613a02565b9150614435826143f4565b602082019050919050565b600060208201905081810360008301526144598161441d565b9050919050565b614469816143b2565b82525050565b600060808201905061448460008301876140a5565b6144916020830186614460565b61449e60408301856140a5565b6144ab60608301846140a5565b95945050505050565b60006144bf82613572565b91507fffffffffffffffffffffffffffffffffffffffffffffffffffffffffffffffff82036144f1576144f0614184565b5b600182019050919050565b7f4e487b7100000000000000000000000000000000000000000000000000000000600052602260045260246000fd5b6000600282049050600182168061454357607f821691505b602082108103614556576145556144fc565b5b50919050565b7f596f752068617665206e6f74207369676e6564207468697320646f63756d656e60008201527f7400000000000000000000000000000000000000000000000000000000000000602082015250565b60006145b8602183613a02565b91506145c38261455c565b604082019050919050565b600060208201905081810360008301526145e7816145ab565b9050919050565b7f4e6f7420617574686f72697a6564207369676e65720000000000000000000000600082015250565b6000614624601583613a02565b915061462f826145ee565b602082019050919050565b6000602082019050818103600083015261465381614617565b9050919050565b7f446f63756d656e74206973207265766f6b656400000000000000000000000000600082015250565b6000614690601383613a02565b915061469b8261465a565b602082019050919050565b600060208201905081810360008301526146bf81614683565b9050919050565b7f446f63756d656e74206578706972656400000000000000000000000000000000600082015250565b60006146fc601083613a02565b9150614707826146c6565b602082019050919050565b6000602082019050818103600083015261472b816146ef565b9050919050565b7f416c7265616479207369676e6564000000000000000000000000000000000000600082015250565b6000614768600e83613a02565b915061477382614732565b602082019050919050565b600060208201905081810360008301526147978161475b565b9050919050565b7f4e6f7420796f7572207475726e20746f207369676e0000000000000000000000600082015250565b60006147d4601583613a02565b91506147df8261479e565b602082019050919050565b60006020820190508181036000830152614803816147c7565b9050919050565b7f5369676e61747572652072657175697265640000000000000000000000000000600082015250565b6000614840601283613a02565b915061484b8261480a565b602082019050919050565b6000602082019050818103600083015261486f81614833565b9050919050565b60008190508160005260206000209050919050565b60006020601f8301049050919050565b600082821b905092915050565b6000600883026148d87fffffffffffffffffffffffffffffffffffffffffffffffffffffffffffffffff8261489b565b6148e2868361489b565b95508019841693508086168417925050509392505050565b6000819050919050565b600061491f61491a61491584613572565b6148fa565b613572565b9050919050565b6000819050919050565b61493983614904565b61494d61494582614926565b8484546148a8565b825550505050565b600090565b614962614955565b61496d818484614930565b505050565b5b818110156149915761498660008261495a565b600181019050614973565b5050565b601f8211156149d6576149a781614876565b6149b08461488b565b810160208510156149bf578190505b6149d36149cb8561488b565b830182614972565b50505b505050565b600082821c905092915050565b60006149f9600019846008026149db565b1980831691505092915050565b6000614a1283836149e8565b9150826002028217905092915050565b614a2b826139f7565b67ffffffffffffffff811115614a4457614a43613769565b5b614a4e825461452b565b614a59828285614995565b600060209050601f831160018114614a8c5760008415614a7a578287015190505b614a848582614a06565b865550614aec565b601f198416614a9a86614876565b60005b82811015614ac257848901518255600182019150602085019450602081019050614a9d565b86831015614adf5784890151614adb601f8916826149e8565b8355505b6001600288020188555050505b505050505050565b6000604082019050614b096000830185613646565b8181036020830152614b1b8184613a3d565b90509392505050565b50565b6000614b34600083613a02565b9150614b3f82614b24565b600082019050919050565b6000604082019050614b5f6000830184613646565b8181036020830152614b7081614b27565b905092915050565b7f4e6f7420646f63756d656e74206f776e65720000000000000000000000000000600082015250565b6000614bae601283613a02565b9150614bb982614b78565b602082019050919050565b60006020820190508181036000830152614bdd81614ba1565b9050919050565b7f4950465320686173682072657175697265640000000000000000000000000000600082015250565b6000614c1a601283613a02565b9150614c2582614be4565b602082019050919050565b60006020820190508181036000830152614c4981614c0d565b9050919050565b60006040820190508181036000830152614c6a8185613a3d565b9050614c796020830184613646565b9392505050565b7f55736572206e6f74207265676973746572656400000000000000000000000000600082015250565b6000614cb6601383613a02565b9150614cc182614c80565b602082019050919050565b60006020820190508181036000830152614ce581614ca9565b9050919050565b7f416c726561647920726567697374657265640000000000000000000000000000600082015250565b6000614d22601283613a02565b9150614d2d82614cec565b602082019050919050565b60006020820190508181036000830152614d5181614d15565b9050919050565b6000614d63826139f7565b614d6d8185614314565b9350614d7d818560208601613a13565b80840191505092915050565b6000614d958284614d58565b915081905092915050565b7f456d61696c20616c726561647920726567697374657265640000000000000000600082015250565b6000614dd6601883613a02565b9150614de182614da0565b602082019050919050565b60006020820190508181036000830152614e0581614dc9565b9050919050565b600060a0820190508181036000830152614e268188613a3d565b90508181036020830152614e3a8187613a3d565b90508181036040830152614e4e8186613a3d565b9050614e5d6060830185613646565b8181036080830152614e6f8184613a3d565b90509695505050505050565b7f43616e6e6f7420616d656e642066756c6c79207369676e656420646f63756d6560008201527f6e74000000000000000000000000000000000000000000000000000000000000602082015250565b6000614ed7602283613a02565b9150614ee282614e7b565b604082019050919050565b60006020820190508181036000830152614f0681614eca565b9050919050565b7f457870697279206d75737420626520696e207468652066757475726500000000600082015250565b6000614f43601c83613a02565b9150614f4e82614f0d565b602082019050919050565b60006020820190508181036000830152614f7281614f36565b9050919050565b7f496e76616c6964207369676e6572206164647265737300000000000000000000600082015250565b6000614faf601683613a02565b9150614fba82614f79565b602082019050919050565b60006020820190508181036000830152614fde81614fa2565b9050919050565b600081549050919050565b60008190508160005260206000209050919050565b60008160001c9050919050565b600073ffffffffffffffffffffffffffffffffffffffff82169050919050565b600061504561504083615005565b615012565b9050919050565b60006150588254615032565b9050919050565b6000600182019050919050565b600061507782614fe5565b6150818185613922565b935061508c83614ff0565b8060005b838110156150c4576150a18261504c565b6150ab8882613952565b97506150b68361505f565b925050600181019050615090565b5085935050505092915050565b600060608201905081810360008301526150eb8186613a3d565b905081810360208301526150ff818561506c565b905061510e6040830184613646565b94935050505056fea264697066735822122062890d953394c77fb7d46159067205ad29040f99394ca3166402289ac233914964736f6c63430008150033",
  "linkReferences": {},
  "deployedLinkReferences": {}
}